:10000000803E0020D92600002F670100C526000091
:10001000C5260000C5260000C5260000000000001F
:100020000000000000000000000000009D2700000C
:10003000C5260000000000003D270000C526000086
:100040005D290000990001005D2900005D29000084
:100050005D2900005D2900005D2900005D29000088
:100060005D2900005D2900005D2900005D29000078
:100070005D2900005D2900005D2900005D29000068
:100080005D2900005D2900005D2900005D29000058
:100090005D2900005D2900005D2900005D29000048
:1000A0005D2900005D2900005D2900005D29000038
:1000B0005D2900005D2900005D2900005D29000028
:1000C0005D2900005D2900005D2900005D29000018
:1000D0005D2900005D2900005D2900005D29000008
:1000E0005D2900005D2900005D2900005D290000F8
:1000F0005D2900005D2900005D2900005D290000E8
:1001000053B94AB9002908BF00281CBF4FF0FF317E
:100110004FF0FF3000F00CB8ADF1080C6DE904CEE3
:1001200000F018F8DDF804E0DDE9022304B07047C0
:10013000704700BF034611F8012B03F8012B002A7A
:10014000F9D17047034613F8012B002AFBD1181A86
:10015000013870472DE9F04786468C460846089ED0
:10016000154674461946002B40F0C2808542B2FA0B
:1001700082F245D94AB1C2F1200300FA02FC2EFAFC
:1001800003F3954043EA0C0C94404FEA154EA8B295
:10019000BCFBFEF8230C0EFB18CC08FB00F943EA6D
:1001A0000C43994528D9EB1808F1FF3704D299453B
:1001B00002D9A8F102072B44A3EB0903A4B2B3FBB5
:1001C000FEFC0EFB1C330CFB00F044EA0344A0428F
:1001D00014D92C190CF1FF3304D2A04202D9ACF18E
:1001E00002032C44241A43EA07401EB1D4400023E2
:1001F00034607360BDE8F0874746DDE76346F1E7AA
:1002000092BB431B01214FEA154EAFB2B3FBFEFC7C
:10021000200C0EFB1C330CFB07F840EA0343984507
:1002200062D9EB180CF1FF3004D2984502D9ACF139
:1002300002002B44A3EB0803A4B2B3FBFEFC0EFBAD
:100240001C330CFB07F744EA0344A7424ED92C1990
:100250000CF1FF3304D2A74202D9ACF102032C44C3
:10026000E41B43EA0040C0E7C2F1200320FA03F197
:10027000954090402EFA03F303434FEA154EAFB278
:10028000B1FBFEFC0EFB1C10190C0CFB07F841EA3D
:100290000041884504FA02F422D969180CF1FF30B4
:1002A00004D2884502D9ACF102002944A1EB08012F
:1002B0009BB2B1FBFEFC0EFB1C110CFB07F743EAE3
:1002C00001439F420ED9EB180CF1FF3104D29F423B
:1002D00002D9ACF102012B44DB1B41EA004192E759
:1002E0006046E3E76146F7E76046A3E76346B7E7A2
:1002F000834206D916B9002108467BE7C6E900E02B
:10030000F9E7B3FA83F78FB9834201D3724508D86E
:10031000BEEB020460EB030301209C461EB90021E2
:1003200068E73846FAE7C6E9004CF8E7C7F1200C61
:10033000BB4022FA0CF41C432EFA0CF120FA0CF309
:10034000B84001434FEA14490EFA07F5B3FBF9F838
:100350001FFA84FE09FB18300B0C08FB0EFA43EA67
:1003600000439A4502FA07F240D9E31808F1FF303A
:1003700004D29A4502D9A8F102002344A3EB0A0350
:1003800089B2B3FBF9F809FB183308FB0EFE41EA0A
:1003900003418E452CD9611808F1FF3304D28E45F4
:1003A00002D9A8F10203214443EA0040A0FB0298CD
:1003B000A1EB0E014145CE46434602D306D14D4541
:1003C00004D2B9EB020E68EB04030138002EA6D06C
:1003D000B5EB0E0261EB030101FA0CFC22FA07F304
:1003E0004CEA0303F940C6E9003198E74046C5E707
:1003F0004346D9E70000000038B5194C9DF810E0DD
:1004000094F838C01CF0010523D163F3420C40017D
:1004100094F82630E1854FEACE0E0EF0180E00F06B
:10042000200040EA0E0023F0380303430D4884F80F
:1004300026309121A2FB000384F838C001FB023171
:1004400005A3D3E90023FFF75BFEC4E90C002846AF
:1004500038BD0C25284638BD8D49FD1A070000001F
:10046000500D0020002AE78410B504469DF80800CE
:10047000E2834FEA411CC000A17D00F018000CF09F
:10048000200C4CEA000C0C4821F038014CEA010C1D
:10049000A3FB0002912184F816C001FB032104A3F1
:1004A000D3E90023FFF72CFE206210BDAFF30080DC
:1004B0008D49FD1A07000000002AE78400000000B3
:1004C0002DE9F043044600F1280190F8380094F833
:1004D00026304D4DC0F3400060F386138DB084F894
:1004E000263007F015FF94F82620E38D4748246155
:1004F00002F07902002784F826209121A3FB000254
:10050000C4E90277277001FB03213DA3D3E900234F
:10051000FFF7F6FD626B3E4B651BA3FB053502F151
:10052000090398428EBF19463A460146226361602C
:10053000064607F09FFE6369C5F3471500F10907FA
:10054000002B40D00DF12C08CDF820800694E38DCF
:100550002E484FF00009A3FB0002CDF80C9091212A
:1005600001FB0321636804932A4B07932A4B0593ED
:1005700002230B9322A3D3E90023FFF7C1FD10460A
:1005800019464FF47A720023FFF7BAFD0235EDB237
:10059000CDE9016003213B462A46CDF8009048464C
:1005A00007F010FD414608F027FD40B994F83830B7
:1005B00043F0010384F838300DB0BDE8F0830C201F
:1005C0000DB0BDE8F0830DF12C08CDE90A33616868
:1005D00043460AAA032000F057FE0028B4D10B9925
:1005E0000E4807A3D3E90023A1FB0001FFF788FD14
:1005F0000A9B20F07F471F44A6E700BFAFF30080AF
:100600008D49FD1A07000000500D0020002AE784E4
:1006100089888888D983000005AB000000CA9A3B0E
:100620002DE9F0418468A28C4FF6FF739A428AB09C
:1006300076D0064620460CF0E3FDB37C012B00F09B
:100640003281022B00F02481002B00F0048194F809
:100650001881B8F1000F40F01F81E78DA58DF38957
:100660003D440135ADB2002B5DD1337C03F0030373
:10067000012B00F0EB80B4F84631002B5BD0AB428D
:1006800040F23C815B1BA4F84631B4F84A31002BA0
:1006900000F0DF80AB4240F22F815B1B9BB2062B48
:1006A000A4F84A314FF000028CBF00230123E285F9
:1006B000984694F83A2063F3820284F83A20294657
:1006C0000DF1270220460CF04FFB743023D0B4F814
:1006D00044312BB1AB4240F2FB805B1BA4F84431A8
:1006E000B4F840312BB1AB4240F2EB805B1BA4F875
:1006F000403194F89930E58D03F00103B8F1000F13
:1007000037D1AF4262D00135ADB2002B61D13DB1DE
:100710004346404631E09DF8271020460AF0F0FF9E
:100720000AB0BDE8F081A4F84681337C03F00303EE
:10073000012B00F08B80B4F84A31002BAAD1E28C57
:10074000052A97BF013240F2E2434FF4FA7392B2A6
:1007500003FB02F2B4F8483142F2107101FB0323AB
:10076000013BB3FBF2F39BB2A4F84A31002B91D1C9
:100770006FE00135ADB263BB0020A28C26690696FE
:10078000CDE901300024684805900332CDF810808F
:10079000039500942346D2B20121204607F02EFC97
:1007A00010F0FD0FBCD008F039FC8642B8D05F4A8B
:1007B0005F4960484FF4AE6315F061FE84F3118821
:1007C000BFF36F8F0323184602DFA9E7002BA7D0E2
:1007D000454694F8993094F937206FF30003002AC6
:1007E00084F8993065DB94F83B00C0F3C00100F059
:1007F000070010F079F894F83B2094F83C1002F0D0
:1008000003030933C2F34002DB00D34001F00302CB
:100810000932C1F34001D200CA40E18B01F23F111D
:100820000B4413440344444A44480721E3FB00219A
:1008300010463BA3D3E90023FFF762FC636820F076
:100840007F40834253D2C31A606095E70023A4F827
:100850004A3100232DE794F8563003F01803182B83
:100860007FF4F5AE218DB4F842218B1D9A42C4BFAE
:10087000931F5B1AB4F83E11CCBF9BB2134699424A
:1008800042D0A4F83E31A4F84031A4F84421DEE679
:100890004FF03D0884F81881414620460AB0BDE873
:1008A000F0410AF02DBF0023A4F84431A4F84031F0
:1008B000CDE694F83C00012100F0070010F016F896
:1008C00099E70023A4F8403120460CF0D1FA10E754
:1008D00008F050FB014698B10023A4F84431A38CE2
:1008E000C3801B230371006808F016FBF8E6606004
:1008F000181A0FD0002340E70821CEE73E21CCE7AD
:100900000123A4F84431EBE6B4F8441100297FF444
:100910009EAEB8E7002DEDD1B8F1000FEAD1FFE6A9
:100920008D49FD1A07000000F5AF00005C9E010034
:10093000809F0100C49A01008C49FD1A00CA9A3BAD
:100940002DE9F04F8FB0078EBDF864200D9303782A
:10095000BDF86090BDF868A0BDF86C80CDE90B12C1
:100960000446002B00F03F81013FBFB294F83B00EA
:10097000D4F8D4300A93C0F3C00100F007000FF0A0
:10098000B3FFE58CA7EB0806052DB6B240F2248133
:1009900015FB06F5ADB240F2E24BB9F1050F40F29E
:1009A0000F8194F83C2094F83B1002F003032833A5
:1009B000C2F34002DB00D34001F003022832B3F55A
:1009C000A47FC1F340014FEAC20222FA01F238BF0C
:1009D0004FF4A473B2F5A47F2CBF9B1803F5A47346
:1009E00003F2D5131844904A904B0721E0FB0231E3
:1009F00018464FF09613E3619623238488A3D3E926
:100A00000023FFF77DFB4E4620F07F4040F2E2439B
:100A100003FB06F60BFB05F56060B5FBF6FB1FFA62
:100A20008BF006FB00F085421FFA8BFB80F0BA804A
:100A30007D49401B7AA3D3E90023A0FB0101FFF706
:100A40005FFB0A9B20F07F451D44638DB4F8DC20DA
:100A50001344984494F83730A8EB0708C344DB09E3
:100A6000A4F82AB040F0C6800D9B6F48A3FB00019C
:100A70006BA3D3E90023FFF743FB20F07F47013747
:100A80000C9B238531462046A4F82690A4F848A163
:100A90000CF0A6F9664B218D3344881DB3FBF6F3A9
:100AA0009AB29042A4F8422104D2C1F57F41FA31B2
:100AB0000A4492B20B9BA4F83E2113B10023A4F880
:100AC0004A310221012011F0A7FD002202218146B6
:100AD000012006F0DDF857494FF4AC72204606F0CD
:100AE00067F800F10308544B00935FFA88F801940B
:100AF0002B4642460121002007F014FB10F0FD0FA9
:100B00000ED04E4A4E494F4840F68F0315F0B7FCC1
:100B1000002383F31188BFF36F8F0323184602DF8E
:100B200041483FA3D3E9002386FB0001FFF7E8FA21
:100B300008940694194663680493434B0793434B08
:100B400005934FF6FE7306460393104600234FF4B9
:100B50007A72FFF7D5FA0097CDE901602B4642463D
:100B60000121002007F02EFA10F0FD0F0ED0334ABD
:100B70003349344840F6A40315F081FC002383F385
:100B80001188BFF36F8F0323184602DFB9F1000FFE
:100B900040D194F83C3143F0010384F83C310FB06C
:100BA000BDE8F08F2D1A20481DA3D3E90023A5FB33
:100BB0000001FFF7A5FA0A9B20F07F455D1B44E783
:100BC0004FF0961309F10106E36196232384B6B230
:100BD0000A204FF4FA731BE7013515FB06F5ADB299
:100BE0004FF4FA7BD9E6438D1F44B0F8DC301F4444
:100BF000BFB2BBE6114A1649124840F6581315F029
:100C00003EFC002787F31188BFF36F8F032318463C
:100C100002DF35E701220221104606F039F8B8E775
:100C20008D49FD1A0700000000CA9A3B8C49FD1A45
:100C30007FC3C901900D002099B000005C9E0100A7
:100C4000509F0100C49A010039B00000CDFB0000A4
:100C5000449B0100000000002DE9F04F8BB0CDE96E
:100C600003019A460020BDF858309DF85470BDF835
:100C70005CB0BDF86080059206930AF02FF800285A
:100C800000F0228107F001050446284607F030FBFA
:100C9000002D4CD1D4F8149004F110030793B9F14E
:100CA000000F4BD06669356896F82B00C0F3C00181
:100CB00000F007000FF018FEF389B94A00F2CF30B8
:100CC0000344B8480721E3FB00211046B2A3D3E94F
:100CD0000023FFF715FA20F07F40686094F8381081
:100CE00067F3420184F8381094F827106AF3000182
:100CF000DDE9032384F8271014990968A161149988
:100D00008988A1830599A4F8248004F1100000913A
:100D10000021FFF7A9FB60630FF0CAFF002840F035
:100D2000D7802046FFF7CCFB0BB0BDE8F08F062143
:100D300005F052FF0028ADD11220F5E708F0D4F8F5
:100D40000790002800F001810AF0D6F90546002836
:100D500000F0F880143006F0FBF805F110060028CA
:100D600040F0E280032105F118000FF08DFC069B96
:100D7000286DEB844FF6FF73A5F828B0AB840028EC
:100D800000F0E58005F1440205F1400105F030FF77
:100D900095F83B3023F07F0343F0190385F83B308F
:100DA00095F8563023F0070385F8563095F83C3017
:100DB0004FF0010B4FF000096BF3020385F83C3054
:100DC000C5F85090A5F85490A5F82A90C5F82E9033
:100DD00005F132000FF094F895F8373060F3050311
:100DE000594685F837300DF127000FF04DFC9DF87E
:100DF00027206D4B85F83990A3FB0213DB0803EB2A
:100E00004303A2EB830295F83730298DA5F84A9168
:100E100003F03F0385F8373095F83A30A5F8409154
:100E2000053223F0070385F83820069A85F83A3012
:100E300040F2E2495D4BA5F8488109FB02F94FF405
:100E4000C0224B44C5F84421881DB3FBF9F39AB284
:100E50008242A5F8422102DD063A521A92B2A5F862
:100E60003E2128460BF044FF494628460BF0B8FFC8
:100E70004FF00009079BC5F81C3185F818910AF05E
:100E80005BFB95F8503160F3020385F850310AF0AE
:100E900059FB95F8503160F3C50385F8503195F84A
:100EA0003C3169F3410385F83C3105F19C000BF0BE
:100EB00013FD4FF09613C5E907336661C5E9029942
:100EC00085F800902D61EFE60C200BB0BDE8F08FA7
:100ED00065692B6C73B1364A3649374840F2214375
:100EE00015F0CDFA002383F31188BFF36F8F03232E
:100EF000184602DF05F1340105F1300005F07CFEF3
:100F00000646002836D02F682E64D7F81C5115B33A
:100F1000284607F0EFFF38460AF0F4F800230320D4
:100F200063610BB0BDE8F08F214A24492248C123F8
:100F300015F0A5FA89F31188BFF36F8F03231846C4
:100F400002DF0FE7079807F0D5FF0720ECE605F171
:100F50004800286516E7164A1949174840F22A43FF
:100F600015F08DFA85F31188BFF36F8F03231846B0
:100F700002DFCDE70E4A12490F4840F2234315F035
:100F80007EFA86F31188BFF36F8F0323184602DFC2
:100F9000B9E700BFAFF300808D49FD1A07000000DC
:100FA0008C49FD1A00CA9A3BABAAAAAA7FC3C90101
:100FB0001CA4010060A40100C49A0100209B010050
:100FC000AC9E0100000000002DE9F04F04468DB0FA
:100FD000067F238D406AADF82C30E307C6F3C017B7
:100FE00088461546C6F340160A9000F1DF80A777C1
:100FF000BDF82C300A98A4F823300027A783C4F842
:101000001F00D8F80030D3F800A0EB8AE3842B8BC4
:101010002385BAF8243063850FF09AFE84F82C00FB
:10102000D5F8009048460AF073F83946A882E08067
:1010300048460BF0E9FED8F804702068214607F016
:101040005FFFAB8AFB801C233C683B71002E40F0A5
:10105000BD803E773946204607F05EFF95F82B00AD
:10106000B5F816B0D8F80C70614C40F2E243C0F30A
:10107000C00100F0070003FB0BFB0FF035FC002262
:1010800002213F1A012005F003FE504609F0FEFD43
:10109000A7FB044754A3D3E900230546394620465D
:1010A000FFF72EF8CDF804A0D8F808305149009188
:1010B00020F07F46AA1C3A3BD2B2334401210020E3
:1010C00007F030F810F0FD0F0ED04B4A4B494C485A
:1010D00040F2413315F0D3F9002383F31188BFF3B5
:1010E0006F8F0323184602DF4FF0000A01221146DA
:1010F0005346CDF800A0504606F0D2FF48460AF00D
:1011000007F805463A4838A3D3E90023ABFB0001B2
:10111000FEF7F6FF19463B4BD8F8088008933A4B88
:10112000069340F27133CDF81C900993D9F804303E
:101130008346CDE904A3104600234FF47A72FEF7EC
:10114000DFFF324B0722A6FB0331CDE902B002FBE1
:101150000611E01A67EB01014FF47A720023FEF7E3
:10116000CFFF0335A8F13A08EDB2CDE90060434660
:101170002A460121504606F0D1FE10F0FD0F0DD099
:101180001D4A1E491E4840F2723315F078F98AF361
:101190001188BFF36F8F0323184602DF012202215B
:1011A00010460DB0BDE8F04F05F072BD124A184967
:1011B000134840F2BD2315F062F9002383F3118830
:1011C000BFF36F8F0323184602DF10E795F827302F
:1011D00043F0400385F82730281D0EF0E7FE012676
:1011E000288536E7AFF300808D49FD1A070000001F
:1011F00000CA9A3B95FB00001CA40100509F01000F
:10120000C49A010099FB0000CDFB00008D49FD1A36
:10121000549D010000000000032801D00020704709
:1012200070B500200D4609F07BFF044638B190F9F7
:101230003730002B05DA40682860204670BD00205A
:1012400070BD90F83B000E4EC0F3C00100F00700E7
:101250000FF04AFB0B4A00F265400721E0FB062134
:10126000104605A3D3E90023FEF74AFF20F07F4094
:10127000E2E700BFAFF300808D49FD1A07000000D0
:1012800000CA9A3B8C49FD1A2DE9F04F93B0FF2715
:101290000B930B1D0A930023CDE90E33054616462A
:1012A0008DF83770994608933C4698469A460DF15A
:1012B000400B614B0593614B03930FAB01930EAB56
:1012C0000020009302231093CDF818B004900290F0
:1012D00033460DF13702294606F068FF022812D086
:1012E000109BB3B9FF2C25D03368434522D0002F83
:1012F00050D0013FFF24FFB28DF83740D9E729468F
:10130000002006F09FFF109B022BF8D0109B002BB3
:10131000E8D04B4A4B494C4840F2D91315F0AFF88E
:10132000002383F31188BFF36F8F0323184602DF76
:10133000FF2CD9D19DF83700FF283AD011A9FFF72B
:101340006BFF0028B5D09DF83730032B18D0FF2C49
:10135000DDF83880119B0AD049464046099306F0D3
:101360008BFF0A9B03EB0A029042099B23D89A4603
:101370000F9B9DF837400893C146D6F8008098E748
:10138000002009F0CDFE0028E1D090F93730002B85
:10139000DDDA8EE72D492A4A2B4840F2E11315F099
:1013A0006EF887F31188BFF36F8F0323184602DFAF
:1013B0009FE7FF2C37D026480721AAFB000301FB3B
:1013C0000A311BA3D3E90023FEF79AFE044600B1BD
:1013D0003E3408991F4AA1F57423A3F51073934274
:1013E00017D81B480721A9FB000301FB093110A3F3
:1013F000D3E90023FEF784FE089A174BA3FB0223D0
:1014000004EB93440B9B044400201C6013B0BDE824
:10141000F08F01F1E87303F5D43303F5A57309F1F7
:10142000FF390893DDE76FF0090013B0BDE8F08FD6
:1014300000CA9A3B00000000A5FE0000A9FE0000C3
:10144000A0A40100E4A40100C49A0100ECA40100DE
:101450008D49FD1ABFBDF07F83DE1B4300000000F5
:101460002DE9F043C668476873683D491A68D0F8AB
:101470000090A7F57423A3F510738B4283B08046C8
:1014800007D907F1E87707F5D43709F1FF3907F5F0
:10149000A57773685168DD8ACDF8049006F11003D2
:1014A00001AA0220FFF7F0FE00284ED10199A1EB1E
:1014B00009031B0237D40846494606F0DDFE034601
:1014C00028480721A3FB000201FB032122A3D3E943
:1014D0000023FEF715FE34690444002C346109DB57
:1014E00040F2E24305FB03F3A3422FD2E41AA342E6
:1014F000FCD33461D8F800301A48A3EB0903A3FBEE
:101500000002072101FB032113A3D3E90023FEF707
:10151000F7FD154BA3FB0737A0EB97402044306144
:1015200003B0BDE8F083484606F0A6FE03460D482A
:101530000721A3FB000201FB032107A3D3E900233A
:10154000FEF7DEFD3469241AC7E73469002CD1D1D7
:1015500003B0BDE8F08300BF00CA9A3B0000000062
:10156000BFBDF07F8D49FD1A83DE1B4300000000E4
:101570002DE9F041C46894F91630002B8CB0C0F20C
:10158000DA80636805460E46002B40F0C980A37DD3
:101590006FF30003A37510F037FC002010F05AFC25
:1015A0000021084610F048FC00222521082010F0F8
:1015B00085FC012007F0E6FD0746002800F0A18029
:1015C00007F11C0010F0A4FC754B0B930BA810F056
:1015D00061FC744940F25B6010F01AFDA07DC0F31D
:1015E000410025300FF03CF96F48214610F0CAFB4E
:1015F000A37D9B0602D46368002B7FD0962010F059
:1016000035FE00231A461946184610F067FDD4F837
:1016100000802F6840460FF00FF907446A6807F111
:101620000901002010F02EFE10F002FF10F0C6FDA0
:10163000204609F037FB811CC9B240463A460FF0FC
:10164000FDF8804600287DD116B9236A002B31D1E0
:1016500063683BB1554B0122022100209D6005F0DB
:101660004BFBB8B920460FF081F818B900200CB038
:10167000BDE8F0814E4A4F494F4840F20B2314F029
:10168000FEFE002383F31188BFF36F8F03231846F8
:1016900002DFEBE7464A4949474840F2062314F087
:1016A000EEFE002383F31188BFF36F8F03231846E8
:1016B00002DFD7E7424A0792424A059240F2F3120C
:1016C00000930892CDE90366CDE9016606943B4696
:1016D0000122314606F076FC10F0FD0FB8D0344AF6
:1016E000394935484FF4FA7314F0C9FE86F311886E
:1016F000BFF36F8F0323184602DFA9E710F04EFDFA
:1017000085E72B4A31492C484FF4C57314F0B7FED6
:1017100087F31188BFF36F8F0323184602DF4FE76B
:10172000636893F82A30D90705D4636893F82A30A0
:101730009A077FF52CAF2648214610F023FB10F0C6
:1017400009FC93E71A4A23491B4840F2E51314F0B9
:1017500096FE214B0721A8FB030301FB08310EA3D2
:10176000D3E90023FEF7CCFC1C4902461C4814F0C8
:1017700086FE002585F31188BFF36F8F032318467B
:1017800002DF1848214610F0FDFA10F0E3FB6FF07D
:101790008B006CE7AFF3008000CA9A3B00000000AA
:1017A000D6BE898E5555550089180000CC070020FB
:1017B000B0A601000C9C0100C49A0100589B0100D6
:1017C000DD0E0100850F0100E0A50100FCA601006F
:1017D000C5090100449B01008D49FD1A44A7010081
:1017E00004A70100DD0D010038B504460FF0B6FA7C
:1017F000A37DA27DC3F34103013303F00303032B55
:1018000008BF002363F3420214BF03F12500252023
:10181000A2750FF025F863680BB123694BB906F088
:1018200029FDC11C002010F0A1FDBDE8384010F0DA
:10183000FFBD10F0C9FD054606F01CFDC11C0020CF
:1018400010F094FD10F0F4FD10F0BEFD294606F0F6
:1018500013FD0B4A03460721A0FB020201FB0321F3
:1018600005A3D3E90023FEF74BFC23691B1A236170
:1018700038BD00BFAFF3008000CA9A3B00000000F3
:101880008D49FD1A000000002DE9F0478AB004469A
:1018900010F0AAFBC0B250B90FF03CF8B84821468E
:1018A00010F070FA0AB0BDE8F04710F053BB10F02A
:1018B000BBFB054610F0BAFC064610F0C1FC10F068
:1018C00097FCEDB2074610F077FC0FF023F8002DDF
:1018D000E4D0012007F056FC0546002800F03381D3
:1018E00094F8168018F0080FC8F3C10AC8F3C001B5
:1018F00040F0C0802E7F6268FFB206F00F03002A1E
:1019000000F0BD80626892F82A20920700F1B7804B
:10191000072BC3D099B9E27DC6F3801102F0010212
:10192000914240F0AC80062205F11E0104F108004E
:10193000079317F0E5FC079B002840F0A080002BE0
:1019400040F02A816B7F063B1F2BA7D8042007F0AD
:1019500019FC0028A2D010F073FD236A064643B993
:10196000E38B40F2712202FB03F3B0FBF3F203FBC3
:1019700012062268834B52680721A2FB030301FB76
:1019800002317DA3D3E90023FEF7BAFB6FF4427363
:10199000C3181F3B4FF0000747F1FF32B34272F10B
:1019A0000002FFF47BAF10F0F9FBA67D636810F036
:1019B00049FB05F11E03019309AB0493C6F380169E
:1019C00004F11803029603932B7FC3F3801301469F
:1019D000064600933A46012320460FF091FB30461D
:1019E00010F09CFA10F0ECFA002840F08181664873
:1019F000214610F0C7F9626892F82A3043F00103DB
:101A000082F82A30A37D43F08003A37507F0D4FB4E
:101A1000172303714FF6FF73C38095F81CE0074648
:101A20003346CEF3401E00F11C0206F1200C1D6867
:101A300058689968DE68D660103363451560506059
:101A4000916002F11002F2D11B6813603B7FBC6011
:101A50006EF345133B7710F0B7FC099BC7E904030D
:101A600007F0AAFBF860386839460AB0BDE8F047CD
:101A700007F0CCBBF6B2002E3FF410AF3AE7002BD4
:101A800070D16A7F052A7FF609AF252A3FF606AF97
:101A900008F02101202940F0C1806268002A00F08E
:101AA000D080062B3FF6FAAE4FF0450929FA03F92C
:101AB00019F0010940F0B180012B00F0B380042B34
:101AC0007FF4ECAE6B7F063B1F2B3FF6E7AE18F0C2
:101AD000010F3FF4E3AE10F0B5FA2E7F0278C6F3A3
:101AE0008013B3EBD21F7FF4D9AE0830062205F184
:101AF0001E0117F005FC00287FF4D0AE6B7F002B91
:101B00003FF4CCAE636823B106F00F06072E7FF4D6
:101B1000C5AE032007F036FB054600283FF4BEAEF5
:101B200007F04AFB4FF6FF73EB8005232B71E7B9F3
:101B30007F206B7E287669F3000328686B76294640
:101B400007F064FBAAE6114A1149124840F2C72384
:101B500014F095FC85F31188BFF36F8F03231846AB
:101B600002DFBDE6062B8CD09BE710F031FBC0B244
:101B7000DFE700BFAFF3008000CA9A3B000000001F
:101B8000F50D01008D49FD1ACD0F0100B0A6010031
:101B9000FCA60100C49A0100012BE3D16A7F0C2A44
:101BA0007FF47CAEC8F38013B3EBD61F4FEAD6198F
:101BB00000F0AD80BAF1010F1ED9B9F1000F06D0C7
:101BC00095F8293003F0C003402B3FF4BFAEC8F3B3
:101BD0008018B8EBD61F4FEAD61913D0B9F1000F11
:101BE0003FF45CAE95F8293003F0C003402B7FF43E
:101BF00055AE4FF0010985E7C8F38019B9EBD61F40
:101C00007FF44CAE062205F1240104F1180017F010
:101C100077FB90B94FF0000974E76A7F063A1F2AF4
:101C2000F8D93BE66A7F0C2A7FF438AEC8F38018F7
:101C3000B8EBD61F4FEAD619E4D0BAF1010FCDD8D0
:101C40002CE69620079210F011FB079A104610F030
:101C5000FDF9032007F096FA064600283FF41EAE71
:101C600007F0AAFA4FF6FF73F38005233371002FB4
:101C700058D17F23727E33766FF30002727631463D
:101C8000306807F0C3FA10F0DDF90378032666F335
:101C9000030303702B7F0278C3F3801363F3C7122F
:101CA0000C2302704370A37DD2B2C3F3801363F39D
:101CB0008612034603F8022BA269C0F80220A28B09
:101CC0009A80D5F81E3083606B8C838110F026F9E2
:101CD00010F076F950BB10F0ABFBA37D1B4843F02E
:101CE00001032146A3750AB0BDE8F04710F04AB8D9
:101CF000174A1849184840F2AF4314F0C0FB87F365
:101D00001188BFF36F8F0323184602DF6FE60622A8
:101D100005F1240104F1180017F0F2FA00283FF44D
:101D200015AE47E710F054FAC3B2A3E7084A0949D1
:101D3000094840F2335314F0A2FB002383F31188C7
:101D4000BFF36F8F304602DFC5E700BF090E010009
:101D5000B0A6010030A70100C49A010000000000F5
:101D6000F0B5C468A28A4FF6FF739A4285B000F0BE
:101D70008F8005460FF0B4FA2B89628B208CA383E9
:101D80001A4492B2104494F82730E28380B2411C86
:101D900021845E064FF00001618304F1220160D4CA
:101DA00003F03F000B4694F82810009004F129003E
:101DB0000EF0B4F80646204603A90FF0FDFB039B86
:101DC00094F846101A7861F3C3021A70039A94F8D3
:101DD00046301178C3F3400363F38201117010F0B1
:101DE00013F8002010F036F8201D10F053F8238966
:101DF000A17A40F25B6043EA014110F009F93046F4
:101E00000EF02EFD039920460FF0ACFB21463A4818
:101E10000FF0B8FFE08910F029FA94F82C0000F0D8
:101E2000070010F013F927682E6838460EF004FDFD
:101E300006446A6806F10901012010F023FA10F047
:101E4000F7FAA18A03313246C9B238460EF0F6FCE1
:101E5000054620BB20460EF089FC50B9002005B095
:101E6000F0BD0A4603F03F03218D0EF0A3F80646AD
:101E7000A1E7224A224923484FF4827314F0FFFA63
:101E800085F31188BFF36F8F0323184602DFE5E760
:101E90001D4821460FF076FF10F05CF8DEE7174A88
:101EA0001A491848FA2314F0EAFA194B0721A5FB3E
:101EB000030301FB05310EA3D3E90023FEF720F94C
:101EC00014490246144814F0DAFA002585F3118803
:101ED000BFF36F8F0323184602DF104821460FF02F
:101EE00051FF10F037F86FF08B00B8E7AFF30080C8
:101EF00000CA9A3B0000000099140100DCA7010011
:101F00000C9C0100C49A0100C5090100449B01001A
:101F10008D49FD1A2CA8010004A70100A5090100A4
:101F20001FB50B4A1068516801AB03C3906809499B
:101F3000186001A802F026FB014628B1064814F0FB
:101F400091FA05B05DF804FB044814F08BFAF8E749
:101F5000A09701001D2000008CAA0100AFAA01007B
:101F600070B503788AB004460E4607AD032B20D81F
:101F7000DFE803F002191B1D11492846FEF7DAF8C5
:101F8000059563780493A3780393E3780293237908
:101F9000019363790093A3790A4A1E21304613F016
:101FA0000BFE0AB070BD0849E7E70849E5E70849B4
:101FB000E3E7084A0A21284613F0FEFDE0E700BFE8
:101FC000CEAA0100F7AA0100D5AA0100DCAA0100EF
:101FD000E6AA0100F0AA010030B50D4C2368834247
:101FE00089B00D4611D115F09AF96946FFF7B8FF8F
:101FF000084B09482A46694614F034FA206802F072
:1020000019FD00232360FFF78BFF09B030BD00BF2F
:102010004811002059AB01001AAB0100F0B5184F70
:102020003B688FB005460C463BBB012A25D806A964
:10203000FFF796FF2246134806A914F013FA32342C
:102040001BDB02F0EFFAC0B90F4E06F10C030FCB09
:1020500002AC84E80F00F069316A6B4603C36A463C
:102060003B462146284603F017F8024628B10748A8
:1020700006A914F0F7F9FFF753FF0FB0F0BD00BF4A
:10208000481100203EAB0100A09701005AAB0100AF
:1020900070B588B00C46054615F041F96946FFF762
:1020A0005FFF0E4E74B10E4B0E482246694614F087
:1020B000D9F9306802F0BEFC00233360FFF730FF2F
:1020C00008B070BD3468AC42FAD16946064814F0D5
:1020D000C9F91321204615F09BF8F1E748110020BB
:1020E00059AB010079AB010098AB010008B50020A5
:1020F00001F038FC014620B1054814F0B3F9002086
:1021000008BD044814F0AEF9FFF70AFFF7E700BF77
:10211000A7AB0100C7AB0100014B1B68184700BF0C
:1021200038060020014B1860704700BF38060020B9
:1021300030B585B004460D4610220021684617F0E0
:10214000D7F802238DF802302A46044B019321462A
:10215000684613F05DFD05B030BD00BF19210000D9
:1021600080B505460E461746984613F067FA0346B3
:1021700017F042F9DFF81890044649F8003042465B
:1021800030463946A84754F8090000F0C1FA00BFAC
:10219000080000002DE9F047058B0446280790460B
:1021A00011D4022905F0070540F0CC80204614F038
:1021B0008EF978B10138218B042811D8DFE800F0BE
:1021C000C2106D85950001290CBF45F0100545F042
:1021D0002005258388F31188BFF36F8FBDE8F08752
:1021E00001F0070AAA4500F0A5800027B9463E463F
:1021F000A368002B00F0BC8041F00801218388F324
:102200001188BFF36F8FA168002900F0BA800D68B4
:10221000002900F0B680D1F80480334652462046AB
:10222000C047002D76D02B6829461D46F0E701F007
:1022300007035A1F012A1BD8002221F00701062B91
:10224000276889B2C4E9002209D13B4603E0628BCA
:10225000013262831B68002BF9D141F00201218316
:10226000204614F034F900287AD041F0200176E0BD
:10227000042B0AD121F0070189B22183204614F0F2
:1022800026F910B141F020012183218B01F0070ACA
:10229000AA454FD00027B946AAE7236921F00701D4
:1022A00041F00601062DD3F8009021832DD1B9F11C
:1022B000000F3FD041F00801218388F31188BFF35C
:1022C0006F8F3A492046C84729E021F0070123696A
:1022D00041F0040189B2042DD3F804902183E6D0A3
:1022E00000273E464FF0040A82E721F007012369E8
:1022F00041F0050189B2052DD3F808902183D6D08D
:1023000000273E464FF0050A72E700273E464FF091
:10231000060A6DE72B4687E7B9F1000FD1D1EFF33D
:102320001188202383F31288BFF36F8F238B23F050
:1023300008032383258BEA062ED525F0100323837B
:1023400005F007056669218B002EBFF670AF0023EC
:102350002768C4E9003321F0070141F0010121831E
:10236000218B01F0070AAA454FF000097FF440AF26
:10237000002F9CD041F00801218388F31188BFF31E
:102380006F8F002FC8D03D683946334652462046ED
:1023900014F0C9F82F46F4E7AB067FF51BAF25F024
:1023A0002003238305F0070500E700BF5365010004
:1023B000014B036000207047E897010030BFFFF732
:1023C000FDBF00BF2DE9F0410B4EDFF8308006EB7A
:1023D0000807CC1B054632460949204616F07AFF0D
:1023E000A01942460021083C16F082FF6C6707F1F5
:1023F0000800BDE8F08100BF0000000004000000FC
:10240000A0970100054B5A699B689A421FBF044A76
:10241000536843F080535360704700BF6425002029
:1024200000ED00E070B5264B15469A6A12F0100FC9
:102430009A6A14BF1124102412F0080F9A6A18BF68
:102440001224920706460AD5586B9A6A140634D5A8
:1024500019B19A6A22F080029A62132401E06FF0A7
:102460001500174B9A6A12F0010F9A6A18BF1424CC
:1024700012F0200F9A6A18BF1524D20602D49B6A64
:102480009B070AD50E4B5B68190506D5314600F04F
:102490001FFA10B180F309880224094B9A6A920648
:1024A00042BF5A6A22F400525A629A6A42F0FF020C
:1024B0009A6200232B70204670BD6FF01500CCE7A8
:1024C00000ED00E0134B9A6A12F0007F9A6A14BF85
:1024D0001E201D2012F0807F9A6A18BF1F2012F460
:1024E000002F9A6A18BF212012F4802F9A6A18BF11
:1024F000222012F4003F9A6A18BF232012F4803F72
:102500009A6A6FEA02426FEA12429A6218BF242066
:10251000704700BF00ED00E010B5194B0246986A05
:102520009C6A10F4805F14BF1720162014F4006F0B
:102530009C6A18BF1820A40509D5986B986A0004F6
:1025400004D51AB19A6A22F400429A6219200C4BFF
:102550009A6A12F4806F9A6A18BF1A20D2050CD4B6
:102560009B6A13F4005F18BF1C20054A936A43F46A
:102570007F43936200230B7010BD1B20F5E700BF63
:1025800000ED00E0F0B5484B5B688BB00446C3F348
:102590000803002585F31188BFF36F8F02F07F4099
:1025A000B0F17F4F11D102F00C0008280DD01007B8
:1025B0004CBF0C4601250022033B8DF80720032B5E
:1025C00005D8DFE803F0246367602C46F3E70023B7
:1025D0009DF80720CAB902AE04F12007206861689F
:1025E000324603C20834BC421646F7D1099A002D80
:1025F00054D0C2F3080121B96FEA52226FEA422295
:10260000099202A9184614F088F80BB0F0BD264BC9
:10261000DA6A9107DBD4DA6A002AD8DBDA6A520078
:10262000D5D55A69A16942F480725A61BFF34F8FC0
:10263000BFF36F8F5A6931F8021C22F480725A611D
:10264000BFF34F8FBFF36F8F4DF6027291420AD0E6
:102650009A6AD2B24AB10DF1070201212046FFF772
:10266000E1FE0346B4E72368B2E79A6A12F47F4FAB
:1026700005D00DF107010120FFF74EFFF1E79B6A3E
:10268000B3F5803FA3D3FFF71DFFEAE70DF1070283
:102690000021E3E70DF107010020EDE722F4FF72CE
:1026A00022F00102ACE700BF00ED00E0044B5A69E4
:1026B00042F010025A615A6922F008025A617047CA
:1026C00000ED00E0EFF30880EFF3098101B57246F9
:1026D000FFF758FF01BD00BF0B4880F3088811F0D9
:1026E000D5F9202080F3118808484FF40461401880
:1026F00080F30988EFF314800221084380F31488E3
:10270000BFF36F8F00F0A4F8803E0020C03000209F
:10271000084B9B6883420BD1EFF3058343B1064B13
:102720005A6842F080525A605A6A22F400425A6251
:1027300012F08ABF6425002000ED00E014498A6889
:102740004FF030001044EFF3098C80E8F01F202098
:1027500080F31288BFF36F8F0E4F4FF000664A6907
:102760008A603E60506F0C4C2060906F002393672E
:1027700080F3118804B5104600F00EF9BDE804405E
:1027800002F1300090E8F01F8CF3098870470000D8
:102790006425002004ED00E04C1100201EF0040F21
:1027A0000CBFEFF30880EFF30980816911F8021C78
:1027B0000229FFD001B5724613F0B5FF01BD00BF7D
:1027C00040B2002807DB044A4109012300F01F0042
:1027D000834042F82130704700E100E040B2002819
:1027E0000CDB4309064900F01F0020330122824020
:1027F00041F82320BFF34F8FBFF36F8F704700BFA7
:1028000000E100E0054B420900F01F0053F82220D0
:10281000012303FA00F01040704700BF00E100E020
:1028200040B20028A8BF00F1604001F10101B8BF2B
:10283000064B4FEA4111ACBF00F5614000F00F00BC
:10284000C9B2B4BF195480F80013704714ED00E00A
:102850000F4A08B50F4B22F07F029A60BFF34F8FEB
:10286000BFF36F8FD3F8882022F47002C3F888205A
:10287000EFF3148323F0040383F31488BFF36F8F03
:1028800011F07AFF13F014F800F05CF811F0B8FFC3
:102890000000000000ED00E042F8203C009B42F800
:1028A0001C3C0A49019B42F8183C029B42F8143C2C
:1028B00021F001014FF0807342F8043C42F8081CFB
:1028C0000023203A02658367704700BF6121000042
:1028D000094A0346906870B113F1160F406E05D097
:1028E000A0F140029A4205D8834203D2814228BF18
:1028F00000207047002070476425002008B5154669
:10290000094A0A4B9060426F1A600E4600F044F884
:102910002C4686F309880020054B98472046002165
:1029200000220023034C2047642500204C11002086
:102930004567010061210000014B10221A617047B8
:1029400000ED00E0044800232021C2180133302BA1
:1029500082F80013F9D1704700E100E008B5EFF309
:102960000583064A103B02EBC30152F83300496865
:102970008847BDE80840FFF745BD00BF6C950100E2
:10298000024B034A0348012100F076B80000022000
:1029900000000020E8970100426E054B403A1A60A3
:1029A000044A4021C3E901121846012100F06EB823
:1029B0005011002000000B15084AC2F898000B685F
:1029C00023F01F03034343F01003C2F89C308B68CD
:1029D00043F00103C2F8A030704700BF00ED00E0F3
:1029E0002DE9F043DFF8608085B00E461F460446AF
:1029F0004FF00009B14523DA6068D8B13FB1411EFC
:102A000008421BD11F2819D92368194216D12368FF
:102A1000019313F0BAFEA36803430393D8F89050D0
:102A2000C5F30725D0B2013DA84207D801A9FFF799
:102A3000C3FF421C09F101090C34DBE76FF01502FA
:102A4000104605B0BDE8F08300ED00E0044B052220
:102A5000C3F89420BFF34F8FBFF36F8F704700BF51
:102A600000ED00E0BFF35F8F024B0022C3F894201B
:102A7000704700BF00ED00E010B5034C0123227841
:102A8000FFF7AEFF207010BDB625002008B50B4A39
:102A900000231278FFF7A4FF10F1160F07D0084AA1
:102AA0000021D2F89030C3F30723984200DB08BD21
:102AB000C2F89800C2F8A0100130F2E7B625002055
:102AC00000ED00E02DE9F043534B544CD3F8903027
:102AD0002568C3F307239D4285B000F29A80FFF773
:102AE000C1FF00200C2685421AD14D4C4D4F257058
:102AF0006846FFF75DFCDFF82081DFF82C91064681
:102B00000025AE4213D1237843490020D1F890200C
:102B1000C2F30722934276DBFFF798FF002042E0E2
:102B2000616806FB0011FFF747FF0130DBE7009803
:102B300000EB05114FEA051CCB683B40B3F5000FD5
:102B400048D00AD8B3F5001F30D0B3F5800F36D087
:102B5000B3F5801F10D00135D3E7B3F1807F42D0A9
:102B6000B3F1007FF7D150F80C3088684A6813F051
:102B70000CFE40F4802009E050F80C3088684A6868
:102B800013F003FE40F0885040F43020CDE90123DB
:102B90000390D8F890302078C3F30723013B984284
:102BA0002AD96FF0150005B0BDE8F08350F80C305D
:102BB00088684A6813F0E9FD40EA0900E6E750F842
:102BC0000C3088684A6813F0E0FD40F0E06040F4A3
:102BD0000030DBE750F80C3088684A6813F0D5FD08
:102BE00040F08270D2E750F80C3088684A6813F0E1
:102BF000CCFD40F08870C9E701A9FFF7DDFE23781E
:102C000001332370A7E7C1F89830C1F8A000013361
:102C10007CE74FF0FF30C6E700ED00E0F4970100DD
:102C2000B62500200000F0FF0000081108B5024B97
:102C30001B689847002008BD5C110020034B044A24
:102C40001860937843F00203937070475C11002082
:102C50003C06002008B50649064821F00701C1F1ED
:102C6000005202F5003213F0BEFB002008BD00BF89
:102C70008F4D00206011002070B54169867A0B4DA0
:102C8000044659B1437ADB0706D42C2303FB0653D1
:102C90005B6A1B689B689847002363612C20214670
:102CA00006FB0050BDE8704016F031B85409002012
:102CB000024B2C2202FB0030704700BF5409002059
:102CC000827A064B2C2101FB02339A6A1B7F1B334D
:102CD000801A23F00303B0FBF3F07047540900207F
:102CE00038B5074B827A2C2404FB02335B6AD3E9A4
:102CF00001240C601568FFF7E3FF04FB005038BDAA
:102D0000540900202DE9F04385B00546684603913B
:102D100090461C4616F030FADDE90067EFF31189A2
:102D2000202383F31288BFF36F8F6B8B002B41D06E
:102D30002A8B9A4225D900220023284611F0E2FE70
:102D40000446F0B189F31188BFF36F8F039B002B0A
:102D500041D032463B46684616F032FAA27A264BFC
:102D60002C2101FB023320465B6A1B6803A91D6806
:102D7000DDE90023A847606170BB2046FFF77CFFB8
:102D800024E0698B4B1E6B8389F31188BFF36F8F2F
:102D90002B7F2A8BAC6A1B3323F00303521A02FBEE
:102DA0000344154B154AEB1A9B105343A3722B7F18
:102DB000E372CBE789F31188BFF36F8F2346424656
:102DC000284611F09FFE04460028BFD1002420466B
:102DD00005B0BDE8F0836361012300252381039BD7
:102DE0006382E27A6560294604F1180016F080FAE1
:102DF00063692582E360EAE754090020A38B2EBAB9
:102E000070B50C4C2C2500B970BD037A4668013BA7
:102E1000DBB20372002BF7D1C3604360837A05FBFA
:102E200003431B6A13B198473046ECE7FFF724FFD2
:102E3000FAE700BF54090020044A0123C2F84035D4
:102E40004FF080420020C2F87835704700E0014022
:102E500020B1034B800143F001031847704700BFC6
:102E6000E097010008B5044815F07BFD00280CBF71
:102E70006FF01200002008BDEC9401000378012BD4
:102E800030B513D0022B27D07BB9194B0A4603F17A
:102E9000100453F8045B42F8045BA342F9D11B7899
:102EA000137043884B731B0A8B7330BD104B0A465B
:102EB00003F1100453F8045B42F8045BA342F9D118
:102EC0001B78137043684B73C3F307221B0CCB733F
:102ED0001B0A8A730B74E8E700F1100350F8042B07
:102EE00041F8042B9842F9D103780B70DDE700BF5D
:102EF00000AC010008B513F07DFD12F0A7FA044BF9
:102F00001B680BB10A209847BDE8084012F0B2BA1E
:102F10006C11002038B50546054813F051FC0446F5
:102F200020B101210C3013F0ACFC2576204638BDD1
:102F3000300A00200F2810B50ED80D280ED90B48E6
:102F400013F03EFC044628B101210C3013F099FC2B
:102F500002232376204610BD1328F0D009B104487F
:102F6000EEE7BDE810400220FFF7D4BF5C0A002066
:102F7000AC09002070B5C6683378B6F8014083B953
:102F80000F21204601F01AFEF378054650B90A4A8F
:102F9000118831B96FEA04506FEA10501080074A67
:102FA000137070BD4372012101F064FD2846BDE835
:102FB000704001F03FBD00BF9C250020B7250020D8
:102FC00010B5012104460C3013F085FC2146034A5C
:102FD0000078BDE81040002313F020BED098010017
:102FE00010B5012104460C3013F075FC2146034A4C
:102FF0000078BDE81040072313F010BE9898010038
:1030000070B52F4813F0F5FB0446002857D0017E19
:10301000022932D0082902D1038A032B02D8FFF7F4
:10302000EFFE20E004210C3013F055FCFF22438812
:1030300006886276228AC6F30B009A42A08301D0EA
:103040002046ECE70F2101F0B9FD05460028F7D036
:1030500001F0E8FD320B60762146284614F03CF87A
:10306000284601F0E7FC174BD3F844313BB3BDE8E9
:1030700070401549154815F006BF038A012BCED9BB
:103080000C3013F028FC0546007813F010FD10F00A
:1030900002060DD10E4A0F490F4840F6DA3313F0FD
:1030A000EEF986F31188BFF36F8F0323184602DF12
:1030B0000A4A28780423214613F0B0FDC0E770BD0A
:1030C00004060020C00400205C060020880A0020BE
:1030D00011AC010045AC010073AC0100789801000F
:1030E0002DE9F047884616468246002879D0BFF37E
:1030F0005B8FDFF8F490002359E8004F49E8003275
:10310000002AF9D1BFF35B8F002C6AD02046FFF76D
:10311000D7FD364D0C2303FB00502746438853450B
:1031200011D0BFF35B8F59E8003F49E80072002AD5
:10313000F9D1BFF35B8F002B53D01F463846BDE853
:10314000F047FFF75DBEA6420FD0204613F033FBD9
:1031500004F10C09022301214846237613F091FB68
:10316000328AF168484613F09DFB2046FFF7A8FD20
:103170000C2606FB00504368ABB1B8F1000F12D12A
:103180002046FFF79DFD06FB005001214268D2E971
:103190000003127A03F01F06B1405B09DAB100EBBD
:1031A000830013F096FC2046FFF78AFD0C2606FBF1
:1031B00000508368002BC1D02046FFF781FD70438B
:1031C00005F800802046FFF77BFD06FB0055A86848
:1031D00011F0CAFCB2E7C94300EB830013F035FDE0
:1031E000E1E7BDE8F08700BF000600207011002075
:1031F00008B501F08BF8BFF35B8F084B1A68BFF37B
:103200005B8F02F00902BFF35B8F53E8001F43E8B6
:1032100000200028F9D1BFF35B8F08BD9405002082
:1032200010B5C1E900239DF808300B720C46FFF77A
:1032300047FD034B0C2202FB00335C6010BD00BF56
:10324000701100202DE9F0474FF0FF3206464FF095
:10325000FF331848884613F0B3FA044638B300F138
:103260000C070121384613F00CFB0123237620467E
:10327000FFF726FD104D4FF00C0909FB00504FF0F1
:10328000000A46802046FFF71BFD09FB0050C0F8EE
:1032900008A02046FFF714FD09FB0055032138461E
:1032A000C5F804A013F0F8FA068080F802802046E2
:1032B000BDE8F087040A002070110020034B01468E
:1032C000D3F8640182689268104700BFC0040020F0
:1032D0002DE9F843044600F10C06304613F013FBC9
:1032E000B4F81080B8F1010F054604D82046BDE8B7
:1032F000F843FFF785BD3046022113F0ECFA07468C
:10330000007813F0D4FB10F0010906460DD10F4AE6
:103310000F49104840F6FA7313F0B1F889F3118899
:10332000BFF36F8F0323184602DF05230A4A38785C
:10333000214613F073FCB307D8D56369A4F8108055
:1033400013FA85F5E560BDE8F88300BF11AC010014
:1033500090AC010073AC01005098010038B50C46E8
:1033600012F074F8237E022B0AD0082B19D12146C3
:103370000F4813F029FA0F490F4815F084FD0BE0B0
:10338000E368187813F093FBC207054602D5204680
:10339000FFF79EFFAB07EAD4002412F06BF820463B
:1033A00038BD2046FFF72CFD6FF01504F5E700BF90
:1033B000040600205C060020880A002008B50448A6
:1033C000042113F086FBBDE8084000F09FBF00BF5A
:1033D0009405002000487047A9AC0100014811F095
:1033E00079BD00BF4C06002038B505460C4619B91A
:1033F000FFF728FF0446A8B140F635439D4209D1A6
:103400002046FFF75BFF054650B12046FFF7F8FC6A
:10341000284638BD0548214615F06EFCFFF7DEFF53
:103420000025F5E76FF06805F2E700BF0C06002005
:1034300038B502460B46244DD5F84C1109B9002089
:1034400038BD05F5947011F0C9FB0028F7D10022B2
:10345000002305F5A67011F055FB044668B91B4A18
:103460001B491C4840F6E93313F009F884F311882E
:10347000BFF36F8F0323184602DFD5F8400120B158
:10348000FFF7BEFC0023C5F84031204613F0C7F912
:10349000C5F840012046FFF711FF98B10E4811F022
:1034A00063FB2046FFF70CFC0C4B0C2202FB0030A8
:1034B0001F2140882246FFF713FE2046FFF7A0FC9D
:1034C000FFF78CFF0120BBE7C004002011AC010016
:1034D000B0AC010073AC0100E805002070110020C1
:1034E0002DE9F04F064687B015460C4631B9FFF777
:1034F000A9FE044648B96FF068007BE0887AFFF7C0
:10350000D7FB484B834240F0868001220021684669
:1035100015F00BFC2046FFF7D3FBDFF80C910C23D2
:1035200003FB0090C0F808D0204613F078F901465C
:103530003E4815F0E1FBFFF751FF15F05DFF3C4BF6
:103540001A583C4B9A4222D1DFF8ECA0DFF8ECB0DD
:10355000364815F0E6FB002180464FF4A020FFF727
:1035600067FF074688B940F2B113524659463448BE
:1035700012F085FF3348314612F081FF87F311883E
:10358000BFF36F8F0323184602DF4445E0D14FF4A9
:10359000A0220023684611F021FB074698B140F2B3
:1035A000B713254A2849264812F069FF27483A46AA
:1035B000314612F064FF002383F31188BFF36F8F4D
:1035C0000323184602DF2046FFF77AFB0C235843FB
:1035D00019F80060BEB12046093EFFF711FC092E24
:1035E0000ED8DFE806F01B0D0D0A050D0D0D0D18A8
:1035F0006FF00B0007B0BDE8F08F6FF00C00F9E73B
:103600006FF00400F6E715B12C600020F2E72046C9
:10361000FFF7F6FBF9E76FF01500EBE76FF06E00D0
:10362000E8E700BF040A0020701100200C0600200B
:10363000080000000810002011AC0100B4AC01002B
:1036400073AC0100BCAC0100DCAC0100E5AC0100D6
:10365000F7B50022114640F60340FFF741FF04464C
:10366000002853D1FFF7C4FD214601AA41F203000F
:10367000FFF736FF0446002848D1019AB04DD168C3
:10368000D1F80100D1F8051005F1780303C3104605
:10369000FFF7B6FB214601AA41F20100FFF720FF28
:1036A000044698BB0198C3685A7885F870205A88F8
:1036B000A5F872201A7985F87120B3F80720A5F8CB
:1036C0007420B3F80530A5F87630FFF799FB214652
:1036D00001AA41F20200FFF703FF0446B0B9019FBF
:1036E000FA6805F18006531C41321868596834465F
:1036F00003C4083393422646F7D13846FFF780FBD0
:1037000095F87C30580604D46FF01204204603B0BC
:10371000F0BD01AA002142F20300FFF7E1FE0446DA
:103720000028F3D1019B874EDA68D2F80100D2F865
:10373000051003C61846FFF763FB214601AA42F2B3
:103740000200FFF7CDFE04460028DFD1019CE368AC
:10375000B3F8012091B249B1D97839B1A5F8042163
:10376000DA78114606F1280015F0DFFA2046FFF757
:1037700047FB95F87C6016F0200617D1022140F631
:103780006D40FFF75FFD044600287BD002210C301E
:1037900013F082F80123037046702146324640F64A
:1037A0006D40FFF79DFE04460028AFD195F89C3090
:1037B000190712D501AA002142F21C00FFF790FE62
:1037C00004460028A2D10198C368D3F80120D3F899
:1037D0000530C5E93823FFF713FB082142F2010049
:1037E000FFF730FD044600284CD008210C3013F0C0
:1037F00053F895F8D83095F8D92013F0020F14BF7C
:103800002F230F2312F0090F18BF43F40063002287
:1038100003701B0A43708270C27002714271827120
:10382000C271214642F20100FFF75AFE0446002809
:103830007FF46CAF95F87C30B5F804119A0624D467
:10384000C9B901AA41F20500FFF74AFE0446002863
:103850007FF45CAFB5F80431019C4BB9E368B3F871
:103860000120A5F804219A883748114615F05DFA21
:103870002046FFF7C5FA082140F60140FFF7E2FCB9
:10388000044638B96FF0680440E70029F3D16FF0BF
:1038900004043BE708210C3012F0FEFF10230370F4
:1038A0008823437002230022C37020238270027198
:1038B00042718271C371214640F60140FFF710FE4C
:1038C000044600287FF422AF014601AA4FF60140CA
:1038D000FFF706FE044620BB0198FFF791FA214648
:1038E00001AA4FF60240FFF7FBFD0446C8B9019854
:1038F000C368B3F80130A5F8C130FFF781FA95F835
:10390000C1305B070DD501AA21464FF60340FFF7F2
:10391000E7FD30B90198C3685B7885F8C030FFF7E0
:103920006FFA00F0B7FB044600287FF4EFAE01F019
:103930009FFC044600287FF4E9AEFFF73FFDE5E673
:10394000C004002098050020C805002010B5FFF72E
:103950007FFE034B1B6813B1BDE81040184710BD34
:103960008811002073B5254D0646D5F8640114F082
:10397000F8FF00283BD06FF0020105F1D40013F0EE
:1039800064F9012113F0A5F810EA010432D11C4BAF
:103990001E600A4605F5947015F0C7F905F5A67086
:1039A00015F06CF9174815F099FA17491548009465
:1039B0006FF007034FF4966211F092FA1349114821
:1039C00015F0B9FAD5F86401114983681B68984766
:1039D000044648B926B902B0BDE87040FFF738BECA
:1039E00005F1C40011F076FA204602B070BD6FF008
:1039F0001204F9E76FF07704F6E700BFC004002077
:103A000088110020880A0020002600202AAD01002D
:103A10005D330000F7B5144B93F99B30002B05463E
:103A20000C461DDA14B9204603B0F0BD082C01AADB
:103A30004FF0000142F21800264628BF0826FFF783
:103A40004FFD0028F0D1019FF96832460131284628
:103A500015F040FC3846FFF7D3F93544A41BE1E7E5
:103A60006FF08500E0E700BFC0040020F0B587B02C
:103A700006460DF10B01002000F0F6FA044600287E
:103A80003BD1192142F20D00FFF7DCFB0746B8B32A
:103A900019210C3012F000FF21460546192215F0BD
:103AA00027FC9DF80B30184A2B7306F17001681D36
:103AB00013F01EF893892B80D3896B80B6F8883079
:103AC000A5F80D30B6F88A30A5F80F30B6F88C306E
:103AD000A5F81130B6F88E30A5F813300123009305
:103AE000D432072303A93846FFF79AFB224639460A
:103AF00042F20D00FFF7F4FC0446204607B0F0BD8B
:103B00006FF06804F9E700BFC004002030B5002161
:103B100087B042F20E00FFF795FB044670B1002516
:103B2000084A009503A90723FFF77AFB2A46214696
:103B300042F20E00FFF7D4FC07B030BD6FF0680012
:103B4000FAE700BF940500202DE9FF41464BB0F88D
:103B50000170198847F4704291424FF0000602BF8D
:103B60001E80424B1E78C378012B08BF404B00F1EA
:103B70000404054620460CBF93F86F804FF0000800
:103B800012F034FF2146B0B102A812F024FFD5F89C
:103B90001130CDF80130B5F81530ADF805300123FE
:103BA0008DF80030E87890B11321384613F066F9AB
:103BB00004B0BDE8F081404613F001FA014602A8C6
:103BC00012F096FF2146684612F092FFEAE70222C1
:103BD00002A901F03FFAEB78044623B925486FF0BB
:103BE000800113F032F8002CDED02046B5F8013009
:103BF00020F8703B02A912F07BFFB5F81730A4F84B
:103C00008630B5F81930A4F88C30B5F81B30A4F81C
:103C10008E30EB78E370002262726BB9694604F172
:103C20007E0012F065FF217A114BC1EBC1011944EE
:103C300004F1770012F05CFF0721204600F01AFF24
:103C400026B166720121204600F014FF204601F0E3
:103C500019F8204600F0EEFEE378002BA8D10320EF
:103C600013F0DDF9A4E700BF9C250020B725002054
:103C7000C00400209405002000B5C1680B7889B00D
:103C800033B1022B2ED109B05DF804EB13F0CEB89E
:103C90008DF80030B1F80130ADF80130CB788DF8F7
:103CA0000330B1F80B30ADF81730B1F80D30ADF886
:103CB0001930B1F80F30ADF81B304B7C8DF81D304A
:103CC00001A8043112F014FF084B68461A689B885B
:103CD000CDF80B20ADF80F30CDF81120ADF8153030
:103CE000FFF732FF09B05DF804FB00BFFAAB01003B
:103CF00038B5032104460C3012F0EDFDE368057879
:103D0000B0F80100197840F6354398420AD02246AF
:103D1000FFF7E6F935B1044810F026FFBDE838405A
:103D2000FFF75CBB38BD00BFE805002038B50421B3
:103D300004460C3012F0CFFD4578017840882246C9
:103D4000FFF7CEF935B1044810F00EFFBDE838405A
:103D5000FFF744BB38BD00BFE805002070B54FF049
:103D6000FF320D464FF0FF3300210646FFF7E2F821
:103D7000044660B90A4A0B490B48132312F07FFB33
:103D800084F31188BFF36F8F0323184602DF0221EB
:103D900004F10C0012F080FD06704570204670BDE5
:103DA00033AD0100B0AC010073AC0100F8B50A4DB1
:103DB000EF7906460024E3B29F4202D86FF001007B
:103DC00007E02946304613F0F2F80735631C08B1C6
:103DD0002046F8BD1C46EEE7C004002070B5144E26
:103DE00006223146044615F08BFAD8B1062142F27C
:103DF0000500FFF727FA0546B0B1062221460C3030
:103E000012F050FD0022294642F20500FFF768FB40
:103E100048B93346226843F86929A288B280012252
:103E200083F86820002070BD6FF06800FBE700BFDA
:103E30002905002037B504460D4689B118492846A2
:103E400013F0B5F860B9174A2968C4EBC404A31885
:103E50001151AA889A80AA799A71002003B030BDC6
:103E6000684612F0AAFD0028F8D16846FFF79EFFC9
:103E70000028F5DA0B4A00989DF80610C4EBC4043C
:103E8000A3181051BDF8040098809971002DE4D05A
:103E900012592A609A88AA809B79AB71DDE700BF2E
:103EA000EDAB0100C004002070B5044611B16FF005
:103EB000150070BD80B11C4913F079F860B9204637
:103EC000FFF774FF002829DA2378012BEFD1A379BB
:103ED00003F0C003C02BEAD1144DEB79012B20D0A5
:103EE000BFF35B8FD5F8D430BFF35B8FDB0707D40C
:103EF000002CDCD00C49204613F059F80028D6D10C
:103F0000EE792146731C3046EB71FFF793FF08B939
:103F10003046CEE7EB79013BEB71CAE76FF07700F3
:103F2000C7E76FF00B00C4E7EDAB0100C004002051
:103F30002DE9F3410446D8B101AA002141F209005C
:103F4000FFF7CEFA054698B9019E1249D6F80C80C3
:103F500008F101070622384615F0D2F928B10E49BA
:103F60000622384615F0CCF930B93046FEF748FF46
:103F7000002002B0BDE8F081D8F80130C4F801306B
:103F8000BB88A4F8053030462570FEF739FF0120C4
:103F9000EFE700BFFAAB0100F4AB010007B56846DC
:103FA000FFF7C6FF044BD87118B169460020FFF730
:103FB00041FF03B05DF804FBC0040020F0B5294DBB
:103FC000EE7989B0002E46D195F8C230DB0722D5B4
:103FD0006A4631464FF60940FFF782FAD8B9DDF854
:103FE00000C0DCF80C406378012B1E4628BF012678
:103FF00073B1A31C02AA123418685968174603C784
:104000000833A3423A46F7D1186838609B88BB80D2
:104010006046FEF7F5FEEE71002416260127EB79C7
:10402000E0B2834202D8B3B1002012E008AB06FB35
:104030000033694653F8182C33F8143CCDF80120AE
:10404000ADF805308DF80070FFF7F4FE013400285C
:10405000E5D009B0F0BD0021084609B0BDE8F04048
:10406000FFF722BFC004002038B50C4661B10848F4
:104070000578012D04D10130FFF7B0FE08B138BD3D
:10408000002525700020FAE76FF01500F7E700BF64
:10409000C004002010B50A4CE3790BB1002010BD1C
:1040A000FFF77CFF0028FAD1E379002BF6D1FFF768
:1040B00085FF0028F3D1601CBDE81040FFF78EBEDD
:1040C000C004002070B5054686B00E4642F20C00D2
:1040D0000221FFF7B7F80446A0B102210C3012F01C
:1040E000DBFB0A4A4670057003A9204600950523AC
:1040F000FFF796F80022214642F20C00FFF7F0F994
:1041000006B070BD6FF06800FAE700BF94050020AC
:1041100008B50C4B0246400903EB800012F079FF12
:1041200002F01F0340FA03F313F0010006D122B995
:10413000054812F06EFF40F3C01008BD6FF0770025
:10414000FBE700BF8C110020940500200A4ABFF352
:104150005B8F430902EB830200F01F0001238340C1
:10416000DB4352E8000F184042E800010029F8D173
:10417000BFF35B8F704700BF8C11002030B587B054
:104180005C480022002310F0F5FB002840F09180ED
:104190005948594D12F03DFF10F0010344D02B1D3A
:1041A00093E8070006AB03E90700544812F031FF1B
:1041B000C0F34013504812F02CFF014600286AD08B
:1041C00073B10C224E490DEB020015F099F800284E
:1041D0006AD000210846FFF775FF0446002864D125
:1041E00000239DF80C00ADF80930BDF80E30ADF895
:1041F0000530BDF81030ADF80730431E8DF80400CF
:1042000058420DF10901584112F0F6FE044600280B
:104210004BD1072142F20B00FFF714F805460028A6
:1042200049D16FF0680440E03448364A12F0F1FE9C
:1042300010F0800F0ED09089D1891269ADF80E0070
:104240004FF48074ADF80C40ADF81010ADF812309A
:104250000592AAE72C4C2068616803AB03C3A068F1
:10426000186092F8D930180748BF0523224848BF84
:104270008DF80D3012F0CDFE810706D53023ADF854
:1042800010306023ADF80E308FE71B4812F0C1FEEE
:104290004207F3D489E73BB1FFF714FF044620B986
:1042A000174B2861C3E901000024124810F0DAFB23
:1042B000204607B030BD072201A90C3012F0F2FAF7
:1042C0002246294642F20B00FFF70AF9044600286D
:1042D000EBD19DF80D10012001F00101FFF7F2FE76
:1042E00004460028E1D106AA12E90700044B83E83E
:1042F0000700D9E7A81100208C11002094050020A8
:104300009C110020C0040020D497010010B5094C76
:1043100044220021204614F0EBFF04F11C0014F0AD
:104320001BFC04F1300014F017FC034B00221A6050
:1043300010BD00BF8C110020D8110020032838B513
:10434000054603D1BDE83840FFF718BFFFF7E0FE90
:104350000446C8B9BFF35B8F0C4B6A0903EB8203B9
:1043600005F01F0101228A4053E8000F104343E883
:1043700000010029F8D1BFF35B8FFFF7FFFE044671
:1043800010B12846FFF7E2FE204638BD8C11002010
:104390002DE9F04F00F10C088BB00446404612F0B6
:1043A000A2FADFF8CCA1064616B90BB0BDE8F08F33
:1043B000704812F02EFEC007F7D5238A082BF4D9D7
:1043C0000921404612F087FA037A228A01339A4281
:1043D0000546EAD30123ADF824307F238DF81E3043
:1043E000037A034400F101095B7A8DF81D30FF2345
:1043F0008DF81C300023ADF8223002788DF81F2094
:10440000042A9CBF5C4B9B5CADF82030037A594872
:10441000019312F0FEFDC1070BD5BDF820305A07FD
:1044200007D5297A40460131013E12F04CFAF6B226
:10443000BAE7484612F0DAFA002848D0494604A8FC
:1044400012F0C9FADAF80030A3B1404612F05BFA74
:10445000019B278A9DF81F202382834643469DF9AE
:104460001D10DAF800C004A8E0476369278213FA38
:104470008BF3E36004AB0693404B1B68002B3AD0F0
:104480001A6802B1083A53F8081CB9B11746A3F1EB
:1044900008024046039212F036FA238A039A0293E6
:1044A000019B238212688346414606A890476269B1
:1044B000029B238212FA8BF2E2603A46DAB19768E5
:1044C0001368B7B1083F002BE3D13A46F7E76B78A2
:1044D000FF2B09D12A4B186804909A889B798DF894
:1044E0001630ADF81420ADE7494612F068FD0346DA
:1044F000F1E7002BCDD100231E480693BDF82030F4
:1045000012F087FD10F001078BD1DB0789D503225C
:1045100004A9384600F09EFD8346002881D0022081
:1045200012F07DFDD5F80130CBF87E30B9F80430BB
:10453000ABF8823099F806308BF88430584612F088
:1045400073FC60B11F238BF809303946584600F0E0
:1045500091FA584600F06EFAFFF710FE61E75846F0
:10456000022100F087FA584600F064FA59E700BFCC
:10457000D81100208C11002069AD0100D01100205D
:10458000EDAB0100F8B50546224812F042FD4307A5
:104590000F463CD52A78012A03D96FF0150420462E
:1045A000F8BD6B780F2BF8D86888031F9BB243F6D1
:1045B000FC74A342F1D8A9880B1F9BB2A342ECD88C
:1045C0008842EAD37AB914480022002310F0D2F9C5
:1045D00004460028E3D1FFF79BFD044640B10E4896
:1045E00010F040FADBE712F005FD0028EBD1D4E72C
:1045F00028686968094E0A4B03C6A86830602046DF
:104600001F60FFF79BFE044606F12400E8E76FF009
:104610000A04C4E794050020BC110020901100207A
:10462000D8110020024B0020186012F0F8BC00BF27
:10463000D811002008B5034812F0EBFC00F001008F
:1046400008BD00BF8C11002070B50C4B1C680546DE
:1046500044B154F8143C143C13B1697A2846984785
:104660006469F5E7064C074EB44200D370BD236879
:1046700013B1697A284698471834F5E710120020DC
:10468000789701009097010010B50446FEF718FBDB
:10469000044901EB0011204612F0E9F9BDE8104091
:1046A000FEF79CBEDC11002070B5D1E90156002256
:1046B0000446C1E90122064814F01EFB3DB1314613
:1046C00020462B466FF06D02BDE87040184770BD64
:1046D0003C09002070B5002205460E46094800231B
:1046E0000021FEF70FFB044658B1FEF7E9FA064B2E
:1046F000324603EB001329462046BDE8704012F015
:1047000091B970BDD8090020DC11002070B50546B4
:104710000F480022002310F061FAB8B90D4B1C6855
:1047200034B154F80C3C143C03B198476469F7E782
:10473000094C0A4EB44204D32846BDE8704010F03C
:10474000C9BBA36803B198471834F3E770BD00BF35
:104750002409002010120020789701009097010092
:104760002DE9F843DFF85480044620270025EFF3B5
:10477000118387F31288BFF36F8FE16929B983F33F
:104780001188BFF36F8FBDE8F883206A0A68E26181
:10479000814208BF226283F31188BFF36F8FD1E992
:1047A00001694046C1E9015514F0A6FA1EB1002284
:1047B00049462046B047FEF711FED8E73C090020E5
:1047C00013B5837A072B044625D1BFF35B8F0430E2
:1047D00050E8003F43F4806240E800210029F7D10F
:1047E000BFF35B8F590516D412F032FCC2030CD50F
:1047F0000A4B93F8D930DB070DD500210223009135
:104800001A46204612F079FB05E0204612F05BFBC9
:10481000A37A072BECD002B010BD00BFC00400206B
:104820000448B0F80431002B00F5847008BF002064
:10483000704700BFC004002030B5044614F0DCFD12
:104840000D460C490C4A095891428BB005D12046BF
:104850000BB0BDE83040FFF783BF2434214610463B
:1048600014F011FB1DB16946204614F01CFB0BB07F
:1048700030BD00BF080000000810002038B500223D
:1048800004468A4202D10024204638BD04F1C40304
:104890000120BFF35B8F53E8005F002D04D143E894
:1048A000000CBCF1000FF6D1BFF35B8F02D0C8340F
:1048B0000244E6E7002CE6D0C4220021204614F092
:1048C00017FD04F14000044914F00EFB034904F104
:1048D000240014F0ADFAD7E7955100008B70010069
:1048E00038B50122044600F1B803BFF35B8F53E8EB
:1048F000005F43E800210029F9D1BFF35B8F7DB948
:1049000012F049FC10F0A2FD094BC4F8B450D3F8E2
:10491000241104F1B40239B9C3E9482210F0AAFD08
:10492000BDE83840FEF75ABD0A60C3F82421F5E718
:10493000C004002070B53C4B5A8B32B13B4DD5F8CA
:10494000204134B90024204670BD1B68002BF5D1EE
:10495000F8E754F8B43903B1B43B3549002601E017
:104960001C461346B5F80421002A5AD0D5F8102168
:104970004AB904F1B406002BE4D0D3F8B420002ADD
:10498000EED0B43AECE70A68002AF2D0D4F8A020BE
:10499000002AEED0D4F8A420002AEAD0D4F8A82027
:1049A000002AE6D0A37A072B0DD12046904750B1BC
:1049B00004F1BC0012F04CFB022804DC2046BDE8E8
:1049C000704012F0E8BBD4F8B43004F1B40206BB76
:1049D000D5F82411C5F820318A4201D1C5F8243117
:1049E0000022C4F8B42004F1B803BFF35B8F53E88E
:1049F000001F43E800200028F9D1BFF35B8F204659
:104A0000D4F8A830984700289DD02046FFF768FFCB
:104A100099E73360D5F824319A4208BFC5F824617C
:104A2000DEE79368FFDE00BFD8090020C004002045
:104A30003C09002007B5C430BFF35B8F50E8003F4E
:104A40005A1E40E800210029F8D1BFF35B8F01A86E
:104A5000019312F0FDFA012805D1044810F084F802
:104A6000034810F037FA03B05DF804FB2409002076
:104A70007C06002070B5857A8D4204462DD0817267
:104A800055B1022D0ED0A37A072B26D8DFE803F00C
:104A9000261163252525251B8378082BF3D012F0DA
:104AA0007AFBF0E78378012BEDD1403014F02AFA3D
:104AB000E9E7404D05F584766169002968D1BDE8D4
:104AC0007040FEF78BBCA378042B06D03A48002137
:104AD00011F024F80023C4E90D3370BDA378042B32
:104AE00004D12046BDE87040FFF7A4BF082DF4D8DC
:104AF00001A353F825F000BFDB4A00001D4B000066
:104B0000494B0000434B0000E34A0000E34A000029
:104B1000494B0000DB4A0000DB4A000004F140057D
:104B2000284614F0EFF920460121FFF785FE2046C4
:104B300012F0C9FA28460022BDE87040002310F0A8
:104B40006BBA022012F06BFA637A002BC9D02046B0
:104B5000FFF77AFDC5E7A378012BBED1154B9D8ADF
:104B6000002DBAD00A235D434FF4004640F2E730EF
:104B700000214FF47A720023C5FB0601FBF7C0FA4F
:104B800002460B4604F14000BDE8704010F010BA38
:104B9000A2690B686361914208BFA3612046FFF7D9
:104BA00083FDB5F80431002B14BF304600200FF010
:104BB000DBFF81E7C00400208C06002010B5024610
:104BC0000C460748012112F001FB034610B90023EF
:104BD000184610BD82781442FAD1FFF72BFFF6E792
:104BE000280B0020F8B5074609480D46164612F076
:104BF000D2FA044650B183781F4203D1BDE8F84091
:104C0000FFF718BF3146A8472046F7E7F8BD00BFB9
:104C1000280B0020024900220120FFF7E3BF00BF5C
:104C2000C1470000034BC01A034BC0105843C0B229
:104C3000704700BF280B0020295C8FC270B51C464E
:104C4000144305460E4608D014F0D6FB0A4908580E
:104C50000A49884204BF002213460949002D14BFA7
:104C60002846084611F0ACFD044618B1711D0C3001
:104C700011F007FE204670BD08000000081000205B
:104C80005409002010B50446054810F023F92046C9
:104C900000F032FB2046BDE81040FFF7D5BC00BF56
:104CA0006C0600202DE9F04F85B00023019303939B
:104CB000FFF740FE044668B1827AD0F8A030072A98
:104CC00017D002AA4FF0FF319847014628B9204675
:104CD000FFF7B0FE05B0BDE8F08F039B019A2046B8
:104CE00012F0BCF9D4F8A03002AA4FF0FF312046F0
:104CF000EAE7DFF8689102AAB9F804119847064676
:104D00000028E4D0B9F80421029B9A4206D3014658
:104D1000D4F8A45003AB01AA2046A847338A039FC6
:104D2000DDE9018B002B00F08E80304611F0B5FEDE
:104D30008246002840F08780B9F804314848002BAB
:104D400008BF0020002200230FF048FF00287AD17E
:104D50004448002200230FF0D5FE0546002872D0FB
:104D6000C0E90187B9F80471338ABB4598BF1FFABF
:104D70008BF7BB4242D9304611F051FD3946FFF75F
:104D8000A9FCB9F8043194F8C0809B458CBF4FF062
:104D9000010A08F1020884F8C0A0074698BF5FFA2C
:104DA00088F804F1BC0ABFF35B8F5AE8003F013377
:104DB0004AE80032002AF8D1BFF35B8F00232B6052
:104DC000A369F3B9C4E90555A378012B1CD10421CB
:104DD00007F10C0011F06FFD238808F0FD0843EA8D
:104DE000083303803B8A043B438004233B763846E8
:104DF000FEF764FA40B9FEF7F1FA68E73946304643
:104E0000BDE71D60A561DFE7BFF35B8F5AE8003F98
:104E1000013B4AE80032002AF8D1BFF35B8F2946F4
:104E200004F1140012F034F93846FDF7E9FF20468A
:104E30002946FFF739FCB9F804310948002B08BFAF
:104E400000200FF091FE31462046039B019A12F09C
:104E500005F91321204612F0DBF938E7C0040020E1
:104E6000C80500203C090020F8B5031D044618467B
:104E700012F0EEF8820419D5B4F88620B4F8881040
:104E8000914213D8B4F88A1091420FD3D4E9231277
:104E900091420BD1BFF35B8F53E8001F21F4005107
:104EA00043E80012002AF7D1BFF35B8F104B1D6857
:104EB0006DB155F8046C143D3EB1B4F88E30B4F8C1
:104EC0008C20B4F886102046B0476D69F0E7094D94
:104ED000094FBD4200D3F8BD2E693EB1B4F88E3003
:104EE000B4F88C20B4F886102046B0471835F0E7A7
:104EF0001012002078970100909701002DE9F041F1
:104F0000074608460D4611F0FCFE064618B9002675
:104F10003046BDE8F081144B1C6884B154F8083C5D
:104F2000143C0BB96469F8E72946384698470028CD
:104F3000EDD0284611F0E5FE0028F3D1E7E70B4C51
:104F4000DFF82C804445E3D2E3680BB91834F9E765
:104F50002946384698470028D9D0284611F0D1FE76
:104F60000028F3D1D3E700BF10120020789701008A
:104F70009097010038B505460C460E480121FFF711
:104F80007DFCB0B1057223680367A388A0F8743074
:104F9000A37980F8763001238370074BC0F8A030E6
:104FA000064BC0F8A430064BC0F8A830054BC0F83B
:104FB000883038BD280B0020D15300003D7001001F
:104FC000317001001800280070B505460A480E46E9
:104FD00012F0E1F8044620B18378012B04D0FFF7EA
:104FE00029FD0024204670BD3246294612F068F99A
:104FF0000028F7D12046F2E7280B002038B50446F8
:10500000134812F025F8420702D46FF00A0038BDA9
:10501000084611F076FE10B96FF01500F7E7FFF7BC
:1050200009FB0028F1D10A4812F012F80306C0F378
:10503000C0150AD411F0DEFF0028EDD02146284625
:1050400012F05EF90028E2D0E6E76FF07700DEE7C5
:1050500094050020F8B505460E480E46174612F096
:105060009AF8044620B18378012B03D0FFF7E2FCC5
:1050700000240DE036B13246294612F021F908B974
:105080002046F3E7A37ABB42FAD1237AAB42F7D1A9
:105090002046F8BD280B00202DE9F04180460E4641
:1050A00015461F46002B38D01146FFF7A7FF0446D0
:1050B00070BB2946404612F0DAF8054680B396E800
:1050C0000F00194C04F1080C8CE80F00A38A002B88
:1050D00008BF4FF49673A382238A03B9A38923825E
:1050E000638A03B9E389638202212846FFF7C2FC81
:1050F000284611F099FE044668B1002169722846DD
:10510000FFF7B8FC2846FFF795FC0320FFF716F9D8
:105110002046BDE8F0813D60FAE76FF01504F7E73F
:105120006FF00B04F4E700BFC004002038B504465C
:1051300008460D4611F0E5FD38B3154B93F8D8300D
:10514000990707D4E37873B129462046BDE8384073
:1051500000F0A4B994F894309A07F3D5201D11F00B
:1051600077FF4304EED42946204612F0E1F858B9FF
:105170002B88A4F888306B88A4F88A30AB88A4F810
:105180009030EB88A4F8923038BD6FF01500FBE743
:10519000C0040020F7B510F8363C0446A0F14006E4
:1051A0000BBB304612F076F92E4B1D684DB155F809
:1051B000103C143D1BB114F8371C304698476D69FC
:1051C000F4E7294D294FBD4205D3304603B0BDE871
:1051D000F040FFF72FBC6B681BB114F8371C30464A
:1051E00098471835EFE710F83E3C012B38D110F8FE
:1051F0003D3C23B903B0BDE8F040FEF787BCA0F109
:105200003C05BFF35B8F55E8003F23F4005245E8AF
:1052100000210029F7D1BFF35B8F9B0414D5A36C49
:1052200000936946236D01933046FFF77FFF58B91D
:10523000BFF35B8F55E8003F23F4805345E800320D
:10524000002AF7D1BFF35B8FBFF35B8F55E8003FB8
:1052500043F4006345E80032002AF7D1BFF35B8FC7
:1052600003B0F0BD10120020789701009097010064
:1052700038B5154813F002FD1449134813F03CFDEE
:105280001349114813F038FD12490F4813F034FD4B
:1052900012F079FE13F02FF9054698B912F009FAC9
:1052A0000D4811F078FF044660B1043011F0D0FED3
:1052B000C30704D5257203212046FFF7DBFB2046F8
:1052C000FFF7B8FB284638BD3C090020EC11002050
:1052D000F811002004120020280B0020044B18684D
:1052E00018B9044A5A600B6070476FF00B007047A2
:1052F0001812002000990100F7B5274D274F0446EA
:105300000026BD4201D303B0F0BD6B6801A9204661
:10531000984700283BDB019B2A889A829A8403F1F4
:105320001002A868BFF35B8F52E8001F42E8006CD0
:10533000BCF1000FF8D1BFF35B8FC3E913669E6425
:105340009E60A16B03F1080219BBC4E90D221C6029
:10535000D86003F1300013F091FC019843681B689A
:1053600003B19847019BBFF35B8F103353E8001FD5
:1053700041F0010143E80012002AF7D1BFF35B8F2F
:1053800001984368DB6913B100F1100198470C35AF
:10539000B7E70A60A263DAE7549701007897010043
:1053A00030B5044652EA030008D014F025F8064D43
:1053B0002D580648854204BF00221346204604317A
:1053C000BDE83040FFF73ABC08000000081000209C
:1053D0002DE9F843D0F8AC400E4690464CB1483C1D
:1053E000236B63B104F13009484613F09AFC05467B
:1053F00050B9FDF7F3FF00252846BDE8F8832046A5
:1054000011F0E0FFA46CE9E711F047FB0028F2D1AE
:10541000236D9BB9A38C2F8A403B9BB23F2B03D8B3
:10542000238D9F4228BF1F46042105F10C0011F077
:1054300042FA0780A38C438004372765236D2A8AAC
:105440009E420ED3934215D0A38C403B9BB23F2B80
:105450001ED9204611F0B6FF236B13B1204611F080
:1054600091FF236DC8F800309E4234BF9E1B00267A
:105470002665C1E70022002348460FF043FBA38CBA
:10548000A3F140023F2AE4D8034AAA61EB61E0E7B6
:1054900000221346F9E700BF4175010070B5124BB9
:1054A0000C4619780131C9B2012938BF01210546DE
:1054B00008221220197012F005F8064688B108215A
:1054C0000C3011F0E9F92288028062884280A288BB
:1054D0008280E288C28031462846BDE8704012F0E2
:1054E0003CB86FF00B0070BDB825002023281FD8F2
:1054F0001A2804D8431E182B0ED906207047A0F195
:105500001B03082B1ED8DFE803F0051D1B231D1904
:10551000251D0500032070470F4A012383401A40D0
:10552000C2B90E4A1A40002A14BF01200620704753
:1055300000F07F03522B05D10020704701207047F7
:105540000520704710F0400F0CBF06200020704768
:105550000420704702207047AAAA8A0254554501C8
:1055600070B50E46438D418B8B4202F1010228BF7C
:105570000B469A4205461ED83046FFF7B7FF022871
:1055800010D004280ED013F037FF144B1958144BC9
:10559000994213D0134B1B685A1A18BF4FF0FF32B1
:1055A000134602E04FF4702200230F480021FFF75A
:1055B000F7FE044620B90024204670BD0022EFE724
:1055C000FDF77EFB094B182202FB0033012104F199
:1055D0000C009D6011F060F90670EDE70800000016
:1055E00008100020B4120020800900206C12002056
:1055F000011F014813F066BAEC08002010B500F155
:1056000054030446BFF35B8F53E8001F41F00101D0
:1056100043E80012002AF7D1BFF35B8F201F12F07E
:10562000A8F904F17400044913F05EFC2068BDE899
:10563000104001F02FBA00BFBF7F010070B50378A2
:105640008AB004460E4607AD032B20D8DFE803F0EE
:1056500002191B1D11492846FAF76CFD0595637860
:105660000493A3780393E3780293237901936379F6
:105670000093A3790A4A1E21304610F09DFA0AB021
:1056800070BD0849E7E70849E5E70849E3E7084A44
:105690000A21284610F090FAE0E700BFCEAA0100E8
:1056A000F7AA0100D5AA0100DCAA0100E6AA0100C0
:1056B000F0AA01002DE9FF4105460E464FF0000813
:1056C0004FF42053006817688DF8088002A914462B
:1056D000ADF80A3011F023F9A0B142F601032868B1
:1056E0008DF80C8003A9ADF80E3011F018F948B10F
:1056F00023691BB15A88B24200D25E80012004B0F7
:10570000BDE8F0816168286811F009F910B1002343
:105710002361F3E7E368A0681A786AB1B7F82AC092
:10572000798B038A8C4594BFC3EB0C03C3EB010355
:10573000934201DA0020E2E704210C3011F0ACF8CA
:105740002061068023695E80074B00930194A26864
:1057500000232946384612F04FF90028EADB206979
:10576000003818BF0120CAE7D9790100F7B5002336
:1057700004460E462B48002269460FF0CDF8054638
:10578000D0B913F039FE284B009F1A58274B2946F1
:105790001A60381D282213F0ABFD3C60009C2448A1
:1057A0000195C4E90155C4E909550022002301A966
:1057B0000FF0B2F8054620B16FF00B05284603B094
:1057C000F0BD019B0146B022184613F091FD194A25
:1057D0008260603013F052FA019BBFF35B8F583345
:1057E00053E8002F43E800510029F9D1BFF35B8F44
:1057F000019B1C60636A019F1BB904F10C0013F04C
:105800003DFA626AC7F8A820A26A07F1A80363629A
:1058100002B9A362019B17225A855A83043333606D
:10582000CCE700BFD008002008000000B412002020
:10583000EC0800209C0600202DE9F7431768054678
:105840008846006851687E68144611F068F8814601
:10585000002842D130469522294612F03DFD0646E9
:10586000207540B1E3681B780BB184F814900020D8
:1058700003B0BDE8F083A06810F0D5FF02210C3022
:1058800011F00AF8164B2061A0F8008000930194F3
:10589000A26833462946384612F0AEF8002807DAE7
:1058A00010F1FF0F26BF4042C0B20E202075DEE788
:1058B0002369002BDBD0A06811F006FF7B8D7A8B6B
:1058C0009A4294BFC0EB0200C0EB0300E3681B7870
:1058D000984294BF00200120CAE70120C8E700BF1A
:1058E000D97601002DE9F74F064608460C46FDF72C
:1058F000E7F9DFF898801823434308EB03020546D5
:10590000D2F808A0E068BFF35B8FB16DBFF35B8F87
:10591000C90738D5E16809781171002248F80320D9
:105920000378D22B0ED133682146186812F0E0FDBF
:1059300040B101902046FDF763FA019B184603B081
:10594000BDE8F08F04F10C0010F0DDFF18235D437B
:1059500008EB050900231A4607462146301DB4F816
:1059600010B0C9F8086011F0C3FD03460028E5D067
:105970006269A4F810B012FA87F7E76048F80500EA
:10598000C9F808A0DAE76FF01503D7E76C1200201A
:105990002DE9F14F0546FDF793F93349182202FB33
:1059A00000F3C81851F803A00779B0F80680D0F8C2
:1059B00010900021D0E9024613F09AFCA87AFDF776
:1059C00077F96969834651B16B7AD80705D4DBF85A
:1059D00024301B6828469B68984700236B61294642
:1059E000584613F094F9002F31D084B3236873B371
:1059F0001B6863B3BAF1000F29D1201D12F0C2F960
:105A00003846FFF773FD052821D8DFE800F01603BC
:105A100020162003BFF35B8FA36DBFF35B8FDA0704
:105A200015D5E36D9BB14FF47022002304F178008B
:105A300001B0BDE8F04F0FF0EFBA23681D68BFF367
:105A40005B8FA36DBFF35B8FDB0700D556B901B049
:105A5000BDE8F08F49462846B0470134A3B29845C7
:105A6000F8D8F4E70024F9E76C120020F8B50B8AA7
:105A7000076804460D46002B39D0012105F10C00C2
:105A800010F029FFBB7A072B064630D154F8043CAE
:105A90006BB301781748043C002310F833708F4231
:105AA00000EBC30208D1298A53789778994213D220
:105AB000012F1CD1042317E001330E2BEDD1084632
:105AC000FFF714FD98B1052811D081B106230022FB
:105AD000204612F09BF90AE0536829462046984771
