:1000000000790020E95300001B590200D55300007D
:10001000D5530000D5530000D55300000000000068
:10002000000000000000000000000000AD540000CF
:10003000D5530000000000004D540000D5530000CF
:100040006D560000019A01006D5600006D560000CB
:100050006D5600006D5600006D5600006D56000094
:100060006D5600006D5600006D5600006D56000084
:100070006D5600006D5600006D5600006D56000074
:100080006D5600006D5600006D5600006D56000064
:100090006D5600006D5600006D5600006D56000054
:1000A0006D5600006D5600006D5600006D56000044
:1000B0006D5600006D5600006D5600006D56000034
:1000C0006D5600006D5600006D5600006D56000024
:1000D0006D5600006D5600006D5600006D56000014
:1000E0006D5600006D5600006D5600006D56000004
:1000F0006D5600006D5600006D5600006D560000F4
:1001000053B94AB9002908BF00281CBF4FF0FF317E
:100110004FF0FF3000F00CB8ADF1080C6DE904CEE3
:1001200000F022F8DDF804E0DDE9022304B07047B6
:10013000704700BF10F8012B11F8013B012A28BFBE
:100140009A42F7D0D01A7047034611F8012B03F8F2
:10015000012B002AF9D17047034613F8012B002A1E
:10016000FBD1181A013870472DE9F04786468C46B6
:100170000846089E154674461946002B40F0C2807A
:100180008542B2FA82F245D94AB1C2F1200300FA9F
:1001900002FC2EFA03F3954043EA0C0C94404FEA1C
:1001A000154EA8B2BCFBFEF8230C0EFB18CC08FBC6
:1001B00000F943EA0C43994528D9EB1808F1FF37B9
:1001C00004D2994502D9A8F102072B44A3EB0903F5
:1001D000A4B2B3FBFEFC0EFB1C330CFB00F044EAA4
:1001E0000344A04214D92C190CF1FF3304D2A042CD
:1001F00002D9ACF102032C44241A43EA07401EB191
:10020000D440002334607360BDE8F0874746DDE7E3
:100210006346F1E792BB431B01214FEA154EAFB293
:10022000B3FBFEFC200C0EFB1C330CFB07F840EA72
:100230000343984562D9EB180CF1FF3004D298457E
:1002400002D9ACF102002B44A3EB0803A4B2B3FB28
:10025000FEFC0EFB1C330CFB07F744EA0344A742E9
:100260004ED92C190CF1FF3304D2A74202D9ACF1BC
:1002700002032C44E41B43EA0040C0E7C2F1200320
:1002800020FA03F1954090402EFA03F303434FEA1E
:10029000154EAFB2B1FBFEFC0EFB1C10190C0CFB93
:1002A00007F841EA0041884504FA02F422D96918A6
:1002B0000CF1FF3004D2884502D9ACF10200294488
:1002C000A1EB08019BB2B1FBFEFC0EFB1C110CFB69
:1002D00007F743EA01439F420ED9EB180CF1FF31B7
:1002E00004D29F4202D9ACF102012B44DB1B41EA4C
:1002F000004192E76046E3E76146F7E76046A3E71F
:100300006346B7E7834206D916B9002108467BE762
:10031000C6E900E0F9E7B3FA83F78FB9834201D366
:10032000724508D8BEEB020460EB030301209C4633
:100330001EB9002168E73846FAE7C6E9004CF8E73D
:10034000C7F1200CBB4022FA0CF41C432EFA0CF12E
:1003500020FA0CF3B84001434FEA14490EFA07F5AE
:10036000B3FBF9F81FFA84FE09FB18300B0C08FBED
:100370000EFA43EA00439A4502FA07F240D9E3181D
:1003800008F1FF3004D29A4502D9A8F102002344B3
:10039000A3EB0A0389B2B3FBF9F809FB183308FB96
:1003A0000EFE41EA03418E452CD9611808F1FF3356
:1003B00004D28E4502D9A8F10203214443EA004049
:1003C000A0FB0298A1EB0E014145CE46434602D365
:1003D00006D14D4504D2B9EB020E68EB0403013897
:1003E000002EA6D0B5EB0E0261EB030101FA0CFC66
:1003F00022FA07F34CEA0303F940C6E9003198E713
:100400004046C5E74346D9E7F0B5002283B0114620
:1004100000AF40F6034006F039FD044600285BD1EA
:1004200006F068F921463A1D41F2030006F02EFD60
:100430000446002850D17A68BE4DD168D1F8010039
:10044000D1F8051005F1780303C3104605F0ECFB65
:1004500021463A1D41F2010006F018FD044600282D
:100460003AD17868C3685A7885F870205A88A5F818
:1004700072201A7985F87120B3F80720A5F8742046
:10048000B3F80530A5F8763005F0CEFB21463A1DCD
:1004900041F2020006F0FAFC0446E8B9D7F804C0BD
:1004A000DCF80C2005F18006531C413218685968AD
:1004B000344603C4083393422646F7D1604605F01C
:1004C000B3FB95F87C305A060AD49B4A9B4801211D
:1004D00025F06CFC6FF0120420460C37BD46F0BDD1
:1004E0003A1D002142F2030006F0D0FC0446002829
:1004F000F2D17B68924EDA68D2F80100D2F805108A
:1005000003C6184605F090FB21463A1D42F2020050
:1005100006F0BCFC04460028DED17C68E368B3F832
:10052000012091B249B1D97839B1A5F80421DA781E
:10053000114606F1280029F0B6FA204605F074FBB2
:1005400095F87C601F2316F02006A5F8203118D1FD
:10055000022140F66D4006F0F5F80446002800F050
:10056000DB8002210C3025F09DFA012303704670D8
:100570002146324640F66D4006F088FC04460028CD
:10058000AAD195F89C301B0712D53A1D002142F2E2
:100590001C0006F07BFC044600289DD17868C368E7
:1005A000D3F80120D3F80530C5E9382305F03CFB2A
:1005B00095F8D8309E0621D5B91C384606F06AFD5C
:1005C0000446002888D1042142F2240006F0BAF83B
:1005D0000646002800F0A08004210C3025F062FAC5
:1005E0003B8803807B8843802246314642F22400C8
:1005F00006F04CFC044600287FF46EAF95F8D83026
:100600005C062AD5022142F22E0006F09BF8044631
:10061000002800F0818002210C3025F043FAB5F863
:10062000B03103802146002242F22E0006F02EFC5B
:10063000044600287FF450AF01463A1D42F22A00DA
:1006400006F024FC044600287FF446AF7868C368AF
:100650005B7885F8223105F0E7FA082142F20100C3
:1006600006F070F80446002856D008210C3025F01A
:1006700019FA95F8D81011F0400F024640F2022303
:1006800008BF032388074CBF43F02C0043F00C0045
:100690008B0695F8D93048BF40F0400013F0090FA1
:1006A00018BF40F40060CE0748BF40F010000021A2
:1006B00025F09EFB2146002242F2010006F0E6FBF7
:1006C000044600287FF408AF95F87C30B5F8041193
:1006D000980624D4C9B93A1D41F2050006F0D6FBAC
:1006E000044600287FF4F8AEB5F804317C684BB9B5
:1006F000E368B3F80120A5F804219A88114811464F
:1007000029F0D1F9204605F08FFA082140F6014082
:1007100006F018F80446C8B96FF06804DCE6002952
:10072000F3D1094A0548012125F040FB6FF004048C
:10073000D2E600BF70050020F1E302009CA7020092
:10074000480600207806002015E4020008210C303D
:1007500025F0A8F995F8D830D907024629D4604881
:100760004FF0005125F044FB2146002240F60140A5
:1007700006F08CFB044600287FF4AEAE01463A1D1D
:100780004FF6014006F082FBB8B1564A56480221A6
:1007900025F00CFB07F02EFC044600287FF49CAEED
:1007A00009F040F9044600287FF496AE06F050F9AF
:1007B00092E649A1D1E90001D4E77B68DC68B4F88E
:1007C0000130032B96BF494A494952F823106E461F
:1007D0008AB06A464748D3614FF400731384464B8E
:1007E000C2E9050142F8103F3F484FF4135125F08C
:1007F000F0FAB4F80120B4F80330022AB54649D122
:10080000052B47D83D4A52F823106E468AB06A46F7
:100810003B48D3614FF400731384374BC2E90501A1
:1008200042F8103F4FF413512F4825F0D2FA637964
:1008300094F806C0D4F80900032BB54698BF314A96
:10084000B4F8076094BF52F8231029496C468CB065
:100850006A46DFF8B4E0C2E9073C4FF400739385C1
:100860002A4BC2E905E1C2E909604FF4735142F82D
:10087000103F1D4825F0ADFAA546786805F0D4F97B
:100880003A1D00214FF6024006F000FB044618B165
:100890001F4A7BE71649B8E77868C368B3F80130A8
:1008A000A5F8C13005F0C0F995F8C1305B077FF5B8
:1008B00071AF3A1D21464FF6034006F0E7FA08B142
:1008C000144A63E77868C3685B7885F8C03005F040
:1008D000ABF95FE7AFF30080908800020080002052
:1008E0001088000238E402009CA70200B0AC0200AD
:1008F000E2E102005CE402000400000198AC0200A6
:1009000075E4020088AC02008DE4020007000001DB
:10091000BAE40200E3E402002DE9F843D0E9073825
:10092000856903EB08042F34A5420F46164619D8F3
:10093000DFF86C80A3FB080117A3D3E90023FFF7BE
:10094000DFFB0346601BA0FB080123F07F4412A3DA
:10095000D3E90023FFF7D4FB20F07F403C603060F8
:10096000BDE8F883DFF838900BA3D3E90023A5FB9B
:100970000901FFF7C5FB20F07F440A480A2106A3BE
:10098000D3E90023E8FB0901FFF7BAFB20F07F4021
:100990003C603060BDE8F8838D49FD1A0700000017
:1009A00000CA9A3B00166BF1002800F03C812DE94B
:1009B000F04FC74C94F85E2012F001058DB040F066
:1009C0006E81607EFF2300F00300A37618F0A2FC86
:1009D00094F85E00420726D4627F94F8293004EB35
:1009E000820204EB8303166AD3F82C8086B1B848E0
:1009F000314612F06DF933785B0605D506210DF00E
:100A0000AFFA002800F04D81B148414612F060F97C
:100A1000337813F00E0F40F09D8063698BB10C208A
:100A20000DB0BDE8F08F2A4604F15F01C0F3C000AD
:100A300018F0E6FDFF28A076CED0284618F084FCFA
:100A4000CAE70FF0B5FD8146002800F038810FF0AD
:100A5000BBFD8246002800F02F8112F033FC0546D2
:100A6000002800F04581D0F888004FF6FF73AB8472
:100A700005F1100B002800F01A8105F17C0205F148
:100A800078010DF079FAB5F8763023F4EF6323F0AE
:100A9000070343F48C7343F00103A5F8763095F80F
:100AA000373003F03F0363F07F0385F8373095F864
:100AB0008E3023F0070385F88E3095F83C3023F014
:100AC0000F03002785F83C304FF4C023C5F8883168
:100AD0002846C5E91277C5F88870A5F88C7085F8A6
:100AE00039706F85C5F82E702F65A5F88E71A5F841
:100AF000847114F059FD85F85071C5F8549112F0C5
:100B000095FE95F8943160F3020385F8943112F064
:100B100093FE95F8943160F3C50385F8943195F808
:100B2000803167F3410385F880310121284613F0B5
:100B30009BFA05F1D40014F00FFBC4E9159AC4F830
:100B400014B0C5E902772F702D6119F06DFD0028F2
:100B500040F0A980237E0121C3F342030DF12B0055
:100B60008DF82B300DF0A4FB024600285DD098F8DC
:100B70000110304611F068FE5649574BB4F85C70CE
:100B8000A0FB0101C0184FF000054FA3D3E90023DB
:100B900041F10701C4E902552570FFF7B1FA606021
:100BA0000EF032FE00F109083FB9357805F00F0567
:100BB000A5F10105B5FA85F56D09207E636865F339
:100BC000000010F00105207636D0444A099200203A
:100BD00010600225424A434F04930BAE01930592E5
:100BE0000321CDE90200069443460090089607973A
:100BF0002A460B950EF00AFD31460FF06DFDA0B9A7
:100C0000394905914AF2D8330093CDE90300CDE983
:100C100001000797089606944346012203210B958D
:100C20000EF0D8FC2EE011F05FBD6369002B3FF49D
:100C3000F6AE11F015FDF2E6284A2C48049303F2B3
:100C400047130694029591211360A7FB000301FB53
:100C50000731244B0793224B05934FF6FF730992FC
:100C6000022703930BAE18A3D3E900230B97089632
:100C7000FFF746FA4346CDE900503A46284603219D
:100C80000EF0C4FC31460FF027FD0028CDD194F8BA
:100C90005E300120034384F85E3018F01DFB002015
:100CA000BEE61220BCE611F0DBFC0320B8E605F13D
:100CB0008000C5F88800E0E648460FF07FFC07207A
:100CC000AEE600BFAFF300808D49FD1A07000000BB
:100CD000FC2E002000CA9A3B8C49FD1AF02E002001
:100CE000C528010069F90000B1230100002AE7844A
:100CF00050460FF06FFC48460FF060FCDFE700BF86
:100D000070B5037E8AB0C3F342030D460446012149
:100D10000DF1230016468DF823300DF0C9FA7178D5
:100D20000246284611F090FD1F49204AA0FB0131E0
:100D3000981841F107011AA3D3E90023FFF7E0F95E
:100D400063689842054621D21B1A00220192184A74
:100D50000293184BA21AA3FB02320221520900236C
:100D60000A4409AE099114490591CDE903330321E1
:100D7000D2B20696009318460EF0A8FC31460FF04A
:100D8000ABFC38B9656000200AB070BDFBD9C21A4F
:100D90000023DBE70C200AB070BD00BFAFF300807A
:100DA0008D49FD1A0700000000CA9A3B8C49FD1AC4
:100DB000FC2E00204FECC44E69F90000000000003A
:100DC0002DE9F04F06468DB08A4601200221994652
:100DD00015461BF0D7FB00220B90022101200DF0DD
:100DE0001BF93B494FF4D07230460DF0A5F8C71CF3
:100DF000384B0093FFB201964B463A460121002042
:100E00000EF0BEFC10F0FD0F0ED0334A33493448CB
:100E100040F68F0323F05AFE002383F31188BFF3BB
:100E20006F8F0323184602DF2E4CA5FB044526A333
:100E3000D3E9002320462946FFF762F90896069673
:100E400073680493284B20F07F48A8FB0331E01A15
:100E5000264B07934FF00702254B059302FB081121
:100E60004FF6FE7365EB010103934FF47A72002392
:100E7000FFF746F94FF0000BCDE90180CDF800A057
:100E80004B463A46012158460EF0A4FB10F0FD0FE8
:100E90000DD0114A1149124840F6A40323F016FE62
:100EA0008BF31188BFF36F8F0323184602DF0B9B70
:100EB00013B90DB0BDE8F08F0122022110460DB02C
:100EC000BDE8F04F0DF0A8B88D49FD1A07000000ED
:100ED000901A0020653201002CB70200F0B7020022
:100EE000A0B0020000CA9A3B8D49FD1A05320100EC
:100EF00025870100000000002DE9F0418468A28CE4
:100F00004FF6FF739A428CB045D00546204614F048
:100F1000E9FD2B7D012B00F02281022B00F01581D1
:100F2000002B00F0F48094F85061002E40F0108106
:100F30002B8AE78D94F93720CDE90A6673B3002A2E
:100F4000C0F25A810023A4F88A31AA7CA38DFD182F
:100F500002F003030135012BADB23BD0B4F88E3162
:100F6000002B00F005819D4280F059815B1B9BB2F4
:100F70000022062BA4F88E31E28540F2F68094F927
:100F800037309342C0F25081002326E09DF82710AD
:100F9000204612F02FFD0CB0BDE8F081002AB8BF4A
:100FA00084F87561A38DAA7CFD1802F00303013556
:100FB000012BADB20ED0B4F88A31002BCED0AB42AB
:100FC00040F23C815B1BA4F88A31B4F88E31002BCF
:100FD000C9D102E00023A4F88E3194F83C2063F3D9
:100FE000820284F83C2029460DF12702204614F0A5
:100FF00017FB7430CAD0B4F888312BB1AB4240F241
:10100000EC805B1BA4F88831B4F884312BB1AB427F
:1010100040F2DA805B1BA4F88431E58D16B9AF424B
:1010200000F0C9800135ADB294F8D13013F001075A
:1010300031D1DDE90A130A46002B40F0CC800029AB
:1010400000F0BB801F461846A28C24690694CDE9A7
:10105000035603329A4D0290CDE90017D2B2012116
:10106000002005950EF032FB10F0FD0F93D00FF02D
:101070005DFB84428FD0934A934994484FF4AE630A
:1010800023F024FD002383F31188BFF36F8F032324
:10109000184602DF7FE794F937206FF30003002A38
:1010A00084F8D1307FDB94F87600C0F3C00100F003
:1010B000070019F0D1F8B4F86E20B4F86C3013447E
:1010C000E28B03F23F1313440344814A8148072112
:1010D000E3FB0021104678A3D3E90023FFF710F8C3
:1010E000DDE90A1320F07F4260686260904235BFFC
:1010F000171A801A002000270A46002BA4D157EAAD
:10110000010CA1D1002858D019461F469CE794F83D
:101110008E3003F01803182B7FF405AF218DB4F83F
:1011200086218B1D9A42C4BF931F5B1AB4F88211AB
:10113000CCBF9BB21346994200F09C80A4F8823148
:10114000A4F88431A4F88821EDE63D2684F85061A6
:10115000314620460CB0BDE8F04112F04BBC0023F4
:10116000A4F88831A4F88431DDE60126334634E75B
:10117000E28C052A97BF013240F2E2434FF4FA7342
:1011800092B203FB02F2B4F88C3142F2107101FB0F
:101190000323013BB3FBF2F39BB2A4F88E31002B87
:1011A0007FF4E1AE19E794F87700012100F0070021
:1011B00019F054F87FE7354636E7002D43D0002775
:1011C000114638463B463FE70023A4F884312046C9
:1011D00014F0C8FA21E7384636E70FF03BFA01462B
:1011E000A0B30023A4F88831A38CC3801B23037110
:1011F00000680FF001FA07E794F875316BB3013B13
:1012000084F8753104F1D408404613F0E7FFB8B311
:10121000404613F0E3FFB8B30023E38592E60821CC
:10122000204612F0E7FBB6E6A7B9D4F878315A08A1
:1012300013F0010336D1C4F87821A5E63E212046FB
:1012400012F0D8FBA7E6002EB9D1A4E60123A4F83A
:101250008831D9E613460126BFE60AAA0BA928461B
:10126000FFF75AFBDDE90A231343CBD0237884F838
:101270007531C7E7B4F8881100297FF454AE5FE7F1
:10128000FF2012F079FBC3E70246D4E91E010CF0FF
:101290008BFE0028C0D194F83C301B0744BF238D3F
:1012A000E3854FE642F000421E46C4F878213B46F3
:1012B00093E600BFAFF300808D49FD1A07000000E0
:1012C000C13101002CB702006CB80200A0B00200CE
:1012D0008C49FD1A00CA9A3B2DE9F04F89B0CDE93F
:1012E0000623BDF84C2003780392BDF85020BDF8CA
:1012F00048B0BDF85480068E029104460492002B3B
:1013000000F0C780013EB6B294F87600A6EB080361
:101310009DB2C0F3C001D4F80C31059500F0070070
:10132000019318F099FFE78C052F40F2AA8017FB74
:1013300005F7BFB240F2E249BBF1050F40F29580DC
:10134000B4F86E20B4F86C30134403F2D5130344A0
:101350007B4A7C480721E3FB00214FF09613E361B1
:1013600096231046238474A3D3E90023FEF7C8FE16
:101370005D4620F07F4040F2E24303FB05F509FBA8
:1013800007F1B1FBF5F71FFA87FA606005FB0AF079
:10139000814257465AD2401A6A4967A3D3E90023CB
:1013A000A0FB0101FEF7ACFE019B20F07F499944B0
:1013B000638DB4F814211344984494F83730A8EBA3
:1013C00006084744DB0967856AD15F4A5F49604880
:1013D00040F6581323F07AFB002787F31188BFF3F8
:1013E0006F8F0323184602DF2E46039B2385049B41
:1013F000A4F88C3129462046A4F826B014F04CF904
:10140000544B218D2B44881DB3FBF5F39AB29042C7
:10141000A4F8862104D2C1F57F41FA310A4492B280
:10142000029BA4F8822113B10023A4F88E314B460D
:10143000324639462046FFF7C3FC94F8803143F02A
:10144000010384F8803109B0BDE8F08F091A3D48E6
:1014500039A3D3E90023A1FB0001FEF751FE019B54
:1014600020F07F49A3EB0909A2E74FF096130BF197
:101470000105E36196232384ADB20A204FF4FA7389
:101480007BE7059B013717FB03F7BFB24FF4FA79EF
:1014900052E7438D1E44B0F814311E44B6B233E710
:1014A000226C0599A36C274F02FB1133A36419F03A
:1014B0000BF9064694F87401C0F3420019F006F9DE
:1014C000064405FB06F6244B06F5742606F23F2675
:1014D000A3FB0636B60CA36C26640AFB06F06A086A
:1014E0000344963A934228BF1346C4E91123069B4E
:1014F00040F2E24808FB03F323650023A0FB070149
:10150000C4F87C310CA3D3E90023FEF7F9FD134B9B
:10151000079AA9EB0009A3FB0230800A08FB00F040
:10152000A0FB070104A3D3E90023FEF7E9FDAE1BEE
:1015300020F07F4759E700BF8D49FD1A07000000E2
:101540008C49FD1A00CA9A3B2CB7020078B1020000
:10155000A0B002007FC3C90183DE1B435917B7D176
:101560002DE9F04F0B6891F81180D3F80090037FBC
:10157000176895B00446C3F38013D0F81E008DF8A9
:101580003F30B8F1FF0F638C12900E461546ADF850
:101590004C300DF1480A4DD19AE803001090ADF897
:1015A00044102346E28D53F82EBB9B78AB722A8100
:1015B000D4F82A306B60D4F83A30C5F8223005F1FF
:1015C000220094F83E30037105210CF071FE95F86D
:1015D000273000F03F0060F3050385F8273094F8CA
:1015E0003F30C3F3040285F82820A28EEA82012846
:1015F00003F01F0392B205D91B3303F01F030B2B1B
:1016000000D81ABB0022C9F8082095F82C3062F3E4
:10161000000385F82C30E5680126584621462671DE
:101620000EF0DEFF28682E7129460EF0E5FF15B09A
:10163000BDE8F08F10AA0DF13F01404617F07EFB88
:101640009DF83F3002338DF83F30AAE73368002120
:101650005960E38EEA8A2B8340F2E24303FB02F2F5
:101660000B92638E0D93384614F02AF894F83F20BD
:1016700097F87411520962F3430187F8741119F055
:1016800023F80C9097F87401C0F3420019F01EF88B
:101690000C9A0B99104401FB00F0BB4A00F5742032
:1016A00000F23F20A2FB00204A08800C963A2863F3
:1016B0006A6394F8312040F2E24302FB03F36B6467
:1016C000238FA7F88C31384613F0E6FF0B99AF4B08
:1016D000AF4AC7F890210B44B3FBF1F39AB2A7F8D5
:1016E0008621298B881D824204DDC1F57F41FA31B4
:1016F0000A4492B2A7F882216B68C7F87831234672
:1017000013F81C2FC2F340120C92DA0700F1FA8092
:101710004FF48073A38399F81A0018F085F804F148
:101720002B03002800F0EA80626AC4F82B20228D87
:101730009A80B8F1FF0F00F00881BAF804301298CF
:10174000A4F82930C4F825009DF83F30A3771098FD
:10175000BDF84430C4F81F00A4F82330EB8A638638
:101760002B8BA386B7F88C31E38697F87431C3F3DB
:10177000420384F83830384611F0B0FDA882E0808A
:101780002146584674680EF02BFFAB8AE3801C2379
:1017900023710C9BD4F80080002B40F0CA800C9B76
:1017A0002377214640460EF027FF95F86700B5F8ED
:1017B0005C80B5F85E40012100F0070018F04EFD96
:1017C000444404F2D51403198046724C7248072130
:1017D000E3FB04014FF09613C5E9033368A3D3E993
:1017E0000023FEF78DFC20F07F4078600B9B2D6B73
:1017F0000D995D1BF36840F2E24202FB013303F2F4
:10180000B3410022A1EB0808012002210CF004FCE6
:10181000484611F019FA0246A8FB0401144658A3E1
:10182000D3E90023FEF76CFCCDF80490B3685B4964
:10183000009120F07F4AA21C3A3BD2B253440121CE
:1018400000200DF09DFF012800F0858099F81830E8
:10185000DB0766D4384611F041FD4E4BA5FB0398DB
:10186000044647A3D3E9002348464146FEF748FC17
:101870004B4BB6684B4A079220F07F45A5FB0331DE
:10188000B9EB0300484B059340F2E3130697089326
:101890007B684FF0000BCDE903B34FF0070303FB68
:1018A000051168EB01014FF47A720023FEF728FC62
:1018B00003343A3EE4B2CDE90150CDF800A03346FE
:1018C0002246012158460DF085FE10F0FD0F0DD087
:1018D000364A374937484FF4F27323F0F7F88BF361
:1018E0001188BFF36F8F0323184602DF0122022104
:1018F00010460CF091FB15B0BDE8F08FC4F82B003A
:10190000988016E7294A2C492A48FD2323F0DEF85F
:10191000002383F31188BFF36F8F0323184602DF80
:10192000F6E6002301220093184611460DF0E6FE6C
:1019300090E795F8273043F0400385F82730281DBD
:1019400017F006F8012328852AE70022C4F825208D
:10195000A4F82920F8E60EF0E9FE81453FF476AFC1
:10196000124A1649134840F28B2323F0AFF80023A4
:1019700083F31188BFF36F8F0323184602DF65E7F7
:101980008D49FD1A0700000083DE1B437FC3C90198
:10199000404B4C0000CA9A3B8C49FD1AE586010079
:1019A0008D49FD1AB18601002587010060BD020046
:1019B000F0B70200A0B00200A0B40200BCBD02005B
:1019C000F0B5C468636883B00546002B64D11AF093
:1019D00049F900201AF06CF9002108461AF05AF96A
:1019E0000022252108201AF097F9474B019301A8FE
:1019F0001AF07EF9454940F25B601AF039FA237A11
:101A0000C3F3420262F306132046237219F07AF8F8
:101A100017F0E6FF58BB637A9B071FD127682E6833
:101A2000384618F0C1FB06446A6806F10901012036
:101A30001AF066FB1AF024FC204611F011F9811C03
:101A40003246C9B2384618F0B1FB054678BB20468D
:101A500018F052FB88B9002003B0F0BD012017F048
:101A60002FFC4178821C00781AF0EAFAD6E7607AF7
:101A700010F0030018BF0120F1E7254A2549264848
:101A800040F2294323F022F885F31188BFF36F8FCA
:101A90000323184602DFDEE793F82C309A0796D02E
:101AA0001E4821461AF09CF81AF082F9D3E7184A2A
:101AB0001B49194840F2114323F008F8194B07213C
:101AC000A5FB030301FB05310DA3D3E90023FEF7BA
:101AD00017FB15490246154822F0F8FF002585F34B
:101AE0001188BFF36F8F0323184602DF1048214689
:101AF0001AF076F81AF05CF96FF08B00ACE700BFD3
:101B000000CA9A3B00000000D6BE898E555555008C
:101B1000DCC1020074B20200A0B002003DA30100CB
:101B200078B102008D49FD1A8CC2020060C2020029
:101B3000D9A60100000000002DE9F041C468A28A86
:101B40004FF6FF739A4282B000F0DF80054619F02D
:101B50001DFB2B89628B208CA3831A4492B2104404
:101B600094F82730E28380B2411C21845E064FF056
:101B70000001618304F1220100F1A18003F03F0024
:101B80000B4694F82810009004F1290016F098FEF6
:101B90000646D4E90C31A28B02FB0333A26B13443B
:101BA000E26B8B4294BFD21852188A4228BF0A4671
:101BB000E263616C226C94F867301144616494F8BC
:101BC0007E2094F82C10C3F3020363F3061112F085
:101BD00004024FF0000384F82C10A363236478D030
:101BE0001AF040F800201AF063F8201D1AF080F86F
:101BF0002389A17A40F25B6043EA01411AF038F987
:101C0000304618F0E5FA2146594819F0E9FFA08955
:101C10001AF06AFA94F8662094F86700C2F3C003D9
:101C2000002102F0070200F007001AF087F92046B1
:101C300019F056FB27682E68384618F0B5FA0644A6
:101C40006A6806F1090100201AF05AFA80461AF073
:101C5000EBFA00201AF002FBE36B94F8670003F143
:101C60002F02636C00F00700012103EB42051AF01C
:101C700091F84544054494F8670000F007000228F5
:101C800025D004280CBF4FF4BC73282301211D4428
:101C90001AF082F828441AF0B9FAA18A03313246C0
:101CA000C9B2384618F082FA0546002834D12046D9
:101CB00018F022FAD0B9002002B0BDE8F0810A463F
:101CC00003F03F03218D16F047FE064661E7182317
:101CD000DCE7D4E91A010CF067F9002880D194F808
:101CE0007E3043F0040384F87E3079E7214A2249AC
:101CF00022484FF4B07322F0E9FE85F31188BFF358
:101D00006F8F0323184602DFD5E71D48214619F0DF
:101D100067FF1AF04DF8CEE7164A1A4917484FF4F4
:101D2000AB7322F0D3FE184B0721A5FB030301FB85
:101D300005310DA3D3E90023FEF7E2F9134902466A
:101D4000134822F0C3FE002585F31188BFF36F8F7F
:101D50000323184602DF0F48214619F041FF1AF00D
:101D600027F86FF08B00A7E700CA9A3B000000003D
:101D700059B5010018C3020074B20200A0B00200FD
:101D80003DA3010078B102008D49FD1A6CC3020029
:101D900060C2020019A301000B46024A0248032157
:101DA00022F081BB76D002000CA802000346024A52
:101DB0000248012122F077BB93D002000CA8020058
:101DC000084609B1FFF7F2BF024A0348032122F097
:101DD0006CBB00BFB2D002000CA8020070B55B4A19
:101DE0005B488AB0032122F060FB0020039002F0E0
:101DF00075F8034650B9574C039B6BB1002005F0B2
:101E000093F90646A8B1544A034600E0534A5048A5
:101E1000012122F048FB30E0A3689B6C1BB103AAB0
:101E2000042120469847002140F6CD4028F01FF8B5
:101E3000E2E74B4D4B4A4648032122F036FB0FCDDB
:101E400005AC0FC42B682360474900963346022235
:101E500005A806F031FB034688B1444A3C480121FD
:101E600022F021FB4248434C20F0F0FB206060B997
:101E7000414A3748012122F018FB0AB070BD3F4AA1
:101E80003348032122F011FBECE73D48606027F066
:101E900029FC08B93B4AECE73B48214622F088FB85
:101EA000034608B1394AB2E7394A2948032122F0EA
:101EB000FCFA354800F0BAF8034608B1354AA6E7FF
:101EC000354A2348032122F0F0FA2F4800F096F813
:101ED000034608B1314A9AE72B4804A900F06CF890
:101EE000034608B12E4A92E7049B2E4A1848032164
:101EF00022F0D9FA244805A922F098FB0346E8B15C
:101F0000294A01211248204D264E114C22F0CBFACD
:101F100004A9284600F050F8034698B1234A01214D
:101F2000204622F0C0FA224A0321204622F0BDFAC0
:101F300000214FF4004027F09AFFE9E7059B1D4A76
:101F40000321DFE7049B32460321E9E7BCD002000E
:101F50000CA80200B8A30200EED00200D5D0020007
:101F600090A802000DD1020048A9020023D102006E
:101F70005CD102007807002062D1020048D1020043
:101F800098A302007DD10200681F002094D10200B6
:101F9000ACD10200BED10200D7D10200F4D10200C0
:101FA00014D2020036D2020048D2020070D20200DF
:101FB0008AD2020062D2020030B50C4685B00546D6
:101FC000B8B1B1B10C4BD3F80300DB798DF8043014
:101FD0000023009002938DF80C302868052302AA94
:101FE000694622F082FA10B9DDF80930236005B0A5
:101FF00030BD6FF01500FAE7F8A8020010B50446EE
:1020000010B96FF0150010BD0368002BF9D01868E7
:1020100027F068FB0028F4D02368034ADA604FF405
:1020200080721A820020EEE700127A0038B504466A
:1020300018B96FF01504204638BD0368002BF8D09E
:10204000586827F04FFB0028F3D02568144A697AB6
:10205000686822F02CFA04460028ECD10246697A1E
:10206000686822F030FA04460028E4D101200021FB
:1020700022F039FA697A6868012222F024FA0446CB
:102080000028D8D1697A68684FF4202222F00FFA2C
:1020900004460028CFD14220002122F024FACAE7CA
:1020A000060002002DE9F04F91B08407009302F082
:1020B00004030293C2F3C20303F10103DDF8688055
:1020C000039205460E46059340F0BA81041D30B1D7
:1020D000072909D86FF01B0011B0BDE8F08F01F09F
:1020E00007063444C6F10806009B4FF00009591E4C
:1020F0004FF0040A4FF0FF330193CDF810904F4694
:10210000CB4653460DB1009A22600598002800F393
:10211000E8809848009A824203D397488242C0F0F0
:10212000E080039AA4EB050E92074FEA9E0000F1AF
:1021300003810F2F00F2B180002D00F0058107F11F
:1021400040020DEB020C019A0CF8200C0CF8102C3C
:10215000049801300490E7E07A285DD84B280ED827
:10216000472859D829282DD8252852D054D8202896
:102170007AD02338D0F1000B4BEB000B74E04C38D5
:102180002E2849D8DFE800F07048484848484848B9
:10219000484848484B484848484848484859484BA8
:1021A0004B595959704B6D487048184B1848488224
:1021B0007F4B48484B487F0000204FF0000B4FF00A
:1021C000040A38E02A38C0B2012202FA00F010EA0C
:1021D0000E0F49D110F0625C2FD110EA020B43D0F0
:1021E0006046013C5444B4FBFAF40AFB04F4002DAD
:1021F00061D0A3EB050CA444B4453FF66BAF0028B7
:1022000068D1042B47D158F8043B236004340423DD
:102210002AE0019A013A01924FF0000B24E011F8F4
:10222000010C6C2834D111F8023C00206C2B834641
:10223000C5D14FF0080A5346D3E708F1070828F044
:1022400007080734F8E802AB24F0070435B1069814
:102250002044B0423FF63EAFC4E900AB08344FF033
:10226000000B4FF0080A534611F8010F002878D0F0
:10227000BBF1000F7FF470AF2528F5D1019B01332E
:1022800001934FF0010B4FF0040AECE7584694E736
:1022900000208346A5E7082B02D06FF015001BE74E
:1022A00008F1070828F00708F8E80223C4E900232A
:1022B00008340823D8E768B9042B02D108F10408D0
:1022C000A4E7082BE9D108F1070828F0070808F16E
:1022D0000808EDE7059A013A059258F8042B009298
:1022E00010E7039A900720D5A4EB050E4FEA9E0055
:1022F0004FF0010CBEF5007FCFD20F2FCDD8F5B136
:1023000007F140020DEB020EC0B2019A0EF8200C4C
:102310000EF8102CBCF1000F3FF41AAF60F07F00F4
:102320000EF8200C09F101090137C5F10802043447
:1023300006924FF6DA7E97E74FF0000CDAE7BCF131
:10234000000F01D00136EFE7029802360028EBD1EA
:102350000098CDE90631FDF7FFFEDDE906310644C0
:10236000E2E7631BB3F5806F97D23DB9A6F108048D
:10237000E018B1E698A2020028020300029A286041
:102380009B082B709DF81030C2B1EB7085F802905D
:10239000B9F1000F05D008A80022C5F1010C974241
:1023A0000ED1C5F101030DF120084FF0000A019391
:1023B0000DF1300B574512D1601B8DE66B70E5E7D0
:1023C00010F8013B190608D50CEB040EB64503F0D6
:1023D0007F033FF67FAE04F8013B0132DFE7B9F13E
:1023E000000F03D098F90020002A17DB029BD3B11D
:1023F0001AF80B2004F8012B0022019B1819104435
:10240000B0423FF667AE98F8000004F8010B00995F
:102410000392204627F08AFE039A14440AF1010A27
:1024200008F10108C6E798F8002055F8223000931B
:10243000029B45F822300098FDF78EFE421CDCE737
:102440006FF00D0048E600BF2DE9F04F97B000AFE8
:1024500090F802A0D7F880B03B62CBF3C0030446EB
:10246000FA62BB61894641B9457800780AEB800081
:1024700020444D4517D8A0EB0409E378FB61BAF17D
:10248000000F02D01BF0010F16D1FB6953BBFB6A92
:102490001BB13A6A4946204698474D4628465C3764
:1024A000BD46BDE8F08F461C3046FDF755FE0130B5
:1024B000304409F10109DCE7237862687A62FA6A3C
:1024C0009900796104EB8301002A40F000814D46B8
:1024D0000E4601EB0A094FF000084E454CD101EBC6
:1024E0000A0610E01BF0020FD1D023789A007A611F
:1024F00062687A62FA6A04EB8301002A77D14D465A
:1025000001EB0A0690461BF0050F0CBF02230123C6
:10251000FB62FB6906EB430A0BF00203BB62564504
:10252000BCD016F8021B16F8013C54F82390994BC6
:10253000994502D3984B994536D3BB69002B40D0BF
:10254000786A22F08DFA00283BD0E9468AB06A46C4
:10255000924B53617B6AC2E906314FF400731384D6
:102560008F4B42F8103F8F4800234FF4125100F078
:1025700023FD023DCD46D2E716F8013BF96254F83F
:102580002300FDF7E9FDD7F88430F96A01304BB13B
:10259000D7F8883098453EBFD7F8843023F8180024
:1025A00008F10108054498E7BB6923B1786A22F075
:1025B00057FA0028C9D11BF0010F05D1FB6AED1AAB
:1025C000ADE7BB6A002BAAD04846FDF7C5FDD7F89A
:1025D000843053B1D7F8883098453FBFD7F884206E
:1025E000431C22F8183008F10108054497E7BAF1B6
:1025F000000F72D01BF0040672D0D046002607F1FF
:10260000480052463B61B96227F090FDB96A3B69C8
:1026100001EB0A02BA62FA69F9695200FA60BA6A11
:1026200002EB41023A610BF00202BA603A69B96A00
:102630008A4257D162787A621BF0020F32440CBF93
:102640004FEA580100211BF0010FD2B240F09F80E9
:102650001BF0040F14BF40460020BB616270A070E5
:10266000E1703A6A7969FB6A20469847051EFFF6D1
:1026700015AFBB6923707B6A6370FB69E3704146E9
:102680003A6AFB6A84F802A007F148009847B0F163
:102690000008C0F2BB807B693A6AA9EB0A01C91A3B
:1026A000FB68C91AD7E90A0398470028C0F2B0802E
:1026B000A84408EB00054FF0000B07F1380AB345BA
:1026C00072D300213A6AFB6A08469847E6E6564606
:1026D0004FF0000807F1380093E75646D04697E7D9
:1026E000B04695E7BA6A12F8021BBA6212F8015CAA
:1026F000284A54F82500904202D3274A90421ED31C
:10270000BA6932B1786A7B6022F0AAF97B68002846
:102710008CD1BA6802BB08F1280207F1300C08F12D
:102720000100944407F1580252FA80F008F10208BF
:102730000CF8101C5FFA88F800F8105C76E7BA69AC
:102740003AB1786A7B6022F08BF97B6800287FF4CD
:102750006DAF1BF0010F09D006F1280207F1300020
:10276000711C161806F8205CCEB25FE71BF0040F50
:102770003FF45CAF08F1280207F1300008F10101D5
:1027800002EB000808F8105C5FFA81F84EE70020C1
:1027900063E700BF98A2020028020300A7D202004C
:1027A00004000001CCA702001BF80A3087F837307C
:1027B00054F82390D7F884302BB3D7F888309B4552
:1027C00021D2D7F8843033F81B803A6AFB6A0121A2
:1027D00007F13700984700281ADB0544B8F1000FCD
:1027E00006D14846FDF7B8FC00F101081FFA88F849
:1027F0003A6AFB6A414648469847002808DB054488
:102800000BF1010B5BE74FF00008DEE7454645E6BC
:10281000054643E6014B1860704700BF980700204B
:1028200080B505460E461746984621F04BF80346FC
:1028300027F028FDDFF81890044649F8003042469A
:1028400030463946A84754F8090002F0E9FD00BFB8
:10285000080000002DE9F047058B04462807904644
:1028600011D4022905F0070540F0CC80204622F063
:10287000BFFB78B10138218B042811D8DFE800F0C4
:10288000C2106D85950001290CBF45F0100545F07B
:102890002005258388F31188BFF36F8FBDE8F0878B
:1028A00001F0070AAA4500F0A5800027B9463E4678
:1028B000A368002B00F0BC8041F00801218388F35D
:1028C0001188BFF36F8FA168002900F0BA800D68EE
:1028D000002900F0B680D1F80480334652462046E5
:1028E000C047002D76D02B6829461D46F0E701F041
:1028F00007035A1F012A1BD8002221F00701062BCB
:10290000276889B2C4E9002209D13B4603E0628B03
:10291000013262831B68002BF9D141F0020121834F
:10292000204622F065FB00287AD041F0200176E0B5
:10293000042B0AD121F0070189B22183204622F01D
:1029400057FB10B141F020012183218B01F0070AD0
:10295000AA454FD00027B946AAE7236921F007010D
:1029600041F00601062DD3F8009021832DD1B9F155
:10297000000F3FD041F00801218388F31188BFF395
:102980006F8F3A492046C84729E021F007012369A3
:1029900041F0040189B2042DD3F804902183E6D0DC
:1029A00000273E464FF0040A82E721F00701236921
:1029B00041F0050189B2052DD3F808902183D6D0C6
:1029C00000273E464FF0050A72E700273E464FF0CB
:1029D000060A6DE72B4687E7B9F1000FD1D1EFF377
:1029E0001188202383F31288BFF36F8F238B23F08A
:1029F00008032383258BEA062ED525F010032383B5
:102A000005F007056669218B002EBFF670AF002325
:102A10002768C4E9003321F0070141F00101218357
:102A2000218B01F0070AAA454FF000097FF440AF5F
:102A3000002F9CD041F00801218388F31188BFF357
:102A40006F8F002FC8D03D68394633465246204626
:102A500022F0FAFA2F46F4E7AB067FF51BAF25F01C
:102A60002003238305F0070500E700BF755002002F
:102A70002DE9F047DFF85880044607464FF001097A
:102A800014B93846BDE8F08794FAA4F5B5FA85F58F
:102A900009FA05F32E0108EB05156FEA030A24EA8B
:102AA00003042B7B002BEBD058F806301B694BB985
:102AB0004644042273682846196807EA0A0722F088
:102AC00082FCDDE7284698470028D9D1F0E700BF0F
:102AD0006CA8020030B51049104889B0002227F0D8
:102AE00094FA0F4D0F4900220023CDE9062300245C
:102AF0000E23CDE90334CDE901440B4B00944FF490
:102B00004072284620F000FC0849284627F0FDF8CE
:102B1000204609B030BD00BF312B000068140020F2
:102B2000E00F0020004F00205D2E00005BD302006C
:102B3000014820F0A7B800BF340D00202DE9F04770
:102B4000804621480F4622F01EFC0646002833D05E
:102B500000252846BDE8F087237B83B12368DB6826
:102B60000BB120469847636883F8069023681B6979
:102B7000D3B9636804221968204622F024FC013688
:102B800010345445E8D3B8F1000FE2D0002DDFD067
:102B90002846FFF76DFF0546002FF7D000214FF4C0
:102BA000A47027F064F9F1E7204698470028E0D0A8
:102BB00009FA06F31D43E2E7044CDFF814A00546CA
:102BC0004FF00109DDE700BF801F00206CA8020064
:102BD0008CA80200014B53F8200070476CA902003A
:102BE00008B5034608462BB1044A136000F07AFC8E
:102BF000002008BD6FF01500FBE700BF9C07002018
:102C000010B5044C237813B9034820F03BF8012396
:102C1000237010BD324D0020340D002010B5044645
:102C20000B4822F0B0FB5CB1BFF35B8F094B53E85C
:102C3000001F013943E80012002AF8D1BFF35B8F6F
:102C4000054827F0EEF90548BDE8104020F01AB815
:102C5000781F00207C1F002068140020340D002005
:102C60000020064BBFF35B8F014653E8000F43E89B
:102C70000012002AF9D1BFF35B8F7047781F002044
:102C800070B5FFF7EDFF084C084E0546B44200D37F
:102C900070BD63685B792BB123685B6813B129460B
:102CA000204698471034F1E76CA802008CA8020077
:102CB00010B5044C0449204622F018F8034B1C6060
:102CC00010BD00BF540C002058A90200701F002046
:102CD0000D4A0E48002310B513700D4A13600D4ABB
:102CE0004FF400411360FFF77BFFFFF7E1FF0A4B52
:102CF0000A4918468B4200D310BD1A1A5C6812119B
:102D0000013222711033F5E7334D00208353020066
:102D1000781F00207C1F00206CA802008CA80200F5
:102D2000014600220148002322F001B8540C002083
:102D3000014822F09AB800BF540C0020024B014613
:102D4000186822F0E6B800BF701F0020014822F08A
:102D50001BB900BF540C002070B5294B187800280F
:102D60004DD0FFF7E5FF0546002845D1254B264C01
:102D70001B68002B19DD27F001F94FF47A72A0FBD4
:102D8000020302FB0131C30BD4E9002043EA4143B3
:102D90009B1A4FEAD13140F2E93261EB00019342D4
:102DA00071F1000101D3FFF76BFFD4E9003213F595
:102DB0007A7342F10002C4E90032BDE87040FFF7C7
:102DC000C5BF63685B7923B1236829461B68204629
:102DD00098471034B442F4D32846FFF7AFFFBFF34F
:102DE0005B8F0A4B53E8001F013943E80012002AA9
:102DF000F8D1BFF35B8FB9E7054C064EEAE770BD2B
:102E0000324D0020781F0020601400207C1F00201D
:102E10006CA802008CA8020070B50D4D297861B92C
:102E20000120FFF78BFE0B4C0B4EB44206D3FFF78D
:102E300093FF0028FBD101232B7070BD63685B7981
:102E40001BB1236820469B6898471034EDE700BF0C
:102E5000334D00206CA802008CA8020000212DE94F
:102E6000F0470846FFF76AFE044658B340F2676829
:102E70004FF0000927F006FA1B4B1C4A1B58136041
:102E800033B11B4B1B68092B02DD1A481FF0FAFEF9
:102E9000194FDFF860A0002544B12046FFF7E8FD98
:102EA000044618B94FF0FF384FF0FF39FFF754FFD1
:102EB000064628B9B5B942464B4650461FF01CFF9E
:102EC0003546E9E74FF0FF384FF0FF39D2E72B687E
:102ED0009B691BB100221146284698471035BD4218
:102EE000F5D3E8E7054DFAE708000000741F00205D
:102EF0007C1F0020340D00208CA802006CA802006A
:102F000013B5184822F03FFA174B1B7873B1EFF353
:102F10001184202383F31288BFF36F8FFFF71CFF08
:102F200084F31188BFF36F8F02B010BD0F4B1B6885
:102F3000002BF9D050B900220023CDE900230C4822
:102F40004FF40042002320F09DFFEDE70928EBD16C
:102F5000074827F066F8074802B0BDE810401FF0A8
:102F600091BE00BF7C1F0020334D0020741F002045
:102F700068140020340D002010B5064B1B68044671
:102F800098472146A060044821F050FFBDE810405A
:102F9000FFF7B6BF9C070020540C0020044A054BE5
:102FA0009B1AB1EBD30F34BF52F8310000207047A9
:102FB00024A702006CA802002DE9F04F8FB004AFE7
:102FC000C1F34A28B8600D4691467B600C0DB8F1FC
:102FD000000F63D0002607F114034FF0040B4FF0ED
:102FE0000A0AC7F80C80C7E907667E620193CDF82C
:102FF00008B0CDF800A007F11C03F9683246484636
:10300000FFF722FAB0F5006F03461CD36C468AB076
:10301000D9F8041004AB2648C3E9050140F2FF715A
:10302000D9611A464FF400711984224B42F8103FBF
:10303000214833464FF41251FFF7BEFFA5462C3707
:10304000BD46BDE8F08FC0F30A0804F1170018442C
:1030500020F0070080083B60FFF762FE68F353250D
:10306000044690B13B68154AC7E9083600F11001E3
:1030700007F11403F961CDE900A3CDF808B0F968B0
:1030800007F11C034846FFF7DFF968F353257B6817
:10309000B9682A46204622F0B5F9D0E704F11700B6
:1030A00020F007008008FFF73BFE0446EDE700BF75
:1030B00070D3020004000001F4A70200D9530200FB
:1030C0002DE9F04F87B0DDE91279DDE9105A0446A9
:1030D000039193469846BFB1CDF800903B465246C7
:1030E00010210020CDF81490FEF7DCFFB0F5006F42
:1030F00006460AD3184A194840F2FF73022107B066
:10310000BDE8F04F22F0D7B93E4605F11700304434
:1031100020F0070004F007048008FFF701FE0BF021
:10312000070BE40044EA8B1444EA462444EA0554BD
:10313000054640B13FB1CDF800903B46524631467E
:103140001030FEF7AFFF039943462246284607B0EA
:10315000BDE8F04F22F056B9AFD30200F4A7020049
:10316000406820B1034BC01A40F3CF0070474FF0C6
:10317000FF30704724A702000EB403B503AB01462D
:1031800053F8042B0448019302F0F6FB02B05DF8FB
:1031900004EB03B0704700BF19550200CA0605D4FE
:1031A0008B064CBF02490349FFF7E6BF704700BFDB
:1031B000E8D30200E7D302002DE9F04F89B09B4627
:1031C000149B06939DF84CA0159B0593169B179E88
:1031D000049304460D469046BAF1000F00F09D801E
:1031E00006F48073079322F0ECF806F00209024619
:1031F00000283ED091492046FFF7BEFF0746B9F1AF
:10320000000F08D016F0440F35D18D492A462046CC
:10321000FFF7B2FF074406F0010353B1894B8A4917
:1032200053F82A20894B2046002A08BF1A46FFF788
:10323000A3FF06F48073002B49D006F00803002B8F
:1032400063D1B8F1000F66D0814942462046FFF7AE
:1032500093FF0546069B3D44002B6DD1049B002B3C
:1032600073D1F30700F1E48031462046FFF796FF63
:10327000D8E00746C3E7774B18680028CAD0764BDA
:103280004FF47A791B68B5FBF3F54FF46163B5FB36
:10329000F0F100FB115509FB05F54FF03C0CB1FBBB
:1032A000F3F203FB1211B5FBF0FEB1FBFCF300FBE4
:1032B0001E550CFB131109FB05F50091B5FBF0F54C
:1032C0006649CDE901E52046FFF756FFA2E706F083
:1032D0000803EBB1624B634953F82A202046FFF7FD
:1032E0004BFF0546B8F1000F05D05949424620462C
:1032F000FFF742FF0544BBF1000FABD05A495A46D5
:103300002046FFF739FF0544A4E74FF0000BE1E743
:1033100006F00805E6E745469CE7BBF1010F069B72
:1033200006D1002B64D1049B002B7BD000250CE040
:10333000002BF8D04D485CE04D48069B4D49224695
:1033400021F05DFB049B002B68D0DFF82C81DFF8B7
:103350002C91049F3146102F204628BF1027FFF7DD
:103360001DFF4FF0000B5D4545DC059B49461A7873
:103370002046FFF701FF4FF0010B1BF0070F03D1B1
:1033800041462046FFF7F8FE5F453BD9059B49467D
:1033900013F80B202046FFF7EFFE0BF1010BBBF1FA
:1033A000100FEAD1364920464FF0000BFFF7E4FE3C
:1033B0005A46059B9A5CA2F120015F2928BF2E2264
:1033C00030492046FFF7D8FE0BF1010BBBF1100F7F
:1033D0001DD01BF0070F03D141462046FFF7CCFE5E
:1033E0005F455A46E5D841462046FFF7C5FEEBE764
:1033F0001F485546A1E741462046FFF7BDFE0BF1A9
:10340000010BB0E720492046FFF7B6FEC5E7059B54
:103410003B440593049BDB1B04939AD1BAF1000F44
:103420007FF41FAF204609B0BDE8F04F22F067B827
:10343000064A05492046FFF79FFE15E7EFD3020035
:10344000F3D302007CA9020038E20200EAD30200B2
:1034500018D40200881F0020841F0020FCD3020023
:1034600090A902001CD4020022D402004F55020091
:1034700019550200795900002FD4020027D4020008
:1034800031D4020033D402002DD4020073B542F2CD
:103490000F738B4228BF0B4605680F4A044605216F
:1034A000684620F077FD63680C495B6806460B228E
:1034B000284622F016F863683246694628465B685B
:1034C00022F00FF8636806495B681B22284622F049
:1034D00008F802B070BD00BF33D2020052D402001F
:1034E00036D40200074A00210123904206D8064A3A
:1034F00001B901231360054B1860704740085B0059
:103500000121F2E740420F00841F0020881F0020A5
:10351000014B01221A707047344D0020014B0020EE
:1035200019607047A01F00200148FFF7AFBF00BF20
:10353000C0A9020010B5064B18680C46FFF74AFBFD
:1035400021460346BDE8104002480F22184700BF3D
:10355000A01F0020C0A90200F8B5094D094B0A4E72
:10356000D5E9004701221A700CB92C60F8BD21463C
:1035700030463A4600F01EF8241A0644F4E700BF2D
:10358000941F0020354D0020364D002010B9074B08
:1035900018707047064B1B781BB141F2883026F03B
:1035A0009CB8A420002126F062BC00BF344D00204E
:1035B000354D00202DE9F047DFF878901E4F80460A
:1035C0000E46042499F80050A5B926F079F8324641
:1035D0008246414628461EF0D5FF0546504626F055
:1035E00077F8E5B101233B7099F8003073B93046A4
:1035F000BDE8F0873246414600201EF0C3FF054675
:10360000EFE72046FFF7C2FF651E2C4600201EF0A4
:10361000FDFF0028EBD03B78002BF2D1E7E73B78A9
:10362000002BE4D0013C2046FFF7B0FF3B78002B95
:10363000C8D1DCE7354D0020344D0020F8B5074FE8
:103640000D4604464618B44201D12846F8BD14F888
:10365000011BBB6801485B689847F4E7B8A3020008
:10366000014B03600020704704AA0200F0B40C4B29
:103670000C4E5F6A0C4BB34203D36FF08500F0BC75
:1036800070475D68BD4209D31C693CB195F802C022
:103690000579AC4502D12346F0BC18472433EAE74C
:1036A000D01F0020E00F0020BC0F00202DE9F047C4
:1036B000134CDFF85080DFF8509005460E46174651
:1036C000444503D36FF08500BDE8F0876268D9F800
:1036D00024309A4212D3A36983B190782979884221
:1036E00005D13A4631462846BDE8F0471847527999
:1036F000012A03D13A463146284698472434DFE769
:10370000BC0F0020E00F0020D01F00202DE9F04169
:103710000B4CDFF8308005460E461746444502D371
:103720006FF0850009E063690BB92434F6E73A4687
:103730003146284698470028F7D1BDE8F08100BF00
:10374000BC0F0020E00F0020024B00221A605A60DC
:10375000704700BF8B20002070B50B4B0B4CA34271
:1037600001D3002070BD196A1E7F00220439D5B232
:10377000AE4201D82433F2E7013211F832508542CB
:10378000F5D10120EEE700BFBC0F0020E00F0020C4
:1037900008B5044A03460121034821F054FF0020E4
:1037A00008BD00BFA8D4020054A8020038B50546E1
:1037B00024F0FCFA10F1780F044611D10D4A0E489E
:1037C0002B46022121F03FFF284621F03EFF0B4A05
:1037D000D2F8C43023EA0003C2F8C430002407E062
:1037E0000028F1D0064A04482B46012121F02BFF86
:1037F000204638BDC3D4020054A80200D01F0020C8
:10380000E4D4020008B509480378C3F341130A332E
:1038100050F823303BB100F1080200F11001984745
:10382000C043C00F08BD1846FCE700BFD01F0020F2
:1038300004282DE9F74FDFF89C9004460F4615D079
:1038400001282FD1DFF8908098F8B93053B300F0F9
:10385000E9FE224D4D4522D22A6A4FF0000A2B7F05
:103860005FFA8AF6B34204D82435F3E7FFF76CFF1A
:10387000E8E702EBC6060192307924F097FA834616
:10388000307921F0E2FED8F8C430019A23EA00032F
:10389000BBF1000FC8F8C4300AF1010ADFDA0023D7
:1038A00088F8B9300D4D4D4508D30B4B1B6A6BB1F1
:1038B0003946204603B0BDE8F04F1847EB681BB10E
:1038C0003A462146284698472435ECE703B0BDE840
:1038D000F08F00BFE00F0020D01F0020BC0F0020A1
:1038E00073B5C4B263060D468DF8074007D0204675
:1038F000FFF732FFB0B1144B93F8BA0090B1124EFB
:1039000023468DB1114A1248032121F09CFE9DF8F7
:10391000070019F05FFCF3691BB10DF107010820E6
:103920009847012002B070BD0A4A0948032121F0DE
:103930008AFE9DF8070019F07FFCF369002BF0D098
:103940000DF107010920EBE7D01F002006D502008A
:1039500054A8020019D5020073B5044680788DF88A
:10396000000023796279294D43EA0223ADF8023041
:10397000E37803F003038DF8043021F066FED5F8F8
:10398000C430184206460CD0A478204600F02CFE25
:103990002046FFF70BFF26F0B2F910B996201FF072
:1039A0004FFF684619F0E8FB10F1780F9DF80030E2
:1039B0001BD1174A1748022121F045FE9DF800004F
:1039C00019F076FC10F1780F19D19DF80030124AE9
:1039D0001048022121F037FED5F8C43001203343CE
:1039E00085F8B900C5F8C43007E00028E6D00B4AD6
:1039F0000848012121F027FE002002B070BD0028F8
:103A0000EAD09DF80030064AF2E700BFD01F002040
:103A10002ED5020054A8020075D5020051D502002F
:103A200095D502002DE9F047A34EB36904460F4631
:103A30001546FBB9237803F01F03012B00F09D808E
:103A4000022B00F0048133BB94F900002A686178EE
:103A5000002834DA062912D008292BD0D9B901233D
:103A60001370517096F8C3305B0043F0010313707C
:103A700002232AE198470028DCD100200DE062886B
:103A8000100A011F0129844605D9072803D8716A45
:103A9000D2B20C781CB96FF01500BDE8F0874E78F3
:103AA000664503D19A4200F00B8101332144F0E7CF
:103AB0000B780AE196F8BA301370012305E1013959
:103AC0000829E8D801A353F821F000BF653B0000A6
:103AD000973A0000733B0000973A0000F13A00006B
:103AE000973A0000973A0000973A0000FD3A00002C
:103AF000A07819F003FB0028BFD0CCE76388756A73
:103B000063BBFFF721FE638886F8BA30F369002BA8
:103B1000B3D06A4903209847AFE76B78042B10D0E5
:103B2000052B11D0022B04D16F796388BB4208BFEB
:103B300001202B781D442B78002BEED10028AAD031
:103B4000DFE795F80380F4E76388BB42F1D1B8F171
:103B5000000FEED12846FFF7FFFEEAE7FF2700201F
:103B6000B846E8E76388012B95D1002386F8C33077
:103B700083E76388012B8ED1F8E796F8BA30D5F841
:103B800000C0002B87D0756AA38894F804E02A4609
:103B9000107800283FF47FAF5178022904D192F8C1
:103BA0000480F04500F293800244F1E78CF8002095
:103BB0008CF80120396060E7154494E00B2A7FF40B
:103BC0006AAF00274FF0FF08C146BA4606E06B789F
:103BD000042B0FD0052B21D02B781D442B78002BE4
:103BE000F5D1F36913B1514607209847002F7FF4B0
:103BF00044AF50E795F80280A38895F80390984564
:103C0000EAD163889945E7D1B8F1070F1CD806EBD4
:103C10000803AA4683F8BB900127DDE7A388434544
:103C2000DAD1A3784B450AD0AF78384600F0DCFCF7
:103C30003846FFF7BBFDB0FA80F77F09CCE728468E
:103C4000FFF78AFE0746C7E7AA460027C4E794F9AC
:103C500000206378002A18DA002B7FF41CAF247947
:103C60002D6863060AD02046FFF776FD00283FF452
:103C700012AF96F8BA30002B3FF40DAF294620461C
:103C800019F0FAFA00236B70F2E6012B08D0032B2F
:103C90007FF401AF6388002B7FF4FDAE012103E0C8
:103CA000618800297FF4F7AEA088FFF719FE00288D
:103CB0007FF4E3AEEFE600BFD01F00208A20002093
:103CC000022829607FF4F4AE4B883B60D5E694F976
:103CD000000062780028BFF671AF002A3FF466AF9B
:103CE0000A2A7FF4D8AE2A78002A3FF4D4AE697845
:103CF00004297FF461AFA9788B427FF45DAF072B75
:103D000096BF9B19002393F8BB308CF80030D4E6A3
:103D10002DE9F84FDFF83CB0DFF83CA005460F4630
:103D20009046994604264B4642463946284619F0A5
:103D3000E9FA10F10B0F044609D12B465A4602212D
:103D4000504621F080FC1FF0F7FC013EEBD12046ED
:103D5000BDE8F88FB6D5020054A8020013B5164C82
:103D6000237DF3B9E268A168019201AB8020FFF7DF
:103D7000CFFF019AA3681344A360E3689B1AE36032
:103D80006BB962B12369E2889A4208DD94F8C820D1
:103D900093FBF2F102FB11330BB90123237502B03F
:103DA00010BD00231A4619468020237502B0BDE8D5
:103DB000104019F0A7BA00BFD01F00207FB5002324
:103DC0000D4601930646002862D100293AD1082207
:103DD0000B460DEB020124F002F8002804DA8020E3
:103DE00019F0F8F904B070BD2E4C029A2260039AC3
:103DF000626004F13802A2609DF90820BDF80E301F
:103E00002575002AC4E903550FDB802B09D9264A02
:103E10002648012121F046FB802019F0DBF92846D5
:103E2000DEE713B1C4E90333DCE7FFF7EBFC00285E
:103E3000D5D0E28823699A42D4BFE260E360FFF7FD
:103E40008DFFCFE7174CD4E90212002A01AB05DC45
:103E5000024623F0C4FF0028C4DAC0E723F0BFFF06
:103E6000002804DA802019F0B5F93046B8E7019A45
:103E7000A3681344A360E3689B1AE360002BB1D1ED
:103E800004F13803A360FFF7BDFC0028D7D1A6E7F3
:103E90008028A7D1034BDA68002AD0D11B7D002BE4
:103EA000CDD19FE7D01F0020DDD5020054A802002D
:103EB000054B064A9A62064ADA62064A1A63064ABD
:103EC00058629A6100207047D01F0020253A0000F8
:103ED0006D3600000D370000AD3600002DE9F341CE
:103EE00004464C4D4C484FF0FF334FF0FF321EF06C
:103EF000CFFD95F8B8306BB1484A4948022121F00E
:103F0000D1FA6FF0770444481EF03AFE204602B022
:103F1000BDE8F0816B6A6BB900F0D4F8FFF7C8FF19
:103F20006B6A3BB93F4A3E48012121F0BBFA4FF092
:103F3000FF34E8E73C482C62E8616E6A19F024FB24
:103F400019F0AAF8041EDEDB00F08EFB041EDADB9B
:103F50007378012B01D1F3793BB9344A3048012100
:103F600021F0A0FA6FF01504CDE70026684685F829
:103F7000C830ADF802308DF804608DF8006019F09B
:103F8000FBF8041EBFDB802768468DF8007019F02F
:103F9000F3F8041EB7DB2649304619F0E1FA041E97
:103FA000B1DB2349384619F0DBFA041EABDB214CA8
:103FB000DFF8848044451AD3002019F079F9041EF3
:103FC000A1DBD5F8C430802043F00103C5F8C4302C
:103FD00019F06EF9041E96DBD5F8C43043F4803333
:103FE000C5F8C430012385F8B83000248BE7276A70
:103FF0000026227FF3B29A4201D82434DAE707EB95
:10400000C30257F83310107919F0AAFA01360028C4
:10401000EFD08CE7D01F0020080D0020F6D502005D
:1040200054A8020019D60200313800003ED6020022
:10403000BD3D0000BC0F0020E00F002030B51F4B3D
:104040008BB005AA03F1100518685968144603C41B
:104050000833AB422246F7D11B782370102200218F
:1040600001A826F08BF812220021154826F086F8C8
:10407000102101A823F0BAFF00281BDD0828B8BFD3
:104080000820093801AB0E491A18002012F8013F28
:104090000AAC04EB131403F00F0328336B44013014
:1040A00014F8144C13F8143C0C7008284B7001F1F0
:1040B0000201EBD102480BB030BD00BF78D6020040
:1040C000484D00202DE9F04F8A4B87B093F800A0AF
:1040D00000AFBAF1000F04D087481C37BD46BDE8D9
:1040E000F08F854C00264FF00119FE603546B04632
:1040F00023783BB9814B02349C42F3D17D4A0123A2
:104100001370E9E76378052B1DD8DFE813F0AF00E3
:104110000600F000AF001F005000402387F810A0F9
:104120007B8287F814A007F1100018F0F9FF40B166
:1041300008237B8207F1100018F0F2FF08B1A7F8FE
:1041400012A07B8AE37123781C44D1E7E378002B2B
:10415000F9D1A37813B3FB680133DBB2FB60F2E75C
:104160006B689C421CD02435654B9D42F8D36D464C
:1041700088B06A46634BC2E90534032342F8103F16
:10418000614800234FF4C251FEF716FFAD465E486A
:104190005E4A012121F086F900209EE75C4DE3E7AD
:1041A000AB68002BD7D0F96820469847D3E7002D9D
:1041B0005AD1584A5448012121F074F9E7E72B6A93
:1041C000A07803EBC2010B79984247D14FF0010B65
:1041D000E07800F003003875207994F805C040EAD3
:1041E0000C20788294F9020000285FFA8BF328DA19
:1041F0000BF110004FF0010C0CFA00F010EA090F5F
:1042000027D143F08000387407F11000C7E900316E
:10421000BA6018F085FFD7E901123B68C8B93A7C4B
:10422000A27012F0800F18BF10330A7118BFDBB2F2
:104230004FF0010214BF9A4002FA0BF249EA020958
:1042400081E7012000FA0BF010EA090F01D11846AE
:10425000D9E70BF1010BBBF1100FB9D101322B7F64
:104260009A42ACD32C4AA5E70022F8E7032E24D1CA
:10427000FFF7E4FE8346A0B1FBF76EFF034680B173
:10428000102806D0B860254A1F48022121F00AF9FB
:10429000BB68102BA8BF10231A465946A01C25F056
:1042A00045FF23786FF00201E218091B04EB53036A
:1042B000D14209D50136F6B245E7002EF1D1B8F169
:1042C000000F08D1164A75E702F801AC13F801098E
:1042D00002F8020DECE7A4EB080388F80230C3F300
:1042E000072388F80330FB6888F80430E2E7A0462B
:1042F00029E700BF474D0020F40E0020BB0F00202F
:10430000E00F002089D602004CA802006FD70200FF
:10431000BC0F0020A9D60200EAD6020007D702008F
:1043200052D7020010B5094B00211A461C7884426E
:1043300005D15C681CB1482303FB012010BD01318D
:10434000042903F14803F1D10020F7E79C20002065
:104350002DE9FF4150F8303C10F8346C103304461E
:104360000AD1036950F8282C98073DD5D2B95907CE
:1043700015D5002344F8303C54F8303C10330BD0B2
:1043800054E9097554F81C8C25F0B9FC002857D065
:104390003248214625F026FC04B0BDE8F08143F008
:1043A0000403236103AB54F82C1C3046FFF7B0FC28
:1043B000034640B12A4A2B480096012121F085F896
:1043C0006FF01503D6E7039A54F82C3C134444F8D5
:1043D0002C3C54F8283C9B1A44F8283C54F8243CC4
:1043E000134444F8243CC7E703AB54F82C1C304674
:1043F00019F012F803460028DCD1039D54F82C3C38
:104400002B4444F82C3C54F8283C5B1B44F8283CD3
:1044100054F8243C2B4444F8243C002DA9D03046C9
:1044200019F0B8F8B5FBF0F303FB1055002DA0D13F
:1044300054F8283C002B9CD0304619F043F89BE7F9
:1044400044F8200CA4F118001EF01CFC002DA3D091
:10445000424639463046A8479EE700BFA0140020D8
:104460009DD7020064A802004B1E012B73B50646BF
:104470000D4614D8FFF756FF044690B9012D0ED112
:1044800001AB01220DF10301304618F0C5FF019B7D
:10449000002BF5D10C4A0D48012121F003F802B0A0
:1044A00070BD25F02CFC04F1340108B1012D05D1BB
:1044B000084602B0BDE87040FFF74ABF044802B0AA
:1044C000BDE8704025F08EBBBAD7020064A8020098
:1044D000A01400202DE9F74F064601911746984693
:1044E00021F0F1F8044600286FD1EFF31183009317
:1044F000202383F31288BFF36F8FDFF8D49000225C
:10450000002348461EF0F8FBA0B9DFF8C8A04822F7
:1045100062430AEB020BDBF8045015F1100F1ED1B9
:104520002D4A2E483346012120F0C5FF48461EF093
:10453000A9FB0BE00134042C09F14809DFD1284A1A
:104540002648012120F0AEFF6FF00B05009B83F39E
:104550001188BFF36F8F284603B0BDE8F08F0AF8CB
:1045600002600C9A019BCBF814200D9ACBF8100036
:10457000CBF8182030466FF00F02CBE90237CBF8AA
:104580004480CBF8042019F005F868B1304619F0E2
:1045900001F8B7FBF0F202FB10772FB1DBF84420F3
:1045A00042F00402CBF8442018F0020F08D0482350
:1045B00003FB04A10B48343125F014FB0025C5E7AB
:1045C000304618F07FFF0546C0E76FF00F05C2E7E1
:1045D000B82000209C200020EFD7020064A8020031
:1045E000D4D70200A014002010B5EFF311842023CB
:1045F00083F31288BFF36F8FFFF794FE50B14368C7
:10460000103307D16FF08B03436000F1340104488D
:1046100025F0E8FA84F31188BFF36F8F10BD00BF57
:10462000A0140020F8B50E4C04252027EFF31186C6
:1046300087F31288BFF36F8F6368103307D16FF071
:104640008B030848636004F1340125F0CBFA86F34C
:104650001188BFF36F8F013D04F14804E6D1F8BD26
:104660009C200020A014002070B50A4C0A4E0025A2
:104670003146204625F09AFA0122A4F1180011468D
:10468000013525F010FA042D04F14804F0D1002082
:1046900070BD00BFD02000205143000001690123FC
:1046A00081F84B300B6833B191F849301BB10248A7
:1046B000083125F097BA7047A01400200169012342
:1046C00081F84A300B6833B191F848301BB1024889
:1046D000083125F087BA7047A014002070B505692D
:1046E000EFF31186202383F31288BFF36F8FD5F881
:1046F000900020F0F1FD044686F31188BFF36F8F20
:1047000030B104480022002305F118011EF012FD0B
:10471000204670BDA014002070B5012382F84830F7
:1047200013680D4614463BB192F84A3023B10E4847
:1047300002F1080125F056FAD4F89030DA885B8946
:104740009A4205D17DB904F1180140F6CD4204E04A
:1047500004F11801002DF8D00022BDE87040024895
:1047600000231EF0E7BC70BDA014002070B5044605
:104770000E4601791548154620F081FF10B394F9D3
:1047800000206378002A16DB202B04D0222B0ED0C9
:104790006FF085000AE02B681A6840F8102C9A88A0
:1047A00020F80C2C9B7900F80A3C002070BD63882F
:1047B00000F8093CF9E7212BEAD1103807232860DB
:1047C0003360F2E76FF01200F0E700BFBC21002079
:1047D00008B50146034820F060FF10B1012300F83E
:1047E000073C08BDBC2100200D4A03460021A0F86B
:1047F00048101068C3F8940090889279A3F8980044
:1048000083F89A2083F89C1083F89B10A3F89E10DD
:1048100083F8A010402203F14C0025F0AFBC00BF8C
:1048200000A9020010B504690023C4F8A8300C4B9D
:10483000C4F8A400596804F1A80269B9C3E90022C8
:1048400004F10800074925F0B1F904F11800064900
:1048500025F0F9F9002010BD0A605A60F0E700BFAA
:10486000BC210020F15602002149000030B54FF470
:104870000033426805690D4C85B042F2A100CDE9D4
:104880000103002385F89D30106AADF80C10007903
:104890000A2201A9FFF73CFA95F89D3023B90120BF
:1048A00024F01BFF013CF7D105B030BDA18601000B
:1048B00073B504698DF80710002384F8483020256B
:1048C000EFF3118685F31288BFF36F8F0122D4F8BE
:1048D00090000DF1070120F0FFFC86F31188BFF373
:1048E0006F8F01280AD025F00AFA10B994F8A13088
:1048F0006BB9094B1A780AB901221A7021220023D8
:1049000004F1180105481EF015FC02B070BD00212D
:10491000212025F0ACFAD3E75A4D0020A014002046
:10492000F0B5D0F88C305B681B6A1F7D85B00546FA
:10493000384620F0C8FE064650BB95F886303BB39B
:10494000A86F0146C38831F80A2F9B1A9BB2B3F5B2
:10495000806F28BF4FF4806303AA20F06EFC0446EA
:10496000B0B18306A5F1180308BF00F1FF3485F844
:1049700030600193074B0399009322460223384687
:10498000FFF7A8FDA86F224600F10A0120F08BFC7A
:1049900005B0F0BD1947000037B514460A1E05469C
:1049A00021DDD4F88C0004F14C0120F095FC0123AA
:1049B00084F8493023683BB194F84B3023B1114857
:1049C00004F1080125F00EF9D4F88C209388918920
:1049D00012695B1A9BB2D31A3F2B04D8012384F8C7
:1049E000A03003B030BD94F89E30002BF9D0064BB8
:1049F000009301940123402204F14C012846FFF763
:104A000069FDEEE7A014002099490000F7B50D46B6
:104A100001461D4820F027FE044610B30646691ED5
:104A200056F8A4395F6805291BD8DFE801F01C1A85
:104A3000031C222610F8061C99B9012300F8063C35
:104A40003B6A3246187BFFF7A7FF14F85C2C42B98B
:104A50003B6A187D0D4B0093019602231146FFF728
:104A600039FD03B0F0BD304603B0BDE8F040FFF7BC
:104A7000BBBE012304F8053CF3E710F8053C002B0E
:104A8000EFD00023F6E700BFBC210020194700004B
:104A900037B5094D0949002400944FF0FF334FF416
:104AA000806228461EF008FB0549284625F02DF9AE
:104AB000204603B030BD00BFA014002040520020AB
:104AC00033D802001FB507240294044C0194BDF8AA
:104AD0001840009422F02DFD04B010BD370C0020CA
:104AE0002DE9F0411F46104B88B01B680DF11408EA
:104AF0009B68044640460D461646984700238DF8AD
:104B00001D3070B90A23CDE90183BDF83830009318
:104B100032463B462946204622F00BFD08B0BDE850
:104B2000F0816FF0FE00F9E7C4210020B0B5124A11
:104B3000124B00AF6D4688B0012908BF13460C46E2
:104B40006A460F49C2E905134FF4007393830D4B76
:104B500042F8103F00230C484FF4E651FEF72CFAC0
:104B60000A4B1B681B68AD461BB1621E5042504188
:104B70009847BD46B0BD00BF13FC0200DBD4020065
:104B800059D8020003000001DCA70200C421002064
:104B900030B50F4B8BB01B6801AD04469B682846AF
:104BA00098478DF80D40044678B90146182204A8AC
:104BB00025F0E4FA074B2046CDE9053504A90A2380
:104BC000ADF81C3007F020FA044620460BB030BD8B
:104BD000C4210020A4AA02001FB51348BDF8181074
:104BE00004686068B0B1C1B90A2B16D11068516869
:104BF000128901AB03C31A80636801A8984778B98A
:104C00000120FFF7C5FF002814BF6FF00D000A2038
:104C100004B010BD6FF01000FAE76FF00600F7E780
:104C20006FF07F00F4E700BFC4210020024B012297
:104C30001A700020704700BF5B4D00201FB5012493
:104C40000294044C0194BDF81840009422F071FCC9
:104C500004B010BD5B4D0020B0B5144A144B0129BF
:104C600000AF6C4688B006BF1346012500256A4692
:104C70001049C2E905134FF4007393830E4B42F8B9
:104C8000103F00230D484FF4E651FEF795F90C4B09
:104C9000A5461C683CB154F8083C083C0BB12846BA
:104CA0009847A468F6E7BD46B0BD00BF13FC0200FC
:104CB000DBD4020072D8020003000001E4A7020066
:104CC000C821002070B516461D46104A1048032121
:104CD00020F0F1FB0F4B1C687CB1083C6FF08500A5
:104CE00063682BB13078984710B110F1860F09D165
:104CF000A4680CB1083CF3E710B16FF07F0070BD01
:104D00002846FCE76FF00D00F9E700BF87D80200E6
:104D1000E4A70200C821002010B5084C86B0247812
:104D20008DF81740012402940DF117040194BDF889
:104D30002040009422F0FDFB06B010BD3E0C002088
:104D400080B50C4A0C4B00AF88B0012908BF134650
:104D50006A460A49C2E905134FF400739383084B6E
:104D600042F8103F074800234FF4E651FEF724F9BC
:104D7000BD4680BD13FC0200DBD40200A5D80200B2
:104D80000300000124A7020038B5124A124B117823
:104D90001B7899420BD0022B104D137008D1104C88
:104DA00003E0A36803B198470C34AC42F9D338BD93
:104DB000012B0B4C0AD0AC42F9D2236803B19847BF
:104DC0000C34F8E7636803B198470C34AC42F9D36C
:104DD000EDE700BF5C4D00205D4D002024A70200E0
:104DE00024A7020008B504F077FA034B00221A54F6
:104DF000BDE80840FFF7C8BF5D4D00207FB51C46E9
:104E0000BDF8203006461146ABB9012C16D122461A
:104E100001A820F036FE01A820F073FE05463046BA
:104E200004F05AFA084B022D1D540AD8FFF7ACFFC4
:104E3000204604B070BD6FF00600FAE76FF00C007A
:104E4000F7E76FF01200F4E75D4D00202DE9F04721
:104E5000064600AF0C46002936D0E9468AB0D1E9B3
:104E60000012A3686D462148A8464FF0050AC5E91F
:104E70000501C5E9072348F810AF1D484246002345
:104E80004FF42151FEF798F8CD46D4E90312636937
:104E9000AD461848C5F810A0C5E90501C5E90723C6
:104EA0001348002342464FF42151FEF785F8CD46C2
:104EB000E369114A0E48012120F0FDFAA3690F4A67
:104EC0000B48012120F0F7FA012E07D1EFF30583FB
:104ED0000B4A0748103B314620F0EDFA2146304698
:104EE0001DF0E8FBBD46BDE8F08700BFC2D8020058
:104EF00034A80200F1D8020020D902002FD9020004
:104F00005DD9020030BFFFF7FDBF00BF2DE9F041C2
:104F10000B4EDFF8308006EB0807CC1B0546324607
:104F20000949204625F002F9A01942460021083C13
:104F300025F024F96C6707F10800BDE8F08100BF97
:104F400000000000080000008CA80200054B5A6910
:104F50009B689A421FBF044A536843F080535360D2
:104F6000704700BFD04C002000ED00E070B5294C28
:104F700006460D462848294920F0D6FCA36AD904E4
:104F80003CD52548264920F0CFFC1720A36A1A05F6
:104F900004D52148234920F0C7FC18201D4CA36AE2
:104FA0009B0512D51C48204920F0BEFCA36BA26AC9
:104FB000100409D51D4A1848012120F07CFA1EB1C1
:104FC000A36A23F40043A3621920124CA36A590573
:104FD00004D51148164920F0A7FC1A20A36ADA0567
:104FE0000ED50D48134920F09FFC1B20094A936AF7
:104FF00043F47F43936200232B7070BD1620C5E7F6
:10500000A36A9B04F2D504480B4920F08DFC1C20B8
:10501000ECE700BF00ED00E034A8020070D9020008
:1050200086D9020097D90200AAD90200C3D902008A
:10503000D8D90200F3D902000BDA020010B5204CD7
:105040002049214820F070FCA36A990136D51E48FA
:105050001E4920F069FC1E20A36ADA0104D51A4813
:105060001B4920F061FC1F20154CA36A1B0304D5CB
:105070001548184920F058FC2120A36A590304D58B
:105080001148154920F050FC22200D4CA36A9A03C8
:1050900004D50D48114920F047FC2320A36ADB0307
:1050A00004D509480E4920F03FFC2420044A936AA5
:1050B0006FEA03436FEA1343936210BD1D20CBE7F1
:1050C00000ED00E03ADA020034A8020052DA0200F1
:1050D00065DA02007FDA02009DDA0200C2DA02001D
:1050E000DCDA02002DE9F843364D80468946364821
:1050F0003649174620F018FCAB6ADE0627D534493E
:10510000314820F011FC1124AB6A1D0704D5314948
:105110002D4820F009FC12242A4DAB6A980718D5B7
:105120002D49294820F000FC6E6BAB6A190646D564
:105130002A4A25483346012120F0BDF9B9F1000F74
:1051400003D0AB6A23F08003AB62132403E0102486
:10515000DAE76FF015061B4DAB6ADA0704D5204974
:10516000194820F0E1FB1424AB6A9B0604D51D49C5
:10517000154820F0D9FB1524124B9A6AD50602D4A3
:105180009A6A90070AD55B68190507D541463046EB
:1051900000F026FA10B180F309880224094B9A6ABC
:1051A000920642BF5A6A22F400525A629A6A42F048
:1051B000FF029A6200233B702046BDE8F8836FF03F
:1051C0001506C2E700ED00E034A8020007DB02008C
:1051D0001DDB020097D9020050DB020068DB0200F1
:1051E0007EDB02000BDA02002DE9F041664B8AB04B
:1051F000D3F8048000AF0446C8F30805002686F300
:105200001188BFF36F8F02F07F43B3F17F4F07D157
:1052100002F00C03082B12D15C495D4820F084FB9E
:10522000002634460023FB71EB1E092B00F28A8016
:10523000DFE803F00A80837C8888888888861007E6
:105240004CBF0C460126EDE7524951484E4D20F027
:105250006BFB0023FB71EB6A9A0705D54E494C485E
:1052600020F062FB002332E0EB6A002B01DA4B49AD
:10527000F5E7EB6A5B00F5D54949454820F054FB5A
:105280006B69A26943F480736B61BFF34F8FBFF307
:105290006F8F6B6932F8022C23F480736B61BFF35C
:1052A0004F8FBFF36F8F4DF602739A4208D0AB6AEF
:1052B000DBB273B3FA1D01212046FFF713FF37E07D
:1052C0002368384A3248012120F0F5F82368FA793A
:1052D000DAB907F1080504F1200C206861682A4654
:1052E00003C2083464451546F7D17A6A002E45D0CA
:1052F000C2F3080121B96FEA52226FEA42227A62B0
:1053000007F108011846FFF7A1FD2837BD46BDE8A3
:10531000F081AB6A13F47F4F04D0F91D0120FFF731
:1053200025FE05E0AB6AB3F5803F9BD3FFF786FE11
:105330000346CCE7FA1D0021BEE7F91D0020EEE789
:1053400019498CE7194A1A4B18F4F87FE8468AB0D5
:1053500018BF13466A461749C2E905134FF4007394
:105360001384103D144BD56142F8103F08480023C8
:105370004FF41151FDF720FEC54673E722F4FF728A
:1053800022F00102BBE700BF00ED00E0CBDB020032
:1053900034A80200F6DB02000DDC02002EDC020065
:1053A0003CDC02005BDC020077DC0200B2DB0200C6
:1053B0009DDB02009BDC020004000001044B5A69E3
:1053C00042F010025A615A6922F008025A6170478D
:1053D00000ED00E0EFF30880EFF3098101B57246BC
:1053E000FFF702FF01BD00BF0B4880F308881AF0E9
:1053F000F7F9202080F3118808484FF40461401821
:1054000080F30988EFF314800221084380F31488A5
:10541000BFF36F8F00F0A4F800790020406B0020EC
:10542000084B9B6883420BD1EFF3058343B1064BD6
:105430005A6842F080525A605A6A22F400425A6214
:105440001EF046BAD04C002000ED00E014498A68F6
:105450004FF030001044EFF3098C80E8F01F20205B
:1054600080F31288BFF36F8F0E4F4FF000664A69CA
:105470008A603E60506F0C4C2060906F00239367F1
:1054800080F3118804B5104600F00EF9BDE8044021
:1054900002F1300090E8F01F8CF30988704700009B
:1054A000D04C002004ED00E0D02100201EF0040FBD
:1054B0000CBFEFF30880EFF30980816911F8021C3B
:1054C0000229FFD001B5724620F023FA01BD00BFCA
:1054D00040B2002807DB044A4109012300F01F0005
:1054E000834042F82130704700E100E040B20028DC
:1054F0000CDB4309064900F01F00203301228240E3
:1055000041F82320BFF34F8FBFF36F8F704700BF69
:1055100000E100E0054B420900F01F0053F8222093
:10552000012303FA00F01040704700BF00E100E0E3
:1055300040B20028A8BF00F1604001F10101B8BFEE
:10554000064B4FEA4111ACBF00F5614000F00F007F
:10555000C9B2B4BF195480F80013704714ED00E0CD
:105560000F4A08B50F4B22F07F029A60BFF34F8FAE
:10557000BFF36F8FD3F8882022F47002C3F888201D
:10558000EFF3148323F0040383F31488BFF36F8FC6
:105590001DF07EF91EF0D0FA00F05CF81DF0BCF9A9
:1055A0000000000000ED00E042F8203C009B42F8C3
:1055B0001C3C0A49019B42F8183C029B42F8143CEF
:1055C00021F001014FF0807342F8043C42F8081CBE
:1055D0000023203A02658367704700BF212800003E
:1055E000094A0346906870B113F1160F406E05D05A
:1055F000A0F140029A4205D8834203D2814228BFDB
:105600000020704700207047D04C002008B5154698
:10561000094A0A4B9060426F1A600E4600F044F847
:105620002C4686F309880020054B98472046002128
:1056300000220023034C2047D04C0020D021002022
:105640003959020021280000014B10221A617047CD
:1056500000ED00E0044800232021C2180133302B64
:1056600082F80013F9D1704700E100E008B5EFF3CC
:105670000583064A103B02EBC30152F83300496828
:105680008847BDE80840FFF761BC00BF58A402008E
:10569000024B034A0348012100F08AB800000220AF
:1056A0000000002020AC0200426E054B403A1A6018
:1056B000044A4021C3E901121846012100F082B8D2
:1056C000D421002000000B1508B503461048D0F87F
:1056D0009020C2F30722013A934207D90D480E4A9F
:1056E00001211FF0E8FE6FF0150008BDC0F89830EA
:1056F0000A6822F01F021A4342F01002C0F89C20F0
:105700008A6842F00102C0F8A0201846EDE700BF09
:1057100000ED00E014A80200B2DC0200F0B50E4675
:1057200085B01F4604460025B5420DDA606810B307
:1057300097B1431E18420AD0104A11482B46012146
:105740001FF0B9FE6FF01502104605B0F0BD1F281E
:10575000F2D921680B42EFD12368019320F00FF9B1
:10576000A36801A90343D0B20393FFF7ADFF10F183
:10577000160FE7D0421C01350C34D5E7D8DC020007
:1057800014A80200044B0522C3F89420BFF34F8FE6
:10579000BFF36F8F704700BF00ED00E0BFF35F8F76
:1057A000024B0022C3F89420704700BF00ED00E0D8
:1057B00010B5034C01232278FFF7B0FF207010BD15
:1057C0005E4D002008B50B4A00231278FFF7A6FFB4
:1057D00010F1160F07D0084A0021D2F89030C3F319
:1057E0000723984200DB08BDC2F89800C2F8A01059
:1057F0000130F2E75E4D002000ED00E02DE9F043BE
:1058000057485849D0F890300D68C3F307239D429C
:1058100085B000F2A180FFF7C1FF496800229542E0
:1058200001F10C011AD1504C504F25706846FDF71C
:1058300017FFDFF83C81DFF83C9106460025AE42B9
:105840001FD1237846490020D1F89020C2F30722C7
:1058500093427BDBFFF796FF00204CE0C0F89820D6
:1058600051F80C3C23F01F03134343F01003C0F81E
:105870009C3051F8043C43F00103C0F8A0300132E1
:10588000CDE7009800EB05114FEA051CCB683B40C3
:10589000B3F5000F44D00AD8B3F5001F2ED0B3F5EE
:1058A000800F34D0B3F5801F10D00135C7E7B3F1B6
:1058B000807F3ED0B3F1007FF7D150F80C3088687C
:1058C0004A6820F05CF840F4802009E050F80C3081
:1058D00088684A6820F053F840F0885040F430203F
:1058E000039001A92078CDE90123FFF7EDFE002800
:1058F00028DA6FF0150005B0BDE8F08350F80C30E1
:1059000088684A6820F03BF840EA0800E8E750F869
:105910000C3088684A6820F032F840EA0900DFE776
:1059200050F80C3088684A6820F029F840F08270FE
:10593000D6E750F80C3088684A6820F020F840F02C
:105940008870CDE7237801332370AEE7C1F8983033
:10595000C1F8A000013377E74FF0FF30CBE700BF7D
:1059600000ED00E02CAC02005E4D00200000F0FFD6
:105970000000081100000207F0B587B007460E4688
:1059800014460021102268461D4624F0F7FB02232E
:105990008DF802302A46054B019321466846CDE931
:1059A00004761EF023FB07B0F0BD00BF9F59020034
:1059B00008B5024B1B689847002008BDE021002075
:1059C000034B044A1860937843F0020393707047C6
:1059D000E02100209C08002008B50649064821F077
:1059E0000701C1F1005202F500321EF0CBFF00208A
:1059F00008BD00BF589B0020E421002003484FF061
:105A0000FF324FF0FF331DF043B800BFAC08002059
:105A100001481DF0B5B800BFAC08002038B50546F8
:105A2000FFF7ECFF08482A4608211EF043FF044612
:105A300028B925B124F026FC044B0C221A50FFF79C
:105A4000E7FF204638BD00BFE42100200C00000025
:105A500010B50446FFF7D2FF214603481EF0F2FEC0
:105A6000BDE81040FFF7D4BFE421002070B5A0FBD3
:105A700001543CB92846FFF7D1FF064640B900263D
:105A8000304670BD24F0FEFB044B0C221A50F6E7A2
:105A90002A46214624F072FBF2E700BF0C0000000A
:105AA00070B54169867A0B4D044659B1437ADB07DC
:105AB00006D42C2303FB06535B6A1B689B6898473C
:105AC000002363612C20214606FB0050BDE8704096
:105AD00023F0DBBF940D0020024B2C2202FB003090
