:100000008083002099760000B99502008576000073
:1000100085760000857600008576000000000000EF
:100020000000000000000000000000005D770000FC
:100030008576000000000000FD7600008576000057
:100040001D790000D9C201001D7900001D79000052
:100050001D7900001D7900001D7900001D79000048
:100060001D7900001D7900001D7900001D79000038
:100070001D7900001D7900001D7900001D79000028
:100080001D7900001D7900001D7900001D79000018
:100090001D7900001D7900001D7900001D79000008
:1000A0001D7900001D7900001D7900001D790000F8
:1000B0001D7900001D7900001D7900001D790000E8
:1000C0001D7900001D7900001D7900001D790000D8
:1000D0001D7900001D7900001D7900001D790000C8
:1000E0001D7900001D7900001D7900001D790000B8
:1000F0001D7900001D7900001D7900001D790000A8
:100100004FF0FF0C1CEAD0521EBF1CEAD15392EAFA
:100110000C0F93EA0C0F6FD01A4480EA010C4002D6
:1001200018BF5FEA41211ED04FF0006343EA501030
:1001300043EA5111A0FB01310CF00040B1F5000F72
:100140003EBF490041EAD3715B0040EA010062F121
:100150007F02FD2A1DD8B3F1004F40EBC25008BF0B
:1001600020F00100704790F0000F0CF0004C08BF29
:1001700049024CEA502040EA51207F3AC2BFD2F1F6
:10018000FF0340EAC250704740F400004FF0000304
:10019000013A5DDC12F1190FDCBF00F0004070473E
:1001A000C2F10002410021FA02F1C2F1200200FA7C
:1001B00002FC5FEA310040F1000053EA4C0308BF43
:1001C00020EADC70704792F0000F00F0004C02BF94
:1001D000400010F4000F013AF9D040EA0C0093F00F
:1001E000000F01F0004C02BF490011F4000F013B69
:1001F000F9D041EA0C018FE70CEAD15392EA0C0FD7
:1002000018BF93EA0C0F0AD030F0004C18BF31F041
:10021000004CD8D180EA010000F00040704790F017
:10022000000F17BF90F0004F084691F0000F91F0BB
:10023000004F14D092EA0C0F01D142020FD193EA81
:100240000C0F03D14B0218BF084608D180EA010009
:1002500000F0004040F0FE4040F40000704740F0E5
:10026000FE4040F44000704781F0004102E000BFD2
:1002700083F0004330B54FEA41044FEA430594EA66
:10028000050F08BF90EA020F1FBF54EA000C55EAA1
:10029000020C7FEA645C7FEA655C00F0E2804FEA72
:1002A0005454D4EB5555B8BF6D420CDD2C4480EA54
:1002B000020281EA030382EA000083EA010180EA84
:1002C000020281EA0303362D88BF30BD11F0004FD2
:1002D0004FEA01314FF4801C4CEA113102D0404208
:1002E00061EB410113F0004F4FEA03334CEA133343
:1002F00002D0524263EB430394EA050F00F0A7805B
:10030000A4F10104D5F1200E0DDB02FA0EFC22FA55
:1003100005F2801841F1000103FA0EF2801843FA49
:1003200005F359410EE0A5F120050EF1200E012A3A
:1003300003FA0EFC28BF4CF0020C43FA05F3C01878
:1003400051EBE37101F0004507D54FF0000EDCF1F1
:10035000000C7EEB00006EEB0101B1F5801F1BD39A
:10036000B1F5001F0CD349085FEA30004FEA3C0C9E
:1003700004F101044FEA445212F5800F80F09A8094
:10038000BCF1004F08BF5FEA500C50F1000041EB98
:10039000045141EA050130BD5FEA4C0C404141EB9C
:1003A0000101013C28BFB1F5801FE9D291F0000F97
:1003B00004BF01460020B1FA81F308BF2033A3F146
:1003C0000B03B3F120020CDA0C3208DD02F1140C3D
:1003D000C2F10C0201FA0CF021FA02F10CE002F178
:1003E0001402D8BFC2F1200C01FA02F120FA0CFC71
:1003F000DCBF41EA0C019040E41AA2BF01EB0451BA
:10040000294330BD6FEA04041F3C1CDA0C340EDCB7
:1004100004F11404C4F1200220FA04F001FA02F3FA
:1004200040EA030021FA04F345EA030130BDC4F1B8
:100430000C04C4F1200220FA02F001FA04F340EAAD
:100440000300294630BD21FA04F0294630BD94F05E
:10045000000F83F4801306BF81F480110134013D45
:100460004EE77FEA645C18BF7FEA655C29D094EAB6
:10047000050F08BF90EA020F05D054EA000C04BF34
:100480001946104630BD91EA030F1EBF002100201F
:1004900030BD5FEA545C05D14000494128BF41F0BE
:1004A000004130BD14F580043CBF01F5801130BD22
:1004B00001F0004545F0FE4141F470014FF00000AD
:1004C00030BD7FEA645C1ABF194610467FEA655C5E
:1004D0001CBF0B46024650EA013406BF52EA033500
:1004E00091EA030F41F4002130BD00BF90F0000FEE
:1004F00004BF0021704730B54FF4806404F132042A
:100500004FF000054FF0000150E700BF90F0000FE2
:1005100004BF0021704730B54FF4806404F1320409
:1005200010F0004548BF40424FF000013EE700BFD9
:1005300042004FEAE2014FEA31014FEA02701FBF69
:1005400012F07F4393F07F4F81F06051704732F09B
:100550007F4208BF704793F07F4F04BF41F40021F2
:10056000704730B54FF4607401F0004521F0004150
:100570001CE700BF50EA010208BF704730B54FF0DA
:1005800000050AE050EA010208BF704730B511F0DB
:10059000004502D5404261EB41014FF4806404F113
:1005A00032045FEA915C3FF4D8AE4FF003025FEA99
:1005B000DC0C18BF03325FEADC0C18BF033202EB1D
:1005C000DC02C2F1200300FA03FC20FA02F001FA77
:1005D00003FE40EA0E0021FA02F11444BDE600BF1A
:1005E00070B54FF0FF0C4CF4E06C1CEA11541DBFC9
:1005F0001CEA135594EA0C0F95EA0C0F00F0DEF894
:100600002C4481EA030621EA4C5123EA4C5350EA78
:10061000013518BF52EA033541F4801143F48013C9
:1006200038D0A0FB02CE4FF00005E1FB02E506F05A
:100630000042E0FB03E54FF00006E1FB03569CF0AF
:10064000000F18BF4EF0010EA4F1FF04B6F5007FB5
:1006500064F5407404D25FEA4E0E6D4146EB060627
:1006600042EAC62141EA55514FEAC52040EA5E50B0
:100670004FEACE2EB4F1FD0C88BFBCF5E06F1ED85A
:10068000BEF1004F08BF5FEA500E50F1000041EB91
:10069000045170BD06F0004646EA010140EA02003E
:1006A00081EA0301B4EB5C04C2BFD4EB0C0541EA60
:1006B000045170BD41F480114FF0000E013C00F375
:1006C000AB8014F1360FDEBF002001F0004170BD99
:1006D000C4F10004203C35DA0C341BDC04F11404B2
:1006E000C4F1200500FA05F320FA04F001FA05F23E
:1006F00040EA020001F0004221F0004110EBD3700B
:1007000021FA04F642EB06015EEA430E08BF20EA36
:10071000D37070BDC4F10C04C4F1200500FA04F3D9
:1007200020FA05F001FA04F240EA020001F000416B
:1007300010EBD37041F100015EEA430E08BF20EADE
:10074000D37070BDC4F1200500FA05F24EEA020E26
:1007500020FA04F301FA05F243EA020321FA04F055
:1007600001F0004121FA04F220EA020000EBD3700C
:100770005EEA430E08BF20EAD37070BD94F0000F0C
:100780000FD101F00046400041EB010111F4801F40
:1007900008BF013CF7D041EA060195F0000F18BFF1
:1007A000704703F00046520043EB030313F4801F2D
:1007B00008BF013DF7D043EA0603704794EA0C0FE7
:1007C0000CEA135518BF95EA0C0F0CD050EA4106FD
:1007D00018BF52EA4306D1D181EA030101F000417A
:1007E0004FF0000070BD50EA410606BF10461946A2
:1007F00052EA430619D094EA0C0F02D150EA0136AE
:1008000013D195EA0C0F05D152EA03361CBF1046EE
:1008100019460AD181EA030101F0004141F0FE418D
:1008200041F470014FF0000070BD41F0FE4141F411
:10083000780170BD70B54FF0FF0C4CF4E06C1CEA11
:1008400011541DBF1CEA135594EA0C0F95EA0C0FC6
:1008500000F0A7F8A4EB050481EA030E52EA033581
:100860004FEA013100F088804FEA03334FF08055A2
:1008700045EA131343EA12634FEA022245EA1115CF
:1008800045EA10654FEA00260EF000419D4208BF80
:10089000964244F1FD0404F5407402D25B084FEA2D
:1008A0003202B61A65EB03055B084FEA32024FF4D9
:1008B00080104FF4002CB6EB020E75EB030E22BF36
:1008C000B61A754640EA0C005B084FEA3202B6EBF6
:1008D000020E75EB030E22BFB61A754640EA5C00A5
:1008E0005B084FEA3202B6EB020E75EB030E22BF35
:1008F000B61A754640EA9C005B084FEA3202B6EB36
:10090000020E75EB030E22BFB61A754640EADC00F4
:1009100055EA060E18D04FEA051545EA16754FEA56
:1009200006164FEAC30343EA52734FEAC2025FEA74
:100930001C1CC0D111F4801F0BD141EA00014FF003
:1009400000004FF0004CB6E711F4801F04BF0143D4
:100950000020B4F1FD0C88BFBCF5E06F3FF6AFAEF0
:10096000B5EB030C04BFB6EB020C5FEA500C50F180
:10097000000041EB045170BD0EF0004E4EEA113103
:1009800014EB5C04C2BFD4EB0C0541EA045170BD0A
:1009900041F480114FF0000E013C90E645EA060E4E
:1009A0008DE60CEA135594EA0C0F08BF95EA0C0F7C
:1009B0003FF43BAF94EA0C0F0AD150EA01347FF4C4
:1009C00034AF95EA0C0F7FF425AF104619462CE79B
:1009D00095EA0C0F06D152EA03353FF4FDAE1046FE
:1009E000194622E750EA410618BF52EA43067FF44F
:1009F000C5AE50EA41047FF40DAF52EA43057FF4DF
:100A0000EBAE12E74FF0FF3C06E000BF4FF0010CE9
:100A100002E000BF4FF0010C4DF804CD4FEA410C4D
:100A20007FEA6C5C4FEA430C18BF7FEA6C5C1BD01A
:100A300001B050EA410C0CBF52EA430C91EA030F9B
:100A400002BF90EA020F0020704710F1000F91EAF8
:100A5000030F58BF994208BF90422CBFD8176FEAC6
:100A6000E37040F0010070474FEA410C7FEA6C5C94
:100A700002D150EA013C07D14FEA430C7FEA6C5C9B
:100A8000D6D152EA033CD3D05DF8040B704700BFC7
:100A90008446104662468C461946634600E000BF15
:100AA00001B5FFF7B7FF002848BF10F1000F01BDE7
:100AB0004DF808EDFFF7F4FF0CBF012000205DF8B2
:100AC00008FB00BF4DF808EDFFF7EAFF34BF012037
:100AD00000205DF808FB00BF4DF808EDFFF7E0FFD0
:100AE00094BF012000205DF808FB00BF4DF808ED21
:100AF000FFF7CEFF94BF012000205DF808FB00BF88
:100B00004DF808EDFFF7C4FF34BF012000205DF869
:100B100008FB00BF80F0004002E000BF81F0004110
:100B200042001FBF5FEA410392EA030F7FEA226C93
:100B30007FEA236C6AD04FEA1262D2EB1363C1BF23
:100B4000D218414048404140B8BF5B42192B88BF92
:100B5000704710F0004F40F4000020F07F4018BFB5
:100B6000404211F0004F41F4000121F07F4118BFD5
:100B7000494292EA030F3FD0A2F1010241FA03FC7D
:100B800010EB0C00C3F1200301FA03F100F0004365
:100B900002D5494260EB4000B0F5000F13D3B0F12D
:100BA000807F06D340084FEA310102F10102FE2A9C
:100BB00051D2B1F1004F40EBC25008BF20F001000C
:100BC00040EA03007047490040EB0000013A28BFAB
:100BD000B0F5000FEDD2B0FA80FCACF1080CB2EB2E
:100BE0000C0200FA0CF0AABF00EBC25052421843AC
:100BF000BCBFD0401843704792F0000F81F4000151
:100C000006BF80F400000132013BB5E74FEA410323
:100C10007FEA226C18BF7FEA236C21D092EA030F8F
:100C200004D092F0000F08BF0846704790EA010F09
:100C30001CBF0020704712F07F4F04D1400028BF36
:100C400040F00040704712F100723CBF00F5000018
:100C5000704700F0004343F0FE4040F4000070474E
:100C60007FEA226216BF08467FEA236301464202FA
:100C700006BF5FEA412390EA010F40F4800070470D
:100C80004FF0000304E000BF10F0004348BF4042B3
:100C90005FEA000C08BF704743F0964301464FF0EF
:100CA00000001CE050EA010208BF70474FF000034B
:100CB0000AE000BF50EA010208BF704711F000438C
:100CC00002D5404261EB41015FEA010C02BF84465C
:100CD0000146002043F0B64308BFA3F18053A3F5BB
:100CE0000003BCFA8CF2083AA3EBC25310DB01FA02
:100CF00002FC634400FA02FCC2F12002BCF1004F86
:100D000020FA02F243EB020008BF20F00100704716
:100D100002F1200201FA02FCC2F1200250EA4C006A
:100D200021FA02F243EB020008BF20EADC707047B0
:100D30004FF0FF3C06E000BF4FF0010C02E000BFA7
:100D40004FF0010C4DF804CD4FEA40024FEA410349
:100D50007FEA226C18BF7FEA236C11D001B052EAFF
:100D6000530C18BF90EA010F58BFB2EB030088BFC5
:100D7000C81738BF6FEAE17018BF40F00100704734
:100D80007FEA226C02D15FEA402C05D17FEA236C16
:100D9000E4D15FEA412CE1D05DF8040B704700BF5D
:100DA000844608466146FFE70FB5FFF7C9FF0028F4
:100DB00048BF10F1000F0FBD4DF808EDFFF7F4FF2D
:100DC0000CBF012000205DF808FB00BF4DF808EDC6
:100DD000FFF7EAFF34BF012000205DF808FB00BFE9
:100DE0004DF808EDFFF7E0FF94BF012000205DF80B
:100DF00008FB00BF4DF808EDFFF7D2FF94BF0120BC
:100E000000205DF808FB00BF4DF808EDFFF7C8FFB4
:100E100034BF012000205DF808FB00BF4FEA40020C
:100E2000B2F1FE4F0FD34FF09E03B3EB12620DD918
:100E30004FEA002343F0004310F0004F23FA02F082
:100E400018BF404270474FF00000704712F1610F29
:100E500001D1420205D110F0004008BF6FF0004000
:100E600070474FF00000704753B94AB9002908BFD6
:100E700000281CBF4FF0FF314FF0FF3000F02AB8C0
:100E8000ADF1080C6DE904CE00F077F8DDF804E070
:100E9000DDE9022304B07047D0B50C4B00220646B2
:100EA0000F46FFF79DFB00F017F80446FFF71EFB07
:100EB000074B0022FFF794FB02460B4630463946AB
:100EC000FFF7D6F900F008F82146D0BD0000F03D4C
:100ED0000000F041704700BF4A0011D212F5001225
:100EE00011D20DD56FF47873B3EB62520ED44FEA82
:100EF000C12343F0004343EA505323FA02F0704702
:100F00004FF00000704750EA013002D14FF0FF303F
:100F100070474FF00000704710F8012B11F8013BAB
:100F2000012A28BF9A42F7D0D01A7047034611F819
:100F3000012B03F8012B002AF9D17047034613F85F
:100F4000012B002AFBD1181A0138704738B500224E
:100F5000002304460D46FFF7B5FD28B92046294673
:100F6000BDE83840FFF798BF204605F10041FFF784
:100F700093FF404261EB410138BD2DE9F0478646C1
:100F80008C460846089E154674461946002B40F0CC
:100F9000C2808542B2FA82F245D94AB1C2F1200339
:100FA00000FA02FC2EFA03F3954043EA0C0C94403D
:100FB0004FEA154EA8B2BCFBFEF8230C0EFB18CC72
:100FC00008FB00F943EA0C43994528D9EB1808F1CE
:100FD000FF3704D2994502D9A8F102072B44A3EBAD
:100FE0000903A4B2B3FBFEFC0EFB1C330CFB00F0A8
:100FF00044EA0344A04214D92C190CF1FF3304D263
:10100000A04202D9ACF102032C44241A43EA07405F
:101010001EB1D440002334607360BDE8F0874746BA
:10102000DDE76346F1E792BB431B01214FEA154E12
:10103000AFB2B3FBFEFC200C0EFB1C330CFB07F81D
:1010400040EA0343984562D9EB180CF1FF3004D213
:10105000984502D9ACF102002B44A3EB0803A4B2DB
:10106000B3FBFEFC0EFB1C330CFB07F744EA034406
:10107000A7424ED92C190CF1FF3304D2A74202D952
:10108000ACF102032C44E41B43EA0040C0E7C2F188
:10109000200320FA03F1954090402EFA03F3034316
:1010A0004FEA154EAFB2B1FBFEFC0EFB1C10190C43
:1010B0000CFB07F841EA0041884504FA02F422D902
:1010C00069180CF1FF3004D2884502D9ACF1020056
:1010D0002944A1EB08019BB2B1FBFEFC0EFB1C11E5
:1010E0000CFB07F743EA01439F420ED9EB180CF1C2
:1010F000FF3104D29F4202D9ACF102012B44DB1B29
:1011000041EA004192E76046E3E76146F7E760465F
:10111000A3E76346B7E7834206D916B9002108461C
:101120007BE7C6E900E0F9E7B3FA83F78FB98342BA
:1011300001D3724508D8BEEB020460EB0303012023
:101140009C461EB9002168E73846FAE7C6E9004C1C
:10115000F8E7C7F1200CBB4022FA0CF41C432EFA2E
:101160000CF120FA0CF3B84001434FEA14490EFA8F
:1011700007F5B3FBF9F81FFA84FE09FB18300B0CD6
:1011800008FB0EFA43EA00439A4502FA07F240D9F7
:10119000E31808F1FF3004D29A4502D9A8F1020001
:1011A0002344A3EB0A0389B2B3FBF9F809FB183314
:1011B00008FB0EFE41EA03418E452CD9611808F167
:1011C000FF3304D28E4502D9A8F10203214443EA39
:1011D0000040A0FB0298A1EB0E014145CE464346DC
:1011E00002D306D14D4504D2B9EB020E68EB0403DD
:1011F0000138002EA6D0B5EB0E0261EB030101FA17
:101200000CFC22FA07F34CEA0303F940C6E900316B
:1012100098E74046C5E74346D9E7000000000000D4
:101220002DE980488FB0044644F2010102AF27F057
:1012300001F844F20101204627F002F8032120467C
:1012400003F0E4F84FF0000B0021204627F016F8D9
:101250000021204626F0F8FF0021204626F0A3FFBB
:1012600000224421204626F0A3FEC94A104203462C
:10127000F6D010F4804500F0D7814FF4804300226F
:101280004421204626F07FFF00224C21204626F0F4
:101290008FFEC0F30902182A36D8BE490023204623
:1012A00003F06AF8DFF8EC82BB4988F802B00A2242
:1012B00040462DF04CF88146002840F0B38120468E
:1012C00026F0FBFF6E4688B005468A4602AAB34B5D
:1012D000D161C2E90530042342F8103FB0484B46C3
:1012E0004FF4035104F056F855EA0A03B54614D1F9
:1012F000AC4AAB48012126F006FDAB4B4A464421DF
:10130000204626F040FF9FE718230093A448134689
:101310000121A64A27F028FFC4E7204602F020FA60
:10132000064670B9A24A9E48012126F0ECFC3346DD
:10133000009632463146204626F08EFE9A4B3246C3
:10134000DDE79C4E9C4A9648AE194AF1000A360ADF
:1013500046EA0A663346032126F0D3FC314620468E
:1013600026F0BEFF4FF4FA71204603F039F8DC2175
:10137000204626F069FF914E0521204626F07EFF8B
:101380008F4A337893700F214B46204602F0D0FEEF
:1013900001234A460F21204602F0F8FE894A804880
:1013A0004FF00053032126F0ACFC0321204602F04D
:1013B00011FF421C034605D1834A7948012126F0DA
:1013C000A0FC41E700224421204626F0F1FD704AAE
:1013D00010420346F6D032780132327010F4804663
:1013E00000F019814FF4814300224421204626F069
:1013F000CAFE00224C21204626F0DAFDC0F3090285
:10140000182A00F2F98020466249002302F0B4FF56
:101410006E468AB098F800C098F8010098F802105B
:1014200098F8033002AADFF8A4E153620623C2E968
:1014300005ECC2E9070142F8103F594800234FF478
:10144000435103F0A7FFB5466149524888F802B0FE
:101450000A222CF07CFF0646002840F0D680204669
:1014600026F018FFDFF86C81DFF86CA1C8E90001F5
:10147000204626F022FFCAE9000107F1240157485F
:1014800026F033FF07F12801554826F02EFF07F11B
:101490002C01544826F029FFD7E90909A9EB0000DF
:1014A000FFF724F8D8F80080C7E90601DAF8000051
:1014B000A0EB0800FFF71AF8C7E90401F86AA0EBEF
:1014C0000900FFF713F8C7E90201A8EB0500FFF7D1
:1014D0000DF8D7E90423C7E90001D7E90601FFF7B2
:1014E0007FF8D7E9002380468946D7E90201FFF754
:1014F00077F802460B4640464946FEF7B9FED7E963
:10150000042380468946D7E90601FEF7B3FED7E9F2
:101510000223FEF7AFFED7E90023FEF7ABFE02463B
:101520000B4640464946FFF785F9FFF70FFDFFF7E9
:1015300029F813A3D3E90023FFF752F812A3D3E944
:101540000023FFF74DF8DFF8A08002460B46404627
:10155000264925F0B1FA6D4688B002AA244BC2E9AB
:1015600005384FF400739383224B42F8103F0C4828
:1015700033464FF4E65103F00DFFAD4664E600BF7D
:10158000FA48CE3B1835B13D0000001319DDB141DA
:1015900000D02724264E002008080020991A0300B6
:1015A000D4EC0200B61A0300009005246B1A030065
:1015B000D31A03008C405501071B03003E4E002048
:1015C000F9070020231B0300591B0300891B03009C
:1015D000E1070020C80C0020C00C0020304E002085
:1015E000344E0020384E0020124E0020E31B030032
:1015F000F01B030003000001182300930E4813465C
:1016000001210E4A27F0B0FD1EE70D4A0A480121CC
:1016100026F079FB18E60B4A0748012126F071FBFA
:10162000094B8CE6094AF1E7094A0348012126F0F3
:1016300068FB054B2A4662E6D4EC0200AF1B0300B0
:10164000101C0300411C030000902724741C03009D
:10165000A41C030000000000F0B5002283B0114676
:1016600000AF40F6034007F077FD044600285BD149
:1016700007F0A6F921463A1D41F2030007F06CFD80
:101680000446002850D17A68BE4DD168D1F80100D7
:10169000D1F8051005F1780303C3104606F02AFCC3
:1016A00021463A1D41F2010007F056FD044600288C
:1016B0003AD17868C3685A7885F870205A88A5F8B6
:1016C00072201A7985F87120B3F80720A5F87420E4
:1016D000B3F80530A5F8763006F00CFC21463A1D2B
:1016E00041F2020007F038FD0446E8B9D7F804C01B
:1016F000DCF80C2005F18006531C4132186859684B
:10170000344603C4083393422646F7D1604606F0B8
:10171000F1FB95F87C305A060AD49B4A9B4801217C
:1017200028F0A0F96FF0120420460C37BD46F0BD3A
:101730003A1D002142F2030007F00EFD0446002886
:10174000F2D17B68924EDA68D2F80100D2F8051027
:1017500003C6184606F0CEFB21463A1D42F20200AF
:1017600007F0FAFC04460028DED17C68E368B3F891
:10177000012091B249B1D97839B1A5F80421DA78BC
:10178000114606F128002CF06FFA204606F0B2FB55
:1017900095F87C601F2316F02006A5F8203118D19B
:1017A000022140F66D4007F033F90446002800F0AE
:1017B000DB8002210C3027F0C7FF01230370467045
:1017C0002146324640F66D4007F0C6FC044600282C
:1017D000AAD195F89C301B0712D53A1D002142F280
:1017E0001C0007F0B9FC044600289DD17868C36846
:1017F000D3F80120D3F80530C5E9382306F07AFB89
:1018000095F8D8309E0621D5B91C384607F0A8FDBA
:101810000446002888D1042142F2240007F0F8F899
:101820000646002800F0A08004210C3027F08CFF31
:101830003B8803807B8843802246314642F2240065
:1018400007F08AFC044600287FF46EAF95F8D83084
:101850005C062AD5022142F22E0007F0D9F8044690
:10186000002800F0818002210C3027F06DFFB5F8D0
:10187000B03103802146002242F22E0007F06CFCBA
:10188000044600287FF450AF01463A1D42F22A0078
:1018900007F062FC044600287FF446AF7868C3680E
:1018A0005B7885F8223106F025FB082142F2010021
:1018B00007F0AEF80446002856D008210C3027F077
:1018C00043FF95F8D81011F0400F024640F2022372
:1018D00008BF032388074CBF43F02C0043F00C00E3
:1018E0008B0695F8D93048BF40F0400013F0090F3F
:1018F00018BF40F40060CE0748BF40F01000002140
:1019000028F0D2F82146002242F2010007F024FC20
:10191000044600287FF408AF95F87C30B5F8041130
:10192000980624D4C9B93A1D41F2050007F014FC09
:10193000044600287FF4F8AEB5F804317C684BB952
:10194000E368B3F80120A5F804219A8811481146EC
:101950002CF08AF9204606F0CDFA082140F6014025
:1019600007F056F80446C8B96FF06804DCE60029B1
:10197000F3D1094A0548012128F074F86FF00404F6
:10198000D2E600BFB0000020B632030054EC0200E3
:1019900088010020B8010020DA32030008210C3051
:1019A00027F0D2FE95F8D830D907024629D46048EE
:1019B0004FF0005128F078F82146002240F601400F
:1019C00007F0CAFB044600287FF4AEAE01463A1D7C
:1019D0004FF6014007F0C0FBB8B1564A5648022105
:1019E00028F040F808F06CFC044600287FF49CAE18
:1019F0000AF07EF9044600287FF496AE07F08EF9CF
:101A000092E649A1D1E90001D4E77B68DC68B4F82B
:101A10000130032B96BF494A494952F823106E46BC
:101A20008AB06A464748D3614FF400731384464B2B
:101A3000C2E9050142F8103F3F484FF4135128F026
:101A400024F8B4F80120B4F80330022AB54649D18D
:101A5000052B47D83D4A52F823106E468AB06A4695
:101A60003B48D3614FF400731384374BC2E905013F
:101A700042F8103F4FF413512F4828F006F86379CD
:101A800094F806C0D4F80900032BB54698BF314A34
:101A9000B4F8076094BF52F8231029496C468CB003
:101AA0006A46DFF8B4E0C2E9073C4FF4007393855F
:101AB0002A4BC2E905E1C2E909604FF4735142F8CB
:101AC000103F1D4827F0E1FFA546786806F012FA9E
:101AD0003A1D00214FF6024007F03EFB044618B1C4
:101AE0001F4A7BE71649B8E77868C368B3F8013046
:101AF000A5F8C13006F0FEF995F8C1305B077FF517
:101B000071AF3A1D21464FF6034007F025FB08B19F
:101B1000144A63E77868C3685B7885F8C03006F0DC
:101B2000E9F95FE7AFF300809088000200800020B1
:101B300010880002FD32030054EC020014F402008D
:101B4000A73003002133030004000001FCF302006E
:101B50003A330300ECF302005233030007000001A4
:101B60007F330300A83303002DE9F843D0E9073899
:101B7000856903EB08042F34A5420F46164619D891
:101B8000DFF86C80A3FB080117A3D3E90023FFF75C
:101B90006BF90346601BA0FB080123F07F4412A3EE
:101BA000D3E90023FFF760F920F07F403C6030600C
:101BB000BDE8F883DFF838900BA3D3E90023A5FB39
:101BC0000901FFF751F920F07F440A480A2106A3D2
:101BD000D3E90023E8FB0901FFF746F920F07F4035
:101BE0003C603060BDE8F8838D49FD1A07000000B5
:101BF00000CA9A3B00166BF1002800F03C812DE9E9
:101C0000F04FC74C94F85E2012F001058DB040F003
:101C10006E81607EFF2300F00300A37619F0E6FFDB
:101C200094F85E00420726D4627F94F8293004EBD2
:101C3000820204EB8303166AD3F82C8086B1B8487D
:101C4000314613F0C7FC33785B0605D506210EF04C
:101C500009FE002800F04D81B148414613F0BAFC5E
:101C6000337813F00E0F40F09D8063698BB10C2028
:101C70000DB0BDE8F08F2A4604F15F01C0F3C0004B
:101C80001AF02AF9FF28A076CED0284619F0C8FF0E
:101C9000CAE711F00FF98146002800F0388111F0F1
:101CA00015F98246002800F02F8113F08DFF0546BC
:101CB000002800F04581D0F888004FF6FF73AB8410
:101CC00005F1100B002800F01A8105F17C0205F1E6
:101CD00078010EF0D3FDB5F8763023F4EF6323F0EE
:101CE000070343F48C7343F00103A5F8763095F8AD
:101CF000373003F03F0363F07F0385F8373095F802
:101D00008E3023F0070385F88E3095F83C3023F0B1
:101D10000F03002785F83C304FF4C023C5F8883105
:101D20002846C5E91277C5F88870A5F88C7085F843
:101D300039706F85C5F82E702F65A5F88E71A5F8DE
:101D4000847116F09DF885F85071C5F8549114F01F
:101D5000EFF995F8943160F3020385F8943114F0AB
:101D6000EDF995F8943160F3C50385F8943195F851
:101D7000803167F3410385F880310121284614F052
:101D8000E9FD05F1D40015F053FEC4E9159AC4F835
:101D900014B0C5E902772F702D611BF0B1F800284F
:101DA00040F0A980237E0121C3F342030DF12B00F3
:101DB0008DF82B300EF0FEFE024600285DD098F81C
:101DC0000110304613F0C2F95649574BB4F85C7015
:101DD000A0FB0101C0184FF000054FA3D3E9002379
:101DE00041F10701C4E902552570FFF73DF8606035
:101DF00010F08CF900F109083FB9357805F00F05AE
:101E0000A5F10105B5FA85F56D09207E636865F3D6
:101E1000000010F00105207636D0444A09920020D7
:101E200010600225424A434F04930BAE0193059282
:101E30000321CDE9020006944346009008960797D7
:101E40002A460B9510F064F8314611F0C7F8A0B996
:101E5000394905914AF2D8330093CDE90300CDE921
:101E600001000797089606944346012203210B952B
:101E700010F032F82EE013F0B9B86369002B3FF48C
:101E8000F6AE13F06FF8F2E6284A2C48049303F2FA
:101E900047130694029591211360A7FB000301FBF1
:101EA0000731244B0793224B05934FF6FF7309929A
:101EB000022703930BAE18A3D3E900230B970896D0
:101EC000FEF7D2FF4346CDE900503A4628460321AB
:101ED00010F01EF8314611F081F80028CDD194F8A9
:101EE0005E300120034384F85E3019F061FE00206B
:101EF000BEE61220BCE613F035F80320B8E605F183
:101F00008000C5F88800E0E6484610F0D9FF0720B9
:101F1000AEE600BFAFF300808D49FD1A0700000058
:101F2000402D002000CA9A3B8C49FD1A342D002018
:101F3000C95101006D220100B54C0100002AE7845F
:101F4000504610F0C9FF484610F0BAFFDFE700BF67
:101F500070B5037E8AB0C3F342030D4604460121E7
:101F60000DF1230016468DF823300EF023FE717814
:101F70000246284613F0EAF81F49204AA0FB013127
:101F8000981841F107011AA3D3E90023FEF76CFF6B
:101F900063689842054621D21B1A00220192184A12
:101FA0000293184BA21AA3FB02320221520900230A
:101FB0000A4409AE099114490591CDE9033303217F
:101FC000D2B206960093184610F002F8314611F08E
:101FD00005F838B9656000200AB070BDFBD9C21A97
:101FE0000023DBE70C200AB070BD00BFAFF3008018
:101FF0008D49FD1A0700000000CA9A3B8C49FD1A62
:10200000402D00204FECC44E6D2201000000000066
:102010002DE9F04F06468DB08A46012002219946EF
:1020200015461CF01BFF00220B90022101200EF030
:1020300075FC3B494FF4D07230460EF0FFFBC71CD5
:10204000384B0093FFB201964B463A4601210020DF
:1020500010F018F810F0FD0F0ED0334A3349344811
:1020600040F68F0326F081FB002383F31188BFF332
:102070006F8F0323184602DF2E4CA5FB044526A3D1
:10208000D3E9002320462946FEF7EEFE0896069681
:1020900073680493284B20F07F48A8FB0331E01AB3
:1020A000264B07934FF00702254B059302FB0811BF
:1020B0004FF6FE7365EB010103934FF47A72002330
:1020C000FEF7D2FE4FF0000BCDE90180CDF800A065
:1020D0004B463A46012158460FF0FEFE10F0FD0F28
:1020E0000DD0114A1149124840F6A40326F03DFBD9
:1020F0008BF31188BFF36F8F0323184602DF0B9B0E
:1021000013B90DB0BDE8F08F0122022110460DB0C9
:10211000BDE8F04F0EF002BC8D49FD1A070000002B
:1021200080170020695B010010FF0200D4FF02004D
:1021300084F8020000CA9A3B8D49FD1A095B010030
:10214000FDAF0100000000002DE9F0418468A28C81
:102150004FF6FF739A428CB045D00546204616F0E4
:102160002DF92B7D012B00F02281022B00F015812F
:10217000002B00F0F48094F85061002E40F01081A4
:102180002B8AE78D94F93720CDE90A6673B3002ACC
:10219000C0F25A810023A4F88A31AA7CA38DFD18CD
:1021A00002F003030135012BADB23BD0B4F88E3100
:1021B000002B00F005819D4280F059815B1B9BB292
:1021C0000022062BA4F88E31E28540F2F68094F9C5
:1021D00037309342C0F25081002326E09DF827104B
:1021E000204614F089F80CB0BDE8F081002AB8BF91
:1021F00084F87561A38DAA7CFD1802F003030135F4
:10220000012BADB20ED0B4F88A31002BCED0AB4248
:1022100040F23C815B1BA4F88A31B4F88E31002B6C
:10222000C9D102E00023A4F88E3194F83C2063F376
:10223000820284F83C2029460DF12702204615F041
:102240005BFE7430CAD0B4F888312BB1AB4240F297
:10225000EC805B1BA4F88831B4F884312BB1AB421D
:1022600040F2DA805B1BA4F88431E58D16B9AF42E9
:1022700000F0C9800135ADB294F8D13013F00107F8
:1022800031D1DDE90A130A46002B40F0CC80002949
:1022900000F0BB801F461846A28C24690694CDE945
:1022A000035603329A4D0290CDE90017D2B20121B4
:1022B000002005950FF08CFE10F0FD0F93D010F06C
:1022C000B7FE84428FD0934A934994484FF4AE634B
:1022D00026F04BFA002383F31188BFF36F8F03239B
:1022E000184602DF7FE794F937206FF30003002AD6
:1022F00084F8D1307FDB94F87600C0F3C00100F0A1
:1023000007001AF015FCB4F86E20B4F86C301344D2
:10231000E28B03F23F1313440344814A81480721AF
:10232000E3FB0021104678A3D3E90023FEF79CFDD0
:10233000DDE90A1320F07F4260686260904235BF99
:10234000171A801A002000270A46002BA4D157EA4A
:10235000010CA1D1002858D019461F469CE794F8DB
:102360008E3003F01803182B7FF405AF218DB4F8DD
:1023700086218B1D9A42C4BF931F5B1AB4F8821149
:10238000CCBF9BB21346994200F09C80A4F88231E6
:10239000A4F88431A4F88821EDE63D2684F8506144
:1023A000314620460CB0BDE8F04113F0A5BF002334
:1023B000A4F88831A4F88431DDE60126334634E7F9
:1023C000E28C052A97BF013240F2E2434FF4FA73E0
:1023D00092B203FB02F2B4F88C3142F2107101FBAD
:1023E0000323013BB3FBF2F39BB2A4F88E31002B25
:1023F0007FF4E1AE19E794F87700012100F00700BF
:102400001AF098FB7FE7354636E7002D43D00027CA
:10241000114638463B463FE70023A4F88431204666
:1024200015F00CFE21E7384636E710F095FD014621
:10243000A0B30023A4F88831A38CC3801B230371AD
:10244000006810F05BFD07E794F875316BB3013B52
:1024500084F8753104F1D408404615F02BFBB8B36D
:10246000404615F027FBB8B30023E38592E6082128
:10247000204613F041FFB6E6A7B9D4F878315A08E0
:1024800013F0010336D1C4F87821A5E63E21204699
:1024900013F032FFA7E6002EB9D1A4E60123A4F879
:1024A0008831D9E613460126BFE60AAA0BA92846B9
:1024B000FFF75AFBDDE90A231343CBD0237884F8D6
:1024C0007531C7E7B4F8881100297FF454AE5FE78F
:1024D000FF2013F0D3FEC3E70246D4E91E010EF03D
:1024E000E5F90028C0D194F83C301B0744BF238D88
:1024F000E3854FE642F000421E46C4F878213B4691
:1025000093E600BFAFF300808D49FD1A070000007D
:10251000C55A010010FF02005000030084F80200B9
:102520008C49FD1A00CA9A3B2DE9F04F89B0CDE9DC
:102530000623BDF84C2003780392BDF85020BDF867
:1025400048B0BDF85480068E029104460492002BD8
:1025500000F0C780013EB6B294F87600A6EB0803FF
:102560009DB2C0F3C001D4F80C31059500F007000E
:1025700001931AF0DDFAE78C052F40F2AA8017FBD1
:1025800005F7BFB240F2E249BBF1050F40F295807A
:10259000B4F86E20B4F86C30134403F2D51303443E
:1025A0007B4A7C480721E3FB00214FF09613E3614F
:1025B00096231046238474A3D3E90023FEF754FC2A
:1025C0005D4620F07F4040F2E24303FB05F509FB46
:1025D00007F1B1FBF5F71FFA87FA606005FB0AF017
:1025E000814257465AD2401A6A4967A3D3E9002369
:1025F000A0FB0101FEF738FC019B20F07F499944C4
:10260000638DB4F814211344984494F83730A8EB40
:1026100006084744DB0967856AD15F4A5F4960481D
:1026200040F6581326F0A1F8002787F31188BFF36E
:102630006F8F0323184602DF2E46039B2385049BDE
:10264000A4F88C3129462046A4F826B015F090FC59
:10265000544B218D2B44881DB3FBF5F39AB2904265
:10266000A4F8862104D2C1F57F41FA310A4492B21E
:10267000029BA4F8822113B10023A4F88E314B46AB
:10268000324639462046FFF7C3FC94F8803143F0C8
:10269000010384F8803109B0BDE8F08F091A3D4884
:1026A00039A3D3E90023A1FB0001FEF7DDFB019B69
:1026B00020F07F49A3EB0909A2E74FF096130BF135
:1026C0000105E36196232384ADB20A204FF4FA7327
:1026D0007BE7059B013717FB03F7BFB24FF4FA798D
:1026E00052E7438D1E44B0F814311E44B6B233E7AE
:1026F000226C0599A36C274F02FB1133A3641AF0D7
:102700004FFC064694F87401C0F342001AF04AFCEC
:10271000064405FB06F6244B06F5742606F23F2612
:10272000A3FB0636B60CA36C26640AFB06F06A0807
:102730000344963A934228BF1346C4E91123069BEB
:1027400040F2E24808FB03F323650023A0FB0701E6
:10275000C4F87C310CA3D3E90023FEF785FB134BAF
:10276000079AA9EB0009A3FB0230800A08FB00F0DE
:10277000A0FB070104A3D3E90023FEF775FBAE1B02
:1027800020F07F4759E700BF8D49FD1A0700000080
:102790008C49FD1A00CA9A3B10FF02005CF9020046
:1027A00084F802007FC3C90183DE1B435917B7D1E8
:1027B0002DE9F04F0B6891F81180D3F80090037F5A
:1027C000176895B00446C3F38013D0F81E008DF847
:1027D0003F30B8F1FF0F638C12900E461546ADF8EE
:1027E0004C300DF1480A4DD19AE803001090ADF835
:1027F00044102346E28D53F82EBB9B78AB722A819E
:10280000D4F82A306B60D4F83A30C5F8223005F19C
:10281000220094F83E30037105210EF0CBF995F8B3
:10282000273000F03F0060F3050385F8273094F867
:102830003F30C3F3040285F82820A28EEA820128E3
:1028400003F01F0392B205D91B3303F01F030B2BB8
:1028500000D81ABB0022C9F8082095F82C3062F382
:10286000000385F82C30E56801265846214626717C
:1028700010F038FB28682E71294610F03FFB15B088
:10288000BDE8F08F10AA0DF13F01404618F0C2FEDE
:102890009DF83F3002338DF83F30AAE733680021BE
:1028A0005960E38EEA8A2B8340F2E24303FB02F293
:1028B0000B92638E0D93384615F06EFB94F83F2013
:1028C00097F87411520962F3430187F874111AF0F2
:1028D00067FB0C9097F87401C0F342001AF062FB9A
:1028E0000C9A0B99104401FB00F0BB4A00F57420D0
:1028F00000F23F20A2FB00204A08800C963A286391
:102900006A6394F8312040F2E24302FB03F36B6404
:10291000238FA7F88C31384615F02AFB0B99AF4B63
:10292000AF4AC7F890210B44B3FBF1F39AB2A7F872
:102930008621298B881D824204DDC1F57F41FA3151
:102940000A4492B2A7F882216B68C7F8783123460F
:1029500013F81C2FC2F340120C92DA0700F1FA8030
:102960004FF48073A38399F81A0019F0C9FB04F19E
:102970002B03002800F0EA80626AC4F82B20228D25
:102980009A80B8F1FF0F00F00881BAF8043012986D
:10299000A4F82930C4F825009DF83F30A37710989B
:1029A000BDF84430C4F81F00A4F82330EB8A6386D6
:1029B0002B8BA386B7F88C31E38697F87431C3F379
:1029C000420384F83830384613F00AF9A882E080D0
:1029D00021465846746810F085FAAB8AE3801C23C0
:1029E00023710C9BD4F80080002B40F0CA800C9B14
:1029F00023772146404610F081FA95F86700B5F834
:102A00005C80B5F85E40012100F007001AF092F8F2
:102A1000444404F2D51403198046724C72480721CD
:102A2000E3FB04014FF09613C5E9033368A3D3E930
:102A30000023FEF719FA20F07F4078600B9B2D6B86
:102A40000D995D1BF36840F2E24202FB013303F291
:102A5000B3410022A1EB0808012002210DF05EFF26
:102A6000484612F073FD0246A8FB0401144658A321
:102A7000D3E90023FEF7F8F9CDF80490B3685B4979
:102A8000009120F07F4AA21C3A3BD2B2534401216C
:102A900000200FF0F7FA012800F0858099F818302F
:102AA000DB0766D4384613F09BF84E4BA5FB039822
:102AB000044647A3D3E9002348464146FEF7D4F92C
:102AC0004B4BB6684B4A079220F07F45A5FB03317C
:102AD000B9EB0300484B059340F2E31306970893C4
:102AE0007B684FF0000BCDE903B34FF0070303FB06
:102AF000051168EB01014FF47A720023FEF7B4F977
:102B000003343A3EE4B2CDE90150CDF800A033469B
:102B10002246012158460FF0DFF910F0FD0F0DD0CD
:102B2000364A374937484FF4F27325F01EFE8BF3CF
:102B30001188BFF36F8F0323184602DF01220221A1
:102B400010460DF0EBFE15B0BDE8F08FC4F82B0079
:102B5000988016E7294A2C492A48FD2325F005FECE
:102B6000002383F31188BFF36F8F0323184602DF1E
:102B7000F6E6002301220093184611460FF040FAB2
:102B800090E795F8273043F0400385F82730281D5B
:102B900018F04AFB012328852AE70022C4F82520E3
:102BA000A4F82920F8E610F043FA81453FF476AF07
:102BB000124A1649134840F28B2325F0D6FD002314
:102BC00083F31188BFF36F8F0323184602DF65E795
:102BD0008D49FD1A0700000083DE1B437FC3C90136
:102BE000404B4C0000CA9A3B8C49FD1ABDAF010016
:102BF0008D49FD1A89AF0100FDAF010044050300B6
:102C0000D4FF020084F8020084FC0200A005030047
:102C1000F0B5C468636883B00546002B64D11BF02F
:102C20008DFC00201BF0B0FC002108461BF09EFC30
:102C30000022252108201BF0DBFC474B019301A853
:102C40001BF0C2FC454940F25B601BF07DFD237A1E
:102C5000C3F3420262F30613204623721AF0BEFB4E
:102C600019F02AFB58BB637A9B071FD127682E688F
:102C7000384619F005FF06446A6806F1090101208B
:102C80001BF0AAFE1BF068FF204612F06BFC811CB3
:102C90003246C9B2384619F0F5FE054678BB2046E3
:102CA00019F096FE88B9002003B0F0BD012018F09D
:102CB00073FF4178821C00781BF02EFED6E7607A05
:102CC00010F0030018BF0120F1E7254A25492648E6
:102CD00040F2294325F049FD85F31188BFF36F8F3A
:102CE0000323184602DFDEE793F82C309A0796D0CC
:102CF0001E4821461BF0E0FB1BF0C6FCD3E7184A38
:102D00001B49194840F2114325F02FFD194B0721AB
:102D1000A5FB030301FB05310DA3D3E90023FEF757
:102D2000A3F815490246154825F01FFD002585F337
:102D30001188BFF36F8F0323184602DF1048214626
:102D40001BF0BAFB1BF0A0FC6FF08B00ACE700BFE0
:102D500000CA9A3B00000000D6BE898E555555002A
:102D6000C009030058FA020084F8020015CC0100E3
:102D70005CF902008D49FD1A700A0300440A030041
:102D8000B1CF0100000000002DE9F041C468A28A23
:102D90004FF6FF739A4282B000F0DF8005461AF0CA
:102DA00061FE2B89628B208CA3831A4492B210445B
:102DB00094F82730E28380B2411C21845E064FF0F4
:102DC0000001618304F1220100F1A18003F03F00C2
:102DD0000B4694F82810009004F1290018F0DCF953
:102DE0000646D4E90C31A28B02FB0333A26B1344D9
:102DF000E26B8B4294BFD21852188A4228BF0A460F
:102E0000E263616C226C94F867301144616494F859
:102E10007E2094F82C10C3F3020363F3061112F022
:102E200004024FF0000384F82C10A363236478D0CD
:102E30001BF084FB00201BF0A7FB201D1BF0C4FB34
:102E40002389A17A40F25B6043EA01411BF07CFCDC
:102E5000304619F029FE214659481BF02DFBA08968
:102E60001BF0AEFD94F8662094F86700C2F3C0032F
:102E7000002102F0070200F007001BF0CBFC204607
:102E80001AF09AFE27682E68384619F0F9FD0644B4
:102E90006A6806F1090100201BF09EFD80461BF0C8
:102EA0002FFE00201BF046FEE36B94F8670003F151
:102EB0002F02636C00F00700012103EB42051BF0B9
:102EC000D5FB4544054494F8670000F0070002284C
:102ED00025D004280CBF4FF4BC73282301211D44C6
:102EE0001BF0C6FB28441BF0FDFDA18A03313246CE
:102EF000C9B2384619F0C6FD0546002834D120462F
:102F000019F066FDD0B9002002B0BDE8F0810A4694
:102F100003F03F03218D18F08BF9064661E7182373
:102F2000DCE7D4E91A010DF0C1FC002880D194F847
:102F30007E3043F0040384F87E3079E7214A224949
:102F400022484FF4B07325F010FC85F31188BFF3CD
:102F50006F8F0323184602DFD5E71D4821461BF07B
:102F6000ABFA1BF091FBCEE7164A1A4917484FF40B
:102F7000AB7325F0FAFB184B0721A5FB030301FBFC
:102F800005310DA3D3E90023FDF76EFF1349024677
:102F9000134825F0EAFB002585F31188BFF36F8FF6
:102FA0000323184602DF0F4821461BF085FA1BF069
:102FB0006BFB6FF08B00A7E700CA9A3B0000000094
:102FC00031DE0100FC0A030058FA020084F8020016
:102FD00015CC01005CF902008D49FD1A500B03006D
:102FE000440A0300F1CB010007B50B4604480092E8
:102FF0000321044A26F0B8F803B05DF804FB00BFD3
:10300000D4EC02004E19030080B50D4A0D4B00AF01
:103010008AB0012918BF13466A460B48D161C2E93C
:1030200005034FF400731384084B42F8103F08481F
:1030300000234FF4135102F0ADF9BD4680BD00BF2F
:103040007A1903006F1903008719030004000001B7
:10305000D4EC020010B5074C0748084A0B46032180
:1030600024F04FFE206818B108F052F900232360C5
:1030700010BD00BF581C0020D4EC0200B0190300A2
:1030800008B527F0A3F8044B044A1860BDE80840CF
:103090000348032124F037BE581C0020CD1903003B
:1030A000D4EC02000B4621B1034A0448012124F06C
:1030B00028BEFFF7E5BF00BFD7190300D4EC02001C
:1030C0002DE9F04FDFF8F4B089B04FF07E5A00AF31
:1030D000DBF8000000286AD027F078F8384D064663
:1030E0002868FDF725FAE84688B06C462246354B3D
:1030F00063614FF00409C4E9060142F8109F3248A9
:103100007A6000234FF4035102F044F9C546A54606
:103110002E4B63612E4BA3614FF40073A3832D4BA1
:1031200023612D497A6828482B4602F033F918228A
:10313000C546002107F108002BF001F9274BA7F83D
:10314000149007F108013046C7E903350BF08CF9FC
:103150000446C8B10346224A1B48012124F0D1FD90
:1031600051462868FDF7DCFC1E490446FDF74CFE7D
:1031700000B1544630462C6008F0CAF84FF42030B5
:10318000002124F0C2FDA3E72868FDF7D1F988B03B
:103190006A46154B5361C2E9060142F8109F0A487E
:1031A00023464FF4035102F0F5F8C546D8E70F4A1D
:1031B0000548032124F0A7FDE0E700BF581C0020CC
:1031C000B8020020F6190300D4EC0200FD30030021
:1031D000141A030003000001C01C4000ACF0020000
:1031E000231A03000000C8423A1A0300591A0300C8
:1031F00008B530B9BDE80840034A0448012124F06D
:1032000082BDFEF70DF800BFD01C0300D4EC020015
:10321000F0B5894A89488FB0032124F074FD00205D
:10322000089002F0B3FF034650B9854C089B73B178
:10323000002006F0DFF80446B0B1824A034600E001
:10324000814A7E48012124F05CFD0FB0F0BDA368E7
:103250009B6C1BB108AA04212046984740F6CD403C
:10326000002124F052FDE1E7784A7448032124F05C
:103270004AFD77480AF0F0FC1422214609A82BF0F9
:103280005EF80922A023CDE90A23F0230C937149AB
:1032900000942346022209A807F074FA034680B17D
:1032A0006D4A6648012124F02CFD6C486C4C21F0DD
:1032B00033FF206058B96B4A6048012124F023FD98
:1032C000C3E7694A5D48032124F01DFDEDE7674827
:1032D00060602AF0E8FA08B9654AEDE76548654D8F
:1032E000214624F081FD034608B1634AA9E7284638
:1032F00000F02AF9034620B1604A5048012124F029
:1033000000FD5F4A4D48032124F0FDFC594824F09C
:1033100012FF034620B1594A4848012124F0F1FC2C
:103320004220002124F0F1FC524C204624F05CFEA7
:103330000028FAD0534A4148032124F0E4FC4D48C8
:10334000002100F079FA013005D14F4A3B480121B4
:1033500024F0D9FCFEE739484C4A032124F0D3FC81
:103360004B49444800F032FC88B14A4A33484A4D40
:10337000324C012124F0C7FC20462A46012124F0CA
:10338000C2FC4FF40040002124F0BFFCF4E7434AA4
:103390002A48032124F0B7FC4149364800F0A2FE38
:1033A000404A2648032124F0AEFC324809A900F027
:1033B000A9F8034600283BD03B4A01211F4824F0CE
:1033C000A0FC3A4A1D48032124F09DFC384A1B48C2
:1033D000032124F098FC0026002700240523CDE9D2
:1033E0000334CDE90667334B33490094CDE90144FA
:1033F0004FF48062314822F0EDFC314A0F4803213E
:1034000024F081FC0323CDE90243CDE90667CDE931
:1034100000542C4B2C492D4804944FF4806222F028
:10342000D9FC4FF0FF304FF0FF3124F06EFCF8E78D
:10343000099B274A0321C1E7F51C0300D4EC0200D5
:103440002CE80200271D03000E1D0300461D03008B
:10345000BC02002088F002005C1D0300951D0300E3
:10346000FC0200209B1D0300811D03000CE80200EC
:10347000B61D03005C1C0020CD1D0300E51D0300EC
:10348000051E03001D1E03002B1E0300371E030034
:10349000C0070020471E0300551E0300631E0300E3
:1034A000F00200206F1E03007E1E0300B21E030008
:1034B000C21E0300C130000000510020C00B0020DC
:1034C000DA1E0300F131000040550020400C0020BE
:1034D000A01E03000A480022D3B2082113F0800F77
:1034E0004FEA430318BF83F031030139DBB2F5D152
:1034F0000132B2F5807F00F8013BEDD1704700BF8B
:103500003F4E002030B50C4685B00546B8B1B1B18C
:103510000C4BD3F80300DB798DF8043000230090C6
:1035200002938DF80C3002AA05236946284624F040
:1035300013FC10B9DDF80930236005B030BD6FF021
:103540001500FAE7A4ED020010B5044610B96FF0BB
:10355000150010BD0368002BF9D0186824F0F3FBA8
:103560000028F4D02368034ADA604FF480721A828C
:103570000020EEE700127A0010B5044610B96FF093
:10358000150010BD0368002BF9D0186824F0DBFB90
:103590000028F4D02368034ADA604FF480721A825C
:1035A0000020EEE780841E0030B5064D044600235F
:1035B00010468B4200DB30BDE25C42400133A85C28
:1035C000F7E700BF3F4E00202DE9F0431E4685B0CF
:1035D0000A44B6F5445FC2F30445DDF83080BDF817
:1035E000343007460C4602F07F0201D326F026F85D
:1035F00083F40040032801D9002BF7D1910041EA60
:10360000452143EA010503F0030C2D0A4CEA0101B0
:103610008DF80C508DF80D104EB9B3F5004FE5D173
:10362000640064F07E048DF80C4001240BE012BBB2
:10363000B3F5004FF9D07BB345F040058DF80C5041
:10364000032852D80224294B1B7DE3B100222146D6
:1036500003A8FFF7A9FF314602464046FFF7A4FF43
:103660003346CDE9008003AA2146384624F02DFCDC
:1036700005B0BDE8F08345F040058DF80C50002BF7
:10368000DED1022509E0CDF80080334603AA2146A9
:10369000384624F049FCEBE70125DFF85090CDF8DF
:1036A0000080334603AA2946384624F0E0FB99F807
:1036B0001430022BDCD1182CDAD00022294603A8C2
:1036C000FFF772FF314602464046FFF76DFF0022CA
:1036D00004461821384624F08FFC8442C8D0D9F81B
:1036E0002430002BC4D09847C2E7FEE76C1E0020B0
:1036F00013B54FF4C073009309494FF0FF33002214
:10370000044624F039FC074B07491B7A009300223A
:103710004FF6E073204624F02FFC02B010BD00BF2E
:1037200008000B006C1E00201F00110038B501229C
:1037300004460D46082124F03EFB2A46042120467B
:1037400024F039FB02220821204624F034FB2046D5
:103750000249BDE83840002224F02ABC10000B00CA
:103760002DE9FF41054620B96FF0150004B0BDE812
:10377000F0810368002BF7D0186824F0E4FA0028E1
:10378000F2D0214B98681B7B8DF804300023009009
:1037900002938DF80C302AF0D2FC4FF47A77A0FB1C
:1037A000070607FB0166C40B44EA4644B846F60B1D
:1037B0002AF0C5FCA0FB080307FB0131C30B43EA59
:1037C00041431B1B4FEAD13161EB0601B3F5FA6FA0
:1037D00071F1000102DB4FF0FF30C7E7052302AAB9
:1037E0006946284624F0B8FA18B14FF0FF30A860B7
:1037F000BCE7DDF80930AB60DB07B7D4212000213E
:1038000024F0A8FAD4E700BFA4ED0200052907B50B
:103810000AD14023009307496FF40053002224F09B
:103820000BFC03B05DF804FB0929FAD14FF40153F6
:10383000F0E700BF08000B002DE9F041374C0023F2
:1038400002220E460421C4E90A33C4E90C33C4E958
:103850000E330546E3732282A3826381FFF766FF7E
:10386000052180462846FFF761FF0A2107462846C2
:10387000FFF75CFFC0F304402072B8F1000F04D0E2
:103880001FB110B12846FFF733FF20212846FFF76C
:103890004DFF234BC71A78427841F306607204D576
:1038A00006212846FFF742FF2060B10604D5072114
:1038B0002846FFF73BFF6060720604D508212846C2
:1038C000FFF734FFA072330604D509212846FFF71D
:1038D0002DFFE0720023C4E9063384F82030E37A38
:1038E0000BB98523E372A37A0BB97423A3721F214A
:1038F0002846FFF71BFF1E2160732846FFF716FFBF
:1039000010F07F0308BF2E2328460649A373002228
:1039100024F0ACFB0020BDE8F08100BF6C1E00204D
:103920004002001014000900012937B504460D4675
:103930000AD124F054FA0095FF232A461E49204656
:1039400024F067FB03B030BD02291ED1032300938E
:103950001A49FF23002224F05CFB4FF4000300937C
:10396000204615496FF48073002224F065FB002384
:103970000093204610497F232A4624F04AFB204624
:1039800003B0BDE8304024F02ABA0123009300229E
:10399000FF232B2124F03DFB4FF400030093002272
:1039A0006FF480730449204624F046FB0023009303
:1039B00002227F23C2E700BF0800110004001100AB
:1039C00073B5284B2849294E0022044624F0DBFB1E
:1039D000102300932449FF230022204624F019FBE2
:1039E0000325142022F092FC00223146204624F0C8
:1039F00003FB012833D0013D15F0FF05F1D101256E
:103A000000231A462046184924F030FB2046174967
:103A10000123002224F02AFB012300932046FF23E8
:103A20001149022224F0F5FA11490022204624F01F
:103A3000BFFA6FF0604398420E494FF000022046F3
:103A400014BF6D424FF0FF3524F0B2FA6FF06043BF
:103A5000984214BF28464FF0FF3002B070BD0025D9
:103A6000CEE700BF010002000C00040020000400AB
:103A7000140004001C000400012973B5044604D09E
:103A800002B0BDE87040FFF79BBF0E49002224F052
:103A90009FFA40F205130B49009306464FF6FF7359
:103AA0000022204624F068FA2046FFF789FF002212
:103AB0000546044900922046334624F05DFA284624
:103AC00002B070BD4800070005292DE9F047044603
:103AD00040D1264D264E274FDFF89C80DFF89C9082
:103AE000DFF89CA0274B28492046002224F04BFBFE
:103AF000534620462549002224F045FB4B462046EC
:103B00002349002224F03FFB43462046214900225E
:103B100024F039FB3B4620461F49002224F033FBAA
:103B2000334620461D49002224F02DFB2B4620461B
:103B30001B49002224F027FB20461A4B1A49002279
:103B400024F021FB2046194B1949BDE8F04700221B
:103B500024F019BB174D184FDFF86080DFF8609034
:103B6000DFF860A0184B2E46BDE700BFF5CF01007F
:103B7000B5CF010036CF01007EC70100BEC60100EF
:103B80003EC40100FDC00100380003003C000300FA
:103B90004000030044000300480003004C00030001
:103BA00050000300400200101C00030089A46D1B9C
:103BB00020000300B5AF02007DAF02003EAF02005F
:103BC000FEA5020036AC0200FEA802002DE9F04F6F
:103BD0000B7991F80080182B85B004460D4600F251
:103BE0001E8191F803B0BBF1180F94BF4FF0000B8A
:103BF0004FF0010BEA796B78C54E511E013B4A42EA
:103C0000DBB24A41062B9CBFC24931F91390338A7B
:103C100023F0E0033382697BEB79337301F1020116
:103C20004FF0010707FA01F71FFA87FA4FEACA0AAD
:103C30004FEA0212504688BF4FF480790392FDF795
:103C40001FF8B549FCF75CFAFDF7E8F87082297BAC
:103C500071752B7A039A5B01090301F4304103F07B
:103C600020030B43A97B43EA014313430093002243
:103C7000AA4B1021204624F0DFF9BBF1000F00F021
:103C8000D180338AA64943F0600333824FF4406306
:103C9000009300226FF4C053204624F0CDF9A149CF
:103CA00040F206330022204624F06DFA00231A4623
:103CB0004FF00E11204624F066FA9B4B9B490022E0
:103CC000204624F060FA9A497D230022204624F001
:103CD000CDF9AB7800930022FC234FF4C02120469D
:103CE00024F097F97B1E4FF400310022DBB220460E
:103CF00024F0BCF96B78072B0CBF0821002120466B
:103D000024F04CFA2B7B8B4903F00303032B0CBFED
:103D1000894B8A4B0022204624F035FA884900223C
:103D2000204624F045F92B79EA7885491B02D20018
:103D3000D2B203F4F85313436A7920F4FF505200CF
:103D400020F01F00B8F1090F02F0060208BF40F092
:103D50000100134303430022204624F014FA6B7839
:103D6000AA791B0343EA8223009300226FF4744371
:103D70002421204624F060F96B890BB981236B81E3
:103D80006B8902224FF4C021204624F0F1F9B8F1EA
:103D9000090F40F083806B4B6B490022204624F0D2
:103DA000F2F940F63C7300224FF41021204624F033
:103DB000DFF9664B66490022204624F0E4F96549A4
:103DC00014230122204624F051F963490E230222D4
:103DD000204624F04BF9614981230022204624F03B
:103DE00045F9022300224421204624F03FF9012115
:103DF0002046FFF799FD0627142022F087FA0022BB
:103E00004421204624F0F8F8830774D4013F17F0CA
:103E1000FF07F1D14FF0FF3005B0BDE8F08F4FF054
:103E2000010BE7E62B7B23B36A7B4D4B3F4933F80D
:103E30001220AB7B012B9BBF4FF43563534313011F
:103E40009A0C8CBFC3F30A03C3F3CA1303F5806350
:103E500088BFD209B3F5006F28BF013292B202F0D9
:103E60007F0200924FF6807302222046D14424F054
:103E700083F8B9F1FF0FC8BF338A2949C5BF43F0A2
:103E8000200333824FF4A0534FF480630093002249
:103E90006FF4C053204624F0CFF81AE72046314B88
:103EA0002949002224F06FF941F63C7300224FF4B7
:103EB0001021204624F05CF981E7737A012B15D19B
:103EC0004FFA88F12046FFF7A1FC4FF4C843009356
:103ED000254948F2FF130022204624F04DF8012125
:103EE000204605B0BDE8F04FFFF7C6BD414620466D
:103EF000FFF7EAFDE9E72B79093B0F2BDDD900221B
:103F000019490092FE23204624F083F8E7E700BF1A
:103F10006C1E0020201803006666663FCF4FFCFF32
:103F200008000B000C000E000A5A0C0012000E00D4
:103F300016000E000C000600CC355FAF4C585FAF8A
:103F4000140001003400011C1C00070033A8B50850
:103F500010000700500007001800070008000900C3
:103F60002E1803003411071C180003000023024917
:103F70001A4624F008B900BF04000700002370B5FA
:103F80001A460D460A49044624F0FDF800231A4655
:103F90004FF4E021204624F0F6F845B120460549CB
:103FA000BDE870404FF0E053002224F0ECB870BD43
:103FB0004800070014000700052907B50AD1074B80
:103FC000009307494FF0FF33002224F035F803B087
:103FD0005DF804FB0929FAD1024BF1E7003C00022D
:103FE00004000700001C000273B54FF008230E46C2
:103FF00015461549009300224FF0FF33044624F084
:104000001BF84FF060131049009300224FF0FF336C
:10401000204624F011F8052E0CBF0C4B0C4B0093DE
:1040200000224FF0FF334FF4E021204624F004F843
:1040300045B1084B08490022204602B0BDE8704057
:1040400024F0A1B802B070BD48000700003C000297
:10405000001C0002001101011400070073B50446A2
:104060000E461546042141F6220223F0A4FE00224A
:1040700029462046FFF7B8FF29462046FFF79CFF58
:10408000C6F30B031449154E0022204624F070F8A5
:10409000032300931149FF230022204623F0B9FF98
:1040A00000223146204623F0A7FF10F00105F7D18A
:1040B0002046FFF75BFF29462046FFF75FFF2046BB
:1040C00023F08DFE06492A46204623F095FF00F096
:1040D0003F0002B070BD00BF1C00080010000800C7
:1040E0001C00070070B50A8905460C465AB90B78C2
:1040F0000C4923F0BBFF63680B4928460022BDE84A
:10410000704024F040B80022084923F075FF10F0F9
:10411000010F218914BF092205222846FFF79EFFBF
:10412000E9E700BF1C0007000C00010014000100BB
:10413000F7B51C460B44B3F5806F06460D4617468F
:104140001DDA7F2C09D800920B4622464FF4A011AD
:1041500023F082FF002003B0F0BD0A49142300229F
:1041600024F011F8084923460022304624F00BF8C9
:1041700000972B4600224FF4E8113046E8E74FF055
:10418000FF30E8E704001F0008001F007F2A13B576
:10419000044641EAC32109D841EA024100910C4B8F
:1041A0000022242123F048FF02B010BD803241EAF2
:1041B00002410091064B0022242123F03DFF002202
:1041C0004FF40021204602B0BDE8104023F014BF98
:1041D00000F400FCF7B50A46044638B9584A594875
:1041E000012124F0AEFF4FF0FF307AE011F01D07FF
:1041F00001F002057FD011F0010639D05249514833
:1042000023F0A3FD7DB3002300931A460D21204621
:1042100023F022FF03224421204623F0EDFE4B49E8
:1042200005460246474823F090FD15F020055AD177
:1042300047492A46204623F0BBFE46490646024629
:10424000404823F082FDB6F5502F44D1424A3D4804
:10425000012124F076FF00952B461A461946204688
:1042600023F0FAFEBFE700952B462A460321CEE74E
:1042700011F008070ED03949324823F066FD25B108
:104280000096334632460F21C1E700952B462A4659
:104290000721BCE711F010060ED03149294823F060
:1042A00054FD25B100973B463A460E21AFE70095F5
:1042B0002B462A460521AAE72A49224823F045FD34
:1042C00025B10096334632461021A0E700952B46D3
:1042D0002A4609219BE7244A1A48032124F031FF8A
:1042E000002003B0F0BD214A1648012124F029FF27
:1042F00000230093B1E711F0200611D01C491148AA
:1043000023F023FD3DB100973B463A46112120465C
:1043100023F0A2FEE4E700952B462A460B21F6E7A0
:104320001449084823F011FD25B100963346324662
:104330000C21ECE700952B462A460121E7E700BF58
:10434000261F03009CEC0200511F03003C200300C9
:1043500030000F005F20030081200300801F030056
:10436000BE1F0300FC1F0300B2200300D82003007F
:104370000B21030036210300F7B51C46154BDB7BF0
:10438000022B04EB02030F4614BF4FF490114FF4BD
:104390009811B3F5806F0646154606DA7F2C06D8CD
:1043A00013460097224623F0FAFD03B0F0BD0B0C34
:1043B0000022094923F0E7FE08492346002230463F
:1043C00023F0E1FE00972B4600224FF4E81130461F
:1043D000E9E700BF6C1E002004001F0008001F005A
:1043E00070B5094E0C4600223146054623F0E0FD2B
:1043F000000D0005C4F31303034331462846002291
:10440000BDE8704023F0BFBE0800010070B5002277
:104410000C464FF4A021054623F0CAFD0A4B034089
:10442000E00748BF43F48023A10748BF43F410438B
:104430006207284648BF43F01203BDE870400022DF
:104440004FF4A02123F09FBEC00FE0FF07B50A4B39
:10445000DA7B009105234AB1022A09D104224FF4E4
:10446000F01123F09CFD03B05DF804FB0349F8E76D
:1044700000226421F5E700BF6C1E00200400180034
:104480002DE9F04F91B08407009302F004030293EA
:10449000C2F3C20303F10103DDF86880039205460D
:1044A0000E46059340F0BA81041D30B1072909D8A2
:1044B0006FF01B0011B0BDE8F08F01F00706344427
:1044C000C6F10806009B4FF00009591E4FF0040A80
:1044D0004FF0FF330193CDF810904F46CB46534633
:1044E0000DB1009A22600598002800F3E8809848F2
:1044F000009A824203D397488242C0F0E080039A38
:10450000A4EB050E92074FEA9E0000F103810F2FE6
:1045100000F2B180002D00F0058107F140020DEBA3
:10452000020C019A0CF8200C0CF8102C04980130A5
:104530000490E7E07A285DD84B280ED8472859D850
:1045400029282DD8252852D054D820287AD023388D
:10455000D0F1000B4BEB000B74E04C382E2849D8FF
:10456000DFE800F07048484848484848484848480C
:104570004B484848484848484859484B4B5959596E
:10458000704B6D487048184B184848827F4B48481C
:104590004B487F0000204FF0000B4FF0040A38E03A
:1045A0002A38C0B2012202FA00F010EA0E0F49D1F7
:1045B00010F0625C2FD110EA020B43D06046013C40
:1045C0005444B4FBFAF40AFB04F4002D61D0A3EBCD
:1045D000050CA444B4453FF66BAF002868D1042B0A
:1045E00047D158F8043B2360043404232AE0019A9D
:1045F000013A01924FF0000B24E011F8010C6C28F5
:1046000034D111F8023C00206C2B8346C5D14FF009
:10461000080A5346D3E708F1070828F007080734CB
:10462000F8E802AB24F0070435B106982044B04204
:104630003FF63EAFC4E900AB08344FF0000B4FF03B
:10464000080A534611F8010F002878D0BBF1000F7B
:104650007FF470AF2528F5D1019B013301934FF012
:10466000010B4FF0040AECE7584694E7002083461C
:10467000A5E7082B02D06FF015001BE708F107082B
:1046800028F00708F8E80223C4E9002308340823C7
:10469000D8E768B9042B02D108F10408A4E7082B75
:1046A000E9D108F1070828F0070808F10808EDE744
:1046B000059A013A059258F8042B009210E7039AE4
:1046C000900720D5A4EB050E4FEA9E004FF0010C99
:1046D000BEF5007FCFD20F2FCDD8F5B107F1400244
:1046E0000DEB020EC0B2019A0EF8200C0EF8102C41
:1046F000BCF1000F3FF41AAF60F07F000EF8200C01
:1047000009F101090137C5F10802043406924FF698
:10471000DA7E97E74FF0000CDAE7BCF1000F01D02A
:104720000136EFE7029802360028EBD10098CDE978
:104730000631FCF703FCDDE906310644E2E7631BC2
:10474000B3F5806F97D23DB9A6F10804E018B1E641
:104750000CE7020018520300029A28609B082B7095
:104760009DF81030C2B1EB7085F80290B9F1000FDE
:1047700005D008A80022C5F1010C97420ED1C5F161
:1047800001030DF120084FF0000A01930DF1300BE9
:10479000574512D1601B8DE66B70E5E710F8013BC1
:1047A000190608D50CEB040EB64503F07F033FF65F
:1047B0007FAE04F8013B0132DFE7B9F1000F03D00F
:1047C00098F90020002A17DB029BD3B11AF80B20BE
:1047D00004F8012B0022019B18191044B0423FF647
:1047E00067AE98F8000004F8010B00990392204688
:1047F00029F07DFD039A14440AF1010A08F1010829
:10480000C6E798F8002055F822300093029B45F83F
:1048100022300098FCF792FB421CDCE76FF00D00A1
:1048200048E600BF2DE9F04F97B000AF90F802A026
:10483000D7F880B03B62CBF3C0030446FA62BB6199
:10484000894641B9457800780AEB800020444D45FF
:1048500017D8A0EB0409E378FB61BAF1000F02D08E
:104860001BF0010F16D1FB6953BBFB6A1BB13A6AFF
:104870004946204698474D4628465C37BD46BDE828
:10488000F08F461C3046FCF759FB0130304409F1EB
:104890000109DCE7237862687A62FA6A9900796133
:1048A00004EB8301002A40F000814D460E4601EBE7
:1048B0000A094FF000084E454CD101EB0A0610E002
:1048C0001BF0020FD1D023789A007A6162687A6275
:1048D000FA6A04EB8301002A77D14D4601EB0A0600
:1048E00090461BF0050F0CBF02230123FB62FB69FE
:1048F00006EB430A0BF00203BB625645BCD016F828
:10490000021B16F8013C54F82390994B994502D3A9
:10491000984B994536D3BB69002B40D0786A23F079
:10492000EEFE00283BD0E9468AB06A46924B5361BE
:104930007B6AC2E906314FF4007313848F4B42F84F
:10494000103F8F4800234FF4125100F023FD023D29
:10495000CD46D2E716F8013BF96254F82300FCF784
:10496000EDFAD7F88430F96A01304BB1D7F88830C6
:1049700098453EBFD7F8843023F8180008F10108A5
:10498000054498E7BB6923B1786A23F0B8FE002894
:10499000C9D11BF0010F05D1FB6AED1AADE7BB6A67
:1049A000002BAAD04846FCF7C9FAD7F8843053B197
:1049B000D7F8883098453FBFD7F88420431C22F8A9
:1049C000183008F10108054497E7BAF1000F72D0DA
:1049D0001BF0040672D0D046002607F1480052466C
:1049E0003B61B96229F083FCB96A3B6901EB0A02B9
:1049F000BA62FA69F9695200FA60BA6A02EB4102D6
:104A00003A610BF00202BA603A69B96A8A4257D138
:104A100062787A621BF0020F32440CBF4FEA5801F1
:104A200000211BF0010FD2B240F09F801BF0040F59
:104A300014BF40460020BB616270A070E1703A6A0A
:104A40007969FB6A20469847051EFFF615AFBB69DA
:104A500023707B6A6370FB69E37041463A6AFB6AC4
:104A600084F802A007F148009847B0F10008C0F2AE
:104A7000BB807B693A6AA9EB0A01C91AFB68C91AAB
:104A8000D7E90A0398470028C0F2B080A84408EB91
:104A900000054FF0000B07F1380AB34572D300212F
:104AA0003A6AFB6A08469847E6E656464FF0000821
:104AB00007F1380093E75646D04697E7B04695E7AA
:104AC000BA6A12F8021BBA6212F8015C284A54F85A
:104AD0002500904202D3274A90421ED3BA6932B1D0
:104AE000786A7B6023F00BFE7B6800288CD1BA6863
:104AF00002BB08F1280207F1300C08F101009444D0
:104B000007F1580252FA80F008F102080CF8101C64
:104B10005FFA88F800F8105C76E7BA693AB1786A0B
:104B20007B6023F0ECFD7B6800287FF46DAF1BF009
:104B3000010F09D006F1280207F13000711C161888
:104B400006F8205CCEB25FE71BF0040F3FF45CAFC9
:104B500008F1280207F1300008F1010102EB00081A
:104B600008F8105C5FFA81F84EE7002063E700BFA9
:104B70000CE7020018520300732103000400000137
:104B800084EC02001BF80A3087F8373054F8239081
:104B9000D7F884302BB3D7F888309B4521D2D7F88B
:104BA000843033F81B803A6AFB6A012107F1370031
:104BB000984700281ADB0544B8F1000F06D1484693
:104BC000FCF7BCF900F101081FFA88F83A6AFB6AA1
:104BD000414648469847002808DB05440BF1010B85
:104BE0005BE74FF00008DEE7454645E6054643E64D
:104BF000014B1860704700BF1C03002080B50546BC
:104C00000E461746984621F0C3FB034629F074FD73
:104C1000DFF81890044649F80030424630463946DD
:104C2000A84754F8090002F053FD00BF0800000037
:104C30002DE9F047058B04462807904611D4022938
:104C400005F0070540F0CC80204624F020F878B12C
:104C50000138218B042811D8DFE800F0C2106D85DF
:104C6000950001290CBF45F0100545F0200525836E
:104C700088F31188BFF36F8FBDE8F08701F0070A52
:104C8000AA4500F0A5800027B9463E46A368002B40
:104C900000F0BC8041F00801218388F31188BFF344
:104CA0006F8FA168002900F0BA800D68002900F01C
:104CB000B680D1F80480334652462046C047002DC6
:104CC00076D02B6829461D46F0E701F007035A1FEE
:104CD000012A1BD8002221F00701062B276889B280
:104CE000C4E9002209D13B4603E0628B01326283B2
:104CF0001B68002BF9D141F002012183204623F0EB
:104D0000C6FF00287AD041F0200176E0042B0AD1BA
:104D100021F0070189B22183204623F0B8FF10B1AA
:104D200041F020012183218B01F0070AAA454FD0D1
:104D30000027B946AAE7236921F0070141F00601DF
:104D4000062DD3F8009021832DD1B9F1000F3FD06B
:104D500041F00801218388F31188BFF36F8F3A492E
:104D60002046C84729E021F00701236941F00401EA
:104D700089B2042DD3F804902183E6D000273E4663
:104D80004FF0040A82E721F00701236941F0050191
:104D900089B2052DD3F808902183D6D000273E464E
:104DA0004FF0050A72E700273E464FF0060A6DE70E
:104DB0002B4687E7B9F1000FD1D1EFF311882023FB
:104DC00083F31288BFF36F8F238B23F008032383B1
:104DD000258BEA062ED525F01003238305F0070561
:104DE0006669218B002EBFF670AF00232768C4E9E7
:104DF000003321F0070141F001012183218B01F0F3
:104E0000070AAA454FF000097FF440AF002F9CD05D
:104E100041F00801218388F31188BFF36F8F002FC1
:104E2000C8D03D68394633465246204623F05BFFE2
:104E30002F46F4E7AB067FF51BAF25F02003238355
:104E400005F0070500E700BF138D02002DE9F047CC
:104E5000DFF85880044607464FF0010914B9384678
:104E6000BDE8F08794FAA4F5B5FA85F509FA05F3DB
:104E70002E0108EB05156FEA030A24EA03042B7BD5
:104E8000002BEBD058F806301B694BB9464404227E
:104E900073682846196807EA0A0724F0E3F8DDE793
:104EA000284698470028D9D1F0E700BF34ED02002A
:104EB00030B51049104889B0002229F087F90F4D0C
:104EC0000F4900220023CDE9062300240E23CDE95B
:104ED0000334CDE901440B4B00944FF44072284653
:104EE00020F078FF0849284628F0F0FF204609B056
:104EF00030BD00BF0D4F000058110020D00C002025
:104F0000805900203952000027220300014820F078
:104F10001FBC00BF100900202DE9F0478046214842
:104F20000F4624F07FF80646002833D00025284697
:104F3000BDE8F087237B83B12368DB680BB1204693
:104F40009847636883F8069023681B69D3B9636840
:104F500004221968204624F085F80136103454459F
:104F6000E8D3B8F1000FE2D0002DDFD02846FFF7DC
:104F70006DFF0546002FF7D000214FF4A47029F0F3
:104F800057F8F1E7204698470028E0D009FA06F3E1
:104F90001D43E2E7044CDFF814A005464FF0010979
:104FA000DDE700BFBC1E002034ED020044ED02002E
:104FB000014B53F820007047FCF0020008B503468F
:104FC00008462BB1044A136000F07AFC002008BDAB
:104FD0006FF01500FBE700BF2003002010B5044C64
:104FE000237813B9034820F0B3FB0123237010BDCD
:104FF0003F4F00201009002010B504460B4824F054
:1050000011F85CB1BFF35B8F094B53E8001F013906
:1050100043E80012002AF8D1BFF35B8F054829F05E
:10502000E1F80548BDE8104020F092BBB41E002016
:10503000B81E002058110020100900200020064B47
:10504000BFF35B8F014653E8000F43E80012002ACC
:10505000F9D1BFF35B8F7047B41E002070B5FFF726
:10506000EDFF084C084E0546B44200D370BD63689E
:105070005B792BB123685B6813B1294620469847BA
:105080001034F1E734ED020044ED020010B5044C99
:105090000449204623F079FC034B1C6010BD00BF7F
:1050A00030080020E8F00200AC1E00200D4A0E4837
:1050B000002310B513700D4A13600D4A4FF40041E0
:1050C0001360FFF77BFFFFF7E1FF0A4B0A49184621
:1050D0008B4200D310BD1A1A5C6812110132227182
:1050E0001033F5E7404F002021900200B41E00204D
:1050F000B81E002034ED020044ED020001460022FB
:105100000148002323F062BC30080020014823F04E
:10511000FBBC00BF30080020024B0146186823F09A
:1051200047BD00BFAC1E0020014823F07CBD00BF7E
:105130003008002070B5294B187800284DD0FFF7B3
:10514000E5FF0546002845D1254B264C1B68002B62
:1051500019DD28F0F4FF4FF47A72A0FB020302FB82
:105160000131C30BD4E9002043EA41439B1A4FEAC3
:10517000D13140F2E93261EB0001934271F100015B
:1051800001D3FFF76BFFD4E9003213F57A7342F1D4
:105190000002C4E90032BDE87040FFF7C5BF636894
:1051A0005B7923B1236829461B6820469847103451
:1051B000B442F4D32846FFF7AFFFBFF35B8F0A4B2F
:1051C00053E8001F013943E80012002AF8D1BFF369
:1051D0005B8FB9E7054C064EEAE770BD3F4F0020F4
:1051E000B41E002050110020B81E002034ED020033
:1051F00044ED020070B50D4D297861B90120FFF72B
:105200008BFE0B4C0B4EB44206D3FFF793FF0028E6
:10521000FBD101232B7070BD63685B791BB12368E0
:1052200020469B6898471034EDE700BF404F0020B0
:1052300034ED020044ED020000212DE9F04708465C
:10524000FFF76AFE044658B340F267684FF0000962
:1052500029F052FA1B4B1C4A1B58136033B11B4BED
:105260001B68092B02DD1A4820F072FA194FDFF88B
:1052700060A0002544B12046FFF7E8FD044618B9B8
:105280004FF0FF384FF0FF39FFF754FF064628B9BB
:10529000B5B942464B46504620F094FA3546E9E708
:1052A0004FF0FF384FF0FF39D2E72B689B691BB1F5
:1052B00000221146284698471035BD42F5D3E8E74D
:1052C000054DFAE708000000B01E0020B81E0020BF
:1052D0001009002044ED020034ED020013B5184817
:1052E00023F0A0FE174B1B7873B1EFF3118420233A
:1052F00083F31288BFF36F8FFFF71CFF84F31188CD
:10530000BFF36F8F02B010BD0F4B1B68002BF9D09D
:1053100050B900220023CDE900230C484FF400428D
:10532000002321F015FBEDE70928EBD1074828F011
:1053300059FF074802B0BDE8104020F009BA00BF8D
:10534000B81E0020404F0020B01E00205811002041
:105350001009002010B5064B1B68044698472146EB
:10536000A060044823F0B1FBBDE81040FFF7B6BFD2
:105370002003002030080020044A054B9B1AB1EBA3
:10538000D30F34BF52F8310000207047DCEB02002D
:1053900034ED02002DE9F04F8FB004AFC1F34A287D
:1053A000B8600D4691467B600C0DB8F1000F63D0DC
:1053B000002607F114034FF0040B4FF00A0AC7F858
:1053C0000C80C7E907667E620193CDF808B0CDF87E
:1053D00000A007F11C03F96832464846FFF722FA9D
:1053E000B0F5006F03461CD36C468AB0D9F80410A0
:1053F00004AB2648C3E9050140F2FF71D9611A46A2
:105400004FF400711984224B42F8103F2148334673
:105410004FF41251FFF7BEFFA5462C37BD46BDE83D
:10542000F08FC0F30A0804F11700184420F00700B9
:1054300080083B60FFF762FE68F35325044690B195
:105440003B68154AC7E9083600F1100107F114035B
:10545000F961CDE900A3CDF808B0F96807F11C03A4
:105460004846FFF7DFF968F353257B68B9682A4699
:10547000204623F016FED0E704F1170020F00700C5
:105480008008FFF73BFE0446EDE700BF3C22030027
:1054900004000001BCEC0200779002002DE9F04FFF
:1054A00087B0DDE91279DDE9105A0446039193468D
:1054B0009846BFB1CDF800903B46524610210020DF
:1054C000CDF81490FEF7DCFFB0F5006F06460AD366
:1054D000184A194840F2FF73022107B0BDE8F04FA7
:1054E00023F038BE3E4605F11700304420F0070097
:1054F00004F007048008FFF701FE0BF0070BE4003F
:1055000044EA8B1444EA462444EA0554054640B173
:105510003FB1CDF800903B46524631461030FEF781
:10552000AFFF039943462246284607B0BDE8F04F37
:1055300023F0B7BD7B220300BCEC0200406820B121
:10554000034BC01A40F3CF0070474FF0FF30704755
:10555000DCEB02000EB403B503AB014653F8042B99
:105560000448019302F060FB02B05DF804EB03B065
:10557000704700BFB7910200CA0605D48B064CBF26
:1055800002490349FFF7E6BF704700BFB42203009A
:10559000B32203002DE9F04F89B09B46149B06937C
:1055A0009DF84CA0159B0593169B179E04930446EB
:1055B0000D469046BAF1000F00F09D8006F480730E
:1055C000079323F04DFD06F00209024600283ED065
:1055D00091492046FFF7BEFF0746B9F1000F08D0FA
:1055E00016F0440F35D18D492A462046FFF7B2FF09
:1055F000074406F0010353B1894B8A4953F82A2026
:10560000894B2046002A08BF1A46FFF7A3FF06F47D
:105610008073002B49D006F00803002B63D1B8F14A
:10562000000F66D0814942462046FFF793FF0546AA
:10563000069B3D44002B6DD1049B002B73D1F307D7
:1056400000F1E48031462046FFF796FFD8E0074698
:10565000C3E7774B18680028CAD0764B4FF47A79A5
:105660001B68B5FBF3F54FF46163B5FBF0F100FB8C
:10567000115509FB05F54FF03C0CB1FBF3F203FBB0
:105680001211B5FBF0FEB1FBFCF300FB1E550CFB49
:10569000131109FB05F50091B5FBF0F56649CDE95D
:1056A00001E52046FFF756FFA2E706F00803EBB13D
:1056B000624B634953F82A202046FFF74BFF05460B
:1056C000B8F1000F05D0594942462046FFF742FF86
:1056D0000544BBF1000FABD05A495A462046FFF7AC
:1056E00039FF0544A4E74FF0000BE1E706F0080599
:1056F000E6E745469CE7BBF1010F069B06D1002B70
:1057000064D1049B002B7BD000250CE0002BF8D04B
:105710004D485CE04D48069B4D49224622F0BEFFB5
:10572000049B002B68D0DFF82C81DFF82C91049FBC
:105730003146102F204628BF1027FFF71DFF4FF0DE
:10574000000B5D4545DC059B49461A782046FFF76E
:1057500001FF4FF0010B1BF0070F03D1414620461C
:10576000FFF7F8FE5F453BD9059B494613F80B2030
:105770002046FFF7EFFE0BF1010BBBF1100FEAD152
:10578000364920464FF0000BFFF7E4FE5A46059BD2
:105790009A5CA2F120015F2928BF2E2230492046C1
:1057A000FFF7D8FE0BF1010BBBF1100F1DD01BF062
:1057B000070F03D141462046FFF7CCFE5F455A460E
:1057C000E5D841462046FFF7C5FEEBE71F485546A2
:1057D000A1E741462046FFF7BDFE0BF1010BB0E704
:1057E00020492046FFF7B6FEC5E7059B3B440593DD
:1057F000049BDB1B04939AD1BAF1000F7FF41FAF17
:10580000204609B0BDE8F04F23F0C8BC064A054960
:105810002046FFF79FFE15E7BB220300BF220300CF
:105820000CF10200FD300300B6220300E422030065
:10583000C41E0020C01E0020C822030020F1020068
:10584000E8220300EE220300ED910200B79102006E
:10585000297C0000FB220300F3220300FD22030049
:10586000FF220300F922030073B542F20F738B424B
:1058700028BF0B4605680F4A04460521684621F0FB
:10588000EFF863680C495B6806460B22284623F054
:1058900077FC63683246694628465B6823F070FCF3
:1058A000636806495B681B22284623F069FC02B046
:1058B00070BD00BF9D1E03001E23030002230300D2
:1058C000074A00210123904206D8064A01B9012364
:1058D0001360054B1860704740085B000121F2E738
:1058E00040420F00C01E0020C41E0020F8B5074F24
:1058F0000D4604464618B44201D12846F8BD14F8B6
:10590000011BBB6801485B689847F4E72CE802007C
:10591000014B03600020704768F10200F0B40C4BAB
:105920000C4E5F6A0C4BB34203D36FF08500F0BCA2
:1059300070475D68BD4209D31C693CB195F802C04F
:105940000579AC4502D12346F0BC18472433EAE779
:10595000F41E0020BC0B0020980B00202DE9F0471E
:10596000134CDFF85080DFF8509005460E4617467E
:10597000444503D36FF08500BDE8F0876268D9F82D
:1059800024309A4212D3A36983B19078297988424E
:1059900005D13A4631462846BDE8F04718475279C6
:1059A000012A03D13A463146284698472434DFE796
:1059B000980B0020BC0B0020F41E00202DE9F041C4
:1059C0000B4CDFF8308005460E461746444502D39F
:1059D0006FF0850009E063690BB92434F6E73A46B5
:1059E0003146284698470028F7D1BDE8F08100BF2E
:1059F000980B0020BC0B0020024B00221A605A605A
:105A0000704700BFAF1F002070B50B4B0B4CA3427B
:105A100001D3002070BD196A1E7F00220439D5B25F
:105A2000AE4201D82433F2E7013211F832508542F8
:105A3000F5D10120EEE700BF980B0020BC0B002041
:105A400008B5044A03460121034823F04BFC00201B
:105A500008BD00BF642303001CED020038B50546F5
:105A600026F001FA10F1780F044611D10D4A0E48C4
:105A70002B46022123F036FC284623F035FC0B4A46
:105A8000D2F8C43023EA0003C2F8C430002407E08F
:105A90000028F1D0064A04482B46012123F022FCBD
:105AA000204638BD7F2303001CED0200F41E0020B9
:105AB000A023030008B509480378C3F341130A3350
:105AC00050F823303BB100F1080200F11001984773
:105AD000C043C00F08BD1846FCE700BFF41E0020FD
