:1000000080820020715F0000A37A02005D5F000023
:100010005D5F00005D5F00005D5F000000000000AC
:10002000000000000000000000000000356000003B
:100030005D5F000000000000D55F00005D5F000014
:10004000F561000095AB0100F5610000F56100006D
:10005000F5610000F5610000F5610000F561000048
:10006000F5610000F5610000F5610000F561000038
:10007000F5610000F5610000F5610000F561000028
:10008000F5610000F5610000F5610000F561000018
:10009000F5610000F5610000F5610000F561000008
:1000A000F5610000F5610000F5610000F5610000F8
:1000B000F5610000F5610000F5610000F5610000E8
:1000C000F5610000F5610000F5610000F5610000D8
:1000D000F5610000F5610000F5610000F5610000C8
:1000E000F5610000F5610000F5610000F5610000B8
:1000F000F5610000F5610000F5610000F5610000A8
:1001000081F0004102E000BF83F0004330B54FEAC8
:1001100041044FEA430594EA050F08BF90EA020F35
:100120001FBF54EA000C55EA020C7FEA645C7FEAC8
:10013000655C00F0E2804FEA5454D4EB5555B8BFEB
:100140006D420CDD2C4480EA020281EA030382EA5C
:10015000000083EA010180EA020281EA0303362DEE
:1001600088BF30BD11F0004F4FEA01314FF4801CC1
:100170004CEA113102D0404261EB410113F0004FD3
:100180004FEA03334CEA133302D0524263EB43038A
:1001900094EA050F00F0A780A4F10104D5F1200E28
:1001A0000DDB02FA0EFC22FA05F2801841F1000183
:1001B00003FA0EF2801843FA05F359410EE0A5F157
:1001C00020050EF1200E012A03FA0EFC28BF4CF088
:1001D000020C43FA05F3C01851EBE37101F000453E
:1001E00007D54FF0000EDCF1000C7EEB00006EEB4B
:1001F0000101B1F5801F1BD3B1F5001F0CD34908D5
:100200005FEA30004FEA3C0C04F101044FEA44522B
:1002100012F5800F80F09A80BCF1004F08BF5FEAB2
:10022000500C50F1000041EB045141EA050130BD92
:100230005FEA4C0C404141EB0101013C28BFB1F5A4
:10024000801FE9D291F0000F04BF01460020B1FAEF
:1002500081F308BF2033A3F10B03B3F120020CDAC2
:100260000C3208DD02F1140CC2F10C0201FA0CF0A0
:1002700021FA02F10CE002F11402D8BFC2F1200C05
:1002800001FA02F120FA0CFCDCBF41EA0C019040BB
:10029000E41AA2BF01EB0451294330BD6FEA040404
:1002A0001F3C1CDA0C340EDC04F11404C4F12002EF
:1002B00020FA04F001FA02F340EA030021FA04F301
:1002C00045EA030130BDC4F10C04C4F1200220FA58
:1002D00002F001FA04F340EA0300294630BD21FA96
:1002E00004F0294630BD94F0000F83F4801306BF5C
:1002F00081F480110134013D4EE77FEA645C18BF50
:100300007FEA655C29D094EA050F08BF90EA020FE6
:1003100005D054EA000C04BF1946104630BD91EADE
:10032000030F1EBF0021002030BD5FEA545C05D1E1
:100330004000494128BF41F0004130BD14F5800420
:100340003CBF01F5801130BD01F0004545F0FE4194
:1003500041F470014FF0000030BD7FEA645C1ABFC9
:10036000194610467FEA655C1CBF0B46024650EA00
:10037000013406BF52EA033591EA030F41F400212C
:1003800030BD00BF90F0000F04BF0021704730B5B2
:100390004FF4806404F132044FF000054FF0000187
:1003A00050E700BF90F0000F04BF0021704730B548
:1003B0004FF4806404F1320410F0004548BF40421D
:1003C0004FF000013EE700BF42004FEAE2014FEA72
:1003D00031014FEA02701FBF12F07F4393F07F4F4D
:1003E00081F06051704732F07F4208BF704793F050
:1003F0007F4F04BF41F40021704730B54FF4607463
:1004000001F0004521F000411CE700BF50EA010265
:1004100008BF704730B54FF000050AE050EA01020E
:1004200008BF704730B511F0004502D5404261EB7E
:1004300041014FF4806404F132045FEA915C3FF4BF
:10044000D8AE4FF003025FEADC0C18BF03325FEA5C
:10045000DC0C18BF033202EBDC02C2F1200300FA0D
:1004600003FC20FA02F001FA03FE40EA0E0021FA32
:1004700002F11444BDE600BF80F0004002E000BF7E
:1004800081F0004142001FBF5FEA410392EA030F7F
:100490007FEA226C7FEA236C6AD04FEA1262D2EBC9
:1004A0001363C1BFD218414048404140B8BF5B42CE
:1004B000192B88BF704710F0004F40F4000020F067
:1004C0007F4018BF404211F0004F41F4000121F07D
:1004D0007F4118BF494292EA030F3FD0A2F10102C7
:1004E00041FA03FC10EB0C00C3F1200301FA03F105
:1004F00000F0004302D5494260EB4000B0F5000F28
:1005000013D3B0F1807F06D340084FEA310102F1E6
:100510000102FE2A51D2B1F1004F40EBC25008BF98
:1005200020F0010040EA03007047490040EB000062
:10053000013A28BFB0F5000FEDD2B0FA80FCACF163
:10054000080CB2EB0C0200FA0CF0AABF00EBC25090
:1005500052421843BCBFD0401843704792F0000F7E
:1005600081F4000106BF80F400000132013BB5E7D1
:100570004FEA41037FEA226C18BF7FEA236C21D047
:1005800092EA030F04D092F0000F08BF08467047AC
:1005900090EA010F1CBF0020704712F07F4F04D17A
:1005A000400028BF40F00040704712F100723CBF8D
:1005B00000F50000704700F0004343F0FE4040F4B7
:1005C000000070477FEA226216BF08467FEA236375
:1005D0000146420206BF5FEA412390EA010F40F460
:1005E000800070474FF0000304E000BF10F00043AC
:1005F00048BF40425FEA000C08BF704743F0964393
:1006000001464FF000001CE050EA010208BF7047AD
:100610004FF000030AE000BF50EA010208BF704734
:1006200011F0004302D5404261EB41015FEA010C49
:1006300002BF84460146002043F0B64308BFA3F141
:100640008053A3F50003BCFA8CF2083AA3EBC25323
:1006500010DB01FA02FC634400FA02FCC2F1200242
:10066000BCF1004F20FA02F243EB020008BF20F079
:100670000100704702F1200201FA02FCC2F12002DF
:1006800050EA4C0021FA02F243EB020008BF20EAD4
:10069000DC7070474FF0FF3C06E000BF4FF0010CEC
:1006A00002E000BF4FF0010C4DF804CD4FEA4002CC
:1006B0004FEA41037FEA226C18BF7FEA236C11D016
:1006C00001B052EA530C18BF90EA010F58BFB2EBC9
:1006D000030088BFC81738BF6FEAE17018BF40F049
:1006E000010070477FEA226C02D15FEA402C05D1FD
:1006F0007FEA236CE4D15FEA412CE1D05DF8040B82
:10070000704700BF844608466146FFE70FB5FFF714
:10071000C9FF002848BF10F1000F0FBD4DF808EDCC
:10072000FFF7F4FF0CBF012000205DF808FB00BFBD
:100730004DF808EDFFF7EAFF34BF012000205DF817
:1007400008FB00BF4DF808EDFFF7E0FF94BF012064
:1007500000205DF808FB00BF4DF808EDFFF7D2FF61
:1007600094BF012000205DF808FB00BF4DF808EDA4
:10077000FFF7C8FF34BF012000205DF808FB00BF71
:1007800053B94AB9002908BF00281CBF4FF0FF31F8
:100790004FF0FF3000F00CB8ADF1080C6DE904CE5D
:1007A00000F022F8DDF804E0DDE9022304B0704730
:1007B000704700BF10F8012B11F8013B012A28BF38
:1007C0009A42F7D0D01A7047034611F8012B03F86C
:1007D000012B002AF9D17047034613F8012B002A98
:1007E000FBD1181A013870472DE9F04786468C4630
:1007F0000846089E154674461946002B40F0C280F4
:100800008542B2FA82F245D94AB1C2F1200300FA18
:1008100002FC2EFA03F3954043EA0C0C94404FEA95
:10082000154EA8B2BCFBFEF8230C0EFB18CC08FB3F
:1008300000F943EA0C43994528D9EB1808F1FF3732
:1008400004D2994502D9A8F102072B44A3EB09036E
:10085000A4B2B3FBFEFC0EFB1C330CFB00F044EA1D
:100860000344A04214D92C190CF1FF3304D2A04246
:1008700002D9ACF102032C44241A43EA07401EB10A
:10088000D440002334607360BDE8F0874746DDE75D
:100890006346F1E792BB431B01214FEA154EAFB20D
:1008A000B3FBFEFC200C0EFB1C330CFB07F840EAEC
:1008B0000343984562D9EB180CF1FF3004D29845F8
:1008C00002D9ACF102002B44A3EB0803A4B2B3FBA2
:1008D000FEFC0EFB1C330CFB07F744EA0344A74263
:1008E0004ED92C190CF1FF3304D2A74202D9ACF136
:1008F00002032C44E41B43EA0040C0E7C2F120039A
:1009000020FA03F1954090402EFA03F303434FEA97
:10091000154EAFB2B1FBFEFC0EFB1C10190C0CFB0C
:1009200007F841EA0041884504FA02F422D969181F
:100930000CF1FF3004D2884502D9ACF10200294401
:10094000A1EB08019BB2B1FBFEFC0EFB1C110CFBE2
:1009500007F743EA01439F420ED9EB180CF1FF3130
:1009600004D29F4202D9ACF102012B44DB1B41EAC5
:10097000004192E76046E3E76146F7E76046A3E798
:100980006346B7E7834206D916B9002108467BE7DC
:10099000C6E900E0F9E7B3FA83F78FB9834201D3E0
:1009A000724508D8BEEB020460EB030301209C46AD
:1009B0001EB9002168E73846FAE7C6E9004CF8E7B7
:1009C000C7F1200CBB4022FA0CF41C432EFA0CF1A8
:1009D00020FA0CF3B84001434FEA14490EFA07F528
:1009E000B3FBF9F81FFA84FE09FB18300B0C08FB67
:1009F0000EFA43EA00439A4502FA07F240D9E31897
:100A000008F1FF3004D29A4502D9A8F1020023442C
:100A1000A3EB0A0389B2B3FBF9F809FB183308FB0F
:100A20000EFE41EA03418E452CD9611808F1FF33CF
:100A300004D28E4502D9A8F10203214443EA0040C2
:100A4000A0FB0298A1EB0E014145CE46434602D3DE
:100A500006D14D4504D2B9EB020E68EB0403013810
:100A6000002EA6D0B5EB0E0261EB030101FA0CFCDF
:100A700022FA07F34CEA0303F940C6E9003198E78C
:100A80004046C5E74346D9E7F0B5002283B011469A
:100A900000AF40F6034006F0BDFF044600285BD1DE
:100AA00006F0ECFB21463A1D41F2030006F0B2FFCE
:100AB0000446002850D17A68BE4DD168D1F80100B3
:100AC000D1F8051005F1780303C3104605F070FE58
:100AD00021463A1D41F2010006F09CFF0446002821
:100AE0003AD17868C3685A7885F870205A88A5F892
:100AF00072201A7985F87120B3F80720A5F87420C0
:100B0000B3F80530A5F8763005F052FE21463A1DBF
:100B100041F2020006F07EFF0446E8B9D7F804C0AF
:100B2000DCF80C2005F18006531C41321868596826
:100B3000344603C4083393422646F7D1604605F095
:100B400037FE95F87C305A060AD49B4A9B4801210F
:100B500027F0FAF96FF0120420460C37BD46F0BDBD
:100B60003A1D002142F2030006F054FF044600281B
:100B7000F2D17B68924EDA68D2F80100D2F8051003
:100B800003C6184605F014FE21463A1D42F2020043
:100B900006F040FF04460028DED17C68E368B3F825
:100BA000012091B249B1D97839B1A5F80421DA7898
:100BB000114606F128002BF0C9FA204605F0F8FD91
:100BC00095F87C601F2316F02006A5F8203118D177
:100BD000022140F66D4006F079FB0446002800F043
:100BE000DB8002210C3027F021F8012303704670CE
:100BF0002146324640F66D4006F00CFF04460028C0
:100C0000AAD195F89C301B0712D53A1D002142F25B
:100C10001C0006F0FFFE044600289DD17868C368DA
:100C2000D3F80120D3F80530C5E9382305F0C0FD1D
:100C300095F8D8309E0621D5B91C384606F0EEFF4F
:100C40000446002888D1042142F2240006F03EFB2D
:100C50000646002800F0A08004210C3026F0E6FFB4
:100C60003B8803807B8843802246314642F2240041
:100C700006F0D0FE044600287FF46EAF95F8D83019
:100C80005C062AD5022142F22E0006F01FFB044624
:100C9000002800F0818002210C3026F0C7FFB5F853
:100CA000B03103802146002242F22E0006F0B2FE4F
:100CB000044600287FF450AF01463A1D42F22A0054
:100CC00006F0A8FE044600287FF446AF7868C368A3
:100CD0005B7885F8223105F06BFD082142F20100B6
:100CE00006F0F4FA0446002856D008210C3026F00D
:100CF0009DFF95F8D81011F0400F024640F20223F4
:100D000008BF032388074CBF43F02C0043F00C00BE
:100D10008B0695F8D93048BF40F0400013F0090F1A
:100D200018BF40F40060CE0748BF40F0100000211B
:100D300027F02CF92146002242F2010006F06AFE5B
:100D4000044600287FF408AF95F87C30B5F804110C
:100D5000980624D4C9B93A1D41F2050006F05AFE9E
:100D6000044600287FF4F8AEB5F804317C684BB92E
:100D7000E368B3F80120A5F804219A8811481146C8
:100D80002BF0E4F9204605F013FD082140F6014060
:100D900006F09CFA0446C8B96FF06804DCE6002946
:100DA000F3D1094A0548012127F0CEF86FF0040479
:100DB000D2E600BFB0000020C314030038D1020007
:100DC00088010020B8010020E714030008210C303E
:100DD00026F02CFF95F8D830D907024629D4604870
:100DE0004FF0005127F0D2F82146002240F6014092
:100DF00006F010FE044600287FF4AEAE01463A1D10
:100E00004FF6014006F006FEB8B1564A5648022198
:100E100027F09AF807F0B2FE044600287FF49CAE53
:100E200009F0C4FB044600287FF496AE06F0D4FB1C
:100E300092E649A1D1E90001D4E77B68DC68B4F807
:100E40000130032B96BF494A494952F823106E4698
:100E50008AB06A464748D3614FF400731384464B07
:100E6000C2E9050142F8103F3F484FF4135127F003
:100E70007EF8B4F80120B4F80330022AB54649D10F
:100E8000052B47D83D4A52F823106E468AB06A4671
:100E90003B48D3614FF400731384374BC2E905011B
:100EA00042F8103F4FF413512F4827F060F8637950
:100EB00094F806C0D4F80900032BB54698BF314A10
:100EC000B4F8076094BF52F8231029496C468CB0DF
:100ED0006A46DFF8B4E0C2E9073C4FF4007393853B
:100EE0002A4BC2E905E1C2E909604FF4735142F8A7
:100EF000103F1D4827F03BF8A546786805F058FCE0
:100F00003A1D00214FF6024006F084FD044618B158
:100F10001F4A7BE71649B8E77868C368B3F8013021
:100F2000A5F8C13005F044FC95F8C1305B077FF5AA
:100F300071AF3A1D21464FF6034006F06BFD08B134
:100F4000144A63E77868C3685B7885F8C03005F0B9
:100F50002FFC5FE7AFF30080908800020080002044
:100F6000108800020A15030038D10200F4D80200EC
:100F7000B41203002E15030004000001DCD80200A7
:100F800047150300CCD802005F15030007000001DD
:100F90008C150300B51503002DE9F843D0E9073897
:100FA000856903EB08042F34A5420F46164619D86D
:100FB000DFF86C80A3FB080117A3D3E90023FFF738
:100FC000DFFB0346601BA0FB080123F07F4412A354
:100FD000D3E90023FFF7D4FB20F07F403C60306072
:100FE000BDE8F883DFF838900BA3D3E90023A5FB15
:100FF0000901FFF7C5FB20F07F440A480A2106A338
:10100000D3E90023E8FB0901FFF7BAFB20F07F409A
:101010003C603060BDE8F8838D49FD1A0700000090
:1010200000CA9A3B00166BF1002800F03C812DE9C4
:10103000F04FC74C94F85E2012F001058DB040F0DF
:101040006E81607EFF2300F00300A37619F02CFA76
:1010500094F85E00420726D4627F94F8293004EBAE
:10106000820204EB8303166AD3F82C8086B1B84859
:10107000314612F00DFF33785B0605D506210EF0E0
:101080004FF8002800F04D81B148414612F000FFB2
:10109000337813F00E0F40F09D8063698BB10C2004
:1010A0000DB0BDE8F08F2A4604F15F01C0F3C00027
:1010B00019F070FBFF28A076CED0284619F00EFA62
:1010C000CAE710F055FB8146002800F0388110F087
:1010D0005BFB8246002800F02F8113F0D3F9054610
:1010E000002800F04581D0F888004FF6FF73AB84EC
:1010F00005F1100B002800F01A8105F17C0205F1C2
:1011000078010EF019F8B5F8763023F4EF6323F088
:10111000070343F48C7343F00103A5F8763095F888
:10112000373003F03F0363F07F0385F8373095F8DD
:101130008E3023F0070385F88E3095F83C3023F08D
:101140000F03002785F83C304FF4C023C5F88831E1
:101150002846C5E91277C5F88870A5F88C7085F81F
:1011600039706F85C5F82E702F65A5F88E71A5F8BA
:10117000847115F0E3FA85F85071C5F8549113F0B5
:1011800035FC95F8943160F3020385F8943113F03F
:1011900033FC95F8943160F3C50385F8943195F8E4
:1011A000803167F3410385F880310121284614F02E
:1011B0002FF805F1D40015F099F8C4E9159AC4F890
:1011C00014B0C5E902772F702D611AF0F7FA0028E4
:1011D00040F0A980237E0121C3F342030DF12B00CF
:1011E0008DF82B300EF044F9024600285DD098F8B7
:1011F0000110304612F008FC5649574BB4F85C70A9
:10120000A0FB0101C0184FF000054FA3D3E9002354
:1012100041F10701C4E902552570FFF7B1FA60609A
:101220000FF0D2FB00F109083FB9357805F00F0542
:10123000A5F10105B5FA85F56D09207E636865F3B2
:10124000000010F00105207636D0444A09920020B3
:1012500010600225424A434F04930BAE019305925E
:101260000321CDE9020006944346009008960797B3
:101270002A460B950FF0AAFA314610F00DFBA0B9E3
:10128000394905914AF2D8330093CDE90300CDE9FD
:1012900001000797089606944346012203210B9507
:1012A0000FF078FA2EE012F0FFBA6369002B3FF4DA
:1012B000F6AE12F0B5FAF2E6284A2C48049303F28F
:1012C00047130694029591211360A7FB000301FBCD
:1012D0000731244B0793224B05934FF6FF73099276
:1012E000022703930BAE18A3D3E900230B970896AC
:1012F000FFF746FA4346CDE900503A462846032117
:101300000FF064FA314610F0C7FA0028CDD194F8F6
:101310005E300120034384F85E3019F0A7F8002006
:10132000BEE61220BCE612F07BFA0320B8E605F117
:101330008000C5F88800E0E6484610F01FFA072054
:10134000AEE600BFAFF300808D49FD1A0700000034
:10135000A02C002000CA9A3B8C49FD1A942C002036
:10136000853A0100290B010071350100002AE7844C
:10137000504610F00FFA484610F000FADFE700BFC1
:1013800070B5037E8AB0C3F342030D4604460121C3
:101390000DF1230016468DF823300EF069F87178B0
:1013A0000246284612F030FB1F49204AA0FB0131BB
:1013B000981841F107011AA3D3E90023FFF7E0F9D8
:1013C00063689842054621D21B1A00220192184AEE
:1013D0000293184BA21AA3FB0232022152090023E6
:1013E0000A4409AE099114490591CDE9033303215B
:1013F000D2B20696009318460FF048FA314610F024
:101400004BFA38B9656000200AB070BDFBD9C21A2A
:101410000023DBE70C200AB070BD00BFAFF30080F3
:101420008D49FD1A0700000000CA9A3B8C49FD1A3D
:10143000A02C00204FECC44E290B0100000000003E
:101440002DE9F04F06468DB08A46012002219946CB
:1014500015461CF061F900220B90022101200DF0CD
:10146000BBFE3B494FF4D07230460DF045FEC71C21
:10147000384B0093FFB201964B463A4601210020BB
:101480000FF05EFA10F0FD0F0ED0334A33493448A6
:1014900040F68F0325F0DEFB002383F31188BFF3B2
:1014A0006F8F0323184602DF2E4CA5FB044526A3AD
:1014B000D3E9002320462946FFF762F908960696ED
:1014C00073680493284B20F07F48A8FB0331E01A8F
:1014D000264B07934FF00702254B059302FB08119B
:1014E0004FF6FE7365EB010103934FF47A7200230C
:1014F000FFF746F94FF0000BCDE90180CDF800A0D1
:101500004B463A46012158460FF044F910F0FD0FC2
:101510000DD0114A1149124840F6A40325F09AFB58
:101520008BF31188BFF36F8F0323184602DF0B9BE9
:1015300013B90DB0BDE8F08F0122022110460DB0A5
:10154000BDE8F04F0DF048BE8D49FD1A07000000C0
:101550002017002025440100F0E30200B4E402005B
:1015600064DD020000CA9A3B8D49FD1AC5430100A3
:10157000B9980100000000002DE9F0418468A28CB8
:101580004FF6FF739A428CB045D00546204615F0C1
:1015900073FB2B7D012B00F02281022B00F01581C3
:1015A000002B00F0F48094F85061002E40F0108180
:1015B0002B8AE78D94F93720CDE90A6673B3002AA8
:1015C000C0F25A810023A4F88A31AA7CA38DFD18A9
:1015D00002F003030135012BADB23BD0B4F88E31DC
:1015E000002B00F005819D4280F059815B1B9BB26E
:1015F0000022062BA4F88E31E28540F2F68094F9A1
:1016000037309342C0F25081002326E09DF8271026
:10161000204613F0CFFA0CB0BDE8F081002AB8BF25
:1016200084F87561A38DAA7CFD1802F003030135CF
:10163000012BADB20ED0B4F88A31002BCED0AB4224
:1016400040F23C815B1BA4F88A31B4F88E31002B48
:10165000C9D102E00023A4F88E3194F83C2063F352
:10166000820284F83C2029460DF12702204615F01D
:10167000A1F87430CAD0B4F888312BB1AB4240F233
:10168000EC805B1BA4F88831B4F884312BB1AB42F9
:1016900040F2DA805B1BA4F88431E58D16B9AF42C5
:1016A00000F0C9800135ADB294F8D13013F00107D4
:1016B00031D1DDE90A130A46002B40F0CC80002925
:1016C00000F0BB801F461846A28C24690694CDE921
:1016D000035603329A4D0290CDE90017D2B2012190
:1016E000002005950FF0D2F810F0FD0F93D010F008
:1016F000FDF884428FD0934A934994484FF4AE63E7
:1017000025F0A8FA002383F31188BFF36F8F03231A
:10171000184602DF7FE794F937206FF30003002AB1
:1017200084F8D1307FDB94F87600C0F3C00100F07C
:10173000070019F05BFEB4F86E20B4F86C30134467
:10174000E28B03F23F1313440344814A814807218B
:10175000E3FB0021104678A3D3E90023FFF710F83C
:10176000DDE90A1320F07F4260686260904235BF75
:10177000171A801A002000270A46002BA4D157EA26
:10178000010CA1D1002858D019461F469CE794F8B7
:101790008E3003F01803182B7FF405AF218DB4F8B9
:1017A00086218B1D9A42C4BF931F5B1AB4F8821125
:1017B000CCBF9BB21346994200F09C80A4F88231C2
:1017C000A4F88431A4F88821EDE63D2684F8506120
:1017D000314620460CB0BDE8F04113F0EBB90023D0
:1017E000A4F88831A4F88431DDE60126334634E7D5
:1017F000E28C052A97BF013240F2E2434FF4FA73BC
:1018000092B203FB02F2B4F88C3142F2107101FB88
:101810000323013BB3FBF2F39BB2A4F88E31002B00
:101820007FF4E1AE19E794F87700012100F007009A
:1018300019F0DEFD7FE7354636E7002D43D000275F
:10184000114638463B463FE70023A4F88431204642
:1018500015F052F821E7384636E70FF0DBFF014676
:10186000A0B30023A4F88831A38CC3801B23037189
:1018700000680FF0A1FF07E794F875316BB3013BE7
:1018800084F8753104F1D408404614F071FDB8B302
:10189000404614F06DFDB8B30023E38592E60821BD
:1018A000204613F087F9B6E6A7B9D4F878315A087C
:1018B00013F0010336D1C4F87821A5E63E21204675
:1018C00013F078F9A7E6002EB9D1A4E60123A4F815
:1018D0008831D9E613460126BFE60AAA0BA9284695
:1018E000FFF75AFBDDE90A231343CBD0237884F8B2
:1018F0007531C7E7B4F8881100297FF454AE5FE76B
:10190000FF2013F019F9C3E70246D4E91E010DF0D8
:101910002BFC0028C0D194F83C301B0744BF238D1A
:10192000E3854FE642F000421E46C4F878213B466C
:1019300093E600BFAFF300808D49FD1A0700000059
:1019400081430100F0E3020030E5020064DD0200A3
:101950008C49FD1A00CA9A3B2DE9F04F89B0CDE9B8
:101960000623BDF84C2003780392BDF85020BDF843
:1019700048B0BDF85480068E029104460492002BB4
:1019800000F0C780013EB6B294F87600A6EB0803DB
:101990009DB2C0F3C001D4F80C31059500F00700EA
:1019A000019319F023FDE78C052F40F2AA8017FB65
:1019B00005F7BFB240F2E249BBF1050F40F2958056
:1019C000B4F86E20B4F86C30134403F2D51303441A
:1019D0007B4A7C480721E3FB00214FF09613E3612B
:1019E00096231046238474A3D3E90023FEF7C8FE90
:1019F0005D4620F07F4040F2E24303FB05F509FB22
:101A000007F1B1FBF5F71FFA87FA606005FB0AF0F2
:101A1000814257465AD2401A6A4967A3D3E9002344
:101A2000A0FB0101FEF7ACFE019B20F07F49994429
:101A3000638DB4F814211344984494F83730A8EB1C
:101A400006084744DB0967856AD15F4A5F496048F9
:101A500040F6581325F0FEF8002787F31188BFF3EE
:101A60006F8F0323184602DF2E46039B2385049BBA
:101A7000A4F88C3129462046A4F826B014F0D6FEEE
:101A8000544B218D2B44881DB3FBF5F39AB2904241
:101A9000A4F8862104D2C1F57F41FA310A4492B2FA
:101AA000029BA4F8822113B10023A4F88E314B4687
:101AB000324639462046FFF7C3FC94F8803143F0A4
:101AC000010384F8803109B0BDE8F08F091A3D4860
:101AD00039A3D3E90023A1FB0001FEF751FE019BCE
:101AE00020F07F49A3EB0909A2E74FF096130BF111
:101AF0000105E36196232384ADB20A204FF4FA7303
:101B00007BE7059B013717FB03F7BFB24FF4FA7968
:101B100052E7438D1E44B0F814311E44B6B233E789
:101B2000226C0599A36C274F02FB1133A36419F0B3
:101B300095FE064694F87401C0F3420019F090FE39
:101B4000064405FB06F6244B06F5742606F23F26EE
:101B5000A3FB0636B60CA36C26640AFB06F06A08E3
:101B60000344963A934228BF1346C4E91123069BC7
:101B700040F2E24808FB03F323650023A0FB0701C2
:101B8000C4F87C310CA3D3E90023FEF7F9FD134B15
:101B9000079AA9EB0009A3FB0230800A08FB00F0BA
:101BA000A0FB070104A3D3E90023FEF7E9FDAE1B68
:101BB00020F07F4759E700BF8D49FD1A070000005C
:101BC0008C49FD1A00CA9A3BF0E302003CDE020099
:101BD00064DD02007FC3C90183DE1B435917B7D1FF
:101BE0002DE9F04F0B6891F81180D3F80090037F36
:101BF000176895B00446C3F38013D0F81E008DF823
:101C00003F30B8F1FF0F638C12900E461546ADF8C9
:101C10004C300DF1480A4DD19AE803001090ADF810
:101C200044102346E28D53F82EBB9B78AB722A8179
:101C3000D4F82A306B60D4F83A30C5F8223005F178
:101C4000220094F83E30037105210DF011FC95F847
:101C5000273000F03F0060F3050385F8273094F843
:101C60003F30C3F3040285F82820A28EEA820128BF
:101C700003F01F0392B205D91B3303F01F030B2B94
:101C800000D81ABB0022C9F8082095F82C3062F35E
:101C9000000385F82C30E568012658462146267158
:101CA0000FF07EFD28682E7129460FF085FD15B0D6
:101CB000BDE8F08F10AA0DF13F01404618F008F979
:101CC0009DF83F3002338DF83F30AAE7336800219A
:101CD0005960E38EEA8A2B8340F2E24303FB02F26F
:101CE0000B92638E0D93384614F0B4FD94F83F20A8
:101CF00097F87411520962F3430187F8741119F0CF
:101D0000ADFD0C9097F87401C0F3420019F0A8FDE6
:101D10000C9A0B99104401FB00F0BB4A00F57420AB
:101D200000F23F20A2FB00204A08800C963A28636C
:101D30006A6394F8312040F2E24302FB03F36B64E0
:101D4000238FA7F88C31384614F070FD0B99AF4BF8
:101D5000AF4AC7F890210B44B3FBF1F39AB2A7F84E
:101D60008621298B881D824204DDC1F57F41FA312D
:101D70000A4492B2A7F882216B68C7F878312346EB
:101D800013F81C2FC2F340120C92DA0700F1FA800C
:101D90004FF48073A38399F81A0018F00FFE04F132
:101DA0002B03002800F0EA80626AC4F82B20228D01
:101DB0009A80B8F1FF0F00F00881BAF80430129849
:101DC000A4F82930C4F825009DF83F30A377109877
:101DD000BDF84430C4F81F00A4F82330EB8A6386B2
:101DE0002B8BA386B7F88C31E38697F87431C3F355
:101DF000420384F83830384612F050FBA882E08065
:101E00002146584674680FF0CBFCAB8AE3801C2354
:101E100023710C9BD4F80080002B40F0CA800C9BEF
:101E20002377214640460FF0C7FC95F86700B5F8C8
:101E30005C80B5F85E40012100F0070019F0D8FA87
:101E4000444404F2D51403198046724C72480721A9
:101E5000E3FB04014FF09613C5E9033368A3D3E90C
:101E60000023FEF78DFC20F07F4078600B9B2D6BEC
:101E70000D995D1BF36840F2E24202FB013303F26D
:101E8000B3410022A1EB0808012002210DF0A4F9C2
:101E9000484611F0B9FF0246A8FB0401144658A3B6
:101EA000D3E90023FEF76CFCCDF80490B3685B49DE
:101EB000009120F07F4AA21C3A3BD2B25344012148
:101EC00000200EF03DFD012800F0858099F81830C3
:101ED000DB0766D4384612F0E1FA4E4BA5FB0398B7
:101EE000044647A3D3E9002348464146FEF748FC91
:101EF0004B4BB6684B4A079220F07F45A5FB033158
:101F0000B9EB0300484B059340F2E313069708939F
:101F10007B684FF0000BCDE903B34FF0070303FBE1
:101F2000051168EB01014FF47A720023FEF728FCDB
:101F300003343A3EE4B2CDE90150CDF800A0334677
:101F40002246012158460EF025FC10F0FD0F0DD061
:101F5000364A374937484FF4F27324F07BFE8BF34F
:101F60001188BFF36F8F0323184602DF012202217D
:101F700010460DF031F915B0BDE8F08FC4F82B0014
:101F8000988016E7294A2C492A48FD2324F062FE4E
:101F9000002383F31188BFF36F8F0323184602DFFA
:101FA000F6E6002301220093184611460EF086FC47
:101FB00090E795F8273043F0400385F82730281D37
:101FC00017F090FD012328852AE70022C4F8252078
:101FD000A4F82920F8E60FF089FC81453FF476AF9C
:101FE000124A1649134840F28B2324F033FE002393
:101FF00083F31188BFF36F8F0323184602DF65E771
:102000008D49FD1A0700000083DE1B437FC3C90111
:10201000404B4C0000CA9A3B8C49FD1A799801004C
:102020008D49FD1A45980100B998010024EA020083
:10203000B4E4020064DD020064E1020080EA020010
:10204000F0B5C468636883B00546002B64D11AF00C
:10205000D3FE00201AF0F6FE002108461AF0E4FE36
:102060000022252108201AF021FF474B019301A8E7
:102070001AF008FF454940F25B601AF0C3FF237A6B
:10208000C3F3420262F306132046237219F004FEE2
:1020900018F070FD58BB637A9B071FD127682E6824
:1020A000384619F04BF906446A6806F10901012027
:1020B0001BF0F0F81BF0AEF9204611F0B1FE811CC8
:1020C0003246C9B2384619F03BF9054678BB20467E
:1020D00019F0DCF888B9002003B0F0BD012018F039
:1020E000B9F94178821C00781BF074F8D6E7607A61
:1020F00010F0030018BF0120F1E7254A25492648C2
:1021000040F2294324F0A6FD85F31188BFF36F8FB9
:102110000323184602DFDEE793F82C309A0796D0A7
:102120001E4821461AF026FE1AF00CFFD3E7184A83
:102130001B49194840F2114324F08CFD194B07212B
:10214000A5FB030301FB05310DA3D3E90023FEF733
:1021500017FB15490246154824F07CFD002585F340
:102160001188BFF36F8F0323184602DF1048214602
:102170001AF000FE1AF0E6FE6FF08B00ACE700BF2D
:1021800000CA9A3B00000000D6BE898E5555550006
:10219000A0EE020038DF020064DD0200D1B40100CD
:1021A0003CDE02008D49FD1A50EF020024EF0200D0
:1021B0006DB80100000000002DE9F041C468A28A5A
:1021C0004FF6FF739A4282B000F0DF8005461AF0A6
:1021D000A7F82B89628B208CA3831A4492B21044F7
:1021E00094F82730E28380B2411C21845E064FF0D0
:1021F0000001618304F1220100F1A18003F03F009E
:102200000B4694F82810009004F1290017F022FCE6
:102210000646D4E90C31A28B02FB0333A26B1344B4
:10222000E26B8B4294BFD21852188A4228BF0A46EA
:10223000E263616C226C94F867301144616494F835
:102240007E2094F82C10C3F3020363F3061112F0FE
:1022500004024FF0000384F82C10A363236478D0A9
:102260001AF0CAFD00201AF0EDFD201D1AF00AFE3A
:102270002389A17A40F25B6043EA01411AF0C2FE71
:10228000304619F06FF8214659481AF073FDA089BD
:102290001AF0F4FF94F8662094F86700C2F3C003C4
:1022A000002102F0070200F007001AF011FF20469B
:1022B0001AF0E0F827682E68384619F03FF806440F
:1022C0006A6806F1090100201AF0E4FF80461BF05D
:1022D00075F800201BF08CF8E36B94F8670003F1AD
:1022E0002F02636C00F00700012103EB42051AF096
:1022F0001BFE4544054494F8670000F007000228DF
:1023000025D004280CBF4FF4BC73282301211D44A1
:102310001AF00CFE28441BF043F8A18A0331324620
:10232000C9B2384619F00CF80546002834D12046C9
:1023300018F0ACFFD0B9002002B0BDE8F0810A4629
:1023400003F03F03218D17F0D1FB064661E7182308
:10235000DCE7D4E91A010CF007FF002880D194F8DB
:102360007E3043F0040384F87E3079E7214A224925
:1023700022484FF4B07324F06DFC85F31188BFF34D
:102380006F8F0323184602DFD5E71D4821461AF058
:10239000F1FC1AF0D7FDCEE7164A1A4917484FF458
:1023A000AB7324F057FC184B0721A5FB030301FB7B
:1023B00005310DA3D3E90023FEF7E2F913490246E4
:1023C000134824F047FC002585F31188BFF36F8F75
:1023D0000323184602DF0F4821461AF0CBFC1AF0FF
:1023E000B1FD6FF08B00A7E700CA9A3B0000000028
:1023F000EDC60100DCEF020038DF020064DD020000
:10240000D1B401003CDE02008D49FD1A30F002001B
:1024100024EF0200ADB4010080B50D4A0D4B00AFB2
:102420008AB0012918BF13466A460B48D161C2E938
:1024300005034FF400731384084B42F8103F08481B
:1024400000234FF4135101F011FCBD4680BD00BFC5
:102450001DFE020012FE02002AFE0200040000011E
:10246000B0D1020010B5074C0748084A0B460321BB
:1024700024F07DF8206818B107F0A8FB0023236042
:1024800010BD00BFF81B0020B0D1020053FE0200B7
:1024900008B526F00DF9044B044A1860BDE8084061
:1024A0000348032124F065B8F81B002070FE0200E9
:1024B000B0D102000B4621B1034A0448012124F0A7
:1024C00056B8FFF7E5BF00BF7AFE0200B0D10200A8
:1024D00007B5164E164C05466946284600F042FBE5
:1024E0000346D0B1134A0121204624F040F801A947
:1024F000284624F0EAF8034698B10F4A0121204605
:1025000024F035F820460D4A032124F032F84FF428
:102510000040002124F02FF8DEE7009B3246032123
:10252000E2E7019B064A0321E9E700BFB3FE020090
:10253000B0D1020099FE0200C5FE0200EDFE0200CD
:10254000DFFE020010B50A4A04460321094824F0C0
:1025500010F8204600F028FB034630B1BDE81040DB
:10256000054A0448012124F002B82046FFF7B0FFD5
:1025700003FF0200B0D102001CFF020007B50B46AA
:10258000044800920321044A25F063F803B05DF883
:1025900004FB00BFB0D1020038FF02002DE9F04F6C
:1025A000DFF8F4B089B04FF07E5A00AFDBF80000DE
:1025B00000286BD026F07CF8384DE84688B00646F7
:1025C0006C462868364B6361FDF7FEFE22464FF0ED
:1025D0000409C4E9060142F8109F32487A600023DA
:1025E0004FF4035101F042FBC546A5462E4B6361F3
:1025F0002E4BA3614FF40073A3832D4B23612D4910
:102600007A6828482B4601F031FB1822C546002184
:1026100007F108002AF005F9274BA7F8149007F1F5
:1026200008013046C7E903350AF07CFB0346C0B118
:10263000224A1C48012123F09AFF51462868FDF7E1
:1026400021FF1F490446FEF791F800B15446304679
:102650002C6007F0BBFA4FF42030002123F08BFFF1
:10266000A4E788B078606C462868164A6261FDF776
:10267000ABFE2246C4E9060142F8109F09487B6878
:102680004FF4035101F0F2FAC546D6E70E4A054869
:10269000032123F06EFFDEE7F81B0020B8020020C4
:1026A00059FF0200B0D102000A13030077FF0200B5
:1026B00003000001C01C40008CD5020086FF020010
:1026C0000000C8429DFF0200BCFF0200F0B5374A7F
:1026D000374893B0032123F04CFF0020089002F00C
:1026E000C1F9034650B9334C089B73B1002005F083
:1026F000DFFA0446B0B1304A034600E02F4A2C48C6
:10270000012123F034FF13B0F0BDA3689B6C1BB113
:1027100008AA04212046984740F6CD40002123F026
:102720002AFFE1E7264A2248032123F022FF254819
:1027300009F0F0FE142221460DA82AF072F80922B1
:10274000A023CDE90E23F02310931F4900942346C4
:1027500002220DA806F074FC034680B11B4A1448FF
:10276000012123F004FF1A481A4C21F033F92060AC
:1027700058B9194A0E48012123F0FBFEC3E7174A56
:102780000B48032123F0F5FEEDE71548606029F0C2
:10279000FCFA08B9134AEDE71348134D214623F01C
:1027A00051FF034620B3114AA9E700BFCEFF020044
:1027B000B0D1020010CD020000000300E7FF0200CC
:1027C0001F000300BC02002068D502003500030092
:1027D0006E000300F0020020740003005A000300A2
:1027E000F0CC02008F000300FC1B0020A6000300B9
:1027F0009D4A9E48032123F0BCFE284600F004FABF
:10280000034620B19A4A9948012123F0B0FE4FF4C3
:10281000A470002123F0AFFE964A9448032123F0D0
:10282000A8FE954800F0D8F9034620B1934A8F4896
:10283000012123F09CFE924A8C48032123F099FE4B
:102840008D4823F060FF034620B18E4A874801215E
:1028500023F08DFE4FF4A470002123F08CFE8A4AF1
:102860008248032123F085FE834823F076FF034648
:1028700020B1864A7D48012123F079FE4FF4A470EF
:10288000002123F078FE824A7848032123F071FE6C
:10289000794800F0B9F9034620B17E4A7348012116
:1028A00023F065FE4FF4A470002123F064FE7A4A01
:1028B0006E48032123F05DFE784B18681B798DF874
:1028C000303000230B900D938DF838306A48052383
:1028D0000DAA0BA923F071FE0346002800F0A18089
:1028E0006F4A0121614823F042FE6E4A5F4803218E
:1028F00023F03FFE012405235F488DF82C400DAAEC
:102900000BA923F05AFE0346002800F08F80664A88
:102910002146564823F02BFE644A5448032123F0F5
:1029200028FE44238DF82C30534805230DAA0BA90B
:1029300023F043FE034600287DD05D4A01214B4829
:1029400023F015FE5B4A4948032123F012FE4A4852
:1029500000F0ACF90346002872D0AA684348009200
:102960000121554A24F075FE544A4048032123F0C2
:1029700000FE052340480DAA0BA923F01EFE0346C6
:10298000002863D04A4A0121384823F0F0FD3A4834
:1029900009A900F0E7F8034600285CD0484A012165
:1029A000324823F0E4FD34480AA923F08EFE0346A2
:1029B000002854D0434A01212C4823F0D8FD424A34
:1029C0002A48032123F0D5FD0026002700240523F3
:1029D000CDE90334CDE906673C4B3D490094CDE990
:1029E00001444FF480623B4821F052FE3A4A1F48AE
:1029F000032123F0BEFD0323CDE90243CDE90667A1
:102A0000CDE90054354B3649364804944FF4806282
:102A100021F03EFE4FF0FF304FF0FF3123F0ABFDD1
:102A2000F8E7DDF83530304A03215BE7DDF8353073
:102A30002E4A03216DE7DDF835302D4A03217EE76C
:102A40002C4A0A48032123F094FD8DE7DDF8353048
:102A5000274A032198E7099B274A0321A0E70A9BFD
:102A6000264A0321A8E700BFBE000300B0D1020040
:102A7000D8000300F2000300FC1B00200B01030040
:102A8000270103003B010300570103006D01030010
:102A9000830103009B010300BB01030074D2020009
:102AA000CC010300F6010300080203003402030016
:102AB0005C020300770203008E020300DC020300C5
:102AC00003030300C5FE0200250303009D2500004B
:102AD00000500020700B00203D030300452500003E
:102AE00040540020F00B0020E50103002202030007
:102AF000B0020300C3020300B3FE0200DFFE0200C7
:102B000007B58DF802200A4A002312888DF801309B
:102B100061F07F018DF80010ADF804208DF80630CB
:102B200001AA0323694623F048FD03B05DF804FBC6
:102B300079D202000A480022D3B2082113F0800F94
:102B40004FEA430318BF83F031030139DBB2F5D1FB
:102B50000132B2F5807F00F8013BEDD1704700BF34
:102B6000724D002030B50C4685B00546B8B1B1B104
:102B70000C4BD3F80300DB798DF804300023009070
:102B800002938DF80C3002AA05236946284623F0EB
:102B900014FD10B9DDF80930236005B030BD6FF0C9
:102BA0001500FAE779D2020010B5044610B96FF0AB
:102BB000150010BD0368002BF9D0186823F0F9FC4C
:102BC0000028F4D02368034ADA604FF480721A8236
:102BD0000020EEE700127A0010B5044610B96FF03D
:102BE000150010BD0368002BF9D0186823F0E1FC34
:102BF0000028F4D02368034ADA604FF480721A8206
:102C00000020EEE780841E0038B5044618B96FF046
:102C10001504204638BD0368002BF8D0586823F00F
:102C2000C8FC0028F3D025681F4A697A686823F039
:102C3000A4FC04460028ECD10246A97A686823F077
:102C4000A8FC04460028E4D12120002123F0B3FC95
:102C5000A97A6868012223F09CFC04460028D8D198
:102C6000A420002123F0A7FC2246697A686823F09B
:102C700090FC04460028CCD10420002123F09BFCCA
:102C8000697A6868012223F084FC04460028C0D1D8
:102C9000A420002123F08FFC697A68684FF4202279
:102CA000BDE8384023F069BC060002002DE9FF4171
:102CB000054620B96FF0150004B0BDE8F081036847
:102CC000002BF7D0186823F074FC0028F2D0214BB9
:102CD00098681B7B8DF804300023009002938DF8D8
:102CE0000C3029F09EFC4FF47A77A0FB070607FB17
:102CF0000166C40B44EA4644B846F60B29F091FC41
:102D0000A0FB080307FB0131C30B43EA41431B1B34
:102D10004FEAD13161EB0601B3F5FA6F71F10001B1
:102D200002DB4FF0FF30C7E7052302AA69462846B9
:102D300023F043FC18B14FF0FF30A860BCE7DDF88A
:102D40000930AB60DB07B7D42120002123F033FC2E
:102D5000D4E700BF79D202002DE9F04F91B084078B
:102D6000009302F004030293C2F3C20303F10103D0
:102D7000DDF86880039205460E46059340F0BA815F
:102D8000041D30B1072909D86FF01B0011B0BDE850
:102D9000F08F01F007063444C6F10806009B4FF09F
:102DA0000009591E4FF0040A4FF0FF330193CDF88C
:102DB00010904F46CB4653460DB1009A22600598BD
:102DC000002800F3E8809848009A824203D397488D
:102DD0008242C0F0E080039AA4EB050E92074FEA0E
:102DE0009E0000F103810F2F00F2B180002D00F052
:102DF000058107F140020DEB020C019A0CF8200C42
:102E00000CF8102C049801300490E7E07A285DD883
:102E10004B280ED8472859D829282DD8252852D0F4
:102E200054D820287AD02338D0F1000B4BEB000B7C
:102E300074E04C382E2849D8DFE800F07048484844
:102E400048484848484848484B48484848484848FF
:102E50004859484B4B595959704B6D487048184B5D
:102E6000184848827F4B48484B487F0000204FF06D
:102E7000000B4FF0040A38E02A38C0B2012202FAEF
:102E800000F010EA0E0F49D110F0625C2FD110EA69
:102E9000020B43D06046013C5444B4FBFAF40AFBF5
:102EA00004F4002D61D0A3EB050CA444B4453FF617
:102EB0006BAF002868D1042B47D158F8043B23603E
:102EC000043404232AE0019A013A01924FF0000BE6
:102ED00024E011F8010C6C2834D111F8023C0020D8
:102EE0006C2B8346C5D14FF0080A5346D3E708F14F
:102EF000070828F007080734F8E802AB24F00704B5
:102F000035B106982044B0423FF63EAFC4E900AB6D
:102F100008344FF0000B4FF0080A534611F8010F28
:102F2000002878D0BBF1000F7FF470AF2528F5D1D1
:102F3000019B013301934FF0010B4FF0040AECE7C2
:102F4000584694E700208346A5E7082B02D06FF08F
:102F500015001BE708F1070828F00708F8E8022326
:102F6000C4E9002308340823D8E768B9042B02D148
:102F700008F10408A4E7082BE9D108F1070828F0B4
:102F8000070808F10808EDE7059A013A059258F894
:102F9000042B009210E7039A900720D5A4EB050EAE
:102FA0004FEA9E004FF0010CBEF5007FCFD20F2FED
:102FB000CDD8F5B107F140020DEB020EC0B2019A77
:102FC0000EF8200C0EF8102CBCF1000F3FF41AAFD5
:102FD00060F07F000EF8200C09F101090137C5F1FE
:102FE0000802043406924FF6DA7E97E74FF0000CA1
:102FF000DAE7BCF1000F01D00136EFE702980236A4
:103000000028EBD10098CDE90631FDF7E5FBDDE9BD
:1030100006310644E2E7631BB3F5806F97D23DB9F2
:10302000A6F10804E018B1E6F0CB0200203403005A
:10303000029A28609B082B709DF81030C2B1EB708B
:1030400085F80290B9F1000F05D008A80022C5F15B
:10305000010C97420ED1C5F101030DF120084FF08C
:10306000000A01930DF1300B574512D1601B8DE61C
:103070006B70E5E710F8013B190608D50CEB040E60
:10308000B64503F07F033FF67FAE04F8013B013203
:10309000DFE7B9F1000F03D098F90020002A17DB11
:1030A000029BD3B11AF80B2004F8012B0022019BDC
:1030B00018191044B0423FF667AE98F8000004F8C3
:1030C000010B00990392204629F083FB039A1444D4
:1030D0000AF1010A08F10108C6E798F8002055F83E
:1030E00022300093029B45F822300098FDF774FBD4
:1030F000421CDCE76FF00D0048E600BF2DE9F04F01
:1031000097B000AF90F802A0D7F880B03B62CBF345
:10311000C0030446FA62BB61894641B9457800782C
:103120000AEB800020444D4517D8A0EB0409E37852
:10313000FB61BAF1000F02D01BF0010F16D1FB6941
:1031400053BBFB6A1BB13A6A4946204698474D4635
:1031500028465C37BD46BDE8F08F461C3046FDF77B
:103160003BFB0130304409F10109DCE72378626858
:103170007A62FA6A9900796104EB8301002A40F0CF
:1031800000814D460E4601EB0A094FF000084E45FE
:103190004CD101EB0A0610E01BF0020FD1D02378CE
:1031A0009A007A6162687A62FA6A04EB8301002A03
:1031B00077D14D4601EB0A0690461BF0050F0CBF78
:1031C00002230123FB62FB6906EB430A0BF00203B7
:1031D000BB625645BCD016F8021B16F8013C54F8E9
:1031E0002390994B994502D3984B994536D3BB69A7
:1031F000002B40D0786A23F0F7FC00283BD0E9464A
:103200008AB06A46924B53617B6AC2E906314FF439
:10321000007313848F4B42F8103F8F4800234FF404
:10322000125100F023FD023DCD46D2E716F8013BD6
:10323000F96254F82300FDF7CFFAD7F88430F96A21
:1032400001304BB1D7F8883098453EBFD7F884306D
:1032500023F8180008F10108054498E7BB6923B179
:10326000786A23F0C1FC0028C9D11BF0010F05D1F9
:10327000FB6AED1AADE7BB6A002BAAD04846FDF702
:10328000ABFAD7F8843053B1D7F8883098453FBFB0
:10329000D7F88420431C22F8183008F101080544AF
:1032A00097E7BAF1000F72D01BF0040672D0D04637
:1032B000002607F1480052463B61B96229F089FABD
:1032C000B96A3B6901EB0A02BA62FA69F96952000C
:1032D000FA60BA6A02EB41023A610BF00202BA608C
:1032E0003A69B96A8A4257D162787A621BF0020F52
:1032F00032440CBF4FEA580100211BF0010FD2B23B
:1033000040F09F801BF0040F14BF40460020BB61BB
:103310006270A070E1703A6A7969FB6A204698474A
:10332000051EFFF615AFBB6923707B6A6370FB69EE
:10333000E37041463A6AFB6A84F802A007F148004C
:103340009847B0F10008C0F2BB807B693A6AA9EBEC
:103350000A01C91AFB68C91AD7E90A039847002865
:10336000C0F2B080A84408EB00054FF0000B07F155
:10337000380AB34572D300213A6AFB6A0846984777
:10338000E6E656464FF0000807F1380093E7564648
:10339000D04697E7B04695E7BA6A12F8021BBA62C0
:1033A00012F8015C284A54F82500904202D3274ABB
:1033B00090421ED3BA6932B1786A7B6023F014FC64
:1033C0007B6800288CD1BA6802BB08F1280207F19B
:1033D000300C08F10100944407F1580252FA80F0D1
:1033E00008F102080CF8101C5FFA88F800F8105C6D
:1033F00076E7BA693AB1786A7B6023F0F5FB7B68BF
:1034000000287FF46DAF1BF0010F09D006F12802F0
:1034100007F13000711C161806F8205CCEB25FE789
:103420001BF0040F3FF45CAF08F1280207F13000F5
:1034300008F1010102EB000808F8105C5FFA81F85E
:103440004EE7002063E700BFF0CB0200203403000A
:10345000890303000400000168D102001BF80A3050
:1034600087F8373054F82390D7F884302BB3D7F847
:1034700088309B4521D2D7F8843033F81B803A6AD4
:10348000FB6A012107F13700984700281ADB054441
:10349000B8F1000F06D14846FDF79EF900F101088A
:1034A0001FFA88F83A6AFB6A41464846984700285E
:1034B00008DB05440BF1010B5BE74FF00008DEE78A
:1034C000454645E6054643E6014B1860704700BF98
:1034D0001003002080B505460E461746984621F099
:1034E000B5FB034629F07AFBDFF81890044649F84B
:1034F0000030424630463946A84754F8090002F0E9
:1035000053FD00BF080000002DE9F047058B04467D
:103510002807904611D4022905F0070540F0CC8019
:10352000204623F029FE78B10138218B042811D8D8
:10353000DFE800F0C2106D85950001290CBF45F051
:10354000100545F02005258388F31188BFF36F8FA0
:10355000BDE8F08701F0070AAA4500F0A580002722
:10356000B9463E46A368002B00F0BC8041F008013C
:10357000218388F31188BFF36F8FA168002900F0C1
:10358000BA800D68002900F0B680D1F80480334677
:1035900052462046C047002D76D02B6829461D464E
:1035A000F0E701F007035A1F012A1BD8002221F07F
:1035B0000701062B276889B2C4E9002209D13B46DE
:1035C00003E0628B013262831B68002BF9D141F06A
:1035D00002012183204623F0CFFD00287AD041F05C
:1035E000200176E0042B0AD121F0070189B2218362
:1035F000204623F0C1FD10B141F020012183218B31
:1036000001F0070AAA454FD00027B946AAE7236967
:1036100021F0070141F00601062DD3F80090218327
:103620002DD1B9F1000F3FD041F00801218388F37B
:103630001188BFF36F8F3A492046C84729E021F02F
:103640000701236941F0040189B2042DD3F80490E5
:103650002183E6D000273E464FF0040A82E721F09E
:103660000701236941F0050189B2052DD3F80890BF
:103670002183D6D000273E464FF0050A72E7002787
:103680003E464FF0060A6DE72B4687E7B9F1000F7B
:10369000D1D1EFF31188202383F31288BFF36F8F0A
:1036A000238B23F008032383258BEA062ED525F0F0
:1036B0001003238305F007056669218B002EBFF6F2
:1036C00070AF00232768C4E9003321F0070141F0FF
:1036D00001012183218B01F0070AAA454FF000095F
:1036E0007FF440AF002F9CD041F00801218388F384
:1036F0001188BFF36F8F002FC8D03D68394633461D
:103700005246204623F064FD2F46F4E7AB067FF5D2
:103710001BAF25F02003238305F0070500E700BF5A
:10372000FD7102002DE9F047DFF858800446074696
:103730004FF0010914B93846BDE8F08794FAA4F5B2
:10374000B5FA85F509FA05F32E0108EB05156FEAC0
:10375000030A24EA03042B7B002BEBD058F8063035
:103760001B694BB94644042273682846196807EA66
:103770000A0723F0ECFEDDE7284698470028D9D158
:10378000F0E700BF10D2020030B51049104889B0F0
:10379000002228F08DFF0F4D0F4900220023CDE9B4
:1037A000062300240E23CDE90334CDE901440B4B5D
:1037B00000944FF44072284620F06AFF08492846DA
:1037C00028F0F6FD204609B030BD00BFE537000007
:1037D000F8100020700C002080580020113B0000E1
:1037E0003D040300014820F011BC00BFC4080020C4
:1037F0002DE9F047804621480F4623F088FE064613
:10380000002833D000252846BDE8F087237B83B10C
:103810002368DB680BB120469847636883F80690FD
:1038200023681B69D3B9636804221968204623F012
:103830008EFE013610345445E8D3B8F1000FE2D0C3
:10384000002DDFD02846FFF76DFF0546002FF7D08B
:1038500000214FF4A47028F05DFEF1E72046984760
:103860000028E0D009FA06F31D43E2E7044CDFF834
:1038700014A005464FF00109DDE700BF1C1E002023
:1038800010D2020020D20200014B53F820007047F2
:10389000DCD5020008B5034608462BB1044A136084
:1038A00000F07AFC002008BD6FF01500FBE700BFB8
:1038B0001403002010B5044C237813B9034820F0FA
:1038C000A5FB0123237010BD724E0020C408002008
:1038D00010B504460B4823F01AFE5CB1BFF35B8FB2
:1038E000094B53E8001F013943E80012002AF8D1C0
:1038F000BFF35B8F054828F0E7FE0548BDE81040A0
:1039000020F084BB141E0020181E0020F810002098
:10391000C40800200020064BBFF35B8F014653E82C
:10392000000F43E80012002AF9D1BFF35B8F704704
:10393000141E002070B5FFF7EDFF084C084E054639
:10394000B44200D370BD63685B792BB123685B68B8
:1039500013B12946204698471034F1E710D20200EF
:1039600020D2020010B5044C0449204623F082FA0C
:10397000034B1C6010BD00BFE4070020C8D5020047
:103980000C1E00200D4A0E48002310B513700D4A7E
:1039900013600D4A4FF400411360FFF77BFFFFF700
:1039A000E1FF0A4B0A4918468B4200D310BD1A1A90
:1039B0005C681211013222711033F5E7734E00205A
:1039C0000B750200141E0020181E002010D20200E9
:1039D00020D20200014600220148002323F06BBAE6
:1039E000E4070020014823F004BB00BFE4070020E7
:1039F000024B0146186823F050BB00BF0C1E00208C
:103A0000014823F085BB00BFE407002070B5294BB7
:103A1000187800284DD0FFF7E5FF0546002845D16E
:103A2000254B264C1B68002B19DD28F0FAFD4FF4BE
:103A30007A72A0FB020302FB0131C30BD4E9002020
:103A400043EA41439B1A4FEAD13140F2E93261EB3C
:103A50000001934271F1000101D3FFF76BFFD4E93C
:103A6000003213F57A7342F10002C4E90032BDE876
:103A70007040FFF7C5BF63685B7923B123682946AF
:103A80001B68204698471034B442F4D32846FFF709
:103A9000AFFFBFF35B8F0A4B53E8001F013943E8C8
:103AA0000012002AF8D1BFF35B8FB9E7054C064E30
:103AB000EAE770BD724E0020141E0020F0100020B6
:103AC000181E002010D2020020D2020070B50D4D49
:103AD000297861B90120FFF78BFE0B4C0B4EB442E5
:103AE00006D3FFF793FF0028FBD101232B7070BD95
:103AF00063685B791BB1236820469B689847103444
:103B0000EDE700BF734E002010D2020020D2020069
:103B100000212DE9F0470846FFF76AFE044658B336
:103B200040F267684FF0000929F058F81B4B1C4A17
:103B30001B58136033B11B4B1B68092B02DD1A485D
:103B400020F064FA194FDFF860A0002544B1204648
:103B5000FFF7E8FD044618B94FF0FF384FF0FF3982
:103B6000FFF754FF064628B9B5B942464B465046C2
:103B700020F086FA3546E9E74FF0FF384FF0FF397D
:103B8000D2E72B689B691BB1002211462846984753
:103B90001035BD42F5D3E8E7054DFAE7080000000F
:103BA000101E0020181E0020C408002020D2020091
:103BB00010D2020013B5184823F0A9FC174B1B784C
:103BC00073B1EFF31184202383F31288BFF36F8F57
:103BD000FFF71CFF84F31188BFF36F8F02B010BD95
:103BE0000F4B1B68002BF9D050B900220023CDE900
:103BF00000230C484FF40042002321F007FBEDE7BF
:103C00000928EBD1074828F05FFD074802B0BDE85E
:103C1000104020F0FBB900BF181E0020734E00209A
:103C2000101E0020F8100020C408002010B5064B1C
:103C30001B68044698472146A060044823F0BAF95F
:103C4000BDE81040FFF7B6BF14030020E4070020D2
:103C5000044A054B9B1AB1EBD30F34BF52F8310025
:103C600000207047C0D0020010D202002DE9F04FB2
:103C70008FB004AFC1F34A28B8600D4691467B600F
:103C80000C0DB8F1000F63D0002607F114034FF0BC
:103C9000040B4FF00A0AC7F80C80C7E907667E627A
:103CA0000193CDF808B0CDF800A007F11C03F96826
:103CB00032464846FFF722FAB0F5006F03461CD3A0
:103CC0006C468AB0D9F8041004AB2648C3E9050154
:103CD00040F2FF71D9611A464FF400711984224BEA
:103CE00042F8103F214833464FF41251FFF7BEFF10
:103CF000A5462C37BD46BDE8F08FC0F30A0804F195
:103D00001700184420F0070080083B60FFF762FEB0
:103D100068F35325044690B13B68154AC7E9083655
:103D200000F1100107F11403F961CDE900A3CDF80A
:103D300008B0F96807F11C034846FFF7DFF968F39C
:103D400053257B68B9682A46204623F01FFCD0E73C
:103D500004F1170020F007008008FFF73BFE04463F
:103D6000EDE700BF520403000400000198D10200F7
:103D7000617502002DE9F04F87B0DDE91279DDE9C8
:103D8000105A0446039193469846BFB1CDF800906F
:103D90003B46524610210020CDF81490FEF7DCFF80
:103DA000B0F5006F06460AD3184A194840F2FF736F
:103DB000022107B0BDE8F04F23F041BC3E4605F1BB
:103DC0001700304420F0070004F007048008FFF7D4
:103DD00001FE0BF0070BE40044EA8B1444EA46248E
:103DE00044EA0554054640B13FB1CDF800903B464A
:103DF000524631461030FEF7AFFF03994346224644
:103E0000284607B0BDE8F04F23F0C0BB9104030083
:103E100098D10200406820B1034BC01A40F3CF0094
:103E200070474FF0FF307047C0D002000EB403B5AA
:103E300003AB014653F8042B0448019302F060FBE6
:103E400002B05DF804EB03B0704700BFA17602003A
:103E5000CA0605D48B064CBF02490349FFF7E6BFEB
:103E6000704700BFCA040300C90403002DE9F04FE6
:103E700089B09B46149B06939DF84CA0159B059317
:103E8000169B179E049304460D469046BAF1000F08
:103E900000F09D8006F48073079323F056FB06F034
:103EA0000209024600283ED091492046FFF7BEFF96
:103EB0000746B9F1000F08D016F0440F35D18D49EF
:103EC0002A462046FFF7B2FF074406F0010353B12C
:103ED000894B8A4953F82A20894B2046002A08BF7B
:103EE0001A46FFF7A3FF06F48073002B49D006F0B3
:103EF0000803002B63D1B8F1000F66D08149424618
:103F00002046FFF793FF0546069B3D44002B6DD1ED
:103F1000049B002B73D1F30700F1E4803146204667
:103F2000FFF796FFD8E00746C3E7774B18680028ED
:103F3000CAD0764B4FF47A791B68B5FBF3F54FF492
:103F40006163B5FBF0F100FB115509FB05F54FF07E
:103F50003C0CB1FBF3F203FB1211B5FBF0FEB1FB1D
:103F6000FCF300FB1E550CFB131109FB05F500913A
:103F7000B5FBF0F56649CDE901E52046FFF756FFB0
:103F8000A2E706F00803EBB1624B634953F82A201D
:103F90002046FFF74BFF0546B8F1000F05D0594901
:103FA00042462046FFF742FF0544BBF1000FABD06D
:103FB0005A495A462046FFF739FF0544A4E74FF017
:103FC000000BE1E706F00805E6E745469CE7BBF194
:103FD000010F069B06D1002B64D1049B002B7BD0E4
:103FE00000250CE0002BF8D04D485CE04D48069BC6
:103FF0004D49224622F0C7FD049B002B68D0DFF814
:104000002C81DFF82C91049F3146102F204628BFC9
:104010001027FFF71DFF4FF0000B5D4545DC059BAA
:1040200049461A782046FFF701FF4FF0010B1BF0BD
:10403000070F03D141462046FFF7F8FE5F453BD905
:10404000059B494613F80B202046FFF7EFFE0BF1C6
:10405000010BBBF1100FEAD1364920464FF0000B9F
:10406000FFF7E4FE5A46059B9A5CA2F120015F2906
:1040700028BF2E2230492046FFF7D8FE0BF1010B56
:10408000BBF1100F1DD01BF0070F03D14146204696
:10409000FFF7CCFE5F455A46E5D841462046FFF77C
:1040A000C5FEEBE71F485546A1E741462046FFF70E
:1040B000BDFE0BF1010BB0E720492046FFF7B6FE2D
:1040C000C5E7059B3B440593049BDB1B04939AD1F6
:1040D000BAF1000F7FF41FAF204609B0BDE8F04FE2
:1040E00023F0D1BA064A05492046FFF79FFE15E79F
:1040F000D1040300D5040300ECD502000A13030029
:10410000CC040300FA040300241E0020201E00201B
:10411000DE04030000D60200FE04030004050300D1
:10412000D7760200A17602000165000011050300A8
:104130000905030013050300150503000F0503001F
:1041400073B542F20F738B4228BF0B4605680F4AC6
:1041500004460521684621F0E1F863680C495B6874
:1041600006460B22284623F080FA636832466946E9
:1041700028465B6823F079FA636806495B681B226E
:10418000284623F072FA02B070BD00BF220303007C
:104190003405030018050300074A0021012390425B
:1041A00006D8064A01B901231360054B1860704711
:1041B00040085B000121F2E740420F00201E002072
:1041C000241E0020F8B5074F0D4604464618B44299
:1041D00001D12846F8BD14F8011BBB6801485B6893
:1041E0009847F4E710CD0200014B036000207047B0
:1041F00048D60200F0B40C4B0C4E5F6A0C4BB34235
:1042000003D36FF08500F0BC70475D68BD4209D3F1
:104210001C693CB195F802C00579AC4502D1234632
:10422000F0BC18472433EAE7541E0020700B00202E
:104230004C0B00202DE9F047134CDFF85080DFF8DD
:10424000509005460E461746444503D36FF085004F
:10425000BDE8F0876268D9F824309A4212D3A36986
:1042600083B190782979884205D13A46314628466B
:10427000BDE8F04718475279012A03D13A46314642
:10428000284698472434DFE74C0B0020700B0020B1
:10429000541E00202DE9F0410B4CDFF8308005461C
:1042A0000E461746444502D36FF0850009E0636966
:1042B0000BB92434F6E73A46314628469847002899
:1042C000F7D1BDE8F08100BF4C0B0020700B00203F
:1042D000024B00221A605A60704700BF0F1F002077
:1042E00070B50B4B0B4CA34201D3002070BD196A73
:1042F0001E7F00220439D5B2AE4201D82433F2E742
:10430000013211F832508542F5D10120EEE700BFAD
:104310004C0B0020700B002008B5044A0346012115
:10432000034823F054FA002008BD00BF7A050300BB
:10433000F8D1020038B5054626F007F810F1780FDD
:10434000044611D10D4A0E482B46022123F03FFAB4
:10435000284623F03EFA0B4AD2F8C43023EA000381
:10436000C2F8C430002407E00028F1D0064A04480F
:104370002B46012123F02BFA204638BD950503007A
:10438000F8D10200541E0020B605030008B5094804
:104390000378C3F341130A3350F823303BB100F1E3
:1043A000080200F110019847C043C00F08BD18462D
:1043B000FCE700BF541E002004282DE9F74FDFF86A
:1043C0009C9004460F4615D001282FD1DFF890802D
:1043D00098F8B93053B300F0E9FE224D4D4522D292
:1043E0002A6A4FF0000A2B7F5FFA8AF6B34204D89C
:1043F0002435F3E7FFF76CFFE8E702EBC60601920E
:10440000307925F0A2FF8346307923F0E2F9D8F81D
:10441000C430019A23EA0003BBF1000FC8F8C4308E
:104420000AF1010ADFDA002388F8B9300D4D4D4555
:1044300008D30B4B1B6A6BB13946204603B0BDE86D
:10444000F04F1847EB681BB13A462146284698477B
:104450002435ECE703B0BDE8F08F00BF700B0020FF
:10446000541E00204C0B002073B5C4B263060D46E9
:104470008DF8074007D02046FFF732FFB0B1144B4C
:1044800093F8BA0090B1124E23468DB1114A1248EA
:10449000032123F09CF99DF8070019F065FFF369EB
:1044A0001BB10DF1070108209847012002B070BD33
:1044B0000A4A0948032123F08AF99DF8070019F0F8
:1044C00085FFF369002BF0D00DF107010920EBE720
:1044D000541E0020D8050300F8D10200EB050300AC
:1044E00073B5044680788DF8000023796279294DF0
:1044F00043EA0223ADF80230E37803F003038DF8BA
:10450000043023F066F9D5F8C430184206460CD0C2
:10451000A478204600F02CFE2046FFF70BFF27F082
:1045200041FF10B9962020F04FFB684619F0EEFECF
:1045300010F1780F9DF800301BD1174A174802215F
:1045400023F045F99DF8000019F07CFF10F1780F79
:1045500019D19DF80030124A1048022123F037F992
:10456000D5F8C4300120334385F8B900C5F8C4300C
:1045700007E00028E6D00B4A0848012123F027F97C
:10458000002002B070BD0028EAD09DF80030064A35
:10459000F2E700BF541E002000060300F8D102001D
:1045A0004706030023060300670603002DE9F047D2
:1045B000A34EB36904460F461546FBB9237803F0B2
:1045C0001F03012B00F09D80022B00F0048133BB00
:1045D00094F900002A686178002834DA062912D09C
:1045E00008292BD0D9B901231370517096F8C33024
:1045F0005B0043F00103137002232AE1984700286F
:10460000DCD100200DE06288100A011F01298446D8
:1046100005D9072803D8716AD2B20C781CB96FF09B
:104620001500BDE8F0874E78664503D19A4200F048
:104630000B8101332144F0E70B780AE196F8BA3098
:104640001370012305E101390829E8D801A353F8C3
:1046500021F000BFED4600001F460000FB460000B1
:104660001F460000794600001F4600001F4600005C
:104670001F46000085460000A07819F009FE0028BA
:10468000BFD0CCE76388756A63BBFFF721FE638800
:1046900086F8BA30F369002BB3D06A4903209847F3
:1046A000AFE76B78042B10D0052B11D0022B04D16F
:1046B0006F796388BB4208BF01202B781D442B789B
:1046C000002BEED10028AAD0DFE795F80380F4E7AD
:1046D0006388BB42F1D1B8F1000FEED12846FFF755
:1046E000FFFEEAE7FF270020B846E8E76388012BD2
:1046F00095D1002386F8C33083E76388012B8ED1E0
:10470000F8E796F8BA30D5F800C0002B87D0756A64
:10471000A38894F804E02A46107800283FF47FAF7D
:104720005178022904D192F80480F04500F2938078
:104730000244F1E78CF800208CF80120396060E732
:10474000154494E00B2A7FF46AAF00274FF0FF086E
:10475000C146BA4606E06B78042B0FD0052B21D05A
:104760002B781D442B78002BF5D1F36913B15146FA
:1047700007209847002F7FF444AF50E795F8028058
:10478000A38895F803909845EAD163889945E7D1C5
:10479000B8F1070F1CD806EB0803AA4683F8BB90B4
:1047A0000127DDE7A3884345DAD1A3784B450AD03A
:1047B000AF78384600F0DCFC3846FFF7BBFDB0FAB6
:1047C00080F77F09CCE72846FFF78AFE0746C7E750
:1047D000AA460027C4E794F900206378002A18DA73
:1047E000002B7FF41CAF24792D6863060AD0204685
:1047F000FFF776FD00283FF412AF96F8BA30002B91
:104800003FF40DAF2946204619F000FE00236B70DF
:10481000F2E6012B08D0032B7FF401AF6388002B55
:104820007FF4FDAE012103E0618800297FF4F7AE3B
:10483000A088FFF719FE00287FF4E3AEEFE600BF83
:10484000541E00200E1F0020022829607FF4F4AEC1
:104850004B883B60D5E694F9000062780028BFF6EB
:1048600071AF002A3FF466AF0A2A7FF4D8AE2A78E7
:10487000002A3FF4D4AE697804297FF461AFA978A7
:104880008B427FF45DAF072B96BF9B19002393F8F3
:10489000BB308CF80030D4E62DE9F84FDFF83CB09F
:1048A000DFF83CA005460F469046994604264B4645
:1048B00042463946284619F0EFFD10F10B0F044629
:1048C00009D12B465A460221504622F080FF20F0A3
:1048D000F7F8013EEBD12046BDE8F88F88060300CB
:1048E000F8D1020013B5164C237DF3B9E268A16834
:1048F000019201AB8020FFF7CFFF019AA368134418
:10490000A360E3689B1AE3606BB962B12369E28834
:104910009A4208DD94F8C82093FBF2F102FB1133B0
:104920000BB90123237502B010BD00231A461946A6
:104930008020237502B0BDE8104019F0ADBD00BF66
:10494000541E00207FB500230D4601930646002823
:1049500062D100293AD108220B460DEB020125F065
:104960000DFD002804DA802019F0FEFC04B070BDB3
:104970002E4C029A2260039A626004F13802A2600F
:104980009DF90820BDF80E302575002AC4E90355AD
:104990000FDB802B09D9264A2648012122F046FE4A
:1049A000802019F0E1FC2846DEE713B1C4E90333A7
:1049B000DCE7FFF7EBFC0028D5D0E28823699A42B8
:1049C000D4BFE260E360FFF78DFFCFE7174CD4E977
:1049D0000212002A01AB05DC024625F0CFFC0028BC
:1049E000C4DAC0E725F0CAFC002804DA802019F0F8
:1049F000BBFC3046B8E7019AA3681344A360E368A0
:104A00009B1AE360002BB1D104F13803A360FFF7D8
:104A1000BDFC0028D7D1A6E78028A7D1034BDA68D0
:104A2000002AD0D11B7D002BCDD19FE7541E002042
:104A3000AF060300F8D10200054B064A9A62064A07
:104A4000DA62064A1A63064A58629A610020704781
:104A5000541E0020AD450000F541000095420000C5
:104A6000354200002DE9F34104464C4D4C484FF0CF
:104A7000FF334FF0FF321FF0CFF995F8B8306BB12C
:104A8000484A4948022122F0D1FD6FF0770444489A
:104A90001FF03AFA204602B0BDE8F0816B6A6BB9AC
:104AA00000F0D4F8FFF7C8FF6B6A3BB93F4A3E48B5
:104AB000012122F0BBFD4FF0FF34E8E73C482C62B7
:104AC000E8616E6A19F02AFE19F0B0FB041EDEDB05
:104AD00000F08EFB041EDADB7378012B01D1F37931
:104AE0003BB9344A3048012122F0A0FD6FF0150493
:104AF000CDE70026684685F8C830ADF802308DF85D
:104B000004608DF8006019F001FC041EBFDB8027F3
:104B100068468DF8007019F0F9FB041EB7DB2649D2
:104B2000304619F0E7FD041EB1DB2349384619F081
:104B3000E1FD041EABDB214CDFF8848044451AD331
:104B4000002019F07FFC041EA1DBD5F8C4308020C2
:104B500043F00103C5F8C43019F074FC041E96DB61
:104B6000D5F8C43043F48033C5F8C430012385F848
:104B7000B83000248BE7276A0026227FF3B29A42DE
:104B800001D82434DAE707EBC30257F83310107961
:104B900019F0B0FD01360028EFD08CE7541E00203C
:104BA00098080020C8060300F8D10200EB060300B5
:104BB000B943000010070300454900004C0B0020DA
:104BC000700B002030B51F4B8BB005AA03F1100508
:104BD00018685968144603C40833AB422246F7D11B
:104BE0001B7823701022002101A827F01AFE122240
:104BF0000021154827F015FE102101A825F0C5FC5D
:104C000000281BDD0828B8BF0820093801AB0E4971
:104C10001A18002012F8013F0AAC04EB131403F039
:104C20000F0328336B44013014F8144C13F8143C70
:104C30000C7008284B7001F10201EBD102480BB057
:104C400030BD00BF4A070300764E00202DE9F04F2B
:104C50008A4B87B093F800A000AFBAF1000F04D0E0
:104C600087481C37BD46BDE8F08F854C00264FF0C5
:104C70000119FE603546B04623783BB9814B0234BA
:104C80009C42F3D17D4A01231370E9E76378052B39
:104C90001DD8DFE813F0AF000600F000AF001F00E2
:104CA0005000402387F810A07B8287F814A007F1FA
:104CB000100019F0FFFA40B108237B8207F11000C1
:104CC00019F0F8FA08B1A7F812A07B8AE3712378EB
:104CD0001C44D1E7E378002BF9D1A37813B3FB6828
:104CE0000133DBB2FB60F2E76B689C421CD02435D9
:104CF000654B9D42F8D36D4688B06A46634BC2E966
:104D00000534032342F8103F614800234FF4C25199
:104D1000FEF7ACFFAD465E485E4A012122F086FCFC
:104D200000209EE75C4DE3E7AB68002BD7D0F96825
:104D300020469847D3E7002D5AD1584A54480121BC
:104D400022F074FCE7E72B6AA07803EBC2010B7931
:104D5000984247D14FF0010BE07800F0030038751E
:104D6000207994F805C040EA0C20788294F902007A
:104D700000285FFA8BF328DA0BF110004FF0010CDA
:104D80000CFA00F010EA090F27D143F080003874C4
:104D900007F11000C7E90031BA6019F08BFAD7E9C2
:104DA00001123B68C8B93A7CA27012F0800F18BF9C
:104DB00010330A7118BFDBB24FF0010214BF9A40E2
:104DC00002FA0BF249EA020981E7012000FA0BF02E
:104DD00010EA090F01D11846D9E70BF1010BBBF11D
:104DE000100FB9D101322B7F9A42ACD32C4AA5E7E0
:104DF0000022F8E7032E24D1FFF7E4FE8346A0B19A
:104E0000FBF7EAFC034680B1102806D0B860254ABB
:104E10001F48022122F00AFCBB68102BA8BF1023F8
:104E20001A465946A01C27F0D4FC23786FF00201E3
:104E3000E218091B04EB5303D14209D50136F6B23F
:104E400045E7002EF1D1B8F1000F08D1164A75E7F9
:104E500002F801AC13F8010902F8020DECE7A4EB2B
:104E6000080388F80230C3F3072388F80330FB688F
:104E700088F80430E2E7A04629E700BF754E00201D
:104E8000840A00204B0B0020700B00205B070300FE
:104E9000F0D10200410803004C0B00207B07030007
:104EA000BC070300D90703002408030010B5094B11
:104EB00000211A461C78844205D15C681CB1482345
:104EC00003FB012010BD0131042903F14803F1D196
:104ED0000020F7E7201F00202DE9FF4150F8303C6B
:104EE00010F8346C103304460AD1036950F8282CAA
:104EF00098073DD5D2B9590715D5002344F8303C61
:104F000054F8303C10330BD054E9097554F81C8C1C
:104F100027F048FA002857D03248214627F0B5F943
:104F200004B0BDE8F08143F00403236103AB54F8FF
:104F30002C1C3046FFF7B0FC034640B12A4A2B48F0
:104F40000096012122F085FB6FF01503D6E7039A46
:104F500054F82C3C134444F82C3C54F8283C9B1A3D
:104F600044F8283C54F8243C134444F8243CC7E754
:104F700003AB54F82C1C304619F018FB03460028EC
:104F8000DCD1039D54F82C3C2B4444F82C3C54F8C1
:104F9000283C5B1B44F8283C54F8243C2B4444F840
:104FA000243C002DA9D0304619F0BEFBB5FBF0F330
:104FB00003FB1055002DA0D154F8283C002B9CD0A9
:104FC000304619F049FB9BE744F8200CA4F1180087
:104FD0001FF01CF8002DA3D0424639463046A847A2
:104FE0009EE700BF301100206F08030008D20200C6
:104FF0004B1E012B73B506460D4614D8FFF756FF1E
:10500000044690B9012D0ED101AB01220DF103012F
:10501000304619F0CBFA019B002BF5D10C4A0D4814
:10502000012122F003FB02B070BD27F0BBF904F1AF
:10503000340108B1012D05D1084602B0BDE8704029
:10504000FFF74ABF044802B0BDE8704027F01DB921
:105050008C08030008D20200301100202DE9F74F20
:10506000064601911746984622F0F1FB04460028B7
:105070006FD1EFF311830093202383F31288BFF3E2
:105080006F8FDFF8D4900022002348461EF0F8FF0F
:10509000A0B9DFF8C8A0482262430AEB020BDBF894
:1050A000045015F1100F1ED12D4A2E483346012110
:1050B00022F0C5FA48461EF0A9FF0BE00134042C8B
:1050C00009F14809DFD1284A2648012122F0AEFA29
:1050D0006FF00B05009B83F31188BFF36F8F284699
:1050E00003B0BDE8F08F0AF802600C9A019BCBF880
:1050F00014200D9ACBF81000CBF8182030466FF032
:105100000F02CBE90237CBF84480CBF8042019F02A
:105110000BFB68B1304619F007FBB7FBF0F202FB5E
:1051200010772FB1DBF8442042F00402CBF8442082
:1051300018F0020F08D0482303FB04A10B483431B8
:1051400027F0A3F80025C5E7304619F085FA054693
:10515000C0E76FF00F05C2E73C1F0020201F0020B2
:10516000C108030008D20200A60803003011002085
:1051700010B5EFF31184202383F31288BFF36F8FF0
:10518000FFF794FE50B14368103307D16FF08B03E3
:10519000436000F13401044827F077F884F3118864
:1051A000BFF36F8F10BD00BF30110020F8B50E4C5B
:1051B00004252027EFF3118687F31288BFF36F8F42
:1051C0006368103307D16FF08B030848636004F104
:1051D000340127F05AF886F31188BFF36F8F013D31
:1051E00004F14804E6D1F8BD201F00203011002052
:1051F00070B50A4C0A4E00253146204627F029F8A2
:105200000122A4F118001146013526F09FFF042D5C
:1052100004F14804F0D1002070BD00BF541F0020ED
:10522000D94E00000169012381F84B300B6833B17E
:1052300091F849301BB10248083127F026B8704771
:10524000301100200169012381F84A300B6833B125
:1052500091F848301BB10248083127F016B8704762
:105260003011002070B50569EFF31186202383F318
:105270001288BFF36F8FD5F8900022F0F1F8044642
:1052800086F31188BFF36F8F30B1044800220023EA
:1052900005F118011FF012F9204670BD30110020F1
:1052A00070B5012382F8483013680D4614463BB1AF
:1052B00092F84A3023B10E4802F1080126F0E5FFCA
:1052C000D4F89030DA885B899A4205D17DB904F12F
:1052D000180140F6CD4204E004F11801002DF8D089
:1052E0000022BDE87040024800231FF0E7B870BDFF
:1052F0003011002070B504460E4601791548154658
:1053000022F081FA10B394F900206378002A16DBAA
:10531000202B04D0222B0ED06FF085000AE02B68E2
:105320001A6840F8102C9A8820F80C2C9B7900F809
:105330000A3C002070BD638800F8093CF9E7212B86
:10534000EAD11038072328603360F2E76FF01200CB
:10535000F0E700BF4020002008B50146034822F0D6
:1053600060FA10B1012300F8073C08BD402000207E
:105370000D4A03460021A0F848101068C3F89400B5
:1053800090889279A3F8980083F89A2083F89C106B
:1053900083F89B10A3F89E1083F8A010402203F11D
:1053A0004C0027F03EBA00BF86D2020010B5046957
:1053B0000023C4F8A8300C4BC4F8A400596804F1C9
:1053C000A80269B9C3E9002204F10800074926F0E0
:1053D00040FF04F11800064926F088FF002010BDA8
:1053E0000A605A60F0E700BF402000207978020090
:1053F000A954000030B54FF40033426805690D4CE4
:1054000085B042F2A100CDE90103002385F89D306B
:10541000106AADF80C1000790A2201A9FFF73CFAD6
:1054200095F89D3023B9012026F0AAFC013CF7D164
:1054300005B030BDA186010073B504698DF8071071
:10544000002384F848302025EFF3118685F3128875
:10545000BFF36F8F0122D4F890000DF1070121F006
:10546000FFFF86F31188BFF36F8F01280AD026F063
:1054700099FF10B994F8A1306BB9094B1A780AB9A1
:1054800001221A702122002304F1180105481FF09F
:1054900015F802B070BD0021212027F03BF8D3E7BA
:1054A000884E002030110020F0B5D0F88C305B68B9
:1054B0001B6A1F7D85B00546384622F0C8F90646AE
:1054C00050BB95F886303BB3A86F0146C38831F8CE
:1054D0000A2F9B1A9BB2B3F5806F28BF4FF48063ED
:1054E00003AA21F06EFF0446B0B18306A5F11803AC
:1054F00008BF00F1FF3485F830600193074B039932
:105500000093224602233846FFF7A8FDA86F2246E3
:1055100000F10A0121F08BFF05B0F0BDA15200009F
:1055200037B514460A1E054621DDD4F88C0004F177
:105530004C0121F095FF012384F8493023683BB1E9
:1055400094F84B3023B1114804F1080126F09DFE78
:10555000D4F88C209388918912695B1A9BB2D31A74
:105560003F2B04D8012384F8A03003B030BD94F859
:105570009E30002BF9D0064B00930194012340226A
:1055800004F14C012846FFF769FDEEE730110020D9
:1055900021550000F7B50D4601461D4822F027F9B8
:1055A000044610B30646691E56F8A4395F680529FB
:1055B0001BD8DFE801F01C1A031C222610F8061C79
:1055C00099B9012300F8063C3B6A3246187BFFF785
:1055D000A7FF14F85C2C42B93B6A187D0D4B009371
:1055E000019602231146FFF739FD03B0F0BD3046A6
:1055F00003B0BDE8F040FFF7BBBE012304F8053C53
:10560000F3E710F8053C002BEFD00023F6E700BFCE
:1056100040200020A152000037B5094D094900245F
:1056200000944FF0FF334FF4806228461EF008FFCD
:105630000549284626F0BCFE204603B030BD00BF19
:1056400030110020C05B0020050903001FB50724AE
:105650000294044C0194BDF81840009424F016FA0A
:1056600004B010BDC50700202DE9F0411F46104BC6
:1056700088B01B680DF114089B68044640460D462F
:105680001646984700238DF81D3070B90A23CDE9DE
:105690000183BDF83830009332463B462946204608
:1056A00024F0F4F908B0BDE8F0816FF0FE00F9E7EE
:1056B00048200020B0B5124A124B00AF6D4688B0AA
:1056C000012908BF13460C466A460F49C2E9051373
:1056D0004FF4007393830D4B42F8103F00230C48A6
:1056E0004FF4E651FEF7C2FA0A4B1B681B68AD4641
:1056F0001BB1621E504250419847BD46B0BD00BF2D
:10570000B42D0300AD0503002B09030003000001C5
:1057100078D102004820002030B50F4B8BB01B68B9
:1057200001AD04469B68284698478DF80D40044615
:1057300078B90146182204A827F073F8074B2046D1
:10574000CDE9053504A90A23ADF81C3007F0EAFAC3
:10575000044620460BB030BD48200020E8D60200A9
:105760001FB51348BDF8181004686068B0B1C1B91E
:105770000A2B16D110685168128901AB03C31A8035
:10578000636801A8984778B90120FFF7C5FF002892
:1057900014BF6FF00D000A2004B010BD6FF01000B0
:1057A000FAE76FF00600F7E76FF07F00F4E700BF5D
:1057B00048200020024B01221A700020704700BFD1
:1057C000894E00201FB501240294044C0194BDF8B9
:1057D0001840009424F05AF904B010BD894E0020FE
:1057E000B0B5144A144B012900AF6C4688B006BF0F
:1057F0001346012500256A461049C2E905134FF4F6
:10580000007393830E4B42F8103F00230D484FF472
:10581000E651FEF72BFA0C4BA5461C683CB154F838
:10582000083C083C0BB128469847A468F6E7BD46FB
:10583000B0BD00BFB42D0300AD0503004409030053
:105840000300000180D102004C20002070B51646F4
:105850001D46104A1048032121F0F1FE0F4B1C6831
:105860007CB1083C6FF0850063682BB130789847B5
:1058700010B110F1860F09D1A4680CB1083CF3E710
:1058800010B16FF07F0070BD2846FCE76FF00D008F
:10589000F9E700BF5909030080D102004C20002025
:1058A00010B5084C86B024788DF817400124029476
:1058B0000DF117040194BDF82040009424F0E6F89F
:1058C00006B010BDCC07002080B50C4A0C4B00AFD1
:1058D00088B0012908BF13466A460A49C2E9051380
:1058E0004FF400739383084B42F8103F074800239E
:1058F0004FF4E651FEF7BAF9BD4680BDB42D030062
:10590000AD0503007709030003000001C0D00200C9
:1059100038B5124A124B11781B7899420BD0022BE2
:10592000104D137008D1104C03E0A36803B19847E1
:105930000C34AC42F9D338BD012B0B4C0AD0AC422D
:10594000F9D2236803B198470C34F8E7636803B1D0
:1059500098470C34AC42F9D3EDE700BF8A4E0020E3
:105960008B4E0020C0D00200C0D0020008B504F069
:1059700077FA034B00221A54BDE80840FFF7C8BF6E
:105980008B4E00207FB51C46BDF8203006461146E0
:10599000ABB9012C16D1224601A822F036F901A894
:1059A00022F07DF90546304604F05AFA084B022DE4
:1059B0001D540AD8FFF7ACFF204604B070BD6FF04D
:1059C0000600FAE76FF00C00F7E76FF01200F4E75B
:1059D0008B4E00202DE9F047064600AF0C4600290B
:1059E00036D0E9468AB0D1E90012A3686D46214855
:1059F000A8464FF0050AC5E90501C5E9072348F89F
:105A000010AF1D48424600234FF42151FEF72EF9F6
:105A1000CD46D4E903126369AD461848C5F810A015
:105A2000C5E90501C5E907231348002342464FF4A1
:105A30002151FEF71BF9CD46E369114A0E480121B9
:105A400021F0FDFDA3690F4A0B48012121F0F7FD6C
:105A5000012E07D1EFF305830B4A0748103B31466F
:105A600021F0EDFD214630461DF0E8FFBD46BDE8C2
:105A7000F08700BF94090300D8D10200C3090300D6
:105A8000F2090300010A03002F0A030030BFFFF7E9
:105A9000FDBF00BF2DE9F0410B4EDFF8308006EB73
:105AA0000807CC1B054632460949204626F091FEE0
:105AB000A01942460021083C26F0B3FE6C6707F1AE
:105AC0000800BDE8F08100BF0000000008000000F1
:105AD00020D20200054B5A699B689A421FBF044AB4
