:10000000C0440020B9220000DF710100A5220000D9
:10001000A5220000A5220000A5220000000000008B
:100020000000000000000000000000007D23000030
:10003000A5220000000000001D230000A5220000F2
:100040003D250000A90801003D2500003D250000D8
:100050003D2500003D2500003D2500003D25000018
:100060003D2500003D2500003D2500003D25000008
:100070003D2500003D2500003D2500003D250000F8
:100080003D2500003D2500003D2500003D250000E8
:100090003D2500003D2500003D2500003D250000D8
:1000A0003D2500003D2500003D2500003D250000C8
:1000B0003D2500003D2500003D2500003D250000B8
:1000C0003D2500003D2500003D2500003D250000A8
:1000D0003D2500003D2500003D2500003D25000098
:1000E0003D2500003D2500003D2500003D25000088
:1000F0003D2500003D2500003D2500003D25000078
:1001000053B94AB9002908BF00281CBF4FF0FF317E
:100110004FF0FF3000F00CB8ADF1080C6DE904CEE3
:1001200000F018F8DDF804E0DDE9022304B07047C0
:10013000704700BF034611F8012B03F8012B002A7A
:10014000F9D17047034613F8012B002AFBD1181A86
:10015000013870472DE9F04786468C460846089ED0
:10016000154674461946002B40F0C2808542B2FA0B
:1001700082F245D94AB1C2F1200300FA02FC2EFAFC
:1001800003F3954043EA0C0C94404FEA154EA8B295
:10019000BCFBFEF8230C0EFB18CC08FB00F943EA6D
:1001A0000C43994528D9EB1808F1FF3704D299453B
:1001B00002D9A8F102072B44A3EB0903A4B2B3FBB5
:1001C000FEFC0EFB1C330CFB00F044EA0344A0428F
:1001D00014D92C190CF1FF3304D2A04202D9ACF18E
:1001E00002032C44241A43EA07401EB1D4400023E2
:1001F00034607360BDE8F0874746DDE76346F1E7AA
:1002000092BB431B01214FEA154EAFB2B3FBFEFC7C
:10021000200C0EFB1C330CFB07F840EA0343984507
:1002200062D9EB180CF1FF3004D2984502D9ACF139
:1002300002002B44A3EB0803A4B2B3FBFEFC0EFBAD
:100240001C330CFB07F744EA0344A7424ED92C1990
:100250000CF1FF3304D2A74202D9ACF102032C44C3
:10026000E41B43EA0040C0E7C2F1200320FA03F197
:10027000954090402EFA03F303434FEA154EAFB278
:10028000B1FBFEFC0EFB1C10190C0CFB07F841EA3D
:100290000041884504FA02F422D969180CF1FF30B4
:1002A00004D2884502D9ACF102002944A1EB08012F
:1002B0009BB2B1FBFEFC0EFB1C110CFB07F743EAE3
:1002C00001439F420ED9EB180CF1FF3104D29F423B
:1002D00002D9ACF102012B44DB1B41EA004192E759
:1002E0006046E3E76146F7E76046A3E76346B7E7A2
:1002F000834206D916B9002108467BE7C6E900E02B
:10030000F9E7B3FA83F78FB9834201D3724508D86E
:10031000BEEB020460EB030301209C461EB90021E2
:1003200068E73846FAE7C6E9004CF8E7C7F1200C61
:10033000BB4022FA0CF41C432EFA0CF120FA0CF309
:10034000B84001434FEA14490EFA07F5B3FBF9F838
:100350001FFA84FE09FB18300B0C08FB0EFA43EA67
:1003600000439A4502FA07F240D9E31808F1FF303A
:1003700004D29A4502D9A8F102002344A3EB0A0350
:1003800089B2B3FBF9F809FB183308FB0EFE41EA0A
:1003900003418E452CD9611808F1FF3304D28E45F4
:1003A00002D9A8F10203214443EA0040A0FB0298CD
:1003B000A1EB0E014145CE46434602D306D14D4541
:1003C00004D2B9EB020E68EB04030138002EA6D06C
:1003D000B5EB0E0261EB030101FA0CFC22FA07F304
:1003E0004CEA0303F940C6E9003198E74046C5E707
:1003F0004346D9E7000000002DE9F843D0E907386B
:10040000856903EB08042F34A5420F46164619D818
:10041000DFF86C80A3FB080117A3D3E90023FFF7E3
:100420006FFE0346601BA0FB080123F07F4412A36C
:10043000D3E90023FFF764FE20F07F403C6030608A
:10044000BDE8F883DFF838900BA3D3E90023A5FBC0
:100450000901FFF755FE20F07F440A480A2106A350
:10046000D3E90023E8FB0901FFF74AFE20F07F40B3
:100470003C603060BDE8F8838D49FD1A070000003C
:1004800000CA9A3B00166BF1002800F030812DE97C
:10049000F04FC34C94F85E30DA078DB000F1618103
:1004A000627F94F8293004EB820204EB8303166A1E
:1004B000DF6A0EB3354615F8020BC0F3801008F062
:1004C00091F80368C6F802308388AB8033785B0606
:1004D00006D50621284606F0F5FB002800F04381EA
:1004E0003D4615F8020BC0F3801008F07BF8036856
:1004F000C7F802308388AB80337813F00E0F40F0DA
:100500008E8063691BB10C200DB0BDE8F08F08F040
:10051000E5FE8146002800F0338108F0EBFE8246BC
:10052000002800F02A810BF0D9FA0546002800F0D7
:100530002981C06E4FF6FF73AB8405F1100B0028C4
:1005400000F0178105F1600205F15C0106F0C6FBC1
:10055000B5F8583023F4EF6323F0070343F48C73AA
:1005600043F00103A5F8583095F8373003F03F0306
:1005700063F07F0385F8373095F8723023F0070376
:1005800085F8723095F83C3023F00F034FF00008E7
:1005900085F83C304FF4C023C5F870312846C5E9D2
:1005A0001288C5F86C80A5F8708085F83980A5F8A8
:1005B0002A80C5F82E80C5F85080A5F87681A5F868
:1005C0006C810DF0DDF885F83881C5F83C910BF0B1
:1005D000EBFC95F87C3160F3020385F87C310BF07D
:1005E000E9FC95F87C3160F3C50385F87C3195F81A
:1005F000683168F3410385F8683105F1B8000CF003
:10060000B1FEC4E9159AC4F814B0C5E9028885F8AA
:1006100000802D6110F058FF002840F0A680237E56
:100620000121C3F342030DF12B008DF82B3006F0AE
:10063000F1FC024600285CD0797830460AF072FD61
:100640005849594BB4F85C70A0FB0101C0184FF039
:10065000000551A3D3E9002341F10701C4E9025584
:100660002570FFF74DFD606007F080FF00F109087D
:100670003FB9357805F00F05A5F10105B5FA85F507
:100680006D09207E636865F3000010F00105207697
:1006900036D0464A0992002010600225444A454F50
:1006A00004930BAE019305920321CDE90200069459
:1006B00043460090089607972A460B9507F058FE88
:1006C000314608F09FFEA0B93B4905914AF2D83364
:1006D0000093CDE90300CDE9010007970896069441
:1006E0004346012203210B9507F026FE2EE00AF077
:1006F0006DBC6369002B3FF406AF0AF023FC02E7F0
:100700002A4A2E48049303F2471306940295912136
:100710001360A7FB000301FB0731264B0793244B13
:1007200005934FF6FF730992022703930BAE1AA3AA
:10073000D3E900230B970896FFF7E2FC4346CDE987
:1007400000503A462846032107F012FE314608F0D1
:1007500059FE0028CDD194F85E3043F0010384F8AF
:100760005E300020D0E61220CEE60AF0EBFB03203C
:10077000CAE605F16400E866E4E6484608F0B4FD20
:100780000720C1E6504608F0BBFD484608F0ACFD26
:10079000F6E700BFAFF300808D49FD1A07000000A7
:1007A000E01D002000CA9A3B8C49FD1AD41D002090
:1007B000A1B10000CD860000A9AC0000002AE784AA
:1007C00070B5037E8AB0C3F342030D46044601218F
:1007D0000DF1230016468DF8233006F01BFC7178CE
:1007E000024628460AF09EFC1F49204AA0FB013120
:1007F000981841F107011AA3D3E90023FFF780FC01
:1008000063689842054621D21B1A00220192184AB9
:100810000293184BA21AA3FB023202219209002371
:100820000A4409AE099114490591CDE90333032126
:10083000D2B206960093184607F0FAFD314608F04A
:10084000E1FD38B9656000200AB070BDFBD9C21A5D
:100850000023DBE70C200AB070BD00BFAFF30080BF
:100860008D49FD1A0700000000CA9A3B8C49FD1A09
:10087000E01D0020ABAAAAAACD860000000000005F
:100880002DE9F04F06468DB08A4601200221994697
:10089000154612F06BFC00220B900221012006F09D
:1008A0006DFA3B494FF4C072304606F0F7F9C71CA9
:1008B000384B0093FFB201964B463A460121002087
:1008C00007F010FE10F0FD0F0ED0334A33493448C4
:1008D00040F68F0316F047FA002383F31188BFF325
:1008E0006F8F0323184602DF2E4CA5FB044526A379
:1008F000D3E9002320462946FFF702FC0896069616
:1009000073680493284B20F07F48A8FB0331E01A5A
:10091000264B07934FF00702254B059302FB081166
:100920004FF6FE7365EB010103934FF47A720023D7
:10093000FFF7E6FB4FF0000BCDE90180CDF800A0FA
:100940004B463A460121584607F0F6FC10F0FD0FE1
:100950000DD0114A1149124840F6A40316F003FACB
:100960008BF31188BFF36F8F0323184602DF0B9BB5
:1009700013B90DB0BDE8F08F0122022110460DB071
:10098000BDE8F04F06F0FAB98D49FD1A07000000E6
:10099000800E00207DBA0000E4AD0100A8AE010089
:1009A000C8A8010000CA9A3B8D49FD1A1DBA000073
:1009B00091050100000000002DE9F0418468A28C3F
:1009C0004FF6FF739A428CB045D0054620460DF095
:1009D0004BF92B7D012B00F03B81022B00F02E8187
:1009E000002B00F00D8194F83861002E40F0298131
:1009F0002B8AE78D94F93720CDE90A6673B3002A74
:100A0000C0F273810023A4F87231AA7CA38DFD1873
:100A100002F003030135012BADB23BD0B4F87631BF
:100A2000002B00F01E819D4280F072815B1B9BB207
:100A30000022062BA4F87631E28540F20F8194F96A
:100A400037309342C0F26981002326E09DF82710D9
:100A500020460BF08DFB0CB0BDE8F081002AB8BF3A
:100A600084F85D61A38DAA7CFD1802F003030135B3
:100A7000012BADB20ED0B4F87231002BCED0AB4208
:100A800040F255815B1BA4F87231B4F87631002B2B
:100A9000C9D102E00023A4F8763194F83C2063F336
:100AA000820284F83C2029460DF1270220460CF0F2
:100AB000A3FE7430CAD0B4F870312BB1AB4240F20F
:100AC00005815B1BA4F87031B4F86C312BB1AB42DB
:100AD00040F2F3805B1BA4F86C31E58D16B9AF4290
:100AE00000F0E2800135ADB294F8B53013F00107A3
:100AF00031D1DDE90A130A46002B40F0E5800029D8
:100B000000F0D4801F461846A28C24690694CDE9D3
:100B100003560332A64D0290CDE90017D2B201214F
:100B20000020059507F084FC10F0FD0F93D008F02D
:100B300093FC84428FD09F4A9F49A0484FF4AE63F4
:100B400016F011F9002383F31188BFF36F8F03238D
:100B5000184602DF7FE794F937206FF30003002A7D
:100B600084F8B530C0F2988094F85800C0F3C00102
:100B700000F0070010F0C4FA94F8582094F85930A7
:100B800002F003012831C2F34002C900D14003F052
:100B900003022832C3F34003D200DA40E38B03F2AE
:100BA0003F13B1F5A07F2CBF5B1803F5A073B2F51E
:100BB000A07F2CBF9B1803F5A0730344804A814893
:100BC0000721E3FB0021104677A3D3E90023FFF7B9
:100BD00097FADDE90A1320F07F4260686260904274
:100BE00035BF171A801A002000270A46002B8BD128
:100BF00057EA010C88D1002858D019461F4683E7D0
:100C000094F8723003F01803182B7FF4ECAE218DAA
:100C1000B4F86E218B1D9A42C4BF931F5B1AB4F8BF
:100C20006A11CCBF9BB21346994200F09C80A4F895
:100C30006A31A4F86C31A4F87021D4E63D2684F81A
:100C40003861314620460CB0BDE8F0410BF090BA57
:100C50000023A4F87031A4F86C31C4E601263346B1
:100C60001BE7E28C052A97BF013240F2E2434FF4C2
:100C7000FA7392B203FB02F2B4F8743142F21071CB
:100C800001FB0323013BB3FBF2F39BB2A4F87631E3
:100C9000002B7FF4C8AE00E794F85900012100F062
:100CA000070010F02FFA67E735461DE7002D43D007
:100CB0000027114638463B4626E70023A4F86C314E
:100CC00020460CF03BFE08E738461DE708F058FBCD
:100CD0000146A0B30023A4F87031A38CC3801B236A
:100CE0000371006808F01EFBEEE694F85D316BB30B
:100CF000013B84F85D3104F1B80840460CF074FB08
:100D0000B8B340460CF070FBB8B30023E38579E636
:100D1000082120460BF02CFA9DE6A7B9D4F86031E3
:100D20005A0813F0010336D1C4F860218CE63E2145
:100D300020460BF01DFA8EE6002EB9D18BE601237A
:100D4000A4F87031C0E613460126A6E60AAA0BA94C
:100D50002846FFF751FBDDE90A231343CBD0237864
:100D600084F85D31C7E7B4F8701100297FF43BAE19
:100D70005FE7FF200BF0BEF9C3E70246D4E9170195
:100D800005F0C4FF0028C0D194F83C301B0744BFD5
:100D9000238DE38536E642F000421E46C4F860210A
:100DA0003B467AE6AFF300808D49FD1A070000004C
:100DB000D9B90000E4AD010024AF0100C8A80100CA
:100DC0008C49FD1A00CA9A3B2DE9F04F89B0CDE954
:100DD0000623BDF84C2003780392BDF85020BDF8DF
:100DE00048B0BDF85480068E029104460492002B50
:100DF00000F0E180013EB6B294F85800A6EB08037B
:100E00009DB2C0F3C001D4F8F430059500F007009E
:100E1000019310F075F9E78C052F40F2C48017FBA1
:100E200005F7BFB240F2E249BBF1050F40F2AF80D7
:100E300094F8592094F8581002F003032833C2F3B1
:100E40004002DB00D34001F003022832B3F5A47F57
:100E5000C1F340014FEAC20222FA01F238BF4FF457
:100E6000A473B2F5A47F2CBF9B1803F5A47303F2FF
:100E7000D51318447C4A7D4B0721E0FB023118460C
:100E80004FF09613E3619623238475A3D3E90023DF
:100E9000FFF736F95D4620F07F4040F2E24303FB66
:100EA00005F509FB07F1B1FBF5F71FFA87FA60605A
:100EB00005FB0AF0814257465AD2401A6A4968A394
:100EC000D3E90023A0FB0101FFF71AF9019B20F0F1
:100ED0007F499944638DB4F8FC201344984494F8F6
:100EE0003730A8EB06084744DB0967856AD1604ABA
:100EF0006049614840F6581315F035FF002787F325
:100F00001188BFF36F8F0323184602DF2E46039B21
:100F10002385049BA4F8743129462046A4F826B002
:100F20000CF0A6FC554B218D2B44881DB3FBF5F32B
:100F30009AB29042A4F86E2104D2C1F57F41FA31F1
:100F40000A4492B2029BA4F86A2113B10023A4F8C8
:100F500076314B46324639462046FFF791FC94F8ED
:100F6000683143F0010384F8683109B0BDE8F08FBF
:100F7000091A3D483AA3D3E90023A1FB0001FFF77A
:100F8000BFF8019B20F07F49A3EB0909A2E74FF0CE
:100F900096130BF10105E36196232384ADB20A2079
:100FA0004FF4FA737BE7059B013717FB03F7BFB2DA
:100FB0004FF4FA7938E7438D1E44B0F8FC301E44F4
:100FC000B6B219E7226C0599A36C274F02FB1133C7
:100FD000A36410F0C9FA064694F85C01C0F342001D
:100FE00010F0C4FA064405FB06F6254B06F57426F8
:100FF00006F23F26A3FB0636B60CA36C26640AFB5A
:1010000006F06A080344963A934228BF1346C4E99F
:101010001123069B40F2E24808FB03F323650023FB
:10102000A0FB0701C4F864310DA3D3E90023FFF747
:1010300067F8144B079AA9EB0009A3FB0230800A5A
:1010400008FB00F0A0FB070105A3D3E90023FFF78D
:1010500057F8AE1B20F07F4759E700BFAFF3008081
:101060008D49FD1A0700000000CA9A3B8C49FD1A01
:10107000E4AD0100A0A90100C8A801007FC3C90117
:1010800083DE1B435917B7D12DE9F04F13461546A0
:101090000A6853F8087BD2F80090B0F82EC00246D8
:1010A000044652F82EABD0F81E0094F81C800E4671
:1010B0009178628CA5F808C09970D4F82A306B60DA
:1010C00091B0D4F83A30C5F82230ADF83C2094F80D
:1010D0003E2085F826200E9010AA12E9030005F1A3
:1010E00022030C90ADF834101846052105F092FF4C
:1010F00095F8273000F03F0060F3050385F82730AE
:1011000094F83F30C3F3040285F82820A28EEA82C7
:101110000128C8F3801808D903F01F031B3303F01C
:101120001F030B2B01D892B2BAB90022C9F80820CC
:1011300095F82C3062F3000385F82C300126E56821
:1011400026715046214608F0E1F828682E7129469C
:1011500011B0BDE8F04F08F0E5B8336800215960E0
:10116000E38EB5F816B02B8340F2E24303FB0BFB92
:101170003846638E0B930CF08FFB94F83F2097F862
:101180005C11520962F3430187F85C1110F0ECF92D
:101190000A9097F85C01C0F3420010F0E7F90A9A50
:1011A00010440BFB00F0B84A00F5742000F23F2019
:1011B000A2FB00204FEA5B02800C963A28636A6328
:1011C00094F8312040F2E24302FB03F36B64238F77
:1011D000A7F87431594638460CF04AFBAB4BAC4A81
:1011E000C7F878215B44B3FBFBF39AB2A7F86E21F2
:1011F000298B881D824204DDC1F57F41FA310A4402
:1012000092B2A7F86A216B68C7F86031234613F8D9
:101210001C2FC2F340120A92DA0700F10B81BDF8CD
:101220003430A4F823300C9884F81E804FF4807377
:10123000C4F81F00A383EB8AE3842B8B2385B7F8C4
:101240007431638597F85C31C3F3420384F82C3022
:1012500038460AF04FFCA882E08021465046746868
:1012600008F054F8AB8AE3801C2323710A9BD4F85E
:101270000080002B40F0D2800A9B23772146404615
:1012800008F050F895F8498095F848A008F007084C
:101290000AF0070A012140460FF034FF0AF0030369
:1012A0002833CAF3400A08F00302DB0023FA0AF3EA
:1012B0002832B3F5A47FC8F340084FEAC20238BF12
:1012C0004FF4A47322FA08F2B2F5A47F2CBF9B1846
:1012D00003F5A47303F2D5130344DFF8B881044681
:1012E0006D480721E3FB08014FF09613C5E903336E
:1012F00063A3D3E90023FEF703FF20F07F4078606B
:101300000B99F3682D6B40F2E24202FB013303F2CA
:10131000B3410C1B00220221012005F02FFD48469D
:101320000AF0F8F80246A4FB0801144654A3D3E9D6
:101330000023FEF7E5FECDF80490B368574900910D
:1013400020F07F4AA21C3A3BD2B253440121002034
:1013500007F0C8F80128ABEB05057AD099F81830EA
:10136000DB0753D438460AF0C5FB4A4BA5FB03986C
:10137000044643A3D3E9002348464146FEF7C0FE96
:10138000474BB668474A079220F07F45A5FB0331DB
:10139000B9EB0300444B059340F2E313069708931F
:1013A0007B684FF0000BCDE903B34FF0070303FB5D
:1013B000051168EB01014FF47A720023FEF7A0FEDD
:1013C00003343A3EE4B2CDE90150CDF800A03346F3
:1013D00022460121584606F0AFFF10F0FD0F0DD058
:1013E000324A334933484FF4F27315F0BCFC8BF3A7
:1013F0001188BFF36F8F0323184602DF01220221F9
:10140000104611B0BDE8F04F05F0B8BC0023012232
:1014100000931846114607F023F8A3E795F8273004
:1014200043F0400385F82730281D0FF0C7F901234A
:10143000288522E71D4A20491E48FD2315F093FC0C
:10144000002383F31188BFF36F8F0323184602DF55
:10145000E5E608F001F8814580D0144A174915489F
:1014600040F28B2315F07FFC002383F31188BFF338
:101470006F8F0323184602DF70E700BFAFF30080D1
:101480008D49FD1A0700000083DE1B437FC3C9019D
:10149000404B4C0000CA9A3B8C49FD1A5105010093
:1014A0008D49FD1A1D05010091050100C0B3010021
:1014B000A8AE0100C8A80100B8AB01001CB401002F
:1014C000F0B5C468636883B00546002B4FD111F0B6
:1014D0006BFA002011F08EFA0021084611F07CFA18
:1014E00000222521082011F0B9FA3D4B019301A8F3
:1014F00011F0A0FA3B4940F25B6011F05BFB237AEC
:10150000C3F3420262F306132372204610F032FA4C
:1015100027682E6838460FF09BFD06446A6806F17E
:101520000901012011F06EFC11F02CFD204609F09C
:10153000FDFF811C3246C9B238460FF08BFD0546CF
:1015400000BB20460FF02CFD10B9002003B0F0BD09
:10155000254A2649264840F2294315F004FC85F324
:101560001188BFF36F8F0323184602DFEDE793F86E
:101570002C309B07ABD01F48214611F0D3F911F056
:10158000B9FAE2E7184A1C49194840F2114315F02C
:10159000EAFB1A4B0721A5FB030301FB05310EA350
:1015A000D3E90023FEF7ACFD15490246154815F0B6
:1015B000DAFB002585F31188BFF36F8F03231846EC
:1015C00002DF1148214611F0ADF911F093FA6FF0E6
:1015D0008B00BBE7AFF3008000CA9A3B000000001D
:1015E000D6BE898E55555500FCB5010098AA01005C
:1015F000C8A80100DD110100A0A901008D49FD1A54
:10160000ACB6010080B601007915010000000000B1
:101610002DE9F041C468A28A4FF6FF739A4282B066
:1016200000F0DF80054610F05BFC2B89628B208C7C
:10163000A3831A4492B2104494F82730E28380B214
:10164000411C21845E064FF00001618304F12201F8
:1016500000F1A18003F03F000B4694F828100090A1
:1016600004F129000FF062F80646D4E90C31A28B90
:1016700002FB0333A26B1344E26B8B4294BFD2187C
:1016800052188A4228BF0A46E263616C226C94F8C1
:1016900049301144616494F8622094F82C10C3F32B
:1016A000020363F3061112F004024FF0000384F802
:1016B0002C10A363236478D011F076F9002011F088
:1016C00099F9201D11F0B6F92389A17A40F25B60E7
:1016D00043EA014111F06EFA30460FF0CDFC21468D
:1016E000594811F01FF9A08911F080FB94F84820A7
:1016F00094F84900C2F3C003002102F0070200F091
:10170000070011F0BDFA204610F094FC27682E68FF
:1017100038460FF09DFC06446A6806F10901002076
:1017200011F070FB804611F001FC002011F018FC54
:10173000E36B94F8490003F12F02636C00F007009B
:10174000012103EB420511F0C7F94544054494F823
:10175000490000F00700022825D004280CBF4FF4F0
:10176000BC73282301211D4411F0B8F9284411F05D
:10177000CFFBA18A03313246C9B238460FF06AFC6A
:101780000546002834D120460FF00AFCD0B90020CD
:1017900002B0BDE8F0810A4603F03F03218D0FF04F
:1017A00011F8064661E71823DCE7D4E9130105F0D8
:1017B000ADFA002880D194F8623043F0040384F835
:1017C000623079E7214A224922484FF4B07315F07C
:1017D000CAFA85F31188BFF36F8F0323184602DF1F
:1017E000D5E71D48214611F09DF811F083F9CEE7A9
:1017F000164A1A4917484FF4AB7315F0B4FA184B50
:101800000721A5FB030301FB05310DA3D3E9002349
:10181000FEF776FC13490246134815F0A4FA00259A
:1018200085F31188BFF36F8F0323184602DF0F483B
:10183000214611F077F811F05DF96FF08B00A7E702
:1018400000CA9A3B000000009D22010038B7010049
:1018500098AA0100C8A80100DD110100A0A901009B
:101860008D49FD1A8CB7010080B60100BD11010041
:10187000014A024815F06ABA74BA010008BA0100B8
:1018800019B1034A034815F061BA034815F05EBA6E
:1018900074BA010028BA01004ABA010030B500202C
:1018A00089B001F085FF014628B11F4815F04EFAB6
:1018B000002009B030BD15F037FC1C491C481D4DF7
:1018C0000D2200F053FB1C491C48142200F04EFB73
:1018D0001B491C480E2200F049FB1B491B481022E3
:1018E00000F044FB1A491B48102200F03FFB1A4944
:1018F0001A48102200F03AFB194815F027FA0FCDCC
:1019000003AC0FC42B682360012316490093022205
:10191000154B03A802F0B8FC014608B11348C5E70F
:10192000134815F013FAC3E755BA010075BA010060
:1019300082BA010040A401008FBA0100A3BA0100DD
:10194000B0BA0100BEBA0100CCBA0100DCBA010095
:10195000E6BA0100F6BA010000BB010010BB0100AD
:101960001ABB010090A4010088A4010031BB010052
:1019700057BB0100014B1B68184700BF4006002001
:1019800030B585B004460D4610220021684618F097
:10199000D7FA02238DF802302A46044B01932146E0
:1019A000684614F0A9FD05B030BD00BF75190000F0
:1019B00080B505460E461746984614F04DFA034684
:1019C00018F054FBDFF81890044649F800304246FE
:1019D00030463946A84754F8090000F089FC00BF9A
:1019E000080000002DE9F047058B044628079046C3
:1019F00011D4022905F0070540F0CC80204615F0EF
:101A000053FA78B10138218B042811D8DFE800F0AF
:101A1000C2106D85950001290CBF45F0100545F0F9
:101A20002005258388F31188BFF36F8FBDE8F08709
:101A300001F0070AAA4500F0A5800027B9463E46F6
:101A4000A368002B00F0BC8041F00801218388F3DB
:101A50001188BFF36F8FA168002900F0BA800D686C
:101A6000002900F0B680D1F8048033465246204663
:101A7000C047002D76D02B6829461D46F0E701F0BF
:101A800007035A1F012A1BD8002221F00701062B49
:101A9000276889B2C4E9002209D13B4603E0628B82
:101AA000013262831B68002BF9D141F002012183CE
:101AB000204615F0F9F900287AD041F0200176E0AF
:101AC000042B0AD121F0070189B22183204615F0A9
:101AD000EBF910B141F020012183218B01F0070ABD
:101AE000AA454FD00027B946AAE7236921F007018C
:101AF00041F00601062DD3F8009021832DD1B9F1D4
:101B0000000F3FD041F00801218388F31188BFF313
:101B10006F8F3A492046C84729E021F00701236921
:101B200041F0040189B2042DD3F804902183E6D05A
:101B300000273E464FF0040A82E721F0070123699F
:101B400041F0050189B2052DD3F808902183D6D044
:101B500000273E464FF0050A72E700273E464FF049
:101B6000060A6DE72B4687E7B9F1000FD1D1EFF3F5
:101B70001188202383F31288BFF36F8F238B23F008
:101B800008032383258BEA062ED525F01003238333
:101B900005F007056669218B002EBFF670AF0023A4
:101BA0002768C4E9003321F0070141F001012183D6
:101BB000218B01F0070AAA454FF000097FF440AFDE
:101BC000002F9CD041F00801218388F31188BFF3D6
:101BD0006F8F002FC8D03D683946334652462046A5
:101BE00015F08EF92F46F4E7AB067FF51BAF25F015
:101BF0002003238305F0070500E700BF2D6F0100D8
:101C0000014B036000207047A0A401002DE9F341BF
:101C100001A9064614461D4615F0B1FA24490246AC
:101C20000746304618F0A4F9804660B9214E1522C7
:101C300031462846A047031E01DB06F8038000203A
:101C400002B0BDE8F0811C493A46304618F090F9E0
:101C5000804608B9194EEAE719493A46304618F065
:101C600087F9804608B9174EE1E717493A463046EA
:101C700018F07EF9804608B9144ED8E714493A4660
:101C8000304618F075F9804608B9124ECFE7304655
:101C900011493A4618F06CF906460028CFD10F4F8B
:101CA000152239462846A047031EA8BFFE54C6E7A2
:101CB000AABA01006709002089BA01007D09002045
:101CC000C5BA010051090020FDBA01003B090020FE
:101CD00017BB010025090020E3BA01000F0900200D
:101CE0002DE9F0410F4B1C6805460E461746ACB176
:101CF0004FF0FF324FF0FF330B4813F009FA6368DF
:101D00003246D3F8088029463B462046C047044661
:101D1000054813F075FA2046BDE8F0816FF0010424
:101D2000F9E700BF60120020F409002030B585B04B
:101D300000230546CDE9023301904FF0FF330C48F4
:101D40004FF0FF3213F0E4F90A4B1C684CB92846F7
:101D500000F08EF80446064813F052FA204605B00B
:101D600030BD636820461B6801A998472468EDE7E9
:101D7000F4090020641200201FB5CDE9010103928F
:101D80004FF0FF330A484FF0FF3213F0C1F9094B0F
:101D90001C682CB9064813F033FA204604B010BD75
:101DA000636820461B6801A998472468F1E700BFD3
:101DB000F409002064120020024B0022C3E9002233
:101DC000704700BF64120020024B0022C3E90022CA
:101DD000FFF7F2BF6C1200202DE9F74307460C46CF
:101DE00009B100230B601F4DDFF87C9000264D45A4
:101DF0000FD31E4B1D6885B355F8188C01AA4146B8
:101E00003846183D15F097F910B3D6B914BB2E46D5
:101E10001EE0D5F8008001AA4146384615F08BF93E
:101E200050B116B954B92E4606E03168002240463A
:101E300015F081F90028F5D11835D8E7019B23600A
:101E4000F1E731680022404615F075F90028DDD130
:101E5000AD69D0E7019B2360D9E7304603B0BDE808
:101E6000F08300BFE0A3010040A401006C12002039
:101E70002DE9F047DFF8AC90DFF8ACA080464FF0DA
:101E800000470026294C3D464C450DD3DAF800406A
:101E9000002C42D0183CB8F1000F25D122695ABB62
:101EA000A469F5E72F46EDE7B8F1000F03D12269E9
:101EB0004AB91834E8E720680022414615F03BF99A
:101EC0000028F4D1F5E76368BB4205DDAF4209D0D5
:101ED0009D42A8BF1D46ECE7EBD19047002E08BFFE
:101EE0000646E6E71D46E4E720680022414615F075
:101EF00022F90028D2D1D3E76368BB4205DDBD4299
:101F000009D09D42A8BF1D46CAE7C9D19047002EFF
:101F100008BF0646C4E71D46C2E7AF42C2D13046FD
:101F2000BDE8F08740A401006C120020E0A301008E
:101F300038B50C4D0C484FF0FF334FF0FF3213F023
:101F4000E7F82B783BB9FFF73FFF15F03CF9044663
:101F500010B901232B700024034813F051F92046D7
:101F600038BD00BF02280020F409002030B585B03C
:101F70000D4601A91446FFF72FFF48B1CDE90254E1
:101F8000054AC568019802AB2146A84705B030BD97
:101F90006FF01500FAE700BFA371010030BFFFF733
:101FA000FDBF00BF2DE9F0410B4EDFF8308006EB9E
:101FB0000807CC1B054632460949204617F098FF12
:101FC000A01942460021083C17F0BAFF6C6707F1E0
:101FD0000800BDE8F08100BF00000000080000001C
:101FE00040A40100054B5A699B689A421FBF044AEE
:101FF000536843F080535360704700BFB027002000
:1020000000ED00E070B5264B15469A6A12F0100FED
:102010009A6A14BF1124102412F0080F9A6A18BF8C
:102020001224920706460AD5586B9A6A140634D5CC
:1020300019B19A6A22F080029A62132401E06FF0CB
:102040001500174B9A6A12F0010F9A6A18BF1424F0
:1020500012F0200F9A6A18BF1524D20602D49B6A88
:102060009B070AD50E4B5B68190506D5314600F073
:102070001FFA10B180F309880224094B9A6A92066C
:1020800042BF5A6A22F400525A629A6A42F0FF0230
:102090009A6200232B70204670BD6FF01500CCE7CC
:1020A00000ED00E0134B9A6A12F0007F9A6A14BFA9
:1020B0001E201D2012F0807F9A6A18BF1F2012F484
:1020C000002F9A6A18BF212012F4802F9A6A18BF35
:1020D000222012F4003F9A6A18BF232012F4803F96
:1020E0009A6A6FEA02426FEA12429A6218BF24208B
:1020F000704700BF00ED00E010B5194B0246986A2A
:102100009C6A10F4805F14BF1720162014F4006F2F
:102110009C6A18BF1820A40509D5986B986A00041A
:1021200004D51AB19A6A22F400429A6219200C4B23
:102130009A6A12F4806F9A6A18BF1A20D2050CD4DA
:102140009B6A13F4005F18BF1C20054A936A43F48E
:102150007F43936200230B7010BD1B20F5E700BF87
:1021600000ED00E0F0B5484B5B688BB00446C3F36C
:102170000803002585F31188BFF36F8F02F07F40BD
:10218000B0F17F4F11D102F00C0008280DD01007DC
:102190004CBF0C4601250022033B8DF80720032B82
:1021A00005D8DFE803F0246367602C46F3E70023DB
:1021B0009DF80720CAB902AE04F1200720686168C3
:1021C000324603C20834BC421646F7D1099A002DA4
:1021D00054D0C2F3080121B96FEA52226FEA4222B9
:1021E000099202A9184614F0F0FF0BB0F0BD264B7F
:1021F000DA6A9107DBD4DA6A002AD8DBDA6A52009D
:10220000D5D55A69A16942F480725A61BFF34F8FE4
:10221000BFF36F8F5A6931F8021C22F480725A6141
:10222000BFF34F8FBFF36F8F4DF6027291420AD00A
:102230009A6AD2B24AB10DF1070201212046FFF796
:10224000E1FE0346B4E72368B2E79A6A12F47F4FCF
:1022500005D00DF107010120FFF74EFFF1E79B6A62
:10226000B3F5803FA3D3FFF71DFFEAE70DF10702A7
:102270000021E3E70DF107010020EDE722F4FF72F2
:1022800022F00102ACE700BF00ED00E0044B5A6908
:1022900042F010025A615A6922F008025A617047EE
:1022A00000ED00E0EFF30880EFF3098101B572461D
:1022B000FFF758FF01BD00BF0B4880F3088811F0FD
:1022C000BFFF202080F3118808484FF404614018B4
:1022D00080F30988EFF314800221084380F3148807
:1022E000BFF36F8F00F0A4F8C04400200037002037
:1022F000084B9B6883420BD1EFF3058343B1064B38
:102300005A6842F080525A605A6A22F400425A6275
:1023100013F0A8BDB027002000ED00E014498A6842
:102320004FF030001044EFF3098C80E8F01F2020BC
:1023300080F31288BFF36F8F0E4F4FF000664A692B
:102340008A603E60506F0C4C2060906F0023936752
:1023500080F3118804B5104600F00EF9BDE8044082
:1023600002F1300090E8F01F8CF3098870470000FC
:10237000B027002004ED00E0741200201EF0040FCE
:102380000CBFEFF30880EFF30980816911F8021C9C
:102390000229FFD001B5724614F01DFF01BD00BF38
:1023A00040B2002807DB044A4109012300F01F0066
:1023B000834042F82130704700E100E040B200283D
:1023C0000CDB4309064900F01F0020330122824044
:1023D00041F82320BFF34F8FBFF36F8F704700BFCB
:1023E00000E100E0054B420900F01F0053F82220F5
:1023F000012303FA00F01040704700BF00E100E045
:1024000040B20028A8BF00F1604001F10101B8BF4F
:10241000064B4FEA4111ACBF00F5614000F00F00E0
:10242000C9B2B4BF195480F80013704714ED00E02E
:102430000F4A08B50F4B22F07F029A60BFF34F8F0F
:10244000BFF36F8FD3F8882022F47002C3F888207E
:10245000EFF3148323F0040383F31488BFF36F8F27
:1024600012F058FD13F032FE00F05CF812F096FD09
:102470000000000000ED00E042F8203C009B42F824
:102480001C3C0A49019B42F8183C029B42F8143C50
:1024900021F001014FF0807342F8043C42F8081C1F
:1024A0000023203A02658367704700BFB11900001E
:1024B000094A0346906870B113F1160F406E05D0BB
:1024C000A0F140029A4205D8834203D2814228BF3C
:1024D0000020704700207047B027002008B515463F
:1024E000094A0A4B9060426F1A600E4600F044F8A9
:1024F0002C4686F309880020054B9847204600218A
:1025000000220023034C2047B02700207412002033
:10251000F5710100B1190000014B10221A617047DA
:1025200000ED00E0044800232021C2180133302BC5
:1025300082F80013F9D1704700E100E008B5EFF32D
:102540000583064A103B02EBC30152F83300496889
:102550008847BDE80840FFF745BD00BFB0A10100B6
:10256000024B034A0348012100F076B80000022024
:1025700000000020A4A50100426E054B403A1A60FD
:10258000044A4021C3E901121846012100F06EB847
:102590007812002000000B15084AC2F898000B685A
:1025A00023F01F03034343F01003C2F89C308B68F1
:1025B00043F00103C2F8A030704700BF00ED00E017
:1025C0002DE9F043DFF8608085B00E461F460446D3
:1025D0004FF00009B14523DA6068D8B13FB1411E20
:1025E00008421BD11F2819D92368194216D1236824
:1025F000019314F022FEA36803430393D8F890508C
:10260000C5F30725D0B2013DA84207D801A9FFF7BD
:10261000C3FF421C09F101090C34DBE76FF015021E
:10262000104605B0BDE8F08300ED00E0044B052244
:10263000C3F89420BFF34F8FBFF36F8F704700BF75
:1026400000ED00E0BFF35F8F024B0022C3F894203F
:10265000704700BF00ED00E010B5034C0123227865
:10266000FFF7AEFF207010BD0328002008B50B4A0D
:1026700000231278FFF7A4FF10F1160F07D0084AC5
:102680000021D2F89030C3F30723984200DB08BD45
:10269000C2F89800C2F8A0100130F2E70328002029
:1026A00000ED00E02DE9F043534B544CD3F890304B
:1026B0002568C3F307239D4285B000F29A80FFF797
:1026C000C1FF00200C2685421AD14D4C4D4F25707C
:1026D0006846FFF795FADFF82081DFF82C9106466F
:1026E0000025AE4213D1237843490020D1F8902031
:1026F000C2F30722934276DBFFF798FF002042E007
:10270000616806FB0011FFF747FF0130DBE7009827
:1027100000EB05114FEA051CCB683B40B3F5000FF9
:1027200048D00AD8B3F5001F30D0B3F5800F36D0AB
:10273000B3F5801F10D00135D3E7B3F1807F42D0CD
:10274000B3F1007FF7D150F80C3088684A6814F074
:1027500074FD40F4802009E050F80C3088684A6825
:1027600014F06BFD40F0885040F43020CDE9012397
:102770000390D8F890302078C3F30723013B9842A8
:102780002AD96FF0150005B0BDE8F08350F80C3081
:1027900088684A6814F051FD40EA0900E6E750F8FD
:1027A0000C3088684A6814F048FD40F0007040F42E
:1027B0000030DBE750F80C3088684A6814F03DFDC3
:1027C00040F08270D2E750F80C3088684A6814F004
:1027D00034FD40F08870C9E701A9FFF7DDFE2378DA
:1027E00001332370A7E7C1F89830C1F8A000013386
:1027F0007CE74FF0FF30C6E700ED00E0B0A5010038
:10280000032800200000F0FF0000081108B5064969
:10281000064821F00701C1F1005202F5003214F020
:1028200056FA002008BD00BFCF53002084120020BC
:1028300070B54169867A0B4D044659B1437ADB077E
:1028400006D42C2303FB06535B6A1B689B689847DE
:10285000002363612C20214606FB0050BDE8704038
:1028600017F074B8380A0020024B2C2202FB00300B
:10287000704700BF380A0020827A064B2C2101FBEA
:1028800002339A6A1B7F1B33801A23F00303B0FBC9
:10289000F3F07047380A002038B5074B827A2C24B1
:1028A00004FB02335B6AD3E901240C601568FFF76F
:1028B000E3FF04FB005038BD380A00202DE9F04347
:1028C00085B005466846039190461C4617F062FAAB
:1028D000DDE90067EFF31189202383F31288BFF34A
:1028E0006F8F6B8B002B41D02A8B9A4225D9002207
:1028F0000023284612F0D4FC0446F0B189F3118875
:10290000BFF36F8F039B002B41D032463B46684696
:1029100017F064FAA27A264B2C2101FB02332046E1
:102920005B6A1B6803A91D68DDE90023A847606195
:1029300070BB2046FFF77CFF24E0698B4B1E6B8346
:1029400089F31188BFF36F8F2B7F2A8BAC6A1B33FF
:1029500023F00303521A02FB0344154B154AEB1AEA
:102960009B105343A3722B7FE372CBE789F311884B
:10297000BFF36F8F23464246284612F091FC04466F
:102980000028BFD10024204605B0BDE8F083636174
:10299000012300252381039B6382E27A6560294637
:1029A00004F1180017F0CCFA63692582E360EAE7C6
:1029B000380A0020A38B2EBA70B50C4C2C2500B918
:1029C00070BD037A4668013BDBB20372002BF7D17E
:1029D000C3604360837A05FB03431B6A13B19847C6
:1029E0003046ECE7FFF724FFFAE700BF380A002083
:1029F000024B0122C3F840250020704700E001404F
:102A000020B1034B800143F001031847704700BF1A
:102A100080A4010008B5044816F0C9FD00280CBFC9
:102A20006FF01200002008BD50A101002DE9F34114
:102A30001B4DBFF35B8F98462B68BFF35B8F174628
:102A4000DA0704462AD520B96FF0010002B0BDE8CC
:102A5000F08101A914F093FB12490246204617F0B9
:102A600087FA0028F0D1BFF35B8F2B68BFF35B8F31
:102A7000C3F3C0061B0711D4A5F1D40407222146D5
:102A80004046B847062895BF45F8D46C0723C4F8DC
:102A90000360B0FBF3F094BFE671E0710020D5E76E
:102AA000940500207DBD01002DE9F04188B09C799E
:102AB000DDF838805D791E79DF7893F802C093F8ED
:102AC00001E01B78B8F1000F0ED0CDE90638CDE952
:102AD00004CE1346CDE90267CDE90045084A13F05C
:102AE00079FC08B0BDE8F081CDE905E3CDE9037CD0
:102AF0001346CDE90156034A009413F06BFCF0E74E
:102B0000B8BB0100DCBB010070B504468CB01E46AA
:102B10001546A2B129B10A4602A8042114F030F9E1
:102B200002A900912B462246242103A8FFF7BCFFEF
:102B3000109A314603A8FFF7D3F80CB070BD0346D6
:102B4000044A242103A813F045FC0028F0DA6FF0B2
:102B50001500F2E7FDBB010007B5064B0648DA7920
:102B6000C2EBC202009200221146FFF7CDFF03B074
:102B70005DF804FBC00400207DBD010030B50446B3
:102B80008DB0154692B129B10A4602A8042114F06D
:102B9000F7F802A900912B462246242103A8FFF74B
:102BA00083FF03A814F0C3FA0DB030BD0346054AF5
:102BB000242103A813F00EFC0028F2DA6FF01500B0
:102BC000F2E700BFFDBB010007B5009313460A46BC
:102BD00001460348FFF798FF03B05DF804FB00BF10
:102BE000BEBD01000A4601460148FFF7C7BF00BF4E
:102BF000BEBD010007B5009313460A4601460348CF
:102C0000FFF782FF03B05DF804FB00BFB7BD010012
:102C100008B5024812F06CFD002008BD74060020C3
:102C200070B51A4CBFF35B8F2368BFF35B8F13F053
:102C3000010F25461DD014F8CD3CA4F1D406D3B124
:102C4000BFF35B8F2368BFF35B8F5A0701D400F09B
:102C5000D3FABFF35B8F55E8003F23F4006245E8E9
:102C600000210029F7D1BFF35B8F1B0501D5FFF7CA
:102C7000CFFF002009E001F085F830B9F379002B8F
:102C8000DED101F08FF80028DAD070BD9405002065
:102C90000378012B30B513D0022B27D07BB9194B09
:102CA0000A4603F1100453F8045B42F8045BA342A4
:102CB000F9D11B78137043884B731B0A8B7330BD9B
:102CC000104B0A4603F1100453F8045B42F8045B0E
:102CD000A342F9D11B78137043684B73C3F30722E7
:102CE0001B0CCB731B0A8A730B74E8E700F110030B
:102CF00050F8042B41F8042B9842F9D103780B705B
:102D0000DDE700BF06BC010008B514F0EEFB12F0D1
:102D1000ABFF044B1B680BB10A209847BDE8084085
:102D200012F0B6BF9012002038B50546054814F0E1
:102D30009AFA044620B101210C3014F0F5FA2576F8
:102D4000204638BD140B00200F2810B50ED80D28D2
:102D50000ED90B4814F087FA044628B101210C3033
:102D600014F0E2FA02232376204610BD1328F0D097
:102D700009B10448EEE7BDE810400220FFF7D4BFD8
:102D8000400B0020900A002070B5C6683378B6F872
:102D9000014083B90F21204601F0F8FDF378054684
:102DA00050B90A4A118831B96FEA04506FEA1050DD
:102DB0001080074A137070BD4372012101F05CFD61
:102DC0002846BDE8704001F02DBD00BFE827002077
:102DD0000428002010B5084C0146062294F86F0024
:102DE00001F0F4FF38B994F86F000449BDE81040D1
:102DF000052201F0EBBF10BDC00400209EBB010006
:102E000010B5012104460C3014F0C0FA2146034AE3
:102E10000078BDE81040002314F028BC84A601000F
:102E200010B5012104460C3014F0B0FA2146034AD3
:102E30000078BDE81040062314F018BC54A6010029
:102E400070B52F4814F028FA0446002857D0017EA8
:102E5000022932D0082902D1038A032B02D8FFF7B6
:102E6000ABFD20E004210C3014F090FAFF224388DF
:102E700006886276228AC6F30B009A42A08301D0AC
:102E80002046ECE70F2101F081FD05460028F7D030
:102E900001F0B0FD320B60762146284614F0C9FFE0
:102EA000284601F0BFFC174BD3F84C313BB3BDE8CB
:102EB00070401549154816F0F6BD038A012BCED98E
:102EC0000C3014F063FA0546007814F06BFB10F038
:102ED00002060DD10E4A0F490F4840F6DA3313F0BF
:102EE00042FF86F31188BFF36F8F0323184602DF7A
:102EF0000A4A28780423214614F0B8FBC0E770BDC5
:102F00000C060020C004002094060020700B002056
:102F100017BC01004BBC010079BC010034A60100C4
:102F20002DE9F047884616468246002879D0BFF33F
:102F30005B8FDFF8F490002359E8004F49E8003236
:102F4000002AF9D1BFF35B8F002C6AD02046FFF72F
:102F500093FC364D0C2303FB005027464388534512
:102F600011D0BFF35B8F59E8003F49E80072002A97
:102F7000F9D1BFF35B8F002B53D01F463846BDE815
:102F8000F047FFF719BDA6420FD0204614F066F9AE
:102F900004F10C09022301214846237614F0C4F9F8
:102FA000328AF168484614F0D0F92046FFF764FCF5
:102FB0000C2606FB00504368ABB1B8F1000F12D1EC
:102FC0002046FFF759FC06FB005001214268D2E978
:102FD0000003127A03F01F06B1405B09DAB100EB7F
:102FE000830014F0F1FA2046FFF746FC0C2606FB9E
:102FF00000508368002BC1D02046FFF73DFC704392
:1030000005F800802046FFF737FC06FB0055A8684E
:1030100012F078F9B2E7C94300EB830014F03DFBEE
:10302000E1E7BDE8F08700BF080600209412002009
:10303000094BBFF35B8F1A68BFF35B8F02F0090285
:10304000BFF35B8F53E8001F43E800200028F9D14D
:10305000BFF35B8F704700BF9405002010B5C1E936
:1030600000239DF808300B720C46FFF705FC034B5C
:103070000C2202FB00335C6010BD00BF94120020E4
:103080002DE9F0474FF0FF3206464FF0FF33184866
:10309000884614F0E8F8044638B300F10C07012123
:1030A000384614F041F9012323762046FFF7E4FB6C
:1030B000104D4FF00C0909FB00504FF0000A4680FC
:1030C0002046FFF7D9FB09FB0050C0F808A02046B6
:1030D000FFF7D2FB09FB005503213846C5F804A0D1
:1030E00014F02DF9068080F802802046BDE8F087B4
:1030F000E80A002094120020034B0146D3F86C012B
:1031000082689268104700BFC00400202DE9F84390
:10311000044600F10C06304614F048F9B4F810806B
:10312000B8F1010F054604D82046BDE8F843FFF783
:1031300043BC3046022114F029F90746007814F008
:1031400031FA10F0010906460DD10F4A0F49104817
:1031500040F6FA7313F007FE89F31188BFF36F8FFF
:103160000323184602DF05230A4A3878214614F063
:103170007DFAB307D8D56369A4F8108013FA85F5F2
:10318000E560BDE8F88300BF17BC010096BC0100F4
:1031900079BC01000CA6010038B50C4612F064FDA4
:1031A000237E022B0AD0082B19D121460F4814F098
:1031B0005EF80F490F4816F076FC0BE0E3681878CC
:1031C00014F0F0F9C207054602D52046FFF79EFF2E
:1031D000AB07EAD4002412F05BFD204638BD204640
:1031E000FFF7EAFB6FF01504F5E700BF0C060020BF
:1031F00094060020700B00200148042114F0E4B96B
:10320000940500200048704779BB0100014812F086
:103210006FBA00BF8406002038B505460C4619B9C0
:10322000FFF72EFF0446A8B140F635439D4209D171
:103230002046FFF761FF054650B12046FFF7BCFB73
:10324000284638BD0548214616F075FBFFF7DEFF1E
:103250000025F5E76FF06805F2E700BF14060020CF
:1032600038B502460B46244DD5F8541109B9002053
:1032700038BD05F5987012F07FF80028F7D10022CC
:10328000002305F5AA7012F00BF8044668B91B4A32
:103290001B491C4840F6E93313F065FD84F311889F
:1032A000BFF36F8F0323184602DFD5F8480120B122
:1032B000FFF782FB0023C5F84831204614F002F8DE
:1032C000C5F848012046FFF717FF98B10E4812F0E5
:1032D00019F82046FFF7D0FA0C4B0C2202FB003005
:1032E0001F2140882246FFF71BFE2046FFF764FBA4
:1032F000FFF78CFF0120BBE7C004002017BC0100D2
:10330000AFBC010079BC0100F00500209412002040
:103310002DE9F04F064687B015460C4631B9FFF748
:10332000AFFE044648B96FF068007BE0887AFFF78B
:103330009BFA484B834240F0868001220021684678
:1033400016F012FB2046FFF797FADFF80C910C23DA
:1033500003FB0090C0F808D0204613F0B3FF0146ED
:103360003E4816F0E8FAFFF751FF16F07FFE3C4B9F
:103370001A583C4B9A4222D1DFF8ECA0DFF8ECB0AF
:10338000364816F0EDFA002180464FF4A020FFF7F2
:1033900067FF074688B940F2B11352465946344890
:1033A00013F0E1FC3348314613F0DDFC87F311885C
:1033B000BFF36F8F0323184602DF4445E0D14FF47B
:1033C000A0220023684611F0D7FF074698B140F2CB
:1033D000B713254A2849264813F0C5FC27483A4622
:1033E000314613F0C0FC002383F31188BFF36F8FC5
:1033F0000323184602DF2046FFF73EFA0C2358430A
:1034000019F80060BEB12046093EFFF7D5FA092E33
:103410000ED8DFE806F01B0D0D0A050D0D0D0D1879
:103420006FF00B0007B0BDE8F08F6FF00C00F9E70C
:103430006FF00400F6E715B12C600020F2E720469B
:10344000FFF7BAFAF9E76FF01500EBE76FF06E00DF
:10345000E8E700BFE80A00209412002014060020CC
:10346000080000002011002017BC0100B3BC0100BF
:1034700079BC0100BBBC0100DBBC0100E4BC010065
:10348000F7B50022114640F60340FFF741FF04461E
:10349000002853D1FFF7CCFD214601AA41F20300D9
:1034A000FFF736FF0446002848D1019AB64DD1688F
:1034B000D1F80100D1F8051005F1780303C31046D7
:1034C000FFF77AFA214601AA41F20100FFF720FF37
:1034D000044698BB0198C3685A7885F870205A88CA
:1034E000A5F872201A7985F87120B3F80720A5F89D
:1034F0007420B3F80530A5F87630FFF75DFA214661
:1035000001AA41F20200FFF703FF0446B0B9019F90
:10351000FA6805F18006531C413218685968344630
:1035200003C4083393422646F7D13846FFF744FADE
:1035300095F87C30580604D46FF01204204603B08E
:10354000F0BD01AA002142F20300FFF7E1FE0446AC
:103550000028F3D1019B8D4EDA68D2F80100D2F831
:10356000051003C61846FFF727FA214601AA42F2C2
:103570000200FFF7CDFE04460028DFD1019CE3687E
:10358000B3F8012091B249B1D97839B1A5F8042135
:10359000DA78114606F1280016F0E6F92046FFF722
:1035A0000BFA95F87C601F2316F02006A5F8203151
:1035B00017D1022140F66D40FFF762FD0446002856
:1035C0007BD002210C3013F0BAFE01230370467049
:1035D0002146324640F66D40FFF79AFE0446002829
:1035E000ACD195F89C30190712D501AA002142F2FE
:1035F0001C00FFF78DFE044600289FD10198C36888
:10360000D3F80120D3F80530C5E93823FFF7D4F902
:10361000082142F20100FFF733FD044600284CD098
:1036200008210C3013F08BFE95F8D83095F8D9208E
:1036300013F0020F14BF2F230F2312F0090F18BF2E
:1036400043F40063002203701B0A43708270C2704F
:10365000027142718271C271214642F20100FFF78C
:1036600057FE044600287FF469AF95F87C30B5F822
:1036700004119A0624D4C9B901AA41F20500FFF742
:1036800047FE044600287FF459AFB5F80431019C89
:103690004BB9E368B3F80120A5F804219A883C48A7
:1036A000114616F061F92046FFF786F9082140F629
:1036B0000140FFF7E5FC044638B96FF068043DE7C8
:1036C0000029F3D16FF0040438E708210C3013F01F
:1036D00036FE102303708823437002230022C37038
:1036E00020238270027142718271C371214640F6BB
:1036F0000140FFF70DFE044600287FF41FAF01468E
:1037000001AA4FF60140FFF703FE044620BB0198D3
:10371000FFF752F9214601AA4FF60240FFF7F8FDE4
:103720000446C8B90198C368B3F80130A5F8C130A0
:10373000FFF742F995F8C1305B070DD501AA214684
:103740004FF60340FFF7E4FD30B90198C3685B789A
:1037500085F8C030FFF730F914F0CAF904460028A4
:103760007FF4ECAE01F006FC044600287FF4E6AEE0
:10377000EB79002B3FF4E2AE0821064813F024FF5A
:10378000FFF73AFDDAE600BFC004002098050020EC
:10379000C80500209405002010B5FFF771FE034B0B
:1037A0001B6813B1BDE81040184710BDAC120020D3
:1037B00073B5274D0646D5F86C0115F0F8FE0028C4
:1037C0003FD06FF0020105F1D40013F066FF012134
:1037D00013F0FAFEC30737D413F018FE044668BB93
:1037E0001C4B1E600122114605F5987016F0BCF8BE
:1037F00005F5AA7016F061F8174816F07FF9174919
:10380000154800946FF0070340F6980211F076FF18
:103810001349114816F09DF9D5F86C0111498368D8
:103820001B689847044648B926B902B0BDE8704005
:10383000FFF726BE05F1C40011F05AFF204602B082
:1038400070BD6FF01204F9E76FF07704F6E700BF80
:10385000C0040020AC120020700B00204028002083
:1038600029BD010099310000F7B5144B93F99B3045
:10387000002B05460C461DDA14B9204603B0F0BDF6
:10388000082C01AA4FF0000142F21800264628BF7A
:103890000826FFF73DFD0028F0D1019FF968324668
:1038A0000131284616F024FB3846FFF785F83544E9
:1038B000A41BE1E76FF08500E0E700BFC004002033
:1038C0002DE9F0435A4BB0F80180198848F4704252
:1038D00091424FF0000602BF1E80564B1E78C378FF
:1038E000012B08BF544B00F1040485B00546204667
:1038F0000CBF93F86F70002713F0F3FD2146B0B1B1
:1039000002A813F0E3FDD5F81130CDF80130B5F879
:103910001530ADF805304FF00109EB78012B1DD0C3
:103920001321404614F01BF805B0BDE8F08338467B
:1039300014F0B6F80346006802909A889B7968688C
:10394000ADF80C208DF80E30A288A37995F804907C
:103950000090ADF804208DF80630DEE702A8FFF7EE
:1039600039FAEB78012B04460AD100F057FB6FF0CF
:1039700080010746103013F090FE384614F000FA2C
:10398000002CCDD02346B5F8012023F8702B0298E7
:103990009DF80E20BDF80C1020679A719980B5F83B
:1039A0001730A4F88630B5F81930A4F88C30B5F883
:1039B0001B30A4F88E30EB78E3700022012B62728A
:1039C00024D18DF80090BDF804209DF806300098B1
:1039D000A4F87B2084F87D30C4F8770000F01EFB4B
:1039E000237A154AC3EBC3039918D358C4F87E3021
:1039F0008B88A4F882308B7984F88430D2E938132C
:103A000003F03F03194301D000F0ACFC072120462E
:103A100000F032FF26B166720121204600F02CFF33
:103A2000204601F017F8204600F0FCFE7CE700BFBE
:103A3000E827002004280020C004002000B5C36847
:103A40001A7889B032B13C2A32D109B05DF804EB62
:103A500013F02FBE8DF80020B3F80120ADF801203F
:103A6000DA788DF80320B3F80B20ADF81720B3F8FF
:103A70000D20ADF81920B3F80F20ADF81B205A7CAB
:103A80008DF81D20586801901A899B7A8DF80A30AC
:103A9000094BADF8082068461A689B88CDF80B20C2
:103AA000ADF80F30CDF81120ADF81530FFF708FF55
:103AB00009B05DF804FB00BFB2BB010038B50321BB
:103AC00004460C3013F062FCE3680578B0F801009E
:103AD000197840F6354398420AD02246FFF720FA7B
:103AE00035B1044811F00EFCBDE83840FFF78EBB3D
:103AF00038BD00BFF005002038B5042104460C3065
:103B000013F044FC4578017840882246FFF708FA14
:103B100035B1044811F0F6FBBDE83840FFF776BB3D
:103B200038BD00BFF005002070B54FF0FF320D46E4
:103B30004FF0FF3300210646FFF706F9044660B94F
:103B40000A4A0B490B48132313F00DF984F311882B
:103B5000BFF36F8F0323184602DF022104F10C002C
:103B600013F0EDFB06704570204670BD32BD0100BC
:103B7000AFBC010079BC0100F8B50A4DEF790646EB
:103B80000024E3B29F4202D86FF0010007E029460B
:103B9000304613F07DFF0735631C08B12046F8BDA1
:103BA0001C46EEE7C004002070B5144E06223146D4
:103BB000044616F0CDF9D8B1062142F20500FFF710
:103BC0005FFA0546B0B1062221460C3013F0BDFB6A
:103BD0000022294642F20500FFF79AFB48B9334616
:103BE000226843F86929A288B280012283F86820FC
:103BF000002070BD6FF06800FBE700BF29050020C2
:103C000037B504460D46E9B11E49284613F040FF7A
:103C1000C0B91D4A2968C4EBC404A3181151AA886D
:103C20009A80AA799A71194BBFF35B8F1B68BFF317
:103C30005B8F5B0703D5FEF7EBFF13F0E9FB00207A
:103C400003B030BD684613F033FC0028F8D1684655
:103C5000FFF792FF0028F5DA0B4A00989DF806104E
:103C6000C4EBC404A3181051BDF8040098809971E6
:103C7000002DD8D012592A609A88AA809B79AB71FE
:103C8000D1E700BFA5BB0100C004002094050020BF
:103C900070B5044611B16FF0150070BD80B11C49BC
:103CA00013F0F6FE60B92046FFF766FF002829DA18
:103CB0002378012BEFD1A37903F0C003C02BEAD105
:103CC000144DEB79012B20D0BFF35B8FD5F8D430A6
:103CD000BFF35B8FDB0707D4002CDCD00C492046F8
:103CE00013F0D6FE0028D6D1EE792146731C30465B
:103CF000EB71FFF785FF08B93046CEE7EB79013B62
:103D0000EB71CAE76FF07700C7E76FF00B00C4E70D
:103D1000A5BB0100C00400202DE9F3410446D8B141
:103D200001AA002141F20900FFF7F2FA054698B90D
:103D3000019E1249D6F80C8008F101070622384688
:103D400016F006F928B10E490622384616F000F999
:103D500030B93046FEF730FE002002B0BDE8F081F9
:103D6000D8F80130C4F80130BB88A4F805303046DB
:103D70002570FEF721FE0120EFE700BFB2BB010076
:103D8000ACBB010007B56846FFF7C6FF044BD8710E
:103D900018B169460020FFF733FF03B05DF804FB5C
:103DA000C0040020F0B5294DEE7989B0002E46D12F
:103DB00095F8C230DB0722D56A4631464FF60940F6
:103DC000FFF7A6FAD8B9DDF800C0DCF80C4063783C
:103DD000012B1E4628BF012673B1A31C02AA123470
:103DE00018685968174603C70833A3423A46F7D103
:103DF000186838609B88BB806046FEF7DDFDEE7179
:103E0000002416260127EB79E0B2834202D8B3B131
:103E1000002012E008AB06FB0033694653F8182C6B
:103E200033F8143CCDF80120ADF805308DF8007062
:103E3000FFF7E6FE01340028E5D009B0F0BD00210F
:103E4000084609B0BDE8F040FFF722BFC0040020DB
:103E50002DE9F0410D4617461C460646002856D06F
:103E6000002B54D00A03037808D56D074FD413F004
:103E700024FE002849D1012323700CE0E9072CD54A
:103E800026480FB1AA0608D4C3EBC302825C012AFC
:103E900012D002B92270002037E090F8D8205106E5
:103EA00038D5C3EBC302825C012A05D002B9227067
:103EB000237843F00203DFE74FF00108072111FBED
:103EC00003810144304613F0F0FDF0B984F800801E
:103ED000002FE0D0AB06DED5EAE76A0711D50F491F
:103EE000C3EBC3028E5C012E08D1072212FB0363D1
:103EF000194413F0DAFD40B92670EBE7002EE9D142
:103F0000FAE713F0DAFD01232370BDE8F0816FF0CA
:103F10001500FAE76FF08500F7E700BFC004002046
:103F2000F8B545686905064635D4046914B115F03D
:103F3000010330D0194F3078FB7983422BD9C0EB85
:103F4000C00017490722384416F002F8A8B115F04E
:103F5000010306D197F87020082A02D8B2689F2A78
:103F600019D915F0300F09D0ACB1EA060AD405F41E
:103F70006035B5F5603018BF0120F8BDEB0601D4FF
:103F8000002CF4D1D6E902239A4204D81F2A02D980
:103F9000B3F5804FEBD90020EFE700BFC00400204D
:103FA000A5BB010008B504490722093015F0D0FF70
:103FB000003818BF012008BDA5BB0100F8B5154B9E
:103FC000067883F86F6004460D46FFF7EBFF70B983
:103FD0001149304600F0B6FE044610B96FF00B00F0
:103FE000F8BD052100F048FC2C600020F8E704F142
:103FF00009073946304613F0F8FF40B920783946B2
:1040000000F0A0FE04460028E8D00621EAE76FF0A1
:104010001500E5E7C00400209EBB01000048704782
:10402000D80400202DE9F04FD1F810908DB09A46B9
:104030000023B9EB030605469048059218BF0126F8
:10404000079313F066FD0C46410740F10C812046B2
:10405000FFF766FF28B96FF0150B58460DB0BDE8A5
:10406000F08F204613F040FD80460028F3D005F184
:104070001007384613F04DFD0206C0F3C01300F1DF
:10408000F580CDE90933CDF82B30A3686068ADF831
:104090002030E368ADF8223013F02CFD6FF480710E
:1040A0008DF82D00754813F03AFD754A23782B7072
:1040B00082F86F3061680DF1250332462846FFF71C
:1040C000C7FE83460028C8D105F10903B9F1000FE6
:1040D00018D021690868C5F809008888988089790E
:1040E0009971204613F017FE63680646D8071BD463
:1040F0009A0503D4169B0BB9022E56D102238DF8D4
:10410000243023E05F4A1168C5F80910918892793C
:1041100099809A71204613F0FEFD6368D907064620
:10412000E6D58DF8249011E013F0100F0CBF012399
:1041300004238DF8243023691968CDF82610998856
:10414000ADF82A109B798DF82C30D8460F2142F219
:104150000600FEF795FF8346002800F08A800F22B4
:1041600008A90C3013F0F1F80022594642F206007B
:10417000FFF7CEF800287FD1B9F1000F1BD063689C
:10418000DB0726D42846012113F0D5FD079D834681
:10419000002860D0002D3FF460AF2846002100F0D9
:1041A0006BFB284600F03EFB57E70323DDF8588001
:1041B0008DF82430CAE7179B0093CDE90186169B42
:1041C00005995246284613F02FFD83460028D6D085
:1041D00043E707A92846FFF7F1FE83460028D1D020
:1041E00010F10C0F7FF439AFB9F1000F7FF435AF48
:1041F000636898073FF531AF626882F00202C2F34C
:10420000400B0BF001020E21384613F0F6FC731E32
:104210005A425A410821384613F0EFFCB11E4A4277
:104220004A413846092113F0E8FC62680A2102F08D
:104230000102384613F0E1FC42460B21384613F0E8
:10424000DCFC62680D21C2F38002384613F0D5FC15
:104250004FF0000B01E715B1284600F0E3FAB9F181
:10426000000FCED1C8E76FF00A0BF6E66FF0770BC0
:10427000F3E66FF0680BF0E68346EEE69405002067
:10428000C0040020A5BB010073B51546069A0C4674
:10429000CDE900322B460A4601461148FFF7C2FE1F
:1042A00021460646002340F201109D4202D13046CD
:1042B00002B070BD0A88824204D14A6812B11278F5
:1042C000D20702D401330831EFE70649064815F05A
:1042D0001BFC4FF470220023034811F0ABFAE6E711
:1042E000D8040020877D0100F004002010B5194893
:1042F00013F046FD18486FF4804113F010FC164887
:1043000013F007FC03461A06C0F3C01021D512486B
:1043100013F0FFFB430513D50E48FFF743FE0F498B
:104320000346087E93B90E49052200F04FFD04466E
:1043300030B10021417200F09FFA204600F072FA7D
:10434000BDE810400348002113F0F5BC06222131DE
:10435000EBE710BDD8040020E8040020C0040020D2
:104360009EBB010073B53248314C13F0D2FB10F400
:10437000804F5AD0204613F0CCFB030655D420467C
:1043800013F0C7FB460550D501A9A4F11000FFF7B3
:1043900015FE002849D1A4F11000FFF703FE0246E4
:1043A000204613F0B6FBC0F38031204613F0B1FB7A
:1043B00081F0010145054FEA41011D4848BF41F028
:1043C000010113F0A6FB800448BF41F00401194825
:1043D0000DF10303FFF73CFD054630BB15480121F5
:1043E00013F0A9FC019E28B9304602B0BDE8704028
:1043F00000F018BA2946304600F03EFA6FF48041CA
:104400000B4813F08CFB0546304600F00BFA6B04AA
:104410000BD5BFF35B8F54E8003F43F4804344E87F
:104420000032002AF7D1BFF35B8F02B070BD00BF2E
:10443000E8040020D804002070B50C4B1C68054629
:1044400044B154F8143C143C13B1697A2846984797
:104450006469F5E7064C074EB44200D370BD23688B
:1044600013B1697A284698471834F5E7E41200201A
:10447000B0A30100C8A3010010B50446FEF7FCF983
:10448000044901EB0011204613F06CF8BDE8104020
:10449000FEF7BCBEB012002070B5D1E90156002273
:1044A0000446C1E90122064815F045FA3DB13146FE
:1044B00020462B466FF06D02BDE87040184770BD76
:1044C000200A002070B5002205460E460948002348
:1044D0000021FEF7F3F9044658B1FEF7CDF9064B7B
:1044E000324603EB001329462046BDE8704013F026
:1044F00014B870BDBC0A0020B012002013B5837A36
:10450000072B044625D1BFF35B8F043050E8003FF2
:1045100043F4806240E800210029F7D1BFF35B8FAC
:10452000590516D413F041FCC2030CD50A4B93F87D
:10453000D930DB070DD50021022300911A46204611
:1045400013F04CFA05E0204613F02EFAA37A072B5D
:10455000ECD002B010BD00BFC004002070B505460D
:104560000F480022002310F007FFB8B90D4B1C685C
:1045700034B154F80C3C143C03B198476469F7E734
:10458000094C0A4EB44204D32846BDE8704011F0ED
:10459000AFB8A36803B198471834F3E770BD00BF04
:1045A000080A0020E4120020B0A30100C8A3010003
:1045B0002DE9F843DFF85480044620270025EFF367
:1045C000118387F31288BFF36F8FE16929B983F3F1
:1045D0001188BFF36F8FBDE8F883206A0A68E26133
:1045E000814208BF226283F31188BFF36F8FD1E944
:1045F00001694046C1E9015515F09DF91EB100223F
:1046000049462046B047FEF701FED8E7200A0020C1
:104610000448B0F80431002B00F5847008BF002076
:10462000704700BFC004002030B5044615F01EFDE1
:104630000D460C490C4A095891428BB005D12046D1
:104640000BB0BDE83040FFF7B3BF2434214610461D
:1046500015F029FA1DB16946204615F034FA0BB061
:1046600030BD00BF080000002011002038B5002236
:1046700004468A4202D10024204638BD04F1C80312
:104680000120BFF35B8F53E8005F002D04D143E8A6
:10469000000CBCF1000FF6D1BFF35B8F02D0D03419
:1046A0000244E6E7002CE6D0C8220021204615F09F
:1046B00047FC04F14000044915F026FA034904F1CF
:1046C000240015F0D4F9D7E7794E0000E57D01000C
:1046D00038B50122044600F1BC03BFF35B8F53E8F9
:1046E000005F43E800210029F9D1BFF35B8F7DB95A
:1046F00013F0FEFB11F0B8FA094BC4F8B850D3F828
:10470000281104F1B80239B9C3E9492211F0C0FAFD
:10471000BDE83840FEF77ABD0A60C3F82821F5E706
:10472000C004002070B53C4B5A8B32B13B4DD5F8DC
:10473000244134B90024204670BD1B68002BF5D1FC
:10474000F8E754F8B83903B1B83B3549002601E021
:104750001C461346B5F80421002A5AD0D5F810217A
:104760004AB904F1B806002BE4D0D3F8B820002AE7
:10477000EED0B83AECE70A68002AF2D0D4F8A420C8
:10478000002AEED0D4F8A820002AEAD0D4F8AC2031
:10479000002AE6D0A37A072B0DD12046904750B1CE
:1047A00004F1C00013F001FB022804DC2046BDE840
:1047B000704013F09DBBD4F8B83004F1B80206BBCA
:1047C000D5F82811C5F824318A4201D1C5F828311D
:1047D0000022C4F8B82004F1BC03BFF35B8F53E898
:1047E000001F43E800200028F9D1BFF35B8F20466B
:1047F000D4F8AC30984700289DD02046FFF768FFDA
:1048000099E73360D5F828319A4208BFC5F8286186
:10481000DEE79368FFDE00BFBC0A0020C004002072
:10482000200A002037B5C83010F8C65C10F8C54C17
:10483000BFF35B8F50E8003F5A1E40E8002100297B
:10484000F8D1BFF35B8F01A8019313F0AEFA0128F2
:104850000BD1074810F056FD064810F049FF012D16
:1048600003D1012C01D1FFF77DFD03B030BD00BFA6
:10487000080A0020B406002070B5857A8D420446EF
:104880007ED0817225B98378082B01D013F030FBDC
:10489000A37A012B09D13B4D05F584766169002986
:1048A0005CD1BDE87040FEF7B1BC072B09D0002BEE
:1048B00066D1A378042B20D12046BDE87040FFF7D5
:1048C000B1BFA378042B5BD02F48002111F034FD39
:1048D0000023C4E90D33E378012B51D1A378012BD8
:1048E00004BF032384F8943004F140004FF42032D5
:1048F000BDE87040002310F069BF082D40D801A327
:1049000053F825F081490000294900004F49000073
:10491000B9480000B9480000B94800004F490000FC
:10492000814900008149000004F14005284615F046
:10493000F7F820460121FFF777FE204613F070FAC2
:1049400028460022BDE87040002310F073BF637A50
:10495000002BB1D02046FFF76FFDADE7A2690B68D1
:104960006361914208BFA3612046FFF795FDB5F84A
:104970000431002B14BF3046002010F0C3FC8DE73B
:1049800070BD00BFC0040020C406002010B5024660
:104990000C460748012113F0C6FA034610B900235C
:1049A000184610BD82781442FAD1FFF73BFFF6E7B4
:1049B000100C0020F8B5074609480D46164613F0BE
:1049C00097FA044650B183781F4203D1BDE8F840FE
:1049D000FFF728BF3146A8472046F7E7F8BD00BFDC
:1049E000100C0020024900220120FFF7E3BF00BFA6
:1049F000FD440000034BC01A034B00115843C0B2E2
:104A0000704700BF100C0020C54EECC470B51C46AA
:104A1000144305460E4608D015F028FB0A490858ED
:104A20000A49884204BF002213460949002D14BFD9
:104A30002846084612F017FC044618B1711D0C30C8
:104A400012F072FC204670BD08000000201100200A
:104A5000380A002010B50446054810F049FE2046EB
:104A600000F0B8FA2046BDE81040FFF7E5BC00BFF3
:104A7000A40600202DE9F04F85B000230193039395
:104A8000FFF750FE044668B1827AD0F8A430072AB6
:104A900017D002AA4FF0FF319847014628B92046A7
:104AA000FFF7C0FE05B0BDE8F08F039B019A2046DA
:104AB00013F081F9D4F8A43002AA4FF0FF31204658
:104AC000EAE7DFF8689102AAB9F8041198470646A8
:104AD0000028E4D0B9F80421029B9A4206D301468B
:104AE000D4F8A85003AB01AA2046A847338A039FF5
:104AF000DDE9018B002B00F08E80304612F048FD7E
:104B00008246002840F08780B9F804314848002BDD
:104B100008BF00200022002310F02EFC00287AD1CC
:104B200044480022002310F0BBFB0546002872D049
:104B3000C0E90187B9F80471338ABB4598BF1FFAF1
:104B40008BF7BB4242D9304612F0BCFB3946FFF727
:104B5000B9FCB9F8043194F8C4809B458CBF4FF080
:104B6000010A08F1020884F8C4A0074698BF5FFA5A
:104B700088F804F1C00ABFF35B8F5AE8003F0133A5
:104B80004AE80032002AF8D1BFF35B8F00232B6084
:104B9000A369F3B9C4E90555A378012B1CD10421FD
:104BA00007F10C0012F0E2FB238808F0FD0843EA4D
:104BB000083303803B8A043B438004233B7638461A
:104BC000FEF79AFA40B9FEF721FB68E7394630460E
:104BD000BDE71D60A561DFE7BFF35B8F5AE8003FCB
:104BE000013B4AE80032002AF8D1BFF35B8F294627
:104BF00004F1140013F0F9F83846FDF7DDFE204605
:104C00002946FFF749FCB9F804310948002B08BFD1
:104C1000002010F077FB31462046039B019A13F0E9
:104C2000CAF81321204613F0A0F938E7C004002089
:104C3000C8050020200A0020F8B5031D04461846C8
:104C400013F0B3F8820419D5B4F88620B4F88810AC
:104C5000914213D8B4F88A1091420FD3D4E92312A9
:104C600091420BD1BFF35B8F53E8001F21F4005139
:104C700043E80012002AF7D1BFF35B8F104B1D6889
:104C80006DB155F8046C143D3EB1B4F88E30B4F8F3
:104C90008C20B4F886102046B0476D69F0E7094DC6
:104CA000094FBD4200D3F8BD2E693EB1B4F88E3035
:104CB000B4F88C20B4F886102046B0471835F0E7D9
:104CC000E4120020B0A30100C8A301002DE9F041C7
:104CD000074608460D4612F0AFFD064618B90026F5
:104CE0003046BDE8F081144B1C6884B154F8083C90
:104CF000143C0BB96469F8E7294638469847002800
:104D0000EDD0284612F098FD0028F3D1E7E70B4CD0
:104D1000DFF82C804445E3D2E3680BB91834F9E797
:104D20002946384698470028D9D0284612F084FDF5
:104D30000028F3D1D3E700BFE4120020B0A30100A4
:104D4000C8A3010038B505460C460E480121FFF7FF
:104D50008DFCB0B1057223680367A388A0F8743096
:104D6000A37980F8763001238370074BC0F8A43014
:104D7000064BC0F8A830064BC0F8AC30054BC0F865
:104D8000883038BD100C0020AD500000977D010028
:104D90008B7D01001800280070B505460A480E46B4
:104DA00013F0A6F8044620B18378012B04D0FFF756
:104DB00039FD0024204670BD3246294613F0F5F82F
:104DC0000028F7D12046F2E7100C0020F8B5054680
:104DD0000E480E46174613F08BF8044620B1837830
:104DE000012B03D0FFF71EFD00240DE036B1324643
:104DF000294613F0DAF808B92046F3E7A37ABB4254
:104E0000FAD1237AAB42F7D12046F8BD100C00202E
:104E100038B5044608460D4612F00EFD38B3154B62
:104E200093F8D830990707D4E37873B12946204620
:104E3000BDE8384000F0A0B994F895309A07F3D552
:104E4000201D12F0B2FF4304EED42946204613F091
:104E5000E4F858B92B88A4F888306B88A4F88A3015
:104E6000AB88A4F89030EB88A4F8923038BD6FF08E
:104E70001500FBE7C0040020F7B510F8363C0446E7
:104E8000A0F140060BBB304613F079F9354B1D6895
:104E90004DB155F8103C143D1BB114F8371C304689
:104EA00098476D69F4E7304D304FBD4205D3304629
:104EB00003B0BDE8F040FFF7B5BC6B681BB114F858
:104EC000371C304698471835EFE710F83E3C012B69
:104ED00030D1BFF35B8FA0F13C0555E8003F23F4D0
:104EE000005245E800210029F7D1BFF35B8F9B04F6
:104EF00022D5A36C00936946236D01933046FFF7DA
:104F000087FF58B9BFF35B8F55E8003F23F4805308
:104F100045E80032002AF7D1BFF35B8FBFF35B8F08
:104F200055E8003F43F4006345E80032002AF7D11A
:104F3000BFF35B8F03B0F0BD0D4A106851686B463C
:104F400003C369463046FFF763FF0028E6D1BFF38D
:104F50005B8F55E8003F43F4805345E80032002A58
:104F6000DAD0F6E7E4120020B0A30100C8A30100E4
:104F70006CA4010010B50C4814F09FFC0B490A48C2
:104F800014F0D9FC0A49084814F0D5FC0949064830
:104F900014F0D1FC13F020FE14F03DF9044608B9DA
:104FA00013F0B0F9204610BD200A0020C0120020E6
:104FB000CC120020D8120020044B186818B9044AFB
:104FC0005A600B6070476FF00B007047EC120020C6
:104FD000B4A60100F7B5274D274F04460026BD4271
:104FE00001D303B0F0BD6B6801A9204698470028A3
:104FF0003BDB019B2A889A829A8403F11002A868FD
:10500000BFF35B8F52E8001F42E8006CBCF1000F59
:10501000F8D1BFF35B8FC3E913669E649E60A16BFA
:1050200003F1080219BBC4E90D221C60D86003F12A
:10503000300014F042FC019843681B6803B19847A4
:10504000019BBFF35B8F103353E8001F41F0010158
:1050500043E80012002AF7D1BFF35B8F0198436841
:10506000DB6913B100F1100198470C35B7E70A600E
:10507000A263DAE78CA30100B0A3010030B50446B7
:1050800052EA030008D014F0F1FF064D2D580648EF
:10509000854204BF0022134620460431BDE830405B
:1050A000FFF7B4BC08000000201100202DE9F843F0
:1050B000D0F8B0400E4690464CB1483C236B63B1EB
:1050C00004F13009484614F04BFC054650B9FEF790
:1050D0009DF800252846BDE8F883204612F0E7FF3A
:1050E000A46CE9E712F054FA0028F2D1236D9BB9C1
:1050F000A38C2F8A403B9BB23F2B03D8238D9F422A
:1051000028BF1F46042105F10C0012F02FF907807B
:10511000A38C438004372765236D2A8A9E420ED3D1
:10512000934215D0A38C403B9BB23F2B1ED9204607
:1051300012F0BDFF236B13B1204612F098FF236DD0
:10514000C8F800309E4234BF9E1B00262665C1E78A
:1051500000220023484610F0A3F8A38CA3F14002DC
:105160003F2AE4D8034AAA61EB61E0E70022134634
:10517000F9E700BF2B82010070B5124B0C4619787D
:105180000131C9B2012938BF012105460822122088
:10519000197013F00CF8064688B108210C3012F093
:1051A000CEF82288028062884280A2888280E288CB
:1051B000C28031462846BDE8704013F043B86FF016
:1051C0000B0070BD0528002023281FD81A2804D8FA
:1051D000431E182B0ED906207047A0F11B03082B85
:1051E0001ED8DFE803F0051D1B231D19251D050032
:1051F000032070470F4A012383401A40C2B90E4A68
:105200001A40002A14BF01200620704700F07F03D7
:10521000522B05D1002070470120704705207047B0
:1052200010F0400F0CBF062000207047042070478C
:1052300002207047AAAA8A025455450170B50E464D
:10524000438D418B8B4202F1010228BF0B469A42EB
:1052500005461ED83046FFF7B7FF022810D00428B5
:105260000ED014F003FF144B1958144B994213D06D
:10527000134B1B685A1A18BF4FF0FF32134602E057
:105280004FF4702200230F480021FFF7F7FE044679
:1052900020B90024204670BD0022EFE7FDF7ECFAAC
:1052A000094B182202FB0033012104F10C009D6020
:1052B00012F045F80670EDE708000000201100200C
:1052C00088130020640A002040130020011F0148B9
:1052D00014F01EBABC09002010B500F154030446B6
:1052E000BFF35B8F53E8001F41F0010143E8001258
:1052F000002AF7D1BFF35B8F201F13F063F904F18D
:105300007400044914F000FC2068BDE8104001F06E
:1053100095BB00BF118C010070B503788AB00446BC
:105320000E4607AD032B20D8DFE803F002191B1D42
:1053300011492846FAF7FEFE059563780493A37891
:105340000393E37802932379019363790093A3791C
:105350000A4A1E21304611F03DF80AB070BD0849D6
:10536000E7E70849E5E70849E3E7084A0A2128464C
:1053700011F030F8E0E700BF68BD010091BD010009
:105380006FBD010076BD010080BD01008ABD010036
:105390002DE9FF4105460E464FF000084FF420531B
:1053A000006817688DF8088002A91446ADF80A3025
:1053B00012F030F8A0B142F6010328688DF80C8095
:1053C00003A9ADF80E3012F025F848B123691BB1DE
:1053D0005A88B24200D25E80012004B0BDE8F0815C
:1053E0006168286812F016F810B100232361F3E712
:1053F000E368A0681A786AB1B7F82AC0798B038A83
:105400008C4594BFC3EB0C03C3EB0103934201DA59
:105410000020E2E704210C3011F091FF20610680AA
:1054200023695E80074B00930194A26800232946FC
:10543000384613F00AF90028EADB2069003818BF63
:105440000120CAE72B860100F7B5002304460E466B
:105450002B48002269460FF02DFE0546D0B914F006
:1054600005FE284B009F1A58274B29461A60381D05
:10547000282214F065FD3C60009C24480195C4E995
:105480000155C4E909550022002301A90FF012FEBD
:10549000054620B16FF00B05284603B0F0BD019B17
:1054A0000146B022184614F04BFD194A8260603064
:1054B00014F003FA019BBFF35B8F583353E8002FBE
:1054C00043E800510029F9D1BFF35B8F019B1C60B9
:1054D000636A019F1BB904F10C0014F0EEF9626AD3
:1054E000C7F8A820A26A07F1A803636202B9A36201
:1054F000019B17225A855A8304333360CCE700BFDF
:10550000A00900200800000088130020BC0900202A
:10551000D40600202DE9F743176805468846006841
:1055200051687E68144611F075FF8146002842D10B
:1055300030469522294613F059FD0646207540B1A4
:10554000E3681B780BB184F81490002003B0BDE829
:10555000F083A06811F0BAFE02210C3011F0EFFECA
:10556000164B2061A0F8008000930194A268334696
:105570002946384613F069F8002807DA10F1FF0FC2
:1055800026BF4042C0B20E202075DEE72369002B03
:10559000DBD0A06812F0C1FE7B8D7A8B9A4294BF5B
:1055A000C0EB0200C0EB0300E3681B78984294BF95
:1055B00000200120CAE70120C8E700BF2B830100BB
:1055C0002DE9F74F064608460C46FDF755F9DFF87A
:1055D00098801823434308EB03020546D2F808A03D
:1055E000E068BFF35B8FB16DBFF35B8FC90738D540
:1055F000E16809781171002248F803200378D22B62
:105600000ED133682146186813F002FE40B10190B4
:105610002046FDF7D1F9019B184603B0BDE8F08F95
:1056200004F10C0011F0C2FE18235D4308EB0509DC
:1056300000231A4607462146301DB4F810B0C9F8B9
:10564000086012F0CAFD03460028E5D06269A4F89C
:1056500010B012FA87F7E76048F80500C9F808A00B
:10566000DAE76FF01503D7E7401300202DE9F14F7B
:105670000546FDF701F93349182202FB00F3C8186B
:1056800051F803A00779B0F80680D0F810900021F7
:10569000D0E9024614F054FCA87AFDF7E5F86969F0
:1056A000834651B16B7AD80705D4DBF824301B68E8
:1056B00028469B68984700236B612946584614F09A
:1056C00045F9002F31D084B3236873B31B6863B3EB
:1056D000BAF1000F29D1201D13F07DF93846FFF7EC
:1056E00073FD052821D8DFE800F0160320162003FB
:1056F000BFF35B8FA36DBFF35B8FDA0715D5E36D47
:105700009BB14FF47022002304F1780001B0BDE892
:10571000F04F10F08FB823681D68BFF35B8FA36D47
:10572000BFF35B8FDB0700D556B901B0BDE8F08F42
:1057300049462846B0470134A3B29845F8D8F4E763
:105740000024F9E740130020F8B50B8A07680446E7
:105750000D46002B39D0012105F10C0011F016FE89
:10576000BB7A072B064630D154F8043C6BB3017862
:105770001748043C002310F833708F4200EBC3023B
:1057800008D1298A53789778994213D2012F1CD1D6
:10579000042317E001330E2BEDD10846FFF714FD6B
:1057A00098B1052811D081B106230022204613F0BC
:1057B00056F90AE05368294620469847012F0346C8
:1057C00003D110B131780029EFD10020F8BD00BF1E
:1057D000DCA60100F0B51E4603680D46003987B00F
:1057E000044618BF01211868174613F0E4FC40B9BD
:1057F00004F1580012F0EBFF002844D0002007B05D
:10580000F0BD002E41D018220021684614F098FB0C
:1058100047BB23681E4A1B6800930023ADF8123073
:105820000C9B0393BDF83430ADF8103001238DF894
:10583000143031466B4630468DF8085012F0B8FDF2
:105840009DF81430C3B1002FD8D00198FDF7B4F8FB
:105850009DF81430002DD1D032462946204613F051
:10586000FEF8CBE7002239462046FFF7E7FC01901F
:105870000028CED11120C2E701990029BED02046D0
:1058800013F0DFF8BAE71220B9E70120B7E700BF4D
:105890004F830100F8B54FF47022074600230D48EE
:1058A0000E4611F0E0FC044690B100F10C05092110
:1058B000284611F039FD2046FCF7DEFF064B182282
:1058C00002FB0033012128469F6011F038FD06706D
:1058D0002046F8BD640A0020401300202DE9F04165
:1058E0000E8A043EF6B2022E04468CB0084601D061
:1058F000102E64D104210C3011F048FD0DF1080880
:1059000005884788011D3246404611F0B1FD002848
:1059100057D09DB3002687B3BD422FD84FF42053F4
:1059200001A940468DF80460ADF8063011F072FD13
:1059300040BB1422002107A814F002FB11212046CD
:10594000FFF7A8FF0990002837D001210C30CDE9DE
:10595000074811F0F4FC00230A901B4A03703946F3
:105960000B93284607AB12F023FD0A9B1B78FBB96B
:105970000998FDF721F80A2301E03D4601232A4654
:1059800010210EE042F6010307A940468DF81C6085
:10599000ADF81E3011F03EFD0028CAD010232A4673
:1059A0001946204613F05BF800200CB0BDE8F081EA
:1059B0000999204613F045F8F6E71120F5E7042091
:1059C000F3E70E20F1E700BF915300002DE9F0430B
:1059D000036885B004460D461868012113F0EBFBFF
:1059E00040B904F1580012F0F2FEB0BB122005B02D
:1059F000BDE8F08310220021684614F0A1FA2121AD
:105A00002046FFF747FF029048B3DFF85890009414
:105A100005F10C074FF001082B8A012B04D80299DD
:105A2000204613F00EF818E0384611F0B7FC6B462C
:105A30004A46014606468DF80C8012F0B9FC9DF8E6
:105A40000C30002BE8D00298FCF7B6FF9DF80C3024
:105A500032462021204613F002F80020C7E711202B
:105A6000C5E700BF338801002DE9F043036885B026
:105A700004460D461868012113F09DFB40B904F15E
:105A8000580012F0A4FEB0BB122005B0BDE8F083B0
:105A900010220021684614F053FA0F212046FFF728
:105AA000F9FE029048B3DFF85890009405F10C0716
:105AB0004FF001082B8A012B04D80299204612F0DE
:105AC000C0FF18E0384611F069FC6B464A460146B3
:105AD00006468DF80C8012F06BFC9DF80C30002B04
