:100000004083002099750000499402008575000026
:1000100085750000857500008575000000000000F2
:100020000000000000000000000000005D760000FD
:100030008575000000000000FD750000857500005A
:100040001D780000D9C101001D7800001D78000056
:100050001D7800001D7800001D7800001D7800004C
:100060001D7800001D7800001D7800001D7800003C
:100070001D7800001D7800001D7800001D7800002C
:100080001D7800001D7800001D7800001D7800001C
:100090001D7800001D7800001D7800001D7800000C
:1000A0001D7800001D7800001D7800001D780000FC
:1000B0001D7800001D7800001D7800001D780000EC
:1000C0001D7800001D7800001D7800001D780000DC
:1000D0001D7800001D7800001D7800001D780000CC
:1000E0001D7800001D7800001D7800001D780000BC
:1000F0001D7800001D7800001D7800001D780000AC
:100100004FF0FF0C1CEAD0521EBF1CEAD15392EAFA
:100110000C0F93EA0C0F6FD01A4480EA010C4002D6
:1001200018BF5FEA41211ED04FF0006343EA501030
:1001300043EA5111A0FB01310CF00040B1F5000F72
:100140003EBF490041EAD3715B0040EA010062F121
:100150007F02FD2A1DD8B3F1004F40EBC25008BF0B
:1001600020F00100704790F0000F0CF0004C08BF29
:1001700049024CEA502040EA51207F3AC2BFD2F1F6
:10018000FF0340EAC250704740F400004FF0000304
:10019000013A5DDC12F1190FDCBF00F0004070473E
:1001A000C2F10002410021FA02F1C2F1200200FA7C
:1001B00002FC5FEA310040F1000053EA4C0308BF43
:1001C00020EADC70704792F0000F00F0004C02BF94
:1001D000400010F4000F013AF9D040EA0C0093F00F
:1001E000000F01F0004C02BF490011F4000F013B69
:1001F000F9D041EA0C018FE70CEAD15392EA0C0FD7
:1002000018BF93EA0C0F0AD030F0004C18BF31F041
:10021000004CD8D180EA010000F00040704790F017
:10022000000F17BF90F0004F084691F0000F91F0BB
:10023000004F14D092EA0C0F01D142020FD193EA81
:100240000C0F03D14B0218BF084608D180EA010009
:1002500000F0004040F0FE4040F40000704740F0E5
:10026000FE4040F44000704781F0004102E000BFD2
:1002700083F0004330B54FEA41044FEA430594EA66
:10028000050F08BF90EA020F1FBF54EA000C55EAA1
:10029000020C7FEA645C7FEA655C00F0E2804FEA72
:1002A0005454D4EB5555B8BF6D420CDD2C4480EA54
:1002B000020281EA030382EA000083EA010180EA84
:1002C000020281EA0303362D88BF30BD11F0004FD2
:1002D0004FEA01314FF4801C4CEA113102D0404208
:1002E00061EB410113F0004F4FEA03334CEA133343
:1002F00002D0524263EB430394EA050F00F0A7805B
:10030000A4F10104D5F1200E0DDB02FA0EFC22FA55
:1003100005F2801841F1000103FA0EF2801843FA49
:1003200005F359410EE0A5F120050EF1200E012A3A
:1003300003FA0EFC28BF4CF0020C43FA05F3C01878
:1003400051EBE37101F0004507D54FF0000EDCF1F1
:10035000000C7EEB00006EEB0101B1F5801F1BD39A
:10036000B1F5001F0CD349085FEA30004FEA3C0C9E
:1003700004F101044FEA445212F5800F80F09A8094
:10038000BCF1004F08BF5FEA500C50F1000041EB98
:10039000045141EA050130BD5FEA4C0C404141EB9C
:1003A0000101013C28BFB1F5801FE9D291F0000F97
:1003B00004BF01460020B1FA81F308BF2033A3F146
:1003C0000B03B3F120020CDA0C3208DD02F1140C3D
:1003D000C2F10C0201FA0CF021FA02F10CE002F178
:1003E0001402D8BFC2F1200C01FA02F120FA0CFC71
:1003F000DCBF41EA0C019040E41AA2BF01EB0451BA
:10040000294330BD6FEA04041F3C1CDA0C340EDCB7
:1004100004F11404C4F1200220FA04F001FA02F3FA
:1004200040EA030021FA04F345EA030130BDC4F1B8
:100430000C04C4F1200220FA02F001FA04F340EAAD
:100440000300294630BD21FA04F0294630BD94F05E
:10045000000F83F4801306BF81F480110134013D45
:100460004EE77FEA645C18BF7FEA655C29D094EAB6
:10047000050F08BF90EA020F05D054EA000C04BF34
:100480001946104630BD91EA030F1EBF002100201F
:1004900030BD5FEA545C05D14000494128BF41F0BE
:1004A000004130BD14F580043CBF01F5801130BD22
:1004B00001F0004545F0FE4141F470014FF00000AD
:1004C00030BD7FEA645C1ABF194610467FEA655C5E
:1004D0001CBF0B46024650EA013406BF52EA033500
:1004E00091EA030F41F4002130BD00BF90F0000FEE
:1004F00004BF0021704730B54FF4806404F132042A
:100500004FF000054FF0000150E700BF90F0000FE2
:1005100004BF0021704730B54FF4806404F1320409
:1005200010F0004548BF40424FF000013EE700BFD9
:1005300042004FEAE2014FEA31014FEA02701FBF69
:1005400012F07F4393F07F4F81F06051704732F09B
:100550007F4208BF704793F07F4F04BF41F40021F2
:10056000704730B54FF4607401F0004521F0004150
:100570001CE700BF50EA010208BF704730B54FF0DA
:1005800000050AE050EA010208BF704730B511F0DB
:10059000004502D5404261EB41014FF4806404F113
:1005A00032045FEA915C3FF4D8AE4FF003025FEA99
:1005B000DC0C18BF03325FEADC0C18BF033202EB1D
:1005C000DC02C2F1200300FA03FC20FA02F001FA77
:1005D00003FE40EA0E0021FA02F11444BDE600BF1A
:1005E00070B54FF0FF0C4CF4E06C1CEA11541DBFC9
:1005F0001CEA135594EA0C0F95EA0C0F00F0DEF894
:100600002C4481EA030621EA4C5123EA4C5350EA78
:10061000013518BF52EA033541F4801143F48013C9
:1006200038D0A0FB02CE4FF00005E1FB02E506F05A
:100630000042E0FB03E54FF00006E1FB03569CF0AF
:10064000000F18BF4EF0010EA4F1FF04B6F5007FB5
:1006500064F5407404D25FEA4E0E6D4146EB060627
:1006600042EAC62141EA55514FEAC52040EA5E50B0
:100670004FEACE2EB4F1FD0C88BFBCF5E06F1ED85A
:10068000BEF1004F08BF5FEA500E50F1000041EB91
:10069000045170BD06F0004646EA010140EA02003E
:1006A00081EA0301B4EB5C04C2BFD4EB0C0541EA60
:1006B000045170BD41F480114FF0000E013C00F375
:1006C000AB8014F1360FDEBF002001F0004170BD99
:1006D000C4F10004203C35DA0C341BDC04F11404B2
:1006E000C4F1200500FA05F320FA04F001FA05F23E
:1006F00040EA020001F0004221F0004110EBD3700B
:1007000021FA04F642EB06015EEA430E08BF20EA36
:10071000D37070BDC4F10C04C4F1200500FA04F3D9
:1007200020FA05F001FA04F240EA020001F000416B
:1007300010EBD37041F100015EEA430E08BF20EADE
:10074000D37070BDC4F1200500FA05F24EEA020E26
:1007500020FA04F301FA05F243EA020321FA04F055
:1007600001F0004121FA04F220EA020000EBD3700C
:100770005EEA430E08BF20EAD37070BD94F0000F0C
:100780000FD101F00046400041EB010111F4801F40
:1007900008BF013CF7D041EA060195F0000F18BFF1
:1007A000704703F00046520043EB030313F4801F2D
:1007B00008BF013DF7D043EA0603704794EA0C0FE7
:1007C0000CEA135518BF95EA0C0F0CD050EA4106FD
:1007D00018BF52EA4306D1D181EA030101F000417A
:1007E0004FF0000070BD50EA410606BF10461946A2
:1007F00052EA430619D094EA0C0F02D150EA0136AE
:1008000013D195EA0C0F05D152EA03361CBF1046EE
:1008100019460AD181EA030101F0004141F0FE418D
:1008200041F470014FF0000070BD41F0FE4141F411
:10083000780170BD70B54FF0FF0C4CF4E06C1CEA11
:1008400011541DBF1CEA135594EA0C0F95EA0C0FC6
:1008500000F0A7F8A4EB050481EA030E52EA033581
:100860004FEA013100F088804FEA03334FF08055A2
:1008700045EA131343EA12634FEA022245EA1115CF
:1008800045EA10654FEA00260EF000419D4208BF80
:10089000964244F1FD0404F5407402D25B084FEA2D
:1008A0003202B61A65EB03055B084FEA32024FF4D9
:1008B00080104FF4002CB6EB020E75EB030E22BF36
:1008C000B61A754640EA0C005B084FEA3202B6EBF6
:1008D000020E75EB030E22BFB61A754640EA5C00A5
:1008E0005B084FEA3202B6EB020E75EB030E22BF35
:1008F000B61A754640EA9C005B084FEA3202B6EB36
:10090000020E75EB030E22BFB61A754640EADC00F4
:1009100055EA060E18D04FEA051545EA16754FEA56
:1009200006164FEAC30343EA52734FEAC2025FEA74
:100930001C1CC0D111F4801F0BD141EA00014FF003
:1009400000004FF0004CB6E711F4801F04BF0143D4
:100950000020B4F1FD0C88BFBCF5E06F3FF6AFAEF0
:10096000B5EB030C04BFB6EB020C5FEA500C50F180
:10097000000041EB045170BD0EF0004E4EEA113103
:1009800014EB5C04C2BFD4EB0C0541EA045170BD0A
:1009900041F480114FF0000E013C90E645EA060E4E
:1009A0008DE60CEA135594EA0C0F08BF95EA0C0F7C
:1009B0003FF43BAF94EA0C0F0AD150EA01347FF4C4
:1009C00034AF95EA0C0F7FF425AF104619462CE79B
:1009D00095EA0C0F06D152EA03353FF4FDAE1046FE
:1009E000194622E750EA410618BF52EA43067FF44F
:1009F000C5AE50EA41047FF40DAF52EA43057FF4DF
:100A0000EBAE12E74FF0FF3C06E000BF4FF0010CE9
:100A100002E000BF4FF0010C4DF804CD4FEA410C4D
:100A20007FEA6C5C4FEA430C18BF7FEA6C5C1BD01A
:100A300001B050EA410C0CBF52EA430C91EA030F9B
:100A400002BF90EA020F0020704710F1000F91EAF8
:100A5000030F58BF994208BF90422CBFD8176FEAC6
:100A6000E37040F0010070474FEA410C7FEA6C5C94
:100A700002D150EA013C07D14FEA430C7FEA6C5C9B
:100A8000D6D152EA033CD3D05DF8040B704700BFC7
:100A90008446104662468C461946634600E000BF15
:100AA00001B5FFF7B7FF002848BF10F1000F01BDE7
:100AB0004DF808EDFFF7F4FF0CBF012000205DF8B2
:100AC00008FB00BF4DF808EDFFF7EAFF34BF012037
:100AD00000205DF808FB00BF4DF808EDFFF7E0FFD0
:100AE00094BF012000205DF808FB00BF4DF808ED21
:100AF000FFF7CEFF94BF012000205DF808FB00BF88
:100B00004DF808EDFFF7C4FF34BF012000205DF869
:100B100008FB00BF80F0004002E000BF81F0004110
:100B200042001FBF5FEA410392EA030F7FEA226C93
:100B30007FEA236C6AD04FEA1262D2EB1363C1BF23
:100B4000D218414048404140B8BF5B42192B88BF92
:100B5000704710F0004F40F4000020F07F4018BFB5
:100B6000404211F0004F41F4000121F07F4118BFD5
:100B7000494292EA030F3FD0A2F1010241FA03FC7D
:100B800010EB0C00C3F1200301FA03F100F0004365
:100B900002D5494260EB4000B0F5000F13D3B0F12D
:100BA000807F06D340084FEA310102F10102FE2A9C
:100BB00051D2B1F1004F40EBC25008BF20F001000C
:100BC00040EA03007047490040EB0000013A28BFAB
:100BD000B0F5000FEDD2B0FA80FCACF1080CB2EB2E
:100BE0000C0200FA0CF0AABF00EBC25052421843AC
:100BF000BCBFD0401843704792F0000F81F4000151
:100C000006BF80F400000132013BB5E74FEA410323
:100C10007FEA226C18BF7FEA236C21D092EA030F8F
:100C200004D092F0000F08BF0846704790EA010F09
:100C30001CBF0020704712F07F4F04D1400028BF36
:100C400040F00040704712F100723CBF00F5000018
:100C5000704700F0004343F0FE4040F4000070474E
:100C60007FEA226216BF08467FEA236301464202FA
:100C700006BF5FEA412390EA010F40F4800070470D
:100C80004FF0000304E000BF10F0004348BF4042B3
:100C90005FEA000C08BF704743F0964301464FF0EF
:100CA00000001CE050EA010208BF70474FF000034B
:100CB0000AE000BF50EA010208BF704711F000438C
:100CC00002D5404261EB41015FEA010C02BF84465C
:100CD0000146002043F0B64308BFA3F18053A3F5BB
:100CE0000003BCFA8CF2083AA3EBC25310DB01FA02
:100CF00002FC634400FA02FCC2F12002BCF1004F86
:100D000020FA02F243EB020008BF20F00100704716
:100D100002F1200201FA02FCC2F1200250EA4C006A
:100D200021FA02F243EB020008BF20EADC707047B0
:100D30004FF0FF3C06E000BF4FF0010C02E000BFA7
:100D40004FF0010C4DF804CD4FEA40024FEA410349
:100D50007FEA226C18BF7FEA236C11D001B052EAFF
:100D6000530C18BF90EA010F58BFB2EB030088BFC5
:100D7000C81738BF6FEAE17018BF40F00100704734
:100D80007FEA226C02D15FEA402C05D17FEA236C16
:100D9000E4D15FEA412CE1D05DF8040B704700BF5D
:100DA000844608466146FFE70FB5FFF7C9FF0028F4
:100DB00048BF10F1000F0FBD4DF808EDFFF7F4FF2D
:100DC0000CBF012000205DF808FB00BF4DF808EDC6
:100DD000FFF7EAFF34BF012000205DF808FB00BFE9
:100DE0004DF808EDFFF7E0FF94BF012000205DF80B
:100DF00008FB00BF4DF808EDFFF7D2FF94BF0120BC
:100E000000205DF808FB00BF4DF808EDFFF7C8FFB4
:100E100034BF012000205DF808FB00BF4FEA40020C
:100E2000B2F1FE4F0FD34FF09E03B3EB12620DD918
:100E30004FEA002343F0004310F0004F23FA02F082
:100E400018BF404270474FF00000704712F1610F29
:100E500001D1420205D110F0004008BF6FF0004000
:100E600070474FF00000704753B94AB9002908BFD6
:100E700000281CBF4FF0FF314FF0FF3000F02AB8C0
:100E8000ADF1080C6DE904CE00F077F8DDF804E070
:100E9000DDE9022304B07047D0B50C4B00220646B2
:100EA0000F46FFF79DFB00F017F80446FFF71EFB07
:100EB000074B0022FFF794FB02460B4630463946AB
:100EC000FFF7D6F900F008F82146D0BD0000F03D4C
:100ED0000000F041704700BF4A0011D212F5001225
:100EE00011D20DD56FF47873B3EB62520ED44FEA82
:100EF000C12343F0004343EA505323FA02F0704702
:100F00004FF00000704750EA013002D14FF0FF303F
:100F100070474FF00000704710F8012B11F8013BAB
:100F2000012A28BF9A42F7D0D01A7047034611F819
:100F3000012B03F8012B002AF9D17047034613F85F
:100F4000012B002AFBD1181A0138704738B500224E
:100F5000002304460D46FFF7B5FD28B92046294673
:100F6000BDE83840FFF798BF204605F10041FFF784
:100F700093FF404261EB410138BD2DE9F0478646C1
:100F80008C460846089E154674461946002B40F0CC
:100F9000C2808542B2FA82F245D94AB1C2F1200339
:100FA00000FA02FC2EFA03F3954043EA0C0C94403D
:100FB0004FEA154EA8B2BCFBFEF8230C0EFB18CC72
:100FC00008FB00F943EA0C43994528D9EB1808F1CE
:100FD000FF3704D2994502D9A8F102072B44A3EBAD
:100FE0000903A4B2B3FBFEFC0EFB1C330CFB00F0A8
:100FF00044EA0344A04214D92C190CF1FF3304D263
:10100000A04202D9ACF102032C44241A43EA07405F
:101010001EB1D440002334607360BDE8F0874746BA
:10102000DDE76346F1E792BB431B01214FEA154E12
:10103000AFB2B3FBFEFC200C0EFB1C330CFB07F81D
:1010400040EA0343984562D9EB180CF1FF3004D213
:10105000984502D9ACF102002B44A3EB0803A4B2DB
:10106000B3FBFEFC0EFB1C330CFB07F744EA034406
:10107000A7424ED92C190CF1FF3304D2A74202D952
:10108000ACF102032C44E41B43EA0040C0E7C2F188
:10109000200320FA03F1954090402EFA03F3034316
:1010A0004FEA154EAFB2B1FBFEFC0EFB1C10190C43
:1010B0000CFB07F841EA0041884504FA02F422D902
:1010C00069180CF1FF3004D2884502D9ACF1020056
:1010D0002944A1EB08019BB2B1FBFEFC0EFB1C11E5
:1010E0000CFB07F743EA01439F420ED9EB180CF1C2
:1010F000FF3104D29F4202D9ACF102012B44DB1B29
:1011000041EA004192E76046E3E76146F7E760465F
:10111000A3E76346B7E7834206D916B9002108461C
:101120007BE7C6E900E0F9E7B3FA83F78FB98342BA
:1011300001D3724508D8BEEB020460EB0303012023
:101140009C461EB9002168E73846FAE7C6E9004C1C
:10115000F8E7C7F1200CBB4022FA0CF41C432EFA2E
:101160000CF120FA0CF3B84001434FEA14490EFA8F
:1011700007F5B3FBF9F81FFA84FE09FB18300B0CD6
:1011800008FB0EFA43EA00439A4502FA07F240D9F7
:10119000E31808F1FF3004D29A4502D9A8F1020001
:1011A0002344A3EB0A0389B2B3FBF9F809FB183314
:1011B00008FB0EFE41EA03418E452CD9611808F167
:1011C000FF3304D28E4502D9A8F10203214443EA39
:1011D0000040A0FB0298A1EB0E014145CE464346DC
:1011E00002D306D14D4504D2B9EB020E68EB0403DD
:1011F0000138002EA6D0B5EB0E0261EB030101FA17
:101200000CFC22FA07F34CEA0303F940C6E900316B
:1012100098E74046C5E74346D9E7000000000000D4
:101220002DE9804891B0044644F2010102AF26F056
:101230003EFF44F20101204603F046F80321204618
:1012400003F060F8DFF810A34FF0000B00212046F8
:1012500026F04DFF0021204626F02FFF00212046DA
:1012600026F0DEFE00224421204626F0E0FD10EAB2
:101270000A0F0346F6D010F4804500F060814FF469
:10128000804300224421204626F0BAFE00224C2151
:10129000204626F0CCFDC0F30902182A58D8AF49E1
:1012A0000023204602F0DCFFAC4EAD4986F802B0C8
:1012B0000A2230462CF093FF8046002840F03D8102
:1012C000204626F042FFA74BA74AC3E90001A74BDF
:1012D000C01841F10001050A45EA01652B46A44802
:1012E000032126F066FC2946204626F041FF4FF4F4
:1012F000FA61204602F0F0FF4CF25031204626F011
:10130000DCFE9C4D0521204626F0F1FE9A4A2B7802
:1013100093700F214346204602F07AFE0123424695
:101320000F21204602F0A2FE944A91484FF000633C
:10133000032126F03EFC0221204602F0BBFE421CA7
:1013400003460ED18E4A8A48012126F032FC7DE701
:10135000182300938648134601218A4A27F04CFE41
:10136000A2E700224421204626F061FD10EA0A0F80
:101370000346F6D02A7801322A7010F4804500F036
:10138000D0804FF4814300224421204626F038FECD
:1013900000224C21204626F04AFDC0F30902182AFB
:1013A00000F2B08020466D49002302F059FF6D46DF
:1013B0008AB096F800C07078B178F37802AADFF8A6
:1013C000C8E153620623C2E905ECC2E9070142F80D
:1013D000103F674800234FF4435103F05BFFAD46D5
:1013E0006A495E4886F802B00A222CF0F8FE0646EA
:1013F000002840F09080204626F094FE644DDFF8EF
:101400009491C5E90001204626F09FFEC9E900013C
:1014100007F12C01604826F0B0FE07F130015F486B
:1014200026F0ABFE07F134015D4826F0A6FED7E9B1
:101430000B08A8EB0000FFF759F82D68C7E9080171
:10144000D9F80000401BFFF751F8C7E90601786B97
:10145000A0EB0800FFF74AF8424BC7E904011868FF
:10146000281AFFF743F8C7F804D088B0C7E902018B
:1014700002AD4C4B6B61D7E90801D7E90623FFF7B2
:10148000AFF8D7E9022380468946D7E90401FFF780
:10149000A7F802460B4640464946FEF7E9FED7E963
:1014A000062380468946D7E90801FEF7E3FED7E91F
:1014B0000423FEF7DFFED7E90223FEF7DBFE024638
:1014C0000B4640464946FFF7B5F9FFF73FFDFFF7EA
:1014D00059F81DA3D3E90023FFF782F81CA3D3E931
:1014E0000023FFF77DF82A460423C5E9060142F8E8
:1014F000103F1F4833464FF4035103F0CBFED7F89B
:1015000004D0A3E618230093194813460121264A64
:1015100027F072FD64E7254A1548012126F04BFBB0
:1015200094E6234A1248012126F043FB214B2A4628
:101530004421204626F064FD88E61F4AECE71F4A56
:10154000F0E700BFAFF30080FA48CE3B1835B13D5D
:101550000000001319DDB14100D027241A4E0020ED
:1015600008080020D00C00202919030068816D03B1
:1015700064EB0200324E0020F907002045190300F9
:101580007B190300FB180300AB190300E1070020DF
:10159000C80C0020C00C0020244E0020284E002043
:1015A0002C4E0020051A0300D11903002A1A03004B
:1015B0005B1A0300009027248E1A0300BE1A030052
:1015C000F0B5002283B0114600AF40F6034007F0AB
:1015D00043FD044600285BD107F072F921463A1D0D
:1015E00041F2030007F038FD0446002850D17A6824
:1015F000BE4DD168D1F80100D1F8051005F178038E
:1016000003C3104606F0F6FB21463A1D41F20100E5
:1016100007F022FD044600283AD17868C3685A785A
:1016200085F870205A88A5F872201A7985F87120FB
:10163000B3F80720A5F87420B3F80530A5F8763084
:1016400006F0D8FB21463A1D41F2020007F004FDE6
:101650000446E8B9D7F804C0DCF80C2005F1800690
:10166000531C413218685968344603C40833934206
:101670002646F7D1604606F0BDFB95F87C305A0649
:101680000AD49B4A9B48012128F034F96FF01204D8
:1016900020460C37BD46F0BD3A1D002142F2030042
:1016A00007F0DAFC04460028F2D17B68924EDA6833
:1016B000D2F80100D2F8051003C6184606F09AFBCE
:1016C00021463A1D42F2020007F0C6FC04460028FB
:1016D000DED17C68E368B3F8012091B249B1D978D2
:1016E00039B1A5F80421DA78114606F128002CF06A
:1016F00003FA204606F07EFB95F87C601F2316F067
:101700002006A5F8203118D1022140F66D4007F0DF
:10171000FFF80446002800F0DB8002210C3027F09F
:101720005BFF0123037046702146324640F66D4050
:1017300007F092FC04460028AAD195F89C301B07BC
:1017400012D53A1D002142F21C0007F085FC044628
:1017500000289DD17868C368D3F80120D3F80530FC
:10176000C5E9382306F046FB95F8D8309E0621D50A
:10177000B91C384607F074FD0446002888D10421BE
:1017800042F2240007F0C4F80646002800F0A080CA
:1017900004210C3027F020FF3B8803807B884380A6
:1017A0002246314642F2240007F056FC0446002847
:1017B0007FF46EAF95F8D8305C062AD5022142F24C
:1017C0002E0007F0A5F80446002800F081800221D1
:1017D0000C3027F001FFB5F8B0310380214600221C
:1017E00042F22E0007F038FC044600287FF450AF88
:1017F00001463A1D42F22A0007F02EFC044600285A
:101800007FF446AF7868C3685B7885F8223106F0CC
:10181000F1FA082142F2010007F07AF804460028A4
:1018200056D008210C3027F0D7FE95F8D81011F0CB
:10183000400F024640F2022308BF032388074CBF33
:1018400043F02C0043F00C008B0695F8D93048BFCC
:1018500040F0400013F0090F18BF40F40060CE07BD
:1018600048BF40F01000002128F066F82146002211
:1018700042F2010007F0F0FB044600287FF408AFB5
:1018800095F87C30B5F80411980624D4C9B93A1DEE
:1018900041F2050007F0E0FB044600287FF4F8AEB3
:1018A000B5F804317C684BB9E368B3F80120A5F8BA
:1018B00004219A88114811462CF01EF9204606F0A2
:1018C00099FA082140F6014007F022F80446C8B909
:1018D0006FF06804DCE60029F3D1094A05480121CC
:1018E00028F008F86FF00404D2E600BFB000002032
:1018F00096300300E4EA020088010020B8010020CD
:10190000BA30030008210C3027F066FE95F8D83075
:10191000D907024629D460484FF0005128F00CF84E
:101920002146002240F6014007F096FB04460028BD
:101930007FF4AEAE01463A1D4FF6014007F08CFB36
:10194000B8B1564A5648022127F0D4FF08F038FCB7
:10195000044600287FF49CAE0AF04AF904460028A9
:101960007FF496AE07F05AF992E649A1D1E9000159
:10197000D4E77B68DC68B4F80130032B96BF494A92
:10198000494952F823106E468AB06A464748D361E7
:101990004FF400731384464BC2E9050142F8103F2F
:1019A0003F484FF4135127F0B8FFB4F80120B4F8C2
:1019B0000330022AB54649D1052B47D83D4A52F893
:1019C00023106E468AB06A463B48D3614FF40073D9
:1019D0001384374BC2E9050142F8103F4FF413510D
:1019E0002F4827F09AFF637994F806C0D4F80900CD
:1019F000032BB54698BF314AB4F8076094BF52F83C
:101A0000231029496C468CB06A46DFF8B4E0C2E97D
:101A1000073C4FF4007393852A4BC2E905E1C2E904
:101A200009604FF4735142F8103F1D4827F075FFCD
:101A3000A546786806F0DEF93A1D00214FF602400F
:101A400007F00AFB044618B11F4A7BE71649B8E7BE
:101A50007868C368B3F80130A5F8C13006F0CAF958
:101A600095F8C1305B077FF571AF3A1D21464FF6FF
:101A7000034007F0F1FA08B1144A63E77868C368D5
:101A80005B7885F8C03006F0B5F95FE7AFF300800A
:101A9000908800020080002010880002DD300300E2
:101AA000E4EA0200A4F20200872E030001310300E1
:101AB000040000018CF202001A3103007CF20200E3
:101AC00032310300070000015F3103008831030059
:101AD0002DE9F843D0E90738856903EB08042F3472
:101AE000A5420F46164619D8DFF86C80A3FB080103
:101AF00017A3D3E90023FFF7B7F90346601BA0FB48
:101B0000080123F07F4412A3D3E90023FFF7ACF9C7
:101B100020F07F403C603060BDE8F883DFF838900B
:101B20000BA3D3E90023A5FB0901FFF79DF920F0E2
:101B30007F440A480A2106A3D3E90023E8FB0901F0
:101B4000FFF792F920F07F403C603060BDE8F883F9
:101B50008D49FD1A0700000000CA9A3B00166BF180
:101B6000002800F03C812DE9F04FC74C94F85E202E
:101B700012F001058DB040F06E81607EFF2300F011
:101B80000300A37619F0B2FF94F85E00420726D452
:101B9000627F94F8293004EB820204EB8303166A17
:101BA000D3F82C8086B1B848314613F093FC3378D3
:101BB0005B0605D506210EF0D5FD002800F04D810D
:101BC000B148414613F086FC337813F00E0F40F015
:101BD0009D8063698BB10C200DB0BDE8F08F2A4663
:101BE00004F15F01C0F3C0001AF0F6F8FF28A076F8
:101BF000CED0284619F094FFCAE711F0DBF88146F1
:101C0000002800F0388111F0E1F88246002800F049
:101C10002F8113F059FF0546002800F04581D0F8C8
:101C200088004FF6FF73AB8405F1100B002800F01D
:101C30001A8105F17C0205F178010EF09FFDB5F8DF
:101C4000763023F4EF6323F0070343F48C7343F0FF
:101C50000103A5F8763095F8373003F03F0363F0C1
:101C60007F0385F8373095F88E3023F0070385F829
:101C70008E3095F83C3023F00F03002785F83C3078
:101C80004FF4C023C5F888312846C5E91277C5F856
:101C90008870A5F88C7085F839706F85C5F82E703E
:101CA0002F65A5F88E71A5F8847116F069F885F88E
:101CB0005071C5F8549114F0BBF995F8943160F364
:101CC000020385F8943114F0B9F995F8943160F372
:101CD000C50385F8943195F8803167F3410385F8A1
:101CE00080310121284614F0B5FD05F1D40015F02E
:101CF0001FFEC4E9159AC4F814B0C5E902772F7025
:101D00002D611BF07DF8002840F0A980237E012181
:101D1000C3F342030DF12B008DF82B300EF0CAFEF9
:101D2000024600285DD098F80110304613F08EF975
:101D30005649574BB4F85C70A0FB0101C0184FF036
:101D400000054FA3D3E9002341F10701C4E902557F
:101D50002570FFF789F8606010F058F900F1090864
:101D60003FB9357805F00F05A5F10105B5FA85F500
:101D70006D09207E636865F3000010F00105207690
:101D800036D0444A0992002010600225424A434F4F
:101D900004930BAE019305920321CDE90200069452
:101DA00043460090089607972A460B9510F030F8A6
:101DB000314611F093F8A0B9394905914AF2D83368
:101DC0000093CDE90300CDE901000797089606943A
:101DD0004346012203210B950FF0FEFF2EE013F086
:101DE00085B86369002B3FF4F6AE13F03BF8F2E6DA
:101DF000284A2C48049303F2471306940295912134
:101E00001360A7FB000301FB0731244B0793224B10
:101E100005934FF6FF730992022703930BAE18A3A5
:101E2000D3E900230B970896FFF71EF84346CDE948
:101E300000503A46284603210FF0EAFF314611F0E0
:101E40004DF80028CDD194F85E300120034384F88A
:101E50005E3019F02DFE0020BEE61220BCE613F025
:101E600001F80320B8E605F18000C5F88800E0E637
:101E7000484610F0A5FF0720AEE600BFAFF3008094
:101E80008D49FD1A07000000482D002000CA9A3B2A
:101E90008C49FD1A3C2D0020C95001006D21010024
:101EA000B54B0100002AE784504610F095FF4846E4
:101EB00010F086FFDFE700BF70B5037E8AB0C3F382
:101EC00042030D46044601210DF1230016468DF80C
:101ED00023300EF0EFFD71780246284613F0B6F875
:101EE0001F49204AA0FB0131981841F107011AA3AC
:101EF000D3E90023FEF7B8FF63689842054621D274
:101F00001B1A00220192184A0293184BA21AA3FB33
:101F100002320221520900230A4409AE09911449F0
:101F20000591CDE903330321D2B2069600931846FA
:101F30000FF0CEFF314610F0D1FF38B965600020B8
:101F40000AB070BDFBD9C21A0023DBE70C200AB02F
:101F500070BD00BFAFF300808D49FD1A070000007F
:101F600000CA9A3B8C49FD1A482D00204FECC44E04
:101F70006D210100000000002DE9F04F06468DB0F4
:101F80008A4601200221994615461CF0E7FE0022F0
:101F90000B90022101200EF041FC3B494FF4D0721E
:101FA00030460EF0CBFBC71C384B0093FFB20196B6
:101FB0004B463A46012100200FF0E4FF10F0FD0FE0
:101FC0000ED0334A3349344840F68F0326F015FBD0
:101FD000002383F31188BFF36F8F0323184602DFBA
:101FE0002E4CA5FB044526A3D3E900232046294611
:101FF000FEF73AFF0896069673680493284B20F084
:102000007F48A8FB0331E01A264B07934FF00702E5
:10201000254B059302FB08114FF6FE7365EB01019A
:1020200003934FF47A720023FEF71EFF4FF0000B6C
:10203000CDE90180CDF800A04B463A460121584633
:102040000FF0CAFE10F0FD0F0DD0114A11491248D1
:1020500040F6A40326F0D1FA8BF31188BFF36F8FFB
:102060000323184602DF0B9B13B90DB0BDE8F08FB8
:102070000122022110460DB0BDE8F04F0EF0CEBB9C
:102080008D49FD1A0700000088170020695A0100D9
:10209000A0FD020064FE020014F7020000CA9A3B91
:1020A0008D49FD1A095A0100FDAE01000000000033
:1020B0002DE9F0418468A28C4FF6FF739A428CB0F0
:1020C00045D00546204616F0F9F82B7D012B00F08F
:1020D0002281022B00F01581002B00F0F48094F88F
:1020E0005061002E40F010812B8AE78D94F9372043
:1020F000CDE90A6673B3002AC0F25A810023A4F81E
:102100008A31AA7CA38DFD1802F003030135012B4F
:10211000ADB23BD0B4F88E31002B00F005819D426A
:1021200080F059815B1B9BB20022062BA4F88E31F4
:10213000E28540F2F68094F937309342C0F2508144
:10214000002326E09DF82710204614F055F80CB027
:10215000BDE8F081002AB8BF84F87561A38DAA7C20
:10216000FD1802F003030135012BADB20ED0B4F817
:102170008A31002BCED0AB4240F23C815B1BA4F8ED
:102180008A31B4F88E31002BC9D102E00023A4F8C3
:102190008E3194F83C2063F3820284F83C20294677
:1021A0000DF12702204615F027FE7430CAD0B4F88E
:1021B00088312BB1AB4240F2EC805B1BA4F8883134
:1021C000B4F884312BB1AB4240F2DA805B1BA4F847
:1021D0008431E58D16B9AF4200F0C9800135ADB24A
:1021E00094F8D13013F0010731D1DDE90A130A4622
:1021F000002B40F0CC80002900F0BB801F46184621
:10220000A28C24690694CDE9035603329A4D0290BC
:10221000CDE90017D2B20121002005950FF058FE3C
:1022200010F0FD0F93D010F083FE84428FD0934ABC
:10223000934994484FF4AE6326F0DFF9002383F30B
:102240001188BFF36F8F0323184602DF7FE794F9ED
:1022500037206FF30003002A84F8D1307FDB94F835
:102260007600C0F3C00100F007001AF0E1FBB4F8FB
:102270006E20B4F86C301344E28B03F23F13134426
:102280000344814A81480721E3FB0021104678A3DB
:10229000D3E90023FEF7E8FDDDE90A1320F07F42D1
:1022A00060686260904235BF171A801A00200027CC
:1022B0000A46002BA4D157EA010CA1D1002858D01E
:1022C00019461F469CE794F88E3003F01803182B2C
:1022D0007FF405AF218DB4F886218B1D9A42C4BFCF
:1022E000931F5B1AB4F88211CCBF9BB2134699427C
:1022F00000F09C80A4F88231A4F88431A4F88821ED
:10230000EDE63D2684F85061314620460CB0BDE82C
:10231000F04113F071BF0023A4F88831A4F8843190
:10232000DDE60126334634E7E28C052A97BF013209
:1023300040F2E2434FF4FA7392B203FB02F2B4F8B4
:102340008C3142F2107101FB0323013BB3FBF2F32A
:102350009BB2A4F88E31002B7FF4E1AE19E794F81C
:102360007700012100F007001AF064FB7FE7354693
:1023700036E7002D43D00027114638463B463FE75D
:102380000023A4F88431204615F0D8FD21E7384613
:1023900036E710F061FD0146A0B30023A4F88831B0
:1023A000A38CC3801B230371006810F027FD07E78F
:1023B00094F875316BB3013B84F8753104F1D4089E
:1023C000404615F0F7FAB8B3404615F0F3FAB8B343
:1023D0000023E38592E60821204613F00DFFB6E6C0
:1023E000A7B9D4F878315A0813F0010336D1C4F8EC
:1023F0007821A5E63E21204613F0FEFEA7E6002E3A
:10240000B9D1A4E60123A4F88831D9E61346012600
:10241000BFE60AAA0BA92846FFF75AFBDDE90A2303
:102420001343CBD0237884F87531C7E7B4F888110B
:1024300000297FF454AE5FE7FF2013F09FFEC3E74F
:102440000246D4E91E010EF0B1F90028C0D194F87B
:102450003C301B0744BF238DE3854FE642F000422A
:102460001E46C4F878213B4693E600BFAFF30080D8
:102470008D49FD1A07000000C5590100A0FD0200AA
:10248000E0FE020014F702008C49FD1A00CA9A3BD4
:102490002DE9F04F89B0CDE90623BDF84C20037833
:1024A0000392BDF85020BDF848B0BDF85480068EA8
:1024B000029104460492002B00F0C780013EB6B2A0
:1024C00094F87600A6EB08039DB2C0F3C001D4F8DF
:1024D0000C31059500F0070001931AF0A9FAE78C7A
:1024E000052F40F2AA8017FB05F7BFB240F2E24980
:1024F000BBF1050F40F29580B4F86E20B4F86C3053
:10250000134403F2D51303447B4A7C480721E3FBC1
:1025100000214FF09613E36196231046238474A3A1
:10252000D3E90023FEF7A0FC5D4620F07F4040F297
:10253000E24303FB05F509FB07F1B1FBF5F71FFAD1
:1025400087FA606005FB0AF0814257465AD2401A6A
:102550006A4967A3D3E90023A0FB0101FEF784FCCD
:10256000019B20F07F499944638DB4F814211344F2
:10257000984494F83730A8EB06084744DB09678590
:102580006AD15F4A5F49604840F6581326F035F833
:10259000002787F31188BFF36F8F0323184602DFEC
:1025A0002E46039B2385049BA4F88C3129462046A4
:1025B000A4F826B015F05CFC544B218D2B44881DEB
:1025C000B3FBF5F39AB29042A4F8862104D2C1F588
:1025D0007F41FA310A4492B2029BA4F8822113B1DE
:1025E0000023A4F88E314B46324639462046FFF789
:1025F000C3FC94F8803143F0010384F8803109B0C2
:10260000BDE8F08F091A3D4839A3D3E90023A1FBA7
:102610000001FEF729FC019B20F07F49A3EB09098B
:10262000A2E74FF096130BF10105E3619623238493
:10263000ADB20A204FF4FA737BE7059B013717FB15
:1026400003F7BFB24FF4FA7952E7438D1E44B0F856
:1026500014311E44B6B233E7226C0599A36C274FA0
:1026600002FB1133A3641AF01BFC064694F87401B4
:10267000C0F342001AF016FC064405FB06F6244B94
:1026800006F5742606F23F26A3FB0636B60CA36CAD
:1026900026640AFB06F06A080344963A934228BF70
:1026A0001346C4E91123069B40F2E24808FB03F3FA
:1026B00023650023A0FB0701C4F87C310CA3D3E9F8
:1026C0000023FEF7D1FB134B079AA9EB0009A3FBEC
:1026D0000230800A08FB00F0A0FB070104A3D3E945
:1026E0000023FEF7C1FBAE1B20F07F4759E700BF78
:1026F0008D49FD1A070000008C49FD1A00CA9A3B5B
:10270000A0FD0200ECF7020014F702007FC3C9012C
:1027100083DE1B435917B7D12DE9F04F0B6891F8B1
:102720001180D3F80090037F176895B00446C3F377
:102730008013D0F81E008DF83F30B8F1FF0F638C86
:1027400012900E461546ADF84C300DF1480A4DD1A9
:102750009AE803001090ADF844102346E28D53F838
:102760002EBB9B78AB722A81D4F82A306B60D4F8E8
:102770003A30C5F8223005F1220094F83E3003715A
:1027800005210EF097F995F8273000F03F0060F32F
:10279000050385F8273094F83F30C3F3040285F829
:1027A0002820A28EEA82012803F01F0392B205D9E5
:1027B0001B3303F01F030B2B00D81ABB0022C9F8F0
:1027C000082095F82C3062F3000385F82C30E5687A
:1027D000012658462146267110F004FB28682E7108
:1027E000294610F00BFB15B0BDE8F08F10AA0DF1D3
:1027F0003F01404618F08EFE9DF83F3002338DF8C1
:102800003F30AAE7336800215960E38EEA8A2B83C0
:1028100040F2E24303FB02F20B92638E0D933846C3
:1028200015F03AFB94F83F2097F87411520962F3BF
:10283000430187F874111AF033FB0C9097F8740178
:10284000C0F342001AF02EFB0C9A0B99104401FBC6
:1028500000F0BB4A00F5742000F23F20A2FB0020EC
:102860004A08800C963A28636A6394F8312040F253
:10287000E24302FB03F36B64238FA7F88C313846E5
:1028800015F0F6FA0B99AF4BAF4AC7F890210B44FD
:10289000B3FBF1F39AB2A7F88621298B881D8242F7
:1028A00004DDC1F57F41FA310A4492B2A7F88221D2
:1028B0006B68C7F87831234613F81C2FC2F3401217
:1028C0000C92DA0700F1FA804FF48073A38399F831
:1028D0001A0019F095FB04F12B03002800F0EA80A0
:1028E000626AC4F82B20228D9A80B8F1FF0F00F0A5
:1028F0000881BAF804301298A4F82930C4F82500E9
:102900009DF83F30A3771098BDF84430C4F81F00FD
:10291000A4F82330EB8A63862B8BA386B7F88C311F
:10292000E38697F87431C3F3420384F838303846AD
:1029300013F0D6F8A882E08021465846746810F05B
:1029400051FAAB8AE3801C2323710C9BD4F80080DE
:10295000002B40F0CA800C9B23772146404610F0A4
:102960004DFA95F86700B5F85C80B5F85E40012136
:1029700000F007001AF05EF8444404F2D51403197D
:102980008046724C72480721E3FB04014FF0961316
:10299000C5E9033368A3D3E90023FEF765FA20F005
:1029A0007F4078600B9B2D6B0D995D1BF36840F2A7
:1029B000E24202FB013303F2B3410022A1EB08081B
:1029C000012002210DF02AFF484612F03FFD024689
:1029D000A8FB0401144658A3D3E90023FEF744FAE8
:1029E000CDF80490B3685B49009120F07F4AA21CA7
:1029F0003A3BD2B25344012100200FF0C3FA012820
:102A000000F0858099F81830DB0766D4384613F05B
:102A100067F84E4BA5FB0398044647A3D3E9002370
:102A200048464146FEF720FA4B4BB6684B4A0792A0
:102A300020F07F45A5FB0331B9EB0300484B05931C
:102A400040F2E313069708937B684FF0000BCDE943
:102A500003B34FF0070303FB051168EB01014FF4CB
:102A60007A720023FEF700FA03343A3EE4B2CDE96D
:102A70000150CDF800A033462246012158460FF000
:102A8000ABF910F0FD0F0DD0364A374937484FF4F7
:102A9000F27325F0B2FD8BF31188BFF36F8F032320
:102AA000184602DF0122022110460DF0B7FE15B0D4
:102AB000BDE8F08FC4F82B00988016E7294A2C490E
:102AC0002A48FD2325F099FD002383F31188BFF3E5
:102AD0006F8F0323184602DFF6E6002301220093DE
:102AE000184611460FF00CFA90E795F8273043F09E
:102AF000400385F82730281D18F016FB0123288590
:102B00002AE70022C4F82520A4F82920F8E610F0CE
:102B10000FFA81453FF476AF124A1649134840F246
:102B20008B2325F06AFD002383F31188BFF36F8F99
:102B30000323184602DF65E78D49FD1A07000000F0
:102B400083DE1B437FC3C901404B4C0000CA9A3B44
:102B50008C49FD1ABDAE01008D49FD1A89AE0100F8
:102B6000FDAE0100D403030064FE020014F702006E
:102B700014FB020030040300F0B5C468636883B03E
:102B80000546002B64D11BF059FC00201BF07CFC97
:102B9000002108461BF06AFC0022252108201BF0BA
:102BA000A7FC474B019301A81BF08EFC454940F25E
:102BB0005B601BF049FD237AC3F3420262F3061304
:102BC000204623721AF08AFB19F0F6FA58BB637A92
:102BD0009B071FD127682E68384619F0D1FE06449E
:102BE0006A6806F1090101201BF076FE1BF034FF34
:102BF000204612F037FC811C3246C9B2384619F023
:102C0000C1FE054678BB204619F062FE88B9002057
:102C100003B0F0BD012018F03FFF4178821C00781E
:102C20001BF0FAFDD6E7607A10F0030018BF012010
:102C3000F1E7254A2549264840F2294325F0DDFCE5
:102C400085F31188BFF36F8F0323184602DFDEE799
:102C500093F82C309A0796D01E4821461BF0ACFB07
:102C60001BF092FCD3E7184A1B49194840F2114364
:102C700025F0C3FC194B0721A5FB030301FB05311C
:102C80000DA3D3E90023FEF7EFF8154902461548D6
:102C900025F0B3FC002585F31188BFF36F8F032364
:102CA000184602DF104821461BF086FB1BF06CFC27
:102CB0006FF08B00ACE700BF00CA9A3B0000000039
:102CC000D6BE898E5555550050080300E8F802001D
:102CD00014F7020015CB0100ECF702008D49FD1A34
:102CE00000090300D4080300B1CE01000000000079
:102CF0002DE9F041C468A28A4FF6FF739A4282B070
:102D000000F0DF8005461AF02DFE2B89628B208CA7
:102D1000A3831A4492B2104494F82730E28380B21D
:102D2000411C21845E064FF00001618304F1220101
:102D300000F1A18003F03F000B4694F828100090AA
:102D400004F1290018F0A8F90646D4E90C31A28B49
:102D500002FB0333A26B1344E26B8B4294BFD21885
:102D600052188A4228BF0A46E263616C226C94F8CA
:102D700067301144616494F87E2094F82C10C3F3FA
:102D8000020363F3061112F004024FF0000384F80B
:102D90002C10A363236478D01BF050FB00201BF0A1
:102DA00073FB201D1BF090FB2389A17A40F25B602E
:102DB00043EA01411BF048FC304619F0F5FD21467D
:102DC00059481BF0F9FAA0891BF07AFD94F86620A7
:102DD00094F86700C2F3C003002102F0070200F07C
:102DE00007001BF097FC20461AF066FE27682E6845
:102DF000384619F0C5FD06446A6806F1090100204D
:102E00001BF06AFD80461BF0FBFD00201BF012FE4C
:102E1000E36B94F8670003F12F02636C00F0070086
:102E2000012103EB42051BF0A1FB4544054494F846
:102E3000670000F00700022825D004280CBF4FF4DB
:102E4000BC73282301211D441BF092FB28441BF076
:102E5000C9FDA18A03313246C9B2384619F092FD44
:102E60000546002834D1204619F032FDD0B90020A3
:102E700002B0BDE8F0810A4603F03F03218D18F04F
:102E800057F9064661E71823DCE7D4E91A010DF08B
:102E90008DFC002880D194F87E3043F0040384F840
:102EA0007E3079E7214A224922484FF4B07325F059
:102EB000A4FB85F31188BFF36F8F0323184602DF4D
:102EC000D5E71D4821461BF077FA1BF05DFBCEE7E6
:102ED000164A1A4917484FF4AB7325F08EFB184B6E
:102EE0000721A5FB030301FB05310DA3D3E9002353
:102EF000FDF7BAFF13490246134825F07EFB002573
:102F000085F31188BFF36F8F0323184602DF0F4844
:102F100021461BF051FA1BF037FB6FF08B00A7E73F
:102F200000CA9A3B0000000031DD01008C0903005B
:102F3000E8F8020014F7020015CB0100ECF70200DC
:102F40008D49FD1AE0090300D4080300F1CA01000D
:102F500007B50B46044800920321044A26F04CF8BA
:102F600003B05DF804FB00BF64EB0200DE17030052
:102F700080B50D4A0D4B00AF8AB0012918BF13462A
:102F80006A460B48D161C2E905034FF4007313840C
:102F9000084B42F8103F084800234FF4135102F049
:102FA00079F9BD4680BD00BF0A180300FF17030072
:102FB000171803000400000164EB020010B5074C71
:102FC0000748084A0B46032124F0F3FD206818B196
:102FD00008F01EF90023236010BD00BF601C002014
:102FE00064EB02004018030008B527F037F8044BE3
:102FF000044A1860BDE808400348032124F0DBBD03
:10300000601C00205D18030064EB02000B4621B138
:10301000034A0448012124F0CCBDFFF7E5BF00BFFF
:103020006718030064EB02002DE9F04FDFF8F4B0FD
:1030300089B04FF07E5A00AFDBF8000000286AD05C
:1030400027F00CF8384D06462868FDF771FAE84677
:1030500088B06C462246354B63614FF00409C4E9E1
:10306000060142F8109F32487A6000234FF4035162
:1030700002F010F9C546A5462E4B63612E4BA361A5
:103080004FF40073A3832D4B23612D497A682848A0
:103090002B4602F0FFF81822C546002107F1080070
:1030A0002BF095F8274BA7F8149007F1080130464C
:1030B000C7E903350BF058F90446C8B10346224A64
:1030C0001B48012124F075FD51462868FDF728FDB5
:1030D0001E490446FDF798FE00B1544630462C6068
:1030E00008F096F84FF42030002124F066FDA3E7A5
:1030F0002868FDF71DFA88B06A46154B5361C2E98E
:10310000060142F8109F0A4823464FF4035102F08B
:10311000C1F8C546D8E70F4A0548032124F04BFD06
:10312000E0E700BF601C0020B80200208618030002
:1031300064EB0200DD2E0300A4180300030000016D
:10314000C01C40003CEF0200B31803000000C8425E
:10315000CA180300E918030008B530B9BDE80840F3
:10316000034A0448012124F026BDFEF759F800BFA8
:10317000EA1A030064EB0200F0B5894A89488FB06F
:10318000032124F018FD0020089002F07FFF034681
:1031900050B9854C089B73B1002006F0ABF804468B
:1031A000B0B1824A034600E0814A7E48012124F002
:1031B00000FD0FB0F0BDA3689B6C1BB108AA0421F1
:1031C0002046984740F6CD40002124F0F6FCE1E788
:1031D000784A7448032124F0EEFC77480AF0BCFCDE
:1031E0001422214609A82AF0F2FF0922A023CDE9E2
:1031F0000A23F0230C93714900942346022209A864
:1032000007F040FA034680B16D4A6648012124F078
:10321000D0FC6C486C4C21F0FFFE206058B96B4A22
:103220006048012124F0C7FCC3E7694A5D480321D7
:1032300024F0C1FCEDE7674860602AF07CFA08B929
:10324000654AEDE76548654D214624F00CFD0346CF
:1032500008B1634AA9E7284600F02AF9034620B1DD
:10326000604A5048012124F0A4FC5F4A4D480321E4
:1032700024F0A1FC594824F0A6FE034620B1594A87
:103280004848012124F095FC4220002124F095FCBF
:10329000524C204624F0E7FD0028FAD0534A41481A
:1032A000032124F088FC4D48002100F02BFA013066
:1032B00005D14F4A3B48012124F07DFCFEE7394807
:1032C0004C4A032124F077FC4B49444800F0ECFBC6
:1032D00088B14A4A33484A4D324C012124F06BFCF4
:1032E00020462A46012124F066FC4FF400400021CC
:1032F00024F063FCF4E7434A2A48032124F05BFCF2
:103300004149364800F05EFE404A2648032124F039
:1033100052FC324809A900F0A9F8034600283BD026
:103320003B4A01211F4824F044FC3A4A1D4803212E
:1033300024F041FC384A1B48032124F03CFC0026C1
:10334000002700240523CDE90334CDE90667334B7C
:1033500033490094CDE901444FF48062314822F0B2
:10336000B9FC314A0F48032124F025FC0323CDE9A1
:103370000243CDE90667CDE900542C4B2C492D487A
:1033800004944FF4806222F0A5FC4FF0FF304FF020
:10339000FF3124F012FCF8E7099B274A0321C1E71B
:1033A0000F1B030064EB0200BCE60200411B03009C
:1033B000281B0300601B0300BC02002018EF020062
:1033C000761B0300AF1B0300FC020020B51B0300AB
:1033D0009B1B03009CE60200D01B0300641C002022
:1033E000E71B0300FF1B03001F1C0300371C030027
:1033F000451C0300511C0300C0070020611C030092
:103400006F1C03007D1C0300F0020020891C0300D8
:10341000981C0300CC1C0300DC1C030029300000B6
:10342000C0500020C00B0020F41C030059310000E4
:1034300000550020400C0020BA1C03000A4800225E
:10344000D3B2082113F0800F4FEA430318BF83F073
:1034500031030139DBB2F5D10132B2F5807F00F8DA
:10346000013BEDD1704700BF334E002030B50C4614
:1034700085B00546B8B1B1B10C4BD3F80300DB7988
:103480008DF804300023009002938DF80C3002AACE
:1034900005236946284624F0B7FB10B9DDF809304A
:1034A000236005B030BD6FF01500FAE734EC020080
:1034B00010B5044610B96FF0150010BD0368002B5D
:1034C000F9D0186824F097FB0028F4D02368034A49
:1034D000DA604FF480721A820020EEE700127A0060
:1034E00010B5044610B96FF0150010BD0368002B2D
:1034F000F9D0186824F07FFB0028F4D02368034A31
:10350000DA604FF480721A820020EEE780841E0099
:1035100030B5064D0446002310468B4200DB30BD1B
:10352000E25C42400133A85CF7E700BF334E002065
:103530002DE9F0431E4685B00A44B6F5445FC2F358
:103540000445DDF83080BDF8343007460C4602F003
:103550007F0201D325F0BAFF83F40040032801D98C
:10356000002BF7D1910041EA452143EA010503F020
:10357000030C2D0A4CEA01018DF80C508DF80D104A
:103580004EB9B3F5004FE5D1640064F07E048DF8C8
:103590000C4001240BE012BBB3F5004FF9D07BB314
:1035A00045F040058DF80C50032852D80224294BD1
:1035B0001B7DE3B10022214603A8FFF7A9FF314696
:1035C00002464046FFF7A4FF3346CDE9008003AA38
:1035D0002146384624F0B8FB05B0BDE8F08345F03D
:1035E00040058DF80C50002BDED1022509E0CDF806
:1035F0000080334603AA2146384624F0D4FBEBE78B
:103600000125DFF85090CDF80080334603AA294603
:10361000384624F06BFB99F81430022BDCD1182CBF
:10362000DAD00022294603A8FFF772FF314602468E
:103630004046FFF76DFF002204461821384624F06B
:103640001AFC8442C8D0D9F82430002BC4D0984743
:10365000C2E7FEE7741E002013B54FF4C073009359
:1036600009494FF0FF330022044624F0C4FB074B06
:1036700007491B7A009300224FF6E073204624F09E
:10368000BAFB02B010BD00BF08000B00741E002082
:103690001F001100052907B50AD1402300930749EF
:1036A0006FF40053002224F006FC03B05DF804FB25
:1036B0000929FAD14FF40153F0E700BF08000B00CD
:1036C00070B50D4E04460D4601233146002224F00C
:1036D00018FC2B4620460949002224F012FC3146F2
:1036E00020460022022324F00CFC20460449BDE8B9
:1036F0007040002224F09BBB08000B0004000B006C
:1037000010000B002DE9F041374C002302220E4639
:103710000421C4E90A33C4E90C33C4E90E33054675
:10372000E3732282A3826381FFF7CAFF05218046EB
:103730002846FFF7C5FF0A2107462846FFF7C0FFC6
:10374000C0F304402072B8F1000F04D01FB110B1D3
:103750002846FFF781FF20212846FFF7B1FF234BC2
:10376000C71A78427841F306607204D506212846CC
:10377000FFF7A6FF2060B10604D507212846FFF712
:103780009FFF6060720604D508212846FFF798FF66
:10379000A072330604D509212846FFF791FFE07295
:1037A0000023C4E9063384F82030E37A0BB985237B
:1037B000E372A37A0BB97423A3721F212846FFF783
:1037C0007FFF1E2160732846FFF77AFF10F07F030A
:1037D00008BF2E2328460649A373002224F085FB48
:1037E0000020BDE8F08100BF741E002040020010E0
:1037F0001400090002494FF40073002224F081BB39
:1038000004001100012937B504460D460AD1FFF71F
:10381000F1FF0095FF232A461E49204624F038FB7D
:1038200003B030BD02291ED1032300931A49FF23A0
:10383000002224F02DFB4FF400030093204615498D
:103840006FF48073002224F036FB0023009320469F
:1038500010497F232A4624F01BFB204603B0BDE815
:103860003040FFF7C7BF012300930022FF232B2125
:1038700024F00EFB4FF40003009300226FF48073DA
:103880000449204624F017FB0023009302227F23E3
:10389000C2E700BF080011000400110073B5284BF7
:1038A0002849294E0022044624F0AAFB1023009345
:1038B0002449FF230022204624F0EAFA032514209D
:1038C00022F0A4FC00223146204624F0D4FA01283C
:1038D00033D0013D15F0FF05F1D1012500231A4633
:1038E0002046184924F001FB2046174901230022F5
:1038F00024F0FBFA012300932046FF231149022202
:1039000024F0C6FA11490022204624F090FA6FF004
:10391000604398420E494FF00002204614BF6D42AA
:103920004FF0FF3524F083FA6FF06043984214BFE4
:1039300028464FF0FF3002B070BD0025CEE700BF33
:10394000010002000C000400200004001400040028
:103950001C000400012973B5044604D002B0BDE880
:103960007040FFF79BBF0E49002224F070FA40F22E
:1039700005130B49009306464FF6FF7300222046BD
:1039800024F039FA2046FFF789FF00220546044952
:1039900000922046334624F02EFA284602B070BD2D
:1039A0004800070005292DE9F047044640D1264D7F
:1039B000264E274FDFF89C80DFF89C90DFF89CA014
:1039C000274B28492046002224F01AFB5346204664
:1039D0002549002224F014FB4B46204623490022AF
:1039E00024F00EFB434620462149002224F008FB28
:1039F0003B4620461F49002224F002FB3346204666
:103A00001D49002224F0FCFA2B4620461B490022C7
:103A100024F0F6FA20461A4B1A49002224F0F0FA54
:103A20002046194B1949BDE8F047002224F0E8BAB6
:103A3000174D184FDFF86080DFF86090DFF860A066
:103A4000184B2E46BDE700BFF5CF0100B5CF0100F2
:103A500036CF01007EC70100BEC601003EC4010092
:103A6000FDC00100380003003C00030040000300DB
:103A700044000300480003004C0003005000030012
:103A8000400200101C00030089A46D1B20000300ED
:103A9000B5AF02007DAF02003EAF0200FEA50200FE
:103AA00036AC0200FEA802002DE9F04F0B7991F828
:103AB0000080182B85B004460D4600F21E8191F857
:103AC00003B0BBF1180F94BF4FF0000B4FF0010B88
:103AD000EA796B78C54E511E013B4A42DBB24A413E
:103AE000062B9CBFC24931F91390338A23F0E003BF
:103AF0003382697BEB79337301F102014FF00107E7
:103B000007FA01F71FFA87FA4FEACA0A4FEA0212C8
:103B1000504688BF4FF480790392FDF7B1F8B5495C
:103B2000FCF7EEFAFDF77AF97082297B71752B7A32
:103B3000039A5B01090301F4304103F020030B43B6
:103B4000A97B43EA0143134300930022AA4B1021AF
:103B5000204624F0B0F9BBF1000F00F0D180338A89
:103B6000A64943F0600333824FF440630093002280
:103B70006FF4C053204624F09EF9A14940F2063369
:103B80000022204624F03CFA00231A464FF00E1182
:103B9000204624F035FA9B4B9B490022204624F016
:103BA0002FFA9A497D230022204624F09EF9AB7813
:103BB00000930022FC234FF4C021204624F068F932
:103BC0007B1E4FF400310022DBB2204624F08DF939
:103BD0006B78072B0CBF08210021204624F01BFA2C
:103BE0002B7B8B4903F00303032B0CBF894B8A4BC0
:103BF0000022204624F004FA88490022204624F0BE
:103C000016F92B79EA7885491B02D200D2B203F467
:103C1000F85313436A7920F4FF50520020F01F003C
:103C2000B8F1090F02F0060208BF40F0010013438B
:103C300003430022204624F0E3F96B78AA791B03A2
:103C400043EA8223009300226FF474432421204628
:103C500024F031F96B890BB981236B816B890222C6
:103C60004FF4C021204624F04CF9B8F1090F40F080
:103C700083806B4B6B490022204624F0C1F940F64B
:103C80003C7300224FF41021204624F03AF9664B91
:103C900066490022204624F0B3F965491423012225
:103CA000204624F022F963490E230222204624F004
:103CB0001CF9614981230022204624F016F90223D1
:103CC00000224421204624F010F901212046FFF76C
:103CD00099FD0627142022F099FA0022442120465B
:103CE00024F0C9F8830774D4013F17F0FF07F1D11E
:103CF0004FF0FF3005B0BDE8F08F4FF0010BE7E665
:103D00002B7B23B36A7B4D4B3F4933F81220AB7BAF
:103D1000012B9BBF4FF43563534313019A0C8CBFA7
:103D2000C3F30A03C3F3CA1303F5806388BFD20940
:103D3000B3F5006F28BF013292B202F07F02009209
:103D40004FF6807302222046D14424F054F8B9F192
:103D5000FF0FC8BF338A2949C5BF43F02003338210
:103D60004FF4A0534FF48063009300226FF4C053CC
:103D7000204624F0A0F81AE72046314B29490022BA
:103D800024F03EF941F63C7300224FF41021204606
:103D900024F0B7F881E7737A012B15D14FFA88F137
:103DA0002046FFF777FC4FF4C8430093254948F2BB
:103DB000FF130022204624F01EF80121204605B002
:103DC000BDE8F04FFFF7C6BD41462046FFF7EAFDCC
:103DD000E9E72B79093B0F2BDDD900221949009225
:103DE000FE23204624F054F8E7E700BF741E0020AD
:103DF000B01603006666663FCF4FFCFF08000B005D
:103E00000C000E000A5A0C0012000E0016000E00E4
:103E10000C000600CC355FAF4C585FAF14000100BA
:103E20003400011C1C00070033A8B508100007006F
:103E3000500007001800070008000900BE16030024
:103E40003411071C18000300002302491A4624F00D
:103E5000D7B800BF04000700002370B51A460D460E
:103E60000A49044624F0CCF800231A464FF4E02116
:103E7000204624F0C5F845B120460549BDE870400C
:103E80004FF0E053002224F0BBB870BD480007009B
:103E900014000700052907B50AD1074B009307490D
:103EA0004FF0FF33002224F006F803B05DF804FB66
:103EB0000929FAD1024BF1E7003C00020400070097
:103EC000001C000273B54FF008230E461546154935
:103ED000009300224FF0FF33044623F0ECFF4FF035
:103EE00060131049009300224FF0FF33204623F067
:103EF000E2FF052E0CBF0C4B0C4B009300224FF041
:103F0000FF334FF4E021204623F0D5FF45B1084BA5
:103F100008490022204602B0BDE8704024F070B885
:103F200002B070BD48000700003C0002001C000207
:103F3000001101011400070073B541F62203044685
:103F40000E4615461B49002223F0DBFF00222946BE
:103F50002046FFF7B7FF29462046FFF79BFFC6F331
:103F60000B031549154E0022204623F0CAFF0323F8
:103F700000931249FF230022204623F089FF0022EC
:103F80003146204623F077FF10F00105F7D1204697
:103F9000FFF75AFF29462046FFF75EFF2046FFF74E
:103FA00029FC07492A46204623F065FF00F03F0020
:103FB00002B070BD040011001C00080010000800D1
:103FC0001C00070070B50A8905460C465AB90B78E3
:103FD0000C4923F08AFF63680B4928460022BDE89C
:103FE000704024F00DB80022084923F044FF10F07F
:103FF000010F218914BF092205222846FFF79CFFE3
:10400000E9E700BF1C0007000C00010014000100DC
:10401000F7B51C460B44B3F5806F06460D461746B0
:104020001DDA7F2C09D800920B4622464FF4A011CE
:1040300023F051FF002003B0F0BD0A4914230022F1
:1040400023F0DEFF084923460022304623F0D8FF44
:1040500000972B4600224FF4E8113046E8E74FF076
:10406000FF30E8E704001F0008001F007F2A13B597
:10407000044641EAC32109D841EA024100910C4BB0
:104080000022242123F017FF02B010BD803241EA44
:1040900002410091064B0022242123F00CFF002254
:1040A0004FF40021204602B0BDE8104023F0E3BEEB
:1040B00000F400FC2DE9F3410C460646002843D0ED
:1040C00011F01D0801F0020500F08A8011F00103D3
:1040D00042D00A465548564923F08FFD002D36D070
:1040E000002300931A460D21304623F0F4FE514977
:1040F0004E48224623F081FD03224421304623F01E
:10410000BAFE4D4904460246484823F076FD14F0B5
:1041100008045DD149492246304623F088FE4849CB
:1041200005460246414823F068FDB5F5502F46D1BB
:10413000444A3E48012124F04CFF009423461A468D
:104140001946304623F0C7FE4FF0FF303DE00095A2
:104150002B462A460321C7E711F008080BD02DB1E2
:1041600000931A460F2123F0B6FEC5E700952B46B3
:104170002A460721F7E711F010070A4610D0324906
:104180002A4823F03AFD35B1CDF800804346424637
:104190000E213046E7E700952B462A460521F8E731
:1041A0002A49224823F029FD25B100973B463A468B
:1041B0001021EEE700952B462A460921E9E7244A1B
:1041C0001A48032124F005FF002002B0BDE8F08169
:1041D000204A1648012124F0FCFE00230093AEE79C
:1041E00011F020070A4612D01B49104823F005FDA4
:1041F00045B1CDF80080434642461121304623F0B8
:104200006AFEE1E700952B462A460B21F6E71349A3
:10421000064823F0F2FC25B100973B463A460C21B4
:10422000ECE700952B462A460121E7E72CEB02003C
:10423000401D03006F1D03001C1E030030000F0013
:104240003F1E0300611E03009E1D0300DC1D0300D2
:10425000921E0300B81E0300EB1E0300161F03008E
:10426000F7B51C46154BDB7B032B04EB02030F4613
:1042700014BF4FF490114FF49811B3F5806F0646B8
:10428000154606DA7F2C06D813460097224623F0FF
:10429000C5FD03B0F0BD0B0C0022094923F0B0FEB0
:1042A000084923460022304623F0AAFE00972B46F9
:1042B00000224FF4E8113046E9E700BF741E0020E9
:1042C00004001F0008001F000B460022014923F0D4
:1042D00018BE00BF0400010070B5094E0C46002254
:1042E0003146054623F0A3FD000D0005C4F313037A
:1042F0000343314628460022BDE8704023F080BECB
:104300000800010070B500220C464FF4A0210546BC
:1043100023F08DFD0A4B0340E00748BF43F48023A0
:10432000A10748BF43F410436207284648BF43F043
:104330001203BDE8704000224FF4A02123F060BEBC
:10434000C00FE0FF07B50C4BDB7B0091012B0BD0BE
:10435000032B4FF005030BD104224FF4F01123F08F
:104360005DFD03B05DF804FB044905230022F6E778
:1043700000226421F3E700BF741E0020040018002F
:104380002DE9F04F91B08407009302F004030293EB
:10439000C2F3C20303F10103DDF86880039205460E
:1043A0000E46059340F0BA81041D30B1072909D8A3
:1043B0006FF01B0011B0BDE8F08F01F00706344428
:1043C000C6F10806009B4FF00009591E4FF0040A81
:1043D0004FF0FF330193CDF810904F46CB46534634
:1043E0000DB1009A22600598002800F3E8809848F3
:1043F000009A824203D397488242C0F0E080039A39
:10440000A4EB050E92074FEA9E0000F103810F2FE7
:1044100000F2B180002D00F0058107F140020DEBA4
:10442000020C019A0CF8200C0CF8102C04980130A6
:104430000490E7E07A285DD84B280ED8472859D851
:1044400029282DD8252852D054D820287AD023388E
:10445000D0F1000B4BEB000B74E04C382E2849D800
:10446000DFE800F07048484848484848484848480D
:104470004B484848484848484859484B4B5959596F
:10448000704B6D487048184B184848827F4B48481D
:104490004B487F0000204FF0000B4FF0040A38E03B
:1044A0002A38C0B2012202FA00F010EA0E0F49D1F8
:1044B00010F0625C2FD110EA020B43D06046013C41
:1044C0005444B4FBFAF40AFB04F4002D61D0A3EBCE
:1044D000050CA444B4453FF66BAF002868D1042B0B
:1044E00047D158F8043B2360043404232AE0019A9E
:1044F000013A01924FF0000B24E011F8010C6C28F6
:1045000034D111F8023C00206C2B8346C5D14FF00A
:10451000080A5346D3E708F1070828F007080734CC
:10452000F8E802AB24F0070435B106982044B04205
:104530003FF63EAFC4E900AB08344FF0000B4FF03C
:10454000080A534611F8010F002878D0BBF1000F7C
:104550007FF470AF2528F5D1019B013301934FF013
:10456000010B4FF0040AECE7584694E7002083461D
:10457000A5E7082B02D06FF015001BE708F107082C
:1045800028F00708F8E80223C4E9002308340823C8
:10459000D8E768B9042B02D108F10408A4E7082B76
:1045A000E9D108F1070828F0070808F10808EDE745
:1045B000059A013A059258F8042B009210E7039AE5
:1045C000900720D5A4EB050E4FEA9E004FF0010C9A
:1045D000BEF5007FCFD20F2FCDD8F5B107F1400245
:1045E0000DEB020EC0B2019A0EF8200C0EF8102C42
:1045F000BCF1000F3FF41AAF60F07F000EF8200C02
:1046000009F101090137C5F10802043406924FF699
:10461000DA7E97E74FF0000CDAE7BCF1000F01D02B
:104620000136EFE7029802360028EBD10098CDE979
:104630000631FCF783FCDDE906310644E2E7631B43
:10464000B3F5806F97D23DB9A6F10804E018B1E642
:104650009CE50200F84F0300029A28609B082B702B
:104660009DF81030C2B1EB7085F80290B9F1000FDF
:1046700005D008A80022C5F1010C97420ED1C5F162
:1046800001030DF120084FF0000A01930DF1300BEA
:10469000574512D1601B8DE66B70E5E710F8013BC2
:1046A000190608D50CEB040EB64503F07F033FF660
:1046B0007FAE04F8013B0132DFE7B9F1000F03D010
:1046C00098F90020002A17DB029BD3B11AF80B20BF
:1046D00004F8012B0022019B18191044B0423FF648
:1046E00067AE98F8000004F8010B00990392204689
:1046F00029F045FD039A14440AF1010A08F1010862
:10470000C6E798F8002055F822300093029B45F840
:1047100022300098FCF712FC421CDCE76FF00D0021
:1047200048E600BF2DE9F04F97B000AF90F802A027
:10473000D7F880B03B62CBF3C0030446FA62BB619A
:10474000894641B9457800780AEB800020444D4500
:1047500017D8A0EB0409E378FB61BAF1000F02D08F
:104760001BF0010F16D1FB6953BBFB6A1BB13A6A00
:104770004946204698474D4628465C37BD46BDE829
:10478000F08F461C3046FCF7D9FB0130304409F16C
:104790000109DCE7237862687A62FA6A9900796134
:1047A00004EB8301002A40F000814D460E4601EBE8
:1047B0000A094FF000084E454CD101EB0A0610E003
:1047C0001BF0020FD1D023789A007A6162687A6276
:1047D000FA6A04EB8301002A77D14D4601EB0A0601
:1047E00090461BF0050F0CBF02230123FB62FB69FF
:1047F00006EB430A0BF00203BB625645BCD016F829
:10480000021B16F8013C54F82390994B994502D3AA
:10481000984B994536D3BB69002B40D0786A23F07A
:10482000B6FE00283BD0E9468AB06A46924B5361F7
:104830007B6AC2E906314FF4007313848F4B42F850
:10484000103F8F4800234FF4125100F023FD023D2A
:10485000CD46D2E716F8013BF96254F82300FCF785
:104860006DFBD7F88430F96A01304BB1D7F8883046
:1048700098453EBFD7F8843023F8180008F10108A6
:10488000054498E7BB6923B1786A23F080FE0028CD
:10489000C9D11BF0010F05D1FB6AED1AADE7BB6A68
:1048A000002BAAD04846FCF749FBD7F8843053B117
:1048B000D7F8883098453FBFD7F88420431C22F8AA
:1048C000183008F10108054497E7BAF1000F72D0DB
:1048D0001BF0040672D0D046002607F1480052466D
:1048E0003B61B96229F04BFCB96A3B6901EB0A02F2
:1048F000BA62FA69F9695200FA60BA6A02EB4102D7
:104900003A610BF00202BA603A69B96A8A4257D139
:1049100062787A621BF0020F32440CBF4FEA5801F2
:1049200000211BF0010FD2B240F09F801BF0040F5A
:1049300014BF40460020BB616270A070E1703A6A0B
:104940007969FB6A20469847051EFFF615AFBB69DB
:1049500023707B6A6370FB69E37041463A6AFB6AC5
:1049600084F802A007F148009847B0F10008C0F2AF
:10497000BB807B693A6AA9EB0A01C91AFB68C91AAC
:10498000D7E90A0398470028C0F2B080A84408EB92
:1049900000054FF0000B07F1380AB34572D3002130
:1049A0003A6AFB6A08469847E6E656464FF0000822
:1049B00007F1380093E75646D04697E7B04695E7AB
:1049C000BA6A12F8021BBA6212F8015C284A54F85B
:1049D0002500904202D3274A90421ED3BA6932B1D1
:1049E000786A7B6023F0D3FD7B6800288CD1BA689D
:1049F00002BB08F1280207F1300C08F101009444D1
:104A000007F1580252FA80F008F102080CF8101C65
:104A10005FFA88F800F8105C76E7BA693AB1786A0C
:104A20007B6023F0B4FD7B6800287FF46DAF1BF042
:104A3000010F09D006F1280207F13000711C161889
:104A400006F8205CCEB25FE71BF0040F3FF45CAFCA
:104A500008F1280207F1300008F1010102EB00081B
:104A600008F8105C5FFA81F84EE7002063E700BFAA
:104A70009CE50200F84F0300531F030004000001EF
:104A800014EB02001BF80A3087F8373054F82390F3
:104A9000D7F884302BB3D7F888309B4521D2D7F88C
:104AA000843033F81B803A6AFB6A012107F1370032
:104AB000984700281ADB0544B8F1000F06D1484694
:104AC000FCF73CFA00F101081FFA88F83A6AFB6A21
:104AD000414648469847002808DB05440BF1010B86
:104AE0005BE74FF00008DEE7454645E6054643E64E
:104AF000014B1860704700BF1C03002080B50546BD
:104B00000E461746984621F0C3FB034629F03CFDAC
:104B1000DFF81890044649F80030424630463946DE
:104B2000A84754F8090002F053FD00BF0800000038
:104B30002DE9F047058B04462807904611D4022939
:104B400005F0070540F0CC80204623F0E8FF78B15F
:104B50000138218B042811D8DFE800F0C2106D85E0
:104B6000950001290CBF45F0100545F0200525836F
:104B700088F31188BFF36F8FBDE8F08701F0070A53
:104B8000AA4500F0A5800027B9463E46A368002B41
:104B900000F0BC8041F00801218388F31188BFF345
:104BA0006F8FA168002900F0BA800D68002900F01D
:104BB000B680D1F80480334652462046C047002DC7
:104BC00076D02B6829461D46F0E701F007035A1FEF
:104BD000012A1BD8002221F00701062B276889B281
:104BE000C4E9002209D13B4603E0628B01326283B3
:104BF0001B68002BF9D141F002012183204623F0EC
:104C00008EFF00287AD041F0200176E0042B0AD1F3
:104C100021F0070189B22183204623F080FF10B1E3
:104C200041F020012183218B01F0070AAA454FD0D2
:104C30000027B946AAE7236921F0070141F00601E0
:104C4000062DD3F8009021832DD1B9F1000F3FD06C
:104C500041F00801218388F31188BFF36F8F3A492F
:104C60002046C84729E021F00701236941F00401EB
:104C700089B2042DD3F804902183E6D000273E4664
:104C80004FF0040A82E721F00701236941F0050192
:104C900089B2052DD3F808902183D6D000273E464F
:104CA0004FF0050A72E700273E464FF0060A6DE70F
:104CB0002B4687E7B9F1000FD1D1EFF311882023FC
:104CC00083F31288BFF36F8F238B23F008032383B2
:104CD000258BEA062ED525F01003238305F0070562
:104CE0006669218B002EBFF670AF00232768C4E9E8
:104CF000003321F0070141F001012183218B01F0F4
:104D0000070AAA454FF000097FF440AF002F9CD05E
:104D100041F00801218388F31188BFF36F8F002FC2
:104D2000C8D03D68394633465246204623F023FF1B
:104D30002F46F4E7AB067FF51BAF25F02003238356
:104D400005F0070500E700BFA38B02002DE9F0473F
:104D5000DFF85880044607464FF0010914B9384679
:104D6000BDE8F08794FAA4F5B5FA85F509FA05F3DC
:104D70002E0108EB05156FEA030A24EA03042B7BD6
:104D8000002BEBD058F806301B694BB9464404227F
:104D900073682846196807EA0A0724F0ABF8DDE7CC
:104DA000284698470028D9D1F0E700BFC4EB02009D
:104DB00030B51049104889B0002229F04FF90F4D45
:104DC0000F4900220023CDE9062300240E23CDE95C
:104DD0000334CDE901440B4B00944FF44072284654
:104DE00020F078FF0849284628F0B8FF204609B08F
:104DF00030BD00BF0D4E000060110020D80C002017
:104E0000405900203951000007200300014820F0DC
:104E10001FBC00BF100900202DE9F0478046214843
:104E20000F4624F047F80646002833D000252846D0
:104E3000BDE8F087237B83B12368DB680BB1204694
:104E40009847636883F8069023681B69D3B9636841
:104E500004221968204624F04DF8013610345445D8
:104E6000E8D3B8F1000FE2D0002DDFD02846FFF7DD
:104E70006DFF0546002FF7D000214FF4A47029F0F4
:104E80001FF8F1E7204698470028E0D009FA06F31A
:104E90001D43E2E7044CDFF814A005464FF001097A
:104EA000DDE700BFC41E0020C4EB0200D4EB02000B
:104EB000014B53F8200070478CEF020008B5034601
:104EC00008462BB1044A136000F07AFC002008BDAC
:104ED0006FF01500FBE700BF2003002010B5044C65
:104EE000237813B9034820F0B3FB0123237010BDCE
:104EF000334F00201009002010B504460B4823F062
:104F0000D9FF5CB1BFF35B8F094B53E8001F013938
:104F100043E80012002AF8D1BFF35B8F054829F05F
:104F2000A9F80548BDE8104020F092BBBC1E002047
:104F3000C01E002060110020100900200020064B38
:104F4000BFF35B8F014653E8000F43E80012002ACD
:104F5000F9D1BFF35B8F7047BC1E002070B5FFF71F
:104F6000EDFF084C084E0546B44200D370BD63689F
:104F70005B792BB123685B6813B1294620469847BB
:104F80001034F1E7C4EB0200D4EB020010B5044C7E
:104F90000449204623F041FC034B1C6010BD00BFB8
:104FA0003008002078EF0200B41E00200D4A0E48A1
:104FB000002310B513700D4A13600D4A4FF40041E1
:104FC0001360FFF77BFFFFF7E1FF0A4B0A49184622
:104FD0008B4200D310BD1A1A5C6812110132227183
:104FE0001033F5E7344F0020B18E0200BC1E0020C4
:104FF000C01E0020C4EB0200D4EB020001460022D8
:105000000148002323F02ABC30080020014823F087
:10501000C3BC00BF30080020024B0146186823F0D3
:105020000FBD00BFB41E0020014823F044BD00BFE7
:105030003008002070B5294B187800284DD0FFF7B4
:10504000E5FF0546002845D1254B264C1B68002B63
:1050500019DD28F0BCFF4FF47A72A0FB020302FBBB
:105060000131C30BD4E9002043EA41439B1A4FEAC4
:10507000D13140F2E93261EB0001934271F100015C
:1050800001D3FFF76BFFD4E9003213F57A7342F1D5
:105090000002C4E90032BDE87040FFF7C5BF636895
:1050A0005B7923B1236829461B6820469847103452
:1050B000B442F4D32846FFF7AFFFBFF35B8F0A4B30
:1050C00053E8001F013943E80012002AF8D1BFF36A
:1050D0005B8FB9E7054C064EEAE770BD334F002001
:1050E000BC1E002058110020C01E0020C4EB02008E
:1050F000D4EB020070B50D4D297861B90120FFF79E
:105100008BFE0B4C0B4EB44206D3FFF793FF0028E7
:10511000FBD101232B7070BD63685B791BB12368E1
:1051200020469B6898471034EDE700BF344F0020BD
:10513000C4EB0200D4EB020000212DE9F047084641
:10514000FFF76AFE044658B340F267684FF0000963
:1051500029F01AFA1B4B1C4A1B58136033B11B4B26
:105160001B68092B02DD1A4820F072FA194FDFF88C
:1051700060A0002544B12046FFF7E8FD044618B9B9
:105180004FF0FF384FF0FF39FFF754FF064628B9BC
:10519000B5B942464B46504620F094FA3546E9E709
:1051A0004FF0FF384FF0FF39D2E72B689B691BB1F6
:1051B00000221146284698471035BD42F5D3E8E74E
:1051C000054DFAE708000000B81E0020C01E0020B0
:1051D00010090020D4EB0200C4EB020013B51848FC
:1051E00023F068FE174B1B7873B1EFF31184202373
:1051F00083F31288BFF36F8FFFF71CFF84F31188CE
:10520000BFF36F8F02B010BD0F4B1B68002BF9D09E
:1052100050B900220023CDE900230C484FF400428E
:10522000002321F015FBEDE70928EBD1074828F012
:1052300021FF074802B0BDE8104020F009BA00BFC6
:10524000C01E0020344F0020B81E00206011002036
:105250001009002010B5064B1B68044698472146EC
:10526000A060044823F079FBBDE81040FFF7B6BF0B
:105270002003002030080020044A054B9B1AB1EBA4
:10528000D30F34BF52F83100002070476CEA02009F
:10529000C4EB02002DE9F04F8FB004AFC1F34A28F0
:1052A000B8600D4691467B600C0DB8F1000F63D0DD
:1052B000002607F114034FF0040B4FF00A0AC7F859
:1052C0000C80C7E907667E620193CDF808B0CDF87F
:1052D00000A007F11C03F96832464846FFF722FA9E
:1052E000B0F5006F03461CD36C468AB0D9F80410A1
:1052F00004AB2648C3E9050140F2FF71D9611A46A3
:105300004FF400711984224B42F8103F2148334674
:105310004FF41251FFF7BEFFA5462C37BD46BDE83E
:10532000F08FC0F30A0804F11700184420F00700BA
:1053300080083B60FFF762FE68F35325044690B196
:105340003B68154AC7E9083600F1100107F114035C
:10535000F961CDE900A3CDF808B0F96807F11C03A5
:105360004846FFF7DFF968F353257B68B9682A469A
:10537000204623F0DEFDD0E704F1170020F00700FF
:105380008008FFF73BFE0446EDE700BF1C2003004A
:10539000040000014CEB0200078F02002DE9F04FE2
:1053A00087B0DDE91279DDE9105A0446039193468E
:1053B0009846BFB1CDF800903B46524610210020E0
:1053C000CDF81490FEF7DCFFB0F5006F06460AD367
:1053D000184A194840F2FF73022107B0BDE8F04FA8
:1053E00023F000BE3E4605F11700304420F00700D0
:1053F00004F007048008FFF701FE0BF0070BE40040
:1054000044EA8B1444EA462444EA0554054640B174
:105410003FB1CDF800903B46524631461030FEF782
:10542000AFFF039943462246284607B0BDE8F04F38
:1054300023F07FBD5B2003004CEB0200406820B1ED
:10544000034BC01A40F3CF0070474FF0FF30704756
:105450006CEA02000EB403B503AB014653F8042B0B
:105460000448019302F060FB02B05DF804EB03B066
:10547000704700BF47900200CA0605D48B064CBF98
:1054800002490349FFF7E6BF704700BF94200300BD
:10549000932003002DE9F04F89B09B46149B06939F
:1054A0009DF84CA0159B0593169B179E04930446EC
:1054B0000D469046BAF1000F00F09D8006F480730F
:1054C000079323F015FD06F00209024600283ED09E
:1054D00091492046FFF7BEFF0746B9F1000F08D0FB
:1054E00016F0440F35D18D492A462046FFF7B2FF0A
:1054F000074406F0010353B1894B8A4953F82A2027
:10550000894B2046002A08BF1A46FFF7A3FF06F47E
:105510008073002B49D006F00803002B63D1B8F14B
:10552000000F66D0814942462046FFF793FF0546AB
:10553000069B3D44002B6DD1049B002B73D1F307D8
:1055400000F1E48031462046FFF796FFD8E0074699
:10555000C3E7774B18680028CAD0764B4FF47A79A6
:105560001B68B5FBF3F54FF46163B5FBF0F100FB8D
:10557000115509FB05F54FF03C0CB1FBF3F203FBB1
:105580001211B5FBF0FEB1FBFCF300FB1E550CFB4A
:10559000131109FB05F50091B5FBF0F56649CDE95E
:1055A00001E52046FFF756FFA2E706F00803EBB13E
:1055B000624B634953F82A202046FFF74BFF05460C
:1055C000B8F1000F05D0594942462046FFF742FF87
:1055D0000544BBF1000FABD05A495A462046FFF7AD
:1055E00039FF0544A4E74FF0000BE1E706F008059A
:1055F000E6E745469CE7BBF1010F069B06D1002B71
:1056000064D1049B002B7BD000250CE0002BF8D04C
:105610004D485CE04D48069B4D49224622F086FFEE
:10562000049B002B68D0DFF82C81DFF82C91049FBD
:105630003146102F204628BF1027FFF71DFF4FF0DF
:10564000000B5D4545DC059B49461A782046FFF76F
:1056500001FF4FF0010B1BF0070F03D1414620461D
:10566000FFF7F8FE5F453BD9059B494613F80B2031
:105670002046FFF7EFFE0BF1010BBBF1100FEAD153
:10568000364920464FF0000BFFF7E4FE5A46059BD3
:105690009A5CA2F120015F2928BF2E2230492046C2
:1056A000FFF7D8FE0BF1010BBBF1100F1DD01BF063
:1056B000070F03D141462046FFF7CCFE5F455A460F
:1056C000E5D841462046FFF7C5FEEBE71F485546A3
:1056D000A1E741462046FFF7BDFE0BF1010BB0E705
:1056E00020492046FFF7B6FEC5E7059B3B440593DE
:1056F000049BDB1B04939AD1BAF1000F7FF41FAF18
:10570000204609B0BDE8F04F23F090BC064A054999
:105710002046FFF79FFE15E79B2003009F20030014
:105720009CEF0200DD2E030096200300C42003003E
:10573000CC1E0020C81E0020A8200300B0EF0200ED
:10574000C8200300CE2003007D9002004790020095
:10575000297B0000DB200300D3200300DD200300B1
:10576000DF200300D920030073B542F20F738B4290
:1057700028BF0B4605680F4A04460521684621F0FC
:10578000EFF863680C495B6806460B22284623F055
:105790003FFC63683246694628465B6823F038FC64
:1057A000636806495B681B22284623F031FC02B07F
:1057B00070BD00BFB71C0300FE200300E220030001
:1057C000074A00210123904206D8064A01B9012365
:1057D0001360054B1860704740085B000121F2E739
:1057E00040420F00C81E0020CC1E0020F8B5074F15
:1057F0000D4604464618B44201D12846F8BD14F8B7
:10580000011BBB6801485B689847F4E7BCE60200EF
:10581000014B036000207047F8EF0200F0B40C4B1E
:105820000C4E5F6A0C4BB34203D36FF08500F0BCA3
:1058300070475D68BD4209D31C693CB195F802C050
:105840000579AC4502D12346F0BC18472433EAE77A
:10585000FC1E0020BC0B0020980B00202DE9F04717
:10586000134CDFF85080DFF8509005460E4617467F
:10587000444503D36FF08500BDE8F0876268D9F82E
:1058800024309A4212D3A36983B19078297988424F
:1058900005D13A4631462846BDE8F04718475279C7
:1058A000012A03D13A463146284698472434DFE797
:1058B000980B0020BC0B0020FC1E00202DE9F041BD
:1058C0000B4CDFF8308005460E461746444502D3A0
:1058D0006FF0850009E063690BB92434F6E73A46B6
:1058E0003146284698470028F7D1BDE8F08100BF2F
:1058F000980B0020BC0B0020024B00221A605A605B
:10590000704700BFB71F002070B50B4B0B4CA34274
:1059100001D3002070BD196A1E7F00220439D5B260
:10592000AE4201D82433F2E7013211F832508542F9
:10593000F5D10120EEE700BF980B0020BC0B002042
:1059400008B5044A03460121034823F013FC002054
:1059500008BD00BF44210300ACEB020038B505468A
:1059600026F0C9F910F1780F044611D10D4A0E48FE
:105970002B46022123F0FEFB284623F0FDFB0B4AB9
:10598000D2F8C43023EA0003C2F8C430002407E090
:105990000028F1D0064A04482B46012123F0EAFBF7
:1059A000204638BD5F210300ACEB0200FC1E002046
:1059B0008021030008B509480378C3F341130A3373
:1059C00050F823303BB100F1080200F11001984774
:1059D000C043C00F08BD1846FCE700BFFC1E0020F6
:1059E00004282DE9F74FDFF89C9004460F4615D0A8
:1059F00001282FD1DFF8908098F8B93053B300F028
:105A0000E9FE224D4D4522D22A6A4FF0000A2B7F33
:105A10005FFA8AF6B34204D82435F3E7FFF76CFF48
:105A2000E8E702EBC6060192307926F064F9834676
:105A3000307923F0A1FBD8F8C430019A23EA00039F
:105A4000BBF1000FC8F8C4300AF1010ADFDA002305
:105A500088F8B9300D4D4D4508D30B4B1B6A6BB11F
:105A60003946204603B0BDE8F04F1847EB681BB13C
:105A70003A462146284698472435ECE703B0BDE86E
:105A8000F08F00BFBC0B0020FC1E0020980B0020F4
:105A900073B5C4B263060D468DF8074007D02046A3
:105AA000FFF732FFB0B1144B93F8BA0090B1124E29
:105AB00023468DB1114A1248032123F05BFB9DF868
:105AC000070019F073FFF3691BB10DF107010820FE
:105AD0009847012002B070BD0A4A0948032123F00B
