:1000000080830020C1760000B7950200AD76000025
:10001000AD760000AD760000AD7600000000000077
:1000200000000000000000000000000085770000D4
:10003000AD7600000000000025770000AD760000DE
:100040004579000001C301004579000045790000B1
:1000500045790000457900004579000045790000A8
:100060004579000045790000457900004579000098
:100070004579000045790000457900004579000088
:100080004579000045790000457900004579000078
:100090004579000045790000457900004579000068
:1000A0004579000045790000457900004579000058
:1000B0004579000045790000457900004579000048
:1000C0004579000045790000457900004579000038
:1000D0004579000045790000457900004579000028
:1000E0004579000045790000457900004579000018
:1000F0004579000045790000457900004579000008
:100100004FF0FF0C1CEAD0521EBF1CEAD15392EAFA
:100110000C0F93EA0C0F6FD01A4480EA010C4002D6
:1001200018BF5FEA41211ED04FF0006343EA501030
:1001300043EA5111A0FB01310CF00040B1F5000F72
:100140003EBF490041EAD3715B0040EA010062F121
:100150007F02FD2A1DD8B3F1004F40EBC25008BF0B
:1001600020F00100704790F0000F0CF0004C08BF29
:1001700049024CEA502040EA51207F3AC2BFD2F1F6
:10018000FF0340EAC250704740F400004FF0000304
:10019000013A5DDC12F1190FDCBF00F0004070473E
:1001A000C2F10002410021FA02F1C2F1200200FA7C
:1001B00002FC5FEA310040F1000053EA4C0308BF43
:1001C00020EADC70704792F0000F00F0004C02BF94
:1001D000400010F4000F013AF9D040EA0C0093F00F
:1001E000000F01F0004C02BF490011F4000F013B69
:1001F000F9D041EA0C018FE70CEAD15392EA0C0FD7
:1002000018BF93EA0C0F0AD030F0004C18BF31F041
:10021000004CD8D180EA010000F00040704790F017
:10022000000F17BF90F0004F084691F0000F91F0BB
:10023000004F14D092EA0C0F01D142020FD193EA81
:100240000C0F03D14B0218BF084608D180EA010009
:1002500000F0004040F0FE4040F40000704740F0E5
:10026000FE4040F44000704781F0004102E000BFD2
:1002700083F0004330B54FEA41044FEA430594EA66
:10028000050F08BF90EA020F1FBF54EA000C55EAA1
:10029000020C7FEA645C7FEA655C00F0E2804FEA72
:1002A0005454D4EB5555B8BF6D420CDD2C4480EA54
:1002B000020281EA030382EA000083EA010180EA84
:1002C000020281EA0303362D88BF30BD11F0004FD2
:1002D0004FEA01314FF4801C4CEA113102D0404208
:1002E00061EB410113F0004F4FEA03334CEA133343
:1002F00002D0524263EB430394EA050F00F0A7805B
:10030000A4F10104D5F1200E0DDB02FA0EFC22FA55
:1003100005F2801841F1000103FA0EF2801843FA49
:1003200005F359410EE0A5F120050EF1200E012A3A
:1003300003FA0EFC28BF4CF0020C43FA05F3C01878
:1003400051EBE37101F0004507D54FF0000EDCF1F1
:10035000000C7EEB00006EEB0101B1F5801F1BD39A
:10036000B1F5001F0CD349085FEA30004FEA3C0C9E
:1003700004F101044FEA445212F5800F80F09A8094
:10038000BCF1004F08BF5FEA500C50F1000041EB98
:10039000045141EA050130BD5FEA4C0C404141EB9C
:1003A0000101013C28BFB1F5801FE9D291F0000F97
:1003B00004BF01460020B1FA81F308BF2033A3F146
:1003C0000B03B3F120020CDA0C3208DD02F1140C3D
:1003D000C2F10C0201FA0CF021FA02F10CE002F178
:1003E0001402D8BFC2F1200C01FA02F120FA0CFC71
:1003F000DCBF41EA0C019040E41AA2BF01EB0451BA
:10040000294330BD6FEA04041F3C1CDA0C340EDCB7
:1004100004F11404C4F1200220FA04F001FA02F3FA
:1004200040EA030021FA04F345EA030130BDC4F1B8
:100430000C04C4F1200220FA02F001FA04F340EAAD
:100440000300294630BD21FA04F0294630BD94F05E
:10045000000F83F4801306BF81F480110134013D45
:100460004EE77FEA645C18BF7FEA655C29D094EAB6
:10047000050F08BF90EA020F05D054EA000C04BF34
:100480001946104630BD91EA030F1EBF002100201F
:1004900030BD5FEA545C05D14000494128BF41F0BE
:1004A000004130BD14F580043CBF01F5801130BD22
:1004B00001F0004545F0FE4141F470014FF00000AD
:1004C00030BD7FEA645C1ABF194610467FEA655C5E
:1004D0001CBF0B46024650EA013406BF52EA033500
:1004E00091EA030F41F4002130BD00BF90F0000FEE
:1004F00004BF0021704730B54FF4806404F132042A
:100500004FF000054FF0000150E700BF90F0000FE2
:1005100004BF0021704730B54FF4806404F1320409
:1005200010F0004548BF40424FF000013EE700BFD9
:1005300042004FEAE2014FEA31014FEA02701FBF69
:1005400012F07F4393F07F4F81F06051704732F09B
:100550007F4208BF704793F07F4F04BF41F40021F2
:10056000704730B54FF4607401F0004521F0004150
:100570001CE700BF50EA010208BF704730B54FF0DA
:1005800000050AE050EA010208BF704730B511F0DB
:10059000004502D5404261EB41014FF4806404F113
:1005A00032045FEA915C3FF4D8AE4FF003025FEA99
:1005B000DC0C18BF03325FEADC0C18BF033202EB1D
:1005C000DC02C2F1200300FA03FC20FA02F001FA77
:1005D00003FE40EA0E0021FA02F11444BDE600BF1A
:1005E00070B54FF0FF0C4CF4E06C1CEA11541DBFC9
:1005F0001CEA135594EA0C0F95EA0C0F00F0DEF894
:100600002C4481EA030621EA4C5123EA4C5350EA78
:10061000013518BF52EA033541F4801143F48013C9
:1006200038D0A0FB02CE4FF00005E1FB02E506F05A
:100630000042E0FB03E54FF00006E1FB03569CF0AF
:10064000000F18BF4EF0010EA4F1FF04B6F5007FB5
:1006500064F5407404D25FEA4E0E6D4146EB060627
:1006600042EAC62141EA55514FEAC52040EA5E50B0
:100670004FEACE2EB4F1FD0C88BFBCF5E06F1ED85A
:10068000BEF1004F08BF5FEA500E50F1000041EB91
:10069000045170BD06F0004646EA010140EA02003E
:1006A00081EA0301B4EB5C04C2BFD4EB0C0541EA60
:1006B000045170BD41F480114FF0000E013C00F375
:1006C000AB8014F1360FDEBF002001F0004170BD99
:1006D000C4F10004203C35DA0C341BDC04F11404B2
:1006E000C4F1200500FA05F320FA04F001FA05F23E
:1006F00040EA020001F0004221F0004110EBD3700B
:1007000021FA04F642EB06015EEA430E08BF20EA36
:10071000D37070BDC4F10C04C4F1200500FA04F3D9
:1007200020FA05F001FA04F240EA020001F000416B
:1007300010EBD37041F100015EEA430E08BF20EADE
:10074000D37070BDC4F1200500FA05F24EEA020E26
:1007500020FA04F301FA05F243EA020321FA04F055
:1007600001F0004121FA04F220EA020000EBD3700C
:100770005EEA430E08BF20EAD37070BD94F0000F0C
:100780000FD101F00046400041EB010111F4801F40
:1007900008BF013CF7D041EA060195F0000F18BFF1
:1007A000704703F00046520043EB030313F4801F2D
:1007B00008BF013DF7D043EA0603704794EA0C0FE7
:1007C0000CEA135518BF95EA0C0F0CD050EA4106FD
:1007D00018BF52EA4306D1D181EA030101F000417A
:1007E0004FF0000070BD50EA410606BF10461946A2
:1007F00052EA430619D094EA0C0F02D150EA0136AE
:1008000013D195EA0C0F05D152EA03361CBF1046EE
:1008100019460AD181EA030101F0004141F0FE418D
:1008200041F470014FF0000070BD41F0FE4141F411
:10083000780170BD70B54FF0FF0C4CF4E06C1CEA11
:1008400011541DBF1CEA135594EA0C0F95EA0C0FC6
:1008500000F0A7F8A4EB050481EA030E52EA033581
:100860004FEA013100F088804FEA03334FF08055A2
:1008700045EA131343EA12634FEA022245EA1115CF
:1008800045EA10654FEA00260EF000419D4208BF80
:10089000964244F1FD0404F5407402D25B084FEA2D
:1008A0003202B61A65EB03055B084FEA32024FF4D9
:1008B00080104FF4002CB6EB020E75EB030E22BF36
:1008C000B61A754640EA0C005B084FEA3202B6EBF6
:1008D000020E75EB030E22BFB61A754640EA5C00A5
:1008E0005B084FEA3202B6EB020E75EB030E22BF35
:1008F000B61A754640EA9C005B084FEA3202B6EB36
:10090000020E75EB030E22BFB61A754640EADC00F4
:1009100055EA060E18D04FEA051545EA16754FEA56
:1009200006164FEAC30343EA52734FEAC2025FEA74
:100930001C1CC0D111F4801F0BD141EA00014FF003
:1009400000004FF0004CB6E711F4801F04BF0143D4
:100950000020B4F1FD0C88BFBCF5E06F3FF6AFAEF0
:10096000B5EB030C04BFB6EB020C5FEA500C50F180
:10097000000041EB045170BD0EF0004E4EEA113103
:1009800014EB5C04C2BFD4EB0C0541EA045170BD0A
:1009900041F480114FF0000E013C90E645EA060E4E
:1009A0008DE60CEA135594EA0C0F08BF95EA0C0F7C
:1009B0003FF43BAF94EA0C0F0AD150EA01347FF4C4
:1009C00034AF95EA0C0F7FF425AF104619462CE79B
:1009D00095EA0C0F06D152EA03353FF4FDAE1046FE
:1009E000194622E750EA410618BF52EA43067FF44F
:1009F000C5AE50EA41047FF40DAF52EA43057FF4DF
:100A0000EBAE12E74FF0FF3C06E000BF4FF0010CE9
:100A100002E000BF4FF0010C4DF804CD4FEA410C4D
:100A20007FEA6C5C4FEA430C18BF7FEA6C5C1BD01A
:100A300001B050EA410C0CBF52EA430C91EA030F9B
:100A400002BF90EA020F0020704710F1000F91EAF8
:100A5000030F58BF994208BF90422CBFD8176FEAC6
:100A6000E37040F0010070474FEA410C7FEA6C5C94
:100A700002D150EA013C07D14FEA430C7FEA6C5C9B
:100A8000D6D152EA033CD3D05DF8040B704700BFC7
:100A90008446104662468C461946634600E000BF15
:100AA00001B5FFF7B7FF002848BF10F1000F01BDE7
:100AB0004DF808EDFFF7F4FF0CBF012000205DF8B2
:100AC00008FB00BF4DF808EDFFF7EAFF34BF012037
:100AD00000205DF808FB00BF4DF808EDFFF7E0FFD0
:100AE00094BF012000205DF808FB00BF4DF808ED21
:100AF000FFF7CEFF94BF012000205DF808FB00BF88
:100B00004DF808EDFFF7C4FF34BF012000205DF869
:100B100008FB00BF80F0004002E000BF81F0004110
:100B200042001FBF5FEA410392EA030F7FEA226C93
:100B30007FEA236C6AD04FEA1262D2EB1363C1BF23
:100B4000D218414048404140B8BF5B42192B88BF92
:100B5000704710F0004F40F4000020F07F4018BFB5
:100B6000404211F0004F41F4000121F07F4118BFD5
:100B7000494292EA030F3FD0A2F1010241FA03FC7D
:100B800010EB0C00C3F1200301FA03F100F0004365
:100B900002D5494260EB4000B0F5000F13D3B0F12D
:100BA000807F06D340084FEA310102F10102FE2A9C
:100BB00051D2B1F1004F40EBC25008BF20F001000C
:100BC00040EA03007047490040EB0000013A28BFAB
:100BD000B0F5000FEDD2B0FA80FCACF1080CB2EB2E
:100BE0000C0200FA0CF0AABF00EBC25052421843AC
:100BF000BCBFD0401843704792F0000F81F4000151
:100C000006BF80F400000132013BB5E74FEA410323
:100C10007FEA226C18BF7FEA236C21D092EA030F8F
:100C200004D092F0000F08BF0846704790EA010F09
:100C30001CBF0020704712F07F4F04D1400028BF36
:100C400040F00040704712F100723CBF00F5000018
:100C5000704700F0004343F0FE4040F4000070474E
:100C60007FEA226216BF08467FEA236301464202FA
:100C700006BF5FEA412390EA010F40F4800070470D
:100C80004FF0000304E000BF10F0004348BF4042B3
:100C90005FEA000C08BF704743F0964301464FF0EF
:100CA00000001CE050EA010208BF70474FF000034B
:100CB0000AE000BF50EA010208BF704711F000438C
:100CC00002D5404261EB41015FEA010C02BF84465C
:100CD0000146002043F0B64308BFA3F18053A3F5BB
:100CE0000003BCFA8CF2083AA3EBC25310DB01FA02
:100CF00002FC634400FA02FCC2F12002BCF1004F86
:100D000020FA02F243EB020008BF20F00100704716
:100D100002F1200201FA02FCC2F1200250EA4C006A
:100D200021FA02F243EB020008BF20EADC707047B0
:100D30004FF0FF3C06E000BF4FF0010C02E000BFA7
:100D40004FF0010C4DF804CD4FEA40024FEA410349
:100D50007FEA226C18BF7FEA236C11D001B052EAFF
:100D6000530C18BF90EA010F58BFB2EB030088BFC5
:100D7000C81738BF6FEAE17018BF40F00100704734
:100D80007FEA226C02D15FEA402C05D17FEA236C16
:100D9000E4D15FEA412CE1D05DF8040B704700BF5D
:100DA000844608466146FFE70FB5FFF7C9FF0028F4
:100DB00048BF10F1000F0FBD4DF808EDFFF7F4FF2D
:100DC0000CBF012000205DF808FB00BF4DF808EDC6
:100DD000FFF7EAFF34BF012000205DF808FB00BFE9
:100DE0004DF808EDFFF7E0FF94BF012000205DF80B
:100DF00008FB00BF4DF808EDFFF7D2FF94BF0120BC
:100E000000205DF808FB00BF4DF808EDFFF7C8FFB4
:100E100034BF012000205DF808FB00BF4FEA40020C
:100E2000B2F1FE4F0FD34FF09E03B3EB12620DD918
:100E30004FEA002343F0004310F0004F23FA02F082
:100E400018BF404270474FF00000704712F1610F29
:100E500001D1420205D110F0004008BF6FF0004000
:100E600070474FF00000704753B94AB9002908BFD6
:100E700000281CBF4FF0FF314FF0FF3000F02AB8C0
:100E8000ADF1080C6DE904CE00F077F8DDF804E070
:100E9000DDE9022304B07047D0B50C4B00220646B2
:100EA0000F46FFF79DFB00F017F80446FFF71EFB07
:100EB000074B0022FFF794FB02460B4630463946AB
:100EC000FFF7D6F900F008F82146D0BD0000F03D4C
:100ED0000000F041704700BF4A0011D212F5001225
:100EE00011D20DD56FF47873B3EB62520ED44FEA82
:100EF000C12343F0004343EA505323FA02F0704702
:100F00004FF00000704750EA013002D14FF0FF303F
:100F100070474FF00000704710F8012B11F8013BAB
:100F2000012A28BF9A42F7D0D01A7047034611F819
:100F3000012B03F8012B002AF9D17047034613F85F
:100F4000012B002AFBD1181A0138704738B500224E
:100F5000002304460D46FFF7B5FD28B92046294673
:100F6000BDE83840FFF798BF204605F10041FFF784
:100F700093FF404261EB410138BD2DE9F0478646C1
:100F80008C460846089E154674461946002B40F0CC
:100F9000C2808542B2FA82F245D94AB1C2F1200339
:100FA00000FA02FC2EFA03F3954043EA0C0C94403D
:100FB0004FEA154EA8B2BCFBFEF8230C0EFB18CC72
:100FC00008FB00F943EA0C43994528D9EB1808F1CE
:100FD000FF3704D2994502D9A8F102072B44A3EBAD
:100FE0000903A4B2B3FBFEFC0EFB1C330CFB00F0A8
:100FF00044EA0344A04214D92C190CF1FF3304D263
:10100000A04202D9ACF102032C44241A43EA07405F
:101010001EB1D440002334607360BDE8F0874746BA
:10102000DDE76346F1E792BB431B01214FEA154E12
:10103000AFB2B3FBFEFC200C0EFB1C330CFB07F81D
:1010400040EA0343984562D9EB180CF1FF3004D213
:10105000984502D9ACF102002B44A3EB0803A4B2DB
:10106000B3FBFEFC0EFB1C330CFB07F744EA034406
:10107000A7424ED92C190CF1FF3304D2A74202D952
:10108000ACF102032C44E41B43EA0040C0E7C2F188
:10109000200320FA03F1954090402EFA03F3034316
:1010A0004FEA154EAFB2B1FBFEFC0EFB1C10190C43
:1010B0000CFB07F841EA0041884504FA02F422D902
:1010C00069180CF1FF3004D2884502D9ACF1020056
:1010D0002944A1EB08019BB2B1FBFEFC0EFB1C11E5
:1010E0000CFB07F743EA01439F420ED9EB180CF1C2
:1010F000FF3104D29F4202D9ACF102012B44DB1B29
:1011000041EA004192E76046E3E76146F7E760465F
:10111000A3E76346B7E7834206D916B9002108461C
:101120007BE7C6E900E0F9E7B3FA83F78FB98342BA
:1011300001D3724508D8BEEB020460EB0303012023
:101140009C461EB9002168E73846FAE7C6E9004C1C
:10115000F8E7C7F1200CBB4022FA0CF41C432EFA2E
:101160000CF120FA0CF3B84001434FEA14490EFA8F
:1011700007F5B3FBF9F81FFA84FE09FB18300B0CD6
:1011800008FB0EFA43EA00439A4502FA07F240D9F7
:10119000E31808F1FF3004D29A4502D9A8F1020001
:1011A0002344A3EB0A0389B2B3FBF9F809FB183314
:1011B00008FB0EFE41EA03418E452CD9611808F167
:1011C000FF3304D28E4502D9A8F10203214443EA39
:1011D0000040A0FB0298A1EB0E014145CE464346DC
:1011E00002D306D14D4504D2B9EB020E68EB0403DD
:1011F0000138002EA6D0B5EB0E0261EB030101FA17
:101200000CFC22FA07F34CEA0303F940C6E900316B
:1012100098E74046C5E74346D9E7000000000000D4
:101220002DE980488FB0044644F2010102AF26F058
:10123000F5FF44F20101204603F0DAF803212046CD
:1012400003F0F4F84FF0000B0021204627F006F8D9
:101250000021204626F0E8FF0021204626F097FFD7
:1012600000224421204626F099FE564A10420346A9
:10127000F6D010F4804500F0BA814FF4804300228C
:101280004421204626F073FF00224C21204626F000
:1012900085FEC0F30902182A36D84B4900232046A0
:1012A00003F072F8DFF82081484988F802B00A227A
:1012B00040462DF04BF88146002840F096812046AC
:1012C00026F0FAFF6E4688B005468A4602AA404BD1
:1012D000D161C2E90530042342F8103F3D484B4636
:1012E0004FF4035104F06AF855EA0A03B54614D1E5
:1012F000394A3848012126F01AFD384B4A46442124
:10130000204626F034FF9FE7182300933148134608
:101310000121334A27F027FFC4E7204602F00AFAEA
:10132000064670B92F4A2B48012126F000FD3346AE
:10133000009632463146204626F084FE274B324640
:10134000DDE7294E294A2348AE194AF1000A360A38
:1013500046EA0A663346032126F0E7FC314620467A
:1013600026F0BDFF4FF4FA71204603F049F82049FA
:10137000204E204626F058FF0521204626F06EFF1D
:101380001D4A337893700F214B46204602F0E6FE4B
:1013900001234A460F21204602F00EFF174A0D484E
:1013A0004FF00063032126F0C0FC0321204602F029
:1013B00027FF421C034625D1114A0648012126F089
:1013C000B4FC41E700D02724264E00200808002066
:1013D000991A0300D4EC0200B61A03000090052409
:1013E0006B1A0300D31A03008C405501071B03003E
:1013F000E09304003E4E0020F9070020231B030069
:10140000591B030000224421204626F0C7FD804AD4
:1014100010420346F6D032780132327010F4804622
:1014200000F0DC804FF4814300224421204626F066
:101430009EFE00224C21204626F0B0FDC0F309029A
:10144000182A00F2BC8020467249002302F09CFF5B
:101450006E468AB098F800C098F8010098F802101B
:1014600098F8033002AADFF8B0E153620623C2E91C
:1014700005ECC2E9070142F8103F684800234FF429
:10148000435103F09BFFB5466549624888F802B0B6
:101490000A222CF05BFF0646002840F09980204687
:1014A00026F0F7FEDFF87C81DFF87CA1C8E90001B7
:1014B000204626F001FFCAE9000107F124015B483C
:1014C00026F012FF07F12801594826F00DFF07F119
:1014D0002C01584826F008FFD7E90909A9EB0000BC
:1014E000FFF704F8D8F80080C7E90601DAF8000031
:1014F000A0EB0800FEF7FAFFC7E90401F86AA0EBC9
:101500000900FEF7F3FFC7E90201A8EB0500FEF7AB
:10151000EDFFD7E90423C7E90001D7E90601FFF78A
:101520005FF8D7E9002380468946D7E90201FFF733
:1015300057F802460B4640464946FEF799FED7E962
:10154000042380468946D7E90601FEF793FED7E9D2
:101550000223FEF78FFED7E90023FEF78BFE02463B
:101560000B4640464946FFF765F9FFF7EFFCFFF7EA
:1015700009F823A3D3E90023FFF732F822A3D3E924
:101580000023FFF72DF8DFF8B08002460B464046F7
:101590002A4925F0A5FA6D4688B002AA284BC2E96F
:1015A00005384FF400739383264B42F8103F1B48D5
:1015B00033464FF4E65103F001FFAD4644E61823ED
:1015C00000931648134601211F4A27F0CCFD5BE724
:1015D0001E4A1248012126F0AAFB35E61C4A0F4894
:1015E000012126F0A2FB1B4BA9E61B4AF1E71B4A8F
:1015F0000A48012126F099FB164B2A467FE600BFD8
:10160000FA48CE3B1835B13D0000001319DDB14159
:1016100000D02724264E0020891B0300D4EC0200B2
:10162000E1070020C80C0020C00C0020304E002034
:10163000344E0020384E0020124E0020E31B0300E1
:10164000F01B030003000001AF1B0300101C03008C
:10165000411C030000902724741C0300A41C0300F9
:10166000F0B5002283B0114600AF40F6034007F00A
:1016700087FD044600285BD107F0B6F921463A1DE4
:1016800041F2030007F07CFD0446002850D17A683F
:10169000BE4DD168D1F80100D1F8051005F17803ED
:1016A00003C3104606F03AFC21463A1D41F2010000
:1016B00007F066FD044600283AD17868C3685A7876
:1016C00085F870205A88A5F872201A7985F871205B
:1016D000B3F80720A5F87420B3F80530A5F87630E4
:1016E00006F01CFC21463A1D41F2020007F048FDBD
:1016F0000446E8B9D7F804C0DCF80C2005F18006F0
:10170000531C413218685968344603C40833934265
:101710002646F7D1604606F001FC95F87C305A0663
:101720000AD49B4A9B48012128F09BF96FF01204D0
:1017300020460C37BD46F0BD3A1D002142F20300A1
:1017400007F01EFD04460028F2D17B68924EDA684D
:10175000D2F80100D2F8051003C6184606F0DEFBE9
:1017600021463A1D42F2020007F00AFD0446002815
:10177000DED17C68E368B3F8012091B249B1D97831
:1017800039B1A5F80421DA78114606F128002CF0C9
:101790006AFA204606F0C2FB95F87C601F2316F01B
:1017A0002006A5F8203118D1022140F66D4007F03F
:1017B00043F90446002800F0DB8002210C3027F0BA
:1017C000C2FF0123037046702146324640F66D4049
:1017D00007F0D6FC04460028AAD195F89C301B07D8
:1017E00012D53A1D002142F21C0007F0C9FC044644
:1017F00000289DD17868C368D3F80120D3F805305C
:10180000C5E9382306F08AFB95F8D8309E0621D525
:10181000B91C384607F0B8FD0446002888D10421D9
:1018200042F2240007F008F90646002800F0A080E4
:1018300004210C3027F087FF3B8803807B8843809E
:101840002246314642F2240007F09AFC0446002862
:101850007FF46EAF95F8D8305C062AD5022142F2AB
:101860002E0007F0E9F80446002800F081800221EC
:101870000C3027F068FFB5F8B03103802146002214
:1018800042F22E0007F07CFC044600287FF450AFA3
:1018900001463A1D42F22A0007F072FC0446002875
:1018A0007FF446AF7868C3685B7885F8223106F02C
:1018B00035FB082142F2010007F0BEF8044600287B
:1018C00056D008210C3027F03EFF95F8D81011F0C3
:1018D000400F024640F2022308BF032388074CBF93
:1018E00043F02C0043F00C008B0695F8D93048BF2C
:1018F00040F0400013F0090F18BF40F40060CE071D
:1019000048BF40F01000002128F0CDF82146002209
:1019100042F2010007F034FC044600287FF408AFCF
:1019200095F87C30B5F80411980624D4C9B93A1D4D
:1019300041F2050007F024FC044600287FF4F8AECD
:10194000B5F804317C684BB9E368B3F80120A5F819
:1019500004219A88114811462CF085F9204606F09A
:10196000DDFA082140F6014007F066F80446C8B9E0
:101970006FF06804DCE60029F3D1094A054801212B
:1019800028F06FF86FF00404D2E600BFB00000202A
:101990001E32030054EC020088010020B801002030
:1019A0004232030008210C3027F0CDFE95F8D830E4
:1019B000D907024629D460484FF0005128F073F847
:1019C0002146002240F6014007F0DAFB04460028D9
:1019D0007FF4AEAE01463A1D4FF6014007F0D0FB52
:1019E000B8B1564A5648022128F03BF808F07CFC72
:1019F000044600287FF49CAE0AF08EF904460028C5
:101A00007FF496AE07F09EF992E649A1D1E9000174
:101A1000D4E77B68DC68B4F80130032B96BF494AF1
:101A2000494952F823106E468AB06A464748D36146
:101A30004FF400731384464BC2E9050142F8103F8E
:101A40003F484FF4135128F01FF8B4F80120B4F8C0
:101A50000330022AB54649D1052B47D83D4A52F8F2
:101A600023106E468AB06A463B48D3614FF4007338
:101A70001384374BC2E9050142F8103F4FF413516C
:101A80002F4828F001F8637994F806C0D4F80900CB
:101A9000032BB54698BF314AB4F8076094BF52F89B
:101AA000231029496C468CB06A46DFF8B4E0C2E9DD
:101AB000073C4FF4007393852A4BC2E905E1C2E964
:101AC00009604FF4735142F8103F1D4827F0DCFFC6
:101AD000A546786806F022FA3A1D00214FF602402A
:101AE00007F04EFB044618B11F4A7BE71649B8E7DA
:101AF0007868C368B3F80130A5F8C13006F00EFA73
:101B000095F8C1305B077FF571AF3A1D21464FF65E
:101B1000034007F035FB08B1144A63E77868C368EF
:101B20005B7885F8C03006F0F9F95FE7AFF3008025
:101B300090880002008000201088000265320300B7
:101B400054EC020014F402000F3003008932030049
:101B500004000001FCF30200A2320300ECF30200D7
:101B6000BA32030007000001E7320300103303001C
:101B70002DE9F843D0E90738856903EB08042F34D1
:101B8000A5420F46164619D8DFF86C80A3FB080162
:101B900017A3D3E90023FFF767F90346601BA0FBF7
:101BA000080123F07F4412A3D3E90023FFF75CF977
:101BB00020F07F403C603060BDE8F883DFF838906B
:101BC0000BA3D3E90023A5FB0901FFF74DF920F092
:101BD0007F440A480A2106A3D3E90023E8FB090150
:101BE000FFF742F920F07F403C603060BDE8F883A9
:101BF0008D49FD1A0700000000CA9A3B00166BF1E0
:101C0000002800F03C812DE9F04FC74C94F85E208D
:101C100012F001058DB040F06E81607EFF2300F070
:101C20000300A37619F0F6FF94F85E00420726D46D
:101C3000627F94F8293004EB820204EB8303166A76
:101C4000D3F82C8086B1B848314613F0D7FC3378EE
:101C50005B0605D506210EF019FE002800F04D8127
:101C6000B148414613F0CAFC337813F00E0F40F030
:101C70009D8063698BB10C200DB0BDE8F08F2A46C2
:101C800004F15F01C0F3C0001AF03AF9FF28A07612
:101C9000CED0284619F0D8FFCAE711F01FF98146C7
:101CA000002800F0388111F025F98246002800F064
:101CB0002F8113F09DFF0546002800F04581D0F8E4
:101CC00088004FF6FF73AB8405F1100B002800F07D
:101CD0001A8105F17C0205F178010EF0E3FDB5F8FB
:101CE000763023F4EF6323F0070343F48C7343F05F
:101CF0000103A5F8763095F8373003F03F0363F021
:101D00007F0385F8373095F88E3023F0070385F888
:101D10008E3095F83C3023F00F03002785F83C30D7
:101D20004FF4C023C5F888312846C5E91277C5F8B5
:101D30008870A5F88C7085F839706F85C5F82E709D
:101D40002F65A5F88E71A5F8847116F0ADF885F8A9
:101D50005071C5F8549114F0FFF995F8943160F37F
:101D6000020385F8943114F0FDF995F8943160F38D
:101D7000C50385F8943195F8803167F3410385F800
:101D800080310121284614F0F9FD05F1D40015F049
:101D900063FEC4E9159AC4F814B0C5E902772F7040
:101DA0002D611BF0C1F8002840F0A980237E01219D
:101DB000C3F342030DF12B008DF82B300EF00EFF14
:101DC000024600285DD098F80110304613F0D2F991
:101DD0005649574BB4F85C70A0FB0101C0184FF096
:101DE00000054FA3D3E9002341F10701C4E90255DF
:101DF0002570FFF739F8606010F09CF900F10908D0
:101E00003FB9357805F00F05A5F10105B5FA85F55F
:101E10006D09207E636865F3000010F001052076EF
:101E200036D0444A0992002010600225424A434FAE
:101E300004930BAE019305920321CDE902000694B1
:101E400043460090089607972A460B9510F074F8C1
:101E5000314611F0D7F8A0B9394905914AF2D83383
:101E60000093CDE90300CDE9010007970896069499
:101E70004346012203210B9510F042F82EE013F0A7
:101E8000C9B86369002B3FF4F6AE13F07FF8F2E6B1
:101E9000284A2C48049303F2471306940295912193
:101EA0001360A7FB000301FB0731244B0793224B70
:101EB00005934FF6FF730992022703930BAE18A305
:101EC000D3E900230B970896FEF7CEFF4346CDE9F2
:101ED00000503A462846032110F02EF8314611F002
:101EE00091F80028CDD194F85E300120034384F8A6
:101EF0005E3019F071FE0020BEE61220BCE613F041
:101F000045F80320B8E605F18000C5F88800E0E652
:101F1000484610F0E9FF0720AEE600BFAFF30080AF
:101F20008D49FD1A07000000402D002000CA9A3B91
:101F30008C49FD1A342D0020F15101009522010039
:101F4000DD4C0100002AE784504610F0D9FF4846D6
:101F500010F0CAFFDFE700BF70B5037E8AB0C3F39D
:101F600042030D46044601210DF1230016468DF86B
:101F700023300EF033FE71780246284613F0FAF84B
:101F80001F49204AA0FB0131981841F107011AA30B
:101F9000D3E90023FEF768FF63689842054621D223
:101FA0001B1A00220192184A0293184BA21AA3FB93
:101FB00002320221520900230A4409AE0991144950
:101FC0000591CDE903330321D2B20696009318465A
:101FD00010F012F8314611F015F838B9656000209C
:101FE0000AB070BDFBD9C21A0023DBE70C200AB08F
:101FF00070BD00BFAFF300808D49FD1A07000000DF
:1020000000CA9A3B8C49FD1A402D00204FECC44E6B
:1020100095220100000000002DE9F04F06468DB02A
:102020008A4601200221994615461CF02BFF00220A
:102030000B90022101200EF085FC3B494FF4D07239
:1020400030460EF00FFCC71C384B0093FFB20196D0
:102050004B463A460121002010F028F810F0FD0F01
:102060000ED0334A3349344840F68F0326F07CFBC8
:10207000002383F31188BFF36F8F0323184602DF19
:102080002E4CA5FB044526A3D3E900232046294670
:10209000FEF7EAFE0896069673680493284B20F034
:1020A0007F48A8FB0331E01A264B07934FF0070245
:1020B000254B059302FB08114FF6FE7365EB0101FA
:1020C00003934FF47A720023FEF7CEFE4FF0000B1D
:1020D000CDE90180CDF800A04B463A460121584693
:1020E0000FF00EFF10F0FD0F0DD0114A11491248EC
:1020F00040F6A40326F038FB8BF31188BFF36F8FF3
:102100000323184602DF0B9B13B90DB0BDE8F08F17
:102110000122022110460DB0BDE8F04F0EF012BCB6
:102120008D49FD1A0700000080170020915B010017
:1021300010FF0200D4FF020084F8020000CA9A3B9C
:102140008D49FD1A315B010025B00100000000003F
:102150002DE9F0418468A28C4FF6FF739A428CB04F
:1021600045D00546204616F03DF92B7D012B00F0A9
:102170002281022B00F01581002B00F0F48094F8EE
:102180005061002E40F010812B8AE78D94F93720A2
:10219000CDE90A6673B3002AC0F25A810023A4F87D
:1021A0008A31AA7CA38DFD1802F003030135012BAF
:1021B000ADB23BD0B4F88E31002B00F005819D42CA
:1021C00080F059815B1B9BB20022062BA4F88E3154
:1021D000E28540F2F68094F937309342C0F25081A4
:1021E000002326E09DF82710204614F099F80CB043
:1021F000BDE8F081002AB8BF84F87561A38DAA7C80
:10220000FD1802F003030135012BADB20ED0B4F876
:102210008A31002BCED0AB4240F23C815B1BA4F84C
:102220008A31B4F88E31002BC9D102E00023A4F822
:102230008E3194F83C2063F3820284F83C202946D6
:102240000DF12702204615F06BFE7430CAD0B4F8A9
:1022500088312BB1AB4240F2EC805B1BA4F8883193
:10226000B4F884312BB1AB4240F2DA805B1BA4F8A6
:102270008431E58D16B9AF4200F0C9800135ADB2A9
:1022800094F8D13013F0010731D1DDE90A130A4681
:10229000002B40F0CC80002900F0BB801F46184680
:1022A000A28C24690694CDE9035603329A4D02901C
:1022B000CDE90017D2B20121002005950FF09CFE58
:1022C00010F0FD0F93D010F0C7FE84428FD0934AD8
:1022D000934994484FF4AE6326F046FA002383F303
:1022E0001188BFF36F8F0323184602DF7FE794F94D
:1022F00037206FF30003002A84F8D1307FDB94F895
:102300007600C0F3C00100F007001AF025FCB4F815
:102310006E20B4F86C301344E28B03F23F13134485
:102320000344814A81480721E3FB0021104678A33A
:10233000D3E90023FEF798FDDDE90A1320F07F4280
:1023400060686260904235BF171A801A002000272B
:102350000A46002BA4D157EA010CA1D1002858D07D
:1023600019461F469CE794F88E3003F01803182B8B
:102370007FF405AF218DB4F886218B1D9A42C4BF2E
:10238000931F5B1AB4F88211CCBF9BB213469942DB
:1023900000F09C80A4F88231A4F88431A4F888214C
:1023A000EDE63D2684F85061314620460CB0BDE88C
:1023B000F04113F0B5BF0023A4F88831A4F88431AC
:1023C000DDE60126334634E7E28C052A97BF013269
:1023D00040F2E2434FF4FA7392B203FB02F2B4F814
:1023E0008C3142F2107101FB0323013BB3FBF2F38A
:1023F0009BB2A4F88E31002B7FF4E1AE19E794F87C
:102400007700012100F007001AF0A8FB7FE73546AE
:1024100036E7002D43D00027114638463B463FE7BC
:102420000023A4F88431204615F01CFE21E738462D
:1024300036E710F0A5FD0146A0B30023A4F88831CB
:10244000A38CC3801B230371006810F06BFD07E7AA
:1024500094F875316BB3013B84F8753104F1D408FD
:10246000404615F03BFBB8B3404615F037FBB8B318
:102470000023E38592E60821204613F051FFB6E6DB
:10248000A7B9D4F878315A0813F0010336D1C4F84B
:102490007821A5E63E21204613F042FFA7E6002E54
:1024A000B9D1A4E60123A4F88831D9E61346012660
:1024B000BFE60AAA0BA92846FFF75AFBDDE90A2363
:1024C0001343CBD0237884F87531C7E7B4F888116B
:1024D00000297FF454AE5FE7FF2013F0E3FEC3E76B
:1024E0000246D4E91E010EF0F5F90028C0D194F897
:1024F0003C301B0744BF238DE3854FE642F000428A
:102500001E46C4F878213B4693E600BFAFF3008037
:102510008D49FD1A07000000ED5A010010FF02006E
:102520005000030084F802008C49FD1A00CA9A3B4F
:102530002DE9F04F89B0CDE90623BDF84C20037892
:102540000392BDF85020BDF848B0BDF85480068E07
:10255000029104460492002B00F0C780013EB6B2FF
:1025600094F87600A6EB08039DB2C0F3C001D4F83E
:102570000C31059500F0070001931AF0EDFAE78C95
:10258000052F40F2AA8017FB05F7BFB240F2E249DF
:10259000BBF1050F40F29580B4F86E20B4F86C30B2
:1025A000134403F2D51303447B4A7C480721E3FB21
:1025B00000214FF09613E36196231046238474A301
:1025C000D3E90023FEF750FC5D4620F07F4040F247
:1025D000E24303FB05F509FB07F1B1FBF5F71FFA31
:1025E00087FA606005FB0AF0814257465AD2401ACA
:1025F0006A4967A3D3E90023A0FB0101FEF734FC7D
:10260000019B20F07F499944638DB4F81421134451
:10261000984494F83730A8EB06084744DB096785EF
:102620006AD15F4A5F49604840F6581326F09CF82B
:10263000002787F31188BFF36F8F0323184602DF4B
:102640002E46039B2385049BA4F88C312946204603
:10265000A4F826B015F0A0FC544B218D2B44881D06
:10266000B3FBF5F39AB29042A4F8862104D2C1F5E7
:102670007F41FA310A4492B2029BA4F8822113B13D
:102680000023A4F88E314B46324639462046FFF7E8
:10269000C3FC94F8803143F0010384F8803109B021
:1026A000BDE8F08F091A3D4839A3D3E90023A1FB07
:1026B0000001FEF7D9FB019B20F07F49A3EB09093C
:1026C000A2E74FF096130BF10105E36196232384F3
:1026D000ADB20A204FF4FA737BE7059B013717FB75
:1026E00003F7BFB24FF4FA7952E7438D1E44B0F8B6
:1026F00014311E44B6B233E7226C0599A36C274F00
:1027000002FB1133A3641AF05FFC064694F87401CF
:10271000C0F342001AF05AFC064405FB06F6244BAF
:1027200006F5742606F23F26A3FB0636B60CA36C0C
:1027300026640AFB06F06A080344963A934228BFCF
:102740001346C4E91123069B40F2E24808FB03F359
:1027500023650023A0FB0701C4F87C310CA3D3E957
:102760000023FEF781FB134B079AA9EB0009A3FB9B
:102770000230800A08FB00F0A0FB070104A3D3E9A4
:102780000023FEF771FBAE1B20F07F4759E700BF27
:102790008D49FD1A070000008C49FD1A00CA9A3BBA
:1027A00010FF02005CF9020084F802007FC3C90137
:1027B00083DE1B435917B7D12DE9F04F0B6891F811
:1027C0001180D3F80090037F176895B00446C3F3D7
:1027D0008013D0F81E008DF83F30B8F1FF0F638CE6
:1027E00012900E461546ADF84C300DF1480A4DD109
:1027F0009AE803001090ADF844102346E28D53F898
:102800002EBB9B78AB722A81D4F82A306B60D4F847
:102810003A30C5F8223005F1220094F83E300371B9
:1028200005210EF0DBF995F8273000F03F0060F34A
:10283000050385F8273094F83F30C3F3040285F888
:102840002820A28EEA82012803F01F0392B205D944
:102850001B3303F01F030B2B00D81ABB0022C9F84F
:10286000082095F82C3062F3000385F82C30E568D9
:10287000012658462146267110F048FB28682E7123
:10288000294610F04FFB15B0BDE8F08F10AA0DF1EE
:102890003F01404618F0D2FE9DF83F3002338DF8DC
:1028A0003F30AAE7336800215960E38EEA8A2B8320
:1028B00040F2E24303FB02F20B92638E0D93384623
:1028C00015F07EFB94F83F2097F87411520962F3DB
:1028D000430187F874111AF077FB0C9097F8740194
:1028E000C0F342001AF072FB0C9A0B99104401FBE2
:1028F00000F0BB4A00F5742000F23F20A2FB00204C
:102900004A08800C963A28636A6394F8312040F2B2
:10291000E24302FB03F36B64238FA7F88C31384644
:1029200015F03AFB0B99AF4BAF4AC7F890210B4417
:10293000B3FBF1F39AB2A7F88621298B881D824256
:1029400004DDC1F57F41FA310A4492B2A7F8822131
:102950006B68C7F87831234613F81C2FC2F3401276
:102960000C92DA0700F1FA804FF48073A38399F890
:102970001A0019F0D9FB04F12B03002800F0EA80BB
:10298000626AC4F82B20228D9A80B8F1FF0F00F004
:102990000881BAF804301298A4F82930C4F8250048
:1029A0009DF83F30A3771098BDF84430C4F81F005D
:1029B000A4F82330EB8A63862B8BA386B7F88C317F
:1029C000E38697F87431C3F3420384F8383038460D
:1029D00013F01AF9A882E08021465846746810F076
:1029E00095FAAB8AE3801C2323710C9BD4F80080FA
:1029F000002B40F0CA800C9B23772146404610F004
:102A000091FA95F86700B5F85C80B5F85E40012151
:102A100000F007001AF0A2F8444404F2D514031998
:102A20008046724C72480721E3FB04014FF0961375
:102A3000C5E9033368A3D3E90023FEF715FA20F0B4
:102A40007F4078600B9B2D6B0D995D1BF36840F206
:102A5000E24202FB013303F2B3410022A1EB08087A
:102A6000012002210DF06EFF484612F083FD024660
:102A7000A8FB0401144658A3D3E90023FEF7F4F998
:102A8000CDF80490B3685B49009120F07F4AA21C06
:102A90003A3BD2B25344012100200FF007FB01283A
:102AA00000F0858099F81830DB0766D4384613F0BB
:102AB000ABF84E4BA5FB0398044647A3D3E900238C
:102AC00048464146FEF7D0F94B4BB6684B4A079251
:102AD00020F07F45A5FB0331B9EB0300484B05937C
:102AE00040F2E313069708937B684FF0000BCDE9A3
:102AF00003B34FF0070303FB051168EB01014FF42B
:102B00007A720023FEF7B0F903343A3EE4B2CDE91D
:102B10000150CDF800A033462246012158460FF05F
:102B2000EFF910F0FD0F0DD0364A374937484FF412
:102B3000F27325F019FE8BF31188BFF36F8F032317
:102B4000184602DF0122022110460DF0FBFE15B0EF
:102B5000BDE8F08FC4F82B00988016E7294A2C496D
:102B60002A48FD2325F000FE002383F31188BFF3DC
:102B70006F8F0323184602DFF6E60023012200933D
:102B8000184611460FF050FA90E795F8273043F0B9
:102B9000400385F82730281D18F05AFB01232885AB
:102BA0002AE70022C4F82520A4F82920F8E610F02E
:102BB00053FA81453FF476AF124A1649134840F262
:102BC0008B2325F0D1FD002383F31188BFF36F8F92
:102BD0000323184602DF65E78D49FD1A0700000050
:102BE00083DE1B437FC3C901404B4C0000CA9A3BA4
:102BF0008C49FD1AE5AF01008D49FD1AB1AF010006
:102C000025B0010044050300D4FF020084F802004F
:102C100084FC0200A0050300F0B5C468636883B0BB
:102C20000546002B64D11BF09DFC00201BF0C0FC6E
:102C3000002108461BF0AEFC0022252108201BF0D5
:102C4000EBFC474B019301A81BF0D2FC454940F235
:102C50005B601BF08DFD237AC3F3420262F306131F
:102C6000204623721AF0CEFB19F03AFB58BB637A68
:102C70009B071FD127682E68384619F015FF0644B8
:102C80006A6806F1090101201BF0BAFE1BF078FF0B
:102C9000204612F07BFC811C3246C9B2384619F03E
:102CA00005FF054678BB204619F0A6FE88B900202E
:102CB00003B0F0BD012018F083FF4178821C00783A
:102CC0001BF03EFED6E7607A10F0030018BF01202B
:102CD000F1E7254A2549264840F2294325F044FDDD
:102CE00085F31188BFF36F8F0323184602DFDEE7F9
:102CF00093F82C309A0796D01E4821461BF0F0FB23
:102D00001BF0D6FCD3E7184A1B49194840F211437F
:102D100025F02AFD194B0721A5FB030301FB053113
:102D20000DA3D3E90023FEF79FF815490246154885
:102D300025F01AFD002585F31188BFF36F8F03235B
:102D4000184602DF104821461BF0CAFB1BF0B0FCFE
:102D50006FF08B00ACE700BF00CA9A3B0000000098
:102D6000D6BE898E55555500C009030058FA020099
:102D700084F802003DCC01005CF902008D49FD1A87
:102D8000700A0300440A0300D9CF010000000000CC
:102D90002DE9F041C468A28A4FF6FF739A4282B0CF
:102DA00000F0DF8005461AF071FE2B89628B208CC3
:102DB000A3831A4492B2104494F82730E28380B27D
:102DC000411C21845E064FF00001618304F1220161
:102DD00000F1A18003F03F000B4694F8281000900A
:102DE00004F1290018F0ECF90646D4E90C31A28B65
:102DF00002FB0333A26B1344E26B8B4294BFD218E5
:102E000052188A4228BF0A46E263616C226C94F829
:102E100067301144616494F87E2094F82C10C3F359
:102E2000020363F3061112F004024FF0000384F86A
:102E30002C10A363236478D01BF094FB00201BF0BC
:102E4000B7FB201D1BF0D4FB2389A17A40F25B6005
:102E500043EA01411BF08CFC304619F039FE214653
:102E600059481BF03DFBA0891BF0BEFD94F866207D
:102E700094F86700C2F3C003002102F0070200F0DB
:102E800007001BF0DBFC20461AF0AAFE27682E681C
:102E9000384619F009FE06446A6806F10901002067
:102EA0001BF0AEFD80461BF03FFE00201BF056FEDF
:102EB000E36B94F8670003F12F02636C00F00700E6
:102EC000012103EB42051BF0E5FB4544054494F862
:102ED000670000F00700022825D004280CBF4FF43B
:102EE000BC73282301211D441BF0D6FB28441BF092
:102EF0000DFEA18A03313246C9B2384619F0D6FD1B
:102F00000546002834D1204619F076FDD0B90020BE
:102F100002B0BDE8F0810A4603F03F03218D18F0AE
:102F20009BF9064661E71823DCE7D4E91A010DF0A6
:102F3000D1FC002880D194F87E3043F0040384F85B
:102F40007E3079E7214A224922484FF4B07325F0B8
:102F50000BFC85F31188BFF36F8F0323184602DF44
:102F6000D5E71D4821461BF0BBFA1BF0A1FBCEE7BD
:102F7000164A1A4917484FF4AB7325F0F5FB184B66
:102F80000721A5FB030301FB05310DA3D3E90023B2
:102F9000FDF76AFF13490246134825F0E5FB0025BB
:102FA00085F31188BFF36F8F0323184602DF0F48A4
:102FB00021461BF095FA1BF07BFB6FF08B00A7E717
:102FC00000CA9A3B0000000059DE0100FC0A030021
:102FD00058FA020084F802003DCC01005CF90200BE
:102FE0008D49FD1A500B0300440A030019CC01005F
:102FF00007B50B46044800920321044A26F0B3F8B3
:1030000003B05DF804FB00BFD4EC02004E190300CE
:1030100080B50D4A0D4B00AF8AB0012918BF134689
:103020006A460B48D161C2E905034FF4007313846B
:10303000084B42F8103F084800234FF4135102F0A8
:10304000BDF9BD4680BD00BF7A1903006F190300AA
:103050008719030004000001D4EC020010B5074CEE
:103060000748084A0B46032124F05FFE206818B188
:1030700008F062F90023236010BD00BF581C002037
:10308000D4EC0200B019030008B527F09EF8044BF9
:10309000044A1860BDE808400348032124F047BEF5
:1030A000581C0020CD190300D4EC02000B4621B1BE
:1030B000034A0448012124F038BEFFF7E5BF00BFF2
:1030C000D7190300D4EC02002DE9F04FDFF8F4B07B
:1030D00089B04FF07E5A00AFDBF8000000286AD0BC
:1030E00027F073F8384D06462868FDF721FAE846C0
:1030F00088B06C462246354B63614FF00409C4E941
:10310000060142F8109F32487A6000234FF40351C1
:1031100002F054F9C546A5462E4B63612E4BA361C0
:103120004FF40073A3832D4B23612D497A682848FF
:103130002B4602F043F91822C546002107F108008A
:103140002BF0FCF8274BA7F8149007F10801304644
:10315000C7E903350BF09CF90446C8B10346224A7F
:103160001B48012124F0E1FD51462868FDF7D8FCF9
:103170001E490446FDF748FE00B1544630462C6017
:1031800008F0DAF84FF42030002124F0D2FDA3E754
:103190002868FDF7CDF988B06A46154B5361C2E93E
:1031A000060142F8109F0A4823464FF4035102F0EB
:1031B00005F9C546D8E70F4A0548032124F0B7FDB5
:1031C000E0E700BF581C0020B8020020F6190300F9
:1031D000D4EC020065300300141A03000300000160
:1031E000C01C4000ACF00200231A03000000C842DB
:1031F0003A1A0300591A030008B530B9BDE808406F
:10320000034A0448012124F092BDFEF709F800BFEB
:10321000D01C0300D4EC0200F0B5894A89488FB075
:10322000032124F084FD0020089002F0C3FF034630
:1032300050B9854C089B73B1002006F0EFF80446A6
:10324000B0B1824A034600E0814A7E48012124F061
:103250006CFD0FB0F0BDA3689B6C1BB108AA0421E4
:103260002046984740F6CD40002124F062FDE1E77A
:10327000784A7448032124F05AFD77480AF000FD8B
:103280001422214609A82BF059F80922A023CDE9E0
:103290000A23F0230C93714900942346022209A8C3
:1032A00007F084FA034680B16D4A6648012124F094
:1032B0003CFD6C486C4C21F043FF206058B96B4AD0
:1032C0006048012124F033FDC3E7694A5D480321CA
:1032D00024F02DFDEDE7674860602AF0E3FA08B9B5
:1032E000654AEDE76548654D214624F073FD0346C8
:1032F00008B1634AA9E7284600F02AF9034620B13D
:10330000604A5048012124F010FD5F4A4D480321D6
:1033100024F00DFD594824F00DFF034620B1594A11
:103320004848012124F001FD4220002124F001FD44
:10333000524C204624F04EFE0028FAD0534A414811
:10334000032124F0F4FC4D48002100F081FA013003
:1033500005D14F4A3B48012124F0E9FCFEE73948FA
:103360004C4A032124F0E3FC4B49444800F042FC62
:1033700088B14A4A33484A4D324C012124F0D7FCE7
:1033800020462A46012124F0D2FC4FF400400021BF
:1033900024F0CFFCF4E7434A2A48032124F0C7FC79
:1033A0004149364800F0B4FE404A2648032124F043
:1033B000BEFC324809A900F0A9F8034600283BD01A
:1033C0003B4A01211F4824F0B0FC3A4A1D48032122
:1033D00024F0ADFC384A1B48032124F0A8FC002649
:1033E000002700240523CDE90334CDE90667334BDC
:1033F00033490094CDE901444FF48062314822F012
:10340000FDFC314A0F48032124F091FC0323CDE950
:103410000243CDE90667CDE900542C4B2C492D48D9
:1034200004944FF4806222F0E9FC4FF0FF304FF03B
:10343000FF3124F07EFCF8E7099B274A0321C1E70E
:10344000F51C0300D4EC02002CE80200271D030049
:103450000E1D0300461D0300BC02002088F0020080
:103460005C1D0300951D0300FC0200209B1D030052
:10347000811D03000CE80200B61D03005C1C002047
:10348000CD1D0300E51D0300051E03001D1E0300E6
:103490002B1E0300371E0300C0070020471E030039
:1034A000551E0300631E0300F00200206F1E030080
:1034B0007E1E0300B21E0300C21E0300C9300000BE
:1034C00000510020C00B0020DA1E0300F93100007B
:1034D00040550020400C0020A01E03000A48002296
:1034E000D3B2082113F0800F4FEA430318BF83F0D3
:1034F00031030139DBB2F5D10132B2F5807F00F83A
:10350000013BEDD1704700BF3F4E002030B50C4667
:1035100085B00546B8B1B1B10C4BD3F80300DB79E7
:103520008DF804300023009002938DF80C3002AA2D
:1035300005236946284624F01EFC10B9DDF8093041
:10354000236005B030BD6FF01500FAE7A4ED02006E
:1035500010B5044610B96FF0150010BD0368002BBC
:10356000F9D0186824F003FC0028F4D02368034A3B
:10357000DA604FF480721A820020EEE700127A00BF
:1035800010B5044610B96FF0150010BD0368002B8C
:10359000F9D0186824F0EBFB0028F4D02368034A24
:1035A000DA604FF480721A820020EEE780841E00F9
:1035B00030B5064D0446002310468B4200DB30BD7B
:1035C000E25C42400133A85CF7E700BF3F4E0020B9
:1035D0002DE9F0431E4685B00A44B6F5445FC2F3B8
:1035E0000445DDF83080BDF8343007460C4602F063
:1035F0007F0201D326F021F883F40040032801D98B
:10360000002BF7D1910041EA452143EA010503F07F
:10361000030C2D0A4CEA01018DF80C508DF80D10A9
:103620004EB9B3F5004FE5D1640064F07E048DF827
:103630000C4001240BE012BBB3F5004FF9D07BB373
:1036400045F040058DF80C50032852D80224294B30
:103650001B7DE3B10022214603A8FFF7A9FF3146F5
:1036600002464046FFF7A4FF3346CDE9008003AA97
:103670002146384624F01FFC05B0BDE8F08345F034
:1036800040058DF80C50002BDED1022509E0CDF865
:103690000080334603AA2146384624F03BFCEBE782
:1036A0000125DFF85090CDF80080334603AA294663
:1036B000384624F0D2FB99F81430022BDCD1182CB8
:1036C000DAD00022294603A8FFF772FF31460246EE
:1036D0004046FFF76DFF002204461821384624F0CB
:1036E00081FC8442C8D0D9F82430002BC4D098473C
:1036F000C2E7FEE76C1E002013B54FF4C0730093C1
:1037000009494FF0FF330022044624F02BFC074BFD
:1037100007491B7A009300224FF6E073204624F0FD
:1037200021FC02B010BD00BF08000B006C1E002081
:103730001F0011002DE9FF41054620B96FF015006B
:1037400004B0BDE8F0810368002BF7D0186824F0BE
:103750000EFB0028F2D0214B98681B7B8DF80430BB
:103760000023009002938DF80C302AF0E7FC4FF410
:103770007A77A0FB070607FB0166C40B44EA4644C0
:10378000B846F60B2AF0DAFCA0FB080307FB013170
:10379000C30B43EA41431B1B4FEAD13161EB0601E6
:1037A000B3F5FA6F71F1000102DB4FF0FF30C7E7AC
:1037B000052302AA6946284624F0DDFA18B14FF025
:1037C000FF30A860BCE7DDF80930AB60DB07B7D499
:1037D0002120002124F0CDFAD4E700BFA4ED02009F
:1037E000052907B50AD14023009307496FF4005318
:1037F000002224F017FC03B05DF804FB0929FAD17C
:103800004FF40153F0E700BF08000B0070B50D4EF8
:1038100004460D4601233146002224F029FC2B46A4
:1038200020460949002224F023FC3146204600228C
:10383000022324F01DFC20460449BDE8704000220C
:1038400024F0ACBB08000B0004000B0010000B00C0
:103850002DE9F041374C002302220E460421C4E931
:103860000A33C4E90C33C4E90E330546E3732282FC
:10387000A3826381FFF7CAFF052180462846FFF730
:10388000C5FF0A2107462846FFF7C0FFC0F30440E2
:103890002072B8F1000F04D01FB110B12846FFF715
:1038A0002BFF20212846FFF7B1FF234BC71A784290
:1038B0007841F306607204D506212846FFF7A6FF7B
:1038C0002060B10604D507212846FFF79FFF6060FE
:1038D000720604D508212846FFF798FFA072330628
:1038E00004D509212846FFF791FFE0720023C4E9BF
:1038F000063384F82030E37A0BB98523E372A37A88
:103900000BB97423A3721F212846FFF77FFF1E21E6
:1039100060732846FFF77AFF10F07F0308BF2E235D
:1039200028460649A373002224F096FB0020BDE838
:10393000F08100BF6C1E002040020010140009003E
:1039400002494FF40073002224F092BB04001100DE
:10395000012937B504460D460AD1FFF7F1FF00955E
:10396000FF232A461E49204624F049FB03B030BD00
:1039700002291ED1032300931A49FF23002224F0B9
:103980003EFB4FF400030093204615496FF480730B
:10399000002224F047FB00230093204610497F2398
:1039A0002A4624F02CFB204603B0BDE83040FFF748
:1039B000C7BF012300930022FF232B2124F01FFB0C
:1039C0004FF40003009300226FF4807304492046F3
:1039D00024F028FB0023009302227F23C2E700BFCC
:1039E000080011000400110073B5284B2849294E26
:1039F0000022044624F0BBFB102300932449FF233C
:103A00000022204624F0FBFA0325142022F092FC29
:103A100000223146204624F0E5FA012833D0013D4A
:103A200015F0FF05F1D1012500231A46204618495B
:103A300024F012FB204617490123002224F00CFB3E
:103A4000012300932046FF231149022224F0D7FAD4
:103A500011490022204624F0A1FA6FF060439842F9
:103A60000E494FF00002204614BF6D424FF0FF3563
:103A700024F094FA6FF06043984214BF28464FF048
:103A8000FF3002B070BD0025CEE700BF010002008C
:103A90000C00040020000400140004001C000400BA
:103AA000012973B5044604D002B0BDE87040FFF7A9
:103AB0009BBF0E49002224F081FA40F205130B4906
:103AC000009306464FF6FF730022204624F04AFA80
:103AD0002046FFF789FF0022054604490092204650
:103AE000334624F03FFA284602B070BD4800070074
:103AF00005292DE9F047044640D1264D264E274F93
:103B0000DFF89C80DFF89C90DFF89CA0274B2849C9
:103B10002046002224F02BFB534620462549002254
:103B200024F025FB4B4620462349002224F01FFBAE
:103B3000434620462149002224F019FB3B462046FB
:103B40001F49002224F013FB334620461D49002262
:103B500024F00DFB2B4620461B49002224F007FBD6
:103B600020461A4B1A49002224F001FB2046194B2B
:103B70001949BDE8F047002224F0F9BA174D184F53
:103B8000DFF86080DFF86090DFF860A0184B2E4609
:103B9000BDE700BFF5CF0100B5CF010036CF010072
:103BA0007EC70100BEC601003EC40100FDC0010089
:103BB000380003003C000300400003004400030001
:103BC000480003004C0003005000030040020010B6
:103BD0001C00030089A46D1B20000300B5AF020088
:103BE0007DAF02003EAF0200FEA5020036AC02002F
:103BF000FEA802002DE9F04F0B7991F80080182BF8
:103C000085B004460D4600F21E8191F803B0BBF169
:103C1000180F94BF4FF0000B4FF0010BEA796B784F
:103C2000C54E511E013B4A42DBB24A41062B9CBFA6
:103C3000C24931F91390338A23F0E0033382697B60
:103C4000EB79337301F102014FF0010707FA01F735
:103C50001FFA87FA4FEACA0A4FEA0212504688BF93
:103C60004FF480790392FDF70BF8B549FCF748FA59
:103C7000FDF7D4F87082297B71752B7A039A5B016A
:103C8000090301F4304103F020030B43A97B43EA0D
:103C90000143134300930022AA4B1021204624F035
:103CA000C1F9BBF1000F00F0D180338AA64943F07F
:103CB000600333824FF44063009300226FF4C053DB
:103CC000204624F0AFF9A14940F2063300222046F5
:103CD00024F04DFA00231A464FF00E11204624F02E
:103CE00046FA9B4B9B490022204624F040FA9A4911
:103CF0007D230022204624F0AFF9AB780093002208
:103D0000FC234FF4C021204624F079F97B1E4FF4A8
:103D100000310022DBB2204624F09EF96B78072B9D
:103D20000CBF08210021204624F02CFA2B7B8B4964
:103D300003F00303032B0CBF894B8A4B0022204660
:103D400024F015FA88490022204624F027F92B791F
:103D5000EA7885491B02D200D2B203F4F853134328
:103D60006A7920F4FF50520020F01F00B8F1090FCB
:103D700002F0060208BF40F0010013430343002293
:103D8000204624F0F4F96B78AA791B0343EA8223D6
:103D9000009300226FF474432421204624F042F95A
:103DA0006B890BB981236B816B8902224FF4C0218F
:103DB000204624F05DF9B8F1090F40F083806B4B89
:103DC0006B490022204624F0D2F940F63C730022D1
:103DD0004FF41021204624F04BF9664B664900222F
:103DE000204624F0C4F9654914230122204624F01A
:103DF00033F963490E230222204624F02DF961494C
:103E000081230022204624F027F9022300224421A6
:103E1000204624F021F901212046FFF799FD0627CD
:103E2000142022F087FA00224421204624F0DAF8F8
:103E3000830774D4013F17F0FF07F1D14FF0FF3033
:103E400005B0BDE8F08F4FF0010BE7E62B7B23B305
:103E50006A7B4D4B3F4933F81220AB7B012B9BBF54
:103E60004FF43563534313019A0C8CBFC3F30A0319
:103E7000C3F3CA1303F5806388BFD209B3F5006F9B
:103E800028BF013292B202F07F0200924FF6807397
:103E900002222046D14424F065F8B9F1FF0FC8BFD3
:103EA000338A2949C5BF43F0200333824FF4A0531E
:103EB0004FF48063009300226FF4C053204624F037
:103EC000B1F81AE72046314B2949002224F04FF976
:103ED00041F63C7300224FF41021204624F0C8F82C
:103EE00081E7737A012B15D14FFA88F12046FFF74D
:103EF00077FC4FF4C8430093254948F2FF13002292
:103F0000204624F02FF80121204605B0BDE8F04FEF
:103F1000FFF7C6BD41462046FFF7EAFDE9E72B79EA
:103F2000093B0F2BDDD9002219490092FE232046C0
:103F300024F065F8E7E700BF6C1E0020201803009E
:103F40006666663FCF4FFCFF08000B000C000E00BA
:103F50000A5A0C0012000E0016000E000C0006009B
:103F6000CC355FAF4C585FAF140001003400011C2A
:103F70001C00070033A8B508100007005000070018
:103F800018000700080009002E1803003411071C50
:103F900018000300002302491A4624F0E8B800BFC5
:103FA00004000700002370B51A460D460A4904466E
:103FB00024F0DDF800231A464FF4E021204624F0D7
:103FC000D6F845B120460549BDE870404FF0E053B2
:103FD000002224F0CCB870BD480007001400070090
:103FE000052907B50AD1074B009307494FF0FF3366
:103FF000002224F017F803B05DF804FB0929FAD178
:10400000024BF1E7003C000204000700001C000224
:1040100073B54FF008230E4615461549009300224C
:104020004FF0FF33044623F0FDFF4FF060131049BB
:10403000009300224FF0FF33204623F0F3FF052EBC
:104040000CBF0C4B0C4B009300224FF0FF334FF48E
:10405000E021204623F0E6FF45B1084B0849002245
:10406000204602B0BDE8704024F081B802B070BDB7
:1040700048000700003C0002001C00020011010182
:104080001400070073B541F6220304460E46154698
:104090001B49002223F0ECFF002229462046FFF7AF
:1040A000B7FF29462046FFF79BFFC6F30B031549D0
:1040B000154E0022204623F0DBFF03230093124914
:1040C000FF230022204623F09AFF0022314620469B
:1040D00023F088FF10F00105F7D12046FFF75AFFC3
:1040E00029462046FFF75EFF2046FFF729FC0749D7
:1040F0002A46204623F076FF00F03F0002B070BD54
:10410000040011001C000800100008001C0007003B
:1041100070B50A8905460C465AB90B780C4923F04C
:104120009BFF63680B4928460022BDE8704024F0DD
:104130001EB80022084923F055FF10F0010F218915
:1041400014BF092205222846FFF79CFFE9E700BFBC
:104150001C0007000C00010014000100F7B51C460C
:104160000B44B3F5806F06460D4617461DDA7F2CCB
:1041700009D800920B4622464FF4A01123F062FFAB
:10418000002003B0F0BD0A491423002223F0EFFF02
:10419000084923460022304623F0E9FF00972B46CA
:1041A00000224FF4E8113046E8E74FF0FF30E8E72F
:1041B00004001F0008001F007F2A13B5044641EACF
:1041C000C32109D841EA024100910C4B002224216D
:1041D00023F028FF02B010BD803241EA0241009175
:1041E000064B0022242123F01DFF00224FF4002162
:1041F000204602B0BDE8104023F0F4BE00F400FCFD
:10420000F7B50B460546002838D011F01D0701F020
:1042100002047CD011F0010238D094B30023009343
:104220001A460D2123F00EFF03224421284623F0D5
:10423000D9FE0446494A03460321494824F089FF30
:1042400014F008045BD147492246284623F0A6FE15
:104250000646454A03460321414824F07AFFB6F555
:10426000502F44D1414A3E48012124F069FF009477
:1042700023461A461946284623F0E4FE4FF0FF3045
:104280003BE00094234622460321CBE711F00807C8
:1042900009D01CB1009213460F21C3E700942346B6
:1042A00022460721BEE711F0100610D0304A2C48F4
:1042B000032124F04EFF2CB100973B463A460E21D5
:1042C0002846AFE70094234622460521F8E7294A0D
:1042D0002348032124F03DFF24B1009633463246A3
:1042E0001021EDE70094234622460921E8E7224AFF
:1042F0001B48032124F024FF002003B0F0BD1F4A17
:104300001748012124F01CFF00230093B1E711F0AE
:10431000200612D01A4A1248032124F01AFF3CB199
:1043200000973B463A461121284623F08BFEE3E7EF
:104330000094234622460B21F6E7124A084803213F
:1043400024F007FF24B10096334632460C21EBE7F8
:104350000094234622460121E6E700BFA41F030084
:104360009CEC020030000F00C71F0300E91F030090
:10437000261F0300641F03001A20030040200300CF
:10438000732003009E200300F7B51C46154BDB7B12
:10439000032B04EB02030F4614BF4FF490114FF4AC
:1043A0009811B3F5806F0646154606DA7F2C06D8BD
:1043B00013460097224623F0E8FD03B0F0BD0B0C36
:1043C0000022094923F0D3FE084923460022304643
:1043D00023F0CDFE00972B4600224FF4E811304623
:1043E000E9E700BF6C1E002004001F0008001F004A
:1043F0000B460022014923F03BBE00BF0400010030
:1044000070B5094E0C4600223146054623F0C6FD24
:10441000000D0005C4F31303034331462846002270
:10442000BDE8704023F0A3BE0800010070B5002273
:104430000C464FF4A021054623F0B0FD0A4B034083
:10444000E00748BF43F48023A10748BF43F410436B
:104450006207284648BF43F01203BDE870400022BF
:104460004FF4A02123F083BEC00FE0FF07B50C4B33
:10447000DB7B0091012B0BD0032B4FF005030BD1FD
:1044800004224FF4F01123F080FD03B05DF804FB2B
:10449000044905230022F6E700226421F3E700BF68
:1044A0006C1E0020040018002DE9F04F91B0840725
:1044B000009302F004030293C2F3C20303F1010369
:1044C000DDF86880039205460E46059340F0BA81F8
:1044D000041D30B1072909D86FF01B0011B0BDE8E9
:1044E000F08F01F007063444C6F10806009B4FF038
:1044F0000009591E4FF0040A4FF0FF330193CDF825
:1045000010904F46CB4653460DB1009A2260059855
:10451000002800F3E8809848009A824203D3974825
:104520008242C0F0E080039AA4EB050E92074FEAA6
:104530009E0000F103810F2F00F2B180002D00F0EA
:10454000058107F140020DEB020C019A0CF8200CDA
:104550000CF8102C049801300490E7E07A285DD81C
:104560004B280ED8472859D829282DD8252852D08D
:1045700054D820287AD02338D0F1000B4BEB000B15
:1045800074E04C382E2849D8DFE800F070484848DD
:1045900048484848484848484B4848484848484898
:1045A0004859484B4B595959704B6D487048184BF6
:1045B000184848827F4B48484B487F0000204FF006
:1045C000000B4FF0040A38E02A38C0B2012202FA88
:1045D00000F010EA0E0F49D110F0625C2FD110EA02
:1045E000020B43D06046013C5444B4FBFAF40AFB8E
:1045F00004F4002D61D0A3EB050CA444B4453FF6B0
:104600006BAF002868D1042B47D158F8043B2360D6
:10461000043404232AE0019A013A01924FF0000B7E
:1046200024E011F8010C6C2834D111F8023C002070
:104630006C2B8346C5D14FF0080A5346D3E708F1E7
:10464000070828F007080734F8E802AB24F007044D
:1046500035B106982044B0423FF63EAFC4E900AB06
:1046600008344FF0000B4FF0080A534611F8010FC1
:10467000002878D0BBF1000F7FF470AF2528F5D16A
:10468000019B013301934FF0010B4FF0040AECE75B
:10469000584694E700208346A5E7082B02D06FF028
:1046A00015001BE708F1070828F00708F8E80223BF
:1046B000C4E9002308340823D8E768B9042B02D1E1
:1046C00008F10408A4E7082BE9D108F1070828F04D
:1046D000070808F10808EDE7059A013A059258F82D
:1046E000042B009210E7039A900720D5A4EB050E47
:1046F0004FEA9E004FF0010CBEF5007FCFD20F2F86
:10470000CDD8F5B107F140020DEB020EC0B2019A0F
:104710000EF8200C0EF8102CBCF1000F3FF41AAF6D
:1047200060F07F000EF8200C09F101090137C5F196
:104730000802043406924FF6DA7E97E74FF0000C39
:10474000DAE7BCF1000F01D00136EFE7029802363C
:104750000028EBD10098CDE90631FCF7EFFBDDE94D
:1047600006310644E2E7631BB3F5806F97D23DB98B
:10477000A6F10804E018B1E60CE70200805103003E
:10478000029A28609B082B709DF81030C2B1EB7024
:1047900085F80290B9F1000F05D008A80022C5F1F4
:1047A000010C97420ED1C5F101030DF120084FF025
:1047B000000A01930DF1300B574512D1601B8DE6B5
:1047C0006B70E5E710F8013B190608D50CEB040EF9
:1047D000B64503F07F033FF67FAE04F8013B01329C
:1047E000DFE7B9F1000F03D098F90020002A17DBAA
:1047F000029BD3B11AF80B2004F8012B0022019B75
:1048000018191044B0423FF667AE98F8000004F85B
:10481000010B00990392204629F068FD039A144485
:104820000AF1010A08F10108C6E798F8002055F8D6
:1048300022300093029B45F822300098FCF77EFB63
:10484000421CDCE76FF00D0048E600BF2DE9F04F99
:1048500097B000AF90F802A0D7F880B03B62CBF3DE
:10486000C0030446FA62BB61894641B945780078C5
:104870000AEB800020444D4517D8A0EB0409E378EB
:10488000FB61BAF1000F02D01BF0010F16D1FB69DA
:1048900053BBFB6A1BB13A6A4946204698474D46CE
:1048A00028465C37BD46BDE8F08F461C3046FCF715
:1048B00045FB0130304409F10109DCE723786268E7
:1048C0007A62FA6A9900796104EB8301002A40F068
:1048D00000814D460E4601EB0A094FF000084E4597
:1048E0004CD101EB0A0610E01BF0020FD1D0237867
:1048F0009A007A6162687A62FA6A04EB8301002A9C
:1049000077D14D4601EB0A0690461BF0050F0CBF10
:1049100002230123FB62FB6906EB430A0BF002034F
:10492000BB625645BCD016F8021B16F8013C54F881
:104930002390994B994502D3984B994536D3BB693F
:10494000002B40D0786A23F0D9FE00283BD0E946FE
:104950008AB06A46924B53617B6AC2E906314FF4D2
:10496000007313848F4B42F8103F8F4800234FF49D
:10497000125100F023FD023DCD46D2E716F8013B6F
:10498000F96254F82300FCF7D9FAD7F88430F96AB1
:1049900001304BB1D7F8883098453EBFD7F8843006
:1049A00023F8180008F10108054498E7BB6923B112
:1049B000786A23F0A3FE0028C9D11BF0010F05D1AE
:1049C000FB6AED1AADE7BB6A002BAAD04846FCF79C
:1049D000B5FAD7F8843053B1D7F8883098453FBF3F
:1049E000D7F88420431C22F8183008F10108054448
:1049F00097E7BAF1000F72D01BF0040672D0D046D0
:104A0000002607F1480052463B61B96229F06EFC6E
:104A1000B96A3B6901EB0A02BA62FA69F9695200A4
:104A2000FA60BA6A02EB41023A610BF00202BA6024
:104A30003A69B96A8A4257D162787A621BF0020FEA
:104A400032440CBF4FEA580100211BF0010FD2B2D3
:104A500040F09F801BF0040F14BF40460020BB6154
:104A60006270A070E1703A6A7969FB6A20469847E3
:104A7000051EFFF615AFBB6923707B6A6370FB6987
:104A8000E37041463A6AFB6A84F802A007F14800E5
:104A90009847B0F10008C0F2BB807B693A6AA9EB85
:104AA0000A01C91AFB68C91AD7E90A0398470028FE
:104AB000C0F2B080A84408EB00054FF0000B07F1EE
:104AC000380AB34572D300213A6AFB6A0846984710
:104AD000E6E656464FF0000807F1380093E75646E1
:104AE000D04697E7B04695E7BA6A12F8021BBA6259
:104AF00012F8015C284A54F82500904202D3274A54
:104B000090421ED3BA6932B1786A7B6023F0F6FD19
:104B10007B6800288CD1BA6802BB08F1280207F133
:104B2000300C08F10100944407F1580252FA80F069
:104B300008F102080CF8101C5FFA88F800F8105C05
:104B400076E7BA693AB1786A7B6023F0D7FD7B6873
:104B500000287FF46DAF1BF0010F09D006F1280289
:104B600007F13000711C161806F8205CCEB25FE722
:104B70001BF0040F3FF45CAF08F1280207F130008E
:104B800008F1010102EB000808F8105C5FFA81F8F7
:104B90004EE7002063E700BF0CE7020080510300EE
:104BA000DB2003000400000184EC02001BF80A3043
:104BB00087F8373054F82390D7F884302BB3D7F8E0
:104BC00088309B4521D2D7F8843033F81B803A6A6D
:104BD000FB6A012107F13700984700281ADB0544DA
:104BE000B8F1000F06D14846FCF7A8F900F101081A
:104BF0001FFA88F83A6AFB6A4146484698470028F7
:104C000008DB05440BF1010B5BE74FF00008DEE722
:104C1000454645E6054643E6014B1860704700BF30
:104C20001C03002080B505460E461746984621F025
:104C3000C3FB034629F060FDDFF81890044649F8ED
:104C40000030424630463946A84754F8090002F081
:104C500053FD00BF080000002DE9F047058B044616
:104C60002807904611D4022905F0070540F0CC80B2
:104C7000204624F00BF878B10138218B042811D894
:104C8000DFE800F0C2106D85950001290CBF45F0EA
:104C9000100545F02005258388F31188BFF36F8F39
:104CA000BDE8F08701F0070AAA4500F0A5800027BB
:104CB000B9463E46A368002B00F0BC8041F00801D5
:104CC000218388F31188BFF36F8FA168002900F05A
:104CD000BA800D68002900F0B680D1F80480334610
:104CE00052462046C047002D76D02B6829461D46E7
:104CF000F0E701F007035A1F012A1BD8002221F018
:104D00000701062B276889B2C4E9002209D13B4676
:104D100003E0628B013262831B68002BF9D141F002
:104D200002012183204623F0B1FF00287AD041F010
:104D3000200176E0042B0AD121F0070189B22183FA
:104D4000204623F0A3FF10B141F020012183218BE5
:104D500001F0070AAA454FD00027B946AAE7236900
:104D600021F0070141F00601062DD3F800902183C0
:104D70002DD1B9F1000F3FD041F00801218388F314
:104D80001188BFF36F8F3A492046C84729E021F0C8
:104D90000701236941F0040189B2042DD3F804907E
:104DA0002183E6D000273E464FF0040A82E721F037
:104DB0000701236941F0050189B2052DD3F8089058
:104DC0002183D6D000273E464FF0050A72E7002720
:104DD0003E464FF0060A6DE72B4687E7B9F1000F14
:104DE000D1D1EFF31188202383F31288BFF36F8FA3
:104DF000238B23F008032383258BEA062ED525F089
:104E00001003238305F007056669218B002EBFF68A
:104E100070AF00232768C4E9003321F0070141F097
:104E200001012183218B01F0070AAA454FF00009F7
:104E30007FF440AF002F9CD041F00801218388F31C
:104E40001188BFF36F8F002FC8D03D6839463346B5
:104E50005246204623F046FF2F46F4E7AB067FF587
:104E60001BAF25F02003238305F0070500E700BFF3
:104E7000118D02002DE9F047DFF8588004460746FF
:104E80004FF0010914B93846BDE8F08794FAA4F54B
:104E9000B5FA85F509FA05F32E0108EB05156FEA59
:104EA000030A24EA03042B7B002BEBD058F80630CE
:104EB0001B694BB94644042273682846196807EAFF
:104EC0000A0724F0CEF8DDE7284698470028D9D114
:104ED000F0E700BF34ED020030B51049104889B04A
:104EE000002229F072F90F4D0F4900220023CDE96D
:104EF000062300240E23CDE90334CDE901440B4BF6
:104F000000944FF44072284620F078FF0849284664
:104F100028F0DBFF204609B030BD00BF354F000050
:104F200058110020D00C0020805900206152000050
:104F30008F210300014820F01FBC00BF1009002092
:104F40002DE9F047804621480F4624F06AF80646CE
:104F5000002833D000252846BDE8F087237B83B1A5
:104F60002368DB680BB120469847636883F8069096
:104F700023681B69D3B9636804221968204624F0AA
:104F800070F8013610345445E8D3B8F1000FE2D080
:104F9000002DDFD02846FFF76DFF0546002FF7D024
:104FA00000214FF4A47029F042F8F1E72046984719
:104FB0000028E0D009FA06F31D43E2E7044CDFF8CD
:104FC00014A005464FF00109DDE700BFBC1E00201C
:104FD00034ED020044ED0200014B53F8200070470D
:104FE000FCF0020008B5034608462BB1044A1360E2
:104FF00000F07AFC002008BD6FF01500FBE700BF51
:105000002003002010B5044C237813B9034820F086
:10501000B3FB0123237010BD3F4F00201009002077
:1050200010B504460B4823F0FCFF5CB1BFF35B8F67
:10503000094B53E8001F013943E80012002AF8D158
:10504000BFF35B8F054829F0CCF80548BDE8104058
:1050500020F092BBB41E0020B81E00205811002082
:10506000100900200020064BBFF35B8F014653E878
:10507000000F43E80012002AF9D1BFF35B8F70479D
:10508000B41E002070B5FFF7EDFF084C084E054632
:10509000B44200D370BD63685B792BB123685B6851
:1050A00013B12946204698471034F1E734ED020049
:1050B00044ED020010B5044C0449204623F064FC82
:1050C000034B1C6010BD00BF30080020E8F0020058
:1050D000AC1E00200D4A0E48002310B513700D4A77
:1050E00013600D4A4FF400411360FFF77BFFFFF799
:1050F000E1FF0A4B0A4918468B4200D310BD1A1A29
:105100005C681211013222711033F5E7404F002024
:105110001F900200B41E0020B81E002034ED0200D3
:1051200044ED0200014600220148002323F04DBC5B
:1051300030080020014823F0E6BC00BF3008002002
:10514000024B0146186823F032BD00BFAC1E0020A0
:10515000014823F067BD00BF3008002070B5294B1F
:10516000187800284DD0FFF7E5FF0546002845D107
:10517000254B264C1B68002B19DD28F0DFFF4FF470
:105180007A72A0FB020302FB0131C30BD4E90020B9
:1051900043EA41439B1A4FEAD13140F2E93261EBD5
:1051A0000001934271F1000101D3FFF76BFFD4E9D5
:1051B000003213F57A7342F10002C4E90032BDE80F
:1051C0007040FFF7C5BF63685B7923B12368294648
:1051D0001B68204698471034B442F4D32846FFF7A2
:1051E000AFFFBFF35B8F0A4B53E8001F013943E861
:1051F0000012002AF8D1BFF35B8FB9E7054C064EC9
:10520000EAE770BD3F4F0020B41E0020501100207F
:10521000B81E002034ED020044ED020070B50D4DC3
:10522000297861B90120FFF78BFE0B4C0B4EB4427D
:1052300006D3FFF793FF0028FBD101232B7070BD2D
:1052400063685B791BB1236820469B6898471034DC
:10525000EDE700BF404F002034ED020044ED0200B6
:1052600000212DE9F0470846FFF76AFE044658B3CF
:1052700040F267684FF0000929F03EFA1B4B1C4AC8
:105280001B58136033B11B4B1B68092B02DD1A48F6
:1052900020F072FA194FDFF860A0002544B12046D3
:1052A000FFF7E8FD044618B94FF0FF384FF0FF391B
:1052B000FFF754FF064628B9B5B942464B4650465B
:1052C00020F094FA3546E9E74FF0FF384FF0FF3908
:1052D000D2E72B689B691BB10022114628469847EC
:1052E0001035BD42F5D3E8E7054DFAE708000000A8
:1052F000B01E0020B81E00201009002044ED02005E
:1053000034ED020013B5184823F08BFE174B1B78C1
:1053100073B1EFF31184202383F31288BFF36F8FEF
:10532000FFF71CFF84F31188BFF36F8F02B010BD2D
:105330000F4B1B68002BF9D050B900220023CDE998
:1053400000230C484FF40042002321F015FBEDE749
:105350000928EBD1074828F044FF074802B0BDE810
:10536000104020F009BA00BFB81E0020404F0020B6
:10537000B01E0020581100201009002010B5064B67
:105380001B68044698472146A060044823F09CFB14
:10539000BDE81040FFF7B6BF200300203008002012
:1053A000044A054B9B1AB1EBD30F34BF52F83100BE
:1053B00000207047DCEB020034ED02002DE9F04FD5
:1053C0008FB004AFC1F34A28B8600D4691467B60A8
:1053D0000C0DB8F1000F63D0002607F114034FF055
:1053E000040B4FF00A0AC7F80C80C7E907667E6213
:1053F0000193CDF808B0CDF800A007F11C03F968BF
:1054000032464846FFF722FAB0F5006F03461CD338
:105410006C468AB0D9F8041004AB2648C3E90501EC
:1054200040F2FF71D9611A464FF400711984224B82
:1054300042F8103F214833464FF41251FFF7BEFFA8
:10544000A5462C37BD46BDE8F08FC0F30A0804F12D
:105450001700184420F0070080083B60FFF762FE49
:1054600068F35325044690B13B68154AC7E90836EE
:1054700000F1100107F11403F961CDE900A3CDF8A3
:1054800008B0F96807F11C034846FFF7DFF968F335
:1054900053257B68B9682A46204623F001FED0E7F1
:1054A00004F1170020F007008008FFF73BFE0446D8
:1054B000EDE700BFA421030004000001BCEC0200E2
:1054C000759002002DE9F04F87B0DDE91279DDE932
:1054D000105A0446039193469846BFB1CDF8009008
:1054E0003B46524610210020CDF81490FEF7DCFF19
:1054F000B0F5006F06460AD3184A194840F2FF7308
:10550000022107B0BDE8F04F23F023BE3E4605F16F
:105510001700304420F0070004F007048008FFF76C
:1055200001FE0BF0070BE40044EA8B1444EA462426
:1055300044EA0554054640B13FB1CDF800903B46E2
:10554000524631461030FEF7AFFF039943462246DC
:10555000284607B0BDE8F04F23F0A2BDE3210300C9
:10556000BCEC0200406820B1034BC01A40F3CF00EE
:1055700070474FF0FF307047DCEB02000EB403B50C
:1055800003AB014653F8042B0448019302F060FB7F
:1055900002B05DF804EB03B0704700BFB5910200A4
:1055A000CA0605D48B064CBF02490349FFF7E6BF84
:1055B000704700BF1C2203001B2203002DE9F04F9F
:1055C00089B09B46149B06939DF84CA0159B0593B0
:1055D000169B179E049304460D469046BAF1000FA1
:1055E00000F09D8006F48073079323F038FD06F0E9
:1055F0000209024600283ED091492046FFF7BEFF2F
:105600000746B9F1000F08D016F0440F35D18D4987
:105610002A462046FFF7B2FF074406F0010353B1C4
:10562000894B8A4953F82A20894B2046002A08BF13
:105630001A46FFF7A3FF06F48073002B49D006F04B
:105640000803002B63D1B8F1000F66D081494246B0
:105650002046FFF793FF0546069B3D44002B6DD186
:10566000049B002B73D1F30700F1E4803146204600
:10567000FFF796FFD8E00746C3E7774B1868002886
:10568000CAD0764B4FF47A791B68B5FBF3F54FF42B
:105690006163B5FBF0F100FB115509FB05F54FF017
:1056A0003C0CB1FBF3F203FB1211B5FBF0FEB1FBB6
:1056B000FCF300FB1E550CFB131109FB05F50091D3
:1056C000B5FBF0F56649CDE901E52046FFF756FF49
:1056D000A2E706F00803EBB1624B634953F82A20B6
:1056E0002046FFF74BFF0546B8F1000F05D059499A
:1056F00042462046FFF742FF0544BBF1000FABD006
:105700005A495A462046FFF739FF0544A4E74FF0AF
:10571000000BE1E706F00805E6E745469CE7BBF12C
:10572000010F069B06D1002B64D1049B002B7BD07C
:1057300000250CE0002BF8D04D485CE04D48069B5E
:105740004D49224622F0A9FF049B002B68D0DFF8C8
:105750002C81DFF82C91049F3146102F204628BF62
:105760001027FFF71DFF4FF0000B5D4545DC059B43
:1057700049461A782046FFF701FF4FF0010B1BF056
:10578000070F03D141462046FFF7F8FE5F453BD99E
:10579000059B494613F80B202046FFF7EFFE0BF15F
:1057A000010BBBF1100FEAD1364920464FF0000B38
:1057B000FFF7E4FE5A46059B9A5CA2F120015F299F
:1057C00028BF2E2230492046FFF7D8FE0BF1010BEF
:1057D000BBF1100F1DD01BF0070F03D1414620462F
:1057E000FFF7CCFE5F455A46E5D841462046FFF715
:1057F000C5FEEBE71F485546A1E741462046FFF7A7
:10580000BDFE0BF1010BB0E720492046FFF7B6FEC5
:10581000C5E7059B3B440593049BDB1B04939AD18E
:10582000BAF1000F7FF41FAF204609B0BDE8F04F7A
:1058300023F0B3BC064A05492046FFF79FFE15E753
:1058400023220300272203000CF10200653003002D
:105850001E2203004C220300C41E0020C01E002094
:105860003022030020F102005022030056220300E0
:10587000EB910200B5910200517C0000632203000D
:105880005B220300652203006722030061220300FC
:1058900073B542F20F738B4228BF0B4605680F4A5F
:1058A00004460521684621F0EFF863680C495B68FF
:1058B00006460B22284623F062FC6368324669469E
:1058C00028465B6823F05BFC636806495B681B2223
:1058D000284623F054FC02B070BD00BF9D1E03009B
:1058E000862203006A220300074A00210123904216
:1058F00006D8064A01B901231360054B18607047AA
:1059000040085B000121F2E740420F00C01E00206A
:10591000C41E0020F8B5074F0D4604464618B44291
:1059200001D12846F8BD14F8011BBB6801485B682B
:105930009847F4E72CE80200014B03600020704711
:1059400068F10200F0B40C4B0C4E5F6A0C4BB34292
:1059500003D36FF08500F0BC70475D68BD4209D38A
:105960001C693CB195F802C00579AC4502D12346CB
:10597000F0BC18472433EAE7F41E0020BC0B0020DB
:10598000980B00202DE9F047134CDFF85080DFF82A
:10599000509005460E461746444503D36FF08500E8
:1059A000BDE8F0876268D9F824309A4212D3A3691F
:1059B00083B190782979884205D13A463146284604
:1059C000BDE8F04718475279012A03D13A463146DB
:1059D000284698472434DFE7980B0020BC0B0020B2
:1059E000F41E00202DE9F0410B4CDFF83080054615
:1059F0000E461746444502D36FF0850009E06369FF
:105A00000BB92434F6E73A46314628469847002831
:105A1000F7D1BDE8F08100BF980B0020BC0B00203F
:105A2000024B00221A605A60704700BFAF1F00206F
:105A300070B50B4B0B4CA34201D3002070BD196A0B
:105A40001E7F00220439D5B2AE4201D82433F2E7DA
:105A5000013211F832508542F5D10120EEE700BF46
:105A6000980B0020BC0B002008B5044A0346012116
:105A7000034823F036FC002008BD00BFCC22030001
:105A80001CED020038B5054626F0ECF910F1780F50
:105A9000044611D10D4A0E482B46022123F021FC69
:105AA000284623F020FC0B4AD2F8C43023EA000336
:105AB000C2F8C430002407E00028F1D0064A0448A8
:105AC0002B46012123F00DFC204638BDE7220300C0
:105AD0001CED0200F41E00200823030008B509484D
