:10000000803300200D350000FDA80000F934000009
:10001000F9340000F9340000F93400000000000059
:10002000000000000000000000000000D1350000CA
:10003000F93400000000000071350000F9340000C0
:100040009137000091370000913700009137000090
:100050009137000091370000913700009137000080
:100060009137000091370000913700009137000070
:100070009137000091370000913700009137000060
:100080009137000091370000913700009137000050
:100090009137000091370000913700009137000040
:1000A0009137000091370000913700009137000030
:1000B0009137000091370000913700009137000020
:1000C0009137000091370000913700009137000010
:1000D0009137000091370000913700009137000000
:1000E00091370000913700009137000091370000F0
:1000F00091370000913700009137000091370000E0
:1001000053B94AB9002908BF00281CBF4FF0FF317E
:100110004FF0FF3000F00CB8ADF1080C6DE904CEE3
:1001200000F01AF8DDF804E0DDE9022304B07047BE
:10013000704700BF10F8012B11F8013B012A28BFBE
:100140009A42F7D0D01A7047034613F8012B002AC1
:10015000FBD1181A013870472DE9F04786468C46C6
:100160000846089E154674461946002B40F0C2808A
:100170008542B2FA82F245D94AB1C2F1200300FAAF
:1001800002FC2EFA03F3954043EA0C0C94404FEA2C
:10019000154EA8B2BCFBFEF8230C0EFB18CC08FBD6
:1001A00000F943EA0C43994528D9EB1808F1FF37C9
:1001B00004D2994502D9A8F102072B44A3EB090305
:1001C000A4B2B3FBFEFC0EFB1C330CFB00F044EAB4
:1001D0000344A04214D92C190CF1FF3304D2A042DD
:1001E00002D9ACF102032C44241A43EA07401EB1A1
:1001F000D440002334607360BDE8F0874746DDE7F4
:100200006346F1E792BB431B01214FEA154EAFB2A3
:10021000B3FBFEFC200C0EFB1C330CFB07F840EA82
:100220000343984562D9EB180CF1FF3004D298458E
:1002300002D9ACF102002B44A3EB0803A4B2B3FB38
:10024000FEFC0EFB1C330CFB07F744EA0344A742F9
:100250004ED92C190CF1FF3304D2A74202D9ACF1CC
:1002600002032C44E41B43EA0040C0E7C2F1200330
:1002700020FA03F1954090402EFA03F303434FEA2E
:10028000154EAFB2B1FBFEFC0EFB1C10190C0CFBA3
:1002900007F841EA0041884504FA02F422D96918B6
:1002A0000CF1FF3004D2884502D9ACF10200294498
:1002B000A1EB08019BB2B1FBFEFC0EFB1C110CFB79
:1002C00007F743EA01439F420ED9EB180CF1FF31C7
:1002D00004D29F4202D9ACF102012B44DB1B41EA5C
:1002E000004192E76046E3E76146F7E76046A3E72F
:1002F0006346B7E7834206D916B9002108467BE773
:10030000C6E900E0F9E7B3FA83F78FB9834201D376
:10031000724508D8BEEB020460EB030301209C4643
:100320001EB9002168E73846FAE7C6E9004CF8E74D
:10033000C7F1200CBB4022FA0CF41C432EFA0CF13E
:1003400020FA0CF3B84001434FEA14490EFA07F5BE
:10035000B3FBF9F81FFA84FE09FB18300B0C08FBFD
:100360000EFA43EA00439A4502FA07F240D9E3182D
:1003700008F1FF3004D29A4502D9A8F102002344C3
:10038000A3EB0A0389B2B3FBF9F809FB183308FBA6
:100390000EFE41EA03418E452CD9611808F1FF3366
:1003A00004D28E4502D9A8F10203214443EA004059
:1003B000A0FB0298A1EB0E014145CE46434602D375
:1003C00006D14D4504D2B9EB020E68EB04030138A7
:1003D000002EA6D0B5EB0E0261EB030101FA0CFC76
:1003E00022FA07F34CEA0303F940C6E9003198E723
:1003F0004046C5E74346D9E72DE9F04192B0894828
:10040000894E07F019FB306038B98649874809F0F2
:1004100079FB002012B0BDE8F0810AF0A0FE18B907
:10042000834809F06FFBF4E7824C834820600AF0B0
:1004300096FE08B98148F4E7052120684FF4202290
:1004400009F01FF9014610B17D4809F05BFB1C2142
:1004500020684FF4202209F014F9014610B17948C0
:1004600009F050FB1D2120684FF4202209F009F902
:10047000014610B1744809F045FB032120684FF490
:10048000803209F0FEF8014610B1704809F03AFBDD
:100490000020009001F076FF002840F0AC806C4D09
:1004A000009B002B00F0A9800E2200210DF13A00E4
:1004B0000BF017FA674B0D9367484FF48073ADF854
:1004C000383009F01FFB206800221D2109F0E5F8F3
:1004D00040F6CD40002109F0F0F8206801221D21EE
:1004E00009F0DBF840F6CD40002109F0E6F820687D
:1004F00000221C2109F0D1F84FF42470002109F0EA
:10050000DCF8206801221C2109F0C7F840F6CD4034
:10051000002109F0D2F82068056983680BA95B689F
:100520009847014620B92B680B995940C1F3C00187
:100530004A4809F0E7FA01AB494A0593052703AB9E
:1005400010680190CDE9073705AB002512790993B2
:100550004FF0010807AB43488DF80820CDE90B3870
:1005600003958DF810500697CDF8288009F0CAFA47
:1005700020682A46394609F090F84220002109F007
:100580009CF83068836809AA1D680DA90BABA847C1
:10059000424605463946206809F07FF8002D39D0DB
:1005A0003148294609F0AEFA304FDFF8C4803846AA
:1005B00009F0A8FA20680022052109F06EF842200F
:1005C000002109F07AF83068836809AA1D680DA92E
:1005D0000BABA847012205460521206809F05DF80C
:1005E000E5B12148294609F08DFA4FF40040002179
:1005F00009F063F8DBE71F4813E7AB689B6C1BB19E
:100600006A4604212846984740F6CD40002109F06B
:1006100054F845E7DDF80D101548C3E7DDF80D1077
:100620004046E0E7B4BF0000F40B0020BABF000072
:10063000D3BF0000F00B00209CBA0000E9BF00000F
:1006400001C0000017C0000030C0000048C000001A
:10065000BCBA000080841E0072C000008BC0000085
:10066000E8BD00009AC00000B0C00000D2C0000089
:10067000BFC000005FC000002DE9F04F91B08407BB
:10068000009302F004030293C2F3C20303F10103D7
:10069000DDF86880039205460E46059340F0BA8166
:1006A000041D30B1072909D86FF01B0011B0BDE857
:1006B000F08F01F007063444C6F10806009B4FF0A6
:1006C0000009591E4FF0040A4FF0FF330193CDF893
:1006D00010904F46CB4653460DB1009A22600598C4
:1006E000002800F3E8809848009A824203D3974894
:1006F0008242C0F0E080039AA4EB050E92074FEA15
:100700009E0000F103810F2F00F2B180002D00F058
:10071000058107F140020DEB020C019A0CF8200C48
:100720000CF8102C049801300490E7E07A285DD88A
:100730004B280ED8472859D829282DD8252852D0FB
:1007400054D820287AD02338D0F1000B4BEB000B83
:1007500074E04C382E2849D8DFE800F0704848484B
:1007600048484848484848484B4848484848484806
:100770004859484B4B595959704B6D487048184B64
:10078000184848827F4B48484B487F0000204FF074
:10079000000B4FF0040A38E02A38C0B2012202FAF6
:1007A00000F010EA0E0F49D110F0625C2FD110EA70
:1007B000020B43D06046013C5444B4FBFAF40AFBFC
:1007C00004F4002D61D0A3EB050CA444B4453FF61E
:1007D0006BAF002868D1042B47D158F8043B236045
:1007E000043404232AE0019A013A01924FF0000BED
:1007F00024E011F8010C6C2834D111F8023C0020DF
:100800006C2B8346C5D14FF0080A5346D3E708F155
:10081000070828F007080734F8E802AB24F00704BB
:1008200035B106982044B0423FF63EAFC4E900AB74
:1008300008344FF0000B4FF0080A534611F8010F2F
:10084000002878D0BBF1000F7FF470AF2528F5D1D8
:10085000019B013301934FF0010B4FF0040AECE7C9
:10086000584694E700208346A5E7082B02D06FF096
:1008700015001BE708F1070828F00708F8E802232D
:10088000C4E9002308340823D8E768B9042B02D14F
:1008900008F10408A4E7082BE9D108F1070828F0BB
:1008A000070808F10808EDE7059A013A059258F89B
:1008B000042B009210E7039A900720D5A4EB050EB5
:1008C0004FEA9E004FF0010CBEF5007FCFD20F2FF4
:1008D000CDD8F5B107F140020DEB020EC0B2019A7E
:1008E0000EF8200C0EF8102CBCF1000F3FF41AAFDC
:1008F00060F07F000EF8200C09F101090137C5F105
:100900000802043406924FF6DA7E97E74FF0000CA7
:10091000DAE7BCF1000F01D00136EFE702980236AA
:100920000028EBD10098CDE90631FFF70DFCDDE999
:1009300006310644E2E7631BB3F5806F97D23DB9F9
:10094000A6F10804E018B1E6DCB90000D0D0000040
:10095000029A28609B082B709DF81030C2B1EB7092
:1009600085F80290B9F1000F05D008A80022C5F162
:10097000010C97420ED1C5F101030DF120084FF093
:10098000000A01930DF1300B574512D1601B8DE623
:100990006B70E5E710F8013B190608D50CEB040E67
:1009A000B64503F07F033FF67FAE04F8013B01320A
:1009B000DFE7B9F1000F03D098F90020002A17DB18
:1009C000029BD3B11AF80B2004F8012B0022019BE3
:1009D00018191044B0423FF667AE98F8000004F8CA
:1009E000010B0099039220460AF06DFF039A14440C
:1009F0000AF1010A08F10108C6E798F8002055F845
:100A000022300093029B45F822300098FFF79CFBB0
:100A1000421CDCE76FF00D0048E600BF2DE9F04F07
:100A200097B000AF90F802A0D7F880B03B62CBF34C
:100A3000C0030446FA62BB61894641B94578007833
:100A40000AEB800020444D4517D8A0EB0409E37859
:100A5000FB61BAF1000F02D01BF0010F16D1FB6948
:100A600053BBFB6A1BB13A6A4946204698474D463C
:100A700028465C37BD46BDE8F08F461C3046FFF780
:100A800063FB0130304409F10109DCE72378626837
:100A90007A62FA6A9900796104EB8301002A40F0D6
:100AA00000814D460E4601EB0A094FF000084E4505
:100AB0004CD101EB0A0610E01BF0020FD1D02378D5
:100AC0009A007A6162687A62FA6A04EB8301002A0A
:100AD00077D14D4601EB0A0690461BF0050F0CBF7F
:100AE00002230123FB62FB6906EB430A0BF00203BE
:100AF000BB625645BCD016F8021B16F8013C54F8F0
:100B00002390994B994502D3984B994536D3BB69AD
:100B1000002B40D0786A08F0CEFF00283BD0E94691
:100B20008AB06A46924B53617B6AC2E906314FF440
:100B3000007313848F4B42F8103F8F4800234FF40B
:100B4000125100F023FD023DCD46D2E716F8013BDD
:100B5000F96254F82300FFF7F7FAD7F88430F96AFE
:100B600001304BB1D7F8883098453EBFD7F8843074
:100B700023F8180008F10108054498E7BB6923B180
:100B8000786A08F098FF0028C9D11BF0010F05D141
:100B9000FB6AED1AADE7BB6A002BAAD04846FFF707
:100BA000D3FAD7F8843053B1D7F8883098453FBF8F
:100BB000D7F88420431C22F8183008F101080544B6
:100BC00097E7BAF1000F72D01BF0040672D0D0463E
:100BD000002607F1480052463B61B9620AF073FEF5
:100BE000B96A3B6901EB0A02BA62FA69F969520013
:100BF000FA60BA6A02EB41023A610BF00202BA6093
:100C00003A69B96A8A4257D162787A621BF0020F58
:100C100032440CBF4FEA580100211BF0010FD2B241
:100C200040F09F801BF0040F14BF40460020BB61C2
:100C30006270A070E1703A6A7969FB6A2046984751
:100C4000051EFFF615AFBB6923707B6A6370FB69F5
:100C5000E37041463A6AFB6A84F802A007F1480053
:100C60009847B0F10008C0F2BB807B693A6AA9EBF3
:100C70000A01C91AFB68C91AD7E90A03984700286C
:100C8000C0F2B080A84408EB00054FF0000B07F15C
:100C9000380AB34572D300213A6AFB6A084698477E
:100CA000E6E656464FF0000807F1380093E756464F
:100CB000D04697E7B04695E7BA6A12F8021BBA62C7
:100CC00012F8015C284A54F82500904202D3274AC2
:100CD00090421ED3BA6932B1786A7B6008F0EBFEAD
:100CE0007B6800288CD1BA6802BB08F1280207F1A2
:100CF000300C08F10100944407F1580252FA80F0D8
:100D000008F102080CF8101C5FFA88F800F8105C73
:100D100076E7BA693AB1786A7B6008F0CCFE7B6806
:100D200000287FF46DAF1BF0010F09D006F12802F7
:100D300007F13000711C161806F8205CCEB25FE790
:100D40001BF0040F3FF45CAF08F1280207F13000FC
:100D500008F1010102EB000808F8105C5FFA81F865
:100D60004EE7002063E700BFDCB90000D0D00000F0
:100D7000EBC00000040000014CBD00001BF80A306D
:100D800087F8373054F82390D7F884302BB3D7F84E
:100D900088309B4521D2D7F8843033F81B803A6ADB
:100DA000FB6A012107F13700984700281ADB054448
:100DB000B8F1000F06D14846FFF7C6F900F1010867
:100DC0001FFA88F83A6AFB6A414648469847002865
:100DD00008DB05440BF1010B5BE74FF00008DEE791
:100DE000454645E6054643E6014B1860704700BF9F
:100DF000B000002080B505460E461746984607F01D
:100E00004BFE03460AF0E0FDDFF81890044649F86F
:100E10000030424630463946A84754F8090002F0EF
:100E200091FB00BF080000002DE9F047058B044648
:100E30002807904611D4022905F0070540F0CC8020
:100E4000204609F0F1F878B10138218B042811D837
:100E5000DFE800F0C2106D85950001290CBF45F058
:100E6000100545F02005258388F31188BFF36F8FA7
:100E7000BDE8F08701F0070AAA4500F0A580002729
:100E8000B9463E46A368002B00F0BC8041F0080143
:100E9000218388F31188BFF36F8FA168002900F0C8
:100EA000BA800D68002900F0B680D1F8048033467E
:100EB00052462046C047002D76D02B6829461D4655
:100EC000F0E701F007035A1F012A1BD8002221F086
:100ED0000701062B276889B2C4E9002209D13B46E5
:100EE00003E0628B013262831B68002BF9D141F071
:100EF00002012183204609F097F800287AD041F0BA
:100F0000200176E0042B0AD121F0070189B2218368
:100F1000204609F089F810B141F020012183218B8E
:100F200001F0070AAA454FD00027B946AAE723696E
:100F300021F0070141F00601062DD3F8009021832E
:100F40002DD1B9F1000F3FD041F00801218388F382
:100F50001188BFF36F8F3A492046C84729E021F036
:100F60000701236941F0040189B2042DD3F80490EC
:100F70002183E6D000273E464FF0040A82E721F0A5
:100F80000701236941F0050189B2052DD3F80890C6
:100F90002183D6D000273E464FF0050A72E700278E
:100FA0003E464FF0060A6DE72B4687E7B9F1000F82
:100FB000D1D1EFF31188202383F31288BFF36F8F11
:100FC000238B23F008032383258BEA062ED525F0F7
:100FD0001003238305F007056669218B002EBFF6F9
:100FE00070AF00232768C4E9003321F0070141F006
:100FF00001012183218B01F0070AAA454FF0000966
:101000007FF440AF002F9CD041F00801218388F38A
:101010001188BFF36F8F002FC8D03D683946334623
:101020005246204609F02CF82F46F4E7AB067FF530
:101030001BAF25F02003238305F0070500E700BF61
:10104000ADA000002DE9F047DFF8588004460746C0
:101050004FF0010914B93846BDE8F08794FAA4F5B9
:10106000B5FA85F509FA05F32E0108EB05156FEAC7
:10107000030A24EA03042B7B002BEBD058F806303C
:101080001B694BB94644042273682846196807EA6D
:101090000A0709F0A5F9DDE7284698470028D9D1C5
:1010A000F0E700BFC4BD000030B51049104889B05A
:1010B00000220AF074FB0F4D0F4900220023CDE9F6
:1010C000062300240E23CDE90334CDE901440B4B64
:1010D00000944FF44072284607F000FA0849284669
:1010E0000AF0DDF9204609B030BD00BF051100004F
:1010F0001808002090030020001A0020311400007E
:101100009FC10000014806F0A1BF00BF840200207B
:101110002DE9F047804621480F4609F041F906467F
:10112000002833D000252846BDE8F087237B83B113
:101130002368DB680BB120469847636883F8069004
:1011400023681B69D3B9636804221968204609F033
:1011500047F9013610345445E8D3B8F1000FE2D016
:10116000002DDFD02846FFF76DFF0546002FF7D092
:1011700000214FF4A4700AF044FAF1E720469847A2
:101180000028E0D009FA06F31D43E2E7044CDFF83B
:1011900014A005464FF00109DDE700BF080C002050
:1011A000C4BD0000D4BD0000014B53F820007047BF
:1011B0001CBE000008B5034608462BB1044A136064
:1011C00000F07AFC002008BD6FF01500FBE700BFBF
:1011D000B400002010B5044C237813B9034806F07E
:1011E00035FF0123237010BDB419002084020020B4
:1011F00010B504460B4809F0D3F85CB1BFF35B8F20
:10120000094B53E8001F013943E80012002AF8D1C6
:10121000BFF35B8F05480AF0CEFA0548BDE81040E1
:1012200006F014BF000C0020040C00201808002059
:10123000840200200020064BBFF35B8F014653E879
:10124000000F43E80012002AF9D1BFF35B8F70470B
:10125000000C002070B5FFF7EDFF084C084E054666
:10126000B44200D370BD63685B792BB123685B68BF
:1012700013B12946204698471034F1E7C4BD000059
:10128000D4BD000010B5044C0449204608F04AFDC6
:10129000034B1C6010BD00BF0802002008BE000008
:1012A000F80B00200D4A0E48002310B513700D4AAC
:1012B00013600D4A4FF400411360FFF77BFFFFF707
:1012C000E1FF0A4B0A4918468B4200D310BD1A1A97
:1012D0005C681211013222711033F5E7B519002054
:1012E0009DA30000000C0020040C0020C4BD0000E1
:1012F000D4BD0000014600220148002308F033BDA0
:1013000008020020014808F0CCBD00BF0802002000
:10131000024B0146186808F018BE00BFF80B002009
:10132000014808F04DBE00BF0802002070B5294BEF
:10133000187800284DD0FFF7E5FF0546002845D175
:10134000254B264C1B68002B19DD0AF0E1F94FF400
:101350007A72A0FB020302FB0131C30BD4E9002027
:1013600043EA41439B1A4FEAD13140F2E93261EB43
:101370000001934271F1000101D3FFF76BFFD4E943
:10138000003213F57A7342F10002C4E90032BDE87D
:101390007040FFF7C5BF63685B7923B123682946B6
:1013A0001B68204698471034B442F4D32846FFF710
:1013B000AFFFBFF35B8F0A4B53E8001F013943E8CF
:1013C0000012002AF8D1BFF35B8FB9E7054C064E37
:1013D000EAE770BDB4190020000C002010080020BE
:1013E000040C0020C4BD0000D4BD000070B50D4D3C
:1013F000297861B90120FFF78BFE0B4C0B4EB442EC
:1014000006D3FFF793FF0028FBD101232B7070BD9B
:1014100063685B791BB1236820469B68984710344A
:10142000EDE700BFB5190020C4BD0000D4BD000029
:1014300000212DE9F0470846FFF76AFE044658B33D
:1014400040F267684FF000090AF0BEFA1B4B1C4AD5
:101450001B58136033B11B4B1B68092B02DD1A4864
:1014600006F0F4FD194FDFF860A0002544B12046D6
:10147000FFF7E8FD044618B94FF0FF384FF0FF3989
:10148000FFF754FF064628B9B5B942464B465046C9
:1014900006F010FE3546E9E74FF0FF384FF0FF3910
:1014A000D2E72B689B691BB100221146284698475A
:1014B0001035BD42F5D3E8E7054DFAE70800000016
:1014C000FC0B0020040C002084020020D4BD00008E
:1014D000C4BD000013B5184808F062FF174B1B7815
:1014E00073B1EFF31184202383F31288BFF36F8F5E
:1014F000FFF71CFF84F31188BFF36F8F02B010BD9C
:101500000F4B1B68002BF9D050B900220023CDE906
:1015100000230C484FF40042002307F09DFDEDE747
:101520000928EBD107480AF046F9074802B0BDE8A0
:10153000104006F08BBD00BF040C0020B519002040
:10154000FC0B0020180800208402002010B5064B78
:101550001B68044698472146A060044808F082FCB6
:10156000BDE81040FFF7B6BFB4000020080200201D
:10157000044A054B9B1AB1EBD30F34BF52F831002C
:10158000002070474CBD0000C4BD00002DE9F04FA5
:101590008FB004AFC1F34A28B8600D4691467B6016
:1015A0000C0DB8F1000F63D0002607F114034FF0C3
:1015B000040B4FF00A0AC7F80C80C7E907667E6281
:1015C0000193CDF808B0CDF800A007F11C03F9682D
:1015D00032464846FFF722FAB0F5006F03461CD3A7
:1015E0006C468AB0D9F8041004AB2648C3E905015B
:1015F00040F2FF71D9611A464FF400711984224BF1
:1016000042F8103F214833464FF41251FFF7BEFF16
:10161000A5462C37BD46BDE8F08FC0F30A0804F19B
:101620001700184420F0070080083B60FFF762FEB7
:1016300068F35325044690B13B68154AC7E908365C
:1016400000F1100107F11403F961CDE900A3CDF811
:1016500008B0F96807F11C034846FFF7DFF968F3A3
:1016600053257B68B9682A46204608F0D8FED0E7A3
:1016700004F1170020F007008008FFF73BFE044646
:10168000EDE700BFB4C100000400000164BD00002C
:10169000F3A300002DE9F04F87B0DDE91279DDE911
:1016A000105A0446039193469846BFB1CDF8009076
:1016B0003B46524610210020CDF81490FEF7DCFF87
:1016C000B0F5006F06460AD3184A194840F2FF7376
:1016D000022107B0BDE8F04F08F0FABE3E4605F122
:1016E0001700304420F0070004F007048008FFF7DB
:1016F00001FE0BF0070BE40044EA8B1444EA462495
:1017000044EA0554054640B13FB1CDF800903B4650
:10171000524631461030FEF7AFFF0399434622464A
:10172000284607B0BDE8F04F08F079BEF3C10000CD
:1017300064BD0000406820B1034BC01A40F3CF00E5
:1017400070474FF0FF3070474CBD00000EB403B53A
:1017500003AB014653F8042B0448019302F09EF9B1
:1017600002B05DF804EB03B0704700BF33A5000082
:10177000CA0605D48B064CBF02490349FFF7E6BFF2
:10178000704700BF2CC200002BC200002DE9F04FB3
:1017900089B09B46149B06939DF84CA0159B05931E
:1017A000169B179E049304460D469046BAF1000F0F
:1017B00000F09D8006F48073079308F00FFE06F09A
:1017C0000209024600283ED091492046FFF7BEFF9D
:1017D0000746B9F1000F08D016F0440F35D18D49F6
:1017E0002A462046FFF7B2FF074406F0010353B133
:1017F000894B8A4953F82A20894B2046002A08BF82
:101800001A46FFF7A3FF06F48073002B49D006F0B9
:101810000803002B63D1B8F1000F66D0814942461E
:101820002046FFF793FF0546069B3D44002B6DD1F4
:10183000049B002B73D1F30700F1E480314620466E
:10184000FFF796FFD8E00746C3E7774B18680028F4
:10185000CAD0764B4FF47A791B68B5FBF3F54FF499
:101860006163B5FBF0F100FB115509FB05F54FF085
:101870003C0CB1FBF3F203FB1211B5FBF0FEB1FB24
:10188000FCF300FB1E550CFB131109FB05F5009141
:10189000B5FBF0F56649CDE901E52046FFF756FFB7
:1018A000A2E706F00803EBB1624B634953F82A2024
:1018B0002046FFF74BFF0546B8F1000F05D0594908
:1018C00042462046FFF742FF0544BBF1000FABD074
:1018D0005A495A462046FFF739FF0544A4E74FF01E
:1018E000000BE1E706F00805E6E745469CE7BBF19B
:1018F000010F069B06D1002B64D1049B002B7BD0EB
:1019000000250CE0002BF8D04D485CE04D48069BCC
:101910004D49224608F09EF8049B002B68D0DFF862
:101920002C81DFF82C91049F3146102F204628BFD0
:101930001027FFF71DFF4FF0000B5D4545DC059BB1
:1019400049461A782046FFF701FF4FF0010B1BF0C4
:10195000070F03D141462046FFF7F8FE5F453BD90C
:10196000059B494613F80B202046FFF7EFFE0BF1CD
:10197000010BBBF1100FEAD1364920464FF0000BA6
:10198000FFF7E4FE5A46059B9A5CA2F120015F290D
:1019900028BF2E2230492046FFF7D8FE0BF1010B5D
:1019A000BBF1100F1DD01BF0070F03D1414620469D
:1019B000FFF7CCFE5F455A46E5D841462046FFF783
:1019C000C5FEEBE71F485546A1E741462046FFF715
:1019D000BDFE0BF1010BB0E720492046FFF7B6FE34
:1019E000C5E7059B3B440593049BDB1B04939AD1FD
:1019F000BAF1000F7FF41FAF204609B0BDE8F04FE9
:101A000008F08ABD064A05492046FFF79FFE15E704
:101A100033C2000037C200002CBE000089CE000097
:101A20002EC200005CC20000100C00200C0C002034
:101A300040C2000040BE000060C2000066C200005C
:101A400069A5000033A500009D3A000073C20000A4
:101A50006BC2000075C2000077C2000071C20000B6
:101A600073B542F20F738B4228BF0B4605680F4ACD
:101A700004460521684607F07BFB63680C495B68F8
:101A800006460B22284608F039FD6368324669464F
:101A900028465B6808F032FD636806495B681B22D4
:101AA000284608F02BFD02B070BD00BFF4CB00004B
:101AB00096C200007AC20000074A0021012390422A
:101AC00006D8064A01B901231360054B1860704718
:101AD00040085B000121F2E740420F000C0C00209F
:101AE000100C0020F8B5074F0D4604464618B442C6
:101AF00001D12846F8BD14F8011BBB6801485B689A
:101B00009847F4E7BCBA0000014B0360002070471F
:101B100088BE0000F0B40C4B0C4E5F6A0C4BB34215
:101B200003D36FF08500F0BC70475D68BD4209D3F8
:101B30001C693CB195F802C00579AC4502D1234639
:101B4000F0BC18472433EAE7380C0020900300204B
:101B50006C0300202DE9F047134CDFF85080DFF8CC
:101B6000509005460E461746444503D36FF0850056
:101B7000BDE8F0876268D9F824309A4212D3A3698D
:101B800083B190782979884205D13A463146284672
:101B9000BDE8F04718475279012A03D13A46314649
:101BA000284698472434DFE76C0300209003002088
:101BB000380C00202DE9F0410B4CDFF83080054651
:101BC0000E461746444502D36FF0850009E063696D
:101BD0000BB92434F6E73A463146284698470028A0
:101BE000F7D1BDE8F08100BF6C0300209003002016
:101BF000024B00221A605A60704700BFF30C0020AD
:101C000070B50B4B0B4CA34201D3002070BD196A79
:101C10001E7F00220439D5B2AE4201D82433F2E748
:101C2000013211F832508542F5D10120EEE700BFB4
:101C30006C0300209003002008B5044A03460121EC
:101C4000034808F00DFD002008BD00BFDCC2000005
:101C5000ACBD000038B5054608F0B6FE10F1780FAF
:101C6000044611D10D4A0E482B46022108F0F8FC1B
:101C7000284608F0F7FC0B4AD2F8C43023EA0003E8
:101C8000C2F8C430002407E00028F1D0064A044816
:101C90002B46012108F0E4FC204638BDF7C20000C5
:101CA000ACBD0000380C002018C3000008B509487E
:101CB0000378C3F341130A3350F823303BB100F1EA
:101CC000080200F110019847C043C00F08BD184634
:101CD000FCE700BF380C002004282DE9F74FDFF89F
:101CE0009C9004460F4615D001282FD1DFF8908034
:101CF00098F8B93053B300F0EBFE224D4D4522D297
:101D00002A6A4FF0000A2B7F5FFA8AF6B34204D8A2
:101D10002435F3E7FFF76CFFE8E702EBC606019214
:101D2000307908F051FE8346307908F09BFCD8F8F2
:101D3000C430019A23EA0003BBF1000FC8F8C43095
:101D40000AF1010ADFDA002388F8B9300D4D4D455C
:101D500008D30B4B1B6A6BB13946204603B0BDE874
:101D6000F04F1847EB681BB13A4621462846984782
:101D70002435ECE703B0BDE8F08F00BF90030020EE
:101D8000380C00206C03002073B5C4B263060D4606
:101D90008DF8074007D02046FFF732FFB0B1144B53
:101DA00093F8BA0090B1124E23468DB1114A1248F1
:101DB000032108F055FC9DF8070002F04BFBF36986
:101DC0001BB10DF1070108209847012002B070BD3A
:101DD0000A4A0948032108F043FC9DF8070002F075
:101DE0006BFBF369002BF0D00DF107010920EBE745
:101DF000380C00203AC30000ACBD00004DC3000009
:101E000073B5044680788DF8000023796279294DF6
:101E100043EA0223ADF80230E37803F003038DF8C0
:101E2000043008F01FFCD5F8C430184206460CD028
:101E3000A478204600F02EFE2046FFF70BFF09F0A5
:101E400028FB10B9962006F0E5FD684602F0D4FAAA
:101E500010F1780F9DF800301BD1174A1748022166
:101E600008F0FEFB9DF8000002F062FB10F1780F15
:101E700019D19DF80030124A1048022108F0F0FBF9
:101E8000D5F8C4300120334385F8B900C5F8C43013
:101E900007E00028E6D00B4A0848012108F0E0FBE3
:101EA000002002B070BD0028EAD09DF80030064A3C
:101EB000F2E700BF380C002062C30000ACBD000098
:101EC000A9C3000085C30000C9C300002DE9F04785
:101ED000A34EB36904460F461546FBB9237803F0B9
:101EE0001F03012B00F09D80022B00F0048133BB07
:101EF00094F900002A686178002834DA062912D0A3
:101F000008292BD0D9B901231370517096F8C3302A
:101F10005B0043F00103137002232AE19847002875
:101F2000DCD100200DE06288100A011F01298446DF
:101F300005D9072803D8716AD2B20C781CB96FF0A2
:101F40001500BDE8F0874E78664503D19A4200F04F
:101F50000B8101332144F0E70B780AE196F8BA309F
:101F60001370012305E101390829E8D801A353F8CA
:101F700021F000BF0D2000003F1F00001B200000CB
:101F80003F1F0000991F00003F1F00003F1F00007F
:101F90003F1F0000A51F0000A07802F0EFF9002805
:101FA000BFD0CCE76388756A63BBFFF721FE638807
:101FB00086F8BA30F369002BB3D06A4903209847FA
:101FC000AFE76B78042B10D0052B11D0022B04D176
:101FD0006F796388BB4208BF01202B781D442B78A2
:101FE000002BEED10028AAD0DFE795F80380F4E7B4
:101FF0006388BB42F1D1B8F1000FEED12846FFF75C
:10200000FFFEEAE7FF270020B846E8E76388012BD8
:1020100095D1002386F8C33083E76388012B8ED1E6
:10202000F8E796F8BA30D5F800C0002B87D0756A6B
:10203000A38894F804E02A46107800283FF47FAF84
:102040005178022904D192F80480F04500F293807F
:102050000244F1E78CF800208CF80120396060E739
:10206000154494E00B2A7FF46AAF00274FF0FF0875
:10207000C146BA4606E06B78042B0FD0052B21D061
:102080002B781D442B78002BF5D1F36913B1514601
:1020900007209847002F7FF444AF50E795F802805F
:1020A000A38895F803909845EAD163889945E7D1CC
:1020B000B8F1070F1CD806EB0803AA4683F8BB90BB
:1020C0000127DDE7A3884345DAD1A3784B450AD041
:1020D000AF78384600F0DEFC3846FFF7BBFDB0FABB
:1020E00080F77F09CCE72846FFF78AFE0746C7E757
:1020F000AA460027C4E794F900206378002A18DA7A
:10210000002B7FF41CAF24792D6863060AD020468B
:10211000FFF776FD00283FF412AF96F8BA30002B97
:102120003FF40DAF2946204602F0E6F900236B701C
:10213000F2E6012B08D0032B7FF401AF6388002B5C
:102140007FF4FDAE012103E0618800297FF4F7AE42
:10215000A088FFF719FE00287FF4E3AEEFE600BF8A
:10216000380C0020F20C0020022829607FF4F4AE25
:102170004B883B60D5E694F9000062780028BFF6F2
:1021800071AF002A3FF466AF0A2A7FF4D8AE2A78EE
:10219000002A3FF4D4AE697804297FF461AFA978AE
:1021A0008B427FF45DAF072B96BF9B19002393F8FA
:1021B000BB308CF80030D4E62DE9F84FDFF83CB0A6
:1021C000DFF83CA005460F469046994604264B464C
:1021D00042463946284602F0D5F910F10B0F044665
:1021E00009D12B465A460221504608F039FA06F02A
:1021F0008DFB013EEBD12046BDE8F88FEAC300001D
:10220000ACBD000013B5164C237DF3B9E268A1689C
:10221000019201AB8020FFF7CFFF019AA36813441E
:10222000A360E3689B1AE3606BB962B12369E2883B
:102230009A4208DD94F8C82093FBF2F102FB1133B7
:102240000BB90123237502B010BD00231A461946AD
:102250008020237502B0BDE8104002F093B900BFA2
:10226000380C00207FB500230D4601930646002858
:1022700062D100293AD108220B460DEB020108F089
:10228000BCFB002804DA802002F0E4F804B070BD42
:102290002E4C029A2260039A626004F13802A26016
:1022A0009DF90820BDF80E302575002AC4E90355B4
:1022B0000FDB802B09D9264A2648012108F0FFF8B8
:1022C000802002F0C7F82846DEE713B1C4E90333E3
:1022D000DCE7FFF7EBFC0028D5D0E28823699A42BF
:1022E000D4BFE260E360FFF78DFFCFE7174CD4E97E
:1022F0000212002A01AB05DC024608F07EFB002832
:10230000C4DAC0E708F079FB002804DA802002F084
:10231000A1F83046B8E7019AA3681344A360E368C4
:102320009B1AE360002BB1D104F13803A360FFF7DF
:10233000BDFC0028D7D1A6E78028A7D1034BDA68D7
:10234000002AD0D11B7D002BCDD19FE7380C002077
:1023500011C40000ACBD0000054B064A9A62064A53
:10236000DA62064A1A63064A58629A610020704788
:10237000380C0020CD1E0000151B0000B51B00000E
:10238000551B00002DE9F34104464C4D4C484FF0DD
:10239000FF334FF0FF3205F05FFD95F8B8306BB1B9
:1023A000484A4948022108F08AF86FF07704444807
:1023B00005F0CAFD204602B0BDE8F0816B6A6BB93A
:1023C00000F0D4F8FFF7C8FF6B6A3BB93F4A3E48BC
:1023D000012108F074F84FF0FF34E8E73C482C6224
:1023E000E8616E6A02F010FA01F096FF041EDEDB6F
:1023F00000F090FB041EDADB7378012B01D1F37936
:102400003BB9344A3048012108F059F86FF01504FF
:10241000CDE70026684685F8C830ADF802308DF863
:1024200004608DF8006001F0E7FF041EBFDB802729
:1024300068468DF8007001F0DFFF041EB7DB264907
:10244000304602F0CDF9041EB1DB2349384602F0D4
:10245000C7F9041EABDB214CDFF8848044451AD356
:10246000002002F065F8041EA1DBD5F8C4308020FE
:1024700043F00103C5F8C43002F05AF8041E96DB9D
:10248000D5F8C43043F48033C5F8C430012385F84F
:10249000B83000248BE7276A0026227FF3B29A42E5
:1024A00001D82434DAE707EBC30257F83310107968
:1024B00002F096F901360028EFD08CE7380C0020A6
:1024C000600200202AC40000ACBD00004DC4000022
:1024D000D91C000072C40000652200006C030020BB
:1024E0009003002030B51F4B8BB005AA03F11005F7
:1024F00018685968144603C40833AB422246F7D122
:102500001B7823701022002101A809F0EAF9122299
:102510000021154809F0E5F9102101A808F06EFB2B
:1025200000281BDD0828B8BF0820093801AB0E4978
:102530001A18002012F8013F0AAC04EB131403F040
:102540000F0328336B44013014F8144C13F8143C77
:102550000C7008284B7001F10201EBD102480BB05E
:1025600030BD00BFACC40000B81900202DE9F04F09
:102570008A4B87B093F800A000AFBAF1000F04D0E7
:1025800087481C37BD46BDE8F08F854C00264FF0CC
:102590000119FE603546B04623783BB9814B0234C1
:1025A0009C42F3D17D4A01231370E9E76378052B40
:1025B0001DD8DFE813F0AF000600F000AF001F00E9
:1025C0005000402387F810A07B8287F814A007F101
:1025D000100001F0E5FE40B108237B8207F11000F6
:1025E00001F0DEFE08B1A7F812A07B8AE371237820
:1025F0001C44D1E7E378002BF9D1A37813B3FB682F
:102600000133DBB2FB60F2E76B689C421CD02435DF
:10261000654B9D42F8D36D4688B06A46634BC2E96C
:102620000534032342F8103F614800234FF4C251A0
:10263000FEF7ACFFAD465E485E4A012107F03FFF62
:1026400000209EE75C4DE3E7AB68002BD7D0F9682C
:1026500020469847D3E7002D5AD1584A54480121C3
:1026600007F02DFFE7E72B6AA07803EBC2010B7997
:10267000984247D14FF0010BE07800F00300387525
:10268000207994F805C040EA0C20788294F9020081
:1026900000285FFA8BF328DA0BF110004FF0010CE1
:1026A0000CFA00F010EA090F27D143F080003874CB
:1026B00007F11000C7E90031BA6001F071FED7E9F7
:1026C00001123B68C8B93A7CA27012F0800F18BFA3
:1026D00010330A7118BFDBB24FF0010214BF9A40E9
:1026E00002FA0BF249EA020981E7012000FA0BF035
:1026F00010EA090F01D11846D9E70BF1010BBBF124
:10270000100FB9D101322B7F9A42ACD32C4AA5E7E6
:102710000022F8E7032E24D1FFF7E4FE8346A0B1A0
:10272000FDF712FD034680B1102806D0B860254A97
:102730001F48022107F0C3FEBB68102BA8BF10235F
:102740001A465946A01C09F0BEF823786FF0020122
:10275000E218091B04EB5303D14209D50136F6B246
:1027600045E7002EF1D1B8F1000F08D1164A75E700
:1027700002F801AC13F8010902F8020DECE7A4EB32
:10278000080388F80230C3F3072388F80330FB6896
:1027900088F80430E2E7A04629E700BFB719002017
:1027A000A40200206B03002090030020BDC40000A1
:1027B000A4BD0000A3C500006C030020DDC4000020
:1027C0001EC500003BC5000086C5000010B5094BC2
:1027D00000211A461C78844204D15C6814B102EBD3
:1027E000811010BD0131042903F14003F2D1002012
:1027F000F7E700BF040D00202DE9FF4150F8283C09
:1028000010F82C6C103304460AD1036950F8202CC0
:1028100098073DD5D2B9590715D5002344F8283C6F
:1028200054F8283C10330BD054E9077554F8148C35
:1028300008F02FFE002857D03248214608F00DFE40
:1028400004B0BDE8F08143F00403236103AB54F806
:10285000241C3046FFF7B0FC034640B12A4A2B48FF
:102860000096012107F03EFE6FF01503D6E7039AAC
:1028700054F8243C134444F8243C54F8203C9B1A5C
:1028800044F8203C54F81C3C134444F81C3CC7E773
:1028900003AB54F8241C304601F0FEFE034600282A
:1028A000DCD1039D54F8243C2B4444F8243C54F8D8
:1028B000203C5B1B44F8203C54F81C3C2B4444F85F
:1028C0001C3C002DA9D0304601F0A4FFB5FBF0F36D
:1028D00003FB1055002DA0D154F8203C002B9CD0B8
:1028E000304601F02FFF9BE744F8180CA4F11000CC
:1028F00005F0ACFB002DA3D0424639463046A84730
:102900009EE700BF50080020D1C50000BCBD0000FC
:102910004B1E012B73B506460D4614D8FFF756FF24
:10292000044690B9012D0ED101AB01220DF1030136
:10293000304601F0B1FE019B002BF5D10C4A0D4849
:10294000012107F0BCFD02B070BD08F0A2FD04F14A
:102950002C0108B1012D05D1084602B0BDE8704038
:10296000FFF74ABF044802B0BDE8704008F075BDEB
:10297000EEC50000BCBD0000500800202DE9F74F57
:10298000054601911646984607F0AAFE002871D127
:10299000EFF311832022009382F31288BFF36F8F2D
:1029A000DFF8D890834600220023484605F082FBDA
:1029B000A0B9DFF8CCA04FEA8B170AEB8B1BDBF832
:1029C000044014F1100F20D12E4A2F482B4601212C
:1029D00007F07EFD484605F039FB0DE00BF1010BD9
:1029E000BBF1040F09F14009DDD1284A2648012135
:1029F00007F065FD6FF00B04009B83F31188BFF3B4
:102A00006F8F204603B0BDE8F08F0C99019BCBF887
:102A100014100D99CBF81000CBF8181028466FF061
:102A20000F01CBE902360AF80750CBF83C80CBF80F
:102A3000041001F0EFFE68B1284601F0EBFEB6FB92
:102A4000F0F101FB10662EB1DBF83C1041F00401FF
:102A5000CBF83C1018F0020F07D007F12C010C48FE
:102A6000514408F0FAFC0024C6E7284601F06AFE4B
:102A70000446C1E76FF00F04C3E700BF200D00203C
:102A8000040D002023C60000BCBD000008C60000E5
:102A90005008002010B5EFF31184202383F312882F
:102AA000BFF36F8FFFF792FE50B14368103307D129
:102AB0006FF08B03436000F12C01044808F0CDFC5B
:102AC00084F31188BFF36F8F10BD00BF5008002042
:102AD000F8B50E4C04252027EFF3118687F31288F2
:102AE000BFF36F8F6368103307D16FF08B03084813
:102AF000636004F12C0108F0B0FC86F31188BFF389
:102B00006F8F013D04F14004E6D1F8BD040D0020B3
:102B10005008002070B50A4C0A4E00253146204668
:102B200008F07FFC0122A4F110001146013508F0E5
:102B30003CFC042D04F14004F0D1002070BD00BF26
:102B4000300D0020F92700000169012381F84B3086
:102B50000B6833B191F849301BB10248083108F0D5
:102B60007CBC7047500800200169012381F84A307D
:102B70000B6833B191F848301BB10248083108F0B6
:102B80006CBC70475008002070B50569EFF31186E2
:102B9000202383F31288BFF36F8FD5F8900007F0DE
:102BA000A8FB044686F31188BFF36F8F30B1044849
:102BB0000022002305F1180105F01AFC204670BD23
:102BC0005008002070B5012382F8483013680D4684
:102BD00014463BB192F84A3023B10E4802F1080185
:102BE00008F03BFCD4F89030DA885B899A4205D132
:102BF0007DB904F1180140F6CD4204E004F118015A
:102C0000002DF8D00022BDE870400248002305F0F6
:102C1000EFBB70BD5008002070B504460E46017928
:102C20001548154607F038FD10B394F90020637875
:102C3000002A16DB202B04D0222B0ED06FF085004B
:102C40000AE02B681A6840F8102C9A8820F80C2C9F
:102C50009B7900F80A3C002070BD638800F8093CAD
:102C6000F9E7212BEAD11038072328603360F2E717
:102C70006FF01200F0E700BF040E002008B5014617
:102C8000034807F017FD10B1012300F8073C08BD09
:102C9000040E00200D4A03460021A0F848101068D9
:102CA000C3F8940090889279A3F8980083F89A204A
:102CB00083F89C1083F89B10A3F89E1083F8A01053
:102CC000402203F14C0008F00CBE00BFEDBD000037
:102CD00010B504690023C4F8A8300C4BC4F8A40054
:102CE000596804F1A80269B9C3E9002204F1080097
:102CF000074908F096FB04F11800064908F0BDFBEF
:102D0000002010BD0A605A60F0E700BF040E0020EA
:102D10000BA70000CD2D000030B54FF40033426802
:102D200005690D4C85B042F2A100CDE901030023F5
:102D300085F89D30106AADF80C1000790A2201A9BF
:102D4000FFF73AFA95F89D3023B9012008F002FA0E
:102D5000013CF7D105B030BDA186010073B504690F
:102D60008DF80710002384F848302025EFF31186F2
:102D700085F31288BFF36F8F0122D4F890000DF114
:102D8000070107F0B6FA86F31188BFF36F8F0128A9
:102D90000AD008F07EFB10B994F8A1306BB9094B4A
:102DA0001A780AB901221A702122002304F11801AD
:102DB000054805F01DFB02B070BD0021212008F080
:102DC00020FCD3E7CA19002050080020F0B5D0F845
:102DD0008C305B681B6A1F7D85B00546384607F05E
:102DE0007FFC064650BB95F886303BB3A86F014682
:102DF000C38831F80A2F9B1A9BB2B3F5806F28BFA6
:102E00004FF4806303AA07F025FA0446B0B18306A5
:102E1000A5F1180308BF00F1FF3485F83060019375
:102E2000074B03990093224602233846FFF7A6FD7D
:102E3000A86F224600F10A0107F042FA05B0F0BD82
:102E4000C52B000037B514460A1E054621DDD4F80F
:102E50008C0004F14C0107F04CFA012384F849304E
:102E600023683BB194F84B3023B1114804F10801B9
:102E700008F0F3FAD4F88C209388918912695B1AD0
:102E80009BB2D31A3F2B04D8012384F8A03003B09F
:102E900030BD94F89E30002BF9D0064B009301947E
:102EA0000123402204F14C012846FFF767FDEEE7BD
:102EB00050080020452E0000F7B50D4601461D487C
:102EC00007F0DEFB044610B30646691E56F8A43927
:102ED0005F6805291BD8DFE801F01C1A031C2226B5
:102EE00010F8061C99B9012300F8063C3B6A3246EB
:102EF000187BFFF7A7FF14F85C2C42B93B6A187DDA
:102F00000D4B0093019602231146FFF737FD03B0E6
:102F1000F0BD304603B0BDE8F040FFF7BBBE012373
:102F200004F8053CF3E710F8053C002BEFD0002334
:102F3000F6E700BF040E0020C52B000037B5094D91
:102F40000949002400944FF0FF334FF48062284673
:102F500005F010FA0549284608F0A1FA204603B00A
:102F600030BD00BF50080020401D002067C6000093
:102F70002DE9F047064600AF0C46002936D0E94659
:102F80008AB0D1E90012A3686D462148A8464FF0E7
:102F9000050AC5E90501C5E9072348F810AF1D4832
:102FA000424600234FF42151FEF7F0FACD46D4E912
:102FB00003126369AD461848C5F810A0C5E90501BC
:102FC000C5E907231348002342464FF42151FEF779
:102FD000DDFACD46E369114A0E48012107F078FA7F
:102FE000A3690F4A0B48012107F072FA012E07D19D
:102FF000EFF305830B4A0748103B314607F068FAA8
:103000002146304604F04CFDBD46BDE8F08700BFC8
:1030100070C600008CBD00009FC60000CEC6000038
:10302000DDC600000BC7000030BFFFF7FDBF00BFCB
:103030002DE9F0410B4EDFF8308006EB0807CC1B82
:10304000054632460949204608F03DFCA019424693
:103050000021083C08F045FC2C6707F10800BDE89A
:10306000F08100BF0000000004000000D4BD00009B
:10307000054B5A699B689A421FBF044A536843F044
:1030800080535360704700BF7C19002000ED00E0C2
:1030900070B5294C06460D462848294907F035FCED
:1030A000A36AD9043CD52548264907F02EFC1720F1
:1030B000A36A1A0504D52148234907F026FC1820E5
:1030C0001D4CA36A9B0512D51C48204907F01DFC26
:1030D000A36BA26A100409D51D4A1848012107F004
:1030E000F7F91EB1A36A23F40043A3621920124C1E
:1030F000A36A590504D51148164907F006FC1A20A1
:10310000A36ADA050ED50D48134907F0FEFB1B2014
:10311000094A936A43F47F43936200232B7070BD86
:103120001620C5E7A36A9B04F2D504480B4907F0B3
:10313000ECFB1C20ECE700BF00ED00E08CBD0000C4
:103140001EC7000034C7000045C7000058C7000074
:1031500071C7000086C70000A1C70000B9C7000002
:1031600010B5204C2049214807F0CFFBA36A9901F4
:1031700036D51E481E4907F0C8FB1E20A36ADA0197
:1031800004D51A481B4907F0C0FB1F20154CA36A41
:103190001B0304D51548184907F0B7FB2120A36A83
:1031A000590304D51148154907F0AFFB22200D4CF7
:1031B000A36A9A0304D50D48114907F0A6FB232002
:1031C000A36ADB0304D509480E4907F09EFB2420BF
:1031D000044A936A6FEA03436FEA1343936210BD94
:1031E0001D20CBE700ED00E0E8C700008CBD00002B
:1031F00000C8000013C800002DC800004BC8000024
:1032000070C800008AC800002DE9F843364D80469A
:10321000894636483649174607F077FBAB6ADE0623
:1032200027D53449314807F070FB1124AB6A1D07DC
:1032300004D531492D4807F068FB12242A4DAB6AAA
:10324000980718D52D49294807F05FFB6E6BAB6ACC
:10325000190646D52A4A25483346012107F038F990
:10326000B9F1000F03D0AB6A23F08003AB621324E3
:1032700003E01024DAE76FF015061B4DAB6ADA079E
:1032800004D52049194807F040FB1424AB6A9B067B
:1032900004D51D49154807F038FB1524124B9A6ACE
:1032A000D50602D49A6A90070AD55B68190507D536
:1032B0004146304600F026FA10B180F30988022416
:1032C000094B9A6A920642BF5A6A22F400525A6225
:1032D0009A6A42F0FF029A6200233B702046BDE8E2
:1032E000F8836FF01506C2E700ED00E08CBD00002A
:1032F000B5C80000CBC8000045C70000FEC80000EC
:1033000016C900002CC90000B9C700002DE9F04122
:10331000664B8AB0D3F8048000AF0446C8F30805B2
:10332000002686F31188BFF36F8F02F07F43B3F15D
:103330007F4F07D102F00C03082B12D15C495D4886
:1033400007F0E3FA002634460023FB71EB1E092B3D
:1033500000F28A80DFE803F00A80837C888888880E
:10336000888610074CBF0C460126EDE752495148AC
:103370004E4D07F0CAFA0023FB71EB6A9A0705D598
:103380004E494C4807F0C1FA002332E0EB6A002BAB
:1033900001DA4B49F5E7EB6A5B00F5D54949454849
:1033A00007F0B3FA6B69A26943F480736B61BFF3F2
:1033B0004F8FBFF36F8F6B6932F8022C23F4807349
:1033C0006B61BFF34F8FBFF36F8F4DF602739A425D
:1033D00008D0AB6ADBB273B3FA1D01212046FFF7B8
:1033E00013FF37E02368384A3248012107F070F8AC
:1033F0002368FA79DAB907F1080504F1200C20688E
:1034000061682A4603C2083464451546F7D17A6AD2
:10341000002E45D0C2F3080121B96FEA52226FEAAB
:1034200042227A6207F108011846FFF7A1FD28370A
:10343000BD46BDE8F081AB6A13F47F4F04D0F91D9F
:103440000120FFF725FE05E0AB6AB3F5803F9BD373
:10345000FFF786FE0346CCE7FA1D0021BEE7F91D03
:103460000020EEE719498CE7194A1A4B18F4F87F47
:10347000E8468AB018BF13466A461749C2E90513E1
:103480004FF400731384103D144BD56142F8103F84
:10349000084800234FF41151FEF778F8C54673E74A
:1034A00022F4FF7222F00102BBE700BF00ED00E052
:1034B00079C900008CBD0000A4C90000BBC9000090
:1034C000DCC90000EAC9000009CA000025CA0000E2
:1034D00060C900004BC9000049CA00000400000197
:1034E000044B5A6942F010025A615A6922F00802EC
:1034F0005A61704700ED00E0EFF30880EFF30981B7
:1035000001B57246FFF702FF01BD00BF0B4880F313
:10351000088803F0CDF9202080F3118808484FF483
:103520000461401880F30988EFF3148002210843F6
:1035300080F31488BFF36F8F00F0A4F8803300206D
:10354000C0250020084B9B6883420BD1EFF3058315
:1035500043B1064B5A6842F080525A605A6A22F4CC
:1035600000425A6205F09EBA7C19002000ED00E08E
:1035700014498A684FF030001044EFF3098C80E85A
:10358000F01F202080F31288BFF36F8F0E4F4FF093
:1035900000664A698A603E60106F0C4C2060506F74
:1035A0000023536780F3118804B5104600F00EF92C
:1035B000BDE8044002F1300090E8F01F8CF3098868
:1035C000704700007C19002004ED00E00C0E002084
:1035D0001EF0040F0CBFEFF30880EFF30980816940
:1035E00011F8021C0229FFD001B5724607F082F9DA
:1035F00001BD00BF40B2002807DB044A4109012396
:1036000000F01F00834042F82130704700E100E0E5
:1036100040B200280CDB4309064900F01F002033AC
:103620000122824041F82320BFF34F8FBFF36F8FF9
:10363000704700BF00E100E0054B420900F01F00A9
:1036400053F82220012303FA00F01040704700BF16
:1036500000E100E040B20028A8BF00F1604001F1A5
:103660000101B8BF064B4FEA4111ACBF00F5614004
:1036700000F00F00C9B2B4BF195480F800137047AE
:1036800014ED00E00F4A08B50F4B22F07F029A605C
:10369000BFF34F8FBFF36F8FD3F8882022F47002EF
:1036A000C3F88820EFF3148323F0040383F3148812
:1036B000BFF36F8F04F0E2FA05F028FB00F05CF82E
:1036C00004F020FB0000000000ED00E042F8203C88
:1036D000009B42F81C3C0A49019B42F8183C029BA3
:1036E00042F8143C21F001014FF0807342F8043C91
:1036F00042F8081C0023203A02654367704700BF68
:10370000F50D0000094A0346906870B113F1160FD9
:10371000006E05D0A0F140029A4205D8834203D240
:10372000814228BF00207047002070477C1900208C
:1037300008B51546094A0A4B9060026F1A600E469A
:1037400000F044F82C4686F309880020054B984782
:103750002046002100220023034C20477C19002032
:103760000C0E00201BA90000F50D0000014B1022DB
:103770001A61704700ED00E0044800232021C218C0
:103780000133302B82F80013F9D1704700E100E0DB
:1037900008B5EFF30583064A103B02EBC30152F86C
:1037A000330049688847BDE80840FFF761BC00BFA7
:1037B0001CBB0000024B034A0348012100F08AB8F9
:1037C000000002200000002088BE0000026E054BB1
:1037D000403A1A60044A4021C3E901121846012107
:1037E00000F082B8100E002000000B1508B503464B
:1037F0001048D0F89020C2F30722013A934207D92B
:103800000D480E4A012106F063FE6FF0150008BD59
:10381000C0F898300A6822F01F021A4342F01002E2
:10382000C0F89C208A6842F00102C0F8A020184627
:10383000EDE700BF00ED00E07CBD000060CA0000C5
:10384000F0B50E4685B01F4604460025B5420DDA98
:10385000606810B397B1431E18420AD0104A11484D
:103860002B46012106F034FE6FF01502104605B01C
:10387000F0BD1F28F2D921680B42EFD123680193D4
:1038800007F06EF8A36801A90343D0B20393FFF7D2
:10389000ADFF10F1160FE7D0421C01350C34D5E70F
:1038A00086CA00007CBD0000044B0522C3F89420AA
:1038B000BFF34F8FBFF36F8F704700BF00ED00E085
:1038C000BFF35F8F024B0022C3F89420704700BF04
:1038D00000ED00E010B5034C01232278FFF7B0FFA4
:1038E000207010BDCB19002008B50B4A00231278B8
:1038F000FFF7A6FF10F1160F07D0084A0021D2F8F3
:103900009030C3F30723984200DB08BDC2F898004B
:10391000C2F8A0100130F2E7CB19002000ED00E062
:103920002DE9F04357485849D0F890300D68C3F35B
:1039300007239D4285B000F2A180FFF7C1FF4968CF
:103940000022954201F10C011AD1504C504F2570C4
:103950006846FEF7D9F8DFF83C81DFF83C9106466F
:103960000025AE421FD1237846490020D1F890208F
:10397000C2F3072293427BDBFFF796FF00204CE067
:10398000C0F8982051F80C3C23F01F03134343F078
:103990001003C0F89C3051F8043C43F00103C0F818
:1039A000A0300132CDE7009800EB05114FEA051C6D
:1039B000CB683B40B3F5000F44D00AD8B3F5001FE5
:1039C0002ED0B3F5800F34D0B3F5801F10D0013561
:1039D000C7E7B3F1807F3ED0B3F1007FF7D150F855
:1039E0000C3088684A6806F0BBFF40F4802009E08C
:1039F00050F80C3088684A6806F0B2FF40F08850F2
:103A000040F43020039001A92078CDE90123FFF78D
:103A1000EDFE002828DA6FF0150005B0BDE8F08350
:103A200050F80C3088684A6806F09AFF40EA0800AF
:103A3000E8E750F80C3088684A6806F091FF40EAE1
:103A40000900DFE750F80C3088684A6806F088FF04
:103A500040F08270D6E750F80C3088684A6806F06B
:103A60007FFF40F08870CDE7237801332370AEE705
:103A7000C1F89830C1F8A000013377E74FF0FF306C
:103A8000CBE700BF00ED00E094BE0000CB190020A2
:103A90000000F0FF0000081100000207F0B587B039
:103AA00007460E4614460021102268461D4607F0C0
:103AB00018FF02238DF802302A46054B0193214658
:103AC0006846CDE9047605F07FFB07B0F0BD00BF86
:103AD00081A9000008B5024B1B689847002008BD6B
:103AE0001C0E0020034B044A1860937843F0020335
:103AF000937070471C0E00200001002008B5064995
:103B0000064821F00701C1F1005202F5003205F02C
:103B100064FF002008BD00BF87420020200E002067
:103B2000024B0122C3F840250020704700E001400D
:103B300020B1034B800143F001031847704700BFD9
:103B400000BE0000020600F07F0312D5082B05D14D
:103B5000010700F00F0306D50E48704710F0780FEC
:103B600012D100F00F034C2000EB43100A4B184415
:103B70007047082B05D1020700F00F0306D5074850
:103B8000704710F0780FF6D000207047044800EB23
:103B900043107047780F00202C0E00209810002052
:103BA000980F00200149024807F057BC540E00202E
:103BB000F00800200146014807F0ECBB9402002009
:103BC00002480022002304F00FBA00BF9402002034
:103BD00013B5124800F050FF114B98421AD111480A
:103BE00003F0F2FB0024104803F018FC0F491048C2
:103BF00000944FF0FF334FF4806204F0BBFB0D499B
:103C00000B4807F04CFC0C480C4907F00AFC204616
:103C100002B010BD6FF00400FAE700BFCD41000014
:103C20000000AD0BEDCC0000B4BE000080210020F0
:103C3000F0080020BCCA0000540E0020BD3D00006A
:103C400010B50E49BFF35B8F002351E8002F012A06
:103C500003D141E800300028F7D1BFF35B8F0CD1CE
:103C600051F8044C1439204606F0BBFA783004D1E0
:103C70002046BDE8104006F090BA10BD4C0E002062
:103C800038B5002464F07F00C0B2FFF75BFF013459
:103C900006F081FE082CF5D10E4D0024E0B2FFF7AE
:103CA00051FF036903B90561013406F074FE082C65
:103CB00005F14005F2D1084806F06DFE074BD3F838
:103CC0007C2212B9064AC3F87C22064806F063FE3D
:103CD000002038BDBC140020780F00202C0E0020DE
:103CE000BC1000209810002010B5054CFFF768FFAD
:103CF00020B14168204607F07BFAF7E710BD00BF0E
:103D00004402002007B500231448002201A904F052
:103D100075F8E8B1124A1348012106F04FFEFFF78B
:103D2000E3FF0E480022002301A904F067F830B138
:103D30000D4A0C48012106F041FE00200AE00198DE
:103D4000042340600374FFF735FFFFF72BFFF4E710
:103D50000198406003B05DF804FB00BF44020020FE
:103D6000C7CA0000B4BD0000E5CA00000346024A0D
:103D70000248012106F0ACBB01CB0000B4BD00003D
:103D8000022810B511D80B4A145CFFF7BBFF80B1B5
:103D9000002202740472FFF70DFF074B93F82430E2
:103DA0003BB1BDE81040FFF7FDBEBDE81040FFF796
:103DB000DDBF10BDEACC00002C0E00202DE9F04341
:103DC000A24CDFF88C9285B08046FFF7F9FE0746DB
:103DD00010B905B0BDE8F08394F825203B7C3AB9D2
:103DE000002B00F09A807968994807F001FAECE717
:103DF000042B00F27581DFE813F09000050012013A
:103E00003D015E0118F8043C33B9BB685B7A914A06
:103E10009148012106F05CFB3B7BBD68032B37D842
:103E2000DFE803F0023D63686E698C4B002232606C
:103E30007260D3F880143170D3F884147170D3F8A1
:103E40008814D3F88C0441EA00217180D3F89014CF
:103E5000D3F8940441EA0021B180D3F89814D3F840
:103E60009C3441EA0323F3800823EB6030687168D7
:103E70007B4B03C311462B68687A984796F900304C
:103E8000002B08DBF38833B1A4F88C3201F03EF943
:103E900079684846A9E70023A4F88C32F8E76B7FDD
:103EA000002BF5D02B7F002BF2D000264FF0FF32F5
:103EB0006C486E774FF0FF332E7706F081FD6B690B
:103EC00001936B68CDE9023601A9687A00F02AFEF9
:103ED000654A9042034604D0644A5F48012106F0D7
:103EE000F7FA604806F06EFDD2E72B680121687A88
:103EF0009847CDE7AB7A6BB9EB7F5BB959484FF088
:103F0000FF324FF0FF3306F05BFD01F005F9554835
:103F100006F058FD2B680221E9E73B7A042BB7D85D
:103F2000DFE803F059032367730000F065FD0546E1
:103F30000028ADD100F0F8FCBFF35B8F4C490123A2
:103F400051E8002F002A03D141E800300028F7D1C2
:103F5000BFF35B8F9CD141F8085C41F8105CE069CD
:103F60006361143906F0C2F892E7002565F07F001E
:103F7000C0B2FFF7E7FD037A13B1407A01F02EFAE1
:103F80000135082DF2D194F854311BB194F8550144
:103F900001F024FA0025E8B2FFF7D4FD037A13B14B
:103FA000407A01F01BFA0135082DF4D194F87432EF
:103FB0001BB194F8750201F011FA002000F000FD29
:103FC000012384F825302368002B3FF461AF0021E2
:103FD000022098475CE7002584F8255001F066F937
:103FE000FFF72EFE2368002B3FF452AF2946042032
:103FF000EFE7002A3FF44CAF00F008FD2368002BE8
:104000003FF446AF00210520E3E72368002B3FF48F
:104010003FAF002A3FF43CAF00210620D9E708F16A
:1040200010054FF0FF334FF0FF32284606F0C8FC72
:10403000FFF726FE284606F0C5FC58F8283C002B62
:104040003FF426AF00210120C3E700BF2C0E002063
:10405000440200201CCB0000B4BD000000700240F0
:10406000300E0020640E00200000AD0B42CB00009B
:104070004C0E002094F8743263B1012584F8895203
:1040800084F88852FFF73EFE60B9184A184829465E
:1040900006F094FC58F8283C002B3FF4F9AE0021C0
:1040A0000A2096E7134A057405738260FFF782FDC4
:1040B000FFF778FDEEE7104A0D48012106F07EFC7F
:1040C00006F0B7FF01F0F2F800F024FCFFF70CFE59
:1040D000FFF7D6FD06F0A6FF084800F0CDFCD7E6B6
:1040E000074A0348012106F0F3F9D1E668CB000046
:1040F000B4BD0000981000207CCB0000CD41000032
:1041000093CB0000F7B5877806463846FFF71AFDCF
:104110003B06F47805461DD554B1032C06D0284A39
:10412000284800972346012106F0DCF903B0F0BDD2
:10413000FFF7E8FD03460028F8D00122AC770274AF
:10414000032202739D60FFF735FD03B0BDE8F04028
:10415000FFF728BD54B1012CE1D1FFF7D3FD034691
:104160000028E3D06C7704740473EBE7FFF7CAFD13
:104170000028DBD0B278144B12F0800F02F0080157
:1041800011D041B1D3F8A836EB60012303740223A8
:1041900003738560D7E702F00F02142101FB02339D
:1041A000D3F80836F0E711B1D3F8A837ECE702F0FE
:1041B0000F02142101FB0233D3F80837E4E700BFF4
:1041C000ABCB0000B4BD000000700240F0B514227B
:1041D0008BB0064600210DEB020007F082FB33781E
:1041E000013B052B21D8DFE803F08B0314147B1669
:1041F00003238DF81C300024FFF784FD0346A0B193
:10420000047400F10802DDE9070182E803001846A2
:1042100026E00423EDE7B7783846FFF793FC837A6E
:10422000054623B1013B022B54D90BB0F0BD3B0630
:10423000F4781CD54CB1032CF7D0324A32480097A1
:104240002346012106F04EF9EFE7FFF75BFD034639
:104250000028EAD00122AC770274032202739D6029
:10426000FFF7A8FC0BB0BDE8F040FFF79BBC54B1D2
:10427000012CE2D1FFF746FD03460028D5D06C772C
:1042800004740473EBE7FFF73DFD04460028CCD02F
:1042900002230127037307748560B07805F10C01D0
:1042A00006F0C7FB034620B1184A1748394606F006
:1042B0000FF9174AE968B2F88C328B4206D95B1ABB
:1042C000A2F88C3200F022FF2046C9E70023A2F8B2
:1042D0008C32F9E730460BB0BDE8F040FFF712BF73
:1042E00003A800F0F1FE9DF80D30052B04D19DF8D8
:1042F0000C3013F0600F98D0064B079301247BE736
:10430000022479E7ABCB0000B4BD0000D7CB00009E
:104310002C0E0020980F002038B5164D95F824403B
:104320002CBB05F1380006F0ADFF204601F0A8F9DE
:1043300022460121E8612720FFF78CF906F072FE82
:10434000FFF79EFC044610B9012385F824300A4B80
:104350001B680BB1FFF726FC4FF08043D3F83834CD
:10436000DB0702D50020FFF70BFD204638BD0024F7
:10437000FBE700BF2C0E002094020020074B93F8AF
:1043800024203AB193F82530002B14BF00206FF0A1
:10439000120070476FF01200704700BF2C0E002013
:1043A00008B50378027903F00F0142B991B10D4AC3
:1043B00001210D4806F002FB4FF0FF3008BD08292F
:1043C00001D90A4AF4E7012A04D11B0707D4084A95
:1043D0000221EEE713F00800F0D0064AF8E70020CB
:1043E000ECE700BFF7CB0000B4BD000016CC000026
:1043F00035CC00004BCC000038B5134B93F824307B
:104400000446EBB105782846FFF79CFB88B145725E
:1044100023798372638843602078618810F0080FE5
:104420000AD14B1E0B4207D0084A0948012106F069
:10443000C5FA6FF0150038BD06F0F6FA0020FAE76D
:104440006FF01200F7E700BF2C0E002068CC0000D0
:10445000B4BD000038B5154B93F8242005460AB3C7
:1044600093F82530F3B1FFF76DFB044610B96FF0F8
:10447000150038BD817A01290FD007D902390129E9
:1044800007D96369A3610020E060F2E700F04AFE0B
:10449000F7E7284600F0ECFDF3E7054A054806F08B
:1044A0008DFAE4E76FF01200E3E700BF2C0E002066
:1044B00090CC0000B4BD000038B50E4B93F824201A
:1044C000054682B193F825306BB1FFF73BFB68B12D
:1044D00015F008040AD1284600F0ECFD284600F04B
:1044E000B5FF204638BD6FF01200FBE76FF01500F6
:1044F000F8E700BF2C0E002038B50C4B93F82420B1
:1045000005460C4662B193F825304BB1FFF71AFB14
:1045100048B144B1284600F0B3FD2070002038BDFA
:104520006FF01200FBE76FF01500F8E72C0E00208B
:1045300070B5134E96F824300446C3B1FFF702FB62
:104540000546B8B1230705D4204600F0B3FD204648
:1045500000F07CFF2B7A83B901232B7296F825306B
:104560000BB9002070BD204600F038FFF9E76FF06E
:104570001200F7E76FF01500F4E76FF07700F1E74E
:104580002C0E00202DE9F043DFF8F4801E4698F849
:10459000243085B0074689461546002B6DD098F823
:1045A0002530002B69D003060BD5FFF7CBFA044664
:1045B00038B1037A5BB9334A33483B46012105F0F1
:1045C00087FF6FF01504204605B0BDE8F0834FF07B
:1045D000FF334FF0FF3208F1380006F0F1F9A37F06
:1045E00033B108F1380006F0EDF96FF00A04EAE79C
:1045F000A37A05B37BB30123A3774FF0000801A989
:104600003846CDE90195CDF80C8000F08BFA1F4AB1
:10461000904203462DD084F81E800EB1C6F800806B
:104620001B4A1948012105F053FF6FF00404194893
:1046300006F0C8F9C7E7E27F02B1E577002BDAD1CF
:1046400000F076FD8742D6D000F066FD114806F0F6
:10465000B9F90024B7E7B8F80A309D42F0D2626891
:10466000B5FBF2F302FB1353002BE9D10123E377EF
:10467000E6E706B135600024D9E76FF01204A2E73F
:104680002C0E0020B2CC0000B4BD00000000AD0B29
:10469000D1CC0000640E00202DE9F0411D46254BD1
:1046A000174693F8242080460E46002A3FD093F800
:1046B0002530002B3BD010F0800F0ED101B967B927
:1046C0004046FFF73FFA044638B1037A43B91A4A25
:1046D0001A484346012105F0FBFE6FF0150013E078
:1046E0004FF0FF3316484FF0FF3206F069F9E368E8
:1046F0009F42B84628BF984646B93FB905B12B60DE
:104700000F4806F05FF90020BDE8F081A16942463C
:10471000304607F0D8F8A3694344A361E368A3EBEC
:104720000803E360002DEBD0C5F80080E8E76FF0E8
:104730001200E9E72C0E0020B2CC0000B4BD00004E
:10474000640E002070B5224D95F824300646002BEB
:104750003AD095F82530002B36D003060BD4FFF75E
:10476000F1F9044638B1037A43B91A4A1A48334674
:10477000012105F0ADFE6FF0150070BD4FF0FF3365
:104780004FF0FF3205F1380006F01AF9E368B3B9CB
:10479000012663692677A361637F83B1FFF7B2FACD
:1047A00030B905F1380006F00DF96FF00B00E4E7C1
:1047B000067484600673FFF7FDF9FFF7F3F9074805
:1047C00006F000F90020D8E76FF01200D5E700BF2F
:1047D0002C0E0020B2CC0000B4BD0000640E0020FE
:1047E00010B5084B93F824300C462BB1FFF7AAF90B
:1047F00028B10460002010BD6FF01200FBE76FF0DD
:104800001500F8E72C0E0020014B1860704700BF20
:104810002C0E002008B5074B93F8243023B1FFF786
:1048200091F920B1406808BD6FF01200FBE76FF00E
:104830001500F8E72C0E0020064B10F0800FA3F1B6
:10484000D80208BF134600F00F00182202FB003008
:10485000704700BFD4170020EFF31180202383F3AB
:104860001288BFF36F8F0A4BD3F8001C032261B983
:1048700049F27531C3F8001CC3F8142DC3F8001CAD
:1048800080F31188BFF36F8F7047C3F8142DF7E7DB
:1048900000E00640EFF31180202383F31288BFF37A
:1048A0006F8F0A4BD3F8001C61B949F27532C3F817
:1048B000002CC3F8141DC3F8002C80F31188BFF33B
:1048C0006F8F70470022C3F8142DF6E700E0064012
:1048D00008B54FF08053D3F830310D2B01D1FFF7DD
:1048E000BBFF0B4B0122C3F80025D3F800241205AF
:1048F000FBD54FF40062C3F800244FF08053D3F887
:1049000030310D2B03D1BDE80840FFF7C3BF08BD10
:1049100000700240024A00231360024A137070477D
:10492000B4180020D0190020F8B51E4F4FF40063D2
:104930004FF08054C7F80034FFF7CAFFD4F8303185
:104940000D2B04D1184D2B7803BBFFF785FF154BBA
:104950008022C3F81C250122C3F83025134B40F2F6
:10496000FF121A60124A00231360124A1370124A8F
:104970001370124B02221A704FF08053D3F830316B
:104980000D2B0ED1BDE8F840FFF784BF0026C7F815
:104990000065FFF79DFF2E70D4F830310D2BD6D176
:1049A000D3E7F8BD00700240F8010020B0180020E5
:1049B000AC180020CC190020CE190020D0190020FE
:1049C000094B002210B51A70084A094B094C0028FF
:1049D00008BF1346C4F800332720FEF70BFE01235F
:1049E000C4F8043510BD00BFCF190020FDFFDF0162
:1049F000FDFFFF0100700240034B1878012894BFAF
:104A000000200120704700BFD019002010B54FF0E2
:104A1000FF324FF0FF33154803F04CFBEFF31181E9
:104A2000202383F31288BFF36F8F114B1B7803F0A1
:104A3000FF0483B10F4BD3F8002412F400720AD1A3
:104A40000120C3F82C05D3F82C05D3F80004800509
:104A500002D5C3F82C25002481F31188BFF36F8F92
:104A6000024803F0F3FA204610BD00BF7402002094
:104A7000CF19002000700240F8B51C4B1C7894BB85
:104A80001B4A106001221A7040F2FF17264664F09C
:104A90007F0514F0080FEDB214BF394640212846B7
:104AA00005F0C2FF2846FFF7C7FE0134092C8675C2
:104AB00006730661EBD1002440F2FF17254614F07F
:104AC000080FE6B214BF39464021304605F0ACFF6E
:104AD0003046FFF7B1FE0134092C85750573056179
:104AE000EDD10448F8BD0448FCE700BFD019002010
:104AF000B41800200000AD0B0500AD0B084B10F002
:104B0000800F00F00F0114BFD3F81025D3F814253F
:104B100001238B40134214BF01200020704700BFC7
:104B2000007002402DE9F8430246EFF3118720237D
:104B300083F31288BFF36F8F030703D1184B1B78E1
:104B4000834229D1174B184E1C683568104605F072
:104B500063FFE443A4B24FF001092C4309FA00F8C3
:104B600014EA08041AD11046FFF766FE80F80C908C
:104B7000034607C91C6183E807009C750B4B0C4872
:104B800045EA080580223560C3F8042187F31188BF
:104B9000BFF36F8FBDE8F8830648F7E70648F5E7EF
:104BA000CE190020B0180020AC18002000E100E071
:104BB0000000AD0B0A00AD0B0B00AD0B10F0080FA1
:104BC000074B06D0D3F8C00410F4803F18BF002074
:104BD000704700F00F0000F5947053F82000704704
:104BE000007002402DE9F04FAB4BAC4FD3F854218D
:104BF00085B0DAB10022C3F85421D3F80413890236
:104C000014D58DF80C20D3F82025ADF80E20D3F85C
:104C1000C034002B3B6814BF4FF001224FF4807268
:104C200013433B609E4B03A81B6898479A4BD3F8ED
:104C3000604134B10022C3F86021D3F86C44C3F85A
:104C40006C44D3F828214AB10022C3F82821954B9F
:104C5000187805F0E1FE012383401C43DFF8488209
:104C6000924E98F8005098F9009015F0080141D143
:104C7000B9F1000F05F00F032CDA8D4A52F823002A
:104C800010B342F823101422534303F1804303F579
:104C90001C33D3F80836874A117803F001034B40E0
:104CA0001370854803F0D2F92846FFF7C5FD837DD0
:104CB000032B37D1284605F0AFFE012303FA00F09D
:104CC000336823EA00033360DFF8D4A101254FF0F5
:104CD00006095DE0794A52F823000028F4D042F832
:104CE00023101422534303F1804303F51C33D3F8FC
:104CF0000837D0E7B9F1000F674B09DBD3F8502133
:104D0000002AE1D00022C3F85021D3F8A837C2E727
:104D1000D3F82C21002AD7D00022C3F82C21D3F8B5
:104D2000A836B8E7037BDBB9284605F075FE0123FA
:104D300003FA00F03368B9F1000F23EA000333608F
:104D400001DA882DC0D106238DF80C3000238DF8B0
:104D50000F30534B8DF80E501B6803A89847B3E7EC
:104D6000002DB1D14C4B0122DA64ADE794FAA4F0E6
:104D70003A68B0FA80F005FA00F31A430F283A6057
:104D800024EA0304326840F39D80134200F0AA80B5
:104D9000002CEBD1404BD3F800215AB1C3F80041AD
:104DA000474B1C703F4B1C70012303933C4B03A8E3
:104DB0001B689847384BD3F85821002A2ED0002280
:104DC000C3F85821D3F80044C3F80044E30508D5DC
:104DD0003B4B01221A7002230393314B03A81B683B
:104DE0009847A50508D5364B00221A700323039374
:104DF0002B4B03A81B68984760050FD5304B1A78DA
:104E000062B100221A70244B0122C3F808259A656A
:104E100004230393224B03A81B6898471E4BD3F827
:104E20005C3103B3244B9B681BB998F800305906DA
:104E300019D0194B0022C3F85C21D3F88034194AE9
:104E400023F07F031370336823F0011333603B6852
:104E500023F4803343F001033B6005230393104B9D
:104E600003A81B68984732683B681A4200F0938099
:104E700011480022002303F01DF9002840F08B8028
:104E8000054BD3F82C35002B00F0A8800A4805B05C
:104E9000BDE8F04F03F0DAB800700240B01800200F
:104EA000B4180020CE190020CD190020AC18002025
:104EB00008710240CC1900207402002030710240B9
:104EC000CF19002013407FF463AF60F07F018DF8AD
:104ED0000C908DF80E108DF80F30DAF8003003A822
:104EE000984755E7A0F110018DF80C908DF80E1041
:104EF0008DF80F50F1E749F080052846FFF79CFC3C
:104F00004368B0F814B001689B4528BF9B4601F088
:104F10006043B3F1005F044604D052485A4606F09D
:104F2000D2FC5049226863685A442260A268A3EB0D
:104F30000B03D20768B2636005D5BBF1000F04D143
:104F40000023237301E0002BFAD0012202FA09F9B1
:104F50002AEA09033B60236988F800505B4415F096
:104F6000080F2361404B6FD1002805F00F054FF06B
:104F7000140000FB0530A9BF0A3503EB8503C0F818
:104F80000017C0F804B7AFBF43F82520C0F80016DB
:104F9000C0F804B65A6005B0BDE8F08F61464FF026
:104FA000000B70454AD1003A18BF0122BCF1000F36
:104FB00046D0584544D9012202FA09F223EA0203F5
:104FC000336006238DF80C30284B8DF80E500221EB
:104FD0001B68A1758DF80F1003A898473368D7F8A0
:104FE00000A013EA0A093FF451AF19F0012214BFDF
:104FF00092FAA2F999FAA9F9B9FA89F9B9F10F0F58
:1050000001937FF678AFA9F11005EDB22846FFF7BE
:1050100013FC04462846FFF7D1FD6268B4F814E09B
:10502000D4F800C0019B9042B8D800EB0C0B121AC8
:10503000C4F800B0614662608346B2E70022B5E77B
:1050400068B2002A81D17BE70028B5BFC3F8A0165B
:10505000C3F8A017C3F8A4B6C3F8A4B7B4BF5A6284
:105060009A6498E7BC16002000700240B418002033
:10507000024B40F48070C3F818057047007002407E
:10508000030713D400F00F0310F0800F084A0BBF82
:1050900003F5887303F5847302EB830252F823004F
:1050A00008BF5068003818BF0120704700207047C3
:1050B00000700240034BC3F80C0540F48070C3F845
:1050C0000C057047007002400023036043600E4BE4
:1050D000D3F880240270D3F884244270D3F8882453
:1050E000D3F88C1442EA01224280D3F89024D3F8FA
:1050F000941442EA01228280D3F89824D3F89C3495
:1051000042EA0323C380704700700240014B012232
:10511000DA64704700700240014B01221A65704743
:1051200000700240014B01225A6570470070024036
:10513000014B1878704700BFCE19002010B5024609
:10514000EFF31184202383F31288BFF36F8F05F0F0
:1051500063FC0B49012303FA00F00B6823EA000308
:105160000B6012F0080101BF02F00F02054B02F5BF
:10517000947243F8221084F31188BFF36F8F10BD2F
:10518000B018002000700240F7B50146EFF311851A
:10519000202383F31288BFF36F8FFFF74DFB064682
:1051A000084605F039FC012211F0800F02FA00F2E6
:1051B0002D4818D1036832EA03040AD00846FFF7E5
:1051C000BDFF0323B37585F31188BFF36F8F03B061
:1051D000F0BD2649347323EA020303600B6823EA17
:1051E00002030B60EDE70B0715D48029204B2FD06D
:1051F00001F00F0404F2DA346400C3F80048D3F875
:105200000448D3F80478E4B244F002043C43C3F801
:105210000448D3F80438154F04683B6864EA030C6B
:105220001CEA020FCFD013433B60002333730323E8
:10523000B3758DF807300F4B8DF8061024EA020481
:10524000062204601B688DF8042001A89847BAE77D
:1052500040F2B474C3F80048D3F80448D3F8047893
:10526000E4B244F00404D1E7AC180020B0180020E8
:1052700000700240B418002038B50446094D4FF0C4
:10528000FF324FF0FF33284602F014FF2046FFF7AD
:105290007BFF284602F0DAFE034B8022C3F804218C
:1052A00038BD00BF7402002000E100E0F8B54FF007
:1052B000FF324FF0FF332A4802F0FCFE294B8022D8
:1052C000C3F884212720FEF7B7F998B1264E274B63
:1052D00034681B68240C24041C43012754BB244D50
:1052E00040F2FF1333602720C5F80445FEF790F91C
:1052F000C5F800431F4A13788BB11D4B0021C3F83A
:1053000008110121C3F80026C3F804165960D3F828
:1053100008110029FBD00021C3F808111170144BAB
:105320000022C3F800250E4802F090FE124B012225
:105330001A70F8BD94FAA4F5B5FA85F50F2D284634
:10534000C6BFA5F11000C0B240F08000030701D431
:10535000FFF71AFF07FA05F524EA0504BEE700BFC8
:105360007402002000E100E0B0180020AC1800201A
:1053700000700240CC190020D019002010B504465E
:105380004FF0FF324FF0FF33114802F093FE2046FA
:10539000FFF7FAFE04F00F02012393400D4A14F0C8
:1053A000800F14BFD2F81015D2F814156FEA03035A
:1053B00015BF0B400B40C2F81035C2F81435044835
:1053C00002F044FE044B8022C3F8042110BD00BF4C
:1053D000740200200070024000E100E070B5044655
:1053E000FFF78CFB68B904F00F02012514F0800F61
:1053F000144B05FA02F205D0D3F810150A43C3F88E
:10540000102570BDD3F814150A43C3F81425631E84
:10541000062BF6D8EFF31186202383F31288BFF30F
:105420006F8F2046FFF78AFE204605F0F5FA064A00
:105430001368854023EA0503136086F31188BFF3E0
:105440006F8FDEE700700240AC180020030610B535
:10545000044605D4FFF714FE10B12046FFF76EFE98
:10546000014BC3F8184510BD00700240084B70B5E1
:10547000C31A0D4607499B1004465943064840226B
:1054800005F0F6FA2B4601462046BDE87040184765
:10549000CC180020B76DDBB65CBA000073B50C4CBD
:1054A0000C4A4023041B00930D460B460A49A410E6
:1054B00061430646094805F006FB011E05DA304641
:1054C0002B4602B0BDE87040184702B070BD00BF67
:1054D000CC1800202FAB0000B76DDBB65CBA000023
:1054E00010B5EFF31184202383F31288BFF36F8F7D
:1054F000074A136823F00201DB07116002D4012080
:1055000005F0EEFC84F31188BFF36F8F10BD00BF70
:105510001C190020002270B5012104461046FEF738
:1055200099F80F4801F0AEFA0E4B984215D101F0F0
:10553000B9FA26690C49304604F0C5FD00280BDB9A
:10554000012535642469084904F11C0004F0BBFD01
:10555000002801DBE564002070BD6FF00400FBE76C
:10556000655600000000AD0BB8BE00001FB500225C
:105570000123CDE90223094ACDF800D06B46CDF8CE
:1055800004D005F0CDFA002805DB4FF4804200235B
:10559000684602F08FFD05B05DF804FB4DAB0000DE
:1055A00030B4104B0C2202FB003301460020D3E93B
:1055B0000E529863EFF31180202484F31288BFF316
:1055C0006F8F1C6C04F0C00444F002041C6480F370
:1055D0001188BFF36F8F1DB12B46034830BC1847AD
:1055E00030BC7047CC1800205CBA000010B4EFF358
:1055F0001182202383F31288BFF36F8F174801684D
:1056000041F002040460C80707D482F31188BFF395
:105610006F8F012010BC01F05DBA4FF08041D1F8CE
:105620000C04D1F80C14C907EFD5EFF3118083F304
:105630001288BFF36F8F0A490B6C03F0C00343F06D
:1056400002030B6480F31188BFF36F8F82F311881C
:10565000BFF36F8F002010BCFFF7A2BF1C19002002
:10566000CC18002010B1012804D07047034B1B6CEC
:105670005B0701D1FFF794BF704700BFCC18002033
:10568000024AC3B21C2003FB00207047CC18002044
:105690002DE9F0413849BFF35B8F0746012251E8FD
:1056A000003F41E800200028F9D1BFF35B8F33B9F8
:1056B000324933484B60CB608A6004F017FD7B1E93
:1056C000012B2BD8012F07D14FF08043D3F81C3486
:1056D00003F00303012B21D005F0DBFE0546F8B9EA
:1056E000284B1B78E3B14FF080430222C3F8082314
:1056F0000646DFF894804FF08044D4F81824D4F89C
:105700001834D20315D503F00303012B01D0012F68
:105710000FD155B386F31188BFF36F8FBDE8F081C9
:10572000EFF31186202383F31288BFF36F8F0125D7
:10573000DFE7ADB1304605F004F9D4F81835002B99
:10574000DBD1D4F80421002AD7D0C4F80431D4F82E
:1057500004310123C4F81835C8F88031A360CCE7C0
:105760000021212005F04DFFE7E74FF080430222A2
:10577000C3F80423D2E700BFC8180020B8180020DF
:10578000E8180020E319002000E100E008B5074810
:1057900005F0E5FC38B10648FEF7A4F90448FBF72C
:1057A00023FB002008BD6FF01200FBE7BCBA00002D
:1057B000B55700000A2838B5074D044604D1AB6838
:1057C0000D215B6828469847AB6803485B68E1B2E7
:1057D0009847204638BD00BFBCBA0000F0B540680D
:1057E000057B01F01F0444EA4514056987B0002DCC
:1057F00064D0B2F5001F00F1100506D121462846FD
:1058000005F0FFFB002007B0F0BD01AE0027B2F5A8
:10581000800F0197776039D1B3F1007F14BF052362
:1058200004238DF804300023CDE9046303938368D7
:1058300023FA01F111F001011AD1B2F1A07F17D1C1
:1058400004F01F03620903F5E0732AD0012A3BD15B
:105850001F4A52F82330DB070AD40DF10306324603
:105860002146284601F016FC1A4B98421CD002969D
:1058700003AA2146284601F0CFFA174B984220D1BF
:1058800001222146284601F069FCBBE7B3F1C06F55
:1058900005D0B3F1007F14BF01230223C1E7032326
:1058A000BFE74FF0A042D4E73146284601F050FC54
:1058B000094B9842DBD06FF00B00A4E76FF0850036
:1058C000A1E76FF015009EE751F82330FFDE00BF1F
:1058D000000300500400AD0B0000AD0B38B5456867
:1058E0002B69B3B11035284601F022FC044680B97B
:1058F0000146284601F0E8FB084B98420BD10849C5
:105900002246284601F0C0FB224605210620FDF76D
:10591000A1FE002038BD6FF00400FBE70000AD0BD6
:1059200025590000420970B5034602D0012A17D05C
:1059300070BD0D4E326951680029F9D003F01F0384
:1059400001250C689D400029F2D08A682A4002D0C7
:105950004B68304698472CB1236821461C46F2E735
:10596000024EE7E72346F8E79CBA00007CBA000045
:105970002DE9F043466840F20635D006337B87B008
:1059800002EA050554BFC2F34010032001F01F07CF
:10599000B5F5837F144647EA43178DF8030045D0D9
:1059A0000FD8062D18D007D8B5B1022D40D06FF012
:1059B000150007B0BDE8F083B5F5807FF7D101256C
:1059C0000AE040F20222954234D0B5F5407F33D050
:1059D000B5F5007FEBD102250123220303FA01F183
:1059E0002CD57368C3F80815326982BB07F01F0312
:1059F0007F0929D0012F77D13E4A02EB830284F43C
:105A00008033D2F80017C3F30043C4F3404444EAA0
:105A1000430421F4E16144EA800421F0070144EAEF
:105A200005230B43C2F800370020C2E70725D3E760
:105A30000425D1E70525CFE70325CDE7630344BF60
:105A40007368C3F80C15CFE74FF0A042D5E71036C6
:105A50000DF102023946304601F01CFB14F4403FC0
:105A600080460CD13946304605F0C9FA224B98459C
:105A7000DAD19DF80210304601F064FBD4E701ABA7
:105A80004FF0000903AA39463046CDE90439CDE983
:105A90000199CDF80C9001F0BFF9174B984286D1CF
:105AA00014F4003315D09DF803308DF80E3084F4D3
:105AB0008034C4F300444B4603AA394630468DF87F
:105AC0000C508DF80D4001F061FA0B4B9842CDD08F
:105AD0006DE7CDE9043303AA0DF1030339463046DF
