:10000000008300206D6B00002D890200596B0000F9
:10001000596B0000596B0000596B00000000000094
:10002000000000000000000000000000316C000033
:10003000596B000000000000D16B0000596B0000FC
:10004000F16D0000ADB70100F16D0000F16D000031
:10005000F16D0000F16D0000F16D0000F16D000028
:10006000F16D0000F16D0000F16D0000F16D000018
:10007000F16D0000F16D0000F16D0000F16D000008
:10008000F16D0000F16D0000F16D0000F16D0000F8
:10009000F16D0000F16D0000F16D0000F16D0000E8
:1000A000F16D0000F16D0000F16D0000F16D0000D8
:1000B000F16D0000F16D0000F16D0000F16D0000C8
:1000C000F16D0000F16D0000F16D0000F16D0000B8
:1000D000F16D0000F16D0000F16D0000F16D0000A8
:1000E000F16D0000F16D0000F16D0000F16D000098
:1000F000F16D0000F16D0000F16D0000F16D000088
:100100004FF0FF0C1CEAD0521EBF1CEAD15392EAFA
:100110000C0F93EA0C0F6FD01A4480EA010C4002D6
:1001200018BF5FEA41211ED04FF0006343EA501030
:1001300043EA5111A0FB01310CF00040B1F5000F72
:100140003EBF490041EAD3715B0040EA010062F121
:100150007F02FD2A1DD8B3F1004F40EBC25008BF0B
:1001600020F00100704790F0000F0CF0004C08BF29
:1001700049024CEA502040EA51207F3AC2BFD2F1F6
:10018000FF0340EAC250704740F400004FF0000304
:10019000013A5DDC12F1190FDCBF00F0004070473E
:1001A000C2F10002410021FA02F1C2F1200200FA7C
:1001B00002FC5FEA310040F1000053EA4C0308BF43
:1001C00020EADC70704792F0000F00F0004C02BF94
:1001D000400010F4000F013AF9D040EA0C0093F00F
:1001E000000F01F0004C02BF490011F4000F013B69
:1001F000F9D041EA0C018FE70CEAD15392EA0C0FD7
:1002000018BF93EA0C0F0AD030F0004C18BF31F041
:10021000004CD8D180EA010000F00040704790F017
:10022000000F17BF90F0004F084691F0000F91F0BB
:10023000004F14D092EA0C0F01D142020FD193EA81
:100240000C0F03D14B0218BF084608D180EA010009
:1002500000F0004040F0FE4040F40000704740F0E5
:10026000FE4040F44000704781F0004102E000BFD2
:1002700083F0004330B54FEA41044FEA430594EA66
:10028000050F08BF90EA020F1FBF54EA000C55EAA1
:10029000020C7FEA645C7FEA655C00F0E2804FEA72
:1002A0005454D4EB5555B8BF6D420CDD2C4480EA54
:1002B000020281EA030382EA000083EA010180EA84
:1002C000020281EA0303362D88BF30BD11F0004FD2
:1002D0004FEA01314FF4801C4CEA113102D0404208
:1002E00061EB410113F0004F4FEA03334CEA133343
:1002F00002D0524263EB430394EA050F00F0A7805B
:10030000A4F10104D5F1200E0DDB02FA0EFC22FA55
:1003100005F2801841F1000103FA0EF2801843FA49
:1003200005F359410EE0A5F120050EF1200E012A3A
:1003300003FA0EFC28BF4CF0020C43FA05F3C01878
:1003400051EBE37101F0004507D54FF0000EDCF1F1
:10035000000C7EEB00006EEB0101B1F5801F1BD39A
:10036000B1F5001F0CD349085FEA30004FEA3C0C9E
:1003700004F101044FEA445212F5800F80F09A8094
:10038000BCF1004F08BF5FEA500C50F1000041EB98
:10039000045141EA050130BD5FEA4C0C404141EB9C
:1003A0000101013C28BFB1F5801FE9D291F0000F97
:1003B00004BF01460020B1FA81F308BF2033A3F146
:1003C0000B03B3F120020CDA0C3208DD02F1140C3D
:1003D000C2F10C0201FA0CF021FA02F10CE002F178
:1003E0001402D8BFC2F1200C01FA02F120FA0CFC71
:1003F000DCBF41EA0C019040E41AA2BF01EB0451BA
:10040000294330BD6FEA04041F3C1CDA0C340EDCB7
:1004100004F11404C4F1200220FA04F001FA02F3FA
:1004200040EA030021FA04F345EA030130BDC4F1B8
:100430000C04C4F1200220FA02F001FA04F340EAAD
:100440000300294630BD21FA04F0294630BD94F05E
:10045000000F83F4801306BF81F480110134013D45
:100460004EE77FEA645C18BF7FEA655C29D094EAB6
:10047000050F08BF90EA020F05D054EA000C04BF34
:100480001946104630BD91EA030F1EBF002100201F
:1004900030BD5FEA545C05D14000494128BF41F0BE
:1004A000004130BD14F580043CBF01F5801130BD22
:1004B00001F0004545F0FE4141F470014FF00000AD
:1004C00030BD7FEA645C1ABF194610467FEA655C5E
:1004D0001CBF0B46024650EA013406BF52EA033500
:1004E00091EA030F41F4002130BD00BF90F0000FEE
:1004F00004BF0021704730B54FF4806404F132042A
:100500004FF000054FF0000150E700BF90F0000FE2
:1005100004BF0021704730B54FF4806404F1320409
:1005200010F0004548BF40424FF000013EE700BFD9
:1005300042004FEAE2014FEA31014FEA02701FBF69
:1005400012F07F4393F07F4F81F06051704732F09B
:100550007F4208BF704793F07F4F04BF41F40021F2
:10056000704730B54FF4607401F0004521F0004150
:100570001CE700BF50EA010208BF704730B54FF0DA
:1005800000050AE050EA010208BF704730B511F0DB
:10059000004502D5404261EB41014FF4806404F113
:1005A00032045FEA915C3FF4D8AE4FF003025FEA99
:1005B000DC0C18BF03325FEADC0C18BF033202EB1D
:1005C000DC02C2F1200300FA03FC20FA02F001FA77
:1005D00003FE40EA0E0021FA02F11444BDE600BF1A
:1005E00080F0004002E000BF81F0004142001FBFE8
:1005F0005FEA410392EA030F7FEA226C7FEA236CF1
:100600006AD04FEA1262D2EB1363C1BFD2184140E5
:1006100048404140B8BF5B42192B88BF704710F07B
:10062000004F40F4000020F07F4018BF404211F01E
:10063000004F41F4000121F07F4118BF494292EA86
:10064000030F3FD0A2F1010241FA03FC10EB0C00B2
:10065000C3F1200301FA03F100F0004302D549423F
:1006600060EB4000B0F5000F13D3B0F1807F06D3EC
:1006700040084FEA310102F10102FE2A51D2B1F1E4
:10068000004F40EBC25008BF20F0010040EA0300D9
:100690007047490040EB0000013A28BFB0F5000F59
:1006A000EDD2B0FA80FCACF1080CB2EB0C0200FA0F
:1006B0000CF0AABF00EBC25052421843BCBFD0405E
:1006C0001843704792F0000F81F4000106BF80F4D8
:1006D00000000132013BB5E74FEA41037FEA226C9B
:1006E00018BF7FEA236C21D092EA030F04D092F066
:1006F000000F08BF0846704790EA010F1CBF00209A
:10070000704712F07F4F04D1400028BF40F00040F6
:10071000704712F100723CBF00F50000704700F016
:10072000004343F0FE4040F4000070477FEA22623D
:1007300016BF08467FEA23630146420206BF5FEA0E
:10074000412390EA010F40F4800070474FF000030E
:1007500004E000BF10F0004348BF40425FEA000CD5
:1007600008BF704743F0964301464FF000001CE07D
:1007700050EA010208BF70474FF000030AE000BFD3
:1007800050EA010208BF704711F0004302D5404211
:1007900061EB41015FEA010C02BF84460146002083
:1007A00043F0B64308BFA3F18053A3F50003BCFA9E
:1007B0008CF2083AA3EBC25310DB01FA02FC63444B
:1007C00000FA02FCC2F12002BCF1004F20FA02F252
:1007D00043EB020008BF20F00100704702F1200245
:1007E00001FA02FCC2F1200250EA4C0021FA02F2A6
:1007F00043EB020008BF20EADC7070474FF0FF3C7B
:1008000006E000BF4FF0010C02E000BF4FF0010C0A
:100810004DF804CD4FEA40024FEA41037FEA226CD3
:1008200018BF7FEA236C11D001B052EA530C18BFF5
:1008300090EA010F58BFB2EB030088BFC81738BF5A
:100840006FEAE17018BF40F0010070477FEA226C48
:1008500002D15FEA402C05D17FEA236CE4D15FEA44
:10086000412CE1D05DF8040B704700BF8446084678
:100870006146FFE70FB5FFF7C9FF002848BF10F139
:10088000000F0FBD4DF808EDFFF7F4FF0CBF01207E
:1008900000205DF808FB00BF4DF808EDFFF7EAFF08
:1008A00034BF012000205DF808FB00BF4DF808EDC3
:1008B000FFF7E0FF94BF012000205DF808FB00BFB8
:1008C0004DF808EDFFF7D2FF94BF012000205DF83E
:1008D00008FB00BF4DF808EDFFF7C8FF34BF01204B
:1008E00000205DF808FB00BF4FEA4002B2F1FE4F66
:1008F0000FD34FF09E03B3EB12620DD94FEA0023E2
:1009000043F0004310F0004F23FA02F018BF4042BA
:1009100070474FF00000704712F1610F01D14202A1
:1009200005D110F0004008BF6FF0004070474FF055
:100930000000704753B94AB9002908BF00281CBFFE
:100940004FF0FF314FF0FF3000F00CB8ADF1080C64
:100950006DE904CE00F022F8DDF804E0DDE90223C1
:1009600004B07047704700BF10F8012B11F8013B2D
:10097000012A28BF9A42F7D0D01A7047034611F8CF
:10098000012B03F8012B002AF9D17047034613F815
:10099000012B002AFBD1181A013870472DE9F047C6
:1009A00086468C460846089E154674461946002B16
:1009B00040F0C2808542B2FA82F245D94AB1C2F112
:1009C000200300FA02FC2EFA03F3954043EA0C0CD4
:1009D00094404FEA154EA8B2BCFBFEF8230C0EFB68
:1009E00018CC08FB00F943EA0C43994528D9EB18C9
:1009F00008F1FF3704D2994502D9A8F102072B4428
:100A0000A3EB0903A4B2B3FBFEFC0EFB1C330CFBEF
:100A100000F044EA0344A04214D92C190CF1FF332E
:100A200004D2A04202D9ACF102032C44241A43EAB6
:100A300007401EB1D440002334607360BDE8F087E6
:100A40004746DDE76346F1E792BB431B01214FEACE
:100A5000154EAFB2B3FBFEFC200C0EFB1C330CFB9F
:100A600007F840EA0343984562D9EB180CF1FF30D0
:100A700004D2984502D9ACF102002B44A3EB080341
:100A8000A4B2B3FBFEFC0EFB1C330CFB07F744EADD
:100A90000344A7424ED92C190CF1FF3304D2A742CC
:100AA00002D9ACF102032C44E41B43EA0040C0E746
:100AB000C2F1200320FA03F1954090402EFA03F38F
:100AC00003434FEA154EAFB2B1FBFEFC0EFB1C1008
:100AD000190C0CFB07F841EA0041884504FA02F4BE
:100AE00022D969180CF1FF3004D2884502D9ACF143
:100AF00002002944A1EB08019BB2B1FBFEFC0EFBF6
:100B00001C110CFB07F743EA01439F420ED9EB1877
:100B10000CF1FF3104D29F4202D9ACF102012B4407
:100B2000DB1B41EA004192E76046E3E76146F7E7F5
:100B30006046A3E76346B7E7834206D916B90021AA
:100B400008467BE7C6E900E0F9E7B3FA83F78FB917
:100B5000834201D3724508D8BEEB020460EB030365
:100B600001209C461EB9002168E73846FAE7C6E92D
:100B7000004CF8E7C7F1200CBB4022FA0CF41C43F0
:100B80002EFA0CF120FA0CF3B84001434FEA144955
:100B90000EFA07F5B3FBF9F81FFA84FE09FB1830CB
:100BA0000B0C08FB0EFA43EA00439A4502FA07F2DF
:100BB00040D9E31808F1FF3004D29A4502D9A8F1D0
:100BC00002002344A3EB0A0389B2B3FBF9F809FB43
:100BD000183308FB0EFE41EA03418E452CD96118FB
:100BE00008F1FF3304D28E4502D9A8F10203214453
:100BF00043EA0040A0FB0298A1EB0E014145CE461E
:100C0000434602D306D14D4504D2B9EB020E68EB40
:100C100004030138002EA6D0B5EB0E0261EB0301F0
:100C200001FA0CFC22FA07F34CEA0303F940C6E987
:100C3000003198E74046C5E74346D9E70000000089
:100C4000F0B5002283B0114600AF40F6034007F034
:100C5000EDFC044600285BD107F01CF921463A1D43
:100C600041F2030007F0E2FC0446002850D17A6804
:100C7000BE4DD168D1F80100D1F8051005F1780317
:100C800003C3104606F0A0FB21463A1D41F20100C5
:100C900007F0CCFC044600283AD17868C3685A783B
:100CA00085F870205A88A5F872201A7985F8712085
:100CB000B3F80720A5F87420B3F80530A5F876300E
:100CC00006F082FB21463A1D41F2020007F0AEFC1D
:100CD0000446E8B9D7F804C0DCF80C2005F180061A
:100CE000531C413218685968344603C40833934290
:100CF0002646F7D1604606F067FB95F87C305A0629
:100D00000AD49B4A9B48012128F066F86FF0120430
:100D100020460C37BD46F0BD3A1D002142F20300CB
:100D200007F084FC04460028F2D17B68924EDA6812
:100D3000D2F80100D2F8051003C6184606F044FBAD
:100D400021463A1D42F2020007F070FC04460028DA
:100D5000DED17C68E368B3F8012091B249B1D9785B
:100D600039B1A5F80421DA78114606F128002CF0F3
:100D700035F9204606F028FB95F87C601F2316F015
:100D80002006A5F8203118D1022140F66D4007F069
:100D9000A9F80446002800F0DB8002210C3027F07F
:100DA0008DFE0123037046702146324640F66D40A9
:100DB00007F03CFC04460028AAD195F89C301B079C
:100DC00012D53A1D002142F21C0007F02FFC044608
:100DD00000289DD17868C368D3F80120D3F8053086
:100DE000C5E9382306F0F0FA95F8D8309E0621D5EB
:100DF000B91C384607F01EFD0446002888D104219E
:100E000042F2240007F06EF80646002800F0A080A9
:100E100004210C3027F052FE3B8803807B884380FE
:100E20002246314642F2240007F000FC0446002826
:100E30007FF46EAF95F8D8305C062AD5022142F2D5
:100E40002E0007F04FF80446002800F081800221B0
:100E50000C3027F033FEB5F8B03103802146002274
:100E600042F22E0007F0E2FB044600287FF450AF68
:100E700001463A1D42F22A0007F0D8FB044600283A
:100E80007FF446AF7868C3685B7885F8223106F056
:100E90009BFA082142F2010007F024F804460028DA
:100EA00056D008210C3027F009FE95F8D81011F023
:100EB000400F024640F2022308BF032388074CBFBD
:100EC00043F02C0043F00C008B0695F8D93048BF56
:100ED00040F0400013F0090F18BF40F40060CE0747
:100EE00048BF40F01000002127F098FF2146002263
:100EF00042F2010007F09AFB044600287FF408AF95
:100F000095F87C30B5F80411980624D4C9B93A1D77
:100F100041F2050007F08AFB044600287FF4F8AE92
:100F2000B5F804317C684BB9E368B3F80120A5F843
:100F300004219A88114811462CF050F8204606F0FA
:100F400043FA082140F6014006F0CCFF0446C8B938
:100F50006FF06804DCE60029F3D1094A0548012155
:100F600027F03AFF6FF00404D2E600BFB000002083
:100F7000B9230300C8DF020088010020B801002067
:100F8000DD23030008210C3027F098FD95F8D830B8
:100F9000D907024629D460484FF0005127F03EFFA0
:100FA0002146002240F6014007F040FB044600289D
:100FB0007FF4AEAE01463A1D4FF6014007F036FB16
:100FC000B8B1564A5648022127F006FF08F0E2FB66
:100FD000044600287FF49CAE0AF0F4F8044600288A
:100FE0007FF496AE07F004F992E649A1D1E9000139
:100FF000D4E77B68DC68B4F80130032B96BF494A1C
:10100000494952F823106E468AB06A464748D36170
:101010004FF400731384464BC2E9050142F8103FB8
:101020003F484FF4135127F0EAFEB4F80120B4F81A
:101030000330022AB54649D1052B47D83D4A52F81C
:1010400023106E468AB06A463B48D3614FF4007362
:101050001384374BC2E9050142F8103F4FF4135196
:101060002F4827F0CCFE637994F806C0D4F8090025
:10107000032BB54698BF314AB4F8076094BF52F8C5
:10108000231029496C468CB06A46DFF8B4E0C2E907
:10109000073C4FF4007393852A4BC2E905E1C2E98E
:1010A00009604FF4735142F8103F1D4827F0A7FE26
:1010B000A546786806F088F93A1D00214FF60240EF
:1010C00007F0B4FA044618B11F4A7BE71649B8E79F
:1010D0007868C368B3F80130A5F8C13006F074F938
:1010E00095F8C1305B077FF571AF3A1D21464FF689
:1010F000034007F09BFA08B1144A63E77868C368B5
:101100005B7885F8C03006F05FF95FE7AFF30080E9
:101110009088000200800020108800020024030054
:10112000C8DF020084E70200AA2103002424030090
:10113000040000016CE702003D2403005CE70200AC
:10114000552403000700000182240300AB240300A0
:101150002DE9F843D0E90738856903EB08042F34FB
:10116000A5420F46164619D8DFF86C80A3FB08018C
:1011700017A3D3E90023FFF7DDFB0346601BA0FBA9
:10118000080123F07F4412A3D3E90023FFF7D2FB29
:1011900020F07F403C603060BDE8F883DFF8389095
:1011A0000BA3D3E90023A5FB0901FFF7C3FB20F044
:1011B0007F440A480A2106A3D3E90023E8FB09017A
:1011C000FFF7B8FB20F07F403C603060BDE8F8835B
:1011D0008D49FD1A0700000000CA9A3B00166BF10A
:1011E000002800F03C812DE9F04FC74C94F85E20B8
:1011F00012F001058DB040F06E81607EFF2300F09B
:101200000300A37619F05CFF94F85E00420726D431
:10121000627F94F8293004EB820204EB8303166AA0
:10122000D3F82C8086B1B848314613F03DFC3378B2
:101230005B0605D506210EF07FFD002800F04D81EC
:10124000B148414613F030FC337813F00E0F40F0F4
:101250009D8063698BB10C200DB0BDE8F08F2A46EC
:1012600004F15F01C0F3C0001AF0A0F8FF28A076D7
:10127000CED0284619F03EFFCAE711F085F8814626
:10128000002800F0388111F08BF88246002800F029
:101290002F8113F003FF0546002800F04581D0F8A8
:1012A00088004FF6FF73AB8405F1100B002800F0A7
:1012B0001A8105F17C0205F178010EF049FDB5F8BF
:1012C000763023F4EF6323F0070343F48C7343F089
:1012D0000103A5F8763095F8373003F03F0363F04B
:1012E0007F0385F8373095F88E3023F0070385F8B3
:1012F0008E3095F83C3023F00F03002785F83C3002
:101300004FF4C023C5F888312846C5E91277C5F8DF
:101310008870A5F88C7085F839706F85C5F82E70C7
:101320002F65A5F88E71A5F8847116F013F885F86D
:101330005071C5F8549114F065F995F8943160F343
:10134000020385F8943114F063F995F8943160F351
:10135000C50385F8943195F8803167F3410385F82A
:1013600080310121284614F05FFD05F1D40015F00D
:10137000C9FDC4E9159AC4F814B0C5E902772F7005
:101380002D611BF027F8002840F0A980237E012161
:10139000C3F342030DF12B008DF82B300EF074FED9
:1013A000024600285DD098F80110304613F038F955
:1013B0005649574BB4F85C70A0FB0101C0184FF0C0
:1013C00000054FA3D3E9002341F10701C4E9025509
:1013D0002570FFF7AFFA606010F002F900F109081C
:1013E0003FB9357805F00F05A5F10105B5FA85F58A
:1013F0006D09207E636865F3000010F0010520761A
:1014000036D0444A0992002010600225424A434FD8
:1014100004930BAE019305920321CDE902000694DB
:1014200043460090089607972A460B950FF0DAFF7F
:10143000314611F03DF8A0B9394905914AF2D83347
:101440000093CDE90300CDE90100079708960694C3
:101450004346012203210B950FF0A8FF2EE013F065
:101460002FB86369002B3FF4F6AE12F0E5FFF2E609
:10147000284A2C48049303F24713069402959121BD
:101480001360A7FB000301FB0731244B0793224B9A
:1014900005934FF6FF730992022703930BAE18A32F
:1014A000D3E900230B970896FFF744FA4346CDE9AA
:1014B00000503A46284603210FF094FF314610F0C1
:1014C000F7FF0028CDD194F85E300120034384F863
:1014D0005E3019F0D7FD0020BEE61220BCE612F007
:1014E000ABFF0320B8E605F18000C5F88800E0E610
:1014F000484610F04FFF0720AEE600BFAFF3008074
:101500008D49FD1A07000000082D002000CA9A3BF3
:101510008C49FD1AFC2C00209D460100411701005A
:1015200089410100002AE784504610F03FFF4846F9
:1015300010F030FFDFE700BF70B5037E8AB0C3F361
:1015400042030D46044601210DF1230016468DF895
:1015500023300EF099FD71780246284613F060F8AA
:101560001F49204AA0FB0131981841F107011AA335
:10157000D3E90023FFF7DEF963689842054621D2DC
:101580001B1A00220192184A0293184BA21AA3FBBD
:1015900002320221520900230A4409AE099114497A
:1015A0000591CDE903330321D2B206960093184684
:1015B0000FF078FF314610F07BFF38B965600020EE
:1015C0000AB070BDFBD9C21A0023DBE70C200AB0B9
:1015D00070BD00BFAFF300808D49FD1A0700000009
:1015E00000CA9A3B8C49FD1A082D00204FECC44ECE
:1015F00041170100000000002DE9F04F06468DB0B4
:101600008A4601200221994615461CF091FE0022CF
:101610000B90022101200EF0EBFB3B494FF4D072FE
:1016200030460EF075FBC71C384B0093FFB2019695
:101630004B463A46012100200FF08EFF10F0FD0FBF
:101640000ED0334A3349344840F68F0326F047FA28
:10165000002383F31188BFF36F8F0323184602DF43
:101660002E4CA5FB044526A3D3E90023204629469A
:10167000FFF760F90896069673680493284B20F0EC
:101680007F48A8FB0331E01A264B07934FF007026F
:10169000254B059302FB08114FF6FE7365EB010124
:1016A00003934FF47A720023FFF744F94FF0000BD5
:1016B000CDE90180CDF800A04B463A4601215846BD
:1016C0000FF074FE10F0FD0F0DD0114A11491248B1
:1016D00040F6A40326F003FA8BF31188BFF36F8F53
:1016E0000323184602DF0B9B13B90DB0BDE8F08F42
:1016F0000122022110460DB0BDE8F04F0EF078BB7C
:101700008D49FD1A07000000481700203D500100D8
:1017100080F2020044F30200F4EB020000CA9A3B9C
:101720008D49FD1ADD4F0100D1A401000000000029
:101730002DE9F0418468A28C4FF6FF739A428CB079
:1017400045D00546204616F0A3F82B7D012B00F06E
:101750002281022B00F01581002B00F0F48094F818
:101760005061002E40F010812B8AE78D94F93720CC
:10177000CDE90A6673B3002AC0F25A810023A4F8A7
:101780008A31AA7CA38DFD1802F003030135012BD9
:10179000ADB23BD0B4F88E31002B00F005819D42F4
:1017A00080F059815B1B9BB20022062BA4F88E317E
:1017B000E28540F2F68094F937309342C0F25081CE
:1017C000002326E09DF82710204613F0FFFF0CB001
:1017D000BDE8F081002AB8BF84F87561A38DAA7CAA
:1017E000FD1802F003030135012BADB20ED0B4F8A1
:1017F0008A31002BCED0AB4240F23C815B1BA4F877
:101800008A31B4F88E31002BC9D102E00023A4F84C
:101810008E3194F83C2063F3820284F83C20294600
:101820000DF12702204615F0D1FD7430CAD0B4F86E
:1018300088312BB1AB4240F2EC805B1BA4F88831BD
:10184000B4F884312BB1AB4240F2DA805B1BA4F8D0
:101850008431E58D16B9AF4200F0C9800135ADB2D3
:1018600094F8D13013F0010731D1DDE90A130A46AB
:10187000002B40F0CC80002900F0BB801F461846AA
:10188000A28C24690694CDE9035603329A4D029046
:10189000CDE90017D2B20121002005950FF002FE1C
:1018A00010F0FD0F93D010F02DFE84428FD0934A9C
:1018B000934994484FF4AE6326F011F9002383F363
:1018C0001188BFF36F8F0323184602DF7FE794F977
:1018D00037206FF30003002A84F8D1307FDB94F8BF
:1018E0007600C0F3C00100F007001AF08BFBB4F8DB
:1018F0006E20B4F86C301344E28B03F23F131344B0
:101900000344814A81480721E3FB0021104678A364
:10191000D3E90023FFF70EF8DDE90A1320F07F4238
:1019200060686260904235BF171A801A0020002755
:101930000A46002BA4D157EA010CA1D1002858D0A7
:1019400019461F469CE794F88E3003F01803182BB5
:101950007FF405AF218DB4F886218B1D9A42C4BF58
:10196000931F5B1AB4F88211CCBF9BB21346994205
:1019700000F09C80A4F88231A4F88431A4F8882176
:10198000EDE63D2684F85061314620460CB0BDE8B6
:10199000F04113F01BBF0023A4F88831A4F8843170
:1019A000DDE60126334634E7E28C052A97BF013293
:1019B00040F2E2434FF4FA7392B203FB02F2B4F83E
:1019C0008C3142F2107101FB0323013BB3FBF2F3B4
:1019D0009BB2A4F88E31002B7FF4E1AE19E794F8A6
:1019E0007700012100F007001AF00EFB7FE7354673
:1019F00036E7002D43D00027114638463B463FE7E7
:101A00000023A4F88431204615F082FD21E73846F2
:101A100036E710F00BFD0146A0B30023A4F888318F
:101A2000A38CC3801B230371006810F0D1FC07E76F
:101A300094F875316BB3013B84F8753104F1D40827
:101A4000404615F0A1FAB8B3404615F09DFAB8B378
:101A50000023E38592E60821204613F0B7FEB6E6A0
:101A6000A7B9D4F878315A0813F0010336D1C4F875
:101A70007821A5E63E21204613F0A8FEA7E6002E19
:101A8000B9D1A4E60123A4F88831D9E6134601268A
:101A9000BFE60AAA0BA92846FFF75AFBDDE90A238D
:101AA0001343CBD0237884F87531C7E7B4F8881195
:101AB00000297FF454AE5FE7FF2013F049FEC3E72F
:101AC0000246D4E91E010EF05BF90028C0D194F85B
:101AD0003C301B0744BF238DE3854FE642F00042B4
:101AE0001E46C4F878213B4693E600BFAFF3008062
:101AF0008D49FD1A07000000994F010080F2020095
:101B0000C0F30200F4EB02008C49FD1A00CA9A3BB4
:101B10002DE9F04F89B0CDE90623BDF84C200378BC
:101B20000392BDF85020BDF848B0BDF85480068E31
:101B3000029104460492002B00F0C780013EB6B229
:101B400094F87600A6EB08039DB2C0F3C001D4F868
:101B50000C31059500F0070001931AF053FAE78C59
:101B6000052F40F2AA8017FB05F7BFB240F2E24909
:101B7000BBF1050F40F29580B4F86E20B4F86C30DC
:101B8000134403F2D51303447B4A7C480721E3FB4B
:101B900000214FF09613E36196231046238474A32B
:101BA000D3E90023FEF7C6FE5D4620F07F4040F2F9
:101BB000E24303FB05F509FB07F1B1FBF5F71FFA5B
:101BC00087FA606005FB0AF0814257465AD2401AF4
:101BD0006A4967A3D3E90023A0FB0101FEF7AAFE2F
:101BE000019B20F07F499944638DB4F8142113447C
:101BF000984494F83730A8EB06084744DB0967851A
:101C00006AD15F4A5F49604840F6581325F067FF84
:101C1000002787F31188BFF36F8F0323184602DF75
:101C20002E46039B2385049BA4F88C31294620462D
:101C3000A4F826B015F006FC544B218D2B44881DCA
:101C4000B3FBF5F39AB29042A4F8862104D2C1F511
:101C50007F41FA310A4492B2029BA4F8822113B167
:101C60000023A4F88E314B46324639462046FFF712
:101C7000C3FC94F8803143F0010384F8803109B04B
:101C8000BDE8F08F091A3D4839A3D3E90023A1FB31
:101C90000001FEF74FFE019B20F07F49A3EB0909ED
:101CA000A2E74FF096130BF10105E361962323841D
:101CB000ADB20A204FF4FA737BE7059B013717FB9F
:101CC00003F7BFB24FF4FA7952E7438D1E44B0F8E0
:101CD00014311E44B6B233E7226C0599A36C274F2A
:101CE00002FB1133A3641AF0C5FB064694F8740195
:101CF000C0F342001AF0C0FB064405FB06F6244B75
:101D000006F5742606F23F26A3FB0636B60CA36C36
:101D100026640AFB06F06A080344963A934228BFF9
:101D20001346C4E91123069B40F2E24808FB03F383
:101D300023650023A0FB0701C4F87C310CA3D3E981
:101D40000023FEF7F7FD134B079AA9EB0009A3FB4D
:101D50000230800A08FB00F0A0FB070104A3D3E9CE
:101D60000023FEF7E7FDAE1B20F07F4759E700BFD9
:101D70008D49FD1A070000008C49FD1A00CA9A3BE4
:101D800080F20200CCEC0200F4EB02007FC3C90138
:101D900083DE1B435917B7D12DE9F04F0B6891F83B
:101DA0001180D3F80090037F176895B00446C3F301
:101DB0008013D0F81E008DF83F30B8F1FF0F638C10
:101DC00012900E461546ADF84C300DF1480A4DD133
:101DD0009AE803001090ADF844102346E28D53F8C2
:101DE0002EBB9B78AB722A81D4F82A306B60D4F872
:101DF0003A30C5F8223005F1220094F83E300371E4
:101E000005210EF041F995F8273000F03F0060F30E
:101E1000050385F8273094F83F30C3F3040285F8B2
:101E20002820A28EEA82012803F01F0392B205D96E
:101E30001B3303F01F030B2B00D81ABB0022C9F879
:101E4000082095F82C3062F3000385F82C30E56803
:101E5000012658462146267110F0AEFA28682E71E8
:101E6000294610F0B5FA15B0BDE8F08F10AA0DF1B3
:101E70003F01404618F038FE9DF83F3002338DF8A0
:101E80003F30AAE7336800215960E38EEA8A2B834A
:101E900040F2E24303FB02F20B92638E0D9338464D
:101EA00015F0E4FA94F83F2097F87411520962F3A0
:101EB000430187F874111AF0DDFA0C9097F8740159
:101EC000C0F342001AF0D8FA0C9A0B99104401FBA7
:101ED00000F0BB4A00F5742000F23F20A2FB002076
:101EE0004A08800C963A28636A6394F8312040F2DD
:101EF000E24302FB03F36B64238FA7F88C3138466F
:101F000015F0A0FA0B99AF4BAF4AC7F890210B44DC
:101F1000B3FBF1F39AB2A7F88621298B881D824280
:101F200004DDC1F57F41FA310A4492B2A7F882215B
:101F30006B68C7F87831234613F81C2FC2F34012A0
:101F40000C92DA0700F1FA804FF48073A38399F8BA
:101F50001A0019F03FFB04F12B03002800F0EA807F
:101F6000626AC4F82B20228D9A80B8F1FF0F00F02E
:101F70000881BAF804301298A4F82930C4F8250072
:101F80009DF83F30A3771098BDF84430C4F81F0087
:101F9000A4F82330EB8A63862B8BA386B7F88C31A9
:101FA000E38697F87431C3F3420384F83830384637
:101FB00013F080F8A882E08021465846746810F03B
:101FC000FBF9AB8AE3801C2323710C9BD4F80080BF
:101FD000002B40F0CA800C9B23772146404610F02E
:101FE000F7F995F86700B5F85C80B5F85E40012117
:101FF00000F007001AF008F8444404F2D51403195D
:102000008046724C72480721E3FB04014FF096139F
:10201000C5E9033368A3D3E90023FEF78BFC20F066
:102020007F4078600B9B2D6B0D995D1BF36840F230
:10203000E24202FB013303F2B3410022A1EB0808A4
:10204000012002210DF0D4FE484612F0E9FC0246C0
:10205000A8FB0401144658A3D3E90023FEF76AFC49
:10206000CDF80490B3685B49009120F07F4AA21C30
:102070003A3BD2B25344012100200FF06DFA0128FF
:1020800000F0858099F81830DB0766D4384613F0E5
:1020900011F84E4BA5FB0398044647A3D3E9002350
:1020A00048464146FEF746FC4B4BB6684B4A079202
:1020B00020F07F45A5FB0331B9EB0300484B0593A6
:1020C00040F2E313069708937B684FF0000BCDE9CD
:1020D00003B34FF0070303FB051168EB01014FF455
:1020E0007A720023FEF726FC03343A3EE4B2CDE9CF
:1020F0000150CDF800A033462246012158460FF08A
:1021000055F910F0FD0F0DD0364A374937484FF4D6
:10211000F27325F0E4FC8BF31188BFF36F8F032378
:10212000184602DF0122022110460DF061FE15B0B3
:10213000BDE8F08FC4F82B00988016E7294A2C4997
:102140002A48FD2325F0CBFC002383F31188BFF33D
:102150006F8F0323184602DFF6E600230122009367
:10216000184611460FF0B6F990E795F8273043F07E
:10217000400385F82730281D18F0C0FA0123288570
:102180002AE70022C4F82520A4F82920F8E610F058
:10219000B9F981453FF476AF124A1649134840F227
:1021A0008B2325F09CFC002383F31188BFF36F8FF2
:1021B0000323184602DF65E78D49FD1A070000007A
:1021C00083DE1B437FC3C901404B4C0000CA9A3BCE
:1021D0008C49FD1A91A401008D49FD1A5DA40100EE
:1021E000D1A40100B4F8020044F30200F4EB0200B1
:1021F000F4EF020010F90200F0B5C468636883B020
:102200000546002B64D11BF003FC00201BF026FCCC
:10221000002108461BF014FC0022252108201BF099
:1022200051FC474B019301A81BF038FC454940F293
:102230005B601BF0F3FC237AC3F3420262F30613E4
:10224000204623721AF034FB19F0A0FA58BB637AC7
:102250009B071FD127682E68384619F07BFE06447D
:102260006A6806F1090101201BF020FE1BF0DEFE6A
:10227000204612F0E1FB811C3246C9B2384619F003
:102280006BFE054678BB204619F00CFE88B900208D
:1022900003B0F0BD012018F0E9FE4178821C0078FF
:1022A0001BF0A4FDD6E7607A10F0030018BF0120F0
:1022B000F1E7254A2549264840F2294325F00FFC3D
:1022C00085F31188BFF36F8F0323184602DFDEE723
:1022D00093F82C309A0796D01E4821461BF056FBE7
:1022E0001BF03CFCD3E7184A1B49194840F2114344
:1022F00025F0F5FB194B0721A5FB030301FB053175
:102300000DA3D3E90023FEF715FB15490246154836
:1023100025F0E5FB002585F31188BFF36F8F0323BC
:10232000184602DF104821461BF030FB1BF016FC5C
:102330006FF08B00ACE700BF00CA9A3B00000000C2
:10234000D6BE898E5555550030FD0200C8ED0200FD
:10235000F4EB0200E9C00100CCEC02008D49FD1A4B
:10236000E0FD0200B4FD020085C401000000000091
:102370002DE9F041C468A28A4FF6FF739A4282B0F9
:1023800000F0DF8005461AF0D7FD2B89628B208C88
:10239000A3831A4492B2104494F82730E28380B2A7
:1023A000411C21845E064FF00001618304F122018B
:1023B00000F1A18003F03F000B4694F82810009034
:1023C00004F1290018F052F90646D4E90C31A28B29
:1023D00002FB0333A26B1344E26B8B4294BFD2180F
:1023E00052188A4228BF0A46E263616C226C94F854
:1023F00067301144616494F87E2094F82C10C3F384
:10240000020363F3061112F004024FF0000384F894
:102410002C10A363236478D01BF0FAFA00201BF081
:102420001DFB201D1BF03AFB2389A17A40F25B6063
:1024300043EA01411BF0F2FB304619F09FFD2146B3
:1024400059481BF0A3FAA0891BF024FD94F86620DC
:1024500094F86700C2F3C003002102F0070200F005
:1024600007001BF041FC20461AF010FE27682E687A
:10247000384619F06FFD06446A6806F1090100202C
:102480001BF014FD80461BF0A5FD00201BF0BCFDD9
:10249000E36B94F8670003F12F02636C00F0070010
:1024A000012103EB42051BF04BFB4544054494F826
:1024B000670000F00700022825D004280CBF4FF465
:1024C000BC73282301211D441BF03CFB28441BF056
:1024D00073FDA18A03313246C9B2384619F03CFD7A
:1024E0000546002834D1204619F0DCFCD0B9002084
:1024F00002B0BDE8F0810A4603F03F03218D18F0D9
:1025000001F9064661E71823DCE7D4E91A010DF06A
:1025100037FC002880D194F87E3043F0040384F81F
:102520007E3079E7214A224922484FF4B07325F0E2
:10253000D6FA85F31188BFF36F8F0323184602DFA5
:10254000D5E71D4821461BF021FA1BF007FBCEE71B
:10255000164A1A4917484FF4AB7325F0C0FA184BC6
:102560000721A5FB030301FB05310DA3D3E90023DC
:10257000FEF7E0F913490246134825F0B0FA0025AA
:1025800085F31188BFF36F8F0323184602DF0F48CE
:1025900021461BF0FBF91BF0E1FA6FF08B00A7E777
:1025A00000CA9A3B0000000005D301006CFE020047
:1025B000C8ED0200F4EB0200E9C00100CCEC02001F
:1025C0008D49FD1AC0FE0200B4FD0200C5C0010025
:1025D00080B50D4A0D4B00AF8AB0012918BF1346D4
:1025E0006A460B48D161C2E905034FF400731384B6
:1025F000084B42F8103F084800234FF4135102F0F3
:1026000033F9BD4680BD00BFC90C0300BE0C0300FA
:10261000D60C03000400000148E0020010B5074C8E
:102620000748084A0B46032124F0D5FD206818B15D
:1026300008F0D8F80023236010BD00BF201C002044
:1026400048E00200FF0C030008B526F079FF044BB8
:10265000044A1860BDE808400348032124F0BDBDCA
:10266000201C00201C0D030048E002000B4621B195
:10267000034A0448012124F0AEBDFFF7E5BF00BFC7
:10268000260D030048E0020007B50B4604480092FF
:102690000321044A25F022FF03B05DF804FB00BFCC
:1026A00048E00200450D03002DE9F04FDFF8F4B0DB
:1026B00089B04FF07E5A00AFDBF8000000286AD0E6
:1026C00026F03EFF384D06462868FDF731FFE84604
:1026D00088B06C462246354B63614FF00409C4E96B
:1026E000060142F8109F32487A6000234FF40351EC
:1026F00002F0BAF8C546A5462E4B63612E4BA36186
:102700004FF40073A3832D4B23612D497A68284829
:102710002B4602F0A9F81822C546002107F108004F
:102720002AF0C7FF274BA7F8149007F1080130469D
:10273000C7E903350BF002F90446C8B10346224A43
:102740001B48012124F047FD51462868FDF74EFF44
:102750001E490446FEF7BEF800B1544630462C60D0
:1027600008F040F84FF42030002124F038FDA3E7B2
:102770002868FDF7DDFE88B06A46154B5361C2E953
:10278000060142F8109F0A4823464FF4035102F015
:102790006BF8C546D8E70F4A0548032124F01DFD14
:1027A000E0E700BF201C0020B8020020660D0300F7
:1027B00048E0020000220300840D03000300000132
:1027C000C01C40001CE40200930D03000000C8423E
:1027D000AA0D0300C90D03002DE9F043244D254E39
:1027E00085B0044600AF07F1040823490A22404699
:1027F00023F0CCFBE94688B06A46204BC2E9053895
:102800004FF4007393831E4B42F8103F1D492B4633
:10281000304602F029F80023CD462A460A212046F8
:1028200000F074FF00230C2120461A4600F09CFFA4
:102830000021204600F0BCFF00224421204624F065
:1028400021FE0306F8D5802300224421204624F0EF
:1028500004FF0D4A0321304624F0BFFC4FF48040B2
:10286000002124F0BCFC6B7801336B70BBE700BF28
:10287000E107002048E00200DB0D03000022030016
:1028800003000001C01CA000E20D0300F0B58C4A5B
:102890008C488FB0032124F0A0FC0020089002F0A7
:1028A000DFFE034650B9884C089B73B1002006F048
:1028B0000BF80446B0B1854A034600E0844A8148DB
:1028C000012124F088FC0FB0F0BDA3689B6C1BB104
:1028D00008AA04212046984740F6CD40002124F064
:1028E0007EFCE1E77B4A7748032124F076FC7A48B6
:1028F0000AF01CFC1422214609A82AF0DAFE09225B
:10290000A023CDE90A23F0230C93744900942346B5
:10291000022209A807F0A0F9034680B1704A69486D
:10292000012124F058FC6F486F4C21F05FFE2060BD
:1029300058B96E4A6348012124F04FFCC3E76C4A42
:102940006048032124F049FCEDE76A4860602AF002
:1029500064F908B9684AEDE76848684D214624F0F3
:10296000ADFC034608B1664AA9E7284600F030F9F5
:10297000034620B1634A5348012124F02CFC624AEB
:102980005048032124F029FC5C4824F03EFE034615
:1029900020B15C4A4B48012124F01DFC4FF4A47087
:1029A000002124F01CFC4220002124F018FC534C90
:1029B000204624F083FD0028FAD0544A41480321E0
:1029C00024F00BFC4D48002100F024FA013005D121
:1029D0004F4A3C48012124F000FCFEE739484D4AAB
:1029E000032124F0FAFB4C49444800F0DDFB88B198
:1029F0004A4A34484A4D334C012124F0EEFB20462C
:102A00002A46012124F0E9FB4FF40040002124F084
:102A1000E6FBF4E7434A2B48032124F0DEFB42495E
:102A2000364800F04DFE414A2648032124F0D5FBEC
:102A3000324809A900F0AAF8034600283BD03C4AD6
:102A40000121204824F0C7FB3A4A1E48032124F004
:102A5000C4FB394A1B48032124F0BFFB0026002792
:102A600000240523CDE90334CDE90667334B34490F
:102A70000094CDE901444FF48062324822F014FC06
:102A8000314A1048032124F0A8FB0323CDE9024377
:102A9000CDE90667CDE900542C4B2D492D4804940F
:102AA0004FF4806222F000FC4FF0FF304FF0FF3116
:102AB00024F095FBF8E7099B274A0321C1E700BFF3
:102AC000F80D030048E00200A0DB02002A0E03001C
:102AD000110E0300490E0300BC020020F8E30200BF
:102AE0005F0E0300980E0300FC0200209E0E030000
:102AF000840E030080DB0200B90E0300241C0020BA
:102B0000D00E0300E80E0300080F0300200F03009F
:102B10002E0F03003A0F0300C00700204A0F0300E6
:102B2000580F0300660F0300F0020020720F03002D
:102B3000810F0300B50F0300C50F0300A926000095
:102B400080500020980B0020DD0F0300D9270000E3
:102B5000C0540020180C0020A30F03000A480022D4
:102B6000D3B2082113F0800F4FEA430318BF83F05C
:102B700031030139DBB2F5D10132B2F5807F00F8C3
:102B8000013BEDD1704700BFDA4D002030B50C4657
:102B900085B00546B8B1B1B10C4BD3F80300DB7971
:102BA0008DF804300023009002938DF80C3002AAB7
:102BB00005236946284624F039FB10B9DDF80930B1
:102BC000236005B030BD6FF01500FAE714E1020094
:102BD00010B5044610B96FF0150010BD0368002B46
:102BE000F9D0186824F019FB0028F4D02368034AB0
:102BF000DA604FF480721A820020EEE700127A0049
:102C000010B5044610B96FF0150010BD0368002B15
:102C1000F9D0186824F001FB0028F4D02368034A97
:102C2000DA604FF480721A820020EEE780841E0082
:102C300030B5064D0446002310468B4200DB30BD04
:102C4000E25C42400133A85CF7E700BFDA4D0020A8
:102C50002DE9F0431E4685B00A44B6F5445FC2F341
:102C60000445DDF83080BDF8343007460C4602F0EC
:102C70007F0201D325F09CFE83F40040032801D994
:102C8000002BF7D1910041EA452143EA010503F009
:102C9000030C2D0A4CEA01018DF80C508DF80D1033
:102CA0004EB9B3F5004FE5D1640064F07E048DF8B1
:102CB0000C4001240BE012BBB3F5004FF9D07BB3FD
:102CC00045F040058DF80C50032852D80224294BBA
:102CD0001B7DE3B10022214603A8FFF7A9FF31467F
:102CE00002464046FFF7A4FF3346CDE9008003AA21
:102CF0002146384624F053FB05B0BDE8F08345F08B
:102D000040058DF80C50002BDED1022509E0CDF8EE
:102D10000080334603AA2146384624F06FFBEBE7D8
:102D20000125DFF85090CDF80080334603AA2946EC
:102D3000384624F006FB99F81430022BDCD1182C0D
:102D4000DAD00022294603A8FFF772FF3146024677
:102D50004046FFF76DFF002204461821384624F054
:102D6000B5FB8442C8D0D9F82430002BC4D0984792
:102D7000C2E7FEE7341E002013B54FF4C073009382
:102D800009494FF0FF330022044624F05FFB074B54
:102D900007491B7A009300224FF6E073204624F087
:102DA00055FB02B010BD00BF08000B00341E002010
:102DB0001F00110038B5012204460D46082124F0F9
:102DC00064FA2A460421204624F05FFA02220821F0
:102DD000204624F05AFA20460249BDE83840002235
:102DE00024F050BB10000B00052907B50AD1402381
:102DF000009307496FF40053002224F087FB03B0CF
:102E00005DF804FB0929FAD14FF40153F0E700BF44
:102E100008000B002DE9F041374C002302220E463A
:102E20000421C4E90A33C4E90C33C4E90E3305466E
:102E3000E3732282A3826381FFF7BCFF05218046F2
:102E40002846FFF7B7FF0A2107462846FFF7B2FFDB
:102E5000C0F304402072B8F1000F04D01FB110B1CC
:102E60002846FFF789FF20212846FFF7A3FF234BC1
:102E7000C71A78427841F306607204D506212846C5
:102E8000FFF798FF2060B10604D507212846FFF719
:102E900091FF6060720604D508212846FFF78AFF7B
:102EA000A072330604D509212846FFF783FFE0729C
:102EB0000023C4E9063384F82030E37A0BB9852374
:102EC000E372A37A0BB97423A3721F212846FFF77C
:102ED00071FF1E2160732846FFF76CFF10F07F031F
:102EE00008BF2E2328460649A373002224F028FB9E
:102EF0000020BDE8F08100BF341E00204002001019
:102F000014000900012937B504460D460AD124F002
:102F1000D0F90095FF232A461E49204624F0E3FA03
:102F200003B030BD02291ED1032300931A49FF23A9
:102F3000002224F0D8FA4FF40003009320461549EC
:102F40006FF48073002224F0E1FA002300932046FE
:102F500010497F232A4624F0C6FA204603B0BDE874
:102F6000304024F0A6B9012300930022FF232B2137
:102F700024F0B9FA4FF40003009300226FF4807339
:102F80000449204624F0C2FA0023009302227F2342
:102F9000C2E700BF080011000400110073B5284B00
:102FA0002849294E0022044624F057FB10230093A1
:102FB0002449FF230022204624F095FA03251420FB
:102FC00022F00EFC00223146204624F07FFA012830
:102FD00033D0013D15F0FF05F1D1012500231A463C
:102FE0002046184924F0ACFA204617490123002254
:102FF00024F0A6FA012300932046FF231149022260
:1030000024F071FA11490022204624F03BFA6FF0B7
:10301000604398420E494FF00002204614BF6D42B3
:103020004FF0FF3524F02EFA6FF06043984214BF42
:1030300028464FF0FF3002B070BD0025CEE700BF3C
:10304000010002000C000400200004001400040031
:103050001C000400012973B5044604D002B0BDE889
:103060007040FFF79BBF0E49002224F01BFA40F28C
:1030700005130B49009306464FF6FF7300222046C6
:1030800024F0E4F92046FFF789FF002205460449B1
:1030900000922046334624F0D9F9284602B070BD8C
:1030A0004800070005292DE9F047044640D1264D88
:1030B000264E274FDFF89C80DFF89C90DFF89CA01D
:1030C000274B28492046002224F0C7FA53462046C1
:1030D0002549002224F0C1FA4B462046234900220C
:1030E00024F0BBFA434620462149002224F0B5FAD9
:1030F0003B4620461F49002224F0AFFA33462046C3
:103100001D49002224F0A9FA2B4620461B49002223
:1031100024F0A3FA20461A4B1A49002224F09DFA03
:103120002046194B1949BDE8F047002224F095BA12
:10313000174D184FDFF86080DFF86090DFF860A06F
:10314000184B2E46BDE700BFF5CF0100B5CF0100FB
:1031500036CF01007EC70100BEC601003EC401009B
:10316000FDC00100380003003C00030040000300E4
:1031700044000300480003004C000300500003001B
:10318000400200101C00030089A46D1B20000300F6
:10319000B5AF02007DAF02003EAF0200FEA5020007
:1031A00036AC0200FEA802002DE9F04F0B7991F831
:1031B0000080182B85B004460D4600F21E8191F860
:1031C00003B0BBF1180F94BF4FF0000B4FF0010B91
:1031D000EA796B78C54E511E013B4A42DBB24A4147
:1031E000062B9CBFC24931F91390338A23F0E003C8
:1031F0003382697BEB79337301F102014FF00107F0
:1032000007FA01F71FFA87FA4FEACA0A4FEA0212D1
:10321000504688BF4FF480790392FDF797FAB5497D
:10322000FCF76EFFFDF760FB7082297B71752B7ACE
:10323000039A5B01090301F4304103F020030B43BF
:10324000A97B43EA0143134300930022AA4B1021B8
:10325000204624F05BF9BBF1000F00F0D180338AE7
:10326000A64943F0600333824FF440630093002289
:103270006FF4C053204624F049F9A14940F20633C7
:103280000022204624F0E9F900231A464FF00E11DF
:10329000204624F0E2F99B4B9B490022204624F073
:1032A000DCF99A497D230022204624F049F9AB78C5
:1032B00000930022FC234FF4C021204624F013F990
:1032C0007B1E4FF400310022DBB2204624F038F997
:1032D0006B78072B0CBF08210021204624F0C8F989
:1032E0002B7B8B4903F00303032B0CBF894B8A4BC9
:1032F0000022204624F0B1F988490022204624F01B
:10330000C1F82B79EA7885491B02D200D2B203F4C6
:10331000F85313436A7920F4FF50520020F01F0045
:10332000B8F1090F02F0060208BF40F00100134394
:1033300003430022204624F090F96B78AA791B03FE
:1033400043EA8223009300226FF474432421204631
:1033500024F0DCF86B890BB981236B816B89022225
:103360004FF4C021204624F06DF9B8F1090F40F068
:1033700083806B4B6B490022204624F06EF940F6A7
:103380003C7300224FF41021204624F05BF9664B79
:1033900066490022204624F060F965491423012281
:1033A000204624F0CDF863490E230222204624F063
:1033B000C7F8614981230022204624F0C1F8022386
:1033C00000224421204624F0BBF801212046FFF7CB
:1033D00099FD0627142022F003FA002244212046FA
:1033E00024F074F8830774D4013F17F0FF07F1D17C
:1033F0004FF0FF3005B0BDE8F08F4FF0010BE7E66E
:103400002B7B23B36A7B4D4B3F4933F81220AB7BB8
:10341000012B9BBF4FF43563534313019A0C8CBFB0
:10342000C3F30A03C3F3CA1303F5806388BFD20949
:10343000B3F5006F28BF013292B202F07F02009212
:103440004FF6807302222046D14423F0FFFFB9F1EA
:10345000FF0FC8BF338A2949C5BF43F02003338219
:103460004FF4A0534FF48063009300226FF4C053D5
:10347000204624F04BF81AE72046314B2949002218
:1034800024F0EBF841F63C7300224FF41021204663
:1034900024F0D8F881E7737A012B15D14FFA88F11F
:1034A0002046FFF7A1FC4FF4C8430093254948F29A
:1034B000FF130022204623F0C9FF0121204605B05A
:1034C000BDE8F04FFFF7C6BD41462046FFF7EAFDD5
:1034D000E9E72B79093B0F2BDDD90022194900922E
:1034E000FE23204623F0FFFFE7E700BF341E002045
:1034F000900B03006666663FCF4FFCFF08000B0091
:103500000C000E000A5A0C0012000E0016000E00ED
:103510000C000600CC355FAF4C585FAF14000100C3
:103520003400011C1C00070033A8B5081000070078
:103530005000070018000700080009009E0B030058
:103540003411071C18000300002302491A4624F016
:1035500084B800BF04000700002370B51A460D466A
:103560000A49044624F079F800231A464FF4E02172
:10357000204624F072F845B120460549BDE8704068
:103580004FF0E053002224F068B870BD48000700F7
:1035900014000700052907B50AD1074B0093074916
:1035A0004FF0FF33002223F0B1FF03B05DF804FBBE
:1035B0000929FAD1024BF1E7003C000204000700A0
:1035C000001C000273B54FF008230E46154615493E
:1035D000009300224FF0FF33044623F097FF4FF093
:1035E00060131049009300224FF0FF33204623F070
:1035F0008DFF052E0CBF0C4B0C4B009300224FF09F
:10360000FF334FF4E021204623F080FF45B1084B03
:1036100008490022204602B0BDE8704024F01DB8E1
:1036200002B070BD48000700003C0002001C000210
:10363000001101011400070073B504460E4615463B
:10364000042141F6220223F020FE002229462046D2
:10365000FFF7B8FF29462046FFF79CFFC6F30B0390
:103660001449154E0022204623F0ECFF032300935B
:103670001149FF230022204623F035FF0022314666
:10368000204623F023FF10F00105F7D12046FFF775
:103690005BFF29462046FFF75FFF204623F009FE27
:1036A00006492A46204623F011FF00F03F0002B0F1
:1036B00070BD00BF1C000800100008001C000700BF
:1036C00070B50A8905460C465AB90B780C4923F0A7
:1036D00037FF63680B4928460022BDE8704023F09D
:1036E000BCBF0022084923F0F1FE10F0010F218930
:1036F00014BF092205222846FFF79EFFE9E700BF15
:103700001C0007000C00010014000100F7B51C4666
:103710000B44B3F5806F06460D4617461DDA7F2C25
:1037200009D800920B4622464FF4A01123F0FEFE6A
:10373000002003B0F0BD0A491423002223F08DFFBE
:10374000084923460022304623F087FF00972B4686
:1037500000224FF4E8113046E8E74FF0FF30E8E789
:1037600004001F0008001F007F2A13B5044641EA29
:10377000C32109D841EA024100910C4B00222421C7
:1037800023F0C4FE02B010BD803241EA0241009134
:10379000064B0022242123F0B9FE00224FF4002121
:1037A000204602B0BDE8104023F090BE00F400FCBB
:1037B000F7B50A46044638B9584A5948012124F059
:1037C0007AFE4FF0FF307AE011F01D0701F002059C
:1037D0007FD011F0010639D05249514823F01FFD26
:1037E0007DB3002300931A460D21204623F09EFE50
:1037F00003224421204623F069FE4B490546024638
:10380000474823F00CFD15F020055AD147492A46B8
:10381000204623F037FE464906460246404823F03C
:10382000FEFCB6F5502F44D1424A3D48012124F018
:1038300042FE00952B461A461946204623F076FE96
:10384000BFE700952B462A460321CEE711F0080773
:103850000ED03949324823F0E2FC25B100963346B8
:1038600032460F21C1E700952B462A460721BCE7C7
:1038700011F010060ED03149294823F0D0FC25B1B3
:1038800000973B463A460E21AFE700952B462A4665
:103890000521AAE72A49224823F0C1FC25B1009658
:1038A000334632461021A0E700952B462A460921CF
:1038B0009BE7244A1A48032124F0FDFD002003B0B1
:1038C000F0BD214A1648012124F0F5FD00230093A4
:1038D000B1E711F0200611D01C49114823F09FFCDC
:1038E0003DB100973B463A461121204623F01EFE8B
:1038F000E4E700952B462A460B21F6E714490848D1
:1039000023F08DFC25B10096334632460C21ECE7BE
:1039100000952B462A460121E7E700BF2910030046
:1039200010E00200541003003F11030030000F00AC
:10393000621103008411030083100300C11003000F
:10394000FF100300B5110300DB1103000E1203008A
:10395000391203002DE9F04F91B08407009302F073
:1039600004030293C2F3C20303F10103DDF868808C
:10397000039205460E46059340F0BA81041D30B10E
:10398000072909D86FF01B0011B0BDE8F08F01F0D6
:1039900007063444C6F10806009B4FF00009591E83
:1039A0004FF0040A4FF0FF330193CDF810904F46CB
:1039B000CB4653460DB1009A22600598002800F3CB
:1039C000E8809848009A824203D397488242C0F028
:1039D000E080039AA4EB050E92074FEA9E0000F1E7
:1039E00003810F2F00F2B180002D00F0058107F157
:1039F00040020DEB020C019A0CF8200C0CF8102C74
:103A0000049801300490E7E07A285DD84B280ED85E
:103A1000472859D829282DD8252852D054D82028CD
:103A20007AD02338D0F1000B4BEB000B74E04C380C
:103A30002E2849D8DFE800F07048484848484848F0
:103A4000484848484B484848484848484859484BDF
:103A50004B595959704B6D487048184B184848825B
:103A60007F4B48484B487F0000204FF0000B4FF041
:103A7000040A38E02A38C0B2012202FA00F010EA43
:103A80000E0F49D110F0625C2FD110EA020B43D027
:103A90006046013C5444B4FBFAF40AFB04F4002DE4
:103AA00061D0A3EB050CA444B4453FF66BAF0028EE
:103AB00068D1042B47D158F8043B23600434042315
:103AC0002AE0019A013A01924FF0000B24E011F82C
:103AD000010C6C2834D111F8023C00206C2B834679
:103AE000C5D14FF0080A5346D3E708F1070828F07C
:103AF00007080734F8E802AB24F0070435B106984C
:103B00002044B0423FF63EAFC4E900AB08344FF06A
:103B1000000B4FF0080A534611F8010F002878D027
:103B2000BBF1000F7FF470AF2528F5D1019B013365
:103B300001934FF0010B4FF0040AECE7584694E76D
:103B400000208346A5E7082B02D06FF015001BE785
:103B500008F1070828F00708F8E80223C4E9002361
:103B600008340823D8E768B9042B02D108F1040807
:103B7000A4E7082BE9D108F1070828F0070808F1A5
:103B80000808EDE7059A013A059258F8042B0092CF
:103B900010E7039A900720D5A4EB050E4FEA9E008C
:103BA0004FF0010CBEF5007FCFD20F2FCDD8F5B16D
:103BB00007F140020DEB020EC0B2019A0EF8200C84
:103BC0000EF8102CBCF1000F3FF41AAF60F07F002C
:103BD0000EF8200C09F101090137C5F1080204347F
:103BE00006924FF6DA7E97E74FF0000CDAE7BCF169
:103BF000000F01D00136EFE7029802360028EBD122
:103C00000098CDE90631FCF7C1FEDDE90631064436
:103C1000E2E7631BB3F5806F97D23DB9A6F10804C4
:103C2000E018B1E680DA02001C430300029A286023
:103C30009B082B709DF81030C2B1EB7085F8029094
:103C4000B9F1000F05D008A80022C5F1010C974278
:103C50000ED1C5F101030DF120084FF0000A0193C8
:103C60000DF1300B574512D1601B8DE66B70E5E707
:103C700010F8013B190608D50CEB040EB64503F00D
:103C80007F033FF67FAE04F8013B0132DFE7B9F175
:103C9000000F03D098F90020002A17DB029BD3B154
:103CA0001AF80B2004F8012B0022019B181910446C
:103CB000B0423FF667AE98F8000004F8010B009997
:103CC0000392204629F0CDFC039A14440AF1010A1C
:103CD00008F10108C6E798F8002055F82230009353
:103CE000029B45F822300098FCF750FE421CDCE7AE
:103CF0006FF00D0048E600BF2DE9F04F97B000AF20
:103D000090F802A0D7F880B03B62CBF3C003044622
:103D1000FA62BB61894641B9457800780AEB8000B8
:103D200020444D4517D8A0EB0409E378FB61BAF1B4
:103D3000000F02D01BF0010F16D1FB6953BBFB6AC9
:103D40001BB13A6A4946204698474D4628465C379B
:103D5000BD46BDE8F08F461C3046FCF717FE01302B
:103D6000304409F10109DCE7237862687A62FA6A73
:103D70009900796104EB8301002A40F000814D46EF
:103D80000E4601EB0A094FF000084E454CD101EBFD
:103D90000A0610E01BF0020FD1D023789A007A6156
:103DA00062687A62FA6A04EB8301002A77D14D4691
:103DB00001EB0A0690461BF0050F0CBF02230123FE
:103DC000FB62FB6906EB430A0BF00203BB6256453C
:103DD000BCD016F8021B16F8013C54F82390994BFE
:103DE000994502D3984B994536D3BB69002B40D0F7
:103DF000786A23F03EFE00283BD0E9468AB06A4646
:103E0000924B53617B6AC2E906314FF4007313840D
:103E10008F4B42F8103F8F4800234FF4125100F0AF
:103E200023FD023DCD46D2E716F8013BF96254F876
:103E30002300FCF7ABFDD7F88430F96A01304BB1B1
:103E4000D7F8883098453EBFD7F8843023F818005B
:103E500008F10108054498E7BB6923B1786A23F0AB
:103E600008FE0028C9D11BF0010F05D1FB6AED1A2D
:103E7000ADE7BB6A002BAAD04846FCF787FDD7F810
:103E8000843053B1D7F8883098453FBFD7F88420A5
:103E9000431C22F8183008F10108054497E7BAF1ED
:103EA000000F72D01BF0040672D0D046002607F136
:103EB000480052463B61B96229F0D3FBB96A3B69BD
:103EC00001EB0A02BA62FA69F9695200FA60BA6A49
:103ED00002EB41023A610BF00202BA603A69B96A38
:103EE0008A4257D162787A621BF0020F32440CBFCB
:103EF0004FEA580100211BF0010FD2B240F09F8021
:103F00001BF0040F14BF40460020BB616270A0701C
:103F1000E1703A6A7969FB6A20469847051EFFF608
:103F200015AFBB6923707B6A6370FB69E370414620
:103F30003A6AFB6A84F802A007F148009847B0F19A
:103F40000008C0F2BB807B693A6AA9EB0A01C91A72
:103F5000FB68C91AD7E90A0398470028C0F2B08065
:103F6000A84408EB00054FF0000B07F1380AB345F1
:103F700072D300213A6AFB6A08469847E6E656463D
:103F80004FF0000807F1380093E75646D04697E710
:103F9000B04695E7BA6A12F8021BBA6212F8015CE1
:103FA000284A54F82500904202D3274A90421ED353
:103FB000BA6932B1786A7B6023F05BFD7B680028C8
:103FC0008CD1BA6802BB08F1280207F1300C08F165
:103FD0000100944407F1580252FA80F008F10208F7
:103FE0000CF8101C5FFA88F800F8105C76E7BA69E4
:103FF0003AB1786A7B6023F03CFD7B6800287FF44F
:104000006DAF1BF0010F09D006F1280207F1300057
:10401000711C161806F8205CCEB25FE71BF0040F87
:104020003FF45CAF08F1280207F1300008F101010C
:1040300002EB000808F8105C5FFA81F84EE70020F8
:1040400063E700BF80DA02001C430300761203001E
:1040500004000001F8DF02001BF80A3087F837304F
:1040600054F82390D7F884302BB3D7F888309B4589
:1040700021D2D7F8843033F81B803A6AFB6A0121D9
:1040800007F13700984700281ADB0544B8F1000F04
:1040900006D14846FCF77AFC00F101081FFA88F8BF
:1040A0003A6AFB6A414648469847002808DB0544BF
:1040B0000BF1010B5BE74FF00008DEE7454645E6F4
:1040C000054643E6014B1860704700BF1C03002003
:1040D00080B505460E461746984621F0C3FB0346B9
:1040E00029F0C4FCDFF81890044649F80030424635
:1040F00030463946A84754F8090002F053FD00BF86
:10410000080000002DE9F047058B0446280790467B
:1041100011D4022905F0070540F0CC80204623F099
:1041200070FF78B10138218B042811D8DFE800F046
:10413000C2106D85950001290CBF45F0100545F0B2
:104140002005258388F31188BFF36F8FBDE8F087C2
:1041500001F0070AAA4500F0A5800027B9463E46AF
:10416000A368002B00F0BC8041F00801218388F394
:104170001188BFF36F8FA168002900F0BA800D6825
:10418000002900F0B680D1F804803346524620461C
:10419000C047002D76D02B6829461D46F0E701F078
:1041A00007035A1F012A1BD8002221F00701062B02
:1041B000276889B2C4E9002209D13B4603E0628B3B
:1041C000013262831B68002BF9D141F00201218387
:1041D000204623F016FF00287AD041F0200176E037
:1041E000042B0AD121F0070189B22183204623F054
:1041F00008FF10B141F020012183218B01F0070A53
:10420000AA454FD00027B946AAE7236921F0070144
:1042100041F00601062DD3F8009021832DD1B9F18C
:10422000000F3FD041F00801218388F31188BFF3CC
:104230006F8F3A492046C84729E021F007012369DA
:1042400041F0040189B2042DD3F804902183E6D013
:1042500000273E464FF0040A82E721F00701236958
:1042600041F0050189B2052DD3F808902183D6D0FD
:1042700000273E464FF0050A72E700273E464FF002
:10428000060A6DE72B4687E7B9F1000FD1D1EFF3AE
:104290001188202383F31288BFF36F8F238B23F0C1
:1042A00008032383258BEA062ED525F010032383EC
:1042B00005F007056669218B002EBFF670AF00235D
:1042C0002768C4E9003321F0070141F0010121838F
:1042D000218B01F0070AAA454FF000097FF440AF97
:1042E000002F9CD041F00801218388F31188BFF38F
:1042F0006F8F002FC8D03D6839463346524620465E
:1043000023F0ABFE2F46F4E7AB067FF51BAF25F09D
:104310002003238305F0070500E700BF8780020024
:104320002DE9F047DFF85880044607464FF00109B1
:1043300014B93846BDE8F08794FAA4F5B5FA85F5C6
:1043400009FA05F32E0108EB05156FEA030A24EAC2
:1043500003042B7B002BEBD058F806301B694BB9BC
:104360004644042273682846196807EA0A0724F0BD
:1043700033F8DDE7284698470028D9D1F0E700BF99
:10438000A8E0020030B51049104889B0002229F099
:10439000D7F80F4D0F4900220023CDE90623002452
:1043A0000E23CDE90334CDE901440B4B00944FF4C7
:1043B0004072284620F078FF0849284628F040FF40
:1043C000204609B030BD00BFE143000020110020AD
:1043D000980C0020005900200D4700002A1303000C
:1043E000014820F01FBC00BFE80800202DE9F0477D
:1043F000804621480F4623F0CFFF0646002833D0E1
:1044000000252846BDE8F087237B83B12368DB685D
:104410000BB120469847636883F8069023681B69B0
:10442000D3B9636804221968204623F0D5FF01360A
:1044300010345445E8D3B8F1000FE2D0002DDFD09E
:104440002846FFF76DFF0546002FF7D000214FF4F7
:10445000A47028F0A7FFF1E7204698470028E0D095
:1044600009FA06F31D43E2E7044CDFF814A0054601
:104470004FF00109DDE700BF841E0020A8E0020024
:10448000B8E00200014B53F8200070476CE40200D2
:1044900008B5034608462BB1044A136000F07AFCC5
:1044A000002008BD6FF01500FBE700BF20030020CF
:1044B00010B5044C237813B9034820F0B3FB012353
:1044C000237010BDDA4E0020E808002010B5044625
:1044D0000B4823F061FF5CB1BFF35B8F094B53E8DE
:1044E000001F013943E80012002AF8D1BFF35B8FA7
:1044F000054829F031F80548BDE8104020F092BB8E
:104500007C1E0020801E002020110020E8080020D2
:104510000020064BBFF35B8F014653E8000F43E8D2
:104520000012002AF9D1BFF35B8F70477C1E002078
:1045300070B5FFF7EDFF084C084E0546B44200D3B6
:1045400070BD63685B792BB123685B6813B1294642
:10455000204698471034F1E7A8E00200B8E00200D6
:1045600010B5044C0449204623F0C9FB034B1C60E2
:1045700010BD00BF0808002058E40200741E00208F
:104580000D4A0E48002310B513700D4A13600D4AF2
:104590004FF400411360FFF77BFFFFF7E1FF0A4B89
:1045A0000A4918468B4200D310BD1A1A5C681211D2
:1045B000013222711033F5E7DB4E002095830200B3
:1045C0007C1E0020801E0020A8E00200B8E002004F
:1045D000014600220148002323F0B2BB0808002056
:1045E000014823F04BBC00BF08080020024B0146E5
:1045F000186823F097BC00BF741E0020014823F008
:10460000CCBC00BF0808002070B5294B18780028E2
:104610004DD0FFF7E5FF0546002845D1254B264C38
:104620001B68002B19DD28F044FF4FF47A72A0FBC1
:10463000020302FB0131C30BD4E9002043EA4143EA
:104640009B1A4FEAD13140F2E93261EB000193420B
:1046500071F1000101D3FFF76BFFD4E9003213F5CC
:104660007A7342F10002C4E90032BDE87040FFF7FE
:10467000C5BF63685B7923B1236829461B68204660
:1046800098471034B442F4D32846FFF7AFFFBFF386
:104690005B8F0A4B53E8001F013943E80012002AE0
:1046A000F8D1BFF35B8FB9E7054C064EEAE770BD62
:1046B000DA4E00207C1E002018110020801E0020F1
:1046C000A8E00200B8E0020070B50D4D297861B98C
:1046D0000120FFF78BFE0B4C0B4EB44206D3FFF7C5
:1046E00093FF0028FBD101232B7070BD63685B79B9
:1046F0001BB1236820469B6898471034EDE700BF44
:10470000DB4E0020A8E00200B8E0020000212DE905
:10471000F0470846FFF76AFE044658B340F2676860
:104720004FF0000929F0A2F91B4B1C4A1B581360DB
:1047300033B11B4B1B68092B02DD1A4820F072FABB
:10474000194FDFF860A0002544B12046FFF7E8FDCF
:10475000044618B94FF0FF384FF0FF39FFF754FF08
:10476000064628B9B5B942464B46504620F094FA61
:104770003546E9E74FF0FF384FF0FF39D2E72B68B5
:104780009B691BB100221146284698471035BD424F
:10479000F5D3E8E7054DFAE708000000781E002091
:1047A000801E0020E8080020B8E00200A8E0020017
:1047B00013B5184823F0F0FD174B1B7873B1EFF3D6
:1047C0001184202383F31288BFF36F8FFFF71CFF40
:1047D00084F31188BFF36F8F02B010BD0F4B1B68BD
:1047E000002BF9D050B900220023CDE900230C485A
:1047F0004FF40042002321F015FBEDE70928EBD12F
:10480000074828F0A9FE074802B0BDE8104020F094
:1048100009BA00BF801E0020DB4E0020781E002059
:1048200020110020E808002010B5064B1B68044644
:1048300098472146A060044823F001FBBDE81040E2
:10484000FFF7B6BF2003002008080020044A054BEC
:104850009B1AB1EBD30F34BF52F8310000207047E0
:1048600050DF0200A8E002002DE9F04F8FB004AF46
:10487000C1F34A28B8600D4691467B600C0DB8F133
:10488000000F63D0002607F114034FF0040B4FF024
:104890000A0AC7F80C80C7E907667E620193CDF863
:1048A00008B0CDF800A007F11C03F968324648466D
:1048B000FFF722FAB0F5006F03461CD36C468AB0AE
:1048C000D9F8041004AB2648C3E9050140F2FF7192
:1048D000D9611A464FF400711984224B42F8103FF7
:1048E000214833464FF41251FFF7BEFFA5462C373F
:1048F000BD46BDE8F08FC0F30A0804F11700184464
:1049000020F0070080083B60FFF762FE68F3532544
:10491000044690B13B68154AC7E9083600F110011A
:1049200007F11403F961CDE900A3CDF808B0F968E7
:1049300007F11C034846FFF7DFF968F353257B684E
:10494000B9682A46204623F066FDD0E704F1170037
:1049500020F007008008FFF73BFE0446EDE700BFAC
:104960003F1303000400000130E00200EB8302006B
:104970002DE9F04F87B0DDE91279DDE9105A0446E0
:10498000039193469846BFB1CDF800903B465246FE
:1049900010210020CDF81490FEF7DCFFB0F5006F79
:1049A00006460AD3184A194840F2FF73022107B09D
:1049B000BDE8F04F23F088BD3E4605F117003044B6
:1049C00020F0070004F007048008FFF701FE0BF059
:1049D000070BE40044EA8B1444EA462444EA0554F5
:1049E000054640B13FB1CDF800903B4652463146B6
:1049F0001030FEF7AFFF039943462246284607B022
:104A0000BDE8F04F23F007BD7E13030030E0020045
:104A1000406820B1034BC01A40F3CF0070474FF0FD
:104A2000FF30704750DF02000EB403B503AB014600
:104A300053F8042B0448019302F060FB02B05DF8C8
:104A400004EB03B0704700BF2B850200CA0605D4F3
:104A50008B064CBF02490349FFF7E6BF704700BF12
:104A6000B7130300B61303002DE9F04F89B09B463E
:104A7000149B06939DF84CA0159B0593169B179EBF
:104A8000049304460D469046BAF1000F00F09D8055
:104A900006F48073079323F09DFC06F0020902469A
:104AA00000283ED091492046FFF7BEFF0746B9F1E6
:104AB000000F08D016F0440F35D18D492A46204604
:104AC000FFF7B2FF074406F0010353B1894B8A494F
:104AD00053F82A20894B2046002A08BF1A46FFF7C0
:104AE000A3FF06F48073002B49D006F00803002BC7
:104AF00063D1B8F1000F66D0814942462046FFF7E6
:104B000093FF0546069B3D44002B6DD1049B002B73
:104B100073D1F30700F1E48031462046FFF796FF9A
:104B2000D8E00746C3E7774B18680028CAD0764B11
:104B30004FF47A791B68B5FBF3F54FF46163B5FB6D
:104B4000F0F100FB115509FB05F54FF03C0CB1FBF2
:104B5000F3F203FB1211B5FBF0FEB1FBFCF300FB1B
:104B60001E550CFB131109FB05F50091B5FBF0F583
:104B70006649CDE901E52046FFF756FFA2E706F0BA
:104B80000803EBB1624B634953F82A202046FFF734
:104B90004BFF0546B8F1000F05D059494246204663
:104BA000FFF742FF0544BBF1000FABD05A495A460C
:104BB0002046FFF739FF0544A4E74FF0000BE1E77B
:104BC00006F00805E6E745469CE7BBF1010F069BAA
:104BD00006D1002B64D1049B002B7BD000250CE078
:104BE000002BF8D04D485CE04D48069B4D492246CD
:104BF00022F00EFF049B002B68D0DFF82C81DFF839
:104C00002C91049F3146102F204628BF1027FFF714
:104C10001DFF4FF0000B5D4545DC059B49461A78AA
:104C20002046FFF701FF4FF0010B1BF0070F03D1E8
:104C300041462046FFF7F8FE5F453BD9059B4946B4
:104C400013F80B202046FFF7EFFE0BF1010BBBF131
:104C5000100FEAD1364920464FF0000BFFF7E4FE73
:104C60005A46059B9A5CA2F120015F2928BF2E229B
:104C700030492046FFF7D8FE0BF1010BBBF1100FB6
:104C80001DD01BF0070F03D141462046FFF7CCFE95
:104C90005F455A46E5D841462046FFF7C5FEEBE79B
:104CA0001F485546A1E741462046FFF7BDFE0BF1E0
:104CB000010BB0E720492046FFF7B6FEC5E7059B8C
:104CC0003B440593049BDB1B04939AD1BAF1000F7C
:104CD0007FF41FAF204609B0BDE8F04F23F018BCA9
:104CE000064A05492046FFF79FFE15E7BE1303005D
:104CF000C21303007CE4020000220300B913030086
:104D0000E71303008C1E0020881E0020CB13030035
:104D100090E40200EB130300F1130300618502002D
:104D20002B850200FD700000FE130300F613030044
:104D30000014030002140300FC13030073B542F2D5
:104D40000F738B4228BF0B4605680F4A04460521A6
:104D5000684621F0EFF863680C495B6806460B2251
:104D6000284623F0C7FB63683246694628465B68DD
:104D700023F0C0FB636806495B681B22284623F0CA
:104D8000B9FB02B070BD00BFA00F030021140300E7
:104D900005140300074A00210123904206D8064A61
:104DA00001B901231360054B1860704740085B0090
:104DB0000121F2E740420F00881E00208C1E0020D7
:104DC000F8B5074F0D4604464618B44201D12846AF
:104DD000F8BD14F8011BBB6801485B689847F4E70D
:104DE000A0DB0200014B036000207047D8E4020002
:104DF000F0B40C4B0C4E5F6A0C4BB34203D36FF014
:104E00008500F0BC70475D68BD4209D31C693CB1A8
:104E100095F802C00579AC4502D12346F0BC18478D
:104E20002433EAE7BC1E0020940B0020700B002006
:104E30002DE9F047134CDFF85080DFF8509005461D
:104E40000E461746444503D36FF08500BDE8F08752
:104E50006268D9F824309A4212D3A36983B190785A
:104E60002979884205D13A4631462846BDE8F047BF
:104E700018475279012A03D13A46314628469847C5
:104E80002434DFE7700B0020940B0020BC1E0020B0
:104E90002DE9F0410B4CDFF8308005460E461746F1
:104EA000444502D36FF0850009E063690BB92434EF
:104EB000F6E73A463146284698470028F7D1BDE83C
:104EC000F08100BF700B0020940B0020024B0022E9
:104ED0001A605A60704700BF771F002070B50B4BF7
:104EE0000B4CA34201D3002070BD196A1E7F002223
:104EF0000439D5B2AE4201D82433F2E7013211F8B9
:104F000032508542F5D10120EEE700BF700B002042
:104F1000940B002008B5044A03460121034823F0FE
:104F20009BFB002008BD00BF6714030090E0020057
:104F300038B5054626F051F910F1780F044611D125
:104F40000D4A0E482B46022123F086FB284623F00B
:104F500085FB0B4AD2F8C43023EA0003C2F8C43000
:104F6000002407E00028F1D0064A04482B4601211E
:104F700023F072FB204638BD8214030090E002004B
:104F8000BC1E0020A314030008B509480378C3F32E
:104F900041130A3350F823303BB100F1080200F10D
:104FA00010019847C043C00F08BD1846FCE700BF7A
:104FB000BC1E002004282DE9F74FDFF89C90044622
:104FC0000F4615D001282FD1DFF8908098F8B9301E
:104FD00053B300F0E9FE224D4D4522D22A6A4FF02C
:104FE000000A2B7F5FFA8AF6B34204D82435F3E730
:104FF000FFF76CFFE8E702EBC6060192307926F076
:10500000ECF88346307923F029FBD8F8C430019AB4
:1050100023EA0003BBF1000FC8F8C4300AF1010A0B
:10502000DFDA002388F8B9300D4D4D4508D30B4B1E
:105030001B6A6BB13946204603B0BDE8F04F1847F4
:10504000EB681BB13A462146284698472435ECE7E1
:1050500003B0BDE8F08F00BF940B0020BC1E002001
:10506000700B002073B5C4B263060D468DF807407F
:1050700007D02046FFF732FFB0B1144B93F8BA00C7
:1050800090B1124E23468DB1114A1248032123F0EC
:10509000E3FA9DF8070019F073FFF3691BB10DF1F6
:1050A000070108209847012002B070BD0A4A09484C
:1050B000032123F0D1FA9DF8070019F093FFF3695B
:1050C000002BF0D00DF107010920EBE7BC1E0020FA
:1050D000C514030090E00200D814030073B5044621
:1050E00080788DF8000023796279294D43EA022304
:1050F000ADF80230E37803F003038DF8043023F0B9
:10510000ADFAD5F8C430184206460CD0A478204633
:1051100000F02CFE2046FFF70BFF28F08BF810B9AB
:10512000962020F05DFB684619F0FCFE10F1780F28
:105130009DF800301BD1174A1748022123F08CFA42
:105140009DF8000019F08AFF10F1780F19D19DF831
:105150000030124A1048022123F07EFAD5F8C430FC
:105160000120334385F8B900C5F8C43007E00028B2
:10517000E6D00B4A0848012123F06EFA002002B065
:1051800070BD0028EAD09DF80030064AF2E700BF63
:10519000BC1E0020ED14030090E002003415030053
:1051A00010150300541503002DE9F047A34EB36911
:1051B00004460F461546FBB9237803F01F03012B65
:1051C00000F09D80022B00F0048133BB94F90000B5
:1051D0002A686178002834DA062912D008292BD0F1
:1051E000D9B901231370517096F8C3305B0043F0B6
:1051F0000103137002232AE198470028DCD1002024
:105200000DE06288100A011F0129844605D907288C
:1052100003D8716AD2B20C781CB96FF01500BDE8E2
:10522000F0874E78664503D19A4200F00B81013336
:105230002144F0E70B780AE196F8BA3013700123A5
:1052400005E101390829E8D801A353F821F000BF8E
:10525000E95200001B520000F75200001B520000F0
:10526000755200001B5200001B5200001B52000030
:1052700081520000A07819F017FE0028BFD0CCE7BB
:105280006388756A63BBFFF721FE638886F8BA30CE
:10529000F369002BB3D06A4903209847AFE76B78D6
:1052A000042B10D0052B11D0022B04D16F79638809
:1052B000BB4208BF01202B781D442B78002BEED178
:1052C0000028AAD0DFE795F80380F4E76388BB42A3
:1052D000F1D1B8F1000FEED12846FFF7FFFEEAE763
:1052E000FF270020B846E8E76388012B95D100230B
:1052F00086F8C33083E76388012B8ED1F8E796F8F0
:10530000BA30D5F800C0002B87D0756AA38894F80E
:1053100004E02A46107800283FF47FAF5178022934
:1053200004D192F80480F04500F293800244F1E742
:105330008CF800208CF80120396060E7154494E077
:105340000B2A7FF46AAF00274FF0FF08C146BA4628
:1053500006E06B78042B0FD0052B21D02B781D4451
:105360002B78002BF5D1F36913B1514607209847EC
:10537000002F7FF444AF50E795F80280A38895F89A
:1053800003909845EAD163889945E7D1B8F1070FB2
:105390001CD806EB0803AA4683F8BB900127DDE77B
:1053A000A3884345DAD1A3784B450AD0AF78384675
:1053B00000F0DCFC3846FFF7BBFDB0FA80F77F0950
:1053C000CCE72846FFF78AFE0746C7E7AA4600272C
:1053D000C4E794F900206378002A18DA002B7FF4E0
:1053E0001CAF24792D6863060AD02046FFF776FDAE
:1053F00000283FF412AF96F8BA30002B3FF40DAFFF
:105400002946204619F00EFE00236B70F2E6012BB0
:1054100008D0032B7FF401AF6388002B7FF4FDAE2F
:10542000012103E0618800297FF4F7AEA088FFF72F
:1054300019FE00287FF4E3AEEFE600BFBC1E00209B
:10544000761F0020022829607FF4F4AE4B883B6071
:10545000D5E694F9000062780028BFF671AF002A03
:105460003FF466AF0A2A7FF4D8AE2A78002A3FF4C8
:10547000D4AE697804297FF461AFA9788B427FF4B8
:105480005DAF072B96BF9B19002393F8BB308CF8B8
:105490000030D4E62DE9F84FDFF83CB0DFF83CA04F
:1054A00005460F469046994604264B4642463946E5
:1054B000284619F0FDFD10F10B0F044609D12B46CB
:1054C0005A460221504623F0C7F820F005F9013E64
:1054D000EBD12046BDE8F88F7515030090E002007F
:1054E00013B5164C237DF3B9E268A168019201ABB4
:1054F0008020FFF7CFFF019AA3681344A360E368FD
:105500009B1AE3606BB962B12369E2889A4208DDB5
:1055100094F8C82093FBF2F102FB11330BB901237D
:10552000237502B010BD00231A461946802023754A
:1055300002B0BDE8104019F0BBBD00BFBC1E00208A
:105540007FB500230D4601930646002862D100294D
:105550003AD108220B460DEB020125F057FE002838
:1055600004DA802019F00CFD04B070BD2E4C029AB4
:105570002260039A626004F13802A2609DF908205B
:10558000BDF80E302575002AC4E903550FDB802BCA
:1055900009D9264A2648012122F08DFF802019F0E2
:1055A000EFFC2846DEE713B1C4E90333DCE7FFF77D
:1055B000EBFC0028D5D0E28823699A42D4BFE26090
:1055C000E360FFF78DFFCFE7174CD4E90212002A02
:1055D00001AB05DC024625F019FE0028C4DAC0E75D
:1055E00025F014FE002804DA802019F0C9FC3046AA
:1055F000B8E7019AA3681344A360E3689B1AE360C9
:10560000002BB1D104F13803A360FFF7BDFC0028E3
:10561000D7D1A6E78028A7D1034BDA68002AD0D1DA
:105620001B7D002BCDD19FE7BC1E00209C150300E5
:1056300090E00200054B064A9A62064ADA62064A80
:105640001A63064A58629A6100207047BC1E002007
:10565000A9510000F14D0000914E0000314E0000B4
:105660002DE9F34104464C4D4C484FF0FF334FF0C9
:10567000FF321FF0DDF995F8B8306BB1484A494860
:10568000022122F018FF6FF0770444481FF048FA17
:10569000204602B0BDE8F0816B6A6BB900F0D4F827
:1056A000FFF7C8FF6B6A3BB93F4A3E48012122F031
:1056B00002FF4FF0FF34E8E73C482C62E8616E6A75
:1056C00019F038FE19F0BEFB041EDEDB00F08EFB85
:1056D000041EDADB7378012B01D1F3793BB9344A2C
:1056E0003048012122F0E7FE6FF01504CDE70026D7
:1056F000684685F8C830ADF802308DF804608DF842
:10570000006019F00FFC041EBFDB802768468DF88F
:10571000007019F007FC041EB7DB2649304619F06B
:10572000F5FD041EB1DB2349384619F0EFFD041ED8
:10573000ABDB214CDFF8848044451AD3002019F0FC
:105740008DFC041EA1DBD5F8C430802043F001039A
:10575000C5F8C43019F082FC041E96DBD5F8C430BD
:1057600043F48033C5F8C430012385F8B8300024F1
:105770008BE7276A0026227FF3B29A4201D82434AD
:10578000DAE707EBC30257F83310107919F0BEFDC2
:1057900001360028EFD08CE7BC1E0020BC0800209A
:1057A000B515030090E00200D8150300B54F0000C6
:1057B000FD15030041550000700B0020940B0020E4
:1057C00030B51F4B8BB005AA03F110051868596856
:1057D000144603C40833AB422246F7D11B7823702A
:1057E0001022002101A827F064FF12220021154891
:1057F00027F05FFF102101A825F00FFE00281BDD18
:105800000828B8BF0820093801AB0E491A18002033
:1058100012F8013F0AAC04EB131403F00F03283312
:105820006B44013014F8144C13F8143C0C70082825
:105830004B7001F10201EBD102480BB030BD00BF4B
:1058400037160300DE4E00202DE9F04F8A4B87B05B
:1058500093F800A000AFBAF1000F04D087481C37BE
:10586000BD46BDE8F08F854C00264FF00119FE6063
:105870003546B04623783BB9814B02349C42F3D184
:105880007D4A01231370E9E76378052B1DD8DFE813
:1058900013F0AF000600F000AF001F0050004023DF
:1058A00087F810A07B8287F814A007F1100019F088
:1058B0000DFB40B108237B8207F1100019F006FBB5
:1058C00008B1A7F812A07B8AE37123781C44D1E7C2
:1058D000E378002BF9D1A37813B3FB680133DBB273
:1058E000FB60F2E76B689C421CD02435654B9D42FF
:1058F000F8D36D4688B06A46634BC2E9053403238A
:1059000042F8103F614800234FF4C251FEF7ACFF4C
:10591000AD465E485E4A012122F0CDFD00209EE7A3
:105920005C4DE3E7AB68002BD7D0F9682046984779
:10593000D3E7002D5AD1584A5448012122F0BBFD2B
:10594000E7E72B6AA07803EBC2010B79984247D1B5
:105950004FF0010BE07800F003003875207994F8DF
:1059600005C040EA0C20788294F9020000285FFA12
:105970008BF328DA0BF110004FF0010C0CFA00F059
:1059800010EA090F27D143F08000387407F11000A6
:10599000C7E90031BA6019F099FAD7E901123B68FA
:1059A000C8B93A7CA27012F0800F18BF10330A7188
:1059B00018BFDBB24FF0010214BF9A4002FA0BF29B
:1059C00049EA020981E7012000FA0BF010EA090F09
:1059D00001D11846D9E70BF1010BBBF1100FB9D17A
:1059E00001322B7F9A42ACD32C4AA5E70022F8E77C
:1059F000032E24D1FFF7E4FE8346A0B1FAF7C6FFD9
:105A0000034680B1102806D0B860254A1F480221FD
:105A100022F051FDBB68102BA8BF10231A4659462F
:105A2000A01C27F01EFE23786FF00201E218091B6C
:105A300004EB5303D14209D50136F6B245E7002EF7
:105A4000F1D1B8F1000F08D1164A75E702F801ACA0
:105A500013F8010902F8020DECE7A4EB080388F83B
:105A60000230C3F3072388F80330FB6888F804305A
:105A7000E2E7A04629E700BFDD4E0020A80A00208B
:105A80006F0B0020940B00204816030088E00200F2
:105A90002E170300700B002068160300A9160300E0
:105AA000C61603001117030010B5094B00211A4652
:105AB0001C78844205D15C681CB1482303FB01209B
:105AC00010BD0131042903F14803F1D10020F7E7AB
:105AD000881F00202DE9FF4150F8303C10F8346C4D
