:10000000805300206D4C000081D40000594C00004A
:10001000594C0000594C0000594C000000000000F1
:10002000000000000000000000000000394D00004A
:10003000594C000000000000D94C0000594C000051
:10004000254F0000254F0000254F0000254F0000E0
:10005000254F0000254F0000254F0000254F0000D0
:10006000254F0000254F0000254F0000254F0000C0
:10007000254F0000254F0000254F0000254F0000B0
:10008000254F0000254F0000254F0000254F0000A0
:10009000254F0000254F0000254F0000254F000090
:1000A000254F0000254F0000254F0000254F000080
:1000B000254F0000254F0000254F0000254F000070
:1000C000254F0000254F0000254F0000254F000060
:1000D000254F0000254F0000254F0000254F000050
:1000E000254F0000254F0000254F0000254F000040
:1000F000254F0000254F0000254F0000254F000030
:1001000053B94AB9002908BF00281CBF4FF0FF317E
:100110004FF0FF3000F00CB8ADF1080C6DE904CEE3
:1001200000F01AF8DDF804E0DDE9022304B07047BE
:10013000704700BF10F8012B11F8013B012A28BFBE
:100140009A42F7D0D01A7047034613F8012B002AC1
:10015000FBD1181A013870472DE9F04786468C46C6
:100160000846089E154674461946002B40F0C2808A
:100170008542B2FA82F245D94AB1C2F1200300FAAF
:1001800002FC2EFA03F3954043EA0C0C94404FEA2C
:10019000154EA8B2BCFBFEF8230C0EFB18CC08FBD6
:1001A00000F943EA0C43994528D9EB1808F1FF37C9
:1001B00004D2994502D9A8F102072B44A3EB090305
:1001C000A4B2B3FBFEFC0EFB1C330CFB00F044EAB4
:1001D0000344A04214D92C190CF1FF3304D2A042DD
:1001E00002D9ACF102032C44241A43EA07401EB1A1
:1001F000D440002334607360BDE8F0874746DDE7F4
:100200006346F1E792BB431B01214FEA154EAFB2A3
:10021000B3FBFEFC200C0EFB1C330CFB07F840EA82
:100220000343984562D9EB180CF1FF3004D298458E
:1002300002D9ACF102002B44A3EB0803A4B2B3FB38
:10024000FEFC0EFB1C330CFB07F744EA0344A742F9
:100250004ED92C190CF1FF3304D2A74202D9ACF1CC
:1002600002032C44E41B43EA0040C0E7C2F1200330
:1002700020FA03F1954090402EFA03F303434FEA2E
:10028000154EAFB2B1FBFEFC0EFB1C10190C0CFBA3
:1002900007F841EA0041884504FA02F422D96918B6
:1002A0000CF1FF3004D2884502D9ACF10200294498
:1002B000A1EB08019BB2B1FBFEFC0EFB1C110CFB79
:1002C00007F743EA01439F420ED9EB180CF1FF31C7
:1002D00004D29F4202D9ACF102012B44DB1B41EA5C
:1002E000004192E76046E3E76146F7E76046A3E72F
:1002F0006346B7E7834206D916B9002108467BE773
:10030000C6E900E0F9E7B3FA83F78FB9834201D376
:10031000724508D8BEEB020460EB030301209C4643
:100320001EB9002168E73846FAE7C6E9004CF8E74D
:10033000C7F1200CBB4022FA0CF41C432EFA0CF13E
:1003400020FA0CF3B84001434FEA14490EFA07F5BE
:10035000B3FBF9F81FFA84FE09FB18300B0C08FBFD
:100360000EFA43EA00439A4502FA07F240D9E3182D
:1003700008F1FF3004D29A4502D9A8F102002344C3
:10038000A3EB0A0389B2B3FBF9F809FB183308FBA6
:100390000EFE41EA03418E452CD9611808F1FF3366
:1003A00004D28E4502D9A8F10203214443EA004059
:1003B000A0FB0298A1EB0E014145CE46434602D375
:1003C00006D14D4504D2B9EB020E68EB04030138A7
:1003D000002EA6D0B5EB0E0261EB030101FA0CFC76
:1003E00022FA07F34CEA0303F940C6E9003198E723
:1003F0004046C5E74346D9E790B583B000AF6C46A9
:1004000000233B7102237B7188B0EC461CF1100283
:1004100014D00E2022B1042802DD294BCCF8143070
:1004200000233B7002237B70AAB1082802DD254B14
:10043000CCF818300CF11C0300210AE06FF00040EA
:10044000E8E701F1080EBE441EF808EC03F801EBE2
:1004500001310129F5D90D282EDD0E234AB10321E2
:10046000397100217971B9710121F9717868CCF87D
:10047000100000216FF300016FF341016FF382015F
:100480006FF3C501032060F38811C3F30A0363F31C
:1004900053216FF31F5100230B4802F04DF8A5467E
:1004A00000F06CF90BF0B6FA4FF4004000210FF0A9
:1004B000B0F800F00BF8FEE76FF01B03CEE700BFCB
:1004C00098FF00009CFF000000FF0000F0B593B013
:1004D000954809F09DF9954B1860002837D00EF02B
:1004E000A5FC002838D09248924B18600EF09EFC74
:1004F000002837D08F4B18684FF4202205210BF0CD
:10050000DAF9014690BB8B4B18684FF42022122178
:100510000BF0D1F9014668BB864B18684FF42022D6
:1005200011210BF0C8F9014640BB824B18684FF40B
:10053000803203210BF0BFF9014618BB0020119057
:1005400003F0B6F860B37C480BF01FFD07E0764976
:100550007A480BF01AFD02E079480BF016FD0020F6
:1005600013B0F0BD77480BF010FDF8E776480BF0BC
:100570000CFDC8E775480BF008FDCDE774480BF09B
:1005800004FDD2E773480BF000FDD7E711AA042160
:1005900071480BF0F1F940F6CD4000210FF039F829
:1005A000119B002BF2D000240C940D940E940F9408
:1005B00010946A4B0C934FF48073ADF83430684854
:1005C0000BF0E3FC5B4D2246112128680BF0C7F9C4
:1005D00040F6CD460027304639460FF01AF8012282
:1005E000112128680BF0BBF9304639460FF011F89D
:1005F0002246122128680BF0B2F94FF42470002132
:100600000FF007F80122122128680BF0A8F93046F4
:1006100039460EF0FEFF032128680BF080F90146F1
:1006200050480BF0B2FC504B93E803000A908DF851
:100630002C1008948DF824400AAB069305260796E3
:1006400008AB0493059606AB02930127039704AB0E
:100650000093019745480BF098FC224631462868E4
:100660000BF07DF9422000210EF0D3FF2F4B1868CC
:1006700083681C686B4602AA0CA9A04704463A4648
:10068000314628680BF06BF924B1214638480BF04D
:100690007CFC1AE09DF824209DF823301B0443EADB
:1006A00002639DF8222043EA02239DF8211019439A
:1006B00030480BF06AFC08E021462D480BF065FC41
:1006C0004FF4004000210EF0A4FF2B480BF05DFC1E
:1006D000184D0022052128680BF041F94220002125
:1006E0000EF097FF114B186883681C686B4602AACE
:1006F0000CA9A04704460122052128680BF02FF918
:10070000002CD9D19DF824209DF823301B0443EA06
:1007100002639DF8222043EA02239DF82110194329
:1007200014480BF032FCCBE7B8FF00000425002092
:10073000E4FB00000025002070000100C0FF000065
:10074000DCFF0000F4FF00000C00010024000100A9
:10075000400001005800010004FC000080841E00DD
:1007600084000100A000010070FF0000B000010043
:10077000C8000100D8000100EC000100B0B582B053
:1007800000AF6C4600233B7102237B718AB0EC46BC
:100790001CF110021AD0122022B1042802DDB34B42
:1007A000CCF8143000233B7002237B70E2B1034687
:1007B000082802DDAE49CCF818100C2B02DD1123FD
:1007C000CCF81C300CF1200300210BE06FF000404E
:1007D000E2E701F1080505EB070E1EF808EC03F847
:1007E00001EB01310129F4D9112859DD12234AB155
:1007F0000421397100217971B9710121F971786889
:10080000CCF8100000216FF300016FF341016FF38A
:1008100082016FF3C501032060F38811C3F30A035B
:1008200063F353216FF31F510023924801F084FEBC
:10083000A5468F4808F0ECFF8F4B186098B34FF433
:10084000003211210BF0A1F8012211218A4B186806
:100850000BF0D3F86C4600233B7102237B718AB006
:10086000EC461CF1100272D0122022B1042802DDE5
:10087000824BCCF8143000233B7002237B70002A9B
:1008800073D00346082802DD7949CCF818100C2BE8
:1008900002DD1223CCF81C300CF12003002162E0B1
:1008A0006FF01B03A3E76D4600233B7102237B71AE
:1008B00088B06C4614F1100212D00E201AB1042830
:1008C00001DD6F4B636100233B7002237B70A2B19B
:1008D000082801DD664BA36104F11C0300210AE036
:1008E0006FF00040EAE701F1080CBC441CF808CCAA
:1008F00003F801CB01310129F5D90D2824DD0E23A0
:1009000042B10321397100217971B9710121F97165
:100910007868206100216FF300016FF341016FF3EC
:1009200082016FF3C501012060F38811C3F30A034C
:1009300063F353216FF31F5100234E4801F0FCFD78
:10094000AD464FF0FF3061E36FF01B03D8E76FF067
:1009500000408AE701F1080505EB070E1EF808ECD8
:1009600003F801EB01310129F4D911285BDD1223D1
:100970004AB10421397100217971B9710121F971EC
:100980007868CCF8100000216FF300016FF341018B
:100990006FF382016FF3C501032060F38811C3F385
:1009A0000A0363F353216FF31F510023314801F011
:1009B000C3FDA5462E4808F02BFF324B1860A8B3A4
:1009C0004FF4003212210AF0E0FF012212212D4BD8
:1009D00018680BF012F86C4600233B7102237B7100
:1009E0008AB0EC461CF1100200F08480122022B183
:1009F000042802DD244BCCF8143000233B70022382
:100A00007B70002A00F084800346082802DD184924
:100A1000CCF818100C2B02DD0623CCF81C300CF19E
:100A20002003002172E06FF01B03A1E76D46002355
:100A30003B7102237B7188B06C4614F1100212D016
:100A40000E201AB1042801DD0D4B636100233B70B9
:100A500002237B7022B3082801DD054BA36104F15A
:100A60001C0300211AE06FF00040EAE714010100C6
:100A70004001010020FF00001C250020680101004A
:100A800050010100182500209001010001F1080C1F
:100A9000BC441CF808CC03F801CB01310129F5D97D
:100AA0000D2824DD0E2342B1032139710021797113
:100AB000B9710121F9717868206100216FF300019B
:100AC0006FF341016FF382016FF3C501012060F301
:100AD0008811C3F30A0363F353216FF31F510023FB
:100AE000B14801F029FDAD464FF0FF308EE26FF0C6
:100AF0001B03D8E76FF0004079E701F1080505EB2B
:100B0000070E1EF808EC03F801EB01310129F4D9B6
:100B1000112859DD12234AB104213971002179715C
:100B2000B9710121F9717868CCF8100000216FF3D8
:100B300000016FF341016FF382016FF3C5010320E0
:100B400060F38811C3F30A0363F353216FF31F515A
:100B50000023954801F0F0FCA546944808F058FEA3
:100B6000934B186098B34FF4003206210AF00DFF42
:100B7000012206218E4B18680AF03FFF6C460023C5
:100B80003B7102237B718AB0EC461CF1100272D0DB
:100B9000122022B1042802DD864BCCF81430002349
:100BA0003B7002237B70002A73D00346082802DDC5
:100BB0007E49CCF818100C2B02DD0723CCF81C3032
:100BC0000CF12003002162E06FF01B03A3E76D46E8
:100BD00000233B7102237B7188B06C4614F1100234
:100BE00012D00E201AB1042801DD734B636100237B
:100BF0003B7002237B70A2B1082801DD6B4BA3611F
:100C000004F11C0300210AE06FF00040EAE701F163
:100C1000080CBC441CF808CC03F801CB01310129B5
:100C2000F5D90D2824DD0E2342B1032139710021AD
:100C30007971B9710121F9717868206100216FF330
:100C400000016FF341016FF382016FF3C5010120D1
:100C500060F38811C3F30A0363F353216FF31F5149
:100C60000023514801F068FCAD464FF0FF30CDE164
:100C70006FF01B03D8E76FF000408AE701F1080529
:100C800005EB070E1EF808EC03F801EB0131012912
:100C9000F4D911285BDD12234AB1042139710021F6
:100CA0007971B9710121F9717868CCF810000021CF
:100CB0006FF300016FF341016FF382016FF3C50120
:100CC000032060F38811C3F30A0363F353216FF326
:100CD0001F510023344801F02FFCA546334808F08B
:100CE00097FD364B1860A8B34FF4003207210AF085
:100CF0004CFE01220721314B18680AF07EFE6C463B
:100D000000233B7102237B718AB0EC461CF1100278
:100D100000F08280122022B1042802DD284BCCF89A
:100D2000143000233B7002237B70002A00F0828085
:100D30000346082802DD1D49CCF818100C2B02DDF3
:100D40000D23CCF81C300CF12003002170E06FF073
:100D50001B03A1E76D4600233B7102237B7188B022
:100D60006C4614F110021CD00E201AB1042801DDCB
:100D7000114B636100233B7002237B7012B3082880
:100D800001DD0A4BA36104F11C030021012919D8DC
:100D900001F1080CBC441CF808CC03F801CB01316C
:100DA000F4E76FF00040E0E720FF000040010100A1
:100DB00014250020BC010100500101001025002075
:100DC000E80101000D2824DD0E2342B10321397111
:100DD00000217971B9710121F971786820610021D0
:100DE0006FF300016FF341016FF382016FF3C501EF
:100DF000012060F38811C3F30A0363F353216FF3F7
:100E00001F510023AE4801F097FBAD464FF0FF3075
:100E1000FCE06FF01B03D8E76FF000407BE701F1C7
:100E2000080505EB070E1EF808EC03F801EB01318D
:100E30000129F4D9112853DD12234AB10421397153
:100E400000217971B9710121F9717868CCF810002D
:100E500000216FF300016FF341016FF382016FF323
:100E6000C501032060F38811C3F30A0363F3532120
:100E70006FF31F510023924801F05EFBA546914895
:100E800008F0C6FC904B186068B34FF4B0120D2107
:100E90000AF07BFD6C4600233B7102237B718AB014
:100EA000EC461CF1100272D0122022B1042802DD9F
:100EB000864BCCF8143000233B7002237B70002A51
:100EC00073D00346082802DD7E49CCF818100C2B9D
:100ED00002DD0E23CCF81C300CF12003002162E06F
:100EE0006FF01B03A9E76D4600233B7102237B7162
:100EF00088B06C4614F1100212D00E201AB10428EA
:100F000001DD734B636100233B7002237B70A2B150
:100F1000082801DD6B4BA36104F11C0300210AE0EA
:100F20006FF00040EAE701F1080CBC441CF808CC63
:100F300003F801CB01310129F5D90D2824DD0E2359
:100F400042B10321397100217971B9710121F9711F
:100F50007868206100216FF300016FF341016FF3A6
:100F600082016FF3C501012060F38811C3F30A0306
:100F700063F353216FF31F510023514801F0DCFA52
:100F8000AD464FF0FF3041E06FF01B03D8E76FF044
:100F900000408AE701F1080505EB070E1EF808EC92
:100FA00003F801EB01310129F4D9112831DD1223B5
:100FB0004AB10421397100217971B9710121F971A6
:100FC0007868CCF8100000216FF300016FF3410145
:100FD0006FF382016FF3C501032060F38811C3F33F
:100FE0000A0363F353216FF31F510023344801F0C8
:100FF000A3FAA546334808F00BFC364B186058B1ED
:101000004FF4B0120E210AF0C0FC00200837BD4694
:10101000B0BD6FF01B03CBE76D4600233B7102238D
:101020007B7188B06C4614F1100212D00E201AB1F8
:10103000042801DD264B636100233B7002237B7093
:10104000A2B1082801DD1F4BA36104F11C0300219C
:101050000AE06FF00040EAE701F1080CBC441CF81C
:1010600008CC03F801CB01310129F5D90D2824DD85
:101070000E2342B10321397100217971B971012127
:10108000F9717868206100216FF300016FF341016D
:101090006FF382016FF3C501012060F38811C3F380
:1010A0000A0363F353216FF31F510023044801F037
:1010B00043FAAD464FF0FF30A8E76FF01B03D8E7C7
:1010C00020FF000040010100082500201802010057
:1010D000500101000C250020F0B583B000AF6C4634
:1010E00000233B7102237B710123BB710323FB713E
:1010F0008AB0EC461CF1100222D04FF0140E2AB137
:10110000BEF1040F02DDA54BCCF8143000233B7078
:1011100002237B702AB1BEF1080F02DDA04BCCF890
:1011200018300123BB700323FB70B2B1BEF10C0F6A
:1011300002DD9C4BCCF81C300CF1200300210AE0AE
:101140006FF0004EDBE701F10800384410F8080C9E
:1011500003F8010B01310329F5D9BEF1130F32DD7C
:1011600014234AB10421397100217971B971022126
:10117000F9717868CCF8100000216FF300016FF36B
:1011800041016FF382016FF3C501032060F3881101
:10119000C3F30A0363F353216FF31F510023824803
:1011A00001F0CAF9A546814808F032FB0446804B9D
:1011B000186058B17E4A0523137100239360012102
:1011C000D1809C4662E06FF01B03CAE76D460023A6
:1011D0003B7102237B7188B06B4613F1100212D071
:1011E0000E201AB1042801DD7249596100213970BD
:1011F00002217970A2B1082801DD6949996103F1E2
:101200001C0100240AE06FF00040EAE704F1080640
:101210003E4416F8086C01F8016B0134012CF5D935
:101220000D2824DD0E2442B103213971002179718A
:10123000B9710121F9717868186100216FF300011B
:101240006FF341016FF382016FF3C501012363F373
:101250008811C4F30A0464F353216FF31F51002370
:10126000514801F069F9AD464FF0FF303FE06FF0B3
:101270001B04D8E70CEB8C024F4B03EB82030833C3
:101280004B4A07CA83E807000CF1010CBCF1030FBD
:10129000F0D90122052120460AF0D0FB474B464AEF
:1012A0001A60404808F0B4FA454B186010B3434B3D
:1012B0001B684FF480729A80424A1A60424DFF26A2
:1012C0003246002128460EF0ACFB404C324600214D
:1012D00020460EF0A6FB3E4B1D609C603D490B6016
:1012E0003D4A0833136001234B60536000200C37E4
:1012F000BD46F0BD6D4600233B7102237B7188B073
:101300006C4614F1100212D00E201AB1042801DD2F
:10131000324B636100233B7002237B70A2B108282B
:1013200001DD1F4BA36104F11C0300210AE06FF0F3
:101330000040EAE701F108063E4416F8086C03F89D
:10134000016B01310129F5D90D2824DD0E2342B1AD
:101350000321397100217971B9710121F97178681E
:10136000206100216FF300016FF341016FF38201EF
:101370006FF3C501012060F38811C3F30A0363F31F
:1013800053216FF31F510023074801F0D5F8AD46F4
:101390004FF0FF30ABE76FF01B03D8E74C020100C2
:1013A0009C02010058020100E0FE00004001010023
:1013B00020250020680201004C2700209C270020E7
:1013C000A027002080841E004C2600204C250020F1
:1013D0003C250020342500202C250020840201001B
:1013E0002DE9F04F91B005920293134602F00402EA
:1013F0000092C3F3C20210F00303019340F02B826A
:1014000080468A460132041D00284FD0B8F1000FF3
:1014100005D0A4EB08030433534500F21F82029B5E
:101420005D1E019B04930693039300264FF0FF3B40
:101430000427B946B8F1000F01D0029B2360531E68
:101440000793002A40F35D81059B13F0020228D028
:101450000120A4EB08018B081AB1B1F5007F80F0E0
:10146000038203990F2900F20282B8F1000F00F005
:101470006081DBB201F140026A4402F8103C02F8DC
:1014800020BC002800F0518163F07F0301F140028D
:101490006A4402F8103C049B01330493039B01331C
:1014A000039304340022CC4640463DE001F0070A95
:1014B0005444CAF1080AA9E7002634E0002632E0C5
:1014C000002630E00827BC462DE025292BD10BF162
:1014D000010B01260427BC4625E04729EED82A291E
:1014E00014D32A39C9B24FF0010E0EFA01F14FF6AA
:1014F000DA7E11EA0E0F16D111F0625F40F0C08063
:1015000011F0010F40F08C8000260CE0252903D15A
:101510000BF1FF3B002606E001D9002603E020295D
:1015200001D02329CCD11D466B1C6978002900F01D
:101530001981002EC9D07A29BED84C29CDD34C3977
:101540002E2961D80FF2040E5EF821F02715000055
:10155000091600000916000009160000091600000F
:1015600009160000091600000916000009160000FF
:1015700009160000091600000916000019160000DF
:1015800009160000091600000916000009160000DF
:1015900009160000091600000916000009160000CF
:1015A0008116000009160000191600001916000027
:1015B000811600008116000081160000271500002A
:1015C00019160000C51400000916000027150000B8
:1015D00009160000DD16000019160000DD160000D7
:1015E0000916000009160000E51600001316000099
:1015F000191600000916000009160000191600004F
:10160000091600000D16000000268CE70427BC46D2
:1016100089E70427BC4686E729786C2924D0002670
:101620003C44013CB4FBF7F407FB04F420B1211A5D
:101630006144514500F21581002A58D1BCF1040FD4
:1016400000F08880BCF1080F40F014811A9907312E
:1016500021F0070101F108051A95D1E9008908B1C7
:10166000C4E9008908345EE713F8021C6C2903D032
:1016700000260427BC46D3E700260827BC46CFE750
:1016800029784C291AD01A99073121F0070101F164
:1016900008061A96D1E90067073424F0070440B120
:1016A000211A0831514513D829784C2913D0C4E99F
:1016B0000067083400260827BC4634E71A9907312A
:1016C00021F0070101F108061A96D1E90067E3E766
:1016D0006FF01B00BCE0C4E90067EAE700260427BE
:1016E000BC469DE7324600260427BC4698E7E14603
:1016F00080461A9A111D1A9112680292079A1D4685
:1017000098E6624B029A9A4204D3614B9A420AD3FA
:10171000002300E00023002B7FF496AE059B03F02E
:101720000202002095E60123F5E7069B01330693AC
:10173000B4E610B10AF1010AB0E6009B13B10AF158
:10174000020AABE60298FEF7FFFC0AEB000303F186
:10175000020AA3E61A990D1D1A95096800B12160C5
:101760000434E0E68046231AB3F5806F80F085806C
:1017700090B1002202609B080370009B83B1069B1E
:10178000C370049B88F802301BBB019DDDF80C90F0
:10179000DDF810B0029F3DE05344A3F1080057E08C
:1017A000069B4370EDE701339842EED903F1400206
:1017B0006A4412F8101C12F9102C002AF3DA01F016
:1017C0007F01A4EB08020132524559D804F8011BED
:1017D000E9E7019B0398E7E7009B43B305F140036A
:1017E0006B4413F8203C04F8013B019EA4EB080372
:1017F00033440133534546D805F140036B4413F895
:10180000103C04F8013B3246394620460EF0FBF806
:1018100034440135A94519D9BBF1000FDCD005F1DD
:1018200040036B4413F9103C002BD5DAF1E705F1C6
:1018300040036B4413F8103C58F82370002248F81A
:1018400023203846FEF780FC461CCFE7A4EB0800B7
:1018500011B0BDE8F08F6FF00D00F9E76FF01B00DD
:10186000F6E76FF01B00F3E76FF01500F0E76FF09D
:101870001500EDE76FF01500EAE76FF01500E7E7F8
:101880006FF01B00E4E76FF01B00E1E71CFB0000BA
:101890001C1701002DE9F04F97B000AF8346BA61E5
:1018A0003B61D7F88030C3F3C0033B62F96011B9E4
:1018B0000AF0E5FAF8609BF80260B14636B1D7F855
:1018C000803013F0010F0DD1002300E000239BF8BE
:1018D00003207A6242B1D7F8802012F0020F22D1A1
:1018E000002202E00123F2E7002202B9EBB19BF8EB
:1018F0000050AA00BA60DBF804207A610BEB850582
:10190000BA69F2B1002B40F00481B9F1000F00F088
:101910000F81D7F8803013F0040F40F00D810020C4
:10192000F8610646F9E00122DFE7BB691BB13A69BD
:10193000F96858469847FC6820465C37BD46BDE8C4
:10194000F08FFC68E3B94D4400233B6123E004447D
:10195000013501364E451AD22A7800235BF8222041
:101960001946B8690AF0A0FABAF1000FEFD0D7F81B
:1019700088309845EBD22AF8180008F10108E6E70C
:101980000026C7F81C80B046D7F884A0E2E7C7F865
:101990001080D7F81C80D7F8803003F00503FB6077
:1019A0004FF0000AA146C7F81CB09CE000253B6A36
:1019B0007BB9002D79D0D7F8803013F0010F79D1A1
:1019C000FB68002B6FD10223A9EB030988E00125F6
:1019D000EDE7594678690AF0ADFA0028E9D06C467F
:1019E000002387F82C30022387F82D308AB069460F
:1019F00011F1100237D012251AB1042D01DDB34BBD
:101A00004B61002387F82830022387F829306ABB0E
:101A1000112D45DD122362B1042087F82C0000202F
:101A200087F82D0087F82E00012087F82F00F86A2C
:101A300008616FF300086FF341086FF382086FF3DA
:101A4000C508022161F38818C3F30A0363F353281E
:101A50006FF31F58002341469D4800F06DFDA546D9
:101A6000A9F102093CE06FF00045C5E72B46082DBF
:101A700001DD786988610C2B01DDC1F81CB001F132
:101A80002003002009E000F1300C07F1280EF44497
:101A90001CF830CC03F801CB01300128F3D9B7E7AB
:101AA0006FF01B03B7E701238EE7D7F8803013F000
:101AB000020F15D0002322461946B8690AF0F4F93E
:101AC000D7F8843053B13B69D7F88820934205D2C8
:101AD000D7F8842022F8130001333B610138814498
:101AE0000AF1010A35467B6A9A4510D22E4616F84D
:101AF00002BB6B78FA6952F82340764B9C42FFF4A4
:101B000055AF754B9C42FFF462AF00254FE74C4642
:101B100012E707F144000023FB6118B14A46294649
:101B20000DF071FF4D444FF00008C7F804901EE01F
:101B30000020F8610646F0E7FE6107F13400002658
:101B4000EBE700253B6A33BB002D3BD0D7F8803054
:101B500013F0010F26D0731C06F1300207F12801A3
:101B6000561806F8149CDEB208F1010825467B6A77
:101B700098454AD22C4614F802AB95F801905BF8D0
:101B80002930544A9342DCD3534A934201D300256F
:101B9000D8E70125D6E7514678690AF0CBF9002845
:101BA000D2D0E1E7D7F8803013F0040FDCD0FA6927
:101BB000531C303207F128010A4402F8249CDBB29E
:101BC000FB61D1E7D7F8803013F0020F09D0731C06
:101BD00006F1300207F12801561806F8149CDEB20F
:101BE000C2E7F869431C00F1300107F128028A18A6
:101BF00002F824AC02460232D2B2FA6107F158026E
:101C000052FA83F303F8249CAEE7D7F804909BF8CC
:101C1000003087F854309BF80130334487F8553052
:101C2000D7F8803013F0020F0ED1FB69C3F34703DE
:101C300087F85730D7F8803013F0010F06D113F032
:101C4000040F3ED1002302E00023F1E7002387F8D0
:101C50005630DBF800003863786DCBF80000D7F819
:101C600010804246B9685846D7F818A0D047041EDD
:101C7000FFF662AE386BCBF80000C7F81080424622
:101C8000F96907F13400D04700285EDB04EB000857
:101C9000B96849447B6A01EB4301D7F810904A4682
:101CA000FB68591A2846D047041EFFF645AE08EBDC
:101CB00004054FF00008C7F824B0B3465446CA469E
:101CC00021E0FB69C3E74FF0000909E0B002010021
:101CD000C8FE00001CFB00001C1701004FF00009AB
:101CE0005246012107F12C00A04700282FDB0544B4
:101CF0004B463246514620460AF0D6F8002828DBEB
:101D0000054408F10108D84518D208F1300307F15D
:101D10002802134413F8143C87F82C307A6A52F8DE
:101D20002360D7F88430002BCDD0D7F88830984581
:101D3000D4D2D7F8843033F81890D1E73A6900212B
:101D40000846BB6998472C46F6E50446F4E5044688
:101D5000F2E50446F0E500BF80B505460E4617469D
:101D6000984608F075FF03460DF0CEFE0446DFF8F6
:101D7000189049F80030424639463046A84754F892
:101D8000090002F08FFF00BF080000002DE9F043BA
:101D900083B0044608461546238B13F0080F05D17F
:101DA00003F0070600230093019354E0012909D0B2
:101DB00043F02003238385F31188BFF36F8F03B0B3
:101DC000BDE8F08343F010032383F4E720460AF0D4
:101DD00035FC42E0D4F814904A46694620460AF0A1
:101DE00046FC4FF00008238B03F00707B74269D089
:101DF000A268002A66D0012243F00803238385F3FA
:101E00001188BFF36F8F002A64D1009B2BB14B4622
:101E10003A46694620460AF0A3FCB8F1000F02D00A
:101E200034492046C047EFF31185202383F31288FD
:101E3000BFF36F8F238B23F008032383238B13F0CF
:101E4000100F4DD023F0100323830120268B06F0C2
:101E500007060028AFD00228B8D00028ABD0013840
:101E600004282BD801A353F820F000BFD51D000093
:101E7000BD1E0000811E0000951E0000A91E00006E
:101E80002369D3F80080062120460AF0ADFB4FF00D
:101E90000009A8E72369D3F80480042120460AF04A
:101EA000A3FB4FF000099EE72369D3F808800521C2
:101EB00020460AF099FB4FF0000994E74FF0000824
:101EC000C14690E7009A0AB1002295E7B8F1000FE9
:101ED00092D1B3E74A46394620460AF08DFB94E793
:101EE00013F0200F04D023F0200323830220ADE75A
:101EF0000020ABE78FC7000038B505460B4C00E06B
:101F000010340B4B9C420FD263685B79002BF7D0E7
:101F1000294620460AF0F6FD0028F1D023681B6808
:101F2000294620469847EBE738BD00BF60FF000018
:101F300070FF000070B506460D46084C04E02A46C6
:101F40003146204698471034054B9C4204D2236802
:101F50009B69002BF3D1F6E770BD00BF60FF000066
:101F600070FF00002DE9F041074605460AE007EA48
:101F70000807144B03EB06135B680422196820461C
:101F80000AF00AFED5B195FAA5F6B6FA86F60D4C1A
:101F900004EB06140123B3406FEA030825EA0305A6
:101FA000237B002BEED03301064AD3581B69002B4C
:101FB000DDD0204698470028E4D1D8E73846BDE870
:101FC000F08100BF60FF00002DE9F04180460F4620
:101FD0001F4BBFF35B8F53E8005F6A1C43E800218F
:101FE0000029F8D1BFF35B8F6DBB1A4C002607E0C8
:101FF00063680422196820460AF0CEFD01361034C9
:10200000154B9C4211D2237B002BF7D020460AF0BF
:102010006DFD23681B69002BEAD0204698470028F5
:10202000E6D00123B3401D43E8E7B8F1000F0BD021
:1020300055B12846FFF796FF0546002FF8D00A2035
:102040000AF066FDF4E700252846BDE8F08100BFF0
:10205000B827002060FF000070FF000008B5064BA5
:10206000186018B1054B1B68092B00DC08BD04483B
:1020700007F0D2FFFAE700BFAC270020B42700200A
:102080002007002008B5024807F0C6FF08BD00BFC2
:102090002007002030B589B000220F490F480DF00D
:1020A000FBFB0F4D00220023CDE9062300240494FE
:1020B0000E2303930294019400940A4B4FF4407250
:1020C000094928460DF05AF9084928460DF046F905
:1020D000204609B030BD00BF852000002821002027
:1020E000A008002061240000003A002068030100DD
:1020F000014B53F8200070478403010048B108B534
:10210000054A1060054B1960084600F009FD0020E3
:1021100008BD6FF01500704770050020A82700204B
:1021200008B5054B1B781BB1034B01221A7008BD83
:10213000024807F071FFF7E79C35002020070020D8
:1021400008B5104BBFF35B8F53E8001F013143E824
:102150000012002AF8D1BFF35B8F30B90A480DF0A6
:10216000A7FB0A4807F058FF08BD094BBFF35B8F78
:1021700053E8001F013943E80012002AF8D1BFF3E9
:102180005B8FEBE7B02700202821002020070020EC
:10219000B4270020064B00200146BFF35B8F53E8B5
:1021A000000F43E80012002AF9D1BFF35B8F70479C
:1021B000B027002038B5FFF7EDFF0546094C00E0D9
:1021C0001034094B9C420BD263685B79002BF7D02B
:1021D00023685B68002BF3D0294620469847EFE739
:1021E00038BD00BF60FF000070FF0000034B18689F
:1021F0000028D4BF00200120704700BFB027002076
:1022000010B5044C044920460AF026F8034B1C6024
:1022100010BD00BFA406002070030100A427002009
:1022200008B500230C4A13700C4A13600C4A136063
:102230004FF400410B48FFF761FFFFF7E1FF0A4A47
:1022400006E0094BD31A1B11013351680B71103290
:10225000064B9A42F5D308BD9D350020B0270020DB
:10226000B427002009CB000060FF000070FF0000D1
:1022700008B5014601480AF061FC08BDA40600202B
:1022800008B502480AF0CBF808BD00BFA40600203C
:1022900008B50146024B18680AF056FC08BD00BF9D
:1022A000A427002008B502480AF052FC08BD00BF70
:1022B000A406002010B582B000220023CDE900233F
:1022C000284B187808B902B010BD68460AF058FCCF
:1022D000044680B1FFF710FE2046FFF7D9FF224BDE
:1022E000BFF35B8F53E8001F013943E80012002A57
:1022F000F8D1BFF35B8FFFF779FF58B91B4A13681A
:10230000516813F57A7341F1000113605160FFF7D2
:10231000C9FFD8E70DF051FA4A0142EAD062430101
:102320001B1A62EB0102920042EA93729B001B1897
:1023300042EB0102D20042EA5372C3F3103343EA84
:102340004243D20B0948016840685B1A62EB000205
:1023500040F2E9318B4272F10002CFD3FFF72AFF3E
:10236000CCE700BF9C350020B427002020210020AE
:102370000F4B1B7803B1704710B500210120FFF708
:1023800023FE0C4C00E010340B4B9C4208D26368D7
:102390005B79002BF7D023689B6820469847F2E7CB
:1023A000FFF788FF0028FBD1014B01221A7010BDF6
:1023B0009D35002060FF000070FF000010B582B066
:1023C0001A4BBFF35B8F53E8002F511C43E80010FA
:1023D0000028F8D1BFF35B8F154B1B7863B9154B01
:1023E0001B68B3B1BAB1092A13D113480DF060FAD2
:1023F000124807F011FE0CE0EFF31184202383F361
:102400001288BFF36F8FFFF755FF84F31188BFF376
:102410006F8F02B010BD00220023CDE900234FF4DE
:1024200000420023044808F033FFF2E7B4270020FD
:102430009D350020AC270020282100202007002007
:1024400010B50446044B1B689847A060214603481A
:102450000AF09AFB10BD00BF70050020A406002002
:102460002DE9F04100210846FFF7AEFD804650B14E
:1024700040F2676600270DF047FB154B1858FFF731
:10248000EDFD002515E04FF0FF364FF0FF37F2E786
:102490004046FFF767FD804670B94FF0FF364FF0BA
:1024A000FF3709E02C4632463B460A4807F0F6FD66
:1024B0002546B8F1000FEBD1FFF7FCFE04460028DB
:1024C000F6D1002DEED000210846FFF733FDEAE7F4
:1024D00008000000200700200248034BC01AC00873
:1024E000704700BF60FF0000C8FE000010B50C463A
:1024F000FFF7F2FFA04203D9024B53F8340010BD9E
:102500000020FCE7C8FE000000B589B005920693E4
:102510000023079362B1074A0C9B02930B9B019324
:102520000A9B009305ABFFF7B5F909B05DF804FB12
:102530000022F1E7AFCB00002DE9F04F8BB004AFE4
:1025400005461E468846C1F34A24002C00F08980C7
:1025500091460022FA603A617A6104230293FB18E3
:1025600001930A23009307F10C0321464846FFF725
:1025700091F9B0F5006F58D3D9F804106D460023D7
:102580003B7302237B738AB004AC14F1100217D0A2
:1025900012201AB1042801DD3B4B636100233B701C
:1025A00002237B70CAB10346082800DDA1610C2B11
:1025B00002DD40F2FF73E36104F1200300210AE031
:1025C0006FF00040E5E701F118063E4416F8186C7C
:1025D00003F8016B01310129F5D9112822DD1223FD
:1025E00042B10421397300217973B9730121F97360
:1025F000F868206100216FF300016FF341016FF370
:1026000082016FF3C501022060F38811C3F30A034E
:1026100063F353210023C1F313011C480AF047FB65
:10262000AD462DE06FF01B03DAE760F35328C0F3EB
:102630000A0A0AEB1850173020F007008008FFF74D
:1026400017FE8346B0B104230293FB1801930A23BB
:102650000093534600F1100221464846FFF754FF0D
:1026600008E004EB1154173424F00704A008FFF726
:10267000FFFD834633464246294658460AF0ADFAE6
:102680001C37BD46BDE8F08FA4030100F0FE00003A
:102690002DE9F04F85B080460D4617461E46DDF801
:1026A00038B0DDF84090B9F1000F41D0119B039391
:1026B00000934B460F9A10210020FEF791FEB0F5D3
:1026C000006F2DD282460BEB0003173323F0070374
:1026D00000246FF300046FF341046FF3820468F386
:1026E000C50467F3881460F353246BF31F549808F0
:1026F000FFF7BEFD074650B11030B9F1000F06D00C
:10270000119B00934B460F9A5146FEF769FE3346E4
:102710002246294638460AF060FA05B0BDE8F08F37
:1027200040F2FF73034A022103480AF0A8FAF4E7D3
:102730000020C7E7E4030100F0FE0000406820B17C
:10274000034BC01A40F3CF0070474FF0FF30704783
:10275000C8FE00000EB400B582B0014603AB53F8CA
:10276000042B0193034802F0EFFC02B05DF804EB88
:1027700003B07047E5CC000010B584B011F0440FF1
:1027800005D01A4B1B6833B9002004B010BD18499E
:10279000FFF7E0FFF9E717490968B2FBF1F2B2FB76
:1027A000F3FC03FB1C224FF47A7E0EFB02F2B2FB19
:1027B000F3F403FB14210EFB01F1B1FBF3F10E4A1C
:1027C000A2FB0C32D20A4FF4616303FB12CC0B4B19
:1027D000A3FB0CE35B0902910194C3EB0311ACEB87
:1027E000810100910649FFF7B5FFCEE7C027002021
:1027F0001C040100BC270020C5B3A29189888888E9
:102800002804010061B108B52AB1064A52F8232014
:1028100012B9054A00E0044A0449FFF79BFF08BDCE
:10282000704700BFA00401004404010098FF0000AD
:102830002DE9F04105461746069EDDF81C8081B95A
:1028400000242EB1324611492846FFF783FF044485
:10285000B8F1000F14D06FB1099B042B13D00C49B1
:1028600009E00C4B099A53F822200B49FFF772FF3D
:102870000446E6E7064942462846FFF76BFF044454
:102880002046BDE8F0810549F5E700BF600401007E
:1028900050040100C4040100580401004C0401006C
:1028A0002DE9F04F87B005460C46049205939DF83C
:1028B0004C7001F0020B01F0010AC1F3C00801F4F1
:1028C00080790AF067F918B3024616492846FFF7DF
:1028D00041FF0646BBF1000F1CD13A46514628463F
:1028E0000AF02BFAB9F1000F01D0002311930397DE
:1028F000129B0293119B0193109B00930023049A57
:1029000041462846FFF794FF304407B0BDE8F08FFA
:102910000026DFE7059A21462846FFF72DFF0644EB
:10292000DBE700BF6404010011F0100F0BD108B504
:1029300011F0200F03D00449FFF70CFF08BD034935
:10294000FFF708FFFAE77047C400010068040100C0
:102950002DE9F04105460F46164698460699FFF7C1
:10296000E3FF0024444505DA24492846FFF7F2FE38
:102970000134F7E7002409E020492846FFF7EAFE82
:102980000BE01F492846FFF7E5FE01340F2C0CDC55
:10299000002C02DD14F0070FEED0B442F1D23A5D04
:1029A00018492846FFF7D6FEEFE717492846FFF7F4
:1029B000D1FE002409E011492846FFF7CBFE0BE0C9
:1029C00012492846FFF7C6FE01340F2C13DC002CF9
:1029D00002DD14F0070FEED0B44207D23A5D0C4B83
:1029E0009B5C13F0970FEBD12E22E9E703492846B1
:1029F000FFF7B0FEE8E7BDE8F08100BF5C0401002E
:102A0000740401006C040100780401007C040100DE
:102A10000A1601002DE9F04184B004469DF82C50BF
:102A20000C9F0E9E95B9012B1ED019484FF000083F
:102A300027B13B462246174909F04CFAC6B905BBF7
:102A400020460AF038F904B0BDE8F08103950A98F1
:102A50000290019300920B4600220F992046FFF747
:102A60001FFF80460C48E3E70B484FF00008DFE704
:102A70000F9B0093434632460D9920460AF075F9A4
:102A8000DDE72A460F9920460AF063F9D8E700BF30
:102A90001DCD000049510000E5CC00002DE9F043B8
:102AA00083B00646056842F20F738B4228BF0B467F
:102AB000184A0521684608F075FC04467368D3F887
:102AC00004900427DFF8508005E04A463946404626
:102AD000A8473F1A8044002FF7D17368D3F80480C9
:102AE0006F4605E0424621463846A847241A074467
:102AF000002CF7D173685F681724084E05E03A464A
:102B000021463046A847241A0644002CF7D103B0CA
:102B1000BDE8F083B00A01009804010080040100C0
:102B2000074B01221A6004E04008054A13685B0065
:102B30001360044B9842F7D8034B1860704700BFEE
:102B4000BC27002040420F00C0270020034B012279
:102B50001A70034B034A1A60704700BF9E3500206D
:102B6000EC270020F027002008B5034B01221A7043
:102B700002480AF048F908BD9F350020040501000D
:102B8000014B196000207047D827002008B518B9FC
:102B9000074B00221A7008BD064B1B7823B141F287
:102BA00088300CF03DF9F6E705200AF043F9F2E72A
:102BB0009E3500209F35002038B504460A4B01227F
:102BC0001A700A4B1B782BB938BD651E2046FFF7DB
:102BD000DDFF2C46002006F0FFFD0028F4D0024B5C
:102BE0001B78002BF1D1EFE79E3500209F350020A8
:102BF0002DE9F04107460E464FF004080DE032463D
:102C00003946002006F080FD044616E04046FFF7F6
:102C1000D3FFF4B9134B1B78DBB1134B1B78002B9C
:102C2000EDD10CF0F0F8054632463946002006F0AA
:102C30006BFD044628460CF0EEF8002CE6D1094B5B
:102C40001B78002BE5D008F1FF384046FFF79EFFC8
:102C5000DFE714B9034B1B7803B934462046BDE8BF
:102C6000F08100BF9E3500209F35002008B5024846
:102C7000FFF714FF08BD00BF0405010010B50C46A6
:102C8000044B1868FFF734FA03460E222146024827
:102C9000984710BDD827002004050100014B0360B0
:102CA0000020704714050100072801D90020704753
:102CB000024B034483F8BB10012070470828002012
:102CC000072801D900207047024B034493F8BB004A
:102CD000704700BF0828002010B50378C3F34113E4
:102CE0000A33064C54F8233023B19847002803DBFD
:102CF000012010BD0020FCE70020FAE70828002092
:102D00000A30024B43F82010704700BF082800200B
:102D1000014B5862704700BF08280020136800224A
:102D20001A705A7001221A70064A92F8C3203AB1FA
:102D3000022242F001021A7002230B600120704748
:102D40000022F6E70828002030B545884FEA152E06
:102D5000AEF10403DBB2012B21D9EDB2BEF1070FB6
:102D60001FD8114B5B6A002400E00344187840B17F
:102D700093F801C0F445F8D1A54201D00134F4E73D
:102D8000012068B11360BEF1020F02D01B780B6006
:102D900006E09A78DB7842EA03230B6000E000202B
:102DA00030BD0020FCE700BF0828002038B50C46E5
:102DB0000D4B5B6A156800E013441A788AB193F8EA
:102DC00001C0BCF1040FF7D193F802C0B0F804E0E1
:102DD000F445F1D16046FFF773FF287001202060B1
:102DE00000E0002038BD00BF08280020034B93F806
:102DF000BA00003818BF0120704700BF0828002023
:102E0000074B5B6A00E013441A783AB159780229FB
:102E1000F9D119798142F6D9012070470020704715
:102E20000828002030F0800318D01049104B994238
:102E300019D210B403E024310D4B99420CD20C6A24
:102E400000230A7F9A42F6D904EBC3021279824228
:102E500006D00133DBB2F4E7002002E00120704726
:102E6000012010BC70470020704700BFFC07002005
:102E700020080020014B9861704700BF08280020FF
:102E8000014BD861704700BF08280020F8B50646FE
:102E90000A4D0B4B9D420FD22F6A002401E00134F2
:102EA000E4B22B7FA34205D907EBC400B04700284A
:102EB000F5DAF8BD2435ECE70020FAE7FC0700203E
:102EC0002008002038B50C4B00E024330B4CA34203
:102ED0000ED25C680A4D6D6AAC42F6D31D69002DB6
:102EE000F3D094F802C00479A445EED1A84701E0DC
:102EF0006FF0850038BD00BFFC07002020080020CF
:102F0000082800202DE9F04106460F469046114C56
:102F100005E0424639463046A84719E024340E4BB6
:102F20009C4213D263680D4D6D6AAB42F6D3A5691E
:102F3000002DF3D0997832799142EAD05B79012B58
:102F4000ECD1424639463046A847E7E76FF08500A6
:102F5000BDE8F081FC0700202008002008280020A0
:102F6000F8B507460E4615460A4C00E024340A4BD5
:102F70009C420AD26369002BF8D02A463146384673
:102F8000984703460028F1D101E06FF08503184609
:102F9000F8BD00BFFC0700202008002008B510F095
:102FA000700F07D100F07F0310F0800F0AD10120CD
:102FB000984008BD0346054A0121054809F05FFE17
:102FC0000020F6E7103301209840F2E714050100D5
:102FD00048FF000038B5044600790AF09FFC05461A
:102FE0002079FFF7DBFF044AD2F8C43023EA00035C
:102FF000C2F8C430284638BD0828002038B5054638
:103000000AF08CFC10F1780F0ED0044698B92846CF
:10301000FFF7C4FF0B4AD2F8C43023EA0003C2F81A
:10302000C4300024204638BD2B46074A02210748F9
:1030300009F025FEEBE72B46054A0121034809F07C
:103040001EFEEFE7082800203005010048FF0000C1
:103050005405010070B582B00D4604798DF8074023
:103060002046FFF7DFFE064630B134F0800306D07D
:10307000FFF7BCFE18B90646304602B070BD95B1E8
:103080002346124A0321124809F0F9FD9DF8070072
:1030900002F0A2FD0F4BDB69002BEDD00DF1070113
:1030A00008209847E8E723460B4A0321084809F01F
:1030B000E6FD9DF8070002F0C9FD064BDB69002B19
:1030C000DAD00DF1070109209847D5E7780501000E
:1030D00048FF0000082800208C05010030B583B0AF
:1030E000044680788DF80000A388ADF80230E378BC
:1030F00003F003038DF80430FFF750FF0546264B1D
:10310000D3F8C430034219D1684602F033FD10F100
:10311000780F1ED028BB9DF8000002F0E1FD10F1F1
:10312000780F27D070BB1C4B012083F8B900D3F86F
:10313000C4201543C3F8C45003B030BD204609F085
:1031400095FE0CF005F90028DED1962007F020FD51
:10315000DAE79DF80030114A0221114809F08FFD8D
:10316000D9E79DF800300F4A01210D4809F087FD8D
:103170000020E1E79DF800300B4A0221084809F0E1
:103180007EFDD0E79DF80030084A0121044809F08F
:1031900076FD0020D0E700BF08280020A40501002C
:1031A00048FF0000C8050100EC0501000C06010005
:1031B0002DE9F8430646194B5C6A0027FF25A8460F
:1031C000B94607E094F80380A578B088854212D00C
:1031D00023781C442378C3B16378042BF2D0052BE9
:1031E000F6D1B3889D42F3D1B2784146204609F02A
:1031F00052FE0746ECE771888845E9D1C9B2C0B2F2
:10320000FFF752FD0746A146E2E7044BDB6913B125
:103210004946072098473846BDE8F883082800202B
:10322000024B00221A605A60704700BFC32800207A
:103230002DE9F0410546224B5C6A43881BB100270B
:10324000FF26B04610E0FFF7EBFF6A881C4B83F8BF
:10325000BA20DB6913B11B490320984701271EE000
:1032600094F8038023781C442378BBB16378042B43
:10327000F6D0052B07D0022BF4D166796B889E42DD
:10328000F0D10127EEE76B889E42EBD1B8F1000F39
:10329000E8D12046FFF722FF0746E3E717B9384693
:1032A000BDE8F081FFF7BCFF6A88054B83F8BA20C0
:1032B000DB69002BF3D0034903209847EFE700BFF9
:1032C00008280020C228002010B5146890F90030AA
:1032D000002B0ADB4378013B082B3AD8DFE803F0E8
:1032E00024392F391A39393921004378062B07D070
:1032F000082B08D00BB1002010BDFFF70FFDFBE736
:10330000FFF722FDF8E7144B93F8BA302370012041
:103310000860F1E7807802F0D9FBB0FA80F040094C
:10332000EAE7FFF785FFE7E74388012B01D000209C
:10333000E2E7094B002283F8C3200120DCE7438841
:10334000012B01D00020D7E70120034B83F8C300F5
:10335000D2E70020D0E700BF0828002070B505465E
:103360000E46042803D0012803D0134C11E0FFF7C8
:1033700057FF124B93F8B930002BF6D000F034FD14
:103380000F48FFF783FD0D4B002283F8B920ECE7CF
:1033900024340C4B9C4207D2E368002BF8D0324611
:1033A000294620469847F3E7044B1B6A13B1314680
:1033B0002846984770BD00BFFC0700200828002061
:1033C000D52F00002008002070B504460D46164693
:1033D000184B9B690BB1984748B1237803F01F0342
:1033E000012B0DD0022B13D013B16FF0150070BD5F
:1033F000324629462046FFF767FF88B10020F6E7EE
:1034000032462946204609F04FFD60B10020EEE724
:1034100032462946204609F08FFD38B10020E6E704
:103420006FF01500E3E76FF01500E0E76FF01500AF
:10343000DDE700BF0828002070B50E4E0E4B9E42FF
:1034400015D2356A002401E00134E4B2337F9C4296
:103450000BD205EBC40355F83410187902F0D4FDF3
:103460000028F1D04FF0FF3070BD2436E6E7002091
:10347000FAE700BFFC070020200800202DE9F843F0
:103480000646894690461F46032500E01D463B46FA
:1034900042464946304602F051FC044610F10B0FFB
:1034A0000AD13346064A0221064809F0E8FB07F034
:1034B000D9FA6B1E002DE9D12046BDE8F88300BF84
:1034C0003006010048FF000010B582B0154B1B7D8F
:1034D000F3B9144CE268019201ABA1688020FFF7B8
:1034E000CDFFA368019A1344A360E3689B1AE360CD
:1034F000B3B9AAB1E28823699A4211DD94F8C820D1
:1035000093FBF2F102FB113353B90122227507E05C
:103510000021044B19750B460A46802002F00EFC70
:1035200002B010BD0828002000B585B00023039329
:10353000002840F08A8019B34B4BDA68002A6CDD12
:1035400003AB4949896800200AF001FA002871DBC1
:10355000454A936803990B449360D3685B1AD36020
:10356000002B74D1104602F1380342F8083F00F1F5
:103570001001FFF7B1FB002863D0FFF7A5FF66E05D
:10358000082201A90AF0E3F900282EDB9DF80400C7
:10359000354B18709DF805205A70BDF806205A80EA
:1035A000BDF808209A80BDF80A10D98003F13802CE
:1035B0009A6000221A751A61DA6010F0800F02D149
:1035C000802916D809BB294A02F10801A2F1080096
:1035D000FFF782FBE8B1244BDA8819698A42A8BF59
:1035E0000A46DA60FFF770FF31E0802002F0F4FA5B
:1035F0002DE01F4A01211F4809F037FB802002F00F
:10360000EBFA002002F0E8FA21E0174B1961D960CB
:103610001DE0802002F0E0FA19E003AB002212491D
:10362000896810460AF093F9002810DA802002F029
:10363000D3FA0CE0802002F0CFFA002002F0CCFA9E
:1036400005E0802002F0C8FA01E0802802D005B031
:103650005DF804FB044BDB681BB9034B1B7D002B9F
:10366000F5D0FFF731FFF2E70828002010280020EE
:103670005806010048FF000008B5FFF749FB08495C
:103680000020FFF73DFB07490120FFF739FB064902
:103690000220FFF735FB0548FFF7ECFB002008BDD3
:1036A000C9330000C52E0000612F0000052F000067
:1036B00070B582B005464FF0FF324FF0FF334B48F4
:1036C00006F09AFB4A4B93F8B830002B68D1484B70
:1036D0005B6A002B6CD0012009F0C6FB041E7EDB68
:1036E000434B5E6A1D62434C2046FFF7C9FB2046F0
:1036F00002F09EFC02F0AEF9041E70DB00F0A0FBAD
:10370000041E6CDB7378012B62D1F379002B5FD040
:10371000374A82F8C830ADF8023000238DF8043003
:103720008DF80030684602F025FA041E57DB80232E
:103730008DF80030684602F01DFA041E4FDB2E495A
:10374000002002F061FC041E49DB2B49802002F0BE
:103750005BFC041E43DBFFF76FFE041E3FDB002013
:1037600002F0BEFA041E3ADB0020FFF717FC204AE5
:10377000D2F8C4300343C2F8C430802002F0B0FA5B
:10378000041E2CDB8020FFF709FC194BD3F8C42062
:103790000243C3F8C420012283F8B82000241EE0AD
:1037A000164A0221164809F060FA6FF0770416E015
:1037B00000F06CF9FFF760FF0D4B5B6A002B8AD1BC
:1037C000104A01210E4809F050FA4FF0FF3406E08C
:1037D0000D4A01210A4809F048FA6FF01504034820
:1037E00006F08AFB204602B070BD00BFFC06002038
:1037F000082800205D330000293500007406010010
:1038000048FF000098060100C00601000246064875
:1038100000E02430054B984203D243689342F8D12C
:1038200000E00020704700BFFC07002020080020B7
:1038300010B58AB00DF1040C1D4C0FCCACE80F0094
:1038400023688CF8003000230693079308930993AC
:10385000184A136053609360D3601382102106A846
:103860000AF0DEFA002820DD0828B8BF0820A0F101
:10387000080C002217E00CEB020328336B4413F80A
:10388000103C51000AA800EB131010F824EC094872
:1038900000F812E003F00F03013128336B4413F8F2
:1038A000243C43540132072AE5DD02480AB010BD2A
:1038B000FC060100D428002070B50446FFF7B8FFCD
:1038C00070B10546FCF740FC064648B1102808D107
:1038D0003246102EA8BF10222946A01C0CF093F8E7
:1038E00070BD034A0221034809F0BFF9F0E700BFA9
:1038F0001007010040FF00002DE9F04383B000AF46
:1039000004464FF001137B600025A846A9462E46C9
:1039100004E0204609F04AFB23781C442378002B5E
:1039200000F09C806378052BF6D801A252F823F0B2
:103930001D3A000013390000593A00001D3A0000FA
:1039400049390000E9390000E378002BE4D1A3787D
:103950004BB92046FFF75AFF814648B1836813B13F
:1039600041462046984708F101085FFA88F8D3E7F6
:103970006D4688B06B4613F110022FD00C213AB17E
:103980000846042901DD3B4E5E61082800DD9C618C
:103990000B2926DD0C243AB10321397000217970FE
:1039A000B970F9703868186100216FF300016FF386
:1039B00041016FF382016FF3C501012363F38811A5
:1039C000C4F30A0464F353216FF31F5100232A4800
:1039D000FEF7B2FDAD464FF0FF3044E06FF000411E
:1039E000CDE76FF01B04D6E7B9F1000F0ED03A1DFA
:1039F0004946204609F0FAFA00288DD01F4A0121D5
:103A00001D4809F032F94FF0FF302CE01C4A01212B
:103A1000194809F02AF94FF0FF3024E0032D0BD0AC
:103A200075B98EB1A31BB370C3F30723F37086F887
:103A300004800135EDB26FE72046FFF73DFFEFE769
:103A4000204609F0A1FAF4E70E4A01210A4809F0DC
:103A50000CF94FF0FF3006E026465DE7A01C0A4B4C
:103A6000984204D100200C37BD46BDE8F083FFF733
:103A700043FFF8E75C07010040FF0000C0070100BA
:103A80007C070100E0070100FB07002008B50A4B96
:103A90001B780BB1094808BD0848FFF72DFF20B976
:103AA000054B01221A700548F5E7054A0121054832
:103AB00009F0DBF80020EEE7A035002040070020E9
:103AC0000008010040FF0000002300E00133032B49
:103AD0000CD89A0106498A5C8242F7D101EB831225
:103AE0005268002AF2D001EB831070470020704723
:103AF000E82800202DE9F04184B0044610F82C5C41
:103B000050F8283C13F1100F24D1036913F0020F71
:103B100037D050F8202C2AB913F0040F22D143F0EB
:103B20000403036103AB54F8241C2846FFF7A6FCEA
:103B30000346D8B954F8242C039B1A4444F8242C87
:103B400054F8202CD21A44F8202C54F81C2C13447E
:103B500044F81C3C54F8283C13F1100F4CD104B02D
:103B6000BDE8F081002340F8283CF3E70095304A97
:103B70000121304809F08EF86FF0150344F8283C15
:103B8000E8E703AB50F8202C50F8241C284602F03C
:103B900069F90346A0B954F8243C039E334444F821
:103BA000243C54F8203C9B1B44F8203C54F81C3C1B
:103BB000334444F81C3C76B9002344F8283CC9E758
:103BC00000951B4A01211B4809F064F86FF01503AA
:103BD00044F8283CBEE7284602F030FAB6FBF0F382
:103BE00000FB1366002EE7D154F8203C002BE3D0F5
:103BF000284602F0A5F9ADE754F8186C54F81C7C7F
:103C000054F8148C0BF0A4FB68B9002344F8183C5A
:103C1000A4F1100006F000FA002EA0D0424639466A
:103C20002846B0479BE7214603480BF03FFB96E749
:103C30003008010058FF00006021002070B582B0FC
:103C400006460C46FFF740FF631EDBB2012B0AD885
:103C5000054650B10BF07CFB08B1012C17D105F1E2
:103C60002C00FFF747FF02B070BD012CFBD101AB68
:103C700001220DF10301304602F0F4F8019B002B04
:103C8000F5D1064A0121064808F0EFFFEBE705F100
:103C90002C0104480BF00AFBE5E700BF50080100C7
:103CA00058FF0000602100202DE9F84F05468846A6
:103CB00016461F4609F03DFA002867D1EFF3118937
:103CC000202383F31288BFF36F8F0024032C30D896
:103CD000A00118302F4B184404300022002306F0B6
:103CE000DDF9824608B10134F0E7A201294B03EB6C
:103CF0008414D4F804B01BF1100F28D09D54C4F8DC
:103D00000880E660002323610A9B6361E7630B9BE5
:103D1000A3616FF00F036360284602F08FF910BBB8
:103D200017F0020F2DD004F12C011B480BF0BEFA46
:103D300006E01A4A01211A4808F097FF6FF00B0AB3
:103D400089F31188BFF36F8F5046BDE8F88F2B467B
:103D5000144A0121124808F092FF04F11C0006F0F9
:103D60005BF9DA46ECE7284602F068F9B6FBF0F3B7
:103D700000FB1366002ED3D0E36B43F00403E36330
:103D8000CEE7284602F0DCF88246D9E76FF00F0A4A
:103D9000DAE700BFE8280020602100206C0801005D
:103DA00058FF00008808010010B5EFF311842023AC
:103DB00083F31288BFF36F8FFFF786FE20B10146B1
:103DC000436813F1100F04D084F31188BFF36F8F91
:103DD00010BD6FF08B0343602C3102480BF066FA84
:103DE000F2E700BF6021002038B5002404E085F32D
:103DF0001188BFF36F8F0134032C1BD8EFF31185AB
:103E0000202383F31288BFF36F8F0B4B03EB8413D4
:103E10005B6813F1100FEAD1074BA10103EB841289
:103E20006FF08B00506028311944043103480BF0C7
:103E30003DFADCE738BD00BFE82800206021002003
:103E400070B5002511E0AC0104F12800094E3044A2
:103E5000094904300BF00FFA04F118003044043023
:103E6000012211460BF075F90135032DEBD9002025
:103E700070BD00BFE8280020F53A000030B585B0DD
:103E800005694368A1228DF8042020228DF80520C1
:103E90000024ADF80640ADF808400222ADF80A2033
:103EA000ADF80C1085F89D40186A23460A2201A936
:103EB0000079FFF7E3FA95F89D304BB901200AF03D
:103EC000AFFF0134044B9C42F5D96FF0040000E0D1
:103ED000002005B030BD00BFA086010008B5016913
:103EE000012381F84B300B6813B191F8493003B9C5
:103EF00008BD083101480BF0D9F9F9E7602100202D
:103F000008B50169012381F84A300B6813B191F8B3
:103F1000483003B908BD083101480BF0C7F9F9E78B
:103F20006021002070B582B0064614460D1E1ADDD1
:103F30002A4604F14C01D4F88C0008F080FD85423B
:103F400016D8012384F84930236813B194F84B3014
:103F5000ABB9D4F88C20938891895B1A9BB2126913
:103F6000D31A3F2B11D994F89E3093B902B070BD8B
:103F70002B1A0D4A01210D4808F081FEE1E704F1FA
:103F800008010B480BF092F9E3E7012384F8A03015
:103F9000ECE70194074B00930123402204F14C010C
:103FA0003046FFF781FEE1E7C408010038FF00005A
:103FB00060210020253F000070B50569EFF31186F0
:103FC000202383F31288BFF36F8FD5F8900008F099
:103FD00036FD044686F31188BFF36F8F08B920467B
:103FE00070BD0022002305F1180102480BF074F99E
:103FF000F5E700BF6021002038B50D4614460123C7
:1040000082F84830136813B192F84A305BB9D4F89B
:1040100090305A89DB8893420BD004F118015DB1CE
:10402000002200230BE002F1080107480BF03EF9E3
:10403000EDE73DB904F1180140F6CD4200230248F6
:104040000BF04AF938BD00BF6021002030B583B0C5
:104050008DF807100469002384F848300BE01A4AF1
:1040600002211A4808F001FE194B01221A7021E0C2
:10407000012009F0D8F9EFF31185202383F312888A
:10408000BFF36F8F01220DF10701D4F8900008F003
:10409000D6FC85F31188BFF36F8F01280AD00BF08F
:1040A00057F918B994F8A130002BE1D1084B1B78CF
:1040B000002BD4D02122002304F1180105480BF075
:1040C0000BF903B030BD00BFE808010038FF000065
:1040D000A13500206021002070B504460E4615462B
:1040E00001791B4808F0F5FF58B194F90020002A27
:1040F00021DB6278202A0DD0222A17D06FF08500AC
:1041000022E0A388134A0221134808F0B8FD6FF09B
:10411000120019E02A68116840F8101C9188927901
:1041200020F80C1C00F80A2C00200DE0A27800F802
:10413000092C002008E06278212A06D1A0F11003A2
:104140002B6007233360002070BD6FF08500FBE714
:10415000E82900200809010038FF000010B50446D6
:104160000146074808F0C9FF18B1012200F8072CE2
:1041700010BD2346034A0221034808F080FDF7E7FB
:10418000E82900203009010038FF000008B5034687
:104190004FF0000C80F89EC080F89FC080F849C0A6
:1041A00080F848C00B4A92E80300C3F89400A3F8D3
:1041B0009810090C83F89A1083F89CC083F89BC070
:1041C00083F8A0C04022614603F14C000BF029FCAB
:1041D00008BD00BF78FF000030B583B00446D0F8BA
:1041E000A4305D680139052906D8DFE801F0030530
:1041F0000728313AFFF7CAFF03B030BD224A032136
:10420000224808F032FD94F89E30002BF4D10123AF
:1042100084F89E302B6A22460021187BFFF782FE2D
:1042200094F84830002BE7D12B6A187D0194184B85
:104230000093022300221146FFF736FDDCE7154A02
:104240000321124808F011FD2046FFF79FFFD3E736
:10425000114A03210D4808F008FD012384F89F301E
:10426000CAE70E4A0321094808F0FFFC94F89F3082
:10427000002BC1D00A4A0321044808F0F6FC0023B1
:1042800084F89F30B8E700BF5809010038FF0000EC
:10429000F93F00006C090100800901009409010048
:1042A000A4090100F0B583B000AF04460D461646E0
:1042B0000146234808F0FBFE38B132462946A438AF
:1042C000FFF78AFF0C37BD46F0BD6D4688B06B46E0
:1042D00013F110022DD00C213AB10846042901DD5A
:1042E000184E5E61082800DD9C610B2924DD0C243A
:1042F0003AB10321397100217971B971F971786886
:10430000186100216FF300016FF341016FF3820127
:104310006FF3C501022363F38811C4F30A0363F347
:1043200053216FF31F5100230748FEF705F9AD46EF
:10433000C8E76FF00041CFE76FF01B04D8E700BF7C
:10434000E8290020B409010038FF000010B5046915
:10435000C4F8A40004F1A8030022C4F8A8200B4A62
:10436000526872B11360094A5360094904F10800A8
:104370000AF081FF074904F118000AF0A1FF0020AC
:1043800010BD024A53601360EFE700BFE829002028
:1043900063D1000099430000F0B585B00446A0F158
:1043A0001806D0F88C305B681B6A1D7D284608F023
:1043B000C0FE10B994F886300BB905B0F0BD4FF4CB
:1043C000806203A9A06F09F044F807460028F4D0E2
:1043D000002384F8303010F03F0F00D1471E0196C3
:1043E000074B009302233A4603992846FFF75CFCEB
:1043F000A06F3A4600F10A0108F001FBDDE700BFBB
:10440000F93F000030B583B0084D002400944FF010
:10441000FF334FF480620649284605F0B1FF054995
:1044200028460AF09BFF204603B030BD60210020E3
:10443000403D0020F40901002DE9F04182B000AFB9
:104440000446D0F800E0D0F804C085686E468AB013
:104450006B4613F1100200F0888014218AB10846DF
:10446000042903DDDFF81C81C3F81480082801DD6E
:10447000C3F818E00C2801DDC3F81CC0102800DDCB
:104480001D62132974DD14253AB10521397100210B
:104490007971B971F9717868186100216FF30001C1
:1044A0006FF341016FF382016FF3C501012363F3E1
:1044B0008811C5F30A0565F353216FF31F510023DB
:1044C0003148FEF739F8B546D4F80CC0266965695D
:1044D000E8468AB06B4613F110024CD0142182B129
:1044E0000846042903DDDFF8A4E0C3F814E0082837
:1044F00001DDC3F818C00C2800DDDE61102800DDE6
:104500001D6213293ADD14253AB1052139710021C4
:104510007971B971F9717868186100216FF3000140
:104520006FF341016FF382016FF3C501012666F35A
:104530008811C5F30A0565F353216FF31F51124D1E
:1045400000232846FDF7F8FFC546E369104A3146C7
:10455000284608F094FBA3690E4A3146284608F025
:104560008EFB0837BD46BDE8F0816FF0004175E76E
:104570006FF01B0588E76FF00041B0E76FF01B0597
:10458000C2E700BF000A010018FF0000300A010066
:10459000600A0100700A010038B504460D4611B1E9
:1045A0000846FFF749FF012C04D02946204605F0B4
:1045B00093F938BDEFF30583103B034A012103480B
:1045C00008F05DFBF1E700BFA00A010018FF000042
:1045D00030BFFFF7FDBF00BF38B50446054D2A4682
:1045E00005490BF010FA054A002160190BF019FA81
:1045F00038BD00BF0000000070FF00000400000094
:1046000070B50646054D064B1D444C1B2046FFF772
:10461000E3FF083C346705F1080070BD00000000AE
:1046200004000000054B5A699B689A4204D0044A72
:10463000536843F080535360704700BF60350020DB
:1046400000ED00E081690D4B5A6942F480725A61B5
:10465000BFF34F8FBFF36F8F31F8021C5A6922F4FA
:1046600080725A61BFF34F8FBFF36F8F4DF60273A5
:10467000994201D0002070470120704700ED00E012
:104680004FF0000C83F800C002F07F4CBCF17F4F6C
:1046900014D102F00C0CBCF1080F04D012F0080F7A
:1046A00009D00846704708B5054A0121054808F0B9
:1046B000DCFA002008BD01221A7070470020704704
:1046C000B40A010018FF000008B52B4A01212B484D
:1046D00008F0CBFA2A4B9B6A13F0007F21D11D20F2
:1046E000274B9B6A13F0807F22D1254B9B6A13F4E2
:1046F000002F24D1224B9B6A13F4802F26D1204B0C
:104700009B6A13F4003F28D11D4B9B6A13F4803F32
:104710002AD11B4A936A6FEA03436FEA13439362F9
:1047200008BD184A0121154808F09FFA1E20D7E756
:10473000154A0121114808F098FA1F20D5E7134ABD
:1047400001210E4808F091FA2120D3E7104A0121F7
:104750000A4808F08AFA2220D1E70E4A01210748C8
:1047600008F083FA2320CFE70B4A0121034808F021
:104770007CFA2420CDE700BFE00A010018FF00000A
:1047800000ED00E0F80A01000C0B0100280B01000D
:10479000480B0100700B01008C0B010008B50023D1
:1047A0000B70034A0121034808F05FFA08BD00BFFF
:1047B000B80B010018FF000090B583B000AF0F29BF
:1047C00023DC2F4C103900233B7102237B718AB00C
:1047D000EC461CF110021AD0122022B1042802DD8E
:1047E000284BCCF8143000233B7002237B70E2B1DD
:1047F0000346082801DDCCF818400C2B01DDCCF86D
:104800001C100CF1200300210DE01F4CDAE76FF0C3
:104810000040E2E701F1080404EB070E1EF808EC83
:1048200003F801EB01310129F4D9112824DD122309
:104830004AB10421397100217971B9710121F971ED
:104840007868CCF8100000216FF300016FF341018C
:104850006FF382016FF3C501012060F38811C3F388
:104860000A0363F353216FF31F5100230748FDF739
:1048700063FE0C37BD4690BD6FF01B03D8E700BF49
:10488000DC0B0100100C0100F40B010018FF00000C
:10489000F8B505460F461446374A0121374808F057
:1048A000E4F9374B9B6A13F4805F25D11626344B0D
:1048B0009B6A13F4006F26D1314B9B6A13F4007F7F
:1048C00028D12F4B9B6A13F4806F3FD12C4B9B6AEE
:1048D00013F4807F41D12A4B9B6A13F4005F43D1CC
:1048E000274A936A43F47F4393620121284608F0E4
:1048F000CDFD20703046F8BD224A01211F4808F046
:10490000B4F91726D3E7204A01211C4808F0ADF975
:104910001826D1E71D4A0121184808F0A6F9184ABF
:10492000936B926A12F4004F01D11926C9E7184A15
:104930000121124808F0A3F937B1114A936A23F410
:10494000004393621926BCE71926BAE7114A0121F0
:104950000A4808F08AF91A26B8E70F4A01210748E1
:1049600008F083F91B26BBE70C4A0121034808F035
:104970007CF91C26B4E700BF240C010018FF0000DE
:1049800000ED00E03C0C0100500C0100640C010043
:10499000800C0100980C0100B40C0100CC0C01004B
:1049A0002DE9F04104460F461546464A0121464886
:1049B00008F05BF9454B9B6A13F0100F3CD11026B1
:1049C000424B9B6A13F0080F3DD1404B9B6A13F09A
:1049D000020F3FD16FF015083C4B9B6A13F0010F9B
:1049E00058D13A4B9B6A13F0200F5AD1374B9B6A30
:1049F00013F0100F04D1354B9B6A13F0020F04D053
:104A0000324B5B6813F4006F52D1304B9B6A13F04A
:104A1000200F04D02D4A536A23F4005353622B4ACB
:104A2000936A43F0FF0393620121204608F02EFDB4
:104A300028703046BDE8F081254A0121224808F05F
:104A400014F91126BCE7234A01211F4808F00DF98B
:104A50001226BAE7204A01211B4808F006F91B4B31
:104A6000D3F834809B6A13F0800F03D16FF01508E0
:104A70001326B1E74346194A0121134808F0FFF80D
:104A800037B1124A936A23F0800393621326A3E797
:104A90001326A1E7124A01210B4808F0E6F8142674
:104AA0009FE7104A0121084808F0DFF815269DE726
:104AB0002146404600F0D8F90028A6D080F30988A6
:104AC0000226A2E7FC0C010018FF000000ED00E048
:104AD000140D0100500C0100480D0100600D010093
:104AE000780D0100CC0C010070B506460D462B4A2E
:104AF00001212B4808F0B9F800232B70294BDC6A00
:104B000014F002040AD1274BDB6A002B0DDB254B86
:104B1000DC6A14F080440ED1204670BD224A012187
:104B20001F4808F0A2F80024F6E7204A01211C489B
:104B300008F09BF8F0E71E4A0121194808F095F8A3
:104B40003046FFF77FFD98B9164B9B6A13F0FF0FB5
:104B500016D1144B9C6A14F47F4418D1114B9B6AF4
:104B6000B3F5803FD8D33046FFF7AEFD0446D3E718
:104B70003368104A01210A4808F081F83468CBE70D
:104B80002A4601213046FFF70BFF0446C4E72A46B8
:104B900001213046FFF77CFE0446BDE7980D010079
:104BA00018FF000000ED00E0B00D0100D40D010081
:104BB000E40D0100040E010030B58BB01F4B5D68A1
:104BC000C5F30805002383F31188BFF36F8F0DF140
:104BD0002603FFF755FD04460DF12702294608F08C
:104BE00057FC9DF827300BB10BB030BD05460DF1D9
:104BF000040C20686168A268E368ACE80F002069D3
:104C00006169A269E369ACE80F009DF826304BB1F9
:104C1000089BC3F308025AB96FEA53236FEA432390
:104C2000089305E0089B23F4FF7323F00103089326
:104C300001A92846FFF7B0FCD6E700BF00ED00E071
:104C4000044B5A6942F010025A615A6922F0080274
:104C50005A61704700ED00E0EFF30880EFF309813F
:104C600001B57246FFF7A8FF01BD00BF0B4880F3F6
:104C7000088803F0F5FD202080F3118808484FF4E0
:104C80000461401880F30988EFF31480022108437F
:104C900080F31488BFF36F8F00F0A2F880530020D8
:104CA000C045002008B50A4B9B68834202D005F03E
:104CB000D5FF08BDEFF30583002BF8D0054B5A68EC
:104CC00042F080525A605A6A22F400425A62EEE779
:104CD0006035002000ED00E014498A684FF0300094
:104CE0001044EFF3098C80E8F01F202080F3128835
:104CF000BFF36F8F0E4F4FF000664A698A603E60C7
:104D0000106F0C4C2060506F0023536780F31188A4
:104D100004B5104600F024F9BDE8044002F130006B
:104D200090E8F01F8CF30988704700006035002080
:104D300004ED00E0F02900201EF0040F0CBFEFF39B
:104D40000880EFF30980816911F8021C0229FFD065
:104D500001B5724608F08EFB01BD00BF002807DBDD
:104D600000F01F02400901239340024A42F820301C
:104D7000704700BF00E100E000280CDB00F01F02DC
:104D80004009012393402030034A42F82030BFF30A
:104D90004F8FBFF36F8F704700E100E0002808DB02
:104DA0004901C9B200F1604000F5614080F800138C
:104DB000704700F00F004901C9B2014B1954704708
:104DC00014ED00E04209054B53F8222000F01F00CB
:104DD000012303FA00F01040704700BF00E100E03B
:104DE00008B50F4B0F4A22F07F029A60BFF34F8F36
:104DF000BFF36F8FD3F8882022F47002C3F88820A5
:104E0000EFF3148323F0040383F31488BFF36F8F4D
:104E100004F010FF06F07CF800F06AF804F068FF78
:104E200000ED00E00000000010B4A2F120040D49E4
:104E300042F8081C21F0010142F8081C42F8203C0D
:104E4000019B42F81C3C029B42F8183C039B42F831
:104E5000143C4FF0807342F8043C04650023436720
:104E600010BC7047591D00000E4B9B68A3B110F198
:104E7000160F0AD01A6EA2F1400C84450ED8824259
:104E80000ED98A4206D8002070471A6E8A4201D88D
:104E900000207047186E7047002070470020704750
:104EA000002070476035002008B50E461546094AB7
:104EB0009060026F084B1A6000F052F82C4686F39F
:104EC00009880020054B9847204600210022002336
:104ED000034C204760350020F029002007D5000052
:104EE000591D0000014B10221A61704700ED00E0CF
:104EF000002206E003F00F030949194420230B7632
:104F000001322F2A0ADC53B2002BF3DB03F160439A
:104F100003F56143202183F80013F1E7704700BFD8
:104F2000FCEC00E008B5EFF30583103B044A02EB0C
:104F3000C301496852F833008847FFF773FB08BD87
:104F400064FC000008B5034B034A0121034808F044
:104F500005FC08BD0000022000000020200E01001A
:104F600008B5036E403B0548036040234360044B93
:104F70008360012108F0F6FB08BD00BFF429002082
:104F800000000B15084AC2F898000B6823F01F03B5
:104F9000034343F01003C2F89C308B6843F00103D5
:104FA000C2F8A030704700BF00ED00E010B5044625
:104FB0000A4BD3F89030C3F30723013B984203D840
:104FC000FFF7E0FF204610BD0346054A01210548D2
:104FD00007F055FE6FF01500F5E700BF00ED00E0AB
:104FE000300E010008FF00002DE9F04780460F4613
:104FF0009A461646002409E02946F0B208F0B7FAAE
:10500000064610F1160F1AD001360134BC4216DAEA
:1050100004EB440508EB85056A68002AF5D0BAF16F
:10502000000FE9D0284608F091FA0028E4D1234681
:10503000044A0121044807F022FE6FF015063046AD
:10504000BDE8F087580E010008FF000010B5034CC2
:1050500001232278FFF7C8FF207010BDA235002081
:1050600008B500230B4A1278FFF7BEFF10F1160FA8
:105070000FD0024606E0084BC3F898200021C3F881
:10508000A0100132044BD3F89030C3F307239342AE
:10509000F1DC08BDA235002000ED00E0044B052244
:1050A000C3F89420BFF34F8FBFF36F8F704700BFDB
:1050B00000ED00E0BFF35F8F024B0022C3F89420A5
:1050C000704700BF00ED00E038B51C4B1D681C4B5D
:1050D000D3F89030C3F307239D422BD8FFF7EAFFA4
:1050E000002409E0154B5B6804EB440103EB8101EC
:1050F0002046FFF747FF0134A542F3D81148057059
:1051000008F054FA10F1160F13D00E4B1A780C4B0E
:10511000D3F89030C3F307239A4207DA084BC3F859
:1051200098200021C3F8A0100132F0E7FFF7B6FF86
:10513000002038BD4FF0FF30FBE700BF7C0E0100C0
:1051400000ED00E0A235002030B587B00D461146D5
:105150000024009401940294039404940594022280
:105160008DF80220044A0192049005951A4668467B
:1051700006F044F907B030BD6DD7000008B5064908
:1051800021F00701C1F1005202F50032034806F098
:1051900026FE002008BD00BF87620020002A0020F4
:1051A000024B0122C3F840250020704700E0014077
:1051B00030B108B5034B800143F00103984708BDA7
:1051C000704700BF90FF000010B5044608F0F5FAE4
:1051D000C0B104F00F0314F0800F0AD114F0080FCF
:1051E00014D103F1090040014830094B1844043040
:1051F00010BD14F0080F07D158014830044B184473
:105200000430F5E70020F3E70248F1E70248EFE752
:105210000C2A0020582B0020782C002010B50024E8
:1052200005E0E0B208F0E4FA08F0ECFA0134072CEB
:10523000F7D9002402E008F0E5FA0134072C0AD877
:10524000E0B208F0DBFA0369002BF4D10A4B03EB60
:1052500084130361EFE7882008F0CAFA08F0D2FA55
:10526000082008F0CBFA03691BB108F0CBFA002044
:1052700010BD024B0361F8E79C3000209C2C0020FD
:1052800008B500220023024804F08CFE08BD00BFD0
:105290003007002010B504E04168054809F01BFE06
:1052A0002CB1FFF7EDFF04460028F5D1F8E710BD5B
:1052B000E006002000B583B00022002301A91548B4
:1052C00004F068FD20B90198406003B05DF804FB6C
:1052D000114A0121114807F0C8FCFFF7DBFF00224B
:1052E000002301A90B4804F055FD30B10C4A0121FF
:1052F0000A4807F0BAFC0020E7E701994960042357
:105300000B74084809F019FF0749084809F0CEFF57
:10531000F1E700BFE0060020B00E010050FF0000E2
:10532000D00E010030070020342A00200022002087
:1053300010B50446FFF7BEFF50B1014600230374C9
:105340000472064809F0F9FE054B93F8243003B9BE
:1053500010BD0449044809F0A9FFF9E7300700200F
:105360000C2A0020342A00200022002008B5012841
:1053700009D002280AD040B10346064A0121064856
:1053800007F07DFC04E0002000E00120FFF7D0FFE3
:1053900008BD00BFEC0E010050FF000010B5082052
:1053A000FFF712FF18B10446037A33B910BD0F4A54
:1053B00001210F4807F059FCF8E7012343770377F1
:1053C000FFF778FF014658B101230374037384602B
:1053D000084809F0B2FE0849084809F067FFE5E708
:1053E000074A0121024807F040FCDFE7080F0100EF
:1053F00050FF000030070020342A00200022002047
:105400001C0F01004B7F4BB370B584B00C460B7F73
:105410000BB904B070BD00264E770E7700F1380549
:105420004FF0FF324FF0FF33284604F0E5FC63698C
:10543000019363680293039601A9607A01F0AAF9C7
:10544000074A904203D1284604F056FDE1E703469F
:10545000044A0121044807F012FCF4E7704700BF3A
:105460000000AD0B300F010050FF000010B5844666
:1054700044694FF0000EC4F800E0C4F804E01F4B8C
:10548000D3F880242270D3F884246270D3F888146F
:1054900089B2D3F88C24120292B20A436280D3F804
:1054A000901489B2D3F89424120292B20A43A280D3
:1054B000D3F8982492B2D3F89C341B029BB21343C6
:1054C000E3800823C3600E4B2068616803C3DCF8E7
:1054D000003071469CF80900984794F90030002B81
:1054E00001DBE38823B9074B0022A3F88C2210BD0F
:1054F000044AA2F88C3201F0D7FAF8E700700240B3
:10550000102A00200C2A002038B504680379032BE8
:1055100006D8DFE803F002060B102046FFF7A6FFCF
:1055200038BD21460F48FFF76DFFF9E723680121D9
:10553000607A9847F4E7A37A0BB9E37F23B1236835
:105540000221607A9847EBE7074D4FF0FF324FF0AA
:10555000FF33284604F050FC01F08CFB284604F091
:10556000CBFCECE70C2A0020442A002010B503787D
:10557000042B1CD8DFE803F01C030C2C3B0001F0CB
:1055800039F8A0B900F0BCFF1F4808F0A7F90EE0F9
:105590001D4C204608F070F9002001F011F801239D
:1055A00084F82530236813B100210220984710BDEC
:1055B000154C002384F8253001F086FC204608F0C5
:1055C00041F92368002BF2D0002104209847EEE730
:1055D0000D4B93F82530002BE9D001F015F80A4B5C
:1055E0001B68002BE3D0002105209847DFE7064B1E
:1055F0001B68002BDBD0044A92F82520002AD6D065
:10560000002106209847D2E70C2A002008B509F0AF
:10561000E0FA01F059FC00F069FFFFF73BFEFFF7ED
:10562000FDFD09F0CFFA024801F044F808BD00BFC3
:105630000959000070B505460FE06168334809F06C
:105640004AFC0AE015F8043C23B304F10800FFF714
:105650005BFF61682D4809F03EFCFFF711FE044630
:10566000002852D02A4B93F8253013B9237C002B05
:10567000E3D1237C042B42D801A252F823F000BFCF
:10568000A556000045560000AF560000DB5600004E
:10569000EF560000A3685B7A1E4A01211E4807F0FE
:1056A000EEFAD2E704F10800FFF760FFD1E705F159
:1056B00010064FF0FF324FF0FF33304604F09CFBF2
:1056C000FFF7ACFD304604F017FC55F8283C002BE2
:1056D000BFD0002101209847BBE7FFF75FFE55F8D8
:1056E000283C002BB5D000210A209847B1E70B4A8F
:1056F0000121094807F0B9FAFFF788FFA9E7084A2E
:105700000121054807F0BBFAA3E770BDE0060020C1
:105710000C2A0020580F010050FF0000800F0100EC
:10572000980F010070B582B0044685782846FFF7CF
:105730004BFD064615F0800F16D1E378002B32D0D2
:10574000012B60D1FFF7B6FD0146002861D001238F
:1057500073770374037386602F4809F0EEFC2F49BA
:105760002F4809F0A3FD54E0E37843B1032B50D058
:1057700000952C4A01212C4807F08CFA49E0FFF7EC
:1057800099FD0146002844D00023B3770123037418
:10579000032303738660204809F0CFFC1F4920488B
:1057A00009F084FD35E0FFF785FD054688B3012348
:1057B000037402230373866006F10C01A07801F0E4
:1057C00043F8034690B9194BB3F88C32F268934210
:1057D00012D8164B0022A3F88C2229460E4809F055
:1057E000ACFC0E490E4809F061FD12E0104A01219F
:1057F0000D4807F044FAE6E79B1A0C4AA2F88C32EF
:1058000001F052F9E9E70095064A0121064807F040
:1058100041FA02B070BD00BF30070020342A0020DA
:1058200000220020B00F010050FF00000C2A0020D1
:10583000DC0F010070B582B0044685782846FFF77A
:10584000C3FC064615F0800F15D1E3788BB3012B0E
:1058500046D1FFF72FFD0146002847D0012373777B
:10586000037403738660224809F067FC21492248CB
:1058700009F01CFD3AE0E37843B1032B36D00095E4
:105880001E4A01211E4807F005FA2FE0FFF712FD1E
:10589000014658B30023B377012303740323037332
:1058A0008660134809F049FC1249134809F0FEFCD0
:1058B0001CE0FFF7FFFC0546C0B1A178114807F0D6
:1058C0005BFFF06001232B7402232B73AE6029462B
:1058D000074809F032FC0749074809F0E7FC05E0F2
:1058E0000095064A0121064807F0D4F902B070BDC0
:1058F00030070020342A002000220020B00F0100D1
:1059000050FF00000070024010B588B000230393E0
:1059100004930593069307930378013B052B1CD84A
:10592000DFE803F025031D21432903238DF81430FC
:10593000FFF7C0FC034680B19DF81C20027400F103
:10594000080205A903C982E803001946214809F0A5
:10595000F4FB2149214809F0A9FC08B010BD04233B
:105960008DF81430E4E704238DF81430E0E70223C7
:105970008DF81C30DCE704468078FFF725FC837A3D
:10598000012B0ED005D8002BE7D12046FFF7CAFE29
:10599000E3E7023BDBB2012BDFD82046FFF74AFFEB
:1059A000DBE72046FFF746FFD7E701A801F056F8EE
:1059B0009DF80530052B07D00020FFF705FC0123DB
:1059C0008DF81C300590B3E79DF8043013F0600F9C
:1059D000C3D0F1E730070020342A00200022002045
:1059E00030B583B0124800F065FE124B98421BD1CF
:1059F000114803F02FFC114803F054FC104D002413
:105A000000944FF0FF334FF480620E49284604F0B3
:105A1000B7FC0D49284609F0A1FC0C490C4809F0D7
:105A20002AFC204603B030BD6FF00400FAE700BF47
:105A3000095900000000AD0B0C1101000811010014
:105A40000022002080410020FC0F0100355600009C
:105A5000342A002010B5184B93F8243013B10024D9
:105A6000204610BD154C204609F0B6FA002001F082
:105A700045FC44F81C0C00220121272007F037FDCB
:105A800009F0A0F8FFF7CAFB044618B90A4B012237
:105A900083F824200A4B1B681BB10A490A4809F005
:105AA00005FC4FF08043D3F8383413F0010FD7D002
:105AB0000020FFF75BFCD3E70C2A0020442A0020DB
:105AC00030070020342A002000220020074B93F8E2
:105AD00024302BB1054B93F8253023B100207047BB
