:1000000080830020156D0000838A0200016D0000CE
:10001000016D0000016D0000016D00000000000096
:10002000000000000000000000000000D96D00008A
:10003000016D000000000000796D0000016D0000FE
:10004000996F000055B90100996F0000996F000089
:10005000996F0000996F0000996F0000996F000080
:10006000996F0000996F0000996F0000996F000070
:10007000996F0000996F0000996F0000996F000060
:10008000996F0000996F0000996F0000996F000050
:10009000996F0000996F0000996F0000996F000040
:1000A000996F0000996F0000996F0000996F000030
:1000B000996F0000996F0000996F0000996F000020
:1000C000996F0000996F0000996F0000996F000010
:1000D000996F0000996F0000996F0000996F000000
:1000E000996F0000996F0000996F0000996F0000F0
:1000F000996F0000996F0000996F0000996F0000E0
:100100004FF0FF0C1CEAD0521EBF1CEAD15392EAFA
:100110000C0F93EA0C0F6FD01A4480EA010C4002D6
:1001200018BF5FEA41211ED04FF0006343EA501030
:1001300043EA5111A0FB01310CF00040B1F5000F72
:100140003EBF490041EAD3715B0040EA010062F121
:100150007F02FD2A1DD8B3F1004F40EBC25008BF0B
:1001600020F00100704790F0000F0CF0004C08BF29
:1001700049024CEA502040EA51207F3AC2BFD2F1F6
:10018000FF0340EAC250704740F400004FF0000304
:10019000013A5DDC12F1190FDCBF00F0004070473E
:1001A000C2F10002410021FA02F1C2F1200200FA7C
:1001B00002FC5FEA310040F1000053EA4C0308BF43
:1001C00020EADC70704792F0000F00F0004C02BF94
:1001D000400010F4000F013AF9D040EA0C0093F00F
:1001E000000F01F0004C02BF490011F4000F013B69
:1001F000F9D041EA0C018FE70CEAD15392EA0C0FD7
:1002000018BF93EA0C0F0AD030F0004C18BF31F041
:10021000004CD8D180EA010000F00040704790F017
:10022000000F17BF90F0004F084691F0000F91F0BB
:10023000004F14D092EA0C0F01D142020FD193EA81
:100240000C0F03D14B0218BF084608D180EA010009
:1002500000F0004040F0FE4040F40000704740F0E5
:10026000FE4040F44000704781F0004102E000BFD2
:1002700083F0004330B54FEA41044FEA430594EA66
:10028000050F08BF90EA020F1FBF54EA000C55EAA1
:10029000020C7FEA645C7FEA655C00F0E2804FEA72
:1002A0005454D4EB5555B8BF6D420CDD2C4480EA54
:1002B000020281EA030382EA000083EA010180EA84
:1002C000020281EA0303362D88BF30BD11F0004FD2
:1002D0004FEA01314FF4801C4CEA113102D0404208
:1002E00061EB410113F0004F4FEA03334CEA133343
:1002F00002D0524263EB430394EA050F00F0A7805B
:10030000A4F10104D5F1200E0DDB02FA0EFC22FA55
:1003100005F2801841F1000103FA0EF2801843FA49
:1003200005F359410EE0A5F120050EF1200E012A3A
:1003300003FA0EFC28BF4CF0020C43FA05F3C01878
:1003400051EBE37101F0004507D54FF0000EDCF1F1
:10035000000C7EEB00006EEB0101B1F5801F1BD39A
:10036000B1F5001F0CD349085FEA30004FEA3C0C9E
:1003700004F101044FEA445212F5800F80F09A8094
:10038000BCF1004F08BF5FEA500C50F1000041EB98
:10039000045141EA050130BD5FEA4C0C404141EB9C
:1003A0000101013C28BFB1F5801FE9D291F0000F97
:1003B00004BF01460020B1FA81F308BF2033A3F146
:1003C0000B03B3F120020CDA0C3208DD02F1140C3D
:1003D000C2F10C0201FA0CF021FA02F10CE002F178
:1003E0001402D8BFC2F1200C01FA02F120FA0CFC71
:1003F000DCBF41EA0C019040E41AA2BF01EB0451BA
:10040000294330BD6FEA04041F3C1CDA0C340EDCB7
:1004100004F11404C4F1200220FA04F001FA02F3FA
:1004200040EA030021FA04F345EA030130BDC4F1B8
:100430000C04C4F1200220FA02F001FA04F340EAAD
:100440000300294630BD21FA04F0294630BD94F05E
:10045000000F83F4801306BF81F480110134013D45
:100460004EE77FEA645C18BF7FEA655C29D094EAB6
:10047000050F08BF90EA020F05D054EA000C04BF34
:100480001946104630BD91EA030F1EBF002100201F
:1004900030BD5FEA545C05D14000494128BF41F0BE
:1004A000004130BD14F580043CBF01F5801130BD22
:1004B00001F0004545F0FE4141F470014FF00000AD
:1004C00030BD7FEA645C1ABF194610467FEA655C5E
:1004D0001CBF0B46024650EA013406BF52EA033500
:1004E00091EA030F41F4002130BD00BF90F0000FEE
:1004F00004BF0021704730B54FF4806404F132042A
:100500004FF000054FF0000150E700BF90F0000FE2
:1005100004BF0021704730B54FF4806404F1320409
:1005200010F0004548BF40424FF000013EE700BFD9
:1005300042004FEAE2014FEA31014FEA02701FBF69
:1005400012F07F4393F07F4F81F06051704732F09B
:100550007F4208BF704793F07F4F04BF41F40021F2
:10056000704730B54FF4607401F0004521F0004150
:100570001CE700BF50EA010208BF704730B54FF0DA
:1005800000050AE050EA010208BF704730B511F0DB
:10059000004502D5404261EB41014FF4806404F113
:1005A00032045FEA915C3FF4D8AE4FF003025FEA99
:1005B000DC0C18BF03325FEADC0C18BF033202EB1D
:1005C000DC02C2F1200300FA03FC20FA02F001FA77
:1005D00003FE40EA0E0021FA02F11444BDE600BF1A
:1005E00080F0004002E000BF81F0004142001FBFE8
:1005F0005FEA410392EA030F7FEA226C7FEA236CF1
:100600006AD04FEA1262D2EB1363C1BFD2184140E5
:1006100048404140B8BF5B42192B88BF704710F07B
:10062000004F40F4000020F07F4018BF404211F01E
:10063000004F41F4000121F07F4118BF494292EA86
:10064000030F3FD0A2F1010241FA03FC10EB0C00B2
:10065000C3F1200301FA03F100F0004302D549423F
:1006600060EB4000B0F5000F13D3B0F1807F06D3EC
:1006700040084FEA310102F10102FE2A51D2B1F1E4
:10068000004F40EBC25008BF20F0010040EA0300D9
:100690007047490040EB0000013A28BFB0F5000F59
:1006A000EDD2B0FA80FCACF1080CB2EB0C0200FA0F
:1006B0000CF0AABF00EBC25052421843BCBFD0405E
:1006C0001843704792F0000F81F4000106BF80F4D8
:1006D00000000132013BB5E74FEA41037FEA226C9B
:1006E00018BF7FEA236C21D092EA030F04D092F066
:1006F000000F08BF0846704790EA010F1CBF00209A
:10070000704712F07F4F04D1400028BF40F00040F6
:10071000704712F100723CBF00F50000704700F016
:10072000004343F0FE4040F4000070477FEA22623D
:1007300016BF08467FEA23630146420206BF5FEA0E
:10074000412390EA010F40F4800070474FF000030E
:1007500004E000BF10F0004348BF40425FEA000CD5
:1007600008BF704743F0964301464FF000001CE07D
:1007700050EA010208BF70474FF000030AE000BFD3
:1007800050EA010208BF704711F0004302D5404211
:1007900061EB41015FEA010C02BF84460146002083
:1007A00043F0B64308BFA3F18053A3F50003BCFA9E
:1007B0008CF2083AA3EBC25310DB01FA02FC63444B
:1007C00000FA02FCC2F12002BCF1004F20FA02F252
:1007D00043EB020008BF20F00100704702F1200245
:1007E00001FA02FCC2F1200250EA4C0021FA02F2A6
:1007F00043EB020008BF20EADC7070474FF0FF3C7B
:1008000006E000BF4FF0010C02E000BF4FF0010C0A
:100810004DF804CD4FEA40024FEA41037FEA226CD3
:1008200018BF7FEA236C11D001B052EA530C18BFF5
:1008300090EA010F58BFB2EB030088BFC81738BF5A
:100840006FEAE17018BF40F0010070477FEA226C48
:1008500002D15FEA402C05D17FEA236CE4D15FEA44
:10086000412CE1D05DF8040B704700BF8446084678
:100870006146FFE70FB5FFF7C9FF002848BF10F139
:10088000000F0FBD4DF808EDFFF7F4FF0CBF01207E
:1008900000205DF808FB00BF4DF808EDFFF7EAFF08
:1008A00034BF012000205DF808FB00BF4DF808EDC3
:1008B000FFF7E0FF94BF012000205DF808FB00BFB8
:1008C0004DF808EDFFF7D2FF94BF012000205DF83E
:1008D00008FB00BF4DF808EDFFF7C8FF34BF01204B
:1008E00000205DF808FB00BF4FEA4002B2F1FE4F66
:1008F0000FD34FF09E03B3EB12620DD94FEA0023E2
:1009000043F0004310F0004F23FA02F018BF4042BA
:1009100070474FF00000704712F1610F01D14202A1
:1009200005D110F0004008BF6FF0004070474FF055
:100930000000704753B94AB9002908BF00281CBFFE
:100940004FF0FF314FF0FF3000F00CB8ADF1080C64
:100950006DE904CE00F022F8DDF804E0DDE90223C1
:1009600004B07047704700BF10F8012B11F8013B2D
:10097000012A28BF9A42F7D0D01A7047034611F8CF
:10098000012B03F8012B002AF9D17047034613F815
:10099000012B002AFBD1181A013870472DE9F047C6
:1009A00086468C460846089E154674461946002B16
:1009B00040F0C2808542B2FA82F245D94AB1C2F112
:1009C000200300FA02FC2EFA03F3954043EA0C0CD4
:1009D00094404FEA154EA8B2BCFBFEF8230C0EFB68
:1009E00018CC08FB00F943EA0C43994528D9EB18C9
:1009F00008F1FF3704D2994502D9A8F102072B4428
:100A0000A3EB0903A4B2B3FBFEFC0EFB1C330CFBEF
:100A100000F044EA0344A04214D92C190CF1FF332E
:100A200004D2A04202D9ACF102032C44241A43EAB6
:100A300007401EB1D440002334607360BDE8F087E6
:100A40004746DDE76346F1E792BB431B01214FEACE
:100A5000154EAFB2B3FBFEFC200C0EFB1C330CFB9F
:100A600007F840EA0343984562D9EB180CF1FF30D0
:100A700004D2984502D9ACF102002B44A3EB080341
:100A8000A4B2B3FBFEFC0EFB1C330CFB07F744EADD
:100A90000344A7424ED92C190CF1FF3304D2A742CC
:100AA00002D9ACF102032C44E41B43EA0040C0E746
:100AB000C2F1200320FA03F1954090402EFA03F38F
:100AC00003434FEA154EAFB2B1FBFEFC0EFB1C1008
:100AD000190C0CFB07F841EA0041884504FA02F4BE
:100AE00022D969180CF1FF3004D2884502D9ACF143
:100AF00002002944A1EB08019BB2B1FBFEFC0EFBF6
:100B00001C110CFB07F743EA01439F420ED9EB1877
:100B10000CF1FF3104D29F4202D9ACF102012B4407
:100B2000DB1B41EA004192E76046E3E76146F7E7F5
:100B30006046A3E76346B7E7834206D916B90021AA
:100B400008467BE7C6E900E0F9E7B3FA83F78FB917
:100B5000834201D3724508D8BEEB020460EB030365
:100B600001209C461EB9002168E73846FAE7C6E92D
:100B7000004CF8E7C7F1200CBB4022FA0CF41C43F0
:100B80002EFA0CF120FA0CF3B84001434FEA144955
:100B90000EFA07F5B3FBF9F81FFA84FE09FB1830CB
:100BA0000B0C08FB0EFA43EA00439A4502FA07F2DF
:100BB00040D9E31808F1FF3004D29A4502D9A8F1D0
:100BC00002002344A3EB0A0389B2B3FBF9F809FB43
:100BD000183308FB0EFE41EA03418E452CD96118FB
:100BE00008F1FF3304D28E4502D9A8F10203214453
:100BF00043EA0040A0FB0298A1EB0E014145CE461E
:100C0000434602D306D14D4504D2B9EB020E68EB40
:100C100004030138002EA6D0B5EB0E0261EB0301F0
:100C200001FA0CFC22FA07F34CEA0303F940C6E987
:100C3000003198E74046C5E74346D9E70000000089
:100C4000F0B5002283B0114600AF40F6034007F034
:100C5000C1FD044600285BD107F0F0F921463A1D9A
:100C600041F2030007F0B6FD0446002850D17A682F
:100C7000BE4DD168D1F80100D1F8051005F1780317
:100C800003C3104606F074FC21463A1D41F20100F0
:100C900007F0A0FD044600283AD17868C3685A7866
:100CA00085F870205A88A5F872201A7985F8712085
:100CB000B3F80720A5F87420B3F80530A5F876300E
:100CC00006F056FC21463A1D41F2020007F082FD73
:100CD0000446E8B9D7F804C0DCF80C2005F180061A
:100CE000531C413218685968344603C40833934290
:100CF0002646F7D1604606F03BFC95F87C305A0654
:100D00000AD49B4A9B48012128F011F96FF0120484
:100D100020460C37BD46F0BD3A1D002142F20300CB
:100D200007F058FD04460028F2D17B68924EDA683D
:100D3000D2F80100D2F8051003C6184606F018FCD8
:100D400021463A1D42F2020007F044FD0446002805
:100D5000DED17C68E368B3F8012091B249B1D9785B
:100D600039B1A5F80421DA78114606F128002CF0F3
:100D7000E0F9204606F0FCFB95F87C601F2316F096
:100D80002006A5F8203118D1022140F66D4007F069
:100D90007DF90446002800F0DB8002210C3027F0AA
:100DA00038FF0123037046702146324640F66D40FD
:100DB00007F010FD04460028AAD195F89C301B07C7
:100DC00012D53A1D002142F21C0007F003FD044633
:100DD00000289DD17868C368D3F80120D3F8053086
:100DE000C5E9382306F0C4FB95F8D8309E0621D516
:100DF000B91C384607F0F2FD0446002888D10421CA
:100E000042F2240007F042F90646002800F0A080D4
:100E100004210C3027F0FDFE3B8803807B88438053
:100E20002246314642F2240007F0D4FC0446002852
:100E30007FF46EAF95F8D8305C062AD5022142F2D5
:100E40002E0007F023F90446002800F081800221DB
:100E50000C3027F0DEFEB5F8B031038021460022C9
:100E600042F22E0007F0B6FC044600287FF450AF93
:100E700001463A1D42F22A0007F0ACFC0446002865
:100E80007FF446AF7868C3685B7885F8223106F056
:100E90006FFB082142F2010007F0F8F80446002831
:100EA00056D008210C3027F0B4FE95F8D81011F078
:100EB000400F024640F2022308BF032388074CBFBD
:100EC00043F02C0043F00C008B0695F8D93048BF56
:100ED00040F0400013F0090F18BF40F40060CE0747
:100EE00048BF40F01000002128F043F821460022BE
:100EF00042F2010007F06EFC044600287FF408AFC0
:100F000095F87C30B5F80411980624D4C9B93A1D77
:100F100041F2050007F05EFC044600287FF4F8AEBD
:100F2000B5F804317C684BB9E368B3F80120A5F843
:100F300004219A88114811462CF0FBF8204606F04F
:100F400017FB082140F6014007F0A0F80446C8B995
:100F50006FF06804DCE60029F3D1094A0548012155
:100F600027F0E5FF6FF00404D2E600BFB0000020D8
:100F70006F25030020E1020088010020B801002055
:100F80009325030008210C3027F043FE95F8D83054
:100F9000D907024629D460484FF0005127F0E9FFF5
:100FA0002146002240F6014007F014FC04460028C8
:100FB0007FF4AEAE01463A1D4FF6014007F00AFC41
:100FC000B8B1564A5648022127F0B1FF08F0B6FCE6
:100FD000044600287FF49CAE0AF0C8F904460028B5
:100FE0007FF496AE07F0D8F992E649A1D1E9000165
:100FF000D4E77B68DC68B4F80130032B96BF494A1C
:10100000494952F823106E468AB06A464748D36170
:101010004FF400731384464BC2E9050142F8103FB8
:101020003F484FF4135127F095FFB4F80120B4F86E
:101030000330022AB54649D1052B47D83D4A52F81C
:1010400023106E468AB06A463B48D3614FF4007362
:101050001384374BC2E9050142F8103F4FF4135196
:101060002F4827F077FF637994F806C0D4F8090079
:10107000032BB54698BF314AB4F8076094BF52F8C5
:10108000231029496C468CB06A46DFF8B4E0C2E907
:10109000073C4FF4007393852A4BC2E905E1C2E98E
:1010A00009604FF4735142F8103F1D4827F052FF7A
:1010B000A546786806F05CFA3A1D00214FF602401A
:1010C00007F088FB044618B11F4A7BE71649B8E7CA
:1010D0007868C368B3F80130A5F8C13006F048FA63
:1010E00095F8C1305B077FF571AF3A1D21464FF689
:1010F000034007F06FFB08B1144A63E77868C368E0
:101100005B7885F8C03006F033FA5FE7AFF3008014
:10111000908800020080002010880002B62503009D
:1011200020E10200D4E8020060230300DA25030076
:1011300004000001BCE80200F3250300ACE8020053
:101140000B26030007000001382603006126030078
:101150002DE9F843D0E90738856903EB08042F34FB
:10116000A5420F46164619D8DFF86C80A3FB08018C
:1011700017A3D3E90023FFF7DDFB0346601BA0FBA9
:10118000080123F07F4412A3D3E90023FFF7D2FB29
:1011900020F07F403C603060BDE8F883DFF8389095
:1011A0000BA3D3E90023A5FB0901FFF7C3FB20F044
:1011B0007F440A480A2106A3D3E90023E8FB09017A
:1011C000FFF7B8FB20F07F403C603060BDE8F8835B
:1011D0008D49FD1A0700000000CA9A3B00166BF10A
:1011E000002800F03C812DE9F04FC74C94F85E20B8
:1011F00012F001058DB040F06E81607EFF2300F09B
:101200000300A3761AF030F894F85E00420726D463
:10121000627F94F8293004EB820204EB8303166AA0
:10122000D3F82C8086B1B848314613F011FD3378DD
:101230005B0605D506210EF053FE002800F04D8117
:10124000B148414613F004FD337813F00E0F40F01F
:101250009D8063698BB10C200DB0BDE8F08F2A46EC
:1012600004F15F01C0F3C0001AF074F9FF28A07602
:10127000CED028461AF012F8CAE711F059F9814683
:10128000002800F0388111F05FF98246002800F054
:101290002F8113F0D7FF0546002800F04581D0F8D4
:1012A00088004FF6FF73AB8405F1100B002800F0A7
:1012B0001A8105F17C0205F178010EF01DFEB5F8EA
:1012C000763023F4EF6323F0070343F48C7343F089
:1012D0000103A5F8763095F8373003F03F0363F04B
:1012E0007F0385F8373095F88E3023F0070385F8B3
:1012F0008E3095F83C3023F00F03002785F83C3002
:101300004FF4C023C5F888312846C5E91277C5F8DF
:101310008870A5F88C7085F839706F85C5F82E70C7
:101320002F65A5F88E71A5F8847116F0E7F885F899
:101330005071C5F8549114F039FA95F8943160F36E
:10134000020385F8943114F037FA95F8943160F37C
:10135000C50385F8943195F8803167F3410385F82A
:1013600080310121284614F033FE05F1D40015F038
:101370009DFEC4E9159AC4F814B0C5E902772F7030
:101380002D611BF0FBF8002840F0A980237E01218D
:10139000C3F342030DF12B008DF82B300EF048FF04
:1013A000024600285DD098F80110304613F00CFA80
:1013B0005649574BB4F85C70A0FB0101C0184FF0C0
:1013C00000054FA3D3E9002341F10701C4E9025509
:1013D0002570FFF7AFFA606010F0D6F900F1090848
:1013E0003FB9357805F00F05A5F10105B5FA85F58A
:1013F0006D09207E636865F3000010F0010520761A
:1014000036D0444A0992002010600225424A434FD8
:1014100004930BAE019305920321CDE902000694DB
:1014200043460090089607972A460B9510F0AEF8B1
:10143000314611F011F9A0B9394905914AF2D83372
:101440000093CDE90300CDE90100079708960694C3
:101450004346012203210B9510F07CF82EE013F097
:1014600003B96369002B3FF4F6AE13F0B9F8F2E666
:10147000284A2C48049303F24713069402959121BD
:101480001360A7FB000301FB0731244B0793224B9A
:1014900005934FF6FF730992022703930BAE18A32F
:1014A000D3E900230B970896FFF744FA4346CDE9AA
:1014B00000503A462846032110F068F8314611F0F2
:1014C000CBF80028CDD194F85E300120034384F896
:1014D0005E3019F0ABFE0020BEE61220BCE613F031
:1014E0007FF80320B8E605F18000C5F88800E0E643
:1014F000484611F023F80720AEE600BFAFF30080A6
:101500008D49FD1A07000000082D002000CA9A3BF3
:101510008C49FD1AFC2C002045480100E918010007
:1015200031430100002AE784504611F013F8484681
:1015300011F004F8DFE700BF70B5037E8AB0C3F393
:1015400042030D46044601210DF1230016468DF895
:1015500023300EF06DFE71780246284613F034F900
:101560001F49204AA0FB0131981841F107011AA335
:10157000D3E90023FFF7DEF963689842054621D2DC
:101580001B1A00220192184A0293184BA21AA3FBBD
:1015900002320221520900230A4409AE099114497A
:1015A0000591CDE903330321D2B206960093184684
:1015B00010F04CF8314611F04FF838B96560002052
:1015C0000AB070BDFBD9C21A0023DBE70C200AB0B9
:1015D00070BD00BFAFF300808D49FD1A0700000009
:1015E00000CA9A3B8C49FD1A082D00204FECC44ECE
:1015F000E9180100000000002DE9F04F06468DB00B
:101600008A4601200221994615461CF065FF0022FA
:101610000B90022101200EF0BFFC3B494FF4D07229
:1016200030460EF049FCC71C384B0093FFB20196C0
:101630004B463A460121002010F062F810F0FD0FF1
:101640000ED0334A3349344840F68F0326F0F2FA7D
:10165000002383F31188BFF36F8F0323184602DF43
:101660002E4CA5FB044526A3D3E90023204629469A
:10167000FFF760F90896069673680493284B20F0EC
:101680007F48A8FB0331E01A264B07934FF007026F
:10169000254B059302FB08114FF6FE7365EB010124
:1016A00003934FF47A720023FFF744F94FF0000BD5
:1016B000CDE90180CDF800A04B463A4601215846BD
:1016C0000FF048FF10F0FD0F0DD0114A11491248DC
:1016D00040F6A40326F0AEFA8BF31188BFF36F8FA8
:1016E0000323184602DF0B9B13B90DB0BDE8F08F42
:1016F0000122022110460DB0BDE8F04F0EF04CBCA7
:101700008D49FD1A0700000048170020E55101002F
:10171000D0F3020094F4020044ED020000CA9A3BA8
:101720008D49FD1A8551010079A6010000000000D5
:101730002DE9F0418468A28C4FF6FF739A428CB079
:1017400045D00546204616F077F92B7D012B00F099
:101750002281022B00F01581002B00F0F48094F818
:101760005061002E40F010812B8AE78D94F93720CC
:10177000CDE90A6673B3002AC0F25A810023A4F8A7
:101780008A31AA7CA38DFD1802F003030135012BD9
:10179000ADB23BD0B4F88E31002B00F005819D42F4
:1017A00080F059815B1B9BB20022062BA4F88E317E
:1017B000E28540F2F68094F937309342C0F25081CE
:1017C000002326E09DF82710204614F0D3F80CB033
:1017D000BDE8F081002AB8BF84F87561A38DAA7CAA
:1017E000FD1802F003030135012BADB20ED0B4F8A1
:1017F0008A31002BCED0AB4240F23C815B1BA4F877
:101800008A31B4F88E31002BC9D102E00023A4F84C
:101810008E3194F83C2063F3820284F83C20294600
:101820000DF12702204615F0A5FE7430CAD0B4F899
:1018300088312BB1AB4240F2EC805B1BA4F88831BD
:10184000B4F884312BB1AB4240F2DA805B1BA4F8D0
:101850008431E58D16B9AF4200F0C9800135ADB2D3
:1018600094F8D13013F0010731D1DDE90A130A46AB
:10187000002B40F0CC80002900F0BB801F461846AA
:10188000A28C24690694CDE9035603329A4D029046
:10189000CDE90017D2B20121002005950FF0D6FE48
:1018A00010F0FD0F93D010F001FF84428FD0934AC7
:1018B000934994484FF4AE6326F0BCF9002383F3B8
:1018C0001188BFF36F8F0323184602DF7FE794F977
:1018D00037206FF30003002A84F8D1307FDB94F8BF
:1018E0007600C0F3C00100F007001AF05FFCB4F806
:1018F0006E20B4F86C301344E28B03F23F131344B0
:101900000344814A81480721E3FB0021104678A364
:10191000D3E90023FFF70EF8DDE90A1320F07F4238
:1019200060686260904235BF171A801A0020002755
:101930000A46002BA4D157EA010CA1D1002858D0A7
:1019400019461F469CE794F88E3003F01803182BB5
:101950007FF405AF218DB4F886218B1D9A42C4BF58
:10196000931F5B1AB4F88211CCBF9BB21346994205
:1019700000F09C80A4F88231A4F88431A4F8882176
:10198000EDE63D2684F85061314620460CB0BDE8B6
:10199000F04113F0EFBF0023A4F88831A4F884319C
:1019A000DDE60126334634E7E28C052A97BF013293
:1019B00040F2E2434FF4FA7392B203FB02F2B4F83E
:1019C0008C3142F2107101FB0323013BB3FBF2F3B4
:1019D0009BB2A4F88E31002B7FF4E1AE19E794F8A6
:1019E0007700012100F007001AF0E2FB7FE735469F
:1019F00036E7002D43D00027114638463B463FE7E7
:101A00000023A4F88431204615F056FE21E738461D
:101A100036E710F0DFFD0146A0B30023A4F88831BB
:101A2000A38CC3801B230371006810F0A5FD07E79A
:101A300094F875316BB3013B84F8753104F1D40827
:101A4000404615F075FBB8B3404615F071FBB8B3CE
:101A50000023E38592E60821204613F08BFFB6E6CB
:101A6000A7B9D4F878315A0813F0010336D1C4F875
:101A70007821A5E63E21204613F07CFFA7E6002E44
:101A8000B9D1A4E60123A4F88831D9E6134601268A
:101A9000BFE60AAA0BA92846FFF75AFBDDE90A238D
:101AA0001343CBD0237884F87531C7E7B4F8881195
:101AB00000297FF454AE5FE7FF2013F01DFFC3E75A
:101AC0000246D4E91E010EF02FFA0028C0D194F886
:101AD0003C301B0744BF238DE3854FE642F00042B4
:101AE0001E46C4F878213B4693E600BFAFF3008062
:101AF0008D49FD1A0700000041510100D0F302009A
:101B000010F5020044ED02008C49FD1A00CA9A3B10
:101B10002DE9F04F89B0CDE90623BDF84C200378BC
:101B20000392BDF85020BDF848B0BDF85480068E31
:101B3000029104460492002B00F0C780013EB6B229
:101B400094F87600A6EB08039DB2C0F3C001D4F868
:101B50000C31059500F0070001931AF027FBE78C84
:101B6000052F40F2AA8017FB05F7BFB240F2E24909
:101B7000BBF1050F40F29580B4F86E20B4F86C30DC
:101B8000134403F2D51303447B4A7C480721E3FB4B
:101B900000214FF09613E36196231046238474A32B
:101BA000D3E90023FEF7C6FE5D4620F07F4040F2F9
:101BB000E24303FB05F509FB07F1B1FBF5F71FFA5B
:101BC00087FA606005FB0AF0814257465AD2401AF4
:101BD0006A4967A3D3E90023A0FB0101FEF7AAFE2F
:101BE000019B20F07F499944638DB4F8142113447C
:101BF000984494F83730A8EB06084744DB0967851A
:101C00006AD15F4A5F49604840F6581326F012F8DF
:101C1000002787F31188BFF36F8F0323184602DF75
:101C20002E46039B2385049BA4F88C31294620462D
:101C3000A4F826B015F0DAFC544B218D2B44881DF6
:101C4000B3FBF5F39AB29042A4F8862104D2C1F511
:101C50007F41FA310A4492B2029BA4F8822113B167
:101C60000023A4F88E314B46324639462046FFF712
:101C7000C3FC94F8803143F0010384F8803109B04B
:101C8000BDE8F08F091A3D4839A3D3E90023A1FB31
:101C90000001FEF74FFE019B20F07F49A3EB0909ED
:101CA000A2E74FF096130BF10105E361962323841D
:101CB000ADB20A204FF4FA737BE7059B013717FB9F
:101CC00003F7BFB24FF4FA7952E7438D1E44B0F8E0
:101CD00014311E44B6B233E7226C0599A36C274F2A
:101CE00002FB1133A3641AF099FC064694F87401C0
:101CF000C0F342001AF094FC064405FB06F6244BA0
:101D000006F5742606F23F26A3FB0636B60CA36C36
:101D100026640AFB06F06A080344963A934228BFF9
:101D20001346C4E91123069B40F2E24808FB03F383
:101D300023650023A0FB0701C4F87C310CA3D3E981
:101D40000023FEF7F7FD134B079AA9EB0009A3FB4D
:101D50000230800A08FB00F0A0FB070104A3D3E9CE
:101D60000023FEF7E7FDAE1B20F07F4759E700BFD9
:101D70008D49FD1A070000008C49FD1A00CA9A3BE4
:101D8000D0F302001CEE020044ED02007FC3C90143
:101D900083DE1B435917B7D12DE9F04F0B6891F83B
:101DA0001180D3F80090037F176895B00446C3F301
:101DB0008013D0F81E008DF83F30B8F1FF0F638C10
:101DC00012900E461546ADF84C300DF1480A4DD133
:101DD0009AE803001090ADF844102346E28D53F8C2
:101DE0002EBB9B78AB722A81D4F82A306B60D4F872
:101DF0003A30C5F8223005F1220094F83E300371E4
:101E000005210EF015FA95F8273000F03F0060F339
:101E1000050385F8273094F83F30C3F3040285F8B2
:101E20002820A28EEA82012803F01F0392B205D96E
:101E30001B3303F01F030B2B00D81ABB0022C9F879
:101E4000082095F82C3062F3000385F82C30E56803
:101E5000012658462146267110F082FB28682E7113
:101E6000294610F089FB15B0BDE8F08F10AA0DF1DE
:101E70003F01404618F00CFF9DF83F3002338DF8CB
:101E80003F30AAE7336800215960E38EEA8A2B834A
:101E900040F2E24303FB02F20B92638E0D9338464D
:101EA00015F0B8FB94F83F2097F87411520962F3CB
:101EB000430187F874111AF0B1FB0C9097F8740184
:101EC000C0F342001AF0ACFB0C9A0B99104401FBD2
:101ED00000F0BB4A00F5742000F23F20A2FB002076
:101EE0004A08800C963A28636A6394F8312040F2DD
:101EF000E24302FB03F36B64238FA7F88C3138466F
:101F000015F074FB0B99AF4BAF4AC7F890210B4407
:101F1000B3FBF1F39AB2A7F88621298B881D824280
:101F200004DDC1F57F41FA310A4492B2A7F882215B
:101F30006B68C7F87831234613F81C2FC2F34012A0
:101F40000C92DA0700F1FA804FF48073A38399F8BA
:101F50001A0019F013FC04F12B03002800F0EA80AA
:101F6000626AC4F82B20228D9A80B8F1FF0F00F02E
:101F70000881BAF804301298A4F82930C4F8250072
:101F80009DF83F30A3771098BDF84430C4F81F0087
:101F9000A4F82330EB8A63862B8BA386B7F88C31A9
:101FA000E38697F87431C3F3420384F83830384637
:101FB00013F054F9A882E08021465846746810F066
:101FC000CFFAAB8AE3801C2323710C9BD4F80080EA
:101FD000002B40F0CA800C9B23772146404610F02E
:101FE000CBFA95F86700B5F85C80B5F85E40012142
:101FF00000F007001AF0DCF8444404F2D514031989
:102000008046724C72480721E3FB04014FF096139F
:10201000C5E9033368A3D3E90023FEF78BFC20F066
:102020007F4078600B9B2D6B0D995D1BF36840F230
:10203000E24202FB013303F2B3410022A1EB0808A4
:10204000012002210DF0A8FF484612F0BDFD024616
:10205000A8FB0401144658A3D3E90023FEF76AFC49
:10206000CDF80490B3685B49009120F07F4AA21C30
:102070003A3BD2B25344012100200FF041FB01282A
:1020800000F0858099F81830DB0766D4384613F0E5
:10209000E5F84E4BA5FB0398044647A3D3E900237C
:1020A00048464146FEF746FC4B4BB6684B4A079202
:1020B00020F07F45A5FB0331B9EB0300484B0593A6
:1020C00040F2E313069708937B684FF0000BCDE9CD
:1020D00003B34FF0070303FB051168EB01014FF455
:1020E0007A720023FEF726FC03343A3EE4B2CDE9CF
:1020F0000150CDF800A033462246012158460FF08A
:1021000029FA10F0FD0F0DD0364A374937484FF401
:10211000F27325F08FFD8BF31188BFF36F8F0323CC
:10212000184602DF0122022110460DF035FF15B0DE
:10213000BDE8F08FC4F82B00988016E7294A2C4997
:102140002A48FD2325F076FD002383F31188BFF391
:102150006F8F0323184602DFF6E600230122009367
:10216000184611460FF08AFA90E795F8273043F0A9
:10217000400385F82730281D18F094FB012328859B
:102180002AE70022C4F82520A4F82920F8E610F058
:102190008DFA81453FF476AF124A1649134840F252
:1021A0008B2325F047FD002383F31188BFF36F8F46
:1021B0000323184602DF65E78D49FD1A070000007A
:1021C00083DE1B437FC3C901404B4C0000CA9A3BCE
:1021D0008C49FD1A39A601008D49FD1A05A601009A
:1021E00079A6010004FA020094F4020044ED020012
:1021F00044F1020060FA0200F0B5C468636883B07D
:102200000546002B64D11BF0D7FC00201BF0FAFC24
:10221000002108461BF0E8FC0022252108201BF0C5
:1022200025FD474B019301A81BF00CFD454940F2E9
:102230005B601BF0C7FD237AC3F3420262F306130F
:10224000204623721AF008FC19F074FB58BB637A1D
:102250009B071FD127682E68384619F04FFF0644A8
:102260006A6806F1090101201BF0F4FE1BF0B2FFC1
:10227000204612F0B5FC811C3246C9B2384619F02E
:102280003FFF054678BB204619F0E0FE88B90020E4
:1022900003B0F0BD012018F0BDFF4178821C00782A
:1022A0001BF078FED6E7607A10F0030018BF01201B
:1022B000F1E7254A2549264840F2294325F0BAFC92
:1022C00085F31188BFF36F8F0323184602DFDEE723
:1022D00093F82C309A0796D01E4821461BF02AFC12
:1022E0001BF010FDD3E7184A1B49194840F211436F
:1022F00025F0A0FC194B0721A5FB030301FB0531C9
:102300000DA3D3E90023FEF715FB15490246154836
:1023100025F090FC002585F31188BFF36F8F032310
:10232000184602DF104821461BF004FC1BF0EAFCB3
:102330006FF08B00ACE700BF00CA9A3B00000000C2
:10234000D6BE898E5555550080FE020018EF02005A
:1023500044ED020091C201001CEE02008D49FD1AFD
:1023600030FF020004FF02002DC601000000000043
:102370002DE9F041C468A28A4FF6FF739A4282B0F9
:1023800000F0DF8005461AF0ABFE2B89628B208CB3
:10239000A3831A4492B2104494F82730E28380B2A7
:1023A000411C21845E064FF00001618304F122018B
:1023B00000F1A18003F03F000B4694F82810009034
:1023C00004F1290018F026FA0646D4E90C31A28B54
:1023D00002FB0333A26B1344E26B8B4294BFD2180F
:1023E00052188A4228BF0A46E263616C226C94F854
:1023F00067301144616494F87E2094F82C10C3F384
:10240000020363F3061112F004024FF0000384F894
:102410002C10A363236478D01BF0CEFB00201BF0AC
:10242000F1FB201D1BF00EFC2389A17A40F25B60BA
:1024300043EA01411BF0C6FC304619F073FE214609
:1024400059481BF077FBA0891BF0F8FD94F8662033
:1024500094F86700C2F3C003002102F0070200F005
:1024600007001BF015FD20461AF0E4FE27682E68D1
:10247000384619F043FE06446A6806F10901002057
:102480001BF0E8FD80461BF079FE00201BF090FE5B
:10249000E36B94F8670003F12F02636C00F0070010
:1024A000012103EB42051BF01FFC4544054494F851
:1024B000670000F00700022825D004280CBF4FF465
:1024C000BC73282301211D441BF010FC28441BF081
:1024D00047FEA18A03313246C9B2384619F010FED0
:1024E0000546002834D1204619F0B0FDD0B90020AF
:1024F00002B0BDE8F0810A4603F03F03218D18F0D9
:10250000D5F9064661E71823DCE7D4E91A010DF096
:102510000BFD002880D194F87E3043F0040384F84A
:102520007E3079E7214A224922484FF4B07325F0E2
:1025300081FB85F31188BFF36F8F0323184602DFF9
:10254000D5E71D4821461BF0F5FA1BF0DBFBCEE773
:10255000164A1A4917484FF4AB7325F06BFB184B1A
:102560000721A5FB030301FB05310DA3D3E90023DC
:10257000FEF7E0F913490246134825F05BFB0025FE
:1025800085F31188BFF36F8F0323184602DF0F48CE
:1025900021461BF0CFFA1BF0B5FB6FF08B00A7E7CD
:1025A00000CA9A3B00000000ADD40100BCFF02004D
:1025B00018EF020044ED020091C201001CEE02007F
:1025C0008D49FD1A1000030004FF02006DC20100D6
:1025D00080B50D4A0D4B00AF8AB0012918BF1346D4
:1025E0006A460B48D161C2E905034FF400731384B6
:1025F000084B42F8103F084800234FF4135102F0F3
:1026000007FABD4680BD00BF190E03000E0E030081
:10261000260E030004000001A0E1020010B5074CE3
:102620000748084A0B46032124F081FE206818B1B0
:1026300008F0ACF90023236010BD00BF201C00206F
:10264000A0E102004F0E030008B527F024F8044B68
:10265000044A1860BDE808400348032124F069BE1D
:10266000201C00206C0E0300A0E102000B4621B1EB
:10267000034A0448012124F05ABEFFF7E5BF00BF1A
:10268000760E0300A0E1020007B50B460448009255
:102690000321044A25F0CDFF03B05DF804FB00BF21
:1026A000A0E10200950E03002DE9F04FDFF8F4B031
:1026B00089B04FF07E5A00AFDBF8000000286AD0E6
:1026C00026F0E9FF384D06462868FDF731FFE84659
:1026D00088B06C462246354B63614FF00409C4E96B
:1026E000060142F8109F32487A6000234FF40351EC
:1026F00002F08EF9C546A5462E4B63612E4BA361B1
:102700004FF40073A3832D4B23612D497A68284829
:102710002B4602F07DF91822C546002107F108007A
:102720002BF072F8274BA7F8149007F108013046F8
:10273000C7E903350BF0D6F90446C8B10346224A6F
:102740001B48012124F0F3FD51462868FDF74EFF98
:102750001E490446FEF7BEF800B1544630462C60D0
:1027600008F014F94FF42030002124F0E4FDA3E731
:102770002868FDF7DDFE88B06A46154B5361C2E953
:10278000060142F8109F0A4823464FF4035102F015
:102790003FF9C546D8E70F4A0548032124F0C9FD93
:1027A000E0E700BF201C0020B8020020B60E0300A6
:1027B000A0E10200B6230300D40E030003000001D1
:1027C000C01C40006CE50200E30E03000000C8429C
:1027D000FA0E0300190F03002DE9F04784B00446F8
:1027E00000AF3C2101F074F943F69821204624F013
:1027F000D5FF4A4DDFF828814A4A0E230321284697
:1028000024F095FD6E4688B06A46DFF81C914FF4BF
:1028100000739383454BC2E9059742F8103F444942
:10282000DFF810A14346284602F0F2F80023B5462F
:1028300042460E21204600F0E3FF00231A460E21F7
:10284000204601F00BF80221204601F02BF800226F
:102850004421204624F0A9FE10EA0A0F0646F6D0CD
:10286000354A03460321284624F061FD16F48042D0
:1028700048D0324A0321284624F05BFD7F22002104
:102880002F482AF0C1FF00224C21204624F08DFE63
:1028900010F46073C0F3090604D12949324620467A
:1028A00001F0E2F833462846264A032124F03FFD92
:1028B000254A0321284624F03CFDEA4688B06A46B2
:1028C0004FF4007393833105184BC2E9059741F427
:1028D000E65142F8103F1A4B284602F099F84FF49F
:1028E0008043D54600224421204624F047FF4FF480
:1028F0000040002124F01FFD98F80130013388F8D2
:10290000013079E7114B4421204624F037FF104A6B
:102910000321284624F00DFDE9E700BFA0E10200F5
:10292000E10700202B0F0300B62303000300000182
:10293000C01CE00000D02724360F0300440F030022
:10294000DA4D00204E0F03005A0F03000090272499
:10295000610F0300F0B58E4A8E488FB0032124F03A
:10296000E8FC0020089002F04FFF034650B98A4C63
:10297000089B73B1002006F07BF80446B0B1874A8B
:10298000034600E0864A8348012124F0D0FC0FB0C2
:10299000F0BDA3689B6C1BB108AA04212046984790
:1029A00040F6CD40002124F0C6FCE1E77D4A79489D
:1029B000032124F0BEFC7C480AF08CFC1422214642
:1029C00009A82AF021FF0922A023CDE90A23F02338
:1029D0000C93764900942346022209A807F010FAC6
:1029E000034680B1724A6B48012124F0A0FC714873
:1029F000714C21F0CFFE206058B9704A6548012122
:102A000024F097FCC3E76E4A6248032124F091FC4E
:102A1000EDE76C4860602AF0ABF908B96A4AEDE767
:102A20006A486A4D214624F0DCFC034608B1684A36
:102A3000A9E7284600F034F9034620B1654A554815
:102A4000012124F074FC644A5248032124F071FCF3
:102A50005E4824F076FE034620B15E4A4D480121CF
:102A600024F065FC4FF4A470002124F064FC4220A3
:102A7000002124F060FC554C204624F0B2FD0028D3
:102A8000FAD0564A4348032124F053FC4F48002112
:102A900000F030FA013005D1514A3E48012124F0BE
:102AA00048FCFEE74F4A3B484F4E484F032124F075
:102AB00040FC0324013C0BD33146384600F0ECFBCC
:102AC0000028F7D0494A3348012124F032FC54B998
:102AD000474A3048012124F02CFC4FF400400021EB
:102AE00024F029FCF9E7434A2A48032124F021FC79
:102AF0004149364800F05EFE404A2648032124F052
:102B000018FC324809A900F0A9F8034600283BD078
:102B10003B4A01211F4824F00AFC3A4A1D48032180
:102B200024F007FC384A1B48032124F002FC00264D
:102B3000002700240523CDE90334CDE90667334B94
:102B400033490094CDE901444FF48062314822F0CA
:102B50007FFC314A0F48032124F0EBFB0323CDE92E
:102B60000243CDE90667CDE900542C4B2C492D4892
:102B700004944FF4806222F06BFC4FF0FF304FF072
:102B8000FF3124F0D8FBF8E7099B274A0321C1E76E
:102B90006A0F0300A0E10200F8DC02009C0F0300B2
:102BA000830F0300BB0F0300BC02002048E50200B6
:102BB000D10F03000A100300FC02002010100300D4
:102BC000F60F0300D8DC02002B100300241C0020A9
:102BD000421003005A1003007A1003009210030001
:102BE000A0100300AC100300C0070020BC100300BD
:102BF000CA100300ED100300F0020020F9100300DA
:102C0000081103003C1103004C110300A926000029
:102C100000510020980B002064110300D927000008
:102C200040550020180C00202A1103000A480022F9
:102C3000D3B2082113F0800F4FEA430318BF83F08B
:102C400031030139DBB2F5D10132B2F5807F00F8F2
:102C5000013BEDD1704700BF594E002030B50C4606
:102C600085B00546B8B1B1B10C4BD3F80300DB79A0
:102C70008DF804300023009002938DF80C3002AAE6
:102C800005236946284624F07DFB10B9DDF809309C
:102C9000236005B030BD6FF01500FAE764E2020072
:102CA00010B5044610B96FF0150010BD0368002B75
:102CB000F9D0186824F05DFB0028F4D02368034A9B
:102CC000DA604FF480721A820020EEE700127A0078
:102CD00010B5044610B96FF0150010BD0368002B45
:102CE000F9D0186824F045FB0028F4D02368034A83
:102CF000DA604FF480721A820020EEE780841E00B2
:102D000030B5064D0446002310468B4200DB30BD33
:102D1000E25C42400133A85CF7E700BF594E002057
:102D20002DE9F0431E4685B00A44B6F5445FC2F370
:102D30000445DDF83080BDF8343007460C4602F01B
:102D40007F0201D325F0DFFE83F40040032801D980
:102D5000002BF7D1910041EA452143EA010503F038
:102D6000030C2D0A4CEA01018DF80C508DF80D1062
:102D70004EB9B3F5004FE5D1640064F07E048DF8E0
:102D80000C4001240BE012BBB3F5004FF9D07BB32C
:102D900045F040058DF80C50032852D80224294BE9
:102DA0001B7DE3B10022214603A8FFF7A9FF3146AE
:102DB00002464046FFF7A4FF3346CDE9008003AA50
:102DC0002146384624F07EFB05B0BDE8F08345F08F
:102DD00040058DF80C50002BDED1022509E0CDF81E
:102DE0000080334603AA2146384624F09AFBEBE7DD
:102DF0000125DFF85090CDF80080334603AA29461C
:102E0000384624F031FB99F81430022BDCD1182C11
:102E1000DAD00022294603A8FFF772FF31460246A6
:102E20004046FFF76DFF002204461821384624F083
:102E3000E0FB8442C8D0D9F82430002BC4D0984796
:102E4000C2E7FEE7341E002013B54FF4C0730093B1
:102E500009494FF0FF330022044624F08AFB074B58
:102E600007491B7A009300224FF6E073204624F0B6
:102E700080FB02B010BD00BF08000B00341E002014
:102E80001F001100052907B50AD140230093074907
:102E90006FF40053002224F0CCFB03B05DF804FB78
:102EA0000929FAD14FF40153F0E700BF08000B00E5
:102EB00070B50D4E04460D4601233146002224F024
:102EC000DEFB2B4620460949002224F0D8FB314680
:102ED00020460022022324F0D2FB20460449BDE80C
:102EE0007040002224F061BB08000B0004000B00BE
:102EF00010000B002DE9F041374C002302220E4652
:102F00000421C4E90A33C4E90C33C4E90E3305468D
:102F1000E3732282A3826381FFF7CAFF0521804603
:102F20002846FFF7C5FF0A2107462846FFF7C0FFDE
:102F3000C0F304402072B8F1000F04D01FB110B1EB
:102F40002846FFF781FF20212846FFF7B1FF234BDA
:102F5000C71A78427841F306607204D506212846E4
:102F6000FFF7A6FF2060B10604D507212846FFF72A
:102F70009FFF6060720604D508212846FFF798FF7E
:102F8000A072330604D509212846FFF791FFE072AD
:102F90000023C4E9063384F82030E37A0BB9852393
:102FA000E372A37A0BB97423A3721F212846FFF79B
:102FB0007FFF1E2160732846FFF77AFF10F07F0322
:102FC00008BF2E2328460649A373002224F04BFB9A
:102FD0000020BDE8F08100BF341E00204002001038
:102FE0001400090002494FF40073002224F047BB8B
:102FF00004001100012937B504460D460AD1FFF738
:10300000F1FF0095FF232A461E49204624F0FEFAD0
:1030100003B030BD02291ED1032300931A49FF23B8
:10302000002224F0F3FA4FF40003009320461549E0
:103030006FF48073002224F0FCFA002300932046F2
:1030400010497F232A4624F0E1FA204603B0BDE868
:103050003040FFF7C7BF012300930022FF232B213D
:1030600024F0D4FA4FF40003009300226FF480732D
:103070000449204624F0DDFA0023009302227F2336
:10308000C2E700BF080011000400110073B5284B0F
:103090002849294E0022044624F070FB1023009397
:1030A0002449FF230022204624F0B0FA03251420EF
:1030B00022F06AFC00223146204624F09AFA0128C8
:1030C00033D0013D15F0FF05F1D1012500231A464B
:1030D0002046184924F0C7FA204617490123002248
:1030E00024F0C1FA012300932046FF231149022254
:1030F00024F08CFA11490022204624F056FA6FF091
:10310000604398420E494FF00002204614BF6D42C2
:103110004FF0FF3524F049FA6FF06043984214BF36
:1031200028464FF0FF3002B070BD0025CEE700BF4B
:10313000010002000C000400200004001400040040
:103140001C000400012973B5044604D002B0BDE898
:103150007040FFF79BBF0E49002224F036FA40F280
:1031600005130B49009306464FF6FF7300222046D5
:1031700024F0FFF92046FFF789FF002205460449A5
:1031800000922046334624F0F4F9284602B070BD80
:103190004800070005292DE9F047044640D1264D97
:1031A000264E274FDFF89C80DFF89C90DFF89CA02C
:1031B000274B28492046002224F0E0FA53462046B7
:1031C0002549002224F0DAFA4B4620462349002202
:1031D00024F0D4FA434620462149002224F0CEFAB6
:1031E0003B4620461F49002224F0C8FA33462046B9
:1031F0001D49002224F0C2FA2B4620461B4900221A
:1032000024F0BCFA20461A4B1A49002224F0B6FAE0
:103210002046194B1949BDE8F047002224F0AEBA08
:10322000174D184FDFF86080DFF86090DFF860A07E
:10323000184B2E46BDE700BFF5CF0100B5CF01000A
:1032400036CF01007EC70100BEC601003EC40100AA
:10325000FDC00100380003003C00030040000300F3
:1032600044000300480003004C000300500003002A
:10327000400200101C00030089A46D1B2000030005
:10328000B5AF02007DAF02003EAF0200FEA5020016
:1032900036AC0200FEA802002DE9F04F0B7991F840
:1032A0000080182B85B004460D4600F21E8191F86F
:1032B00003B0BBF1180F94BF4FF0000B4FF0010BA0
:1032C000EA796B78C54E511E013B4A42DBB24A4156
:1032D000062B9CBFC24931F91390338A23F0E003D7
:1032E0003382697BEB79337301F102014FF00107FF
:1032F00007FA01F71FFA87FA4FEACA0A4FEA0212E1
:10330000504688BF4FF480790392FDF71FFAB54904
:10331000FCF7F6FEFDF7E8FA7082297B71752B7ACF
:10332000039A5B01090301F4304103F020030B43CE
:10333000A97B43EA0143134300930022AA4B1021C7
:10334000204624F076F9BBF1000F00F0D180338ADB
:10335000A64943F0600333824FF440630093002298
:103360006FF4C053204624F064F9A14940F20633BB
:103370000022204624F002FA00231A464FF00E11D4
:10338000204624F0FBF99B4B9B490022204624F069
:10339000F5F99A497D230022204624F064F9AB78A0
:1033A00000930022FC234FF4C021204624F02EF984
:1033B0007B1E4FF400310022DBB2204624F053F98B
:1033C0006B78072B0CBF08210021204624F0E1F97F
:1033D0002B7B8B4903F00303032B0CBF894B8A4BD8
:1033E0000022204624F0CAF988490022204624F011
:1033F000DCF82B79EA7885491B02D200D2B203F4BB
:10340000F85313436A7920F4FF50520020F01F0054
:10341000B8F1090F02F0060208BF40F001001343A3
:1034200003430022204624F0A9F96B78AA791B03F4
:1034300043EA8223009300226FF474432421204640
:1034400024F0F7F86B890BB981236B816B89022219
:103450004FF4C021204624F012F9B8F1090F40F0D2
:1034600083806B4B6B490022204624F087F940F69D
:103470003C7300224FF41021204624F000F9664BE3
:1034800066490022204624F079F965491423012277
:10349000204624F0E8F863490E230222204624F057
:1034A000E2F8614981230022204624F0DCF802235F
:1034B00000224421204624F0D6F801212046FFF7BF
:1034C00099FD0627142022F05FFA002244212046AD
:1034D00024F08FF8830774D4013F17F0FF07F1D170
:1034E0004FF0FF3005B0BDE8F08F4FF0010BE7E67D
:1034F0002B7B23B36A7B4D4B3F4933F81220AB7BC8
:10350000012B9BBF4FF43563534313019A0C8CBFBF
:10351000C3F30A03C3F3CA1303F5806388BFD20958
:10352000B3F5006F28BF013292B202F07F02009221
:103530004FF6807302222046D14424F01AF8B9F1E4
:10354000FF0FC8BF338A2949C5BF43F02003338228
:103550004FF4A0534FF48063009300226FF4C053E4
:10356000204624F066F81AE72046314B294900220C
:1035700024F004F941F63C7300224FF41021204658
:1035800024F07DF881E7737A012B15D14FFA88F189
:103590002046FFF777FC4FF4C8430093254948F2D3
:1035A000FF130022204623F0E4FF0121204605B04E
:1035B000BDE8F04FFFF7C6BD41462046FFF7EAFDE4
:1035C000E9E72B79093B0F2BDDD90022194900923D
:1035D000FE23204624F01AF8E7E700BF341E00203F
:1035E000E00C03006666663FCF4FFCFF08000B004F
:1035F0000C000E000A5A0C0012000E0016000E00FD
:103600000C000600CC355FAF4C585FAF14000100D2
:103610003400011C1C00070033A8B5081000070087
:10362000500007001800070008000900EE0C030016
:103630003411071C18000300002302491A4624F025
:103640009DB800BF04000700002370B51A460D4660
:103650000A49044624F092F800231A464FF4E02168
:10366000204624F08BF845B120460549BDE870405E
:103670004FF0E053002224F081B870BD48000700ED
:1036800014000700052907B50AD1074B0093074925
:103690004FF0FF33002223F0CCFF03B05DF804FBB2
:1036A0000929FAD1024BF1E7003C000204000700AF
:1036B000001C000273B54FF008230E46154615494D
:1036C000009300224FF0FF33044623F0B2FF4FF087
:1036D00060131049009300224FF0FF33204623F07F
:1036E000A8FF052E0CBF0C4B0C4B009300224FF093
:1036F000FF334FF4E021204623F09BFF45B1084BF8
:1037000008490022204602B0BDE8704024F036B8D7
:1037100002B070BD48000700003C0002001C00021F
:10372000001101011400070073B541F6220304469D
:103730000E4615461B49002223F0A1FF0022294610
:103740002046FFF7B7FF29462046FFF79BFFC6F349
:103750000B031549154E0022204623F090FF03234A
:1037600000931249FF230022204623F04FFF00223E
:103770003146204623F03DFF10F00105F7D12046E9
:10378000FFF75AFF29462046FFF75EFF2046FFF766
:1037900029FC07492A46204623F02BFF00F03F0072
:1037A00002B070BD040011001C00080010000800E9
:1037B0001C00070070B50A8905460C465AB90B78FB
:1037C0000C4923F050FF63680B4928460022BDE8EE
:1037D000704023F0D3BF0022084923F00AFF10F005
:1037E000010F218914BF092205222846FFF79CFFFB
:1037F000E9E700BF1C0007000C00010014000100F5
:10380000F7B51C460B44B3F5806F06460D461746C8
:103810001DDA7F2C09D800920B4622464FF4A011E6
:1038200023F017FF002003B0F0BD0A491423002243
:1038300023F0A4FF084923460022304623F09EFFD0
:1038400000972B4600224FF4E8113046E8E74FF08E
:10385000FF30E8E704001F0008001F007F2A13B5AF
:10386000044641EAC32109D841EA024100910C4BC8
:103870000022242123F0DDFE02B010BD803241EA97
:1038800002410091064B0022242123F0D2FE0022A7
:103890004FF40021204602B0BDE8104023F0A9BE3D
:1038A00000F400FC2DE9F3410C46054638B95F4AA7
:1038B0005F48012124F0AAFE4FF0FF3085E011F0AF
:1038C0001D0801F002060A4600F08A8011F0010787
:1038D0003ED05849564823F04EFDA6B3002300932E
:1038E0001A460D21284623F0B4FE5349504822467B
:1038F00023F041FD03224421284623F07AFE4F495C
:10390000044602464A4823F036FD14F008045FD10D
:103910004B492246284623F048FE4A4906460246BD
:10392000434823F028FDB6F5502F48D1464A404879
:10393000012124F06BFE009423461A4619462846BE
:1039400023F087FEB8E70096334632460321C9E7E5
:1039500011F0080811D03D49354823F00CFD3EB167
:1039600000973B463A460F21284623F072FEC1E7F6
:103970000096334632460721F6E711F010070FD0C4
:1039800033492B4823F0F7FC2EB1CDF80080434695
:1039900042460E21E8E70096334632460521E3E72A
:1039A0002C49234823F0E7FC26B100973B463A46D2
:1039B0001021D9E70096334632460921D4E7264A3A
:1039C0001B48032124F022FE002002B0BDE8F08154
:1039D000224A1748012124F019FE00230093ACE786
:1039E00011F0200712D01E49114823F0C4FC46B143
:1039F000CDF80080434642461121284623F029FE97
:103A0000E2E70096334632460B21F6E715490848AF
:103A100023F0B1FC26B100973B463A460C21ECE777
:103A20000096334632460121E7E700BFB01103009C
:103A300068E10200DB1103000A120300F512030023
:103A400030000F00181303003A130300391203006B
:103A500077120300B51203006B13030091130300E8
:103A6000C4130300EF130300F7B51C46154BDB7BB3
:103A7000032B04EB02030F4614BF4FF490114FF4D5
:103A80009811B3F5806F0646154606DA7F2C06D8E6
:103A900013460097224623F07FFD03B0F0BD0B0CC8
:103AA0000022094923F06AFE0849234600223046D5
:103AB00023F064FE00972B4600224FF4E8113046B5
:103AC000E9E700BF341E002004001F0008001F00AB
:103AD00070B5094E0C4600223146054623F065FDBF
:103AE000000D0005C4F313030343314628460022AA
:103AF000BDE8704023F042BE080001002DE9F04F00
:103B000091B08407009302F004030293C2F3C2034E
:103B100003F10103DDF86880039205460E46059324
:103B200040F0BA81041D30B1072909D86FF01B009D
:103B300011B0BDE8F08F01F007063444C6F1080665
:103B4000009B4FF00009591E4FF0040A4FF0FF335D
:103B50000193CDF810904F46CB4653460DB1009AD5
:103B600022600598002800F3E8809848009A824275
:103B700003D397488242C0F0E080039AA4EB050E7D
:103B800092074FEA9E0000F103810F2F00F2B180EF
:103B9000002D00F0058107F140020DEB020C019AA7
:103BA0000CF8200C0CF8102C049801300490E7E07D
:103BB0007A285DD84B280ED8472859D829282DD8DF
:103BC000252852D054D820287AD02338D0F1000BA1
:103BD0004BEB000B74E04C382E2849D8DFE800F09E
:103BE0007048484848484848484848484B4848482A
:103BF000484848484859484B4B595959704B6D48AB
:103C00007048184B184848827F4B48484B487F0003
:103C100000204FF0000B4FF0040A38E02A38C0B201
:103C2000012202FA00F010EA0E0F49D110F0625C96
:103C30002FD110EA020B43D06046013C5444B4FB40
:103C4000FAF40AFB04F4002D61D0A3EB050CA444A4
:103C5000B4453FF66BAF002868D1042B47D158F824
:103C6000043B2360043404232AE0019A013A0192C0
:103C70004FF0000B24E011F8010C6C2834D111F83E
:103C8000023C00206C2B8346C5D14FF0080A5346F6
:103C9000D3E708F1070828F007080734F8E802AB73
:103CA00024F0070435B106982044B0423FF63EAFF9
:103CB000C4E900AB08344FF0000B4FF0080A53463C
:103CC00011F8010F002878D0BBF1000F7FF470AF1E
:103CD0002528F5D1019B013301934FF0010B4FF0E3
:103CE000040AECE7584694E700208346A5E7082B32
:103CF00002D06FF015001BE708F1070828F007084D
:103D0000F8E80223C4E9002308340823D8E768B997
:103D1000042B02D108F10408A4E7082BE9D108F12B
:103D2000070828F0070808F10808EDE7059A013AA6
:103D3000059258F8042B009210E7039A900720D5BB
:103D4000A4EB050E4FEA9E004FF0010CBEF5007F7C
:103D5000CFD20F2FCDD8F5B107F140020DEB020EF7
:103D6000C0B2019A0EF8200C0EF8102CBCF1000F16
:103D70003FF41AAF60F07F000EF8200C09F1010942
:103D80000137C5F10802043406924FF6DA7E97E750
:103D90004FF0000CDAE7BCF1000F01D00136EFE77D
:103DA000029802360028EBD10098CDE90631FCF7E5
:103DB000EDFDDDE906310644E2E7631BB3F5806FF4
:103DC00097D23DB9A6F10804E018B1E6D8DB0200AD
:103DD000D0440300029A28609B082B709DF8103095
:103DE000C2B1EB7085F80290B9F1000F05D008A8B8
:103DF0000022C5F1010C97420ED1C5F101030DF16E
:103E000020084FF0000A01930DF1300B574512D1F5
:103E1000601B8DE66B70E5E710F8013B190608D5CD
:103E20000CEB040EB64503F07F033FF67FAE04F8BB
:103E3000013B0132DFE7B9F1000F03D098F9002010
:103E4000002A17DB029BD3B11AF80B2004F8012BD0
:103E50000022019B18191044B0423FF667AE98F853
:103E6000000004F8010B00990392204629F0A4FCFD
:103E7000039A14440AF1010A08F10108C6E798F808
:103E8000002055F822300093029B45F8223000981C
:103E9000FCF77CFD421CDCE76FF00D0048E600BF3C
:103EA0002DE9F04F97B000AF90F802A0D7F880B09E
:103EB0003B62CBF3C0030446FA62BB61894641B959
:103EC000457800780AEB800020444D4517D8A0EBD8
:103ED0000409E378FB61BAF1000F02D01BF0010F77
:103EE00016D1FB6953BBFB6A1BB13A6A49462046AF
:103EF00098474D4628465C37BD46BDE8F08F461CC6
:103F00003046FCF743FD0130304409F10109DCE79C
:103F1000237862687A62FA6A9900796104EB830116
:103F2000002A40F000814D460E4601EB0A094FF091
:103F300000084E454CD101EB0A0610E01BF0020FC1
:103F4000D1D023789A007A6162687A62FA6A04EBC7
:103F50008301002A77D14D4601EB0A0690461BF0FB
:103F6000050F0CBF02230123FB62FB6906EB430A2A
:103F70000BF00203BB625645BCD016F8021B16F8C4
:103F8000013C54F82390994B994502D3984B99459D
:103F900036D3BB69002B40D0786A23F015FE002889
:103FA0003BD0E9468AB06A46924B53617B6AC2E9CC
:103FB00006314FF4007313848F4B42F8103F8F4843
:103FC00000234FF4125100F023FD023DCD46D2E70D
:103FD00016F8013BF96254F82300FCF7D7FCD7F838
:103FE0008430F96A01304BB1D7F8883098453EBF2C
:103FF000D7F8843023F8180008F10108054498E741
:10400000BB6923B1786A23F0DFFD0028C9D11BF01A
:10401000010F05D1FB6AED1AADE7BB6A002BAAD0F0
:104020004846FCF7B3FCD7F8843053B1D7F8883052
:1040300098453FBFD7F88420431C22F8183008F178
:104040000108054497E7BAF1000F72D01BF004068F
:1040500072D0D046002607F1480052463B61B96253
:1040600029F0AAFBB96A3B6901EB0A02BA62FA6954
:10407000F9695200FA60BA6A02EB41023A610BF048
:104080000202BA603A69B96A8A4257D162787A62A2
:104090001BF0020F32440CBF4FEA580100211BF005
:1040A000010FD2B240F09F801BF0040F14BF4046B6
:1040B0000020BB616270A070E1703A6A7969FB6AA6
:1040C00020469847051EFFF615AFBB6923707B6A33
:1040D0006370FB69E37041463A6AFB6A84F802A0A8
:1040E00007F148009847B0F10008C0F2BB807B6937
:1040F0003A6AA9EB0A01C91AFB68C91AD7E90A0387
:1041000098470028C0F2B080A84408EB00054FF0A3
:10411000000B07F1380AB34572D300213A6AFB6AF3
:1041200008469847E6E656464FF0000807F1380083
:1041300093E75646D04697E7B04695E7BA6A12F835
:10414000021BBA6212F8015C284A54F8250090421A
:1041500002D3274A90421ED3BA6932B1786A7B6093
:1041600023F032FD7B6800288CD1BA6802BB08F1CD
:10417000280207F1300C08F10100944407F15802BD
:1041800052FA80F008F102080CF8101C5FFA88F867
:1041900000F8105C76E7BA693AB1786A7B6023F080
:1041A00013FD7B6800287FF46DAF1BF0010F09D071
:1041B00006F1280207F13000711C161806F8205C81
:1041C000CEB25FE71BF0040F3FF45CAF08F12802AA
:1041D00007F1300008F1010102EB000808F8105C5B
:1041E0005FFA81F84EE7002063E700BFD8DB0200EA
:1041F000D04403002C1403000400000150E102002D
:104200001BF80A3087F8373054F82390D7F88430F9
:104210002BB3D7F888309B4521D2D7F8843033F8B8
:104220001B803A6AFB6A012107F137009847002892
:104230001ADB0544B8F1000F06D14846FCF7A6FB8F
:1042400000F101081FFA88F83A6AFB6A41464846BD
:104250009847002808DB05440BF1010B5BE74FF0A2
:104260000008DEE7454645E6054643E6014B186093
:10427000704700BF1C03002080B505460E46174658
:10428000984621F0C3FB034629F09CFCDFF8189008
:10429000044649F80030424630463946A84754F8AB
:1042A000090002F053FD00BF080000002DE9F047AF
:1042B000058B04462807904611D4022905F007050E
:1042C00040F0CC80204623F047FF78B10138218BA5
:1042D000042811D8DFE800F0C2106D85950001298F
:1042E0000CBF45F0100545F02005258388F31188A3
:1042F000BFF36F8FBDE8F08701F0070AAA4500F011
:10430000A5800027B9463E46A368002B00F0BC807C
:1043100041F00801218388F31188BFF36F8FA168F2
:10432000002900F0BA800D68002900F0B680D1F8AD
:104330000480334652462046C047002D76D02B6875
:1043400029461D46F0E701F007035A1F012A1BD832
:10435000002221F00701062B276889B2C4E9002258
:1043600009D13B4603E0628B013262831B68002B5C
:10437000F9D141F002012183204623F0EDFE00280F
:104380007AD041F0200176E0042B0AD121F0070118
:1043900089B22183204623F0DFFE10B141F02001D5
:1043A0002183218B01F0070AAA454FD00027B94687
:1043B000AAE7236921F0070141F00601062DD3F891
:1043C000009021832DD1B9F1000F3FD041F00801B9
:1043D000218388F31188BFF36F8F3A492046C8477D
:1043E00029E021F00701236941F0040189B2042D7D
:1043F000D3F804902183E6D000273E464FF0040A0C
:1044000082E721F00701236941F0050189B2052DFA
:10441000D3F808902183D6D000273E464FF0050AF6
:1044200072E700273E464FF0060A6DE72B4687E706
:10443000B9F1000FD1D1EFF31188202383F3128853
:10444000BFF36F8F238B23F008032383258BEA06AA
:104450002ED525F01003238305F007056669218B0F
:10446000002EBFF670AF00232768C4E9003321F0A7
:10447000070141F001012183218B01F0070AAA45C0
:104480004FF000097FF440AF002F9CD041F00801AD
:10449000218388F31188BFF36F8F002FC8D03D6848
:1044A000394633465246204623F082FE2F46F4E733
:1044B000AB067FF51BAF25F02003238305F007052E
:1044C00000E700BFDD8102002DE9F047DFF85880EA
:1044D000044607464FF0010914B93846BDE8F08795
:1044E00094FAA4F5B5FA85F509FA05F32E0108EB5F
:1044F00005156FEA030A24EA03042B7B002BEBD09B
:1045000058F806301B694BB94644042273682846A4
:10451000196807EA0A0724F00AF8DDE728469847F1
:104520000028D9D1F0E700BF00E2020030B5104901
:10453000104889B0002229F0AEF80F4D0F49002233
:104540000023CDE9062300240E23CDE90334CDE971
:1045500001440B4B00944FF44072284620F078FF42
:104560000849284628F017FF204609B030BD00BF93
:104570008945000020110020980C0020805900205F
:10458000B5480000E0140300014820F01FBC00BF44
:10459000EC0800202DE9F047804621480F4623F023
:1045A000A6FF0646002833D000252846BDE8F08740
:1045B000237B83B12368DB680BB12046984763688F
:1045C00083F8069023681B69D3B9636804221968CD
:1045D000204623F0ACFF013610345445E8D3B8F13F
:1045E000000FE2D0002DDFD02846FFF76DFF054613
:1045F000002FF7D000214FF4A47028F07EFFF1E7E0
:10460000204698470028E0D009FA06F31D43E2E768
:10461000044CDFF814A005464FF00109DDE700BFA8
:10462000841E002000E2020010E20200014B53F859
:1046300020007047BCE5020008B5034608462BB1D0
:10464000044A136000F07AFC002008BD6FF01500EA
:10465000FBE700BF2003002010B5044C237813B9FA
:10466000034820F0B3FB0123237010BD594F0020F5
:10467000EC08002010B504460B4823F038FF5CB16D
:10468000BFF35B8F094B53E8001F013943E8001269
:10469000002AF8D1BFF35B8F054829F008F80548D8
:1046A000BDE8104020F092BB7C1E0020801E002040
:1046B00020110020EC0800200020064BBFF35B8F88
:1046C000014653E8000F43E80012002AF9D1BFF376
:1046D0005B8F70477C1E002070B5FFF7EDFF084C24
:1046E000084E0546B44200D370BD63685B792BB1B8
:1046F00023685B6813B12946204698471034F1E7D8
:1047000000E2020010E2020010B5044C0449204609
:1047100023F0A0FB034B1C6010BD00BF0C08002061
:10472000A8E50200741E00200D4A0E48002310B5B3
:1047300013700D4A13600D4A4FF400411360FFF7E8
:104740007BFFFFF7E1FF0A4B0A4918468B4200D373
:1047500010BD1A1A5C681211013222711033F5E78C
:104760005A4F0020EB8402007C1E0020801E002097
:1047700000E2020010E2020001460022014800238C
:1047800023F089BB0C080020014823F022BC00BFA5
:104790000C080020024B0146186823F06EBC00BFD5
:1047A000741E0020014823F0A3BC00BF0C080020A9
:1047B00070B5294B187800284DD0FFF7E5FF054666
:1047C000002845D1254B264C1B68002B19DD28F00D
:1047D0001BFF4FF47A72A0FB020302FB0131C30BF3
:1047E000D4E9002043EA41439B1A4FEAD13140F219
:1047F000E93261EB0001934271F1000101D3FFF74F
:104800006BFFD4E9003213F57A7342F10002C4E978
:104810000032BDE87040FFF7C5BF63685B7923B124
:10482000236829461B68204698471034B442F4D3C5
:104830002846FFF7AFFFBFF35B8F0A4B53E8001F1B
:10484000013943E80012002AF8D1BFF35B8FB9E7C2
:10485000054C064EEAE770BD594F00207C1E002033
:1048600018110020801E002000E2020010E2020069
:1048700070B50D4D297861B90120FFF78BFE0B4C07
:104880000B4EB44206D3FFF793FF0028FBD1012360
:104890002B7070BD63685B791BB1236820469B68F1
:1048A00098471034EDE700BF5A4F002000E20200A5
:1048B00010E2020000212DE9F0470846FFF76AFEEA
:1048C000044658B340F267684FF0000929F07AF9BE
:1048D0001B4B1C4A1B58136033B11B4B1B68092B25
:1048E00002DD1A4820F072FA194FDFF860A00025A7
:1048F00044B12046FFF7E8FD044618B94FF0FF38F1
:104900004FF0FF39FFF754FF064628B9B5B94246C4
:104910004B46504620F094FA3546E9E74FF0FF3811
:104920004FF0FF39D2E72B689B691BB1002211467B
:10493000284698471035BD42F5D3E8E7054DFAE71C
:1049400008000000781E0020801E0020EC080020D7
:1049500010E2020000E2020013B5184823F0C7FD80
:10496000174B1B7873B1EFF31184202383F3128864
:10497000BFF36F8FFFF71CFF84F31188BFF36F8FB6
:1049800002B010BD0F4B1B68002BF9D050B90022AC
:104990000023CDE900230C484FF40042002321F00E
:1049A00015FBEDE70928EBD1074828F080FE074802
:1049B00002B0BDE8104020F009BA00BF801E002000
:1049C0005A4F0020781E002020110020EC08002003
:1049D00010B5064B1B68044698472146A060044862
:1049E00023F0D8FABDE81040FFF7B6BF200300203F
:1049F0000C080020044A054B9B1AB1EBD30F34BFBF
:104A000052F8310000207047A8E0020000E20200E6
:104A10002DE9F04F8FB004AFC1F34A28B8600D46BE
:104A200091467B600C0DB8F1000F63D0002607F1B2
:104A300014034FF0040B4FF00A0AC7F80C80C7E9C3
:104A400007667E620193CDF808B0CDF800A007F1AB
:104A50001C03F96832464846FFF722FAB0F5006FAA
:104A600003461CD36C468AB0D9F8041004AB264820
:104A7000C3E9050140F2FF71D9611A464FF4007194
:104A80001984224B42F8103F214833464FF412510B
:104A9000FFF7BEFFA5462C37BD46BDE8F08FC0F33B
:104AA0000A0804F11700184420F0070080083B6052
:104AB000FFF762FE68F35325044690B13B68154A40
:104AC000C7E9083600F1100107F11403F961CDE9D7
:104AD00000A3CDF808B0F96807F11C034846FFF7BA
:104AE000DFF968F353257B68B9682A46204623F02E
:104AF0003DFDD0E704F1170020F007008008FFF724
:104B00003BFE0446EDE700BFF5140300040000017E
:104B100088E10200418502002DE9F04F87B0DDE910
:104B20001279DDE9105A0446039193469846BFB1C5
:104B3000CDF800903B46524610210020CDF814904D
:104B4000FEF7DCFFB0F5006F06460AD3184A194895
:104B500040F2FF73022107B0BDE8F04F23F05FBDC4
:104B60003E4605F11700304420F0070004F007042A
:104B70008008FFF701FE0BF0070BE40044EA8B14FA
:104B800044EA462444EA0554054640B13FB1CDF815
:104B900000903B46524631461030FEF7AFFF039976
:104BA00043462246284607B0BDE8F04F23F0DEBC5E
:104BB0003415030088E10200406820B1034BC01A9D
:104BC00040F3CF0070474FF0FF307047A8E002007D
:104BD0000EB403B503AB014653F8042B044801930C
:104BE00002F060FB02B05DF804EB03B0704700BF59
:104BF00081860200CA0605D48B064CBF02490349D0
:104C0000FFF7E6BF704700BF6D1503006C1503008A
:104C10002DE9F04F89B09B46149B06939DF84CA05C
:104C2000159B0593169B179E049304460D469046CC
:104C3000BAF1000F00F09D8006F48073079323F013
:104C400074FC06F00209024600283ED09149204635
:104C5000FFF7BEFF0746B9F1000F08D016F0440F6A
:104C600035D18D492A462046FFF7B2FF074406F0AA
:104C7000010353B1894B8A4953F82A20894B2046B6
:104C8000002A08BF1A46FFF7A3FF06F48073002B23
:104C900049D006F00803002B63D1B8F1000F66D0AD
:104CA000814942462046FFF793FF0546069B3D4457
:104CB000002B6DD1049B002B73D1F30700F1E4802E
:104CC00031462046FFF796FFD8E00746C3E7774B0B
:104CD00018680028CAD0764B4FF47A791B68B5FB68
:104CE000F3F54FF46163B5FBF0F100FB115509FBDF
:104CF00005F54FF03C0CB1FBF3F203FB1211B5FBD1
:104D0000F0FEB1FBFCF300FB1E550CFB131109FB7D
:104D100005F50091B5FBF0F56649CDE901E52046C2
:104D2000FFF756FFA2E706F00803EBB1624B6349B9
:104D300053F82A202046FFF74BFF0546B8F1000F35
:104D400005D0594942462046FFF742FF0544BBF1D2
:104D5000000FABD05A495A462046FFF739FF0544A9
:104D6000A4E74FF0000BE1E706F00805E6E745464B
:104D70009CE7BBF1010F069B06D1002B64D1049B7D
:104D8000002B7BD000250CE0002BF8D04D485CE0D8
:104D90004D48069B4D49224622F0E5FE049B002B20
:104DA00068D0DFF82C81DFF82C91049F3146102F5A
:104DB000204628BF1027FFF71DFF4FF0000B5D4571
:104DC00045DC059B49461A782046FFF701FF4FF066
:104DD000010B1BF0070F03D141462046FFF7F8FEF9
:104DE0005F453BD9059B494613F80B202046FFF74A
:104DF000EFFE0BF1010BBBF1100FEAD13649204653
:104E00004FF0000BFFF7E4FE5A46059B9A5CA2F1B7
:104E100020015F2928BF2E2230492046FFF7D8FE07
:104E20000BF1010BBBF1100F1DD01BF0070F03D1CD
:104E300041462046FFF7CCFE5F455A46E5D841463D
:104E40002046FFF7C5FEEBE71F485546A1E7414660
:104E50002046FFF7BDFE0BF1010BB0E720492046CD
:104E6000FFF7B6FEC5E7059B3B440593049BDB1BA0
:104E700004939AD1BAF1000F7FF41FAF204609B016
:104E8000BDE8F04F23F0EFBB064A05492046FFF787
:104E90009FFE15E77415030078150300CCE50200AA
:104EA000B62303006F1503009D1503008C1E002020
:104EB000881E002081150300E0E50200A115030013
:104EC000A7150300B786020081860200A5720000C4
:104ED000B4150300AC150300B6150300B8150300A4
:104EE000B215030073B542F20F738B4228BF0B4615
:104EF00005680F4A04460521684621F0EFF863680B
:104F00000C495B6806460B22284623F09EFB63682B
:104F10003246694628465B6823F097FB636806497A
:104F20005B681B22284623F090FB02B070BD00BFD7
:104F300027110300D7150300BB150300074A002102
:104F40000123904206D8064A01B901231360054B9C
:104F50001860704740085B000121F2E740420F00F3
:104F6000881E00208C1E0020F8B5074F0D46044611
:104F70004618B44201D12846F8BD14F8011BBB689D
:104F800001485B689847F4E7F8DC0200014B0360D6
:104F90000020704728E60200F0B40C4B0C4E5F6A0C
:104FA0000C4BB34203D36FF08500F0BC70475D68D3
:104FB000BD4209D31C693CB195F802C00579AC45E6
:104FC00002D12346F0BC18472433EAE7BC1E002078
:104FD000980B0020740B00202DE9F047134CDFF8EC
:104FE0005080DFF8509005460E461746444503D3DF
:104FF0006FF08500BDE8F0876268D9F824309A42E6
:1050000012D3A36983B190782979884205D13A46B1
:1050100031462846BDE8F04718475279012A03D1A6
:105020003A463146284698472434DFE7740B00207F
:10503000980B0020BC1E00202DE9F0410B4CDFF83E
:10504000308005460E461746444502D36FF0850072
:1050500009E063690BB92434F6E73A46314628463D
:1050600098470028F7D1BDE8F08100BF740B0020FD
:10507000980B0020024B00221A605A60704700BF54
:10508000771F002070B50B4B0B4CA34201D30020BF
:1050900070BD196A1E7F00220439D5B2AE4201D814
:1050A0002433F2E7013211F832508542F5D1012064
:1050B000EEE700BF740B0020980B002008B5044AEF
:1050C00003460121034823F072FB002008BD00BF06
:1050D0001D160300E8E1020038B5054626F028F960
:1050E00010F1780F044611D10D4A0E482B460221CB
:1050F00023F05DFB284623F05CFB0B4AD2F8C4305A
:1051000023EA0003C2F8C430002407E00028F1D0ED
:10511000064A04482B46012123F049FB204638BDAE
:1051200038160300E8E10200BC1E002059160300F7
:1051300008B509480378C3F341130A3350F8233004
:105140003BB100F1080200F110019847C043C00FC5
:1051500008BD1846FCE700BFBC1E002004282DE94E
:10516000F74FDFF89C9004460F4615D001282FD149
:10517000DFF8908098F8B93053B300F0E9FE224D83
:105180004D4522D22A6A4FF0000A2B7F5FFA8AF639
:10519000B34204D82435F3E7FFF76CFFE8E702EBEE
:1051A000C6060192307926F0C3F88346307923F0A1
:1051B00000FBD8F8C430019A23EA0003BBF1000FCA
:1051C000C8F8C4300AF1010ADFDA002388F8B930E0
:1051D0000D4D4D4508D30B4B1B6A6BB1394620462C
:1051E00003B0BDE8F04F1847EB681BB13A462146C3
:1051F000284698472435ECE703B0BDE8F08F00BFA0
:10520000980B0020BC1E0020740B002073B5C4B2A4
:1052100063060D468DF8074007D02046FFF732FFA2
:10522000B0B1144B93F8BA0090B1124E23468DB131
:10523000114A1248032123F0BAFA9DF8070019F029
:1052400073FFF3691BB10DF1070108209847012096
:1052500002B070BD0A4A0948032123F0A8FA9DF85C
:10526000070019F093FFF369002BF0D00DF107014F
:105270000920EBE7BC1E00207B160300E8E10200DA
:105280008E16030073B5044680788DF800002379EC
:105290006279294D43EA0223ADF80230E37803F046
:1052A00003038DF8043023F084FAD5F8C430184293
:1052B00006460CD0A478204600F02CFE2046FFF7CE
:1052C0000BFF28F062F810B9962020F05DFB6846CD
:1052D00019F0FCFE10F1780F9DF800301BD1174A31
:1052E0001748022123F063FA9DF8000019F08AFFA5
:1052F00010F1780F19D19DF80030124A10480221A0
:1053000023F055FAD5F8C4300120334385F8B900AD
:10531000C5F8C43007E00028E6D00B4A0848012150
:1053200023F045FA002002B070BD0028EAD09DF8B5
:105330000030064AF2E700BFBC1E0020A31603009F
:10534000E8E10200EA160300C61603000A1703008C
:105350002DE9F047A34EB36904460F461546FBB945
:10536000237803F01F03012B00F09D80022B00F037
:10537000048133BB94F900002A686178002834DA8C
:10538000062912D008292BD0D9B9012313705170E6
:1053900096F8C3305B0043F00103137002232AE147
:1053A00098470028DCD100200DE06288100A011F18
:1053B0000129844605D9072803D8716AD2B20C782E
:1053C0001CB96FF01500BDE8F0874E78664503D133
:1053D0009A4200F00B8101332144F0E70B780AE197
:1053E00096F8BA301370012305E101390829E8D88D
:1053F00001A353F821F000BF91540000C3530000F3
:105400009F540000C35300001D540000C35300000C
:10541000C3530000C353000029540000A07819F0C2
:1054200017FE0028BFD0CCE76388756A63BBFFF71F
:1054300021FE638886F8BA30F369002BB3D06A493D
:1054400003209847AFE76B78042B10D0052B11D0C1
:10545000022B04D16F796388BB4208BF01202B78EF
:105460001D442B78002BEED10028AAD0DFE795F859
:105470000380F4E76388BB42F1D1B8F1000FEED1AD
:105480002846FFF7FFFEEAE7FF270020B846E8E7D7
:105490006388012B95D1002386F8C33083E76388A6
:1054A000012B8ED1F8E796F8BA30D5F800C0002B62
:1054B00087D0756AA38894F804E02A4610780028FB
:1054C0003FF47FAF5178022904D192F80480F0456F
:1054D00000F293800244F1E78CF800208CF8012060
:1054E000396060E7154494E00B2A7FF46AAF002727
:1054F0004FF0FF08C146BA4606E06B78042B0FD088
:10550000052B21D02B781D442B78002BF5D1F36986
:1055100013B1514607209847002F7FF444AF50E75E
:1055200095F80280A38895F803909845EAD163889E
:105530009945E7D1B8F1070F1CD806EB0803AA4636
:1055400083F8BB900127DDE7A3884345DAD1A37830
:105550004B450AD0AF78384600F0DCFC3846FFF700
:10556000BBFDB0FA80F77F09CCE72846FFF78AFE3B
:105570000746C7E7AA460027C4E794F900206378E6
:10558000002A18DA002B7FF41CAF24792D686306FB
:105590000AD02046FFF776FD00283FF412AF96F8B8
:1055A000BA30002B3FF40DAF2946204619F00EFE0D
:1055B00000236B70F2E6012B08D0032B7FF401AFC0
:1055C0006388002B7FF4FDAE012103E06188002990
:1055D0007FF4F7AEA088FFF719FE00287FF4E3AE52
:1055E000EFE600BFBC1E0020761F002002282960C5
:1055F0007FF4F4AE4B883B60D5E694F90000627806
:105600000028BFF671AF002A3FF466AF0A2A7FF484
:10561000D8AE2A78002A3FF4D4AE697804297FF402
:1056200061AFA9788B427FF45DAF072B96BF9B19C2
:10563000002393F8BB308CF80030D4E62DE9F84F06
:10564000DFF83CB0DFF83CA005460F46904699468F
:1056500004264B4642463946284619F0FDFD10F116
:105660000B0F044609D12B465A460221504623F01F
:105670009EF820F005F9013EEBD12046BDE8F88FF9
:105680002B170300E8E1020013B5164C237DF3B994
:10569000E268A168019201AB8020FFF7CFFF019A79
:1056A000A3681344A360E3689B1AE3606BB962B11B
:1056B0002369E2889A4208DD94F8C82093FBF2F14E
:1056C00002FB11330BB90123237502B010BD002377
:1056D0001A4619468020237502B0BDE8104019F023
:1056E000BBBD00BFBC1E00207FB500230D4601934B
:1056F0000646002862D100293AD108220B460DEB5C
:10570000020125F02EFE002804DA802019F00CFD9D
:1057100004B070BD2E4C029A2260039A626004F1BC
:105720003802A2609DF90820BDF80E302575002AC8
:10573000C4E903550FDB802B09D9264A26480121ED
:1057400022F064FF802019F0EFFC2846DEE713B159
:10575000C4E90333DCE7FFF7EBFC0028D5D0E2888F
:1057600023699A42D4BFE260E360FFF78DFFCFE781
:10577000174CD4E90212002A01AB05DC024625F0E1
:10578000F0FD0028C4DAC0E725F0EBFD002804DABC
:10579000802019F0C9FC3046B8E7019AA368134489
:1057A000A360E3689B1AE360002BB1D104F13803D6
:1057B000A360FFF7BDFC0028D7D1A6E78028A7D1BA
:1057C000034BDA68002AD0D11B7D002BCDD19FE797
:1057D000BC1E002052170300E8E10200054B064AF8
:1057E0009A62064ADA62064A1A63064A58629A615F
:1057F00000207047BC1E002051530000994F00004C
:1058000039500000D94F00002DE9F34104464C4DBA
:105810004C484FF0FF334FF0FF321FF0DDF995F8A1
:10582000B8306BB1484A4948022122F0EFFE6FF0D0
:10583000770444481FF048FA204602B0BDE8F081E2
:105840006B6A6BB900F0D4F8FFF7C8FF6B6A3BB91D
:105850003F4A3E48012122F0D9FE4FF0FF34E8E7ED
:105860003C482C62E8616E6A19F038FE19F0BEFB04
:10587000041EDEDB00F08EFB041EDADB7378012BE6
:1058800001D1F3793BB9344A3048012122F0BEFE00
:105890006FF01504CDE70026684685F8C830ADF8EE
:1058A00002308DF804608DF8006019F00FFC041EC2
:1058B000BFDB802768468DF8007019F007FC041ED6
:1058C000B7DB2649304619F0F5FD041EB1DB23494C
:1058D000384619F0EFFD041EABDB214CDFF8848065
:1058E00044451AD3002019F08DFC041EA1DBD5F825
:1058F000C430802043F00103C5F8C43019F082FCA5
:10590000041E96DBD5F8C43043F48033C5F8C430A8
:10591000012385F8B83000248BE7276A0026227F10
:10592000F3B29A4201D82434DAE707EBC30257F8FE
:105930003310107919F0BEFD01360028EFD08CE746
:10594000BC1E0020C00800206B170300E8E1020025
:105950008E1703005D510000B3170300E9560000E5
:10596000740B0020980B002030B51F4B8BB005AA9C
:1059700003F1100518685968144603C40833AB4294
:105980002246F7D11B7823701022002101A827F0AE
:105990003BFF12220021154827F036FF102101A8F5
:1059A00025F0E6FD00281BDD0828B8BF08200938CF
:1059B00001AB0E491A18002012F8013F0AAC04EBA3
:1059C000131403F00F0328336B44013014F8144C04
:1059D00013F8143C0C7008284B7001F10201EBD154
:1059E00002480BB030BD00BFED1703005D4F002033
:1059F0002DE9F04F8A4B87B093F800A000AFBAF1C1
:105A0000000F04D087481C37BD46BDE8F08F854C99
:105A100000264FF00119FE603546B04623783BB9A9
:105A2000814B02349C42F3D17D4A01231370E9E794
:105A30006378052B1DD8DFE813F0AF000600F000F7
:105A4000AF001F005000402387F810A07B8287F82A
:105A500014A007F1100019F00DFB40B108237B8260
:105A600007F1100019F006FB08B1A7F812A07B8A15
:105A7000E37123781C44D1E7E378002BF9D1A378B4
:105A800013B3FB680133DBB2FB60F2E76B689C4247
:105A90001CD02435654B9D42F8D36D4688B06A46CC
:105AA000634BC2E90534032342F8103F61480023E9
:105AB0004FF4C251FEF7ACFFAD465E485E4A01218D
:105AC00022F0A4FD00209EE75C4DE3E7AB68002BCD
:105AD000D7D0F96820469847D3E7002D5AD1584AC5
