:10000000002B0020FD1C00002D800000E91C0000DA
:10001000E91C0000E91C0000E91C000000000000D1
:10002000000000000000000000000000C11D0000F2
:10003000E91C000000000000611D0000E91C000038
:10004000811F0000811F0000811F0000811F000030
:10005000811F0000811F0000811F0000811F000020
:10006000811F0000811F0000811F0000811F000010
:10007000811F0000811F0000811F0000811F000000
:10008000811F0000811F0000811F0000811F0000F0
:10009000811F0000811F0000811F0000811F0000E0
:1000A000811F0000811F0000811F0000811F0000D0
:1000B000811F0000811F0000811F0000811F0000C0
:1000C000811F0000811F0000811F0000811F0000B0
:1000D000811F0000811F0000811F0000811F0000A0
:1000E000811F0000811F0000811F0000811F000090
:1000F000811F0000811F0000811F0000811F000080
:1001000053B94AB9002908BF00281CBF4FF0FF317E
:100110004FF0FF3000F00CB8ADF1080C6DE904CEE3
:1001200000F01AF8DDF804E0DDE9022304B07047BE
:10013000704700BF10F8012B11F8013B012A28BFBE
:100140009A42F7D0D01A7047034613F8012B002AC1
:10015000FBD1181A013870472DE9F04786468C46C6
:100160000846089E154674461946002B40F0C2808A
:100170008542B2FA82F245D94AB1C2F1200300FAAF
:1001800002FC2EFA03F3954043EA0C0C94404FEA2C
:10019000154EA8B2BCFBFEF8230C0EFB18CC08FBD6
:1001A00000F943EA0C43994528D9EB1808F1FF37C9
:1001B00004D2994502D9A8F102072B44A3EB090305
:1001C000A4B2B3FBFEFC0EFB1C330CFB00F044EAB4
:1001D0000344A04214D92C190CF1FF3304D2A042DD
:1001E00002D9ACF102032C44241A43EA07401EB1A1
:1001F000D440002334607360BDE8F0874746DDE7F4
:100200006346F1E792BB431B01214FEA154EAFB2A3
:10021000B3FBFEFC200C0EFB1C330CFB07F840EA82
:100220000343984562D9EB180CF1FF3004D298458E
:1002300002D9ACF102002B44A3EB0803A4B2B3FB38
:10024000FEFC0EFB1C330CFB07F744EA0344A742F9
:100250004ED92C190CF1FF3304D2A74202D9ACF1CC
:1002600002032C44E41B43EA0040C0E7C2F1200330
:1002700020FA03F1954090402EFA03F303434FEA2E
:10028000154EAFB2B1FBFEFC0EFB1C10190C0CFBA3
:1002900007F841EA0041884504FA02F422D96918B6
:1002A0000CF1FF3004D2884502D9ACF10200294498
:1002B000A1EB08019BB2B1FBFEFC0EFB1C110CFB79
:1002C00007F743EA01439F420ED9EB180CF1FF31C7
:1002D00004D29F4202D9ACF102012B44DB1B41EA5C
:1002E000004192E76046E3E76146F7E76046A3E72F
:1002F0006346B7E7834206D916B9002108467BE773
:10030000C6E900E0F9E7B3FA83F78FB9834201D376
:10031000724508D8BEEB020460EB030301209C4643
:100320001EB9002168E73846FAE7C6E9004CF8E74D
:10033000C7F1200CBB4022FA0CF41C432EFA0CF13E
:1003400020FA0CF3B84001434FEA14490EFA07F5BE
:10035000B3FBF9F81FFA84FE09FB18300B0C08FBFD
:100360000EFA43EA00439A4502FA07F240D9E3182D
:1003700008F1FF3004D29A4502D9A8F102002344C3
:10038000A3EB0A0389B2B3FBF9F809FB183308FBA6
:100390000EFE41EA03418E452CD9611808F1FF3366
:1003A00004D28E4502D9A8F10203214443EA004059
:1003B000A0FB0298A1EB0E014145CE46434602D375
:1003C00006D14D4504D2B9EB020E68EB04030138A7
:1003D000002EA6D0B5EB0E0261EB030101FA0CFC76
:1003E00022FA07F34CEA0303F940C6E9003198E723
:1003F0004046C5E74346D9E72DE9F04190B036487D
:1004000005F02CFC044638B93349344807F0D4FAD7
:10041000002010B0BDE8F08108F0D0FA18B93048DB
:1004200007F0CAFAF4E70020029000F063FD0146ED
:100430000028EDD1012301AACDE9052303AACDE9C6
:10044000072305AACDE909238DF800008DF80400E3
:100450000E220DF132000493CDF80CD008F031FEDD
:10046000204B0B93204D4FF48173ADF83030029B3D
:10047000CBB11E4D1E4E1F4FA36807AAD3F80080B4
:100480000BA909AB2046C047D0B11B48294607F04D
:1004900093FA1A48294607F08FFA00214FF40040DA
:1004A00008F0C9FCE8E7AB689B6C1BB102AA042109
:1004B00028469847002140F6CD4008F0BCFCD6E71E
:1004C0009DF800109DF8042030462B4607F074FA82
:1004D00029463846DFE700BFE8950000EE950000AA
:1004E0000796000000127A007C9200001D96000022
:1004F00037960000539600002196000030960000C9
:10050000014B1B68184700BFB0000020014B18606A
:10051000704700BFB000002030B585B004460D46DE
:1005200010220021684608F0CCFD02238DF802302D
:100530002A46044B01932146684606F013FE05B097
:1005400030BD00BF0105000080B505460E461746C8
:10055000984606F045FB034608F01EFEDFF81890AB
:10056000044649F80030424630463946A84754F818
:10057000090001F0DFFB00BF080000002DE9F04793
:10058000058B04462807904611D4022905F007057B
:1005900040F0CC80204607F037FA78B10138218B43
:1005A000042811D8DFE800F0C2106D8595000129FC
:1005B0000CBF45F0100545F02005258388F3118810
:1005C000BFF36F8FBDE8F08701F0070AAA4500F07E
:1005D000A5800027B9463E46A368002B00F0BC80EA
:1005E00041F00801218388F31188BFF36F8FA16860
:1005F000002900F0BA800D68002900F0B680D1F81B
:100600000480334652462046C047002D76D02B68E2
:1006100029461D46F0E701F007035A1F012A1BD89F
:10062000002221F00701062B276889B2C4E90022C5
:1006300009D13B4603E0628B013262831B68002BC9
:10064000F9D141F002012183204607F0DDF90028AD
:100650007AD041F0200176E0042B0AD121F0070185
:1006600089B22183204607F0CFF910B141F0200173
:100670002183218B01F0070AAA454FD00027B946F4
:10068000AAE7236921F0070141F00601062DD3F8FE
:10069000009021832DD1B9F1000F3FD041F0080126
:1006A000218388F31188BFF36F8F3A492046C847EA
:1006B00029E021F00701236941F0040189B2042DEA
:1006C000D3F804902183E6D000273E464FF0040A79
:1006D00082E721F00701236941F0050189B2052D68
:1006E000D3F808902183D6D000273E464FF0050A64
:1006F00072E700273E464FF0060A6DE72B4687E774
:10070000B9F1000FD1D1EFF31188202383F31288C0
:10071000BFF36F8F238B23F008032383258BEA0617
:100720002ED525F01003238305F007056669218B7C
:10073000002EBFF670AF00232768C4E9003321F014
:10074000070141F001012183218B01F0070AAA452D
:100750004FF000097FF440AF002F9CD041F008011A
:10076000218388F31188BFF36F8F002FC8D03D68B5
:10077000394633465246204607F072F92F46F4E7D1
:10078000AB067FF51BAF25F02003238305F007059B
:1007900000E700BF8D7A0000014B03600020704726
:1007A000E8940000F0B40C4B0C4E5F6A0C4BB34263
:1007B00003D36FF08500F0BC70475D68BD4209D37C
:1007C0001C693CB195F802C00579AC4502D12346BD
:1007D000F0BC18472433EAE7D80600203403002091
:1007E000100300202DE9F047134CDFF85080DFF8AC
:1007F000509005460E461746444503D36FF08500DA
:10080000BDE8F0876268D9F824309A4212D3A36910
:1008100083B190782979884205D13A4631462846F5
:10082000BDE8F04718475279012A03D13A463146CC
:10083000284698472434DFE71003002034030020C3
:10084000D80600202DE9F0410B4CDFF8308005463A
:100850000E461746444502D36FF0850009E06369F0
:100860000BB92434F6E73A46314628469847002823
:10087000F7D1BDE8F08100BF100300203403002051
:1008800010B5044607F041FC10F1780F00D050B9C4
:10089000054A204607F060FAD2F8C43023EA000384
:1008A000C2F8C430002010BDD8060020024B002240
:1008B0001A605A60704700BF9307002070B50B4B59
:1008C0000B4CA34201D3002070BD196A1E7F002289
:1008D0000439D5B2AE4201D82433F2E7013211F81F
:1008E00032508542F5D10120EEE700BF1003002011
:1008F0003403002008B509480378C3F341130A33D1
:1009000050F823303BB100F1080200F11001984784
:10091000C043C00F08BD1846FCE700BFD806002042
:1009200004282DE9F14FDFF8989004460F4616D0C1
:1009300001282DD1DFF88C8098F8B93043B300F04E
:10094000FFFD214D4D4520D2D5F820B04FF0000AD3
:100950002B7F5FFA8AF6B34204D82435F2E7FFF71B
:10096000A5FFE7E70BEBC6060AF1010A307907F0AD
:10097000CCFB0246307907F0EFF9D8F8C430002AF2
:1009800023EA0003C8F8C430E2DA002388F8B9305B
:100990000D4D4D4508D30B4B1B6A6BB139462046B4
:1009A00001B0BDE8F04F1847EB681BB13A4621464D
:1009B000284698472435ECE701B0BDE8F08F00BF2A
:1009C00034030020D80600201003002073B5C4B201
:1009D00063060D468DF8074007D02046FFF76EFFEF
:1009E00078B10D4B93F8BA0058B10B4E204655B173
:1009F00002F03CF8F3691BB10DF10701082098479C
:100A0000012002B070BD02F059F8F369002BF7D055
:100A10000DF107010920F2E7D806002073B58678AA
:100A20008DF80060037942791C4C43EA0223ADF84B
:100A30000230C378304603F003038DF8043007F02A
:100A40008BF9D4F8C430184205460BD0304600F07C
:100A500059FD3046FFF714FF08F04DF910B9962004
:100A600006F07CF8684601F0DDFF10F1780F03D046
:100A700010B1002002B070BD9DF8000002F05AF8DD
:100A800010F1780F01D00028F3D1D4F8C430012040
:100A90002B4384F8B900C4F8C430EBE7D806002033
:100AA0002DE9F047A34EB36904460F461546FBB93E
:100AB000237803F01F03012B00F09D80022B00F030
:100AC000048133BB94F900002A686178002834DA85
:100AD000062912D008292BD0D9B9012313705170DF
:100AE00096F8C3305B0043F00103137002232AE140
:100AF00098470028DCD100200DE06288100A011F11
:100B00000129844605D9072803D8716AD2B20C7826
:100B10001CB96FF01500BDE8F0874E78664503D12B
:100B20009A4200F00B8101332144F0E70B780AE18F
:100B300096F8BA301370012305E101390829E8D885
:100B400001A353F821F000BFE10B0000130B0000DC
:100B5000EF0B0000130B00006D0B0000130B0000E7
:100B6000130B0000130B0000790B0000A07801F0BC
:100B700047FF0028BFD0CCE76388756A63BBFFF7E7
:100B800095FE638886F8BA30F369002BB3D06A49C2
:100B900003209847AFE76B78042B10D0052B11D0BA
:100BA000022B04D16F796388BB4208BF01202B78E8
:100BB0001D442B78002BEED10028AAD0DFE795F852
:100BC0000380F4E76388BB42F1D1B8F1000FEED1A6
:100BD0002846FFF723FFEAE7FF270020B846E8E7AB
:100BE0006388012B95D1002386F8C33083E763889F
:100BF000012B8ED1F8E796F8BA30D5F800C0002B5B
:100C000087D0756AA38894F804E02A4610780028F3
:100C10003FF47FAF5178022904D192F80480F04567
:100C200000F293800244F1E78CF800208CF8012058
:100C3000396060E7154494E00B2A7FF46AAF00271F
:100C40004FF0FF08C146BA4606E06B78042B0FD080
:100C5000052B21D02B781D442B78002BF5D1F3697F
:100C600013B1514607209847002F7FF444AF50E757
:100C700095F80280A38895F803909845EAD1638897
:100C80009945E7D1B8F1070F1CD806EB0803AA462F
:100C900083F8BB900127DDE7A3884345DAD1A37829
:100CA0004B450AD0AF78384600F02CFC3846FFF7A9
:100CB000E7FDB0FA80F77F09CCE72846FFF7AEFEE4
:100CC0000746C7E7AA460027C4E794F900206378DF
:100CD000002A18DA002B7FF41CAF24792D686306F4
:100CE0000AD02046FFF7EAFD00283FF412AF96F83D
:100CF000BA30002B3FF40DAF2946204601F0FEFE2E
:100D000000236B70F2E6012B08D0032B7FF401AFB8
:100D10006388002B7FF4FDAE012103E06188002988
:100D20007FF4F7AEA088FFF751FE00287FF4E3AE12
:100D3000EFE600BFD80600209207002002282960B5
:100D40007FF4F4AE4B883B60D5E694F900006278FE
:100D50000028BFF671AF002A3FF466AF0A2A7FF47D
:100D6000D8AE2A78002A3FF4D4AE697804297FF4FB
:100D700061AFA9788B427FF45DAF072B96BF9B19BB
:100D8000002393F8BB308CF80030D4E613B5164C32
:100D9000237DF3B9E268A168019201AB802006F0DF
:100DA000E9FF019AA3681344A360E3689B1AE36018
:100DB0006BB962B12369E2889A4208DD94F8C820D1
:100DC00093FBF2F102FB11330BB90123237502B03F
:100DD00010BD00231A4619468020237502B0BDE8D5
:100DE000104001F0D1BE00BFD806002030B585B05C
:100DF000002302460D460193002858D1002935D121
:100E000008220B460DEB020107F098F9002804DADE
:100E1000802001F02BFE05B030BD2A4C029A2260E2
:100E2000039A626004F13802A2609DF90820BDF8BF
:100E30000E302575002AC4E903550ADB802B04D93E
:100E4000802001F013FE0020E3E713B1C4E903336F
:100E5000E1E7FFF74FFD0028DAD0E28823699A42E4
:100E6000D4BFE260E360FFF791FFD4E7154CD4E90B
:100E70000215002D01AB04DC07F060F90028CADA86
:100E8000C6E72A4607F05AF90028D9DB019AA36879
:100E90001344A360E3689B1AE360002BBBD104F109
:100EA0003803A360FFF726FD0028DCD1B0E78028D7
:100EB000B1D1044BDA68002AD5D11B7D002BD2D1E9
:100EC000A9E700BFD8060020054B064A9A62064AE9
:100ED000DA62064A1A63064A58629A61002070472D
:100EE000D8060020A10A0000A50700004508000060
:100EF000E50700002DE9F3410446474D47484FF010
:100F0000FF334FF0FF3205F04BF895F8B830002B67
:100F10007BD16B6A83B142482C62E8616E6A01F052
:100F20004DFF01F03BFD041E10DA3C4805F0B0F81F
:100F3000204602B0BDE8F08100F0BEF8FFF7C4FF24
:100F40006B6A002BE7D14FF0FF34EEE700F01AFB9D
:100F5000041EEADB7378012B5AD1F379002B57D0AA
:100F60000026684685F8C830ADF802308DF8046078
:100F70008DF8006001F056FD041ED6DB8027684620
:100F80008DF8007001F04EFD041ECEDB2549304681
:100F900001F000FF041EC8DB2249384601F0FAFECA
:100FA000041EC2DB204CDFF8848044451AD30020A5
:100FB00001F0C0FD041EB8DBD5F8C430802043F03A
:100FC0000103C5F8C43001F0B5FD041EADDBD5F852
:100FD000C43043F48033C5F8C430012385F8B830F9
:100FE0000024A2E7276A0026227FF3B29A4201D8A2
:100FF0002434DAE707EBC30257F83310107901F015
:10100000C9FE01360028EFD09DE76FF077048CE72A
:101010006FF0150489E700BFD806002014020020F5
:1010200021090000ED0D0000100300203403002012
:1010300030B51F4B8BB005AA03F11005186859682D
:10104000144603C40833AB422246F7D11B78237001
:101050001022002101A808F034F8122200211548BE
:1010600008F02FF8102101A807F06BF900281BDD0C
:101070000828B8BF0820093801AB0E491A1800200B
:1010800012F8013F0AAC04EB131403F00F032833EA
:101090006B44013014F8144C13F8143C0C700828FD
:1010A0004B7001F10201EBD102480BB030BD00BF23
:1010B00058960000551400202DE9F04F724B93F81C
:1010C00000B087B0BBF1000F03D0704807B0BDE897
:1010D000F08F6E4C00264FF0011AB0463546B146EF
:1010E00023783BB96A4B02349C42F3D1664A012310
:1010F0001370EAE76378052B1BD8DFE803F08E0353
:10110000C38E1D39402304A88DF810B0ADF81230FD
:101110008DF814B006F0E4FF40B1082304A8ADF840
:10112000123006F0DDFF08B1ADF812B0BDF8123094
:10113000E37123781C44D3E7E378002BF9D1A3783B
:101140006BB108F101085FFA88F8F2E76B689C421E
:1011500007D024354F4B9D42F8D30020B6E74E4DC3
:10116000F8E7AB68002BECD0414620469847E8E70B
:10117000002DF2D000222B7F9A42EED2296AA0786D
:1011800001EBC2010B79984201D00132F3E701274C
:10119000E07800F003008DF81400207994F805C081
:1011A00040EA0C20ADF8120094F902000028FBB2CE
:1011B00028DA07F110004FF0010C0CFA00F010EAE9
:1011C0000A0F26D143F080008DF8100004A8CDE965
:1011D0000213019206F084FFDDE90121039BC0B9EF
:1011E0009DF81020A27012F0800F18BF10330A7102
:1011F00018BFDBB24FF0010214BF9A40BA404AEA6E
:10120000020A96E70120B84010EA0A0F01D11846F9
:10121000DAE70137102FBBD1B7E7032E1AD1FFF75A
:1012200007FF074650B1FEF78FFF024630B1102886
:10123000A8BF10223946A01C07F035FF23786FF0B5
:101240000201E218091B04EB5303D14213D5013606
:10125000F6B26EE7002EF1D1B9F1000F3FF47DAF89
:10126000A4EB090389F80230C3F3072389F803309C
:1012700089F80480EBE702F801BC13F8010902F8D1
:10128000020DE2E7A14654E7541400204802002072
:101290000F030020340300201003002010B5094B79
:1012A00000211A461C78844204D15C6814B102EB18
:1012B000811010BD0131042903F14003F2D1002057
:1012C000F7E700BFA40700202DE9F34150F8283CC0
:1012D00010F82C6C103304460AD1036950F8202C06
:1012E000980736D5D2B9590715D5002344F8283CBC
:1012F00054F8283C10330BD054E9077554F8148C7B
:1013000007F0F9FC00284FD02E48214607F0D7FC03
:1013100002B0BDE8F08143F00403236154F8241CBB
:1013200001AB304606F026FD10B16FF01503DDE786
:10133000019A54F8243C134444F8243C54F8203CCB
:101340009B1A44F8203C54F81C3C134444F81C3CC1
:10135000CEE754F8241C01AB304601F091FC002884
:10136000E3D1019D54F8243C2B4444F8243C54F828
:10137000203C5B1B44F8203C54F81C3C2B4444F8B4
:101380001C3C002DB1D0304601F01EFDB5FBF0F342
:1013900003FB1055002DA8D154F8203C002BA4D0FD
:1013A000304601F0B5FCA3E744F8180CA4F1100096
:1013B00004F0F0FE002DABD0424639463046A84737
:1013C000A6E700BF380300204B1E012B73B506466D
:1013D0000D460FD8FFF762FF044668B9012D09D109
:1013E00001AB01220DF10301304601F049FC019BE4
:1013F000002BF5D102B070BD07F07DFC04F12C018B
:1014000008B1012D05D1084602B0BDE87040FFF7D4
:101410005BBF034802B0BDE8704007F050BC00BF9E
:10142000380300202DE9F74F0646019115469846EE
:1014300006F0E8FC044600285BD1EFF3118A202374
:1014400083F31288BFF36F8FDFF8ACB00022002364
:10145000584604F0D3FE70B9DFF8A090A70109EB5D
:101460008414636813F1100F14D10193584604F0EB
:1014700091FE019B06E00134042C0BF1400BE5D1F9
:101480006FF00B038AF31188BFF36F8F184603B018
:10149000BDE8F08F019B2061C4E902350C9B6361BC
:1014A0000D9BA36130466FF00F0309F80760C4F885
:1014B0003C80636001F088FC58B1304601F084FC48
:1014C000B5FBF0F303FB10551DB1E36B43F00403D0
:1014D000E36318F0020F07D007F12C0108484944D4
:1014E00007F0EDFB0023CDE7304601F011FC034689
:1014F000C8E76FF00F03C9E7C0070020A40700206A
:101500003803002010B5EFF31184202383F31288F1
:10151000BFF36F8FFFF7C2FE50B14368103307D19E
:101520006FF08B03436000F12C01044807F0C7FB08
:1015300084F31188BFF36F8F10BD00BF3803002004
:10154000F8B50E4C04252027EFF3118687F3128897
:10155000BFF36F8F6368103307D16FF08B030848B8
:10156000636004F12C0107F0AAFB86F31188BFF336
:101570006F8F013D04F14004E6D1F8BDA4070020BF
:101580003803002070B50A4C0A4E0025314620462B
:1015900007F079FB0122A4F110001146013507F094
:1015A00036FB042D04F14004F0D1002070BD00BFD3
:1015B000D0070020C91200000169012381F84B30D7
:1015C0000B6833B191F849301BB10248083107F07C
:1015D00076BB7047380300200169012381F84A3047
:1015E0000B6833B191F848301BB10248083107F05D
:1015F00066BB70473803002070B50569EFF31186AC
:10160000202383F31288BFF36F8FD5F8900006F084
:1016100060FB044686F31188BFF36F8F30B1044836
:101620000022002305F1180104F086FF204670BD5A
:101630003803002070B5012382F8483013680D4646
:1016400014463BB192F84A3023B10E4802F108012A
:1016500007F035FBD4F890305A89DB889A4205D1DF
:101660007DB904F1180140F6CD4204E004F11801FF
:10167000002DF8D00022BDE870400248002304F09D
:101680005BBF70BD3803002070B504460E4601797B
:101690001548154606F092FB10B394F900206378C4
:1016A000002A16DB202B04D0222B0ED06FF08500F1
:1016B0000AE02B681A6840F8102C9A8820F80C2C45
:1016C0009B7900F80A3C002070BD638800F8093C53
:1016D000F9E7212BEAD11038072328603360F2E7BD
:1016E0006FF01200F0E700BFA408002008B5014623
:1016F000034806F071FB10B1012300F8073C08BD58
:10170000A40800200D4A03460021A0F848101068E4
:10171000C3F8940090889279A3F8980083F89A20EF
:1017200083F89C1083F89B10A3F89E1083F8A010F8
:10173000402203F14C0007F0C4BC00BFD894000065
:1017400010B504690023C4F8A8300C4BC4F8A400F9
:10175000596804F1A80269B9C3E9002204F108003C
:10176000074907F090FA04F11800064907F0B7FAA4
:10177000002010BD0A605A60F0E700BFA4080020F6
:101780002F7E00003D18000030B54FF40033426852
:1017900005690D4C85B042F2A100CDE9010300239B
:1017A00085F89D30106AADF80C1000790A2201A965
:1017B00006F0E0FA95F89D3023B9012007F0F9F81A
:1017C000013CF7D105B030BDA186010073B50469B5
:1017D0008DF80710002384F848302025EFF3118698
:1017E00085F31288BFF36F8F0122D4F890000DF1BA
:1017F000070106F06EFA86F31188BFF36F8F012898
:101800000AD007F078FA10B994F8A1306BB9094BF7
:101810001A780AB901221A702122002304F1180152
:10182000054804F089FE02B070BD0021212007F0B8
:1018300002FBD3E76714002038030020F0B5D0F88E
:101840008C305B681B6A1F7D85B00546384606F004
:10185000D9FA064650BB95F886303BB3A86F0146CF
:10186000C38831F80A2F9B1A9BB2B3F5806F28BF4B
:101870004FF4806303AA06F0DDF90446B0B1830695
:10188000A5F1180308BF00F1FF3485F8306001931B
:10189000074B03990093224602233846FFF7C2FD07
:1018A000A86F224600F10A0106F0FAF905B0F0BD72
:1018B0003516000037B514460A1E054621DDD4F85A
:1018C0008C0004F14C0106F004FA012384F849303D
:1018D00023683BB194F84B3023B1114804F108015F
:1018E00007F0EDF9D4F88C209388918912695B1A7E
:1018F0009BB2D31A3F2B04D8012384F8A03003B045
:1019000030BD94F89E30002BF9D0064B0093019423
:101910000123402204F14C012846FFF783FDEEE746
:1019200038030020B5180000F7B50D4601461D48E4
:1019300006F038FA044610B30646691E56F8A43974
:101940005F6805291BD8DFE801F01C1A031C22265A
:1019500010F8061C99B9012300F8063C3B6A324690
:10196000187BFFF7A7FF14F85C2C42B93B6A187D7F
:101970000D4B0093019602231146FFF753FD03B070
:10198000F0BD304603B0BDE8F040FFF7BBBE012319
:1019900004F8053CF3E710F8053C002BEFD00023DA
:1019A000F6E700BFA40800203516000037B5094D42
:1019B0000949002400944FF0FF334FF48062284619
:1019C00004F07CFD0549284607F09BF9204603B04A
:1019D00030BD00BF38030020C014002077960000FF
:1019E00030BFFFF7FDBF00BF2DE9F0410B4EDFF820
:1019F000308006EB0807CC1B0546324609492046D5
:101A000007F051FBA01942460021083C07F059FBA2
:101A10002C6707F10800BDE8F08100BF000000005E
:101A200004000000D0940000054B5A699B689A425C
:101A30001FBF044A536843F080535360704700BF90
:101A40001C14002000ED00E070B5264B15469A6A84
:101A500012F0100F9A6A14BF1124102412F0080F0C
:101A60009A6A18BF1224920706460AD5586B9A6ADA
:101A7000140634D519B19A6A22F080029A621324AE
:101A800001E06FF01500174B9A6A12F0010F9A6A85
:101A900018BF142412F0200F9A6A18BF1524D2061A
:101AA00002D49B6A9B070AD50E4B5B68190506D5C5
:101AB000314600F01FFA10B180F309880224094B67
:101AC0009A6A920642BF5A6A22F400525A629A6A8D
:101AD00042F0FF029A6200232B70204670BD6FF027
:101AE0001500CCE700ED00E0134B9A6A12F0007F7E
:101AF0009A6A14BF1E201D2012F0807F9A6A18BFB8
:101B00001F2012F4002F9A6A18BF212012F4802F90
:101B10009A6A18BF222012F4003F9A6A18BF232045
:101B200012F4803F9A6A6FEA02426FEA12429A62A6
:101B300018BF2420704700BF00ED00E010B5194B1E
:101B40000246986A9C6A10F4805F14BF1720162022
:101B500014F4006F9C6A18BF1820A40509D5986B6F
:101B6000986A000404D51AB19A6A22F400429A6273
:101B700019200C4B9A6A12F4806F9A6A18BF1A20C7
:101B8000D2050CD49B6A13F4005F18BF1C20054AD1
:101B9000936A43F47F43936200230B7010BD1B20B4
:101BA000F5E700BF00ED00E0F0B5484B5B688BB097
:101BB0000446C3F30803002585F31188BFF36F8F34
:101BC00002F07F40B0F17F4F11D102F00C000828E5
:101BD0000DD010074CBF0C4601250022033B8DF8A9
:101BE0000720032B05D8DFE803F0246367602C4649
:101BF000F3E700239DF80720CAB902AE04F12007DD
:101C000020686168324603C20834BC421646F7D1E8
:101C1000099A002D54D0C2F3080121B96FEA52226B
:101C20006FEA4222099202A9184606F0F5F90BB0B4
:101C3000F0BD264BDA6A9107DBD4DA6A002AD8DBDA
:101C4000DA6A5200D5D55A69A16942F480725A61A4
:101C5000BFF34F8FBFF36F8F5A6931F8021C22F424
:101C600080725A61BFF34F8FBFF36F8F4DF60272D0
:101C700091420AD09A6AD2B24AB10DF1070201210B
:101C80002046FFF7E1FE0346B4E72368B2E79A6A0D
:101C900012F47F4F05D00DF107010120FFF74EFF31
:101CA000F1E79B6AB3F5803FA3D3FFF71DFFEAE797
:101CB0000DF107020021E3E70DF107010020EDE738
:101CC00022F4FF7222F00102ACE700BF00ED00E059
:101CD000044B5A6942F010025A615A6922F0080214
:101CE0005A61704700ED00E0EFF30880EFF30981DF
:101CF00001B57246FFF758FF01BD00BF0B4880F3E6
:101D0000088802F0E7FE202080F3118808484FF48D
:101D10000461401880F30988EFF31480022108431E
:101D200080F31488BFF36F8F00F0A4F8002B00201D
:101D3000401D0020084B9B6883420BD1EFF30583C5
:101D400043B1064B5A6842F080525A605A6A22F4F4
:101D500000425A6204F04ABF1C14002000ED00E06B
:101D600014498A684FF030001044EFF3098C80E882
:101D7000F01F202080F31288BFF36F8F0E4F4FF0BB
:101D800000664A698A603E60106F0C4C2060506F9C
:101D90000023536780F3118804B5104600F00EF954
:101DA000BDE8044002F1300090E8F01F8CF3098890
:101DB000704700001C14002004ED00E0AC08002077
:101DC0001EF0040F0CBFEFF30880EFF30980816968
:101DD00011F8021C0229FFD001B5724606F022F963
:101DE00001BD00BF40B2002807DB044A41090123BE
:101DF00000F01F00834042F82130704700E100E00E
:101E000040B200280CDB4309064900F01F002033D4
:101E10000122824041F82320BFF34F8FBFF36F8F21
:101E2000704700BF00E100E0054B420900F01F00D1
:101E300053F82220012303FA00F01040704700BF3E
:101E400000E100E040B20028A8BF00F1604001F1CD
:101E50000101B8BF064B4FEA4111ACBF00F561402C
:101E600000F00F00C9B2B4BF195480F800137047D6
:101E700014ED00E00F4A08B50F4B22F07F029A6084
:101E8000BFF34F8FBFF36F8FD3F8882022F4700217
:101E9000C3F88820EFF3148323F0040383F314883A
:101EA000BFF36F8F03F090FF04F0D4FF00F05CF8F5
:101EB00003F0CEFF0000000000ED00E042F8203CFF
:101EC000009B42F81C3C0A49019B42F8183C029BCB
:101ED00042F8143C21F001014FF0807342F8043CB9
:101EE00042F8081C0023203A02654367704700BF90
:101EF00049050000094A0346906870B113F1160FB6
:101F0000006E05D0A0F140029A4205D8834203D268
:101F1000814228BF00207047002070471C14002019
:101F200008B51546094A0A4B9060026F1A600E46C2
:101F300000F044F82C4686F309880020054B9847AA
:101F40002046002100220023034C20471C140020BF
:101F5000AC0800204380000049050000014B10221E
:101F60001A61704700ED00E0044800232021C218E8
:101F70000133302B82F80013F9D1704700E100E003
:101F800008B5EFF30583064A103B02EBC30152F894
:101F9000330049688847BDE80840FFF745BD00BFEA
:101FA000BC920000024B034A0348012100F076B8BE
:101FB0000000022000000020E8940000026E054BA3
:101FC000403A1A60044A4021C3E90112184601212F
:101FD00000F06EB8B008002000000B15084AC2F8E7
:101FE00098000B6823F01F03034343F01003C2F86B
:101FF0009C308B6843F00103C2F8A030704700BFEB
:1020000000ED00E02DE9F043DFF8608085B00E467A
:102010001F4604464FF00009B14523DA6068D8B185
:102020003FB1411E08421BD11F2819D9236819420C
:1020300016D12368019306F027F8A368034303939E
:10204000D8F89050C5F30725D0B2013DA84207D873
:1020500001A9FFF7C3FF421C09F101090C34DBE7BA
:102060006FF01502104605B0BDE8F08300ED00E00A
:10207000044B0522C3F89420BFF34F8FBFF36F8F3B
:10208000704700BF00ED00E0BFF35F8F024B0022FE
:10209000C3F89420704700BF00ED00E010B5034C7A
:1020A00001232278FFF7AEFF207010BD68140020D6
:1020B00008B50B4A00231278FFF7A4FF10F1160FA2
:1020C00007D0084A0021D2F89030C3F30723984282
:1020D00000DB08BDC2F89800C2F8A0100130F2E79A
:1020E0006814002000ED00E02DE9F043534B544C00
:1020F000D3F890302568C3F307239D4285B000F2E2
:102100009A80FFF7C1FF00200C2685421AD14D4C62
:102110004D4F25706846FEF73FFBDFF82081DFF862
:102120002C9106460025AE4213D123784349002066
:10213000D1F89020C2F30722934276DBFFF798FF95
:10214000002042E0616806FB0011FFF747FF013005
:10215000DBE7009800EB05114FEA051CCB683B401C
:10216000B3F5000F48D00AD8B3F5001F30D0B3F54F
:10217000800F36D0B3F5801F10D00135D3E7B3F10F
:10218000807F42D0B3F1007FF7D150F80C308868DF
:102190004A6805F079FF40F4802009E050F80C30DF
:1021A00088684A6805F070FF40F0885040F430209D
:1021B000CDE901230390D8F890302078C3F30723AA
:1021C000013B98422AD96FF0150005B0BDE8F083B5
:1021D00050F80C3088684A6805F056FF40EA09005C
:1021E000E6E750F80C3088684A6805F04DFF40F08B
:1021F000E06040F40030DBE750F80C3088684A6853
:1022000005F042FF40F08270D2E750F80C30886849
:102210004A6805F039FF40F08870C9E701A9FFF767
:10222000DDFE237801332370A7E7C1F89830C1F8A9
:10223000A00001337CE74FF0FF30C6E700ED00E07F
:10224000F4940000681400200000F0FF0000081162
:1022500008B5024B1B689847002008BDBC08002049
:10226000034B044A1860937843F00203937070475D
:10227000BC080020F400002008B50649064821F0FB
:102280000701C1F1005202F5003205F056FB0020B3
:1022900008BD00BF073A0020C0080020024B012201
:1022A000C3F840250020704700E0014020B1034BF7
:1022B000800143F001031847704700BFE09400001D
:1022C000020600F07F0312D5082B05D1010700F0AC
:1022D0000F0306D50E48704710F0780F12D100F0AA
:1022E0000F034C2000EB43100A4B18447047082B97
:1022F00005D1020700F00F0306D50748704710F01C
:10230000780FF6D000207047044800EB4310704768
:10231000180A0020CC080020380B0020380A0020C2
:102320000149024806F0CBBCF4080020D803002085
:102330000146014806F060BC380200200248002235
:10234000002303F0F5BE00BF3802002013B5124889
:1023500000F06CFE114B98421AD1114803F046F977
:102360000024104803F06CF90F49104800944FF016
:10237000FF334FF4806204F0A1F80D490B4806F0DA
:10238000C0FC0C480C4906F07EFC204602B010BD93
:102390006FF00400FAE700BFA12500000000AD0BBC
:1023A0009D9600001495000000190020D80300201D
:1023B0008F960000F4080020BD26000010B50E49DD
:1023C000BFF35B8F002351E8002F012A03D141E8BE
:1023D00000300028F7D1BFF35B8F0CD151F8044CCB
:1023E0001439204605F0EDFB783004D12046BDE8D5
:1023F000104005F0C2BB10BDEC08002038B5002429
:1024000064F07F00C0B2FFF75BFF013405F051FEBE
:10241000082CF5D10E4D0024E0B2FFF751FF0369FF
:1024200003B90561013405F044FE082C05F14005AF
:10243000F2D1084805F03DFE074BD3F87C2212B9D3
:10244000064AC3F87C22064805F033FE002038BD5A
:102450005C0F0020180A0020CC0800205C0B002034
:10246000380B002010B5054CFFF768FF20B141681C
:10247000204606F0EFFAF7E710BD00BFF801002094
:1024800007B500230E48002201A903F05BFD90B1BF
:10249000FFF7E8FF0A480022002301A903F052FDDC
:1024A00038B90198042340600374FFF741FFFFF738
:1024B00037FF002001E00198406003B05DF804FBA5
:1024C000F8010020022810B511D8094B1C5CFFF759
:1024D000D7FF60B1002202740472FFF729FF054B99
:1024E00093F824301BB1BDE81040FFF719BF10BDB1
:1024F0009A960000CC080020F8B587780646384642
:10250000FFF7DEFE3B06F578044612D5002D43D1D9
:10251000FFF7B6FF034600283ED00122A5770274DC
:10252000032202739C60FFF703FFBDE8F840FFF74A
:10253000F7BE4DB1012D2FD1FFF7A2FF034658B3CF
:10254000657705740573EDE7FFF79AFF20B3B2785E
:10255000124B12F0800F02F0080111D041B1D3F8F4
:10256000A836E36001230374022303738460DAE76F
:1025700002F00F02142101FB0233D3F80836F0E712
:1025800011B1D3F8A837ECE702F00F02142101FBD8
:102590000233D3F80837E4E7F8BD00BF007002400B
:1025A000F0B5064689B01422002103A806F089FD83
:1025B0003378013B052B21D8DFE803F07A031414AC
:1025C0006A1603238DF814300024FFF759FF0346E1
:1025D000A0B1047400F10802DDE9050182E80300FE
:1025E00018461DE00423EDE7B7783846FFF768FE8C
:1025F000837A044623B1013B022B43D909B0F0BDD5
:102600003B06F57813D5002DF8D1FFF739FF0346C7
:102610000028F3D00122A5770274032202739C6084
:10262000FFF786FE09B0BDE8F040FFF779BE55B16F
:10263000012DE3D1FFF724FF03460028DED06577A4
:1026400005740573EBE7FFF71BFF07460028D5D09D
:102650000123037402230373846004F10C01B07836
:1026600005F088FD134AE168B2F88C328B4206D936
:102670005B1AA2F88C3201F023F83846D0E7A2F8B2
:102680008C52FAE7304609B0BDE8F040FFF734BF9E
:1026900001A800F0F3FF9DF80530052B04D19DF84B
:1026A000043013F0600FA9D0034B059301248CE78D
:1026B00002248AE7CC080020380A00202DE9F043E4
:1026C000A64CDFF89C9285B08046FFF737FE0746A0
:1026D00010B905B0BDE8F08394F825303A7C3BB9D9
:1026E000002A00F0868079689D4806F0B3F9ECE78F
:1026F000042A42D8DFE812F07D000500000116012F
:1027000040013B7BBD68032B37D8DFE803F0023D77
:102710005A5F6E69934B002232607260D3F8801466
:102720003170D3F884147170D3F88814D3F88C0402
:1027300041EA00217180D3F89014D3F8940441EA5F
:102740000021B180D3F89814D3F89C3441EA0323D4
:10275000F3800823EB6030687168834B03C3114634
:102760002B68687A984796F90030002B08DBF388CD
:1027700033B1A4F88C3200F0A3FF79684846B4E77F
:102780000023A4F88C32F8E76B7F002BF5D02B7F69
:10279000002BF2D000266E774FF0FF3273482E7771
:1027A0004FF0FF3305F098FC6B6901936B68CDE93E
:1027B000023601A9687A00F08FFC6C4805F08EFCA7
:1027C000DBE72B680121687A9847D6E7AB7A6BB9CB
:1027D000EB7F5BB965484FF0FF324FF0FF3305F0F8
:1027E0007BFC00F073FF614805F078FC2B68022148
:1027F000E9E73A7A042AC0D8DFE802F059032367F0
:10280000730000F0D3FB05460028B6D100F066FB4C
:10281000BFF35B8F5649012351E8002F002A03D1F3
:1028200041E800300028F7D1BFF35B8FA5D141F814
:10283000085C41F8105CE0696361143905F046F901
:102840009BE7002565F07F00C0B2FFF739FD037AF2
:1028500013B1407A01F09CF80135082DF2D194F8BB
:1028600054311BB194F8550101F092F80025E8B2FB
:10287000FFF726FD037A13B1407A01F089F801359C
:10288000082DF4D194F874321BB194F8750201F05C
:102890007FF8002000F06EFB012384F825302368C8
:1028A000002B3FF46AAF00210220984765E700251E
:1028B00084F8255000F0D4FFFFF780FD2368002B3B
:1028C0003FF45BAF29460420EFE7002B3FF455AF00
:1028D00000F076FB2368002B3FF44FAF002105206A
:1028E000E3E72268002A3FF448AF002B3FF445AFEE
:1028F00000210620904740E708F110054FF0FF3314
:102900004FF0FF32284605F0E7FBFFF777FD28463A
:1029100005F0E4FB58F8283C002B3FF42EAF0021D3
:102920000120C2E794F874327BB1012584F8895202
:1029300084F88852FFF7A4FD38B10E4A0574057378
:102940008260FFF7F5FCFFF7EBFC58F8283C002B02
:102950003FF413AF00210A20A7E700BFCC080020F6
:10296000F801002000700240D00800200409002077
:10297000EC080020380B002005F08AFF00F070FF03
:1029800000F0A2FAFFF76EFDFFF738FD05F079FFC2
:10299000014800F04BFBF0E6A125000038B5164DCC
:1029A00095F824402CBB05F1380006F09DF8204630
:1029B00001F040F922460121E8612720FFF742FAA1
:1029C00005F05FFFFFF71AFD044610B9012385F8F3
:1029D00024300A4B1B680BB1FFF7A2FC4FF0804379
:1029E000D3F83834DB0702D50020FFF76BFD204613
:1029F00038BD0024FBE700BFCC08002038020020CF
:102A0000074B93F824203AB193F82530002B14BFDC
:102A100000206FF0120070476FF01200704700BF87
:102A2000CC08002038B5104B93F824300446C3B1CD
:102A300005782846FFF744FC10B96FF0150038BD43
:102A4000457223798372638843602078618810F02F
:102A5000080F02D14B1E0B42EFD105F086FB002080
:102A6000EDE76FF01200EAE7CC08002038B5124B12
:102A700093F824200546CAB193F82530B3B1FFF787
:102A80001FFC0446A8B1837A012B12D007D9023B60
:102A9000012B07D96369A3610020E06038BD00F015
:102AA0001BFEF7E7284600F0BDFDF3E76FF01200CC
:102AB000F4E76FF01500F1E7CC08002038B50E4BB5
:102AC00093F82420054682B193F825306BB1FFF7C7
:102AD000F7FB68B115F008040AD1284600F0C4FDE0
:102AE000284600F08DFF204638BD6FF01200FBE74E
:102AF0006FF01500F8E700BFCC08002038B50C4B8C
:102B000093F8242005460C4662B193F825304BB16A
:102B1000FFF7D6FB48B144B1284600F08BFD20708A
:102B2000002038BD6FF01200FBE76FF01500F8E7EA
:102B3000CC08002070B5134E96F824300446C3B17B
:102B4000FFF7BEFB0546B8B1230705D4204600F0C9
:102B50008BFD204600F054FF2B7A83B901232B72A2
:102B600096F825300BB9002070BD204600F010FF0C
:102B7000F9E76FF01200F7E76FF01500F4E76FF078
:102B80007700F1E7CC0800202DE9F043DFF8E4807E
:102B90001E4698F8243085B0074689461546002B16
:102BA00061D098F82530002B5DD003065ED5FFF785
:102BB00087FB0446002859D0037A002B56D04FF0EB
:102BC000FF334FF0FF3208F1380005F085FAA37F9C
:102BD0004BB108F1380005F081FA6FF00A04204685
:102BE00005B0BDE8F083A37AC5B13BB30123A37759
:102BF0004FF0000801A93846CDE90195CDF80C80C9
:102C000000F06AFA1C4B984229D084F81E801EBB43
:102C10006FF00404194805F061FAE0E7E27F02B1C1
:102C2000E577002BE2D100F05DFD8742DED000F0B9
:102C30004DFD124805F052FA0024D0E7B8F80A30EA
:102C4000AB42F0D96268B5FBF2F302FB1353002BE1
:102C5000E9D10123E377E6E7C6F80080D8E706B1BB
:102C600035600024D6E76FF01204B8E76FF0150462
:102C7000B5E700BFCC0800200000AD0B0409002020
:102C80002DE9F0411D46204B174693F824200E46AF
:102C9000002A33D093F8253083B3030631D401B929
:102CA0007FBBFFF70DFB044658B3037A4BB34FF0DD
:102CB000FF3316484FF0FF3205F00EFAE368BB42CF
:102CC000984628BFB84646B93FB905B12B600F48B2
:102CD00005F004FA0020BDE8F081A16942463046C3
:102CE00006F0E1F9A3694344A361E368A3EB080399
:102CF000E360002DEBD0C5F80080E8E76FF012002C
:102D0000E9E76FF01500E6E7CC0800200409002091
:102D100070B51E4D95F82420034682B395F8252002
:102D20006AB31B062ED4FFF7CBFA044650B3037ADE
:102D300043B34FF0FF334FF0FF3205F1380005F099
:102D4000CBF9E368B3B9012663692677A361637F92
:102D500083B1FFF795FB30B905F1380005F0BEF9F6
:102D60006FF00B0070BD067484600673FFF7E0FA25
:102D7000FFF7D6FA064805F0B1F90020F2E76FF048
:102D80001200EFE76FF01500ECE700BFCC08002061
:102D90000409002010B5084B93F824300C462BB1E1
:102DA000FFF78EFA28B10460002010BD6FF012000A
:102DB000FBE76FF01500F8E7CC080020014B186026
:102DC000704700BFCC08002008B5074B93F82430AB
:102DD00023B1FFF775FA20B1406808BD6FF012000B
:102DE000FBE76FF01500F8E7CC080020064B10F069
:102DF000800FA3F1D80208BF134600F00F0018227D
:102E000002FB0030704700BF74120020EFF3118006
:102E1000202383F31288BFF36F8F0A4BD3F8001C73
:102E2000032261B949F27531C3F8001CC3F8142DAF
:102E3000C3F8001C80F31188BFF36F8F7047C3F88D
:102E4000142DF7E700E00640EFF31180202383F311
:102E50001288BFF36F8F0A4BD3F8001C61B949F297
:102E60007532C3F8002CC3F8141DC3F8002C80F38E
:102E70001188BFF36F8F70470022C3F8142DF6E757
:102E800000E0064008B54FF08053D3F830310D2BE9
:102E900001D1FFF7BBFF0B4B0122C3F80025D3F88C
:102EA00000241205FBD54FF40062C3F800244FF054
:102EB0008053D3F830310D2B03D1BDE80840FFF724
:102EC000C3BF08BD00700240024A00231360024ADB
:102ED00013707047541300206D140020F8B51E4F76
:102EE0004FF400634FF08054C7F80034FFF7CAFF77
:102EF000D4F830310D2B04D1184D2B7803BBFFF7DC
:102F000085FF154B8022C3F81C250122C3F830250C
:102F1000134B40F2FF121A60124A00231360124A48
:102F20001370124A1370124B02221A704FF0805322
:102F3000D3F830310D2B0ED1BDE8F840FFF784BF38
:102F40000026C7F80065FFF79DFF2E70D4F83031DA
:102F50000D2BD6D1D3E7F8BD00700240EC01002064
:102F6000501300204C130020691400206B14002023
:102F70006D140020094B002210B51A70084A094B45
:102F8000094C002808BF1346C4F800332720FEF779
:102F900029FF0123C4F8043510BD00BF6C140020C4
:102FA000FDFFDF01FDFFFF0100700240034B1878B9
:102FB000012894BF00200120704700BF6D1400203D
:102FC00010B54FF0FF324FF0FF33154803F016F9FC
:102FD000EFF31181202383F31288BFF36F8F114B1E
:102FE0001B7803F0FF0483B10F4BD3F8002412F4D5
:102FF00000720AD10120C3F82C05D3F82C05D3F8B0
:103000000004800502D5C3F82C25002481F3118823
:10301000BFF36F8F024803F0BDF8204610BD00BF1C
:10302000280200206C14002000700240F8B51C4BF0
:103030001C7894BB1B4A106001221A7040F2FF17E3
:10304000264664F07F0514F0080FEDB214BF394630
:103050004021284605F089F82846FFF7C7FE0134CD
:10306000092C867506730661EBD1002440F2FF1728
:10307000254614F0080FE6B214BF39464021304609
:1030800005F073F83046FFF7B1FE0134092C857561
:1030900005730561EDD10448F8BD0448FCE700BFA5
:1030A0006D140020541300200000AD0B0500AD0B83
:1030B000084B10F0800F00F00F0114BFD3F810255B
:1030C000D3F8142501238B40134214BF01200020A4
:1030D000704700BF007002402DE9F8430246EFF34D
:1030E0001187202383F31288BFF36F8F030703D167
:1030F000184B1B78834229D1174B184E1C68356832
:10310000104605F02AF8E443A4B24FF001092C431D
:1031100009FA00F814EA08041AD11046FFF766FE0F
:1031200080F80C90034607C91C6183E807009C7572
:103130000B4B0C4845EA080580223560C3F8042192
:1031400087F31188BFF36F8FBDE8F8830648F7E770
:103150000648F5E76B140020501300204C130020A4
:1031600000E100E00000AD0B0A00AD0B0B00AD0B61
:1031700010F0080F074B06D0D3F8C00410F4803FBE
:1031800018BF0020704700F00F0000F5947053F84E
:1031900020007047007002402DE9F04FAB4BAC4F60
:1031A000D3F8542185B0DAB10022C3F85421D3F802
:1031B0000413890214D58DF80C20D3F82025ADF81E
:1031C0000E20D3F8C034002B3B6814BF4FF001220F
:1031D0004FF4807213433B609E4B03A81B689847D3
:1031E0009A4BD3F8604134B10022C3F86021D3F880
:1031F0006C44C3F86C44D3F828214AB10022C3F8C8
:103200002821954B187804F0A8FF012383401C4324
:10321000DFF84882924E98F8005098F9009015F027
:10322000080141D1B9F1000F05F00F032CDA8D4AE6
:1032300052F8230010B342F823101422534303F131
:10324000804303F51C33D3F80836874A117803F01E
:1032500001034B401370854802F09CFF2846FFF79E
:10326000C5FD837D032B37D1284604F076FF01236B
:1032700003FA00F0336823EA00033360DFF8D4A1D7
:1032800001254FF006095DE0794A52F82300002835
:10329000F4D042F823101422534303F1804303F582
:1032A0001C33D3F80837D0E7B9F1000F674B09DBBF
:1032B000D3F85021002AE1D00022C3F85021D3F8DE
:1032C000A837C2E7D3F82C21002AD7D00022C3F8B0
:1032D0002C21D3F8A836B8E7037BDBB9284604F0E5
:1032E0003CFF012303FA00F03368B9F1000F23EA31
:1032F0000003336001DA882DC0D106238DF80C302D
:1033000000238DF80F30534B8DF80E501B6803A827
:103310009847B3E7002DB1D14C4B0122DA64ADE7F9
:1033200094FAA4F03A68B0FA80F005FA00F31A4370
:103330000F283A6024EA0304326840F39D80134268
:1033400000F0AA80002CEBD1404BD3F800215AB1F9
:10335000C3F80041474B1C703F4B1C700123039383
:103360003C4B03A81B689847384BD3F85821002AD8
:103370002ED00022C3F85821D3F80044C3F80044EB
:10338000E30508D53B4B01221A7002230393314B0E
:1033900003A81B689847A50508D5364B00221A706C
:1033A000032303932B4B03A81B68984760050FD595
:1033B000304B1A7862B100221A70244B0122C3F8F4
:1033C00008259A6504230393224B03A81B6898479A
:1033D0001E4BD3F85C3103B3244B9B681BB998F8A0
:1033E0000030590619D0194B0022C3F85C21D3F8DC
:1033F0008034194A23F07F031370336823F00113DC
:1034000033603B6823F4803343F001033B600523C2
:103410000393104B03A81B68984732683B681A4215
:1034200000F0938011480022002302F0E7FE0028FC
:1034300040F08B80054BD3F82C35002B00F0A88092
:103440000A4805B0BDE8F04F02F0A4BE007002408B
:1034500050130020541300206B1400206A14002025
:103460004C1300200871024069140020280200203B
:10347000307102406C14002013407FF463AF60F0A1
:103480007F018DF80C908DF80E108DF80F30DAF862
:10349000003003A8984755E7A0F110018DF80C9073
:1034A0008DF80E108DF80F50F1E749F08005284691
:1034B000FFF79CFC4368B0F814B001689B4528BF37
:1034C0009B4601F06043B3F1005F044604D05248CC
:1034D0005A4605F0E8FD5049226863685A44226064
:1034E000A268A3EB0B03D20768B2636005D5BBF1FA
:1034F000000F04D10023237301E0002BFAD0012236
:1035000002FA09F92AEA09033B60236988F80050A6
:103510005B4415F0080F2361404B6FD1002805F084
:103520000F054FF0140000FB0530A9BF0A3503EB6F
:103530008503C0F80017C0F804B7AFBF43F82520D3
:10354000C0F80016C0F804B65A6005B0BDE8F08FA8
:1035500061464FF0000B70454AD1003A18BF012276
:10356000BCF1000F46D0584544D9012202FA09F2B5
:1035700023EA0203336006238DF80C30284B8DF8C4
:103580000E5002211B68A1758DF80F1003A89847F3
:103590003368D7F800A013EA0A093FF451AF19F0D5
:1035A000012214BF92FAA2F999FAA9F9B9FA89F994
:1035B000B9F10F0F01937FF678AFA9F11005EDB2C5
:1035C0002846FFF713FC04462846FFF7D1FD626842
:1035D000B4F814E0D4F800C0019B9042B8D800EBD6
:1035E0000C0B121AC4F800B0614662608346B2E761
:1035F0000022B5E768B2002A81D17BE70028B5BF79
:10360000C3F8A016C3F8A017C3F8A4B6C3F8A4B7AC
:10361000B4BF5A629A6498E75C11002000700240BF
:1036200054130020024B40F48070C3F81805704713
:1036300000700240030713D400F00F0310F0800F56
:10364000084A0BBF03F5887303F5847302EB83020A
:1036500052F8230008BF5068003818BF0120704797
:103660000020704700700240034BC3F80C0540F483
:103670008070C3F80C05704700700240002303609F
:1036800043600E4BD3F880240270D3F88424427038
:10369000D3F88824D3F88C1442EA01224280D3F86C
:1036A0009024D3F8941442EA01228280D3F898241B
:1036B000D3F89C3442EA0323C38070470070024071
:1036C000014B0122DA64704700700240014B012275
:1036D0001A65704700700240014B01225A6570471D
:1036E00000700240014B1878704700BF6B14002037
:1036F00010B50246EFF31184202383F31288BFF341
:103700006F8F04F02AFD0B49012303FA00F00B68C8
:1037100023EA00030B6012F0080101BF02F00F0260
:10372000054B02F5947243F8221084F31188BFF31D
:103730006F8F10BD5013002000700240F7B5014696
:10374000EFF31185202383F31288BFF36F8FFFF708
:103750004DFB0646084604F000FD012211F0800FE3
:1037600002FA00F22D4818D1036832EA03040AD0A5
:103770000846FFF7BDFF0323B37585F31188BFF338
:103780006F8F03B0F0BD2649347323EA0203036050
:103790000B6823EA02030B60EDE70B0715D48029C1
:1037A000204B2FD001F00F0404F2DA346400C3F888
:1037B0000048D3F80448D3F80478E4B244F0020493
:1037C0003C43C3F80448D3F80438154F04683B68F9
:1037D00064EA030C1CEA020FCFD013433B600023C2
:1037E00033730323B3758DF807300F4B8DF8061034
:1037F00024EA0204062204601B688DF8042001A854
:103800009847BAE740F2B474C3F80048D3F80448C4
:10381000D3F80478E4B244F00404D1E74C13002058
:1038200050130020007002405413002038B50446A5
:10383000094D4FF0FF324FF0FF33284602F0DEFC17
:103840002046FFF77BFF284602F0A4FC034B8022B2
:10385000C3F8042138BD00BF2802002000E100E0C9
:10386000F8B54FF0FF324FF0FF332A4802F0C6FCA4
:10387000294B8022C3F884212720FEF7D5FA98B17E
:10388000264E274B34681B68240C24041C43012754
:1038900054BB244D40F2FF1333602720C5F8044584
:1038A000FEF7AEFAC5F800431F4A13788BB11D4BE3
:1038B0000021C3F808110121C3F80026C3F804163B
:1038C0005960D3F808110029FBD00021C3F8081172
:1038D0001170144B0022C3F800250E4802F05AFC68
:1038E000124B01221A70F8BD94FAA4F5B5FA85F5C9
:1038F0000F2D2846C6BFA5F11000C0B240F08000D1
:10390000030701D4FFF71AFF07FA05F524EA0504B7
:10391000BEE700BF2802002000E100E050130020B5
:103920004C13002000700240691400206D14002028
:1039300010B504464FF0FF324FF0FF33114802F04C
:103940005DFC2046FFF7FAFE04F00F0201239340CE
:103950000D4A14F0800F14BFD2F81015D2F81415C8
:103960006FEA030315BF0B400B40C2F81035C2F8D5
:103970001435044802F00EFC044B8022C3F80421E5
:1039800010BD00BF280200200070024000E100E0EE
:1039900070B50446FFF78CFB68B904F00F020125EF
:1039A00014F0800F144B05FA02F205D0D3F810156D
:1039B0000A43C3F8102570BDD3F814150A43C3F8A1
:1039C0001425631E062BF6D8EFF31186202383F30C
:1039D0001288BFF36F8F2046FFF78AFE204604F05F
:1039E000BCFB064A1368854023EA0503136086F38F
:1039F0001188BFF36F8FDEE7007002404C13002088
:103A0000030610B5044605D4FFF714FE10B1204696
:103A1000FFF76EFE014BC3F8184510BD0070024061
:103A2000084B70B5C31A0D4607499B10044659430D
:103A30000648402204F0BDFB2B4601462046BDE867
:103A4000704018476C130020B76DDBB61C92000065
:103A500073B50C4C0C4A4023041B00930D460B46D7
:103A60000A49A41061430646094804F0CEFB011E32
:103A700005DA30462B4602B0BDE87040184702B068
:103A800070BD00BF6C13002075820000B76DDBB6FF
:103A90001C92000010B5EFF31184202383F31288E9
:103AA000BFF36F8F074A136823F00201DB07116031
:103AB00002D4012004F043FE84F31188BFF36F8F1A
:103AC00010BD00BFBC130020002270B501210446C8
:103AD0001046FEF7B7F90F4801F0E6F80E4B984292
:103AE00015D101F0F1F826690C49304603F0DBFFEF
:103AF00000280BDB012535642469084904F11C000A
:103B000003F0D1FF002801DBE564002070BD6FF0F9
:103B10000400FBE7193C00000000AD0B1895000005
:103B20001FB500220123CDE90223094ACDF800D0B8
:103B30006B46CDF804D004F096FB002805DB4FF46B
:103B400080420023684602F059FB05B05DF804FB93
:103B50009382000030B4104B0C2202FB003301466C
:103B60000020D3E90E529863EFF31180202484F3F0
:103B70001288BFF36F8F1C6C04F0C00444F0020481
:103B80001C6480F31188BFF36F8F1DB12B4603486F
:103B900030BC184730BC70476C1300201C920000EA
:103BA00010B4EFF31182202383F31288BFF36F8FD9
:103BB0001748016841F002040460C80707D482F383
:103BC0001188BFF36F8F012010BC01F095B84FF042
:103BD0008041D1F80C04D1F80C14C907EFD5EFF3EC
:103BE000118083F31288BFF36F8F0A490B6C03F0C7
:103BF000C00343F002030B6480F31188BFF36F8F9F
:103C000082F31188BFF36F8F002010BCFFF7A2BFB3
:103C1000BC1300206C13002010B1012804D07047A1
:103C2000034B1B6C5B0701D1FFF794BF704700BFCC
:103C30006C130020024AC3B21C2003FB0020704713
:103C40006C1300202DE9F0413849BFF35B8F074624
:103C5000012251E8003F41E800200028F9D1BFF3DC
:103C60005B8F33B9324933484B60CB608A6003F0D5
:103C70002DFF7B1E012B2BD8012F07D14FF0804346
:103C8000D3F81C3403F00303012B21D005F033F8E3
:103C90000546F8B9284B1B78E3B14FF08043022268
:103CA000C3F808230646DFF894804FF08044D4F828
:103CB0001824D4F81834D20315D503F00303012BCC
:103CC00001D0012F0FD155B386F31188BFF36F8F49
:103CD000BDE8F081EFF31186202383F31288BFF350
:103CE0006F8F0125DFE7ADB1304604F0BEF9D4F89F
:103CF0001835002BDBD1D4F80421002AD7D0C4F822
:103D00000431D4F804310123C4F81835C8F88031DF
:103D1000A360CCE70021212005F08DF8E7E74FF004
:103D200080430222C3F80423D2E700BF68130020B7
:103D300058130020881300208014002000E100E0C8
:103D400008B5074804F03AFE38B10648FEF788FA8D
:103D50000448FCF7DBFB002008BD6FF01200FBE716
:103D60007C920000693D00000A2838B5074D0446E2
:103D700004D1AB680D215B6828469847AB680348BF
:103D80005B68E1B29847204638BD00BF7C920000D6
:103D9000F0B54068057B01F01F0444EA451405694D
:103DA00087B0002D64D0B2F5001F00F1100506D1D8
:103DB0002146284604F054FD002007B0F0BD01AEB6
:103DC0000027B2F5800F0197776039D1B3F1007FFA
:103DD00014BF052304238DF804300023CDE90463C8
:103DE0000393836823FA01F111F001011AD1B2F1B2
:103DF000A07F17D104F01F03620903F5E0732AD0F6
:103E0000012A3BD11F4A52F82330DB070AD40DF1B7
:103E1000030632462146284601F04EFA1A4B9842D4
:103E20001CD0029603AA2146284601F007F9174B39
:103E3000984220D101222146284601F0A1FABBE791
:103E4000B3F1C06F05D0B3F1007F14BF012302238B
:103E5000C1E70323BFE74FF0A042D4E7314628462D
:103E600001F088FA094B9842DBD06FF00B00A4E711
:103E70006FF08500A1E76FF015009EE751F8233041
:103E8000FFDE00BF000300500400AD0B0000AD0BCF
:103E900038B545682B69B3B11035284601F05AFA98
:103EA000044680B90146284601F020FA084B9842A2
:103EB0000BD108492246284601F0F8F9224605218F
:103EC0000620FDF7BFFF002038BD6FF00400FBE7C0
:103ED0000000AD0BD93E0000420970B5034602D088
:103EE000012A17D070BD0D4E326951680029F9D0F2
:103EF00003F01F0301250C689D400029F2D08A6859
:103F00002A4002D04B68304698472CB1236821469E
:103F10001C46F2E7024EE7E72346F8E75C92000012
:103F20003C9200002DE9F043466840F20635D00689
:103F3000337B87B002EA050554BFC2F3401003206B
:103F400001F01F07B5F5837F144647EA43178DF844
:103F5000030045D00FD8062D18D007D8B5B1022DD3
:103F600040D06FF0150007B0BDE8F083B5F5807F55
:103F7000F7D101250AE040F20222954234D0B5F58E
:103F8000407F33D0B5F5007FEBD10225012322031A
:103F900003FA01F12CD57368C3F80815326982BBA6
:103FA00007F01F037F0929D0012F77D13E4A02EB8A
:103FB000830284F48033D2F80017C3F30043C4F3C0
:103FC000404444EA430421F4E16144EA800421F0DE
:103FD000070144EA05230B43C2F800370020C2E77B
:103FE0000725D3E70425D1E70525CFE70325CDE74E
:103FF000630344BF7368C3F80C15CFE74FF0A042CA
:10400000D5E710360DF102023946304601F054F979
:1040100014F4403F80460CD13946304604F01EFC73
:10402000224B9845DAD19DF80210304601F09CF9F8
:10403000D4E701AB4FF0000903AA39463046CDE979
:104040000439CDE90199CDF80C9000F0F7FF174B3A
:10405000984286D114F4003315D09DF803308DF8C2
:104060000E3084F48034C4F300444B4603AA39462E
:1040700030468DF80C508DF80D4001F099F80B4B3F
:104080009842CDD06DE7CDE9043303AA0DF10303C7
:1040900039463046039300F0D1FFF0E703F5E073B3
:1040A00052F82330FFDE00BF000300500000AD0BCC
:1040B0002DE9F04FDFF818A1DFF818B1DFF818810B
:1040C0008E46002740F2FF19FBB29E4502D8002021
:1040D000BDE8F08F50F827104D04C1F3C324C1F39D
:1040E000080365D4090E04391AF804404B4508BF8B
:1040F0004FF0FF3308295ED8DFE801F0050B115DB2
:104100005D5D5D1843005E1CC2F808353CD1013787
:10411000DAE75D1CC2F80C35F9D0012535E0C2F8AC
:104120001035591CF3D000252E4608E0C2F808359A
:10413000002CF6D15C1CEAD000252E46062450F84F
:10414000271001F4004CBCF1000F1CBF0026012514
:1041500003F01F0C5B0928D0012B33D1434603EB3E
:104160008C0CC1F341212402DCF8003744EA8104BD
:10417000344303EA0B0344EA45042343CCF80037F5
:10418000C5E7C2F80C35D3E7002559090AD0012943
:1041900014D1C44603F01F01012606FA01F1CCF840
:1041A0000C15CCE74FF0A04CF4E74FF0A043D6E756
:1041B0006FF015008CE76FF0850089E70023C3F8E6
:1041C0000C35FFDE0CF5E07C002353F82C30F8E7CB
:1041D000C9960000F0F8FCFF000300502DE9FF41F4
:1041E0000569D0F804802B6D0646A86C002835D1EF
:1041F000002B53D0B8F830406A6CEF6C9C4228BF5B
:104200001C46EB6C53B1296D41B107F06041B1F12F
:10421000005F03D0082C6F6E28BF082400926A6CE0
:10422000AC651AB1AA6C002A18BF2246CDE9012755
:104230001BB12B6D002B18BF234600226946404658
:10424000039301F02BFC184B984229D06FF0040126
:10425000304604B0BDE8F04104F074B9696CEF6C0D
:10426000B8F830400A46ABB1834228BF03469C42AF
:1042700028BF1C460029C4D001F06043B3F1005FA1
:10428000BFD0082C28BF08242246286E04F00BFF5C
:104290002A6EB6E7844228BF0446EBE71946D7E703
:1042A00004B0BDE8F08100BF0000AD0B2DE9F04F78
:1042B0008DB004690193436802938B880646980485
:1042C000884691462DD44FF0FF324FF0FF3304F172
:1042D000100001F093FFC4F80480D6F804B0D6F8BB
:1042E00010A0DBF8083003939AF85D3023B1DAF8B8
:1042F0000030984500F0B380B8F804E01EF4006F79
:1043000016D06FF0850523689B8813F4005304D101
:10431000636004F1100001F03DFF28460DB0BDE8D8
:10432000F08FA369002BCED163689942CBD1D4E73B
:104330001EF0090F02D06FF01505E4E7CEF3451328
:10434000082BF8D1D8F80050974B9D42F3D90BF1C8
:104350000C0CBCE80F0004AF0FC79CE80F0087E807
:104360000F00039BAB4228BF2B461D468F4B9D423F
:1043700017D28F4B9D4214D28E4B9D4211D28E4B41
:104380009D424CD88D4B9D424BD88D4B9D424AD877
:104390008C4B9D4249D88C498C4B8D4A8D4288BFAD
:1043A00013461EF0020F09930EF004033FD0002BBA
:1043B00014BF032302238DF82830CEF300138DF8A9
:1043C0002930DBF80030D3F80835591C12D01EF024
:1043D000020F03F01F00CEF340014FEA53134FF0DA
:1043E00001022BD13BB3934240F0D680794B8240FF
:1043F000C3F80C259AF85D302BB1584601F014FB38
:1044000000238AF85D303346734A04A9584601F008
:10441000D7FA724B98421DD06FF0040573E7704BCA
:10442000BFE7704BBDE7704BBBE7704BB9E7003B94
:1044300018BF0123BFE74FF0A043D8E73BB1012BE2
:1044400040F0AD80634B8240C3F80825D2E74FF0BF
:10445000A043F8E701238AF85D30CAF80080012301
:1044600084F85C30029B996B4A1C03D003F13C003A
:1044700004F0D2F8B9F1000F68D1C4F834900023E9
:10448000A36304F1480204F1380104F1340003F09D
:1044900084FF019B6064002B60D1E36300232364ED
:1044A00004F1500204F1400104F13C0003F075FFF7
:1044B00000252A46E06401212046256303F0A4FF7D
:1044C0003046FFF78BFEA06B2A462B4683424DD128
:1044D0000023256C1946A9424FD19A42274638BF7E
:1044E0001A464FF4FA5303FB02F557F8203B4FF0FE
:1044F00000081B68B5FBF3F54FF4004CC835414686
:1045000040F2E7304FF47A720023E5FB0C01FBF731
:10451000F7FD02460B46384601F070FE024618B918
:10452000256B15F1740F2FD10298C4F8588001F053
:104530007BFA84F85D806FF07301304604F002F876
:10454000384601F081FE6FF07305DCE6D9F80030E3
:104550006363002B93D0D9F8043091E7019B1B686B
:10456000E363002B9AD0019B5B6898E7616B01EBDA
:10457000C301013349680A44A8E7E06B00EBC100BE
:10458000013140680344A6E7002D3FF4BCAE01466C
:10459000306903F039FFB6E6C1F80C15FFDE0023E1
:1045A000C3F80835FAE700BF47E801000048E80112
:1045B0000024F40000127A00FF083D007F841E00F2
:1045C0003F420F001FA107008FD0030048E8010001
:1045D00090D0030000030050678500000000AD0B81
:1045E00000093D0080841E0040420F0020A107000A
:1045F00000F01F0240090DD001280ED10A4B03EB39
:1046000082030A4AD3F80007024042EA8102C3F853
:10461000002770474FF0A043F1E702F5E072002356
:1046200053F82230FFDE00BF00030050F0F8FCFF1B
:10463000F0B587B001238DF8023002238DF80430E5
:104640006B4403930F4601AB0DF103010024049367
:1046500005460291059400F08DFE0C4B98420646EB
:104660000FD103AA3946284600F0E8FCB0420BD02F
:104670009DF80310284600F077FE6FF0040007B0A5
:10468000F0BD6FF01200FAE72046F8E70000AD0B2E
:1046900070B5012383400E4ABFF35B8FDC4352E8C1
:1046A000001F01EA040542E80056002EF7D1BFF3CF
:1046B0005B8F4FF4803282400648C0F80823BFF376
:1046C0005F8FBFF36F8F0B4214BF0120002070BDBE
:1046D000DC1300200010014070B40E49D1E9003411
:1046E000D01AC31844F1000422F07F46C1E9003417
:1046F000A6F50013B3F5400F09D2074B1B681A0A41
:104700001B069C19054B42F10005C3E9004570BC2E
:1047100002F060BC88040020E01300209004002018
:1047200011B3BFF35B8F0123104A834052E800CFDF
:104730004CEA030C42E800C10029F7D1BFF35B8FBC
:104740000B4A4FF480338340C2F80433094BBFF364
:104750005B8F1B68BFF35B8FC340DB0742BF064B19
:104760004FF40032C3F80021704700BFDC13002073
:1047700000100140D813002000E100E00D4B186844
:10478000010A0006BFF35F8F0B4BD3F804351818EE
:1047900041F10001B3F5801F0AD2084BD3E9002391
:1047A000904271EB030303D210F1807041F10001DC
:1047B000704700BFE013002000100140900400206B
:1047C0002DE9F04F85B016461F469DF840A00446DF
:1047D000FFF75EFF0190FFF7D1FFB04271EB0703D7
:1047E00054D23E4B301A67EB0101984271F100013F
:1047F0004FD23B4B03EB0413D3E902239F4208BF84
:1048000096425ED037494FF4803804F1500508FADB
:1048100004F8AD00C1F848832046ADB203F024FF90
:1048200026F07F4B05F1804504F5A87305F5883522
:10483000DC464FF003090293029A2CF07F4341F8C3
:104840002230C1F84483D1F80435274A6FF00200C2
:10485000C01A604420F07F40904232D9286868B185
:10486000D1F804350393A3EB0B0020F07F40B0F5A3
:10487000000F26D9204603F0F7FE039BBAF1000F84
:1048800007D109EB030C09F10109D5E7BAF1000FD3
:1048900009D06FF0150520460199FFF741FF284622
:1048A00005B0BDE8F08F0123104ABFF35B8FA34032
:1048B00052E8000F184342E800010029F8D1BFF385
:1048C0005B8F07490E98230101EB0412C8500F9B20
:1048D0005360C2E902670025DDE700BF01008000E8
:1048E0007804002000100140FDFF7F00D813002055
:1048F0007FB51C4C1C4BC4F80833C4F848331B4B21
:1049000000254FF0FF304FF0FF31C4F80855C3E9E0
:1049100002014FF48033C4F80433154B02264FF4E0
:1049200000320121C4F804631120C3F880212A4613
:10493000FDF788FA1120FDF755FA0E4A0123A3600E
:10494000236013600C4B0D4A0093CDE90155002301
:104950002846FFF735FF3046FFF774F9284604B0C4
:1049600070BD00BF0010014003000F00780400205C
:1049700000E100E0DC130020D9460000FFFF7F00CB
:104980002DE9F7432F4CD4F8043399070BD5D4F80D
:10499000043143B12C4A0023C4F80431D4F8043163
:1049A000136801331360D4F80433DA0329D5BFF355
:1049B0005B8F264B53E8002F22F0010143E80010E3
:1049C0000028F7D1BFF35B8FD30702D4D4F840316E
:1049D000BBB10025C4F84051D4F84031FFF7CEFEFA
:1049E000EFF31182202383F31288BFF36F8F184BEC
:1049F000D3E90267B042B94106D282F31188BFF30E
:104A00006F8F03B0BDE8F0834FF0FF384FF0FF39F0
:104A1000C3E90289D3E900101D604FF48033C4F864
:104A20004833C4F84051D4F8403182F31188BFF3C1
:104A30006F8F0029E5D0009032463B4628468847D4
:104A4000DFE700BF00100140E0130020D813002072
:104A50007804002030B5431C124C85B005D0844248
:104A6000A8BF0446012CB8BF0124FFF787FE0E4BF8
:104A70000C4DD3E90013401AB0F5000F10D22218E4
:104A8000AA4228BF2A4652184FF000000749009159
:104A9000CDE9010043F10003FFF792FE05B030BD00
:104AA0002A46F0E7FFFF7F0088040020D946000077
:104AB00008B5FFF763FE024B1B68C01A08BD00BFB4
:104AC00088040020024AD2F80034002BFBD0704743
:104AD00000E0014010B54FF08053D3F830210D2A8B
:104AE00055D14FF080410022C1F80C21C1F81021AE
:104AF000C1F83825464AD3F80404C2F82005D3F893
:104B00000804C2F82405D3F80C04C2F82805D3F829
:104B10001004C2F82C05D3F81404C2F83005D3F8F9
:104B20001804C2F83405D3F81C04C2F84005D3F8C1
:104B30002004C2F84405D3F82404C2F84805D3F889
:104B40002804C2F84C05D3F82C04C2F85005D3F859
:104B50003004C2F85405D3F83404C2F86005D3F821
:104B60003804C2F86405D3F83C04C2F86805D3F8E9
:104B70004004C2F86C05D3F84434C2F87035D1F85B
:104B80000034DB0709D56FF00103C1F800344FF0A2
:104B90008053D3F830310D2B0CD14FF08053D3F824
:104BA00034313BB14FF01023D3F808224FF080434B
:104BB000C3F858254FF01023D3F80022002A03DB56
:104BC000D3F80432002B22DA124901234FF01020CF
:104BD000C1F804351224FFF775FFC0F80042FFF753
:104BE00071FFC0F80442FFF76DFF0023C1F80435E0
:104BF000FFF768FFBFF34F8F0749084BCA6802F4FD
:104C0000E0621343CB60BFF34F8F00BFFDE710BDE1
:104C100000C0004000E0014000ED00E00400FA05A3
:104C200030B50468CCB1BFF35B8FB4FA84F3C3F141
:104C30001F03DBB201229A4024EA020250E8005F1F
:104C4000A54204D140E8002CBCF1000FF6D1BFF31F
:104C50005B8FE6D102480B7030BD0248FCE700BF15
:104C60000000AD0B0200AD0B10B50368CB40DB07B5
:104C700014D401238B400268BFF35B8F43EA020127
:104C800050E8004F944204D140E8001CBCF1000FF2
:104C9000F6D1BFF35B8FEED1014810BD0148FCE7B0
:104CA0000000AD0B0400AD0B044B1A7922B90122B0
:104CB00018601A710248704702487047E4130020D8
:104CC0000000AD0B0C00AD0B08B5094B1B682BB1F8
:104CD0000020FDF7A9F808B9FDF784F84FF08043EC
:104CE0000022C3F81825034B01221A7008BD00BF2B
:104CF000E41300207E14002010B510B1012843D029
:104D000010BD4FF08043D3F81814D3F81824C8030B
:104D100021D502F00303012B04D013B1002003F0CE
:104D2000B6FC00234FF080420220C2F8183508225A
:104D30004FF4827303F180430021196002F1804235
:104D40001C6801241460154A12680AB34FF08043AE
:104D5000C3F80403D4E7D3F81424D107E1D5D3F87A
:104D60001C249207DAD40D4A12681AB10222C3F841
:104D70000423C5E7D3F80421002AFBD00022C3F89E
:104D80000421D3F80431BBE700224FF48073D1E74C
:104D90001A68002AFCD019601B68B1E7E4130020F0
:104DA000F8B54FF08043184FD3F80443012500268F
:104DB00004B9F8BDB4FA84F0C0F11F00830003F514
:104DC00080739BB203F1804305FA00F2196892B236
:104DD00024EA02040029EBD01E601B684FF08043D8
:104DE000022AC3F808230BD1D3F81814D3F81814E7
:104DF000890705D1C3F81855C3F804239D60D7E788
:104E00003B68C0B29847D3E7E4130020036803F07F
:104E10001F025B09026004D0012B034818BF002069
:104E200070474FF0A040704700030050034A430909
:104E300000F01F00D35C1844C0B27047D196000048
:104E400070B50546FFF7F2FF0C4C08300E4634F8FB
:104E50001030DA0508D5C3F3432304EBC302284618
:104E600054F8333052689847A3682BB1E268314652
:104E70002846BDE87040184770BD00BF6C01002097
:104E800008B5FFF7D3FF034B083033F81000400B91
:104E900008BD00BF6C01002008B5FFF7C7FF034B3A
:104EA000083033F81000C0F3400008BD6C0100204A
:104EB00008B5FFF7BBFF034B083033F81000C0F311
:104EC000401008BD6C010020034611F0010010B530
:104ED000CCB20DD1A207C4F3400012D5094AD2F8D2
:104EE00020055860C2F82005003818BF012008E0EE
:104EF0004FF0A041D1F820251A60C1F82025002AE2
:104F0000E8D010BD0003005010B5FFF78FFF124A24
:104F1000083032F81030D9051CD5C3F3432123F4EF
:104F2000F85322F8103002F10E04002034F8023F4A
:104F300013F4807F03D0C3F3432399420AD0013096
:104F40002A28F3D1002342F831300448BDE810404C
:104F5000FFF78ABE10BD00BF6C010020D801002001
:104F6000F0B5054600200446012607468C420BD1C9
:104F7000114BD3F87C2132B10022C3F87C21D3F845
:104F80007C3140F00040F0BDE3B29B0003F580723D
:104F90009B0806FA03F31D420BD002F1804202F592
:104FA000C042D2F800C0BCF1000F02D017601268F6
:104FB00018430134DAE700BF00600040F7B5064649
:104FC0000846FFF733FF194F00F108050C4637F884
:104FD0001530DB0727D5304603F01CFC2046FFF7D1
:104FE00067FF40B12046FFF74BFF316800F5A27024
:104FF000002341F820302046FFF786FF002301A858
:1050000027F815300194FFF701FF019B00EB8300A7
:10501000074BD0F80027134043F00203C0F80037D5
:10502000044803B0F0BD0448FBE700BF6C0100205A
:10503000F0F8FCFF0000AD0B0400AD0B2DE9FF41C3
:10504000164680460846FFF7F1FE0D4631680446D5
:1050500009B32846FFF720FF18B12846FFF728FFBD
:1050600010BB0023CDE900338DF80E308DF80F30E2
:105070000DF10F020B4628460DF10E0103F061FB06
:10508000474A04F1080132F8113023F0020343F0DB
:10509000010322F81130736863B328461F785968FA
:1050A000FFF7FAFE10B1D1B13E4826E03C4A04F1C8
:1050B000080032F8103023F02003DB04DB0C22F868
:1050C000103061B1032FEFD87168496891F800C0C2
:1050D000D8F80010A7B90CF5A27C41F82C70304A22
:1050E00004F1080132F8113023F01C0343EA87036E
:1050F00022F81130B3684BBB2B4804B0BDE8F081F7
:1051000001EB8C0143EA4C33D1F810E52EF0030E8D
:10511000C1F810E5D8F8001001EB8C0E43F0200325
:10512000DEF8101522F8103021F44F3121F44071CF
:10513000CEF810152902DEF8108501F47C5141EA01
:10514000074141EA0801CEF81015C8E7D3E9006726
:105150002846FFF7D9FE002ECED0114DD5E9002309
:10516000964203D19F4201D1002209E00F480DF180
:105170000F01FFF755FD0C4B9842BED19DF80F2053
:1051800045F8326005EBC20308345F6035F814302F
:1051900043EA422343F4807325F81430ACE700BFA0
:1051A0006C0100200400AD0B0000AD0BD801002005
:1051B0002DE9F0430C4685B08046204611461E4638
:1051C000FFF734FE054629B32046FFF765FE18B900
:1051D0002046FFF76DFE18BB314F05F1080937F87F
:1051E000193013F01C0F02D04B78012B18D001237B
:1051F0008DF80F300023CDE900134A1C8B1C20468C
:105200000DF10F0103F09DFA37F8193043F0030355
:1052100027F81930002E41D02046FFF73DFE18B97F
:10522000204805B0BDE8F08396F800C0D8F80030FB
:105230001B4F0CF5A272002143F8221005F1080261
:1052400037F8121021F02001C904C90C27F81210F8
:1052500075781DB3D8F80000B67800EB8C002D04EB
:10526000D0F8103523F4991323F4F853C0F810350F
:10527000230203F47C5305F440353605D0F810E5DD
:105280002B4306F4801641EA4C31334341F02001B0
:1052900043EA0E0327F81210C0F810350248C0E7A1
:1052A0006C0100200400AD0B0000AD0B014BC3E905
:1052B000021270476C01002010B508461446FFF733
:1052C000F7FD50B10846FFF7B1FD054B083033F844
:1052D000103004485B0B237010BD0348FCE700BF8F
:1052E0006C0100200000AD0B0400AD0B70B5164D35
:1052F00095F8744006462CBB2146542205F1100057
:1053000003F0DFFE30686E6E21468E420ED1002320
:10531000C0F87C31D0F87C3140F30730FCF762FDF7
:1053200001230A4885F87430EB6670BDCBB29B0050
:1053300003F580727C2B08BF845001F1010108BF86
:105340008358E2E70248F0E76C0100200000AD0B53
:105350000C00AD0B034B93F87400003818BF01200C
:10536000704700BF6C0100200148FFF77DBC00BF03
:10537000D40100200148FFF753BC00BFD401002036
:1053800073B503681646D3F80423002AA8BF4FF06C
:1053900000420546A8BFC3F8042308460C46FFF7A1
:1053A00087FD00B30846FFF777FD0146D8B92046D0
:1053B000FFF766FD04B2A40004F580720346286876
:1053C0008150296882582144D1F8102542F0010209
:1053D000C1F810252EB12968012202FA03F3C1F8A1
:1053E000043302B070BD2046FFF720FD0F4B08309C
:1053F00033F81030C3F38203042B12D0052B12D0E4
:1054000001A80194FFF702FD019AD0F81035D340AE
:1054100003F00103991C204602B0BDE8704003F080
:10542000D9B90321F7E70221F5E700BF6C0100209D
:105430002DE9F04F694BDFF8A881D3F80403D8F8C1
:105440006410C0B289B040F00040FFF789FD051E2E
:105450002FDAC24600235AF8701F06A8CDE906339A
:10546000FFF732FD5F4B01930DF118094FF0000B70
:10547000019A12F8013B0192DA0803F007031AF8C7
:10548000022022FA03F3DA071CD409F10409BBF164
:10549000000F14D0D8F864104FF00040FFF760FD03
:1054A000D8F8701006A8FFF70FFD0028DAD125F014
:1054B00000450124002D79D109B0BDE8F08F4FF0EF
:1054C000010BD5E7484B5B440293D9F80010002943
:1054D000DBD0029B91FAA1F11C78B1FA81F141EA8B
:1054E00044142046FFF7A2FC0830059438F81070E9
:1054F000C808BB0819F80020039301F00701012335
:1055000003FA01F122EA010209F8002005A8FFF7D9
:105510007DFC059A039B02F5E072C7F3820650F802
:1055200022205B073746C2F3014224D52046394684
:10553000D6B2FFF785FC05A80594FFF767FC059B2D
:1055400003F5E07350F82330C3F301439E4207D1C3
:105550000021204603F03EF93146204603F03AF997
:1055600005A80594FFF752FC059B012202FA03F3FC
:10557000C0F82035A9E7022A0CD10321204603F008
:1055800029F906F00503012BEAD139462046FFF739
:1055900057FCE5E702212046039203F01BF9032E96
:1055A000F3D0039A032ADBD1022EEDE795FAA5F397
:1055B000B3FA83F304FA03F29B0003F1804303F58B
:1055C000C04325EA0205D3F81005D3F81015C0F33F
:1055D0000520C1F30141FFF733FC6BE70060004099
:1055E0006C010020E1960000E196000010B50B4C24
:1055F0000346207878B91B784FF0804203F001030E
:10560000C2F87835FCF710FC08B9FCF7EBFB012376
:105610000348237010BD0348FCE700BF7F1400203F
:105620000000AD0B0C00AD0B4FF080434FF46072E7
:10563000C3F80823014B00221A607047EC130020C6
:1056400008B5FFF7F1FF03680BB1014A136008BD0D
:10565000EC13002010B54FF08043D3F804436207E9
:1056600007D54FF4847003F000F910B11E4B1B688E
:105670009847A30608D54FF48A7003F0F6F818B1DE
:105680001A4B00201B689847600608D54FF48C70B1
:1056900003F0EBF818B1154B01201B689847210661
:1056A00008D54FF48E7003F0E0F818B1104B0020CD
:1056B0001B689847E20508D54FF4907003F0D5F8C1
:1056C00018B10B4B01201B689847A3050AD54FF46E
:1056D000927003F0CAF828B1054BBDE810401B6872
:1056E0000220184710BD00BFF4130020F013002063
:1056F000EC130020036803F01F025B09026004D072
:10570000012B034818BF002070474FF0A04070479E
:10571000000300500F4B984219D00DD80E4B984201
:1057200015D007D80D4B984211D00D4BC31A5842D3
:10573000584170470B4BF9E70B4B984207D004D800
:105740000A4B984203D00A4BF0E70A4BEEE70120E0
:10575000704700BF80841E0020A1070048E80100B8
:1057600090D0030040420F000024F40000093D00E7
:1057700000127A000048E80173B51646421C1C4628
:105780000546069B18D0012902D1BBB103F0E1F810
:1057900001A80195FFF7AEFF019B00EB83002402F7
:1057A000D0F80027074B44EA86040C4313401C43FF
:1057B00044EA4101C0F8001702B070BD03F0D6F80A
:1057C000E6E700BFF0F8FCFF2DE9F347674B4D69B2
:1057D00090F804909D4206460C4600F0AE8000F220
:1057E0009E80634B9D4200F0AB8000F29080614B45
:1057F0009D4200F0A880604B9D420CBF4FF0806539
:105800004FF08045DFF87481E07E242202FB09839B
:10581000997F60F3000199773379217C02FB038340
:105820009A7F61F341029A77E77E5FBB6269544BCE
:105830009A420CBF4FF0030A4FF0000A237E012B5F
:1058400094BF002301230093206853463A46012168
:10585000FFF792FF0097606853463A460121FFF731
:105860008BFF0097A27EA06853463946FFF784FF5E
:10587000237C83F001030093E06853463A460121FC
:10588000FFF77AFF242303FB0983E2681A62217C75
:105890009A7F61F341029A77207FA77C217E627E06
:1058A000336890B9D4E900ECA468C3F808E5C3F8FC
:1058B0000CC5C3F810454FF0FF34C3F86C45C3F86E
:1058C0001445C3F86805C3F86405003A18BF0122FF
:1058D0000229C3F8C075C3F824553DD003293ED032
:1058E000012901D142F00202C3F854250222C3F873
:1058F000602533792422534358F8033093B330683A
:1059000040F3073002B0BDE8F047FCF76BBA1D4B1F
:105910009D420CBF4FF080554FF0804572E71A4B07
:105920009D4213D0164B9D4213D0184B9D420CBF85
:105930004FF000454FF0804564E74FF0005561E7B8
:105940004FF000655EE74FF000755BE74FF02065B4
:1059500058E74FF0A05555E742F00402C4E742F083
:105960000602C1E702B0BDE8F08700BF80841E00D8
:1059700020A1070048E8010090D00300F8130020A0
:105980000048E80140420F000024F40000127A00B1
:10599000431C07B50ED0019001A8FFF7ABFE019B99
:1059A00000EB8300054BD0F80027134043F00203BF
:1059B000C0F8003703B05DF804FB00BFF0F8FCFF4F
:1059C0002DE9F8430746144C97F80480242505FB7D
:1059D00008F504EB05091E4699F81C30C3B999B1C6
:1059E0004869FFF797FEA8B138466251C9F80460CC
:1059F000FFF7EAFE242303FB0844002363770748EC
:105A000001232377BDE8F8836251C9F80460F1E708
:105A10000348F7E70348F5E7F81300200000AD0B53
:105A20000C00AD0B0400AD0BF8B504460679006818
:105A3000184D40F30730FCF7E3F924237343EB5888
:105A400053B12368144AC3F8082306EBC601206843
:105A500005EB810102F097FF2421236801FB065129
:105A6000D3F80805D3F80C45D3F810758B7FDB0706
:105A70000AD4FFF78DFF3846FFF78AFF2046FFF76D
:105A800087FF086AFFF784FF242303FB06550023E2
:105A90002B77F8BDF8130020520108002DE9F043E0
:105AA0000779554D24237B439046EA180E46517FD3
:105AB00085B08146002940F09C80EB5823B118F056
:105AC000140F04BF0123537796E80F00242404FB2E
:105AD000075404F10C0C8CE80F00206A421C04D01F
