:1000000040670020594F000007580200454F00008C
:10001000454F0000454F0000454F00000000000024
:100020000000000000000000000000001D50000063
:10003000454F000000000000BD4F0000454F00008C
:10004000DD510000B1AA0100DD510000DD510000CA
:10005000DD510000DD510000DD510000DD510000E8
:10006000DD510000DD510000DD510000DD510000D8
:10007000DD510000DD510000DD510000DD510000C8
:10008000DD510000DD510000DD510000DD510000B8
:10009000DD510000DD510000DD510000DD510000A8
:1000A000DD510000DD510000DD510000DD51000098
:1000B000DD510000DD510000DD510000DD51000088
:1000C000DD510000DD510000DD510000DD51000078
:1000D000DD510000DD510000DD510000DD51000068
:1000E000DD510000DD510000DD510000DD51000058
:1000F000DD510000DD510000DD510000DD51000048
:100100007BB972B90029BEBF00204FF0004106E064
:1001100008BF00281CBF6FF000414FF0FF3000F017
:1001200057B8ADF1080C6DE904CE002909DB002BAE
:100130001ADB00F069F8DDF804E0DDE9022304B021
:100140007047404261EB4101002B1BDB00F05CF883
:10015000DDF804E0DDE9022304B0404261EB410137
:10016000524263EB43037047524263EB430300F098
:100170004BF8DDF804E0DDE9022304B0404261EB16
:1001800041017047524263EB430300F03DF8DDF854
:1001900004E0DDE9022304B0524263EB43037047FD
:1001A00053B94AB9002908BF00281CBF4FF0FF31DE
:1001B0004FF0FF3000F00CB8ADF1080C6DE904CE43
:1001C00000F022F8DDF804E0DDE9022304B0704716
:1001D000704700BF10F8012B11F8013B012A28BF1E
:1001E0009A42F7D0D01A7047034611F8012B03F852
:1001F000012B002AF9D17047034613F8012B002A7E
:10020000FBD1181A013870472DE9F04786468C4615
:100210000846089E154674461946002B40F0C280D9
:100220008542B2FA82F245D94AB1C2F1200300FAFE
:1002300002FC2EFA03F3954043EA0C0C94404FEA7B
:10024000154EA8B2BCFBFEF8230C0EFB18CC08FB25
:1002500000F943EA0C43994528D9EB1808F1FF3718
:1002600004D2994502D9A8F102072B44A3EB090354
:10027000A4B2B3FBFEFC0EFB1C330CFB00F044EA03
:100280000344A04214D92C190CF1FF3304D2A0422C
:1002900002D9ACF102032C44241A43EA07401EB1F0
:1002A000D440002334607360BDE8F0874746DDE743
:1002B0006346F1E792BB431B01214FEA154EAFB2F3
:1002C000B3FBFEFC200C0EFB1C330CFB07F840EAD2
:1002D0000343984562D9EB180CF1FF3004D29845DE
:1002E00002D9ACF102002B44A3EB0803A4B2B3FB88
:1002F000FEFC0EFB1C330CFB07F744EA0344A74249
:100300004ED92C190CF1FF3304D2A74202D9ACF11B
:1003100002032C44E41B43EA0040C0E7C2F120037F
:1003200020FA03F1954090402EFA03F303434FEA7D
:10033000154EAFB2B1FBFEFC0EFB1C10190C0CFBF2
:1003400007F841EA0041884504FA02F422D9691805
:100350000CF1FF3004D2884502D9ACF102002944E7
:10036000A1EB08019BB2B1FBFEFC0EFB1C110CFBC8
:1003700007F743EA01439F420ED9EB180CF1FF3116
:1003800004D29F4202D9ACF102012B44DB1B41EAAB
:10039000004192E76046E3E76146F7E76046A3E77E
:1003A0006346B7E7834206D916B9002108467BE7C2
:1003B000C6E900E0F9E7B3FA83F78FB9834201D3C6
:1003C000724508D8BEEB020460EB030301209C4693
:1003D0001EB9002168E73846FAE7C6E9004CF8E79D
:1003E000C7F1200CBB4022FA0CF41C432EFA0CF18E
:1003F00020FA0CF3B84001434FEA14490EFA07F50E
:10040000B3FBF9F81FFA84FE09FB18300B0C08FB4C
:100410000EFA43EA00439A4502FA07F240D9E3187C
:1004200008F1FF3004D29A4502D9A8F10200234412
:10043000A3EB0A0389B2B3FBF9F809FB183308FBF5
:100440000EFE41EA03418E452CD9611808F1FF33B5
:1004500004D28E4502D9A8F10203214443EA0040A8
:10046000A0FB0298A1EB0E014145CE46434602D3C4
:1004700006D14D4504D2B9EB020E68EB04030138F6
:10048000002EA6D0B5EB0E0261EB030101FA0CFCC5
:1004900022FA07F34CEA0303F940C6E9003198E772
:1004A0004046C5E74346D9E7F0B5002283B0114680
:1004B00000AF40F6034006F09BFD044600285BD1E8
:1004C00006F082F921463A1D41F2030006F090FD44
:1004D0000446002850D17A68BE4DD168D1F8010099
:1004E000D1F8051005F1780303C3104605F054F95F
:1004F00021463A1D41F2010006F07AFD044600282B
:100500003AD17868C3685A7885F870205A88A5F877
:1005100072201A7985F87120B3F80720A5F87420A5
:10052000B3F80530A5F8763005F036F921463A1DC6
:1005300041F2020006F05CFD0446E8B9D7F804C0B9
:10054000DCF80C2005F18006531C4132186859680C
:10055000344603C4083393422646F7D1604605F07B
:100560001BF995F87C305A060AD49B4A9B48012116
:1005700025F0B6FB6FF0120420460C37BD46F0BDE7
:100580003A1D002142F2030006F032FD0446002825
:10059000F2D17B68924EDA68D2F80100D2F80510E9
:1005A00003C6184605F0F8F821463A1D42F202004B
:1005B00006F01EFD04460028DED17C68E368B3F82F
:1005C000012091B249B1D97839B1A5F80421DA787E
:1005D000114606F1280029F004FB204605F0DCF85E
:1005E00095F87C601F2316F02006A5F8203118D15D
:1005F000022140F66D4006F00FF90446002800F095
:10060000DB8002210C3025F0C3F901230370467012
:100610002146324640F66D4006F0EAFC04460028CA
:10062000AAD195F89C301B0712D53A1D002142F241
:100630001C0006F0DDFC044600289DD17868C368E4
:10064000D3F80120D3F80530C5E9382305F0A4F824
:1006500095F8D8309E0621D5B91C384606F0CCFD59
:100660000446002888D1042142F2240006F0D4F880
:100670000646002800F0A08004210C3025F088F9FF
:100680003B8803807B8843802246314642F2240027
:1006900006F0AEFC044600287FF46EAF95F8D83023
:1006A0005C062AD5022142F22E0006F0B5F8044677
:1006B000002800F0818002210C3025F069F9B5F89E
:1006C000B03103802146002242F22E0006F090FC59
:1006D000044600287FF450AF01463A1D42F22A003A
:1006E00006F086FC044600287FF446AF7868C368AD
:1006F0005B7885F8223105F04FF8082142F20100BD
:1007000006F08AF80446002856D008210C3025F05F
:100710003FF995F8D81011F0400F024640F202233D
:1007200008BF032388074CBF43F02C0043F00C00A4
:100730008B0695F8D93048BF40F0400013F0090F00
:1007400018BF40F40060CE0748BF40F01000002101
:1007500025F0EDFA2146002242F2010006F048FCA5
:10076000044600287FF408AF95F87C30B5F80411F2
:10077000980624D4C9B93A1D41F2050006F038FCA8
:10078000044600287FF4F8AEB5F804317C684BB914
:10079000E368B3F80120A5F804219A8811481146AE
:1007A00029F01FFA204604F0F7FF082140F6014027
:1007B00006F032F80446C8B96FF06804DCE6002998
:1007C000F3D1094A0548012125F08AFA6FF00404A3
:1007D000D2E600BFC00400207BE7020010A902009F
:1007E00098050020C80500209FE7020008210C3072
:1007F00025F0CEF895F8D830D90702462AD46048BB
:100800004FF0005125F093FA2146002240F60140B6
:1008100006F0EEFB044600287FF4AEAE01463A1D1A
:100820004FF6014006F0E4FBC0B1564A564802219B
:1008300025F056FA07F08AFC044600287FF49CAEA7
:1008400009F0CCF9044600287FF496AE06F026FAAB
:10085000044691E648A1D1E90001D3E77B68DC6852
:10086000B4F80130032B96BF484A494952F8231087
:100870006E468AB06A464748D3614FF400731384CA
:10088000454BC2E9050142F8103F3F484FF4135170
:1008900025F03EFAB4F80120B4F80330022AB54638
:1008A00049D1052B47D83D4A52F823106E468AB0ED
:1008B0006A463B48D3614FF400731384364BC2E958
:1008C000050142F8103F4FF413512F4825F020FA4C
:1008D000637994F806C0D4F80900032BB54698BF95
:1008E000304AB4F8076094BF52F8231028496C4688
:1008F0008CB06A46DFF8B0E0C2E9073C4FF4007301
:1009000093852A4BC2E905E1C2E909604FF47351AE
:1009100042F8103F1C4825F0FBF9A546786804F022
:100920003BFF3A1D00214FF6024006F061FB0446F2
:1009300018B11F4A7AE71649B8E77868C368B3F870
:100940000130A5F8C13004F027FF95F8C1305B07EE
:100950007FF570AF3A1D21464FF6034006F048FB85
:1009600008B1144A62E77868C3685B7885F8C030DC
:1009700004F012FF5EE700BF9088000200800020B4
:1009800010880002C2E7020010A9020014B00200A1
:1009900032E50200E6E7020004000001FCAF0200BD
:1009A000FFE70200ECAF020017E8020007000001B9
:1009B00044E802006DE802002DE9F843D0E9073869
:1009C000856903EB08042F34A5420F46164619D853
:1009D000DFF86C80A3FB080117A3D3E90023FFF71E
:1009E000DFFB0346601BA0FB080123F07F4412A33A
:1009F000D3E90023FFF7D4FB20F07F403C60306058
:100A0000BDE8F883DFF838900BA3D3E90023A5FBFA
:100A10000901FFF7C5FB20F07F440A480A2106A31D
:100A2000D3E90023E8FB0901FFF7BAFB20F07F4080
:100A30003C603060BDE8F8838D49FD1A0700000076
:100A400000CA9A3B00166BF1002800F03C812DE9AA
:100A5000F04FC74C94F85E2012F001058DB040F0C5
:100A60006E81607EFF2300F00300A37619F0FCFB8B
:100A700094F85E00420726D4627F94F8293004EB94
:100A8000820204EB8303166AD3F82C8086B1B8483F
:100A9000314613F0C7F833785B0605D506210EF012
:100AA000D1F9002800F04D81B148414613F0BAF861
:100AB000337813F00E0F40F09D8063698BB10C20EA
:100AC0000DB0BDE8F08F2A4604F15F01C0F3C0000D
:100AD00019F040FDFF28A076CED0284619F0DEFBA5
:100AE000CAE710F0E7FC8146002800F0388110F0DA
:100AF000EDFC8246002800F02F8113F08DFB0546A7
:100B0000002800F04581D0F888004FF6FF73AB84D1
:100B100005F1100B002800F01A8105F17C0205F1A7
:100B200078010EF09BF9B5F8763023F4EF6323F0EB
:100B3000070343F48C7343F00103A5F8763095F86E
:100B4000373003F03F0363F07F0385F8373095F8C3
:100B50008E3023F0070385F88E3095F83C3023F073
:100B60000F03002785F83C304FF4C023C5F88831C7
:100B70002846C5E91277C5F88870A5F88C7085F805
:100B800039706F85C5F82E702F65A5F88E71A5F8A0
:100B9000847115F0B3FC85F85071C5F8549113F0C9
:100BA000EFFD95F8943160F3020385F8943113F06A
:100BB000EDFD95F8943160F3C50385F8943195F80F
:100BC000803167F3410385F880310121284614F014
:100BD000F5F905F1D40015F069FAC4E9159AC4F8DD
:100BE00014B0C5E902772F702D611AF075FD002849
:100BF00040F0A980237E0121C3F342030DF12B00B5
:100C00008DF82B300EF0C6FA024600285DD098F819
:100C10000110304612F0C2FD5649574BB4F85C70D3
:100C2000A0FB0101C0184FF000054FA3D3E900233A
:100C300041F10701C4E902552570FFF7B1FA606080
:100C40000FF060FD00F109083FB9357805F00F0598
:100C5000A5F10105B5FA85F56D09207E636865F398
:100C6000000010F00105207636D0444A0992002099
:100C700010600225424A434F04930BAE0193059244
:100C80000321CDE902000694434600900896079799
:100C90002A460B950FF038FC314610F0C7FCA0B97E
:100CA000394905914AF2D8330093CDE90300CDE9E3
:100CB00001000797089606944346012203210B95ED
:100CC0000FF006FC2EE012F0B9BC6369002B3FF474
:100CD000F6AE12F06FFCF2E6284A2C48049303F2B9
:100CE00047130694029591211360A7FB000301FBB3
:100CF0000731244B0793224B05934FF6FF7309925C
:100D0000022703930BAE18A3D3E900230B97089691
:100D1000FFF746FA4346CDE900503A4628460321FC
:100D20000FF0F2FB314610F081FC0028CDD194F891
:100D30005E300120034384F85E3019F077FA00201A
:100D4000BEE61220BCE612F035FC0320B8E605F141
:100D50008000C5F88800E0E6484610F0B1FB0720A7
:100D6000AEE600BFAFF300808D49FD1A070000001A
:100D70000C2C002000CA9A3B8C49FD1A002C002044
:100D8000193801006508010005330100002AE784D5
:100D9000504610F0A1FB484610F092FBDFE700BF81
:100DA00070B5037E8AB0C3F342030D4604460121A9
:100DB0000DF1230016468DF823300EF0EBF9717813
:100DC0000246284612F0EAFC1F49204AA0FB0131E6
:100DD000981841F107011AA3D3E90023FFF7E0F9BE
:100DE00063689842054621D21B1A00220192184AD4
:100DF0000293184BA21AA3FB0232022152090023CC
:100E00000A4409AE099114490591CDE90333032140
:100E1000D2B20696009318460FF0D6FB314610F07A
:100E200005FC38B9656000200AB070BDFBD9C21A54
:100E30000023DBE70C200AB070BD00BFAFF30080D9
:100E40008D49FD1A0700000000CA9A3B8C49FD1A23
:100E50000C2C00204FECC44E65080100000000007F
:100E60002DE9F04F06468DB08A46012002219946B1
:100E700015461CF0DFFB00220B90022101200EF032
:100E80003DF83B494FF4D07230460DF0C7FFC71C08
:100E9000384B0093FFB201964B463A4601210020A1
:100EA0000FF0ECFB10F0FD0F0ED0334A33493448FD
:100EB00040F68F0323F0F0FA002383F31188BFF389
:100EC0006F8F0323184602DF2E4CA5FB044526A393
:100ED000D3E9002320462946FFF762F908960696D3
:100EE00073680493284B20F07F48A8FB0331E01A75
:100EF000264B07934FF00702254B059302FB081181
:100F00004FF6FE7365EB010103934FF47A720023F1
:100F1000FFF746F94FF0000BCDE90180CDF800A0B6
:100F20004B463A46012158460FF0D2FA10F0FD0F19
:100F30000DD0114A1149124840F6A40323F0ACFA2F
:100F40008BF31188BFF36F8F0323184602DF0B9BCF
:100F500013B90DB0BDE8F08F0122022110460DB08B
:100F6000BDE8F04F0DF0CABF8D49FD1A0700000023
:100F700028190020B941010090BA020054BB0200B8
:100F800004B4020000CA9A3B8D49FD1A5941010080
:100F900079960100000000002DE9F0418468A28CE0
:100FA0004FF6FF739A428CB045D00546204615F0A7
:100FB00043FD2B7D012B00F02281022B00F01581D7
:100FC000002B00F0F48094F85061002E40F0108166
:100FD0002B8AE78D94F93720CDE90A6673B3002A8E
:100FE000C0F25A810023A4F88A31AA7CA38DFD188F
:100FF00002F003030135012BADB23BD0B4F88E31C2
:10100000002B00F005819D4280F059815B1B9BB253
:101010000022062BA4F88E31E28540F2F68094F986
:1010200037309342C0F25081002326E09DF827100C
:10103000204613F089FC0CB0BDE8F081002AB8BF4F
:1010400084F87561A38DAA7CFD1802F003030135B5
:10105000012BADB20ED0B4F88A31002BCED0AB420A
:1010600040F23C815B1BA4F88A31B4F88E31002B2E
:10107000C9D102E00023A4F88E3194F83C2063F338
:10108000820284F83C2029460DF12702204615F003
:1010900071FA7430CAD0B4F888312BB1AB4240F247
:1010A000EC805B1BA4F88831B4F884312BB1AB42DF
:1010B00040F2DA805B1BA4F88431E58D16B9AF42AB
:1010C00000F0C9800135ADB294F8D13013F00107BA
:1010D00031D1DDE90A130A46002B40F0CC8000290B
:1010E00000F0BB801F461846A28C24690694CDE907
:1010F000035603329A4D0290CDE90017D2B2012176
:10110000002005950FF060FA10F0FD0F93D010F05D
:10111000B7FA84428FD0934A934994484FF4AE6310
:1011200023F0BAF9002383F31188BFF36F8F0323F1
:10113000184602DF7FE794F937206FF30003002A97
:1011400084F8D1307FDB94F87600C0F3C00100F062
:1011500007001AF0D9F8B4F86E20B4F86C301344D4
:10116000E28B03F23F1313440344814A8148072171
:10117000E3FB0021104678A3D3E90023FFF710F822
:10118000DDE90A1320F07F4260686260904235BF5B
:10119000171A801A002000270A46002BA4D157EA0C
:1011A000010CA1D1002858D019461F469CE794F89D
:1011B0008E3003F01803182B7FF405AF218DB4F89F
:1011C00086218B1D9A42C4BF931F5B1AB4F882110B
:1011D000CCBF9BB21346994200F09C80A4F88231A8
:1011E000A4F88431A4F88821EDE63D2684F8506106
:1011F000314620460CB0BDE8F04113F0A5BB0023FA
:10120000A4F88831A4F88431DDE60126334634E7BA
:10121000E28C052A97BF013240F2E2434FF4FA73A1
:1012200092B203FB02F2B4F88C3142F2107101FB6E
:101230000323013BB3FBF2F39BB2A4F88E31002BE6
:101240007FF4E1AE19E794F87700012100F0070080
:101250001AF05CF87FE7354636E7002D43D00027CB
:10126000114638463B463FE70023A4F88431204628
:1012700015F022FA21E7384636E710F06DF90146FD
:10128000A0B30023A4F88831A38CC3801B2303716F
:10129000006810F033F907E794F875316BB3013B40
:1012A00084F8753104F1D408404614F041FFB8B316
:1012B000404614F03DFFB8B30023E38592E60821D1
:1012C000204613F041FBB6E6A7B9D4F878315A08A6
:1012D00013F0010336D1C4F87821A5E63E2120465B
:1012E00013F032FBA7E6002EB9D1A4E60123A4F83F
:1012F0008831D9E613460126BFE60AAA0BA928467B
:10130000FFF75AFBDDE90A231343CBD0237884F897
:101310007531C7E7B4F8881100297FF454AE5FE750
:10132000FF2013F0D3FAC3E70246D4E91E010DF003
:10133000ADFD0028C0D194F83C301B0744BF238D7D
:10134000E3854FE642F000421E46C4F878213B4652
:1013500093E600BFAFF300808D49FD1A070000003F
:101360001541010090BA0200D0BB020004B4020093
:101370008C49FD1A00CA9A3B2DE9F04F89B0CDE99E
:101380000623BDF84C2003780392BDF85020BDF829
:1013900048B0BDF85480068E029104460492002B9A
:1013A00000F0C780013EB6B294F87600A6EB0803C1
:1013B0009DB2C0F3C001D4F80C31059500F00700D0
:1013C000019319F0A1FFE78C052F40F2AA8017FBCB
:1013D00005F7BFB240F2E249BBF1050F40F295803C
:1013E000B4F86E20B4F86C30134403F2D513034400
:1013F0007B4A7C480721E3FB00214FF09613E36111
:1014000096231046238474A3D3E90023FEF7C8FE75
:101410005D4620F07F4040F2E24303FB05F509FB07
:1014200007F1B1FBF5F71FFA87FA606005FB0AF0D8
:10143000814257465AD2401A6A4967A3D3E900232A
:10144000A0FB0101FEF7ACFE019B20F07F4999440F
:10145000638DB4F814211344984494F83730A8EB02
:1014600006084744DB0967856AD15F4A5F496048DF
:1014700040F6581323F010F8002787F31188BFF3C4
:101480006F8F0323184602DF2E46039B2385049BA0
:10149000A4F88C3129462046A4F826B015F0A6F809
:1014A000544B218D2B44881DB3FBF5F39AB2904227
:1014B000A4F8862104D2C1F57F41FA310A4492B2E0
:1014C000029BA4F8822113B10023A4F88E314B466D
:1014D000324639462046FFF7C3FC94F8803143F08A
:1014E000010384F8803109B0BDE8F08F091A3D4846
:1014F00039A3D3E90023A1FB0001FEF751FE019BB4
:1015000020F07F49A3EB0909A2E74FF096130BF1F6
:101510000105E36196232384ADB20A204FF4FA73E8
:101520007BE7059B013717FB03F7BFB24FF4FA794E
:1015300052E7438D1E44B0F814311E44B6B233E76F
:10154000226C0599A36C274F02FB1133A3641AF098
:1015500013F9064694F87401C0F342001AF00EF92C
:10156000064405FB06F6244B06F5742606F23F26D4
:10157000A3FB0636B60CA36C26640AFB06F06A08C9
:101580000344963A934228BF1346C4E91123069BAD
:1015900040F2E24808FB03F323650023A0FB0701A8
:1015A000C4F87C310CA3D3E90023FEF7F9FD134BFB
:1015B000079AA9EB0009A3FB0230800A08FB00F0A0
:1015C000A0FB070104A3D3E90023FEF7E9FDAE1B4E
:1015D00020F07F4759E700BF8D49FD1A0700000042
:1015E0008C49FD1A00CA9A3B90BA0200DCB4020092
:1015F00004B402007FC3C90183DE1B435917B7D16E
:101600002DE9F04F0B6891F81180D3F80090037F1B
:10161000176895B00446C3F38013D0F81E008DF808
:101620003F30B8F1FF0F638C12900E461546ADF8AF
:101630004C300DF1480A4DD19AE803001090ADF8F6
:1016400044102346E28D53F82EBB9B78AB722A815F
:10165000D4F82A306B60D4F83A30C5F8223005F15E
:10166000220094F83E30037105210DF093FD95F8AA
:10167000273000F03F0060F3050385F8273094F829
:101680003F30C3F3040285F82820A28EEA820128A5
:1016900003F01F0392B205D91B3303F01F030B2B7A
:1016A00000D81ABB0022C9F8082095F82C3062F344
:1016B000000385F82C30E56801265846214626713E
:1016C0000FF010FF28682E7129460FF017FF15B094
:1016D000BDE8F08F10AA0DF13F01404618F0D8FA8E
:1016E0009DF83F3002338DF83F30AAE73368002180
:1016F0005960E38EEA8A2B8340F2E24303FB02F255
:101700000B92638E0D93384614F084FF94F83F20BB
:1017100097F87411520962F3430187F874111AF0B3
:101720002BF80C9097F87401C0F342001AF026F8D9
:101730000C9A0B99104401FB00F0BB4A00F5742091
:1017400000F23F20A2FB00204A08800C963A286352
:101750006A6394F8312040F2E24302FB03F36B64C6
:10176000238FA7F88C31384614F040FF0B99AF4B0C
:10177000AF4AC7F890210B44B3FBF1F39AB2A7F834
:101780008621298B881D824204DDC1F57F41FA3113
:101790000A4492B2A7F882216B68C7F878312346D1
:1017A00013F81C2FC2F340120C92DA0700F1FA80F2
:1017B0004FF48073A38399F81A0018F0DFFF04F147
:1017C0002B03002800F0EA80626AC4F82B20228DE7
:1017D0009A80B8F1FF0F00F00881BAF8043012982F
:1017E000A4F82930C4F825009DF83F30A37710985D
:1017F000BDF84430C4F81F00A4F82330EB8A638698
:101800002B8BA386B7F88C31E38697F87431C3F33A
:10181000420384F83830384612F00AFDA882E0808E
:101820002146584674680FF05DFEAB8AE3801C23A6
:1018300023710C9BD4F80080002B40F0CA800C9BD5
:101840002377214640460FF059FE95F86700B5F81A
:101850005C80B5F85E40012100F0070019F056FDEC
:10186000444404F2D51403198046724C724807218F
:10187000E3FB04014FF09613C5E9033368A3D3E9F2
:101880000023FEF78DFC20F07F4078600B9B2D6BD2
:101890000D995D1BF36840F2E24202FB013303F253
:1018A000B3410022A1EB0808012002210DF026FB24
:1018B000484612F073F90246A8FB0401144658A3E7
:1018C000D3E90023FEF76CFCCDF80490B3685B49C4
:1018D000009120F07F4AA21C3A3BD2B2534401212E
:1018E00000200EF0CBFE012800F0858099F818301A
:1018F000DB0766D4384612F09BFC4E4BA5FB0398E1
:10190000044647A3D3E9002348464146FEF748FC76
:101910004B4BB6684B4A079220F07F45A5FB03313D
:10192000B9EB0300484B059340F2E3130697089385
:101930007B684FF0000BCDE903B34FF0070303FBC7
:10194000051168EB01014FF47A720023FEF728FCC1
:1019500003343A3EE4B2CDE90150CDF800A033465D
:101960002246012158460EF0B3FD10F0FD0F0DD0B8
:10197000364A374937484FF4F27322F08DFD8BF326
:101980001188BFF36F8F0323184602DF0122022163
:1019900010460DF0B3FA15B0BDE8F08FC4F82B0077
:1019A000988016E7294A2C492A48FD2322F074FD25
:1019B000002383F31188BFF36F8F0323184602DFE0
:1019C000F6E6002301220093184611460EF014FE9D
:1019D00090E795F8273043F0400385F82730281D1D
:1019E00017F060FF012328852AE70022C4F825208C
:1019F000A4F82920F8E60FF043FE81453FF476AFC6
:101A0000124A1649134840F28B2322F045FD002369
:101A100083F31188BFF36F8F0323184602DF65E756
:101A20008D49FD1A0700000083DE1B437FC3C901F7
:101A3000404B4C0000CA9A3B8C49FD1A3996010074
:101A40008D49FD1A0596010079960100C4C0020077
:101A500054BB020004B4020004B8020020C102001A
:101A60002DE9F04F8FB00DF137010446DFF8D0A01B
:101A7000DFF8D0800DF136000FF0B0FD9DF8363064
:101A80009DF837B00B930EF03DFEDAF80060A6FB30
:101A9000085629A3D3E9002300278146314628466A
:101AA000FEF77EFBCDE90777069420F07F44DAF855
:101AB0000400254B0593A0FB08011FA3D3E90023D5
:101AC000FEF76EFB214B20F07F40A4FB0331072281
:101AD00002FB0411CDE90370E81A66EB01014FF433
:101AE0007A720023FEF75CFB0097CDE901404B467C
:101AF0000B985A4603210EF0EBFC10F0FD0404D0C5
:101B00006FF08B000FB0BDE8F08F1148114A002331
:101B100020F046FD20B9DAF80C000FB0BDE8F08FD8
:101B20009DF837209DF836000094234603210EF0DF
:101B300063FD6FF07300E5E78D49FD1A07000000B3
:101B40006C33002000CA9A3B39AA01008D49FD1A66
:101B500054330020447B0B0038B50F4D04460EF083
:101B6000D1FDA9680EF0D0FD696803460B48B3FBB0
:101B7000F4F4A1FB00011C4405A3D3E90023FEF704
:101B80000FFB20F07F40844294BF0020012038BD2D
:101B90008D49FD1A070000006C33002000CA9A3BF3
:101BA000F0B5C468636883B00546002B64D11BF0B0
:101BB000B1F800201BF0D4F8002108461BF0C2F851
:101BC0000022252108201BF0FFF8474B019301A8B4
:101BD0001BF0E6F8454940F25B601BF0A1F9237A5F
:101BE000C3F3420262F306132046237219F0E2FFA8
:101BF00018F0A0FE58BB637A9B071FD127682E6898
:101C0000384619F029FB06446A6806F109010120EB
:101C10001BF0CEFA1BF08CFB204611F0CBFF811C91
:101C20003246C9B2384619F019FB054678BB204642
:101C300019F0BAFA88B9002003B0F0BD012018F0FD
:101C4000E9FA4178821C00781BF052FAD6E7607AF4
:101C500010F0030018BF0120F1E7254A2549264866
:101C600040F2294322F018FC85F31188BFF36F8FEF
:101C70000323184602DFDEE793F82C309A0796D04C
:101C80001E4821461BF004F81BF0EAF8D3E7184A77
:101C90001B49194840F2114322F0FEFB194B072162
:101CA000A5FB030301FB05310DA3D3E90023FEF7D8
:101CB00077FA15490246154822F0EEFB002585F318
:101CC0001188BFF36F8F0323184602DF10482146A7
:101CD0001AF0DEFF1BF0C4F86FF08B00ACE700BF1A
:101CE00000CA9A3B00000000D6BE898E55555500AB
:101CF00040C50200D8B5020004B40200EDB30100F3
:101D0000DCB402008D49FD1AF0C50200C4C5020012
:101D100089B70100000000002DE9F041C468A28AE3
:101D20004FF6FF739A4282B000F0DF8005461AF04A
:101D300085FA2B89628B208CA3831A4492B21044BB
:101D400094F82730E28380B2411C21845E064FF074
:101D50000001618304F1220100F1A18003F03F0042
:101D60000B4694F82810009004F1290017F052FD5A
:101D70000646D4E90C31A28B02FB0333A26B134459
:101D8000E26B8B4294BFD21852188A4228BF0A468F
:101D9000E263616C226C94F867301144616494F8DA
:101DA0007E2094F82C10C3F3020363F3061112F0A3
:101DB00004024FF0000384F82C10A363236478D04E
:101DC0001AF0A8FF00201AF0CBFF201D1AF0E8FF40
:101DD0002389A17A40F25B6043EA01411BF0A0F83D
:101DE000304619F04DFA214659481AF051FFA089A2
:101DF0001BF0D2F994F8662094F86700C2F3C00390
:101E0000002102F0070200F007001BF0EFF8204667
:101E10001AF0BEFA27682E68384619F01DFA0644F3
:101E20006A6806F1090100201BF0C2F980461BF028
:101E300053FA00201BF06AFAE36B94F8670003F191
:101E40002F02636C00F00700012103EB42051AF03A
:101E5000F9FF4544054494F8670000F007000228A4
:101E600025D004280CBF4FF4BC73282301211D4446
:101E70001AF0EAFF28441BF021FAA18A0331324606
:101E8000C9B2384619F0EAF90546002834D120468F
:101E900019F08AF9D0B9002002B0BDE8F0810A46F5
:101EA00003F03F03218D17F001FD064661E718237B
:101EB000DCE7D4E91A010CF0E9FF002880D194F89E
:101EC0007E3043F0040384F87E3079E7214A2249CA
:101ED00022484FF4B07322F0DFFA85F31188BFF384
:101EE0006F8F0323184602DFD5E71D4821461AF0FD
:101EF000CFFE1AF0B5FFCEE7164A1A4917484FF43D
:101F0000AB7322F0C9FA184B0721A5FB030301FBB1
:101F100005310DA3D3E90023FEF742F91349024628
:101F2000134822F0B9FA002585F31188BFF36F8FAB
:101F30000323184602DF0F4821461AF0A9FE1AF0C3
:101F40008FFF6FF08B00A7E700CA9A3B00000000EC
:101F500009C601007CC60200D8B5020004B4020024
:101F6000EDB30100DCB402008D49FD1AD0C60200B9
:101F7000C4C50200C9B301008B1E59425941014B2F
:101F80001970704714400020014B1870704700BF53
:101F900012400020014822F072BA00BF26D402008D
:101FA000014A024822F06BBA27D9020048D4020045
:101FB000014822F064BA00BF68D40200014822F050
:101FC0005EBA00BF7CD40200014822F058BA00BFBC
:101FD00090D4020008B5034822F051FA024B0022C7
:101FE0001A7008BD9FD40200134000200349044B1F
:101FF0000448002A18BF194622F041BAB9D4020099
:10200000B4D40200C1D4020010B50146044606480B
:1020100022F035FA012C01BF044B5A221A7000201D
:1020200018BF6FF0850010BDD0D40200A60B0020B1
:10203000F7B5694623F05FFA044698B9DDE9005622
:1020400028F03AF84FF47A77A0FB073207FB01211A
:10205000DB0B43EA4143ED1ADFF810C066EBD136E3
:10206000CCE90056204603B0F0BD00BFB80E0020FA
:1020700019B1034A034822F002BA034822F0FFB91B
:1020800027D90200EFD4020011D5020070B5037801
:102090008AB004460E4607AD032B20D8DFE803F0D4
:1020A00002191B1D11492846FEF79EF80595637815
:1020B0000493A3780393E3780293237901936379DC
:1020C0000093A3790A4A1E21304621F03FFC0AB052
:1020D00070BD0849E7E70849E5E70849E3E7084A2A
:1020E0000A21284621F032FCE0E700BF1CD502009F
:1020F0003ED5020023D502002AD5020034D50200C5
:10210000DCFD020000B589B024F086FA6946FFF7CD
:10211000BDFF0348694622F0B2F909B05DF804FB3F
:1021200061D5020010B588B00C4624F075FA6946F6
:10213000FFF7ACFF03482246694622F0A0F908B039
:1021400010BD00BF78D5020070B5044627F0B4FF7B
:102150004FF47A75084EA0FB052305FB0131D6E943
:102160000003D20B42EA4142121843EBD13320461E
:10217000BDE8704023F0FDB9B80E00202DE9F04114
:1021800000208CB005F082F80146002872D13D4D48
:102190003D4822F074F923F026FA0FCD02AC0FC4AB
:1021A0002B6823600123394900930322384B02A88E
:1021B00006F008FA0146002858D0364822F05FF9A8
:1021C0003548364E364D01F0E1FF364802F0AEF8A4
:1021D000354809F06BFF354807F0CEFC344A3548E6
:1021E0000D210AF07BF92522044602A9304803F0AC
:1021F00015FE314802AA214622F041F94FF4004071
:10220000002127F0D2FE337813B1012001F0CAFF7C
:102210002B780133D8B2A02808BF5A20287002F0CA
:1022200099F802F0EFF8431E13F0FF0008BF642096
:1022300002F0EEF8214B1B78002BDFD0002CDDD014
:102240001F4F38780028D9D11E491F4B8B601F4B78
:102250004C604FF00108C1E90337A1F814800AF07F
:102260008DFA0028CAD187F80080C7E7184822F005
:1022700006F9A5E7174822F002F900200CB0BDE8E6
:10228000F08100BFA0AA0200AED502005CAB020044
:1022900054AB0200C5D5020048AB0200124000203A
:1022A000A60B0020C8060020EC060020D406002063
:1022B00094D6020074AB02000DD602001440002038
:1022C00013400020641D0020ED1F0000D51F0000FA
:1022D000EBD502008ED5020010B5094C0A4491429C
:1022E00000D110BD11F8013B584003090001E35C27
:1022F000C0B2434018091B01205CDBB25840EEE736
:10230000B6D602002DE9F04F91B08407009302F099
:1023100004030293C2F3C20303F10103DDF86880F2
:10232000039205460E46059340F0BA81041D30B174
:10233000072909D86FF01B0011B0BDE8F08F01F03C
:1023400007063444C6F10806009B4FF00009591EE9
:102350004FF0040A4FF0FF330193CDF810904F4631
:10236000CB4653460DB1009A22600598002800F331
:10237000E8809848009A824203D397488242C0F08E
:10238000E080039AA4EB050E92074FEA9E0000F14D
:1023900003810F2F00F2B180002D00F0058107F1BD
:1023A00040020DEB020C019A0CF8200C0CF8102CDA
:1023B000049801300490E7E07A285DD84B280ED8C5
:1023C000472859D829282DD8252852D054D8202834
:1023D0007AD02338D0F1000B4BEB000B74E04C3873
:1023E0002E2849D8DFE800F0704848484848484857
:1023F000484848484B484848484848484859484B46
:102400004B595959704B6D487048184B18484882C1
:102410007F4B48484B487F0000204FF0000B4FF0A7
:10242000040A38E02A38C0B2012202FA00F010EAA9
:102430000E0F49D110F0625C2FD110EA020B43D08D
:102440006046013C5444B4FBFAF40AFB04F4002D4A
:1024500061D0A3EB050CA444B4453FF66BAF002854
:1024600068D1042B47D158F8043B2360043404237B
:102470002AE0019A013A01924FF0000B24E011F892
:10248000010C6C2834D111F8023C00206C2B8346DF
:10249000C5D14FF0080A5346D3E708F1070828F0E2
:1024A00007080734F8E802AB24F0070435B10698B2
:1024B0002044B0423FF63EAFC4E900AB08344FF0D1
:1024C000000B4FF0080A534611F8010F002878D08E
:1024D000BBF1000F7FF470AF2528F5D1019B0133CC
:1024E00001934FF0010B4FF0040AECE7584694E7D4
:1024F00000208346A5E7082B02D06FF015001BE7EC
:1025000008F1070828F00708F8E80223C4E90023C7
:1025100008340823D8E768B9042B02D108F104086D
:10252000A4E7082BE9D108F1070828F0070808F10B
:102530000808EDE7059A013A059258F8042B009235
:1025400010E7039A900720D5A4EB050E4FEA9E00F2
:102550004FF0010CBEF5007FCFD20F2FCDD8F5B1D3
:1025600007F140020DEB020EC0B2019A0EF8200CEA
:102570000EF8102CBCF1000F3FF41AAF60F07F0092
:102580000EF8200C09F101090137C5F108020434E5
:1025900006924FF6DA7E97E74FF0000CDAE7BCF1CF
:1025A000000F01D00136EFE7029802360028EBD188
:1025B0000098CDE90631FDF71FFEDDE9063106443E
:1025C000E2E7631BB3F5806F97D23DB9A6F108042B
:1025D000E018B1E6F8A30200A8050300029A2860FB
:1025E0009B082B709DF81030C2B1EB7085F80290FB
:1025F000B9F1000F05D008A80022C5F1010C9742DF
:102600000ED1C5F101030DF120084FF0000A01932E
:102610000DF1300B574512D1601B8DE66B70E5E76D
:1026200010F8013B190608D50CEB040EB64503F073
:102630007F033FF67FAE04F8013B0132DFE7B9F1DB
:10264000000F03D098F90020002A17DB029BD3B1BA
:102650001AF80B2004F8012B0022019B18191044D2
:10266000B0423FF667AE98F8000004F8010B0099FD
:102670000392204627F0F8FD039A14440AF1010A58
:1026800008F10108C6E798F8002055F822300093B9
:10269000029B45F822300098FDF7AEFD421CDCE7B6
:1026A0006FF00D0048E600BF2DE9F04F97B000AF86
:1026B00090F802A0D7F880B03B62CBF3C003044689
:1026C000FA62BB61894641B9457800780AEB80001F
:1026D00020444D4517D8A0EB0409E378FB61BAF11B
:1026E000000F02D01BF0010F16D1FB6953BBFB6A30
:1026F0001BB13A6A4946204698474D4628465C3702
:10270000BD46BDE8F08F461C3046FDF775FD013033
:10271000304409F10109DCE7237862687A62FA6AD9
:102720009900796104EB8301002A40F000814D4655
:102730000E4601EB0A094FF000084E454CD101EB63
:102740000A0610E01BF0020FD1D023789A007A61BC
:1027500062687A62FA6A04EB8301002A77D14D46F7
:1027600001EB0A0690461BF0050F0CBF0223012364
:10277000FB62FB6906EB430A0BF00203BB625645A2
:10278000BCD016F8021B16F8013C54F82390994B64
:10279000994502D3984B994536D3BB69002B40D05D
:1027A000786A21F043FE00283BD0E9468AB06A46A9
:1027B000924B53617B6AC2E906314FF40073138474
:1027C0008F4B42F8103F8F4800234FF4125101F015
:1027D000DDF8023DCD46D2E716F8013BF96254F828
:1027E0002300FDF709FDD7F88430F96A01304BB1B9
:1027F000D7F8883098453EBFD7F8843023F81800C2
:1028000008F10108054498E7BB6923B1786A21F013
:102810000DFE0028C9D11BF0010F05D1FB6AED1A8E
:10282000ADE7BB6A002BAAD04846FDF7E5FCD7F818
:10283000843053B1D7F8883098453FBFD7F884200B
:10284000431C22F8183008F10108054497E7BAF153
:10285000000F72D01BF0040672D0D046002607F19C
:10286000480052463B61B96227F0FEFCB96A3B69F9
:1028700001EB0A02BA62FA69F9695200FA60BA6AAF
:1028800002EB41023A610BF00202BA603A69B96A9E
:102890008A4257D162787A621BF0020F32440CBF31
:1028A0004FEA580100211BF0010FD2B240F09F8087
:1028B0001BF0040F14BF40460020BB616270A07083
:1028C000E1703A6A7969FB6A20469847051EFFF66F
:1028D00015AFBB6923707B6A6370FB69E370414687
:1028E0003A6AFB6A84F802A007F148009847B0F101
:1028F0000008C0F2BB807B693A6AA9EB0A01C91AD9
:10290000FB68C91AD7E90A0398470028C0F2B080CB
:10291000A84408EB00054FF0000B07F1380AB34557
:1029200072D300213A6AFB6A08469847E6E65646A3
:102930004FF0000807F1380093E75646D04697E776
:10294000B04695E7BA6A12F8021BBA6212F8015C47
:10295000284A54F82500904202D3274A90421ED3B9
:10296000BA6932B1786A7B6021F060FD7B6800282B
:102970008CD1BA6802BB08F1280207F1300C08F1CB
:102980000100944407F1580252FA80F008F102085D
:102990000CF8101C5FFA88F800F8105C76E7BA694A
:1029A0003AB1786A7B6021F041FD7B6800287FF4B2
:1029B0006DAF1BF0010F09D006F1280207F13000BE
:1029C000711C161806F8205CCEB25FE71BF0040FEE
:1029D0003FF45CAF08F1280207F1300008F1010173
:1029E00002EB000808F8105C5FFA81F84EE700205F
:1029F00063E700BFF8A30200A8050300C6D60200E3
:102A00000400000148A902001BF80A3087F837309B
:102A100054F82390D7F884302BB3D7F888309B45EF
:102A200021D2D7F8843033F81B803A6AFB6A01213F
:102A300007F13700984700281ADB0544B8F1000F6A
:102A400006D14846FDF7D8FB00F101081FFA88F8C7
:102A50003A6AFB6A414648469847002808DB054425
:102A60000BF1010B5BE74FF00008DEE7454645E65A
:102A7000054643E6014B1860704700BF340700204D
:102A800080B505460E461746984620F051FB034692
:102A900027F0A8FCDFF81890044649F800304246B9
:102AA00030463946A84754F8090002F071FA00BFD1
:102AB000080000002DE9F84344690569C76840F241
:102AC0006C73E1170135E41841F10001022D8CBF50
:102AD00000230123E41A61F100010029064607F1F1
:102AE000FF3751DA6FF4C77020184FF4C8724FF0F7
:102AF000000361F10001FDF703FB264B03FB0044DB
:102B0000D6E90083B6684FEAE37C4FF03C0E994665
:102B10006346C6FB0E93A9FB0EC60EFB0366A30815
:102B200040F26D1E022D0EFB043302463B448CBF67
:102B30006FF00200092064270544B4FBF7F49920E4
:102B40001B1B154C45431CEB080C4FF0050005F111
:102B50000205B5FBF0F5A2FB04202B4404FB0101A8
:102B600046EBE87698180D4A41F1000380180C4AAC
:102B700063F10003A0FB020102FB031110EB0C0048
:102B800041EB0601BDE8F8834FF4C87200232046EC
:102B9000B1E700BF70FEFFFFB13A02009405F5FFF8
:102BA000805101002DE9F047058B04462807904627
:102BB00011D4022905F0070540F0CC80204621F011
:102BC00076FF78B10138218B042811D8DFE800F0B6
:102BD000C2106D85950001290CBF45F0100545F028
:102BE0002005258388F31188BFF36F8FBDE8F08738
:102BF00001F0070AAA4500F0A5800027B9463E4625
:102C0000A368002B00F0BC8041F00801218388F309
:102C10001188BFF36F8FA168002900F0BA800D689A
:102C2000002900F0B680D1F8048033465246204691
:102C3000C047002D76D02B6829461D46F0E701F0ED
:102C400007035A1F012A1BD8002221F00701062B77
:102C5000276889B2C4E9002209D13B4603E0628BB0
:102C6000013262831B68002BF9D141F002012183FC
:102C7000204621F01CFF00287AD041F0200176E0A8
:102C8000042B0AD121F0070189B22183204621F0CB
:102C90000EFF10B141F020012183218B01F0070AC2
:102CA000AA454FD00027B946AAE7236921F00701BA
:102CB00041F00601062DD3F8009021832DD1B9F102
:102CC000000F3FD041F00801218388F31188BFF342
:102CD0006F8F3A492046C84729E021F00701236950
:102CE00041F0040189B2042DD3F804902183E6D089
:102CF00000273E464FF0040A82E721F007012369CE
:102D000041F0050189B2052DD3F808902183D6D072
:102D100000273E464FF0050A72E700273E464FF077
:102D2000060A6DE72B4687E7B9F1000FD1D1EFF323
:102D30001188202383F31288BFF36F8F238B23F036
:102D400008032383258BEA062ED525F01003238361
:102D500005F007056669218B002EBFF670AF0023D2
:102D60002768C4E9003321F0070141F00101218304
:102D7000218B01F0070AAA454FF000097FF440AF0C
:102D8000002F9CD041F00801218388F31188BFF304
:102D90006F8F002FC8D03D683946334652462046D3
:102DA00021F0B1FE2F46F4E7AB067FF51BAF25F00F
:102DB0002003238305F0070500E700BF334B020023
:102DC0002DE9F7430F4606460821C06ADFF8509008
:102DD00021F0FDFF3C68241A80463C6004EA0905A6
:102DE000AC4203D8002003B0BDE8F08308236A4654
:102DF0002146304621F081FF0028F4D16946304653
:102E000021F0EFFF40B1BDF80230BDF804203C6076
:102E100005EA090513441D44A4EB0804E0E700BFDC
:102E20000000FFFF73B504460821C06A124E21F06E
:102E3000CEFF4FF6FF726368ADF800208DF80620D4
:102E4000A289191833401344181A00256060684697
:102E5000ADF80210ADF8045021F0B0FF69462046ED
:102E600022F07FF82046211D21F080FF636828466C
:102E70003340A36002B070BD0000FFFF2DE9F047B2
:102E800004468AB000F11407384626F0C1FDA06A56
:102E90008368DB689847E06250B9864A864801211A
:102EA00021F071FF6FF0150528460AB0BDE8F087E4
:102EB000A06A8368DB6898470368013B1F2B01D930
:102EC0007E4AEBE7A06A216807AA25F03FF808B11F
:102ED0007B4AE3E7A5892DB1089BB5FBF3F203FB21
:102EE00012550DB1774AD9E7E389012B01D8764A0B
:102EF000D4E7E36A029593F805904FF0FF334FF063
:102F0000FF3238461FF018FAE06A082121F05FFF0F
:102F1000A8460646E3891FFA85FA534508D8E3898F
:102F2000434523D138461FF07FFA6FF02C05BBE7ED
:102F3000A1892B04891B13FA81F14A4608232046F4
:102F4000029121F0E8FE78B102A9204621F00EFF9F
:102F500008F10108029908234A4620461FFA88F81A
:102F600021F0D9FE0028DAD00135D3E753450BD143
:102F7000029908234A46891B204621F0CCFE18B945
:102F800002A9204621F0F2FE02A92046FFF718FF11
:102F9000054618B138461FF047FA85E7029B636083
:102FA0004FEA13484FEA0848C4F80880D4E90113EF
:102FB00099420FD3082303AA204621F09EFE05461E
:102FC0000028E7D103AB13F8012B91453DD1013522
:102FD000082DF8D163681B0C1B0402A9204602933C
:102FE00021F0C4FEA38902994A46204621F093FEAF
:102FF000051ECFDB63687BD006EB03084FF6FF7935
:10300000A389CDF808801FFA88F29B1B9A4238D317
:103010002E4A2948032121F0B6FE6168204621F09E
:10302000B4FE05460028B5D16368294AA18913403A
:103030000B44A3EB460363601340A360204621F0DA
:10304000B8FF0546002D6FD0A4E703A9204621F064
:10305000C8FE626810B9921B6260A7E7BDF8105005
:10306000BDF80E10E06AC4F80880294421F0AFFED4
:1030700040449042A060EED1002DECD06FF01C05D2
:103080007DE0082305AA4146204621F036FE05468C
:1030900000287FF47FAF05A9204621F0A2FE38B1B9
:1030A000BDF814304B4503D1BDF81830002B6CD05F
:1030B000B044A5E78ED7020070A90200B0D7020085
:1030C000CDD70200E5D70200F9D7020056D802009A
:1030D0000000FFFF5B1A4A46204621F01CFE051E39
:1030E000FFF658AF08D0E26AA36812681344A360E1
:1030F000D4E901318B42EDD86168A38901EB460226
:103100009A429FD1DFF8A880A26801EA08039A4298
:1031100098D0204621F039FE054600287FF43AAFCA
:10312000636803EA0803A360A389A288A3EB4603AC
:103130009A4220D038461FF077F901232374A289E0
:10314000E3891C48009203211B4A22F0C0F86368FF
:103150009AB200921748194A1B0C032122F0B7F8C3
:10316000A3689AB200921348154A1B0C032122F05F
:10317000AEF8002598E6204621F004FF05463846C3
:103180001FF052F9002DD8D08EE60E4A09480321CF
:1031900021F0F9FD63681B0C1B0402A92046029371
:1031A00021F0E4FD0299204621F0EFFD49E700BF40
:1031B0000000FFFF70A902001CD8020033D80200F3
:1031C00045D802007DD802002DE9F04F1D4691B090
:1031D000037C02910446009253B9644A6448012179
:1031E00021F0D1FD6FF00C06304611B0BDE8F08F34
:1031F000C26A0821104621F0EAFD294601901046D6
:1032000021F0E5FDA389019AA3EB8203AB420746B7
:10321000C0F0A9801DB1009B002B00F0A480636862
:10322000059306AA05A92046DDF814A021F016FE94
:1032300006460028D8D1BDF81830029A934206D02D
:103240006268059B9A42ECD1002D36D1CCE706A9E5
:10325000204621F0C6FD0028F2D0BDF81A80BDF846
:103260001C3045B39D4228D1E36ADDF800B01B68ED
:103270004FEA1A4A5B424FEA0A4A03F02003D0445D
:103280000393AA46DDF80C90D14528BFD1464B46A2
:1032900008AA4146204621F030FD00284AD14A467E
:1032A00008A9584627F010F838B9BAEB090AC844FB
:1032B000CB44E7D198E7002B96D0002F3DD1B846FC
:1032C00004F1140A4FF0FF324FF0FF3350461FF065
:1032D00033F8E3899E4243D0A168626808EB01039A
:1032E0009A422FD3029BADF82030FF238DF8263071
:1032F000009AADF822102B462046ADF8245021F05C
:10330000F7FD29460746E06A21F061FDA368034402
:10331000A36057B908A821F051FD08A9204621F063
:1033200020FE002814BF07462F4650461FF07CF8A9
:103330003E4659E7C1DC064656E7019B1F441FFA8B
:1033400087F8BDE72046FFF76DFD07460028ECD162
:10335000204621F02EFE07460028E6D10136B8E7C8
:103360006FF01B07E1E76FF015063DE77AD7020023
:1033700070A902002DE9FF471E46037CBDF830907E
:1033800004460F4690464BB92C482D4A012121F0A6
:10339000FAFC6FF00C0004B0BDE8F087C06A0821A9
:1033A00021F015FDA389A3EB4003B34243D3D4F826
:1033B00004A0CDF804A000254D455146DDF804A039
:1033C00009D9636853451ED1BDF80830BB421AD0F5
:1033D0006FF00100DFE702AA01A9204621F03EFDBF
:1033E0000028D8D1BDF80830BB4206D102A920463A
:1033F00021F0F7FC08B10135ADB26268019B9A4239
:10340000DAD15146E0E7BDF80C30002BE0D0A945F9
:10341000DED8BDF80A00090CB3424FEA014128BFCB
:10342000334601444246204621F067FC0028B2D1D1
:10343000BDF80C00AFE76FF01500ACE770A9020013
:103440007AD702002DE9F047DFF858800446074696
:103450004FF0010914B93846BDE8F08794FAA4F595
:10346000B5FA85F509FA05F32E0108EB05156FEAA3
:10347000030A24EA03042B7B002BEBD058F8063018
:103480001B694BB94644042273682846196807EA49
:103490000A0721F09AFEDDE7284698470028D9D18F
:1034A000F0E700BFE8A9020030B51049104889B024
:1034B000002226F048FE0F4D0F4900220023CDE9DF
:1034C000062300240E23CDE90334CDE901440B4B40
:1034D00000944FF4407228461FF06AFB08492846C2
:1034E00026F0B1FC204609B030BD00BF0535000014
:1034F00048130020C00E0020C041002031380000D9
:1035000099D8020001481FF011B800BF100D00202B
:103510002DE9F047804621480F4621F036FE064649
:10352000002833D000252846BDE8F087237B83B1EF
:103530002368DB680BB120469847636883F80690E0
:1035400023681B69D3B9636804221968204621F0F7
:103550003CFE013610345445E8D3B8F1000FE2D0F8
:10356000002DDFD02846FFF76DFF0546002FF7D06E
:1035700000214FF4A47026F018FDF1E7204698478B
:103580000028E0D009FA06F31D43E2E7044CDFF817
:1035900014A005464FF00109DDE700BF8C1D002097
:1035A000E8A9020008AA0200014B53F82000704766
:1035B0008CAC020008B5034608462BB1044A1360E0
:1035C00000F07AFC002008BD6FF01500FBE700BF9B
:1035D0003807002010B5044C237813B903481EF0B7
:1035E000A5FF0123237010BD15400020100D002001
:1035F00010B504460B4821F0C8FD5CB1BFF35B8FEA
:10360000094B53E8001F013943E80012002AF8D1A2
:10361000BFF35B8F054826F0A2FD0548BDE81040CA
:103620001EF084BF841D0020881D00204813002048
:10363000100D00200020064BBFF35B8F014653E8BE
:10364000000F43E80012002AF9D1BFF35B8F7047E7
:10365000841D002070B5FFF7EDFF084C084E0546AD
:10366000B44200D370BD63685B792BB123685B689B
:1036700013B12946204698471034F1E7E8A9020023
:1036800008AA020010B5044C0449204621F014F8A1
:10369000034B1C6010BD00BF640C002078AC02001E
:1036A0007C1D00200D4A0E48002310B513700D4AF2
:1036B00013600D4A4FF400411360FFF77BFFFFF7E3
:1036C000E1FF0A4B0A4918468B4200D310BD1A1A73
:1036D0005C681211013222711033F5E716400020A8
:1036E00087510200841D0020881D0020E8A90200E7
:1036F00008AA0200014600220148002320F0FDBF75
:10370000640C0020014821F096B800BF640C002032
:10371000024B0146186821F0E2B800BF7C1D002072
:10372000014821F017B900BF640C002070B5294B87
:10373000187800284DD0FFF7E5FF0546002845D151
:10374000254B264C1B68002B19DD26F0B5FC4FF4E9
:103750007A72A0FB020302FB0131C30BD4E9002003
:1037600043EA41439B1A4FEAD13140F2E93261EB1F
:103770000001934271F1000101D3FFF76BFFD4E91F
:10378000003213F57A7342F10002C4E90032BDE859
:103790007040FFF7C5BF63685B7923B12368294692
:1037A0001B68204698471034B442F4D32846FFF7EC
:1037B000AFFFBFF35B8F0A4B53E8001F013943E8AB
:1037C0000012002AF8D1BFF35B8FB9E7054C064E13
:1037D000EAE770BD15400020841D00204013002042
:1037E000881D0020E8A9020008AA020070B50D4D4E
:1037F000297861B90120FFF78BFE0B4C0B4EB442C8
:1038000006D3FFF793FF0028FBD101232B7070BD77
:1038100063685B791BB1236820469B689847103426
:10382000EDE700BF16400020E8A9020008AA020048
:1038300000212DE9F0470846FFF76AFE044658B319
:1038400040F267684FF0000926F0CCFD1B4B1C4A84
:103850001B58136033B11B4B1B68092B02DD1A4840
:103860001EF064FE194FDFF860A0002544B1204629
:10387000FFF7E8FD044618B94FF0FF384FF0FF3965
:10388000FFF754FF064628B9B5B942464B465046A5
:103890001EF086FE3546E9E74FF0FF384FF0FF395E
:1038A000D2E72B689B691BB1002211462846984736
:1038B0001035BD42F5D3E8E7054DFAE708000000F2
:1038C000801D0020881D0020100D002008AA020085
:1038D000E8A9020013B5184821F057FC174B1B78D4
:1038E00073B1EFF31184202383F31288BFF36F8F3A
:1038F000FFF71CFF84F31188BFF36F8F02B010BD78
:103900000F4B1B68002BF9D050B900220023CDE9E2
:1039100000230C484FF4004200231FF0E9FEEDE7BE
:103920000928EBD1074826F01AFC074802B0BDE889
:1039300010401EF0FBBD00BF881D00201640002077
:10394000801D002048130020100D002010B5064BEC
:103950001B68044698472146A060044820F04CFFAD
:10396000BDE81040FFF7B6BF38070020640C002008
:10397000044A054B9B1AB1EBD30F34BF52F8310008
:103980000020704798A80200E8A902002DE9F04F36
:103990008FB004AFC1F34A28B8600D4691467B60F2
:1039A0000C0DB8F1000F63D0002607F114034FF09F
:1039B000040B4FF00A0AC7F80C80C7E907667E625D
:1039C0000193CDF808B0CDF800A007F11C03F96809
:1039D00032464846FEF768FEB0F5006F03461CD33A
:1039E0006C468AB0D9F8041004AB2648C3E9050137
:1039F00040F2FF71D9611A464FF400711984224BCD
:103A000042F8103F214833464FF41251FFF7BEFFF2
:103A1000A5462C37BD46BDE8F08FC0F30A0804F177
:103A20001700184420F0070080083B60FFF762FE93
:103A300068F35325044690B13B68154AC7E9083638
:103A400000F1100107F11403F961CDE900A3CDF8ED
:103A500008B0F96807F11C034846FEF725FE68F335
:103A600053257B68B9682A46204621F0CDFBD0E774
:103A700004F1170020F007008008FFF73BFE044622
:103A8000EDE700BFAED802000400000198A90200D3
:103A9000DD5102002DE9F04F87B0DDE91279DDE953
:103AA000105A0446039193469846BFB1CDF8009052
:103AB0003B46524610210020CDF81490FEF722FC20
:103AC000B0F5006F06460AD3184A194840F2FF7352
:103AD000022107B0BDE8F04F21F0EFBB3E4605F1F3
:103AE0001700304420F0070004F007048008FFF7B7
:103AF00001FE0BF0070BE40044EA8B1444EA462471
:103B000044EA0554054640B13FB1CDF800903B462C
:103B1000524631461030FEF7F5FB039943462246E4
:103B2000284607B0BDE8F04F21F06EBBEDD802008B
:103B300098A90200406820B1034BC01A40F3CF009F
:103B400070474FF0FF30704798A802000EB403B5DD
:103B500003AB014653F8042B0448019301F0C4FC65
:103B600002B05DF804EB03B0704700BF1D530200C4
:103B7000CA0605D48B064CBF02490349FFF7E6BFCE
:103B8000704700BF26D9020025D902002DE9F04F69
:103B900089B09B46149B06939DF84CA0159B0593FA
:103BA000169B179E049304460D469046BAF1000FEB
:103BB00000F09D8006F48073079321F004FB06F06B
:103BC0000209024600283ED091492046FFF7BEFF79
:103BD0000746B9F1000F08D016F0440F35D18D49D2
:103BE0002A462046FFF7B2FF074406F0010353B10F
:103BF000894B8A4953F82A20894B2046002A08BF5E
:103C00001A46FFF7A3FF06F48073002B49D006F095
:103C10000803002B63D1B8F1000F66D081494246FA
:103C20002046FFF793FF0546069B3D44002B6DD1D0
:103C3000049B002B73D1F30700F1E480314620464A
:103C4000FFF796FFD8E00746C3E7774B18680028D0
:103C5000CAD0764B4FF47A791B68B5FBF3F54FF475
:103C60006163B5FBF0F100FB115509FB05F54FF061
:103C70003C0CB1FBF3F203FB1211B5FBF0FEB1FB00
:103C8000FCF300FB1E550CFB131109FB05F500911D
:103C9000B5FBF0F56649CDE901E52046FFF756FF93
:103CA000A2E706F00803EBB1624B634953F82A2000
:103CB0002046FFF74BFF0546B8F1000F05D05949E4
:103CC00042462046FFF742FF0544BBF1000FABD050
:103CD0005A495A462046FFF739FF0544A4E74FF0FA
:103CE000000BE1E706F00805E6E745469CE7BBF177
:103CF000010F069B06D1002B64D1049B002B7BD0C7
:103D000000250CE0002BF8D04D485CE04D48069BA8
:103D10004D49224620F059FB049B002B68D0DFF868
:103D20002C81DFF82C91049F3146102F204628BFAC
:103D30001027FFF71DFF4FF0000B5D4545DC059B8D
:103D400049461A782046FFF701FF4FF0010B1BF0A0
:103D5000070F03D141462046FFF7F8FE5F453BD9E8
:103D6000059B494613F80B202046FFF7EFFE0BF1A9
:103D7000010BBBF1100FEAD1364920464FF0000B82
:103D8000FFF7E4FE5A46059B9A5CA2F120015F29E9
:103D900028BF2E2230492046FFF7D8FE0BF1010B39
:103DA000BBF1100F1DD01BF0070F03D14146204679
:103DB000FFF7CCFE5F455A46E5D841462046FFF75F
:103DC000C5FEEBE71F485546A1E741462046FFF7F1
:103DD000BDFE0BF1010BB0E720492046FFF7B6FE10
:103DE000C5E7059B3B440593049BDB1B04939AD1D9
:103DF000BAF1000F7FF41FAF204609B0BDE8F04FC5
:103E000021F07FBA064A05492046FFF79FFE15E7D5
:103E10002DD9020031D902009CAC020088E50200D5
:103E200028D9020056D90200941D0020901D0020C0
:103E30003AD90200B0AC02005AD9020060D902009F
:103E4000535302001D530200E95400006DD90200D3
:103E500065D902006FD9020071D902006BD9020046
:103E600073B542F20F738B4228BF0B4605680F4AA9
:103E70000446052168461FF069FD63680C495B68CC
:103E800006460B22284621F02EFA63683246694620
:103E900028465B6821F027FA636806495B681B22A5
:103EA000284621F020FA02B070BD00BFA6E1020052
:103EB00090D9020074D90200074A002101239042E0
:103EC00006D8064A01B901231360054B18607047F4
:103ED00040085B000121F2E740420F00901D0020E6
:103EE000941D0020014B01221A70704717400020DA
:103EF000014B002019607047AC1D00200148FFF7FE
:103F0000AFBF00BFE0AC020010B5064B18680C460E
:103F1000FFF74AFB21460346BDE8104002480F2246
:103F2000184700BFAC1D0020E0AC0200F8B5094DF9
:103F3000094B0A4ED5E9004701221A700CB92C60D2
:103F4000F8BD214630463A4600F01EF8241A0644D1
:103F5000F4E700BFA01D00201840002019400020F9
:103F600010B9074B18707047064B1B781BB141F214
:103F7000883025F050BCA420002126F016B800BFE0
:103F800017400020184000202DE9F047DFF8789016
:103F90001E4F80460E46042499F80050A5B925F01E
:103FA0002DFC32468246414628461DF063FF0546F9
:103FB000504625F02BFCE5B101233B7099F8003009
:103FC00073B93046BDE8F0873246414600201DF007
:103FD00051FF0546EFE72046FFF7C2FF651E2C465E
:103FE00000201DF08BFF0028EBD03B78002BF2D196
:103FF000E7E73B78002BE4D0013C2046FFF7B0FF19
:104000003B78002BC8D1DCE7184000201740002087
:10401000F8B5074F0D4604464618B44201D128466C
:10402000F8BD14F8011BBB6801485B689847F4E7CA
:1040300050A50200014B03600020704724AD020030
:1040400070B5104B1C680D46B4B10F4B19680023B6
:104050008B4202DB6FF0010070BD224612F8106B3C
:10406000864202D001331446F2E7E06825F0D8FB1F
:1040700028B12C600020EFE76FF00C00ECE76FF048
:104080001200E9E74407002024AD020010B588B013
:10409000436802938368C068CDE903320A6800234D
:1040A000CDE906230C4601AA0449059323F052FFEB
:1040B000079808B9059B236008B010BD4D54020055
:1040C0001FB507240294044C0194BDF818400094D5
:1040D00023F0F6F904B010BD480C00202DE9F041A2
:1040E0001F46104B88B01B680DF114089B680446EE
:1040F00040460D461646984700238DF81D3070B98E
:104100000A23CDE90183BDF83830009332463B469F
:104110002946204623F0D4F908B0BDE8F0816FF0BD
:10412000FE00F9E7DC1D0020B0B5124A124B00AFCB
:104130006D4688B0012908BF13460C466A460F49F0
:10414000C2E905134FF4007393830D4B42F8103FFF
:1041500000230C484FF4E651FFF718FC0A4B1B688C
:104160001B68AD461BB1621E504250419847BD4688
:10417000B0BD00BF03DA02000BDA020014DA02005D
:104180000300000158A90200DC1D002028B183684B
:104190001BB1034B1860002070476FF0150070478B
:1041A000DC1D002030B50F4B8BB01B6801AD044601
:1041B0009B68284698478DF80D40044678B901461B
:1041C000182204A826F078F8074B2046CDE90535DB
:1041D00004A90A23ADF81C3008F054FC044620461C
:1041E0000BB030BDDC1D002008AE02001FB5134827
:1041F000BDF8181004686068B0B1C1B90A2B16D1B7
:1042000010685168128901AB03C31A80636801A862
:10421000984778B90120FFF7C5FF002814BF6FF059
:104220000D000A2004B010BD6FF01000FAE76FF027
:104230000600F7E76FF07F00F4E700BFDC1D002009
:10424000024B01221A700020704700BF2C40002052
:104250001FB501240294044C0194BDF81840009449
:1042600023F02EF904B010BD2C400020B0B5144A44
:10427000144B012900AF6C4688B006BF13460125D8
:1042800000256A461049C2E905134FF40073938371
:104290000E4B42F8103F00230D484FF4E651FFF754
:1042A00075FB0C4BA5461C683CB154F8083C083C17
:1042B0000BB128469847A468F6E7BD46B0BD00BFDD
:1042C00003DA02000BDA02002DDA0200030000011B
:1042D00078A90200E01D002070B516461D46104A60
:1042E0001048032120F0E9FF0F4B1C687CB1083C0B
:1042F0006FF0850063682BB13078984710B110F1EA
:10430000860F09D1A4680CB1083CF3E710B16FF037
:104310007F0070BD2846FCE76FF00D00F9E700BF95
:1043200042DA020078A90200E01D002068B10023F3
:104330008360074B596800F1080219B9C3E90022EC
:10434000002070470A605A60FAE76FF01500704766
:10435000E01D002010B50D4C86B0062360701822B9
:1043600000216846237025F0A7FF094B6946CDE977
:10437000013400200223ADF80C3008F083FB10F16B
:10438000800F08BF002006B010BD00BF2A400020EB
:1043900058AE020010B5084C86B024788DF817404E
:1043A000012402940DF117040194BDF820400094FB
:1043B00023F086F806B010BD4F0C002080B50C4AE3
:1043C0000C4B00AF88B0012908BF13466A460A4962
:1043D000C2E905134FF400739383084B42F8103F72
:1043E000074800234FF4E651FFF7D0FABD4680BDE1
:1043F00003DA02000BDA020060DA020003000001B7
:1044000098A80200014B1878704700BF4F0C00209D
:1044100000B589B064288DF8070019D80E4B182212
:104420001870002102A825F047FF0C4B03930DF1F3
:104430000703049302A901230020ADF8143008F00B
:1044400021FB10F1800F08BF002009B05DF804FBCC
:104450006FF01500F9E700BF4F0C0020F8AE020026
:1044600038B5124A124B11781B7899420BD0022BA7
:10447000104D137008D1104C03E0A36803B19847A6
:104480000C34AC42F9D338BD012B0B4C0AD0AC42F2
:10449000F9D2236803B198470C34F8E7636803B195
:1044A00098470C34AC42F9D3EDE700BF2D40002013
:1044B0002E40002098A802008CA8020008B504F045
:1044C00091FF034B00221A54BDE80840FFF7C8BF14
:1044D0002E4000207FB51C46BDF820300646114610
:1044E000ABB9012C16D1224601A821F040FA01A84F
:1044F00021F07DFA0546304604F074FF084B022D8A
:104500001D540AD8FFF7ACFF204604B070BD6FF011
:104510000600FAE76FF00C00F7E76FF01200F4E71F
:104520002E4000202DE9F0410F4B1C6805460E4639
:104530001746ACB14FF0FF324FF0FF330B481DF080
:10454000FBFE63683246D3F8088029463B46204686
:10455000C047044605481DF067FF2046BDE8F081CE
:104560006FF00104F9E700BFE81D0020FC0C0020FB
:1045700000230360044B5A6812B9C3E90000704776
:1045800010605860704700BFEC1D0020014B1860A0
:10459000704700BFE81D002030B585B000230546F8
:1045A000CDE9023301904FF0FF330C484FF0FF325A
:1045B0001DF0C2FE0A4B1C684CB9284600F0E0F81A
:1045C000044606481DF030FF204605B030BD636844
:1045D00020461B6801A998472468EDE7FC0C0020E1
:1045E000EC1D00201FB5CDE9010103924FF0FF3310
:1045F0000A484FF0FF321DF09FFE094B1C682CB992
:1046000006481DF011FF204604B010BD6368204627
:104610001B6801A998472468F1E700BFFC0C002043
:10462000EC1D0020024B0022C3E90022704700BFAE
:10463000EC1D0020024B0022C3E90022FFF7F2BF6D
:10464000F41D00202DE9F74307460C4609B100236D
:104650000B601F4DDFF87C9000264D450FD31E4B9D
:104660001D6885B355F8188C01AA41463846183D97
:1046700020F0C0FF10B3D6B914BB2E461EE0D5F80B
:10468000008001AA4146384620F0B4FF50B116B967
:1046900054B92E4606E031680022404620F0AAFFB9
:1046A0000028F5D11835D8E7019B2360F1E7316880
:1046B0000022404620F09EFF0028DDD1AD69D0E702
:1046C000019B2360D9E7304603B0BDE8F08300BF0B
:1046D00008AA020098AA0200F41D00202DE9F04764
:1046E00084B002AF0446D7F8289078600D4616468D
:1046F0009846B9F1000F07D0D9F8001031BBD9F8AE
:1047000004A0BAF1000F28D1391D2046FFF79AFF07
:1047100008B3D0F80C907868434632462946C8471B
:10472000C8B16D468AB002AA124BD061C2E9053405
:104730004FF400731384104B42F8103F0F480023CE
:104740004FF41151FFF722F9AD4604E03A1D20F075
:1047500051FF0028D3D1002007E0D9F8083000939A
:104760007868434632462946D0470837BD46BDE8FB
:10477000F08700BF7DDA020004000001D0A902002A
:104780002DE9F047DFF8AC90DFF8ACA080464FF0A1
:1047900000470026294C3D464C450DD3DAF8004031
:1047A000002C42D0183CB8F1000F25D122695ABB29
:1047B000A469F5E72F46EDE7B8F1000F03D12269B0
:1047C0004AB91834E8E720680022414620F012FF79
:1047D0000028F4D1F5E76368BB4205DDAF4209D09C
:1047E0009D42A8BF1D46ECE7EBD19047002E08BFC5
:1047F0000646E6E71D46E4E720680022414620F031
:10480000F9FE0028D2D1D3E76368BB4205DDBD4283
:1048100009D09D42A8BF1D46CAE7C9D19047002EC6
:1048200008BF0646C4E71D46C2E7AF42C2D13046C4
:10483000BDE8F08798AA0200F41D002008AA020033
:1048400038B50C4D0C484FF0FF334FF0FF321DF0E0
:1048500073FD2B783BB9FFF7EDFE00F06DF80446D1
:1048600010B901232B70002403481DF0DDFD204604
:1048700038BD00BF2F400020FC0C00202DE9F04780
:10488000048FDFF8B0A0013498B006468946A4B280
:1048900000F10807651EADB2B5F5004F47D04A23B9
:1048A00005AA2946384620F055FC04F57F543F34CC
:1048B000A4B28046214601230DF10B02384620F0B8
:1048C00049FCB8F1000F014610DC002810DC338FE2
:1048D000AB4209D132466B1E22F8383F4FF40041FB
:1048E00002233846FEF770FC2C46D3E7002808DC8C
:1048F0002946384620F02AFC2146384620F026FC7E
:10490000E5E708F160030DEB0308002308F84C3CD1
:104910005246CDF8009003AB05A80397ADF81040C0
:10492000FFF7DCFE0028DFD018B0BDE8F0870020DC
:10493000FAE700BF655602007FB5012369460320F0
:104940000193FFF77DFB044660BB02AA01A9032087
:1049500020F09EFD044610B110F10C0F22D10399F6
:10496000B1F5803F23D2009A00239468184608448A
:1049700084421AD30133082BF9D10E4DA982EB8260
:104980005368AB602846D368EB6320F003FF04460E
:1049900040B9094E6E602846FFF7EAFD28466E6072
:1049A000FFF7F4FD204604B070BD9BB2E5E76FF061
:1049B0002004F7E7FC1D0020D80700202DE9F04770
:1049C000064600AF0C46002936D0E9468AB0D1E948
:1049D0000012A3686D462148A8464FF0050AC5E9B4
:1049E0000501C5E9072348F810AF1D4842460023DA
:1049F0004FF42151FEF7CAFFCD46D4E90312636993
:104A0000AD461848C5F810A0C5E90501C5E907235A
:104A10001348002342464FF42151FEF7B7FFCD461D
:104A2000E369114A0E48012120F047FCA3690F4AAF
:104A30000B48012120F041FC012E07D1EFF3058343
:104A40000B4A0748103B314620F037FC21463046E0
:104A50001DF084FABD46BDE8F08700BFA2DA02006F
:104A6000C8A90200D1DA020000DB02000FDB02005D
:104A70003DDB020030BFFFF7FDBF00BF2DE9F04175
:104A80000B4EDFF8308006EB0807CC1B054632469C
:104A90000949204625F0E8FBA01942460021083CC0
:104AA00025F00AFC6C6707F10800BDE8F08100BF43
:104AB000000000000800000098AA0200054B5A6997
:104AC0009B689A421FBF044A536843F08053536067
:104AD000704700BFB03F002000ED00E070B5294CEA
:104AE00006460D462848294920F094FEA36AD904B9
:104AF0003CD52548264920F08DFE1720A36A1A05CB
:104B000004D52148234920F085FE18201D4CA36AB6
:104B10009B0512D51C48204920F07CFEA36BA26A9D
:104B2000100409D51D4A1848012120F0C6FB1EB10A
:104B3000A36A23F40043A3621920124CA36A590507
:104B400004D51148164920F065FE1A20A36ADA053B
:104B50000ED50D48134920F05DFE1B20094A936ACB
:104B600043F47F43936200232B7070BD1620C5E78A
:104B7000A36A9B04F2D504480B4920F04BFE1C208D
:104B8000ECE700BF00ED00E0C8A9020050DB020026
:104B900066DB020077DB02008ADB0200A3DB020097
:104BA000B8DB0200D3DB0200EBDB020010B5204CC7
:104BB0002049214820F02EFEA36A990136D51E48CF
:104BC0001E4920F027FE1E20A36ADA0104D51A48E8
:104BD0001B4920F01FFE1F20154CA36A1B0304D5A0
:104BE0001548184920F016FE2120A36A590304D560
:104BF0001148154920F00EFE22200D4CA36A9A039D
:104C000004D50D48114920F005FE2320A36ADB03DB
:104C100004D509480E4920F0FDFD2420044A936A7A
:104C20006FEA03436FEA1343936210BD1D20CBE785
:104C300000ED00E01ADC0200C8A9020032DC02002C
:104C400045DC02005FDC02007DDC0200A2DC020029
:104C5000BCDC02002DE9F843364D804689463648D3
:104C60003649174620F0D6FDAB6ADE0627D5344913
:104C7000314820F0CFFD1124AB6A1D0704D531491E
:104C80002D4820F0C7FD12242A4DAB6A980718D58D
:104C90002D49294820F0BEFD6E6BAB6A190646D53A
:104CA0002A4A25483346012120F007FBB9F1000FBD
:104CB00003D0AB6A23F08003AB62132403E010241B
:104CC000DAE76FF015061B4DAB6ADA0704D5204909
:104CD000194820F09FFD1424AB6A9B0604D51D499A
:104CE000154820F097FD1524124B9A6AD50602D478
:104CF0009A6A90070AD55B68190507D54146304680
:104D000000F026FA10B180F309880224094B9A6A50
:104D1000920642BF5A6A22F400525A629A6A42F0DC
:104D2000FF029A6200233B702046BDE8F8836FF0D3
:104D30001506C2E700ED00E0C8A90200E7DC0200AA
:104D4000FDDC020077DB020030DD020048DD0200FE
:104D50005EDD0200EBDB02002DE9F041664B8AB01C
:104D6000D3F8048000AF0446C8F30805002686F394
:104D70001188BFF36F8F02F07F43B3F17F4F07D1EC
:104D800002F00C03082B12D15C495D4820F042FD73
:104D9000002634460023FB71EB1E092B00F28A80AB
:104DA000DFE803F00A80837C88888888888610077B
:104DB0004CBF0C460126EDE7524951484E4D20F0BC
:104DC00029FD0023FB71EB6A9A0705D54E494C4833
:104DD00020F020FD002332E0EB6A002B01DA4B4982
:104DE000F5E7EB6A5B00F5D54949454820F012FD2F
:104DF0006B69A26943F480736B61BFF34F8FBFF39C
:104E00006F8F6B6932F8022C23F480736B61BFF3F0
:104E10004F8FBFF36F8F4DF602739A4208D0AB6A83
:104E2000DBB273B3FA1D01212046FFF713FF37E011
:104E30002368384A3248012120F03FFA2368FA7982
:104E4000DAB907F1080504F1200C206861682A46E8
:104E500003C2083464451546F7D17A6A002E45D05E
:104E6000C2F3080121B96FEA52226FEA42227A6244
:104E700007F108011846FFF7A1FD2837BD46BDE838
:104E8000F081AB6A13F47F4F04D0F91D0120FFF7C6
:104E900025FE05E0AB6AB3F5803F9BD3FFF786FEA6
:104EA0000346CCE7FA1D0021BEE7F91D0020EEE71E
:104EB00019498CE7194A1A4B18F4F87FE8468AB06A
:104EC00018BF13466A461749C2E905134FF4007329
:104ED0001384103D144BD56142F8103F084800235D
:104EE0004FF41151FEF752FDC54673E722F4FF72ED
:104EF00022F00102BBE700BF00ED00E0ABDD0200E5
:104F0000C8A90200D6DD0200EDDD02000EDE0200BF
:104F10001CDE02003BDE020057DE020092DD0200D2
:104F20007DDD02007BDE020004000001044B5A69B3
:104F300042F010025A615A6922F008025A61704721
:104F400000ED00E0EFF30880EFF3098101B5724650
:104F5000FFF702FF01BD00BF0B4880F3088819F07E
:104F6000D3FF202080F3118808484FF404614018D3
:104F700080F30988EFF314800221084380F314883A
:104F8000BFF36F8F00F0A4F8406700208059002025
:104F9000084B9B6883420BD1EFF3058343B1064B6B
:104FA0005A6842F080525A605A6A22F400425A62A9
:104FB0001EF0C4B8B03F002000ED00E014498A683C
:104FC0004FF030001044EFF3098C80E8F01F2020F0
:104FD00080F31288BFF36F8F0E4F4FF000664A695F
:104FE0008A603E60506F0C4C2060906F0023936786
:104FF00080F3118804B5104600F00EF9BDE80440B6
:1050000002F1300090E8F01F8CF30988704700002F
:10501000B03F002004ED00E03C1E00201EF0040F15
:105020000CBFEFF30880EFF30980816911F8021CCF
:105030000229FFD001B5724620F0E1FB01BD00BF9F
:1050400040B2002807DB044A4109012300F01F0099
:10505000834042F82130704700E100E040B2002870
:105060000CDB4309064900F01F0020330122824077
:1050700041F82320BFF34F8FBFF36F8F704700BFFE
:1050800000E100E0054B420900F01F0053F8222028
:10509000012303FA00F01040704700BF00E100E078
:1050A00040B20028A8BF00F1604001F10101B8BF83
:1050B000064B4FEA4111ACBF00F5614000F00F0014
:1050C000C9B2B4BF195480F80013704714ED00E062
:1050D0000F4A08B50F4B22F07F029A60BFF34F8F43
:1050E000BFF36F8FD3F8882022F47002C3F88820B2
:1050F000EFF3148323F0040383F31488BFF36F8F5B
:105100001DF01AF81EF04EF900F05CF81DF058F88A
:105110000000000000ED00E042F8203C009B42F857
:105120001C3C0A49019B42F8183C029B42F8143C83
:1051300021F001014FF0807342F8043C42F8081C52
:105140000023203A02658367704700BF812A000070
:10515000094A0346906870B113F1160F406E05D0EE
:10516000A0F140029A4205D8834203D2814228BF6F
:105170000020704700207047B03F002008B515465A
:10518000094A0A4B9060426F1A600E4600F044F8DC
:105190002C4686F309880020054B984720460021BD
:1051A00000220023034C2047B03F00203C1E00207B
:1051B00025580200812A0000014B10221A61704715
:1051C00000ED00E0044800232021C2180133302BF9
:1051D00082F80013F9D1704700E100E008B5EFF361
:1051E0000583064A103B02EBC30152F833004968BD
:1051F0008847BDE80840FFF761BC00BFD0A50200AA
:10520000024B034A0348012100F08AB80000022043
:105210000000002084AF0200426E054B403A1A6045
:10522000044A4021C3E901121846012100F082B866
:10523000401E002000000B1508B503461048D0F8AA
:105240009020C2F30722013A934207D90D480E4A33
:10525000012120F032F86FF0150008BDC0F8983039
:105260000A6822F01F021A4342F01002C0F89C2084
:105270008A6842F00102C0F8A0201846EDE700BF9E
:1052800000ED00E0B0A9020092DE0200F0B50E468B
:1052900085B01F4604460025B5420DDA606810B39C
:1052A00097B1431E18420AD0104A11482B460121DB
:1052B00020F003F86FF01502104605B0F0BD1F286E
:1052C000F2D921680B42EFD12368019320F0CDFA87
:1052D000A36801A90343D0B20393FFF7ADFF10F118
:1052E000160FE7D0421C01350C34D5E7B8DE0200BA
:1052F000B0A90200044B0522C3F89420BFF34F8FDE
:10530000BFF36F8F704700BF00ED00E0BFF35F8F0A
:10531000024B0022C3F89420704700BF00ED00E06C
:1053200010B5034C01232278FFF7B0FF207010BDA9
:105330003040002008B50B4A00231278FFF7A6FF83
:1053400010F1160F07D0084A0021D2F89030C3F3AD
:105350000723984200DB08BDC2F89800C2F8A010ED
:105360000130F2E73040002000ED00E02DE9F0438D
:1053700057485849D0F890300D68C3F307239D4231
:1053800085B000F2A180FFF7C1FF49680022954275
:1053900001F10C011AD1504C504F25706846FEF7B0
:1053A00049FEDFF83C81DFF83C9106460025AE421D
:1053B0001FD1237846490020D1F89020C2F307225C
:1053C00093427BDBFFF796FF00204CE0C0F898206B
:1053D00051F80C3C23F01F03134343F01003C0F8B3
:1053E0009C3051F8043C43F00103C0F8A030013276
:1053F000CDE7009800EB05114FEA051CCB683B4058
:10540000B3F5000F44D00AD8B3F5001F2ED0B3F582
:10541000800F34D0B3F5801F10D00135C7E7B3F14A
:10542000807F3ED0B3F1007FF7D150F80C30886810
:105430004A6820F01AFA40F4802009E050F80C3055
:1054400088684A6820F011FA40F0885040F4302013
:10545000039001A92078CDE90123FFF7EDFE002894
:1054600028DA6FF0150005B0BDE8F08350F80C3075
:1054700088684A6820F0F9F940EA0800E8E750F83F
:105480000C3088684A6820F0F0F940EA0900DFE74C
:1054900050F80C3088684A6820F0E7F940F08270D4
:1054A000D6E750F80C3088684A6820F0DEF940F002
:1054B0008870CDE7237801332370AEE7C1F89830C8
:1054C000C1F8A000013377E74FF0FF30CBE700BF12
:1054D00000ED00E090AF0200304000200000F0FF3F
:1054E0000000081100000202F0B587B007460E4622
:1054F00014460021102268461D4624F0DDFE0223DA
:105500008DF802302A46054B019321466846CDE9C5
:1055100004761EF0ADFA07B0F0BD00BF8B58020054
:1055200008B5024B1B689847002008BD4C1E0020A0
:10553000034B044A1860937843F00203937070475A
:105540004C1E0020EC07002008B50649064821F053
:105550000701C1F1005202F500321EF0F9FE0020F1
:1055600008BD00BF187F0020501E002003484FF0E8
:10557000FF324FF0FF331CF0DFBE00BFFC070020FE
:1055800001481CF051BF00BFFC07002038B505469C
:10559000FFF7ECFF08482A4608211EF071FE04467A
:1055A00028B925B124F01EFF044B0C221A50FFF736
:1055B000E7FF204638BD00BF501E00200C00000051
:1055C00010B50446FFF7D2FF214603481EF020FE27
:1055D000BDE81040FFF7D4BF501E002070B5A0FBFF
:1055E00001543CB92846FFF7D1FF064640B90026D2
:1055F000304670BD24F0F6FE044B0C221A50F6E73C
:105600002A46214624F058FEF2E700BF0C000000B5
:1056100070B54169867A0B4D044659B1437ADB0770
:1056200006D42C2303FB06535B6A1B689B689847D0
:10563000002363612C20214606FB0050BDE870402A
:1056400024F0C1BA580D0020024B2C2202FB00307E
:10565000704700BF580D0020827A064B2C2101FBB9
:1056600002339A6A1B7F1B33801A23F00303B0FBBB
:10567000F3F07047580D002038B5074B827A2C2480
:1056800004FB02335B6AD3E901240C601568FFF761
:10569000E3FF04FB005038BD580D00202DE9F04316
:1056A00085B005466846039190461C4624F006FDE9
:1056B000DDE90067EFF31189202383F31288BFF33C
:1056C0006F8F6B8B002B41D02A8B9A4225D90022F9
:1056D000002328461CF0F8FE0446F0B189F3118837
:1056E000BFF36F8F039B002B41D032463B46684689
:1056F00024F008FDA27A264B2C2101FB0233204620
:105700005B6A1B6803A91D68DDE90023A847606187
:1057100070BB2046FFF77CFF24E0698B4B1E6B8338
:1057200089F31188BFF36F8F2B7F2A8BAC6A1B33F1
:1057300023F00303521A02FB0344154B154AEB1ADC
:105740009B105343A3722B7FE372CBE789F311883D
:10575000BFF36F8F2346424628461CF0B5FE044631
:105760000028BFD10024204605B0BDE8F083636166
:10577000012300252381039B6382E27A6560294629
:1057800004F1180024F098FD63692582E360EAE7DC
:10579000580D0020A38B2EBA70B50C4C2C2500B9E7
:1057A00070BD037A4668013BDBB20372002BF7D170
:1057B000C3604360837A05FB03431B6A13B19847B8
:1057C0003046ECE7FFF724FFFAE700BF580D002052
:1057D000024B0122C3F840250020704700E0014041
:1057E00020B1034B800143F001031847704700BF0D
:1057F00040AB020008B5044824F012F800280CBFA2
:105800006FF01200002008BD10A5020010B503467D
:105810000548826814688AB21946A0470028B4BFB8
:105820006FF00400002010BD10A502000E4B4029AF
:1058300070B528BF40210D4C46181D46B04203F1FB
:10584000020304D1002305F81130074870BD027827
:105850001209A25C03F8022C10F8012B02F00F02CF
:10586000A25C03F8012CE9E74F4000201FDF020093
:1058700030B503788BB0044607AD032B21D8DFE8A1
:1058800003F0021A1C1E12492846FAF7ADFC0595D2
:1058900063780493A3780393E378029323790193C5
:1058A00063790093A3790B4A0B481E211EF04EF832
:1058B00009480BB030BD0949E6E70949E4E7094961
:1058C000E2E7094A0A2128461EF040F8DFE700BF58
:1058D0001CD502003ED502003140002023D5020035
:1058E0002AD5020034D50200DCFD02002DE9F74381
:1058F0003D4CBFF35B8F1F462368BFF35B8F16469B
:10590000DA07054620D538B9384A394801211FF051
:10591000CBFC6FF0010018E001A91FF08FFE3549A4
:1059200080460246284624F0DFFC50BBBFF35B8F65
:105930002368BFF35B8FC3F3C0081B0708D52E4A4B
:105940002B4802211FF0B0FC002003B0BDE8F0831B
:10595000A4F1D405072229463846B04706280BD8BB
:10596000264A234801211FF09FFC44F8D48C85F877
:105970000780C5F80380E7E70723B0FBF3F0E87181
:10598000E2E71F494246284624F0AEFC814680B932
:10599000412204F1DE013846B047031E05DA194AF8
:1059A000134801211FF089FCCEE7234483F8DE90E1
:1059B000CAE728461449424624F096FC05460028CA
:1059C000A7D1102204F19C013846B0470F28BBD85C
:1059D0000E4A074801211FF067FC1022294604F1F6
:1059E0009C0024F069FCAFE79405002037DF02003B
:1059F00038A9020031D5020058DF02007CDF020026
:105A00002DE60200A1DF0200D3DF0200D7DF020093
:105A10002DE9F04188B09C79DDF838805D791E79F8
:105A2000DF7893F802C093F801E01B78B8F1000F1B
:105A30000ED0CDE90638CDE904CE1346CDE9026794
:105A4000CDE90045084A1DF081FF08B0BDE8F081AE
:105A5000CDE905E3CDE9037C1346CDE90156034AC0
:105A600000941DF073FFF0E7F5DF020019E002007B
:105A700010B5FEF7E5FE044628B1044A03460121AD
:105A800003481FF01AFC204610BD00BF3AE0020098
:105A900038A9020070B504468CB01E461546A2B166
:105AA00029B10A4602A804211EF06DFF02A9009147
:105AB0002B462246242103A8FFF7AAFF109A31465D
:105AC00003A8FEF72FFD0CB070BD0346044A242145
:105AD00003A81DF03BFF0028F0DA6FF01500F2E795
